{
  "_format": "hh-sol-artifact-1",
  "contractName": "NFT",
  "sourceName": "contracts/NFT.sol",
  "abi": [
    {
      "inputs": [
        {
          "internalType": "address",
          "name": "marketplaceAddress",
          "type": "address"
        }
      ],
      "stateMutability": "nonpayable",
      "type": "constructor"
    },
    {
      "anonymous": false,
      "inputs": [
        {
          "indexed": true,
          "internalType": "address",
          "name": "owner",
          "type": "address"
        },
        {
          "indexed": true,
          "internalType": "address",
          "name": "approved",
          "type": "address"
        },
        {
          "indexed": true,
          "internalType": "uint256",
          "name": "tokenId",
          "type": "uint256"
        }
      ],
      "name": "Approval",
      "type": "event"
    },
    {
      "anonymous": false,
      "inputs": [
        {
          "indexed": true,
          "internalType": "address",
          "name": "owner",
          "type": "address"
        },
        {
          "indexed": true,
          "internalType": "address",
          "name": "operator",
          "type": "address"
        },
        {
          "indexed": false,
          "internalType": "bool",
          "name": "approved",
          "type": "bool"
        }
      ],
      "name": "ApprovalForAll",
      "type": "event"
    },
    {
      "anonymous": false,
      "inputs": [
        {
          "indexed": true,
          "internalType": "address",
          "name": "from",
          "type": "address"
        },
        {
          "indexed": true,
          "internalType": "address",
          "name": "to",
          "type": "address"
        },
        {
          "indexed": true,
          "internalType": "uint256",
          "name": "tokenId",
          "type": "uint256"
        }
      ],
      "name": "Transfer",
      "type": "event"
    },
    {
      "inputs": [
        {
          "internalType": "address",
          "name": "to",
          "type": "address"
        },
        {
          "internalType": "uint256",
          "name": "tokenId",
          "type": "uint256"
        }
      ],
      "name": "approve",
      "outputs": [],
      "stateMutability": "nonpayable",
      "type": "function"
    },
    {
      "inputs": [
        {
          "internalType": "address",
          "name": "owner",
          "type": "address"
        }
      ],
      "name": "balanceOf",
      "outputs": [
        {
          "internalType": "uint256",
          "name": "",
          "type": "uint256"
        }
      ],
      "stateMutability": "view",
      "type": "function"
    },
    {
      "inputs": [
        {
          "internalType": "address",
          "name": "_owner",
          "type": "address"
        },
        {
          "internalType": "string",
          "name": "_tokenURI",
          "type": "string"
        }
      ],
      "name": "createToken",
      "outputs": [
        {
          "internalType": "uint256",
          "name": "",
          "type": "uint256"
        }
      ],
      "stateMutability": "nonpayable",
      "type": "function"
    },
    {
      "inputs": [
        {
          "internalType": "uint256",
          "name": "tokenId",
          "type": "uint256"
        }
      ],
      "name": "getApproved",
      "outputs": [
        {
          "internalType": "address",
          "name": "",
          "type": "address"
        }
      ],
      "stateMutability": "view",
      "type": "function"
    },
    {
      "inputs": [
        {
          "internalType": "address",
          "name": "owner",
          "type": "address"
        },
        {
          "internalType": "address",
          "name": "operator",
          "type": "address"
        }
      ],
      "name": "isApprovedForAll",
      "outputs": [
        {
          "internalType": "bool",
          "name": "",
          "type": "bool"
        }
      ],
      "stateMutability": "view",
      "type": "function"
    },
    {
      "inputs": [],
      "name": "name",
      "outputs": [
        {
          "internalType": "string",
          "name": "",
          "type": "string"
        }
      ],
      "stateMutability": "view",
      "type": "function"
    },
    {
      "inputs": [
        {
          "internalType": "uint256",
          "name": "tokenId",
          "type": "uint256"
        }
      ],
      "name": "ownerOf",
      "outputs": [
        {
          "internalType": "address",
          "name": "",
          "type": "address"
        }
      ],
      "stateMutability": "view",
      "type": "function"
    },
    {
      "inputs": [
        {
          "internalType": "address",
          "name": "from",
          "type": "address"
        },
        {
          "internalType": "address",
          "name": "to",
          "type": "address"
        },
        {
          "internalType": "uint256",
          "name": "tokenId",
          "type": "uint256"
        }
      ],
      "name": "safeTransferFrom",
      "outputs": [],
      "stateMutability": "nonpayable",
      "type": "function"
    },
    {
      "inputs": [
        {
          "internalType": "address",
          "name": "from",
          "type": "address"
        },
        {
          "internalType": "address",
          "name": "to",
          "type": "address"
        },
        {
          "internalType": "uint256",
          "name": "tokenId",
          "type": "uint256"
        },
        {
          "internalType": "bytes",
          "name": "data",
          "type": "bytes"
        }
      ],
      "name": "safeTransferFrom",
      "outputs": [],
      "stateMutability": "nonpayable",
      "type": "function"
    },
    {
      "inputs": [
        {
          "internalType": "address",
          "name": "operator",
          "type": "address"
        },
        {
          "internalType": "bool",
          "name": "approved",
          "type": "bool"
        }
      ],
      "name": "setApprovalForAll",
      "outputs": [],
      "stateMutability": "nonpayable",
      "type": "function"
    },
    {
      "inputs": [
        {
          "internalType": "bytes4",
          "name": "interfaceId",
          "type": "bytes4"
        }
      ],
      "name": "supportsInterface",
      "outputs": [
        {
          "internalType": "bool",
          "name": "",
          "type": "bool"
        }
      ],
      "stateMutability": "view",
      "type": "function"
    },
    {
      "inputs": [],
      "name": "symbol",
      "outputs": [
        {
          "internalType": "string",
          "name": "",
          "type": "string"
        }
      ],
      "stateMutability": "view",
      "type": "function"
    },
    {
      "inputs": [
        {
          "internalType": "uint256",
          "name": "tokenId",
          "type": "uint256"
        }
      ],
      "name": "tokenURI",
      "outputs": [
        {
          "internalType": "string",
          "name": "",
          "type": "string"
        }
      ],
      "stateMutability": "view",
      "type": "function"
    },
    {
      "inputs": [
        {
          "internalType": "address",
          "name": "from",
          "type": "address"
        },
        {
          "internalType": "address",
          "name": "to",
          "type": "address"
        },
        {
          "internalType": "uint256",
          "name": "tokenId",
          "type": "uint256"
        }
      ],
      "name": "transferFrom",
      "outputs": [],
      "stateMutability": "nonpayable",
      "type": "function"
    }
  ],
  "bytecode": "0x60806040523480156200001157600080fd5b5060405162001a4e38038062001a4e8339810160408190526200003491620001b0565b6040518060400160405280600e81526020016d105052c813595d185b585c9ad95d60921b8152506040518060400160405280600381526020016241414d60e81b815250816000908162000088919062000287565b50600162000097828262000287565b5050600880546001600160a01b0319166001600160a01b038416908117909155620000c591506001620000cc565b5062000353565b620000d9338383620000dd565b5050565b816001600160a01b0316836001600160a01b031603620001435760405162461bcd60e51b815260206004820152601960248201527f4552433732313a20617070726f766520746f2063616c6c657200000000000000604482015260640160405180910390fd5b6001600160a01b03838116600081815260056020908152604080832094871680845294825291829020805460ff191686151590811790915591519182527f17307eab39ab6107e8899845ad3d59bd9653f200f220920489ca2b5937696c31910160405180910390a3505050565b600060208284031215620001c357600080fd5b81516001600160a01b0381168114620001db57600080fd5b9392505050565b634e487b7160e01b600052604160045260246000fd5b600181811c908216806200020d57607f821691505b6020821081036200022e57634e487b7160e01b600052602260045260246000fd5b50919050565b601f8211156200028257600081815260208120601f850160051c810160208610156200025d5750805b601f850160051c820191505b818110156200027e5782815560010162000269565b5050505b505050565b81516001600160401b03811115620002a357620002a3620001e2565b620002bb81620002b48454620001f8565b8462000234565b602080601f831160018114620002f35760008415620002da5750858301515b600019600386901b1c1916600185901b1785556200027e565b600085815260208120601f198616915b82811015620003245788860151825594840194600190910190840162000303565b5085821015620003435787850151600019600388901b60f8161c191681555b5050505050600190811b01905550565b6116eb80620003636000396000f3fe608060405234801561001057600080fd5b50600436106100ea5760003560e01c80636352211e1161008c578063a22cb46511610066578063a22cb465146101e1578063b88d4fde146101f4578063c87b56dd14610207578063e985e9c51461021a57600080fd5b80636352211e146101b357806370a08231146101c657806395d89b41146101d957600080fd5b8063081812fc116100c8578063081812fc1461014d578063095ea7b31461017857806323b872dd1461018d57806342842e0e146101a057600080fd5b806301382807146100ef57806301ffc9a71461011557806306fdde0314610138575b600080fd5b6101026100fd366004611147565b610256565b6040519081526020015b60405180910390f35b6101286101233660046111bf565b610290565b604051901515815260200161010c565b6101406102e0565b60405161010c919061122c565b61016061015b36600461123f565b610372565b6040516001600160a01b03909116815260200161010c565b61018b610186366004611258565b610399565b005b61018b61019b366004611282565b6104b3565b61018b6101ae366004611282565b6104e4565b6101606101c136600461123f565b6104ff565b6101026101d43660046112be565b61055f565b6101406105e5565b61018b6101ef3660046112d9565b6105f4565b61018b610202366004611315565b610603565b61014061021536600461123f565b61063b565b610128610228366004611391565b6001600160a01b03918216600090815260056020908152604080832093909416825291909152205460ff1690565b6000610266600780546001019055565b600061027160075490565b905061027d848261074b565b61028781846108e4565b90505b92915050565b60006001600160e01b031982166380ac58cd60e01b14806102c157506001600160e01b03198216635b5e139f60e01b145b8061028a57506301ffc9a760e01b6001600160e01b031983161461028a565b6060600080546102ef906113c4565b80601f016020809104026020016040519081016040528092919081815260200182805461031b906113c4565b80156103685780601f1061033d57610100808354040283529160200191610368565b820191906000526020600020905b81548152906001019060200180831161034b57829003601f168201915b5050505050905090565b600061037d82610977565b506000908152600460205260409020546001600160a01b031690565b60006103a4826104ff565b9050806001600160a01b0316836001600160a01b0316036104165760405162461bcd60e51b815260206004820152602160248201527f4552433732313a20617070726f76616c20746f2063757272656e74206f776e656044820152603960f91b60648201526084015b60405180910390fd5b336001600160a01b038216148061043257506104328133610228565b6104a45760405162461bcd60e51b815260206004820152603d60248201527f4552433732313a20617070726f76652063616c6c6572206973206e6f7420746f60448201527f6b656e206f776e6572206f7220617070726f76656420666f7220616c6c000000606482015260840161040d565b6104ae83836109d9565b505050565b6104bd3382610a47565b6104d95760405162461bcd60e51b815260040161040d906113fe565b6104ae838383610ac5565b6104ae83838360405180602001604052806000815250610603565b6000818152600260205260408120546001600160a01b03168061028a5760405162461bcd60e51b8152602060048201526018602482015277115490cdcc8c4e881a5b9d985b1a59081d1bdad95b88125160421b604482015260640161040d565b60006001600160a01b0382166105c95760405162461bcd60e51b815260206004820152602960248201527f4552433732313a2061646472657373207a65726f206973206e6f7420612076616044820152683634b21037bbb732b960b91b606482015260840161040d565b506001600160a01b031660009081526003602052604090205490565b6060600180546102ef906113c4565b6105ff338383610c36565b5050565b61060d3383610a47565b6106295760405162461bcd60e51b815260040161040d906113fe565b61063584848484610d04565b50505050565b606061064682610977565b6000828152600660205260408120805461065f906113c4565b80601f016020809104026020016040519081016040528092919081815260200182805461068b906113c4565b80156106d85780601f106106ad576101008083540402835291602001916106d8565b820191906000526020600020905b8154815290600101906020018083116106bb57829003601f168201915b5050505050905060006106f660408051602081019091526000815290565b90508051600003610708575092915050565b81511561073a57808260405160200161072292919061144b565b60405160208183030381529060405292505050919050565b61074384610d37565b949350505050565b6001600160a01b0382166107a15760405162461bcd60e51b815260206004820181905260248201527f4552433732313a206d696e7420746f20746865207a65726f2061646472657373604482015260640161040d565b6000818152600260205260409020546001600160a01b0316156108065760405162461bcd60e51b815260206004820152601c60248201527f4552433732313a20746f6b656e20616c7265616479206d696e74656400000000604482015260640161040d565b610814600083836001610dab565b6000818152600260205260409020546001600160a01b0316156108795760405162461bcd60e51b815260206004820152601c60248201527f4552433732313a20746f6b656e20616c7265616479206d696e74656400000000604482015260640161040d565b6001600160a01b038216600081815260036020908152604080832080546001019055848352600290915280822080546001600160a01b0319168417905551839291907fddf252ad1be2c89b69c2b068fc378daa952ba7f163c4a11628f55a4df523b3ef908290a45050565b6000828152600260205260409020546001600160a01b031661095f5760405162461bcd60e51b815260206004820152602e60248201527f45524337323155524953746f726167653a2055524920736574206f66206e6f6e60448201526d32bc34b9ba32b73a103a37b5b2b760911b606482015260840161040d565b60008281526006602052604090206104ae82826114c8565b6000818152600260205260409020546001600160a01b03166109d65760405162461bcd60e51b8152602060048201526018602482015277115490cdcc8c4e881a5b9d985b1a59081d1bdad95b88125160421b604482015260640161040d565b50565b600081815260046020526040902080546001600160a01b0319166001600160a01b0384169081179091558190610a0e826104ff565b6001600160a01b03167f8c5be1e5ebec7d5bd14f71427d1e84f3dd0314c0f7b2291e5b200ac8c7c3b92560405160405180910390a45050565b600080610a53836104ff565b9050806001600160a01b0316846001600160a01b03161480610a9a57506001600160a01b0380821660009081526005602090815260408083209388168352929052205460ff165b806107435750836001600160a01b0316610ab384610372565b6001600160a01b031614949350505050565b826001600160a01b0316610ad8826104ff565b6001600160a01b031614610afe5760405162461bcd60e51b815260040161040d90611588565b6001600160a01b038216610b605760405162461bcd60e51b8152602060048201526024808201527f4552433732313a207472616e7366657220746f20746865207a65726f206164646044820152637265737360e01b606482015260840161040d565b610b6d8383836001610dab565b826001600160a01b0316610b80826104ff565b6001600160a01b031614610ba65760405162461bcd60e51b815260040161040d90611588565b600081815260046020908152604080832080546001600160a01b03199081169091556001600160a01b0387811680865260038552838620805460001901905590871680865283862080546001019055868652600290945282852080549092168417909155905184937fddf252ad1be2c89b69c2b068fc378daa952ba7f163c4a11628f55a4df523b3ef91a4505050565b816001600160a01b0316836001600160a01b031603610c975760405162461bcd60e51b815260206004820152601960248201527f4552433732313a20617070726f766520746f2063616c6c657200000000000000604482015260640161040d565b6001600160a01b03838116600081815260056020908152604080832094871680845294825291829020805460ff191686151590811790915591519182527f17307eab39ab6107e8899845ad3d59bd9653f200f220920489ca2b5937696c31910160405180910390a3505050565b610d0f848484610ac5565b610d1b84848484610e33565b6106355760405162461bcd60e51b815260040161040d906115cd565b6060610d4282610977565b6000610d5960408051602081019091526000815290565b90506000815111610d795760405180602001604052806000815250610da4565b80610d8384610f34565b604051602001610d9492919061144b565b6040516020818303038152906040525b9392505050565b6001811115610635576001600160a01b03841615610df1576001600160a01b03841660009081526003602052604081208054839290610deb908490611635565b90915550505b6001600160a01b03831615610635576001600160a01b03831660009081526003602052604081208054839290610e28908490611648565b909155505050505050565b60006001600160a01b0384163b15610f2957604051630a85bd0160e11b81526001600160a01b0385169063150b7a0290610e7790339089908890889060040161165b565b6020604051808303816000875af1925050508015610eb2575060408051601f3d908101601f19168201909252610eaf91810190611698565b60015b610f0f573d808015610ee0576040519150601f19603f3d011682016040523d82523d6000602084013e610ee5565b606091505b508051600003610f075760405162461bcd60e51b815260040161040d906115cd565b805181602001fd5b6001600160e01b031916630a85bd0160e11b149050610743565b506001949350505050565b60606000610f4183610fc7565b600101905060008167ffffffffffffffff811115610f6157610f616110bb565b6040519080825280601f01601f191660200182016040528015610f8b576020820181803683370190505b5090508181016020015b600019016f181899199a1a9b1b9c1cb0b131b232b360811b600a86061a8153600a8504945084610f9557509392505050565b60008072184f03e93ff9f4daa797ed6e38ed64bf6a1f0160401b83106110065772184f03e93ff9f4daa797ed6e38ed64bf6a1f0160401b830492506040015b6d04ee2d6d415b85acef81000000008310611032576d04ee2d6d415b85acef8100000000830492506020015b662386f26fc10000831061105057662386f26fc10000830492506010015b6305f5e1008310611068576305f5e100830492506008015b612710831061107c57612710830492506004015b6064831061108e576064830492506002015b600a831061028a5760010192915050565b80356001600160a01b03811681146110b657600080fd5b919050565b634e487b7160e01b600052604160045260246000fd5b600067ffffffffffffffff808411156110ec576110ec6110bb565b604051601f8501601f19908116603f01168101908282118183101715611114576111146110bb565b8160405280935085815286868601111561112d57600080fd5b858560208301376000602087830101525050509392505050565b6000806040838503121561115a57600080fd5b6111638361109f565b9150602083013567ffffffffffffffff81111561117f57600080fd5b8301601f8101851361119057600080fd5b61119f858235602084016110d1565b9150509250929050565b6001600160e01b0319811681146109d657600080fd5b6000602082840312156111d157600080fd5b8135610287816111a9565b60005b838110156111f75781810151838201526020016111df565b50506000910152565b600081518084526112188160208601602086016111dc565b601f01601f19169290920160200192915050565b602081526000610da46020830184611200565b60006020828403121561125157600080fd5b5035919050565b6000806040838503121561126b57600080fd5b6112748361109f565b946020939093013593505050565b60008060006060848603121561129757600080fd5b6112a08461109f565b92506112ae6020850161109f565b9150604084013590509250925092565b6000602082840312156112d057600080fd5b610da48261109f565b600080604083850312156112ec57600080fd5b6112f58361109f565b91506020830135801515811461130a57600080fd5b809150509250929050565b6000806000806080858703121561132b57600080fd5b6113348561109f565b93506113426020860161109f565b925060408501359150606085013567ffffffffffffffff81111561136557600080fd5b8501601f8101871361137657600080fd5b611385878235602084016110d1565b91505092959194509250565b600080604083850312156113a457600080fd5b6113ad8361109f565b91506113bb6020840161109f565b90509250929050565b600181811c908216806113d857607f821691505b6020821081036113f857634e487b7160e01b600052602260045260246000fd5b50919050565b6020808252602d908201527f4552433732313a2063616c6c6572206973206e6f7420746f6b656e206f776e6560408201526c1c881bdc88185c1c1c9bdd9959609a1b606082015260800190565b6000835161145d8184602088016111dc565b8351908301906114718183602088016111dc565b01949350505050565b601f8211156104ae57600081815260208120601f850160051c810160208610156114a15750805b601f850160051c820191505b818110156114c0578281556001016114ad565b505050505050565b815167ffffffffffffffff8111156114e2576114e26110bb565b6114f6816114f084546113c4565b8461147a565b602080601f83116001811461152b57600084156115135750858301515b600019600386901b1c1916600185901b1785556114c0565b600085815260208120601f198616915b8281101561155a5788860151825594840194600190910190840161153b565b50858210156115785787850151600019600388901b60f8161c191681555b5050505050600190811b01905550565b60208082526025908201527f4552433732313a207472616e736665722066726f6d20696e636f72726563742060408201526437bbb732b960d91b606082015260800190565b60208082526032908201527f4552433732313a207472616e7366657220746f206e6f6e20455243373231526560408201527131b2b4bb32b91034b6b83632b6b2b73a32b960711b606082015260800190565b634e487b7160e01b600052601160045260246000fd5b8181038181111561028a5761028a61161f565b8082018082111561028a5761028a61161f565b6001600160a01b038581168252841660208201526040810183905260806060820181905260009061168e90830184611200565b9695505050505050565b6000602082840312156116aa57600080fd5b8151610287816111a956fea2646970667358221220cf0d67e301609913ea84e726b91f3217cc779a1ba23dae26c16e042417a23e4164736f6c63430008110033",
  "linkReferences": {},
  "deployedLinkReferences": {}
}