{
  "_format": "hh-sol-artifact-1",
  "contractName": "NFT",
  "sourceName": "contracts/NFT.sol",
  "abi": [
    {
      "inputs": [
        {
          "internalType": "address",
          "name": "marketplaceAddress",
          "type": "address"
        }
      ],
      "stateMutability": "nonpayable",
      "type": "constructor"
    },
    {
      "anonymous": false,
      "inputs": [
        {
          "indexed": true,
          "internalType": "address",
          "name": "owner",
          "type": "address"
        },
        {
          "indexed": true,
          "internalType": "address",
          "name": "approved",
          "type": "address"
        },
        {
          "indexed": true,
          "internalType": "uint256",
          "name": "tokenId",
          "type": "uint256"
        }
      ],
      "name": "Approval",
      "type": "event"
    },
    {
      "anonymous": false,
      "inputs": [
        {
          "indexed": true,
          "internalType": "address",
          "name": "owner",
          "type": "address"
        },
        {
          "indexed": true,
          "internalType": "address",
          "name": "operator",
          "type": "address"
        },
        {
          "indexed": false,
          "internalType": "bool",
          "name": "approved",
          "type": "bool"
        }
      ],
      "name": "ApprovalForAll",
      "type": "event"
    },
    {
      "anonymous": false,
      "inputs": [
        {
          "indexed": true,
          "internalType": "address",
          "name": "from",
          "type": "address"
        },
        {
          "indexed": true,
          "internalType": "address",
          "name": "to",
          "type": "address"
        },
        {
          "indexed": true,
          "internalType": "uint256",
          "name": "tokenId",
          "type": "uint256"
        }
      ],
      "name": "Transfer",
      "type": "event"
    },
    {
      "inputs": [
        {
          "internalType": "address",
          "name": "to",
          "type": "address"
        },
        {
          "internalType": "uint256",
          "name": "tokenId",
          "type": "uint256"
        }
      ],
      "name": "approve",
      "outputs": [],
      "stateMutability": "nonpayable",
      "type": "function"
    },
    {
      "inputs": [
        {
          "internalType": "address",
          "name": "owner",
          "type": "address"
        }
      ],
      "name": "balanceOf",
      "outputs": [
        {
          "internalType": "uint256",
          "name": "",
          "type": "uint256"
        }
      ],
      "stateMutability": "view",
      "type": "function"
    },
    {
      "inputs": [
        {
          "internalType": "string",
          "name": "tokenURI",
          "type": "string"
        }
      ],
      "name": "createToken",
      "outputs": [
        {
          "internalType": "uint256",
          "name": "",
          "type": "uint256"
        }
      ],
      "stateMutability": "nonpayable",
      "type": "function"
    },
    {
      "inputs": [
        {
          "internalType": "uint256",
          "name": "tokenId",
          "type": "uint256"
        }
      ],
      "name": "getApproved",
      "outputs": [
        {
          "internalType": "address",
          "name": "",
          "type": "address"
        }
      ],
      "stateMutability": "view",
      "type": "function"
    },
    {
      "inputs": [
        {
          "internalType": "address",
          "name": "owner",
          "type": "address"
        },
        {
          "internalType": "address",
          "name": "operator",
          "type": "address"
        }
      ],
      "name": "isApprovedForAll",
      "outputs": [
        {
          "internalType": "bool",
          "name": "",
          "type": "bool"
        }
      ],
      "stateMutability": "view",
      "type": "function"
    },
    {
      "inputs": [],
      "name": "name",
      "outputs": [
        {
          "internalType": "string",
          "name": "",
          "type": "string"
        }
      ],
      "stateMutability": "view",
      "type": "function"
    },
    {
      "inputs": [
        {
          "internalType": "uint256",
          "name": "tokenId",
          "type": "uint256"
        }
      ],
      "name": "ownerOf",
      "outputs": [
        {
          "internalType": "address",
          "name": "",
          "type": "address"
        }
      ],
      "stateMutability": "view",
      "type": "function"
    },
    {
      "inputs": [
        {
          "internalType": "address",
          "name": "from",
          "type": "address"
        },
        {
          "internalType": "address",
          "name": "to",
          "type": "address"
        },
        {
          "internalType": "uint256",
          "name": "tokenId",
          "type": "uint256"
        }
      ],
      "name": "safeTransferFrom",
      "outputs": [],
      "stateMutability": "nonpayable",
      "type": "function"
    },
    {
      "inputs": [
        {
          "internalType": "address",
          "name": "from",
          "type": "address"
        },
        {
          "internalType": "address",
          "name": "to",
          "type": "address"
        },
        {
          "internalType": "uint256",
          "name": "tokenId",
          "type": "uint256"
        },
        {
          "internalType": "bytes",
          "name": "_data",
          "type": "bytes"
        }
      ],
      "name": "safeTransferFrom",
      "outputs": [],
      "stateMutability": "nonpayable",
      "type": "function"
    },
    {
      "inputs": [
        {
          "internalType": "address",
          "name": "operator",
          "type": "address"
        },
        {
          "internalType": "bool",
          "name": "approved",
          "type": "bool"
        }
      ],
      "name": "setApprovalForAll",
      "outputs": [],
      "stateMutability": "nonpayable",
      "type": "function"
    },
    {
      "inputs": [
        {
          "internalType": "bytes4",
          "name": "interfaceId",
          "type": "bytes4"
        }
      ],
      "name": "supportsInterface",
      "outputs": [
        {
          "internalType": "bool",
          "name": "",
          "type": "bool"
        }
      ],
      "stateMutability": "view",
      "type": "function"
    },
    {
      "inputs": [],
      "name": "symbol",
      "outputs": [
        {
          "internalType": "string",
          "name": "",
          "type": "string"
        }
      ],
      "stateMutability": "view",
      "type": "function"
    },
    {
      "inputs": [
        {
          "internalType": "uint256",
          "name": "tokenId",
          "type": "uint256"
        }
      ],
      "name": "tokenURI",
      "outputs": [
        {
          "internalType": "string",
          "name": "",
          "type": "string"
        }
      ],
      "stateMutability": "view",
      "type": "function"
    },
    {
      "inputs": [
        {
          "internalType": "address",
          "name": "from",
          "type": "address"
        },
        {
          "internalType": "address",
          "name": "to",
          "type": "address"
        },
        {
          "internalType": "uint256",
          "name": "tokenId",
          "type": "uint256"
        }
      ],
      "name": "transferFrom",
      "outputs": [],
      "stateMutability": "nonpayable",
      "type": "function"
    }
  ],
  "bytecode": "0x60806040523480156200001157600080fd5b5060405162001994380380620019948339810160408190526200003491620000c1565b6040518060400160405280600e81526020016d105052c813595d185b585c9ad95d60921b8152506040518060400160405280600381526020016241414d60e81b815250816000908162000088919062000198565b50600162000097828262000198565b5050600880546001600160a01b0319166001600160a01b0393909316929092179091555062000264565b600060208284031215620000d457600080fd5b81516001600160a01b0381168114620000ec57600080fd5b9392505050565b634e487b7160e01b600052604160045260246000fd5b600181811c908216806200011e57607f821691505b6020821081036200013f57634e487b7160e01b600052602260045260246000fd5b50919050565b601f8211156200019357600081815260208120601f850160051c810160208610156200016e5750805b601f850160051c820191505b818110156200018f578281556001016200017a565b5050505b505050565b81516001600160401b03811115620001b457620001b4620000f3565b620001cc81620001c5845462000109565b8462000145565b602080601f831160018114620002045760008415620001eb5750858301515b600019600386901b1c1916600185901b1785556200018f565b600085815260208120601f198616915b82811015620002355788860151825594840194600190910190840162000214565b5085821015620002545787850151600019600388901b60f8161c191681555b5050505050600190811b01905550565b61172080620002746000396000f3fe608060405234801561001057600080fd5b50600436106100ea5760003560e01c80636352211e1161008c578063a22cb46511610066578063a22cb465146101e1578063b88d4fde146101f4578063c87b56dd14610207578063e985e9c51461021a57600080fd5b80636352211e146101b357806370a08231146101c657806395d89b41146101d957600080fd5b8063095ea7b3116100c8578063095ea7b31461015757806323b872dd1461016c57806342842e0e1461017f57806345576f941461019257600080fd5b806301ffc9a7146100ef57806306fdde0314610117578063081812fc1461012c575b600080fd5b6101026100fd3660046110d7565b61022d565b60405190151581526020015b60405180910390f35b61011f61027f565b60405161010e9190611144565b61013f61013a366004611157565b610311565b6040516001600160a01b03909116815260200161010e565b61016a61016536600461118c565b61039e565b005b61016a61017a3660046111b6565b6104b3565b61016a61018d3660046111b6565b6104e4565b6101a56101a036600461127e565b6104ff565b60405190815260200161010e565b61013f6101c1366004611157565b610547565b6101a56101d43660046112c7565b6105be565b61011f610645565b61016a6101ef3660046112e2565b610654565b61016a61020236600461131e565b610663565b61011f610215366004611157565b61069b565b61010261022836600461139a565b610811565b60006001600160e01b031982166380ac58cd60e01b148061025e57506001600160e01b03198216635b5e139f60e01b145b8061027957506301ffc9a760e01b6001600160e01b03198316145b92915050565b60606000805461028e906113cd565b80601f01602080910402602001604051908101604052809291908181526020018280546102ba906113cd565b80156103075780601f106102dc57610100808354040283529160200191610307565b820191906000526020600020905b8154815290600101906020018083116102ea57829003601f168201915b5050505050905090565b600061031c8261083f565b6103825760405162461bcd60e51b815260206004820152602c60248201527f4552433732313a20617070726f76656420717565727920666f72206e6f6e657860448201526b34b9ba32b73a103a37b5b2b760a11b60648201526084015b60405180910390fd5b506000908152600460205260409020546001600160a01b031690565b60006103a982610547565b9050806001600160a01b0316836001600160a01b0316036104165760405162461bcd60e51b815260206004820152602160248201527f4552433732313a20617070726f76616c20746f2063757272656e74206f776e656044820152603960f91b6064820152608401610379565b336001600160a01b038216148061043257506104328133610811565b6104a45760405162461bcd60e51b815260206004820152603860248201527f4552433732313a20617070726f76652063616c6c6572206973206e6f74206f7760448201527f6e6572206e6f7220617070726f76656420666f7220616c6c00000000000000006064820152608401610379565b6104ae838361085c565b505050565b6104bd33826108ca565b6104d95760405162461bcd60e51b815260040161037990611407565b6104ae83838361098c565b6104ae83838360405180602001604052806000815250610663565b600061050f600780546001019055565b600061051a60075490565b90506105263382610b2c565b6105308184610c5f565b600854610279906001600160a01b03166001610654565b6000818152600260205260408120546001600160a01b0316806102795760405162461bcd60e51b815260206004820152602960248201527f4552433732313a206f776e657220717565727920666f72206e6f6e657869737460448201526832b73a103a37b5b2b760b91b6064820152608401610379565b60006001600160a01b0382166106295760405162461bcd60e51b815260206004820152602a60248201527f4552433732313a2062616c616e636520717565727920666f7220746865207a65604482015269726f206164647265737360b01b6064820152608401610379565b506001600160a01b031660009081526003602052604090205490565b60606001805461028e906113cd565b61065f338383610ce3565b5050565b61066d33836108ca565b6106895760405162461bcd60e51b815260040161037990611407565b61069584848484610db1565b50505050565b60606106a68261083f565b61070c5760405162461bcd60e51b815260206004820152603160248201527f45524337323155524953746f726167653a2055524920717565727920666f72206044820152703737b732bc34b9ba32b73a103a37b5b2b760791b6064820152608401610379565b60008281526006602052604081208054610725906113cd565b80601f0160208091040260200160405190810160405280929190818152602001828054610751906113cd565b801561079e5780601f106107735761010080835404028352916020019161079e565b820191906000526020600020905b81548152906001019060200180831161078157829003601f168201915b5050505050905060006107bc60408051602081019091526000815290565b905080516000036107ce575092915050565b8151156108005780826040516020016107e8929190611458565b60405160208183030381529060405292505050919050565b61080984610de4565b949350505050565b6001600160a01b03918216600090815260056020908152604080832093909416825291909152205460ff1690565b6000908152600260205260409020546001600160a01b0316151590565b600081815260046020526040902080546001600160a01b0319166001600160a01b038416908117909155819061089182610547565b6001600160a01b03167f8c5be1e5ebec7d5bd14f71427d1e84f3dd0314c0f7b2291e5b200ac8c7c3b92560405160405180910390a45050565b60006108d58261083f565b6109365760405162461bcd60e51b815260206004820152602c60248201527f4552433732313a206f70657261746f7220717565727920666f72206e6f6e657860448201526b34b9ba32b73a103a37b5b2b760a11b6064820152608401610379565b600061094183610547565b9050806001600160a01b0316846001600160a01b0316148061097c5750836001600160a01b031661097184610311565b6001600160a01b0316145b8061080957506108098185610811565b826001600160a01b031661099f82610547565b6001600160a01b031614610a075760405162461bcd60e51b815260206004820152602960248201527f4552433732313a207472616e73666572206f6620746f6b656e2074686174206960448201526839903737ba1037bbb760b91b6064820152608401610379565b6001600160a01b038216610a695760405162461bcd60e51b8152602060048201526024808201527f4552433732313a207472616e7366657220746f20746865207a65726f206164646044820152637265737360e01b6064820152608401610379565b610a7460008261085c565b6001600160a01b0383166000908152600360205260408120805460019290610a9d90849061149d565b90915550506001600160a01b0382166000908152600360205260408120805460019290610acb9084906114b0565b909155505060008181526002602052604080822080546001600160a01b0319166001600160a01b0386811691821790925591518493918716917fddf252ad1be2c89b69c2b068fc378daa952ba7f163c4a11628f55a4df523b3ef91a4505050565b6001600160a01b038216610b825760405162461bcd60e51b815260206004820181905260248201527f4552433732313a206d696e7420746f20746865207a65726f20616464726573736044820152606401610379565b610b8b8161083f565b15610bd85760405162461bcd60e51b815260206004820152601c60248201527f4552433732313a20746f6b656e20616c7265616479206d696e746564000000006044820152606401610379565b6001600160a01b0382166000908152600360205260408120805460019290610c019084906114b0565b909155505060008181526002602052604080822080546001600160a01b0319166001600160a01b03861690811790915590518392907fddf252ad1be2c89b69c2b068fc378daa952ba7f163c4a11628f55a4df523b3ef908290a45050565b610c688261083f565b610ccb5760405162461bcd60e51b815260206004820152602e60248201527f45524337323155524953746f726167653a2055524920736574206f66206e6f6e60448201526d32bc34b9ba32b73a103a37b5b2b760911b6064820152608401610379565b60008281526006602052604090206104ae8282611511565b816001600160a01b0316836001600160a01b031603610d445760405162461bcd60e51b815260206004820152601960248201527f4552433732313a20617070726f766520746f2063616c6c6572000000000000006044820152606401610379565b6001600160a01b03838116600081815260056020908152604080832094871680845294825291829020805460ff191686151590811790915591519182527f17307eab39ab6107e8899845ad3d59bd9653f200f220920489ca2b5937696c31910160405180910390a3505050565b610dbc84848461098c565b610dc884848484610ebc565b6106955760405162461bcd60e51b8152600401610379906115d1565b6060610def8261083f565b610e535760405162461bcd60e51b815260206004820152602f60248201527f4552433732314d657461646174613a2055524920717565727920666f72206e6f60448201526e3732bc34b9ba32b73a103a37b5b2b760891b6064820152608401610379565b6000610e6a60408051602081019091526000815290565b90506000815111610e8a5760405180602001604052806000815250610eb5565b80610e9484610fbd565b604051602001610ea5929190611458565b6040516020818303038152906040525b9392505050565b60006001600160a01b0384163b15610fb257604051630a85bd0160e11b81526001600160a01b0385169063150b7a0290610f00903390899088908890600401611623565b6020604051808303816000875af1925050508015610f3b575060408051601f3d908101601f19168201909252610f3891810190611660565b60015b610f98573d808015610f69576040519150601f19603f3d011682016040523d82523d6000602084013e610f6e565b606091505b508051600003610f905760405162461bcd60e51b8152600401610379906115d1565b805181602001fd5b6001600160e01b031916630a85bd0160e11b149050610809565b506001949350505050565b606081600003610fe45750506040805180820190915260018152600360fc1b602082015290565b8160005b811561100e5780610ff88161167d565b91506110079050600a836116ac565b9150610fe8565b60008167ffffffffffffffff811115611029576110296111f2565b6040519080825280601f01601f191660200182016040528015611053576020820181803683370190505b5090505b84156108095761106860018361149d565b9150611075600a866116c0565b6110809060306114b0565b60f81b818381518110611095576110956116d4565b60200101906001600160f81b031916908160001a9053506110b7600a866116ac565b9450611057565b6001600160e01b0319811681146110d457600080fd5b50565b6000602082840312156110e957600080fd5b8135610eb5816110be565b60005b8381101561110f5781810151838201526020016110f7565b50506000910152565b600081518084526111308160208601602086016110f4565b601f01601f19169290920160200192915050565b602081526000610eb56020830184611118565b60006020828403121561116957600080fd5b5035919050565b80356001600160a01b038116811461118757600080fd5b919050565b6000806040838503121561119f57600080fd5b6111a883611170565b946020939093013593505050565b6000806000606084860312156111cb57600080fd5b6111d484611170565b92506111e260208501611170565b9150604084013590509250925092565b634e487b7160e01b600052604160045260246000fd5b600067ffffffffffffffff80841115611223576112236111f2565b604051601f8501601f19908116603f0116810190828211818310171561124b5761124b6111f2565b8160405280935085815286868601111561126457600080fd5b858560208301376000602087830101525050509392505050565b60006020828403121561129057600080fd5b813567ffffffffffffffff8111156112a757600080fd5b8201601f810184136112b857600080fd5b61080984823560208401611208565b6000602082840312156112d957600080fd5b610eb582611170565b600080604083850312156112f557600080fd5b6112fe83611170565b91506020830135801515811461131357600080fd5b809150509250929050565b6000806000806080858703121561133457600080fd5b61133d85611170565b935061134b60208601611170565b925060408501359150606085013567ffffffffffffffff81111561136e57600080fd5b8501601f8101871361137f57600080fd5b61138e87823560208401611208565b91505092959194509250565b600080604083850312156113ad57600080fd5b6113b683611170565b91506113c460208401611170565b90509250929050565b600181811c908216806113e157607f821691505b60208210810361140157634e487b7160e01b600052602260045260246000fd5b50919050565b60208082526031908201527f4552433732313a207472616e736665722063616c6c6572206973206e6f74206f6040820152701ddb995c881b9bdc88185c1c1c9bdd9959607a1b606082015260800190565b6000835161146a8184602088016110f4565b83519083019061147e8183602088016110f4565b01949350505050565b634e487b7160e01b600052601160045260246000fd5b8181038181111561027957610279611487565b8082018082111561027957610279611487565b601f8211156104ae57600081815260208120601f850160051c810160208610156114ea5750805b601f850160051c820191505b81811015611509578281556001016114f6565b505050505050565b815167ffffffffffffffff81111561152b5761152b6111f2565b61153f8161153984546113cd565b846114c3565b602080601f831160018114611574576000841561155c5750858301515b600019600386901b1c1916600185901b178555611509565b600085815260208120601f198616915b828110156115a357888601518255948401946001909101908401611584565b50858210156115c15787850151600019600388901b60f8161c191681555b5050505050600190811b01905550565b60208082526032908201527f4552433732313a207472616e7366657220746f206e6f6e20455243373231526560408201527131b2b4bb32b91034b6b83632b6b2b73a32b960711b606082015260800190565b6001600160a01b038581168252841660208201526040810183905260806060820181905260009061165690830184611118565b9695505050505050565b60006020828403121561167257600080fd5b8151610eb5816110be565b60006001820161168f5761168f611487565b5060010190565b634e487b7160e01b600052601260045260246000fd5b6000826116bb576116bb611696565b500490565b6000826116cf576116cf611696565b500690565b634e487b7160e01b600052603260045260246000fdfea26469706673582212205b80713ab608b91e26473fcc4e2084fd56d73933b54fa8a485b6779046b7c6b564736f6c63430008110033",
  "linkReferences": {},
  "deployedLinkReferences": {}
}