{"contracts/v2/NFTMarketV2.sol":{"NFTMarketV2":{"abi":[{"inputs":[],"stateMutability":"nonpayable","type":"constructor"},{"anonymous":false,"inputs":[{"indexed":false,"internalType":"bytes32","name":"hash","type":"bytes32"},{"indexed":false,"internalType":"uint256","name":"tokenId","type":"uint256"}],"name":"AssetForSellCreated","type":"event"},{"anonymous":false,"inputs":[{"indexed":false,"internalType":"bytes32","name":"assetHash","type":"bytes32"},{"indexed":false,"internalType":"uint256","name":"assetId","type":"uint256"}],"name":"CreateAsset","type":"event"},{"anonymous":false,"inputs":[{"indexed":false,"internalType":"bytes32","name":"assetPendingHash","type":"bytes32"}],"name":"CreateAssetPending","type":"event"},{"anonymous":false,"inputs":[{"indexed":false,"internalType":"address","name":"nft","type":"address"},{"indexed":false,"internalType":"address","name":"aero","type":"address"}],"name":"Instance","type":"event"},{"anonymous":false,"inputs":[{"indexed":false,"internalType":"uint256","name":"tokenId","type":"uint256"}],"name":"MintNFT","type":"event"},{"anonymous":false,"inputs":[{"indexed":true,"internalType":"address","name":"previousOwner","type":"address"},{"indexed":true,"internalType":"address","name":"newOwner","type":"address"}],"name":"OwnershipTransferred","type":"event"},{"inputs":[],"name":"ERC20_DOMAIN_SEPARATOR","outputs":[{"internalType":"bytes32","name":"","type":"bytes32"}],"stateMutability":"view","type":"function"},{"inputs":[],"name":"_PERMIT_TYPEHASH","outputs":[{"internalType":"bytes32","name":"","type":"bytes32"}],"stateMutability":"view","type":"function"},{"inputs":[{"internalType":"bytes32","name":"hash","type":"bytes32"},{"internalType":"string","name":"tokenUri","type":"string"},{"internalType":"address","name":"signer","type":"address"},{"internalType":"address","name":"spender","type":"address"},{"internalType":"address","name":"projectOwner","type":"address"},{"internalType":"uint256","name":"value","type":"uint256"},{"internalType":"uint256","name":"deadline","type":"uint256"},{"internalType":"uint8","name":"v","type":"uint8"},{"internalType":"bytes32","name":"r","type":"bytes32"},{"internalType":"bytes32","name":"s","type":"bytes32"}],"name":"approvePendingAsset","outputs":[],"stateMutability":"nonpayable","type":"function"},{"inputs":[{"internalType":"bytes32","name":"hash","type":"bytes32"}],"name":"approveRequest","outputs":[],"stateMutability":"nonpayable","type":"function"},{"inputs":[{"internalType":"address","name":"nftContractAddress","type":"address"},{"internalType":"address","name":"aeroContractAddress","type":"address"}],"name":"assignDeployedAddressToInstance","outputs":[{"internalType":"bool","name":"","type":"bool"}],"stateMutability":"nonpayable","type":"function"},{"inputs":[{"internalType":"address","name":"owner","type":"address"},{"internalType":"address","name":"spender","type":"address"},{"internalType":"uint256","name":"value","type":"uint256"},{"internalType":"uint256","name":"deadline","type":"uint256"},{"internalType":"uint8","name":"v","type":"uint8"},{"internalType":"bytes32","name":"r","type":"bytes32"},{"internalType":"bytes32","name":"s","type":"bytes32"}],"name":"buyAsset","outputs":[],"stateMutability":"nonpayable","type":"function"},{"inputs":[{"internalType":"address","name":"nftOwner","type":"address"},{"internalType":"uint256","name":"_tokenId","type":"uint256"},{"internalType":"uint8","name":"v","type":"uint8"},{"internalType":"bytes32","name":"r","type":"bytes32"},{"internalType":"bytes32","name":"s","type":"bytes32"},{"internalType":"uint256","name":"deadline","type":"uint256"},{"internalType":"uint256","name":"nonce","type":"uint256"},{"internalType":"uint8","name":"vN","type":"uint8"},{"internalType":"bytes32","name":"rN","type":"bytes32"},{"internalType":"bytes32","name":"sN","type":"bytes32"}],"name":"buyAssetApprove","outputs":[],"stateMutability":"nonpayable","type":"function"},{"inputs":[{"internalType":"address","name":"owner","type":"address"},{"internalType":"address","name":"spender","type":"address"},{"internalType":"uint256","name":"value","type":"uint256"},{"internalType":"uint256","name":"deadline","type":"uint256"},{"internalType":"uint8","name":"v","type":"uint8"},{"internalType":"bytes32","name":"r","type":"bytes32"},{"internalType":"bytes32","name":"s","type":"bytes32"},{"internalType":"address","name":"nftOwner","type":"address"},{"internalType":"uint256","name":"_tokenId","type":"uint256"}],"name":"buyAssetRequest","outputs":[],"stateMutability":"nonpayable","type":"function"},{"inputs":[{"components":[{"internalType":"uint256","name":"nftID","type":"uint256"},{"internalType":"bool","name":"new_env","type":"bool"},{"internalType":"uint256","name":"creatorUserID","type":"uint256"},{"internalType":"string","name":"creatorUsername","type":"string"},{"internalType":"string","name":"creatorName","type":"string"},{"internalType":"address","name":"creatorMetamaskId","type":"address"},{"internalType":"string","name":"associatedProjectName","type":"string"},{"internalType":"string","name":"associatedProjectUrl","type":"string"},{"internalType":"string","name":"assetName","type":"string"},{"internalType":"enum NFTMarketV2.AssetType","name":"assetType","type":"uint8"},{"internalType":"string","name":"assetDescription","type":"string"},{"internalType":"string","name":"assetOffer","type":"string"},{"internalType":"string","name":"assetTerms","type":"string"},{"internalType":"string","name":"assetImage","type":"string"},{"internalType":"bool","name":"isHidden","type":"bool"},{"internalType":"bool","name":"isPrivate","type":"bool"},{"internalType":"bool","name":"multiNft","type":"bool"},{"internalType":"uint256","name":"assetPrice","type":"uint256"},{"internalType":"enum NFTMarketV2.Status","name":"status","type":"uint8"},{"internalType":"bool","name":"requestApproval","type":"bool"}],"internalType":"struct NFTMarketV2.MarketItem","name":"data","type":"tuple"},{"internalType":"string","name":"tokenUri","type":"string"}],"name":"createAsset","outputs":[],"stateMutability":"nonpayable","type":"function"},{"inputs":[{"components":[{"internalType":"uint256","name":"nftID","type":"uint256"},{"internalType":"bool","name":"new_env","type":"bool"},{"internalType":"uint256","name":"creatorUserID","type":"uint256"},{"internalType":"string","name":"creatorUsername","type":"string"},{"internalType":"string","name":"creatorName","type":"string"},{"internalType":"address","name":"creatorMetamaskId","type":"address"},{"internalType":"string","name":"associatedProjectName","type":"string"},{"internalType":"string","name":"associatedProjectUrl","type":"string"},{"internalType":"string","name":"assetName","type":"string"},{"internalType":"enum NFTMarketV2.AssetType","name":"assetType","type":"uint8"},{"internalType":"string","name":"assetDescription","type":"string"},{"internalType":"string","name":"assetOffer","type":"string"},{"internalType":"string","name":"assetTerms","type":"string"},{"internalType":"string","name":"assetImage","type":"string"},{"internalType":"bool","name":"isHidden","type":"bool"},{"internalType":"bool","name":"isPrivate","type":"bool"},{"internalType":"bool","name":"multiNft","type":"bool"},{"internalType":"uint256","name":"assetPrice","type":"uint256"},{"internalType":"enum NFTMarketV2.Status","name":"status","type":"uint8"},{"internalType":"bool","name":"requestApproval","type":"bool"}],"internalType":"struct NFTMarketV2.MarketItem","name":"data","type":"tuple"},{"internalType":"string","name":"tokenUri","type":"string"},{"internalType":"uint8","name":"v","type":"uint8"},{"internalType":"bytes32","name":"r","type":"bytes32"},{"internalType":"bytes32","name":"s","type":"bytes32"},{"internalType":"uint256","name":"deadline","type":"uint256"},{"internalType":"uint256","name":"tokenId","type":"uint256"}],"name":"createAssetForSell","outputs":[],"stateMutability":"nonpayable","type":"function"},{"inputs":[{"components":[{"internalType":"uint256","name":"nftID","type":"uint256"},{"internalType":"bool","name":"new_env","type":"bool"},{"internalType":"uint256","name":"creatorUserID","type":"uint256"},{"internalType":"string","name":"creatorUsername","type":"string"},{"internalType":"string","name":"creatorName","type":"string"},{"internalType":"address","name":"creatorMetamaskId","type":"address"},{"internalType":"string","name":"associatedProjectName","type":"string"},{"internalType":"string","name":"associatedProjectUrl","type":"string"},{"internalType":"string","name":"assetName","type":"string"},{"internalType":"enum NFTMarketV2.AssetType","name":"assetType","type":"uint8"},{"internalType":"string","name":"assetDescription","type":"string"},{"internalType":"string","name":"assetOffer","type":"string"},{"internalType":"string","name":"assetTerms","type":"string"},{"internalType":"string","name":"assetImage","type":"string"},{"internalType":"bool","name":"isHidden","type":"bool"},{"internalType":"bool","name":"isPrivate","type":"bool"},{"internalType":"bool","name":"multiNft","type":"bool"},{"internalType":"uint256","name":"assetPrice","type":"uint256"},{"internalType":"enum NFTMarketV2.Status","name":"status","type":"uint8"},{"internalType":"bool","name":"requestApproval","type":"bool"}],"internalType":"struct NFTMarketV2.MarketItem","name":"data","type":"tuple"}],"name":"createAssetPending","outputs":[{"internalType":"bytes32","name":"","type":"bytes32"}],"stateMutability":"nonpayable","type":"function"},{"inputs":[],"name":"getAllHashesLength","outputs":[{"internalType":"uint256","name":"","type":"uint256"}],"stateMutability":"view","type":"function"},{"inputs":[{"internalType":"uint256","name":"lowerBoundary","type":"uint256"},{"internalType":"uint256","name":"upperBoundary","type":"uint256"}],"name":"getAllMarketItem","outputs":[{"components":[{"internalType":"uint256","name":"nftID","type":"uint256"},{"internalType":"bool","name":"new_env","type":"bool"},{"internalType":"uint256","name":"creatorUserID","type":"uint256"},{"internalType":"string","name":"creatorUsername","type":"string"},{"internalType":"string","name":"creatorName","type":"string"},{"internalType":"address","name":"creatorMetamaskId","type":"address"},{"internalType":"string","name":"associatedProjectName","type":"string"},{"internalType":"string","name":"associatedProjectUrl","type":"string"},{"internalType":"string","name":"assetName","type":"string"},{"internalType":"enum NFTMarketV2.AssetType","name":"assetType","type":"uint8"},{"internalType":"string","name":"assetDescription","type":"string"},{"internalType":"string","name":"assetOffer","type":"string"},{"internalType":"string","name":"assetTerms","type":"string"},{"internalType":"string","name":"assetImage","type":"string"},{"internalType":"bool","name":"isHidden","type":"bool"},{"internalType":"bool","name":"isPrivate","type":"bool"},{"internalType":"bool","name":"multiNft","type":"bool"},{"internalType":"uint256","name":"assetPrice","type":"uint256"},{"internalType":"enum NFTMarketV2.Status","name":"status","type":"uint8"},{"internalType":"bool","name":"requestApproval","type":"bool"}],"internalType":"struct NFTMarketV2.MarketItem[]","name":"","type":"tuple[]"}],"stateMutability":"view","type":"function"},{"inputs":[{"internalType":"bytes32","name":"hash","type":"bytes32"}],"name":"getMarketItem","outputs":[{"components":[{"internalType":"uint256","name":"nftID","type":"uint256"},{"internalType":"bool","name":"new_env","type":"bool"},{"internalType":"uint256","name":"creatorUserID","type":"uint256"},{"internalType":"string","name":"creatorUsername","type":"string"},{"internalType":"string","name":"creatorName","type":"string"},{"internalType":"address","name":"creatorMetamaskId","type":"address"},{"internalType":"string","name":"associatedProjectName","type":"string"},{"internalType":"string","name":"associatedProjectUrl","type":"string"},{"internalType":"string","name":"assetName","type":"string"},{"internalType":"enum NFTMarketV2.AssetType","name":"assetType","type":"uint8"},{"internalType":"string","name":"assetDescription","type":"string"},{"internalType":"string","name":"assetOffer","type":"string"},{"internalType":"string","name":"assetTerms","type":"string"},{"internalType":"string","name":"assetImage","type":"string"},{"internalType":"bool","name":"isHidden","type":"bool"},{"internalType":"bool","name":"isPrivate","type":"bool"},{"internalType":"bool","name":"multiNft","type":"bool"},{"internalType":"uint256","name":"assetPrice","type":"uint256"},{"internalType":"enum NFTMarketV2.Status","name":"status","type":"uint8"},{"internalType":"bool","name":"requestApproval","type":"bool"}],"internalType":"struct NFTMarketV2.MarketItem","name":"","type":"tuple"}],"stateMutability":"view","type":"function"},{"inputs":[{"internalType":"bytes32","name":"hash","type":"bytes32"}],"name":"getMarketItemStatus","outputs":[{"internalType":"string","name":"","type":"string"}],"stateMutability":"view","type":"function"},{"inputs":[{"internalType":"string","name":"tokenUri","type":"string"},{"internalType":"address","name":"nftOwner","type":"address"}],"name":"mintNFT","outputs":[{"internalType":"uint256","name":"","type":"uint256"}],"stateMutability":"nonpayable","type":"function"},{"inputs":[],"name":"owner","outputs":[{"internalType":"address","name":"","type":"address"}],"stateMutability":"view","type":"function"},{"inputs":[],"name":"renounceOwnership","outputs":[],"stateMutability":"nonpayable","type":"function"},{"inputs":[{"internalType":"bytes32","name":"hash","type":"bytes32"}],"name":"setMarketItemToPrivate","outputs":[],"stateMutability":"nonpayable","type":"function"},{"inputs":[{"internalType":"address","name":"newOwner","type":"address"}],"name":"transferOwnership","outputs":[],"stateMutability":"nonpayable","type":"function"}],"evm":{"bytecode":{"linkReferences":{},"object":"60806040527f6e71edae12b1b97f4d1f60370fef10105fa2faae0126114a169c64845d6126c960065566038d7ea4c680006007553480156200004057600080fd5b506001600055620000513362000057565b620000a9565b600180546001600160a01b038381166001600160a01b0319831681179093556040519116919082907f8be0079c531659141344cd1fd0a4f28419497f9722a3daafe3b4186f6b6457e090600090a35050565b61366880620000b96000396000f3fe608060405234801561001057600080fd5b506004361061012c5760003560e01c806380f12fcd116100ad578063cd7e0f7a11610071578063cd7e0f7a146102ab578063d22cad9a146102be578063e2208a65146102d1578063f2fde38b146102d9578063f7785a07146102ec57600080fd5b806380f12fcd1461024c5780638184a48c146102545780638da5cb5b14610274578063982aaf6b1461028f578063a92763281461029857600080fd5b80636abfcc72116100f45780636abfcc72146101c0578063715018a6146101d357806372c40429146101db57806376ba6009146101fe5780637d7b30561461022c57600080fd5b806304f322791461013157806340393fd31461015757806343fb19d91461016c57806346b4c35d1461019a57806355824391146101ad575b600080fd5b61014461013f366004612a29565b61030c565b6040519081526020015b60405180910390f35b61016a610165366004612ceb565b6103c7565b005b61016a61017a366004612d84565b6000908152600960205260409020600e01805461ff001916610100179055565b61016a6101a8366004612d9d565b6107a5565b61016a6101bb366004612e01565b610ae5565b6101446101ce366004612e86565b610cc7565b61016a610f82565b6101ee6101e9366004612ec3565b610f96565b604051901515815260200161014e565b61016a61020c366004612d84565b6000908152600960205260409020601001805461ff001916610100179055565b61023f61023a366004612d84565b611016565b60405161014e9190612f3d565b600a54610144565b610267610262366004612d84565b61103f565b60405161014e919061313b565b6001546040516001600160a01b03909116815260200161014e565b61014460065481565b61016a6102a636600461314e565b61167c565b61016a6102b93660046131d7565b6119c2565b61016a6102cc366004613268565b611bc5565b610144611d2c565b61016a6102e73660046132d2565b611e04565b6102ff6102fa3660046132ed565b611e7d565b60405161014e919061330f565b6004805460405163a211937760e01b815260009283926001600160a01b03169163a211937791610340918891889101613371565b6020604051808303816000875af115801561035f573d6000803e3d6000fd5b505050506040513d601f19601f82011682018060405250810190610383919061339b565b90507f2cc161d398589ff5526cd6b429338ae827d66c48171d3dbaeac9a7bf822935bd816040516103b691815260200190565b60405180910390a190505b92915050565b6004805460a089015160405163a211937760e01b81526001600160a01b039092169263a2119377926103fd928b92909101613371565b6020604051808303816000875af115801561041c573d6000803e3d6000fd5b505050506040513d601f19601f82011682018060405250810190610440919061339b565b5060048054604051637ac2ff7b60e01b81523092810192909252602482018390526044820184905260ff871660648301526084820186905260a482018590526001600160a01b031690637ac2ff7b9060c401600060405180830381600087803b1580156104ac57600080fd5b505af11580156104c0573d6000803e3d6000fd5b505050818852506040808801516101008901516101208a01516101408b01519351600094610516946104fc9490938893919290916020016133b4565b604051602081830303815290604052805160209091012090565b60405160200161052891815260200190565b60408051808303601f1901815291815281516020928301206000818152600984528290208b518155928b015160018401805460ff1916911515919091179055908a0151600283015560608a0151909250899190600382019061058a9082613498565b506080820151600482019061059f9082613498565b5060a08201516005820180546001600160a01b0319166001600160a01b0390921691909117905560c082015160068201906105da9082613498565b5060e082015160078201906105ef9082613498565b5061010082015160088201906106059082613498565b5061012082015160098201805460ff1916600183600481111561062a5761062a612f50565b0217905550610140820151600a8201906106449082613498565b50610160820151600b82019061065a9082613498565b50610180820151600c8201906106709082613498565b506101a0820151600d8201906106869082613498565b506101c0820151600e820180546101e08501516102008601511515620100000262ff0000199115156101000261ff00199515159590951661ffff19909316929092179390931792909216919091179055610220820151600f82015561024082015160108201805460ff1916600183600281111561070557610705612f50565b02179055506102609190910151601090910180549115156101000261ff0019909216919091179055600a80546001810182556000919091527fc65a7bb8d6351c1cf70c95a316cc6a92839c986682d98bc35f958f4883f9d2a80181905560408051828152602081018490527f0400a15904b2574e109cd26861b874b1208c6d17bc8beafdb885d8ecc14f00b8910160405180910390a15050505050505050565b6004805460a084015160405163a211937760e01b81526000936001600160a01b039093169263a2119377926107dc92879201613371565b6020604051808303816000875af11580156107fb573d6000803e3d6000fd5b505050506040513d601f19601f8201168201806040525081019061081f919061339b565b808452604080850151610100860151610120870151610140880151935194955060009461085a946104fc9493889390929091906020016133b4565b60405160200161086c91815260200190565b60408051808303601f190181529181528151602092830120600081815260098452829020875181559287015160018401805460ff1916911515919091179055908601516002830155606086015190925085919060038201906108ce9082613498565b50608082015160048201906108e39082613498565b5060a08201516005820180546001600160a01b0319166001600160a01b0390921691909117905560c0820151600682019061091e9082613498565b5060e082015160078201906109339082613498565b5061010082015160088201906109499082613498565b5061012082015160098201805460ff1916600183600481111561096e5761096e612f50565b0217905550610140820151600a8201906109889082613498565b50610160820151600b82019061099e9082613498565b50610180820151600c8201906109b49082613498565b506101a0820151600d8201906109ca9082613498565b506101c0820151600e820180546101e08501516102008601511515620100000262ff0000199115156101000261ff00199515159590951661ffff19909316929092179390931792909216919091179055610220820151600f82015561024082015160108201805460ff19166001836002811115610a4957610a49612f50565b02179055506102609190910151601090910180549115156101000261ff0019909216919091179055600a80546001810182556000919091527fc65a7bb8d6351c1cf70c95a316cc6a92839c986682d98bc35f958f4883f9d2a80181905560408051828152602081018490527f7cddf1fb24a9ce9a5994bab46a1ea1306bbaba94e6b9f319cc235ed8bfeb8d6c910160405180910390a150505050565b610aed61283f565b8781526001600160a01b03808b166020808401918252858316604080860182815260608701888152600093845260088552828420898552909452918190208651815593516001850180549187166001600160a01b0319928316179055915160028501805491871691909316179091559051600390920191909155600554905163d505accf60e01b815291169063d505accf90610b99908d908d908d908d908d908d908d90600401613558565b600060405180830381600087803b158015610bb357600080fd5b505af1158015610bc7573d6000803e3d6000fd5b5050600554604051633950935160e01b81526001600160a01b038d81166004830152602482018d90529091169250633950935191506044016020604051808303816000875af1158015610c1e573d6000803e3d6000fd5b505050506040513d601f19601f82011682018060405250810190610c429190613599565b506005546040516323b872dd60e01b81526001600160a01b03909116906323b872dd90610c77908d9030908d906004016135b6565b6020604051808303816000875af1158015610c96573d6000803e3d6000fd5b505050506040513d601f19601f82011682018060405250810190610cba9190613599565b5050505050505050505050565b600080610cfd836040015184600001518561010001518661012001518761014001516040516020016104fc9594939291906133b4565b604051602001610d0f91815260200190565b60408051808303601f190181529181528151602092830120600081815260098452829020865181559286015160018401805460ff191691151591909117905590850151600283015560608501519092508491906003820190610d719082613498565b5060808201516004820190610d869082613498565b5060a08201516005820180546001600160a01b0319166001600160a01b0390921691909117905560c08201516006820190610dc19082613498565b5060e08201516007820190610dd69082613498565b506101008201516008820190610dec9082613498565b5061012082015160098201805460ff19166001836004811115610e1157610e11612f50565b0217905550610140820151600a820190610e2b9082613498565b50610160820151600b820190610e419082613498565b50610180820151600c820190610e579082613498565b506101a0820151600d820190610e6d9082613498565b506101c0820151600e820180546101e08501516102008601511515620100000262ff0000199115156101000261ff00199515159590951661ffff19909316929092179390931792909216919091179055610220820151600f82015561024082015160108201805460ff19166001836002811115610eec57610eec612f50565b02179055506102609190910151601090910180549115156101000261ff0019909216919091179055600a80546001810182556000919091527fc65a7bb8d6351c1cf70c95a316cc6a92839c986682d98bc35f958f4883f9d2a8018190556040518181527f8be2d25238708c5e063396e6d61f4b7b207886987437015d6484870f109924a89060200160405180910390a192915050565b610f8a6126d2565b610f94600061272c565b565b600480546001600160a01b038481166001600160a01b031992831681179093556005805491851691831682179055600b805490921681179091556040805192835260208301919091526000917fe35fa6870eeedba0df9480a717f514d523b132dc90a8075df0b4f4b91bf27b4a910160405180910390a150600192915050565b600081815260096020526040812060100154606091906110389060ff1661277e565b9392505050565b611047612879565b60008281526009602090815260409182902082516102808101845281548152600182015460ff1615159281019290925260028101549282019290925260038201805491929160608401919061109b9061340f565b80601f01602080910402602001604051908101604052809291908181526020018280546110c79061340f565b80156111145780601f106110e957610100808354040283529160200191611114565b820191906000526020600020905b8154815290600101906020018083116110f757829003601f168201915b5050505050815260200160048201805461112d9061340f565b80601f01602080910402602001604051908101604052809291908181526020018280546111599061340f565b80156111a65780601f1061117b576101008083540402835291602001916111a6565b820191906000526020600020905b81548152906001019060200180831161118957829003601f168201915b505050918352505060058201546001600160a01b031660208201526006820180546040909201916111d69061340f565b80601f01602080910402602001604051908101604052809291908181526020018280546112029061340f565b801561124f5780601f106112245761010080835404028352916020019161124f565b820191906000526020600020905b81548152906001019060200180831161123257829003601f168201915b505050505081526020016007820180546112689061340f565b80601f01602080910402602001604051908101604052809291908181526020018280546112949061340f565b80156112e15780601f106112b6576101008083540402835291602001916112e1565b820191906000526020600020905b8154815290600101906020018083116112c457829003601f168201915b505050505081526020016008820180546112fa9061340f565b80601f01602080910402602001604051908101604052809291908181526020018280546113269061340f565b80156113735780601f1061134857610100808354040283529160200191611373565b820191906000526020600020905b81548152906001019060200180831161135657829003601f168201915b5050509183525050600982015460209091019060ff16600481111561139a5761139a612f50565b60048111156113ab576113ab612f50565b8152602001600a820180546113bf9061340f565b80601f01602080910402602001604051908101604052809291908181526020018280546113eb9061340f565b80156114385780601f1061140d57610100808354040283529160200191611438565b820191906000526020600020905b81548152906001019060200180831161141b57829003601f168201915b50505050508152602001600b820180546114519061340f565b80601f016020809104026020016040519081016040528092919081815260200182805461147d9061340f565b80156114ca5780601f1061149f576101008083540402835291602001916114ca565b820191906000526020600020905b8154815290600101906020018083116114ad57829003601f168201915b50505050508152602001600c820180546114e39061340f565b80601f016020809104026020016040519081016040528092919081815260200182805461150f9061340f565b801561155c5780601f106115315761010080835404028352916020019161155c565b820191906000526020600020905b81548152906001019060200180831161153f57829003601f168201915b50505050508152602001600d820180546115759061340f565b80601f01602080910402602001604051908101604052809291908181526020018280546115a19061340f565b80156115ee5780601f106115c3576101008083540402835291602001916115ee565b820191906000526020600020905b8154815290600101906020018083116115d157829003601f168201915b5050509183525050600e82015460ff80821615156020840152610100820481161515604084015262010000909104811615156060830152600f8301546080830152601083015460a09092019116600281111561164c5761164c612f50565b600281111561165d5761165d612f50565b815260109190910154610100900460ff16151560209091015292915050565b61168461283f565b506001600160a01b03808b1660009081526008602090815260408083208d84528252808320815160808101835281548152600182015486169381019390935260028101549094169082015260039092015460608301526116e2611d2c565b600654602084810151855160408051808501959095526001600160a01b0390921684830152306060850152608084015260a083018a905260c08084018c90528151808503909101815260e08401909152805191012061190160f01b6101008301526101028201929092526101228101919091526101420160408051601f1981840301815282825280516020918201206000845290830180835281905260ff8d1691830191909152606082018b9052608082018a9052915060019060a0016020604051602081039080840390855afa1580156117c1573d6000803e3d6000fd5b505050602060405103516001600160a01b031682602001516001600160a01b0316146118295760405162461bcd60e51b8152602060048201526012602482015271496e76616c6964205369676e61747572652160701b60448201526064015b60405180910390fd5b600560009054906101000a90046001600160a01b03166001600160a01b03166323b872dd308e85600001516040518463ffffffff1660e01b8152600401611872939291906135b6565b6020604051808303816000875af1158015611891573d6000803e3d6000fd5b505050506040513d601f19601f820116820180604052508101906118b59190613599565b5060048054604051637ac2ff7b60e01b81523092810192909252602482018d90526044820189905260ff871660648301526084820186905260a482018590526001600160a01b031690637ac2ff7b9060c401600060405180830381600087803b15801561192157600080fd5b505af1158015611935573d6000803e3d6000fd5b50505050600460009054906101000a90046001600160a01b03166001600160a01b03166323b872dd8d84602001518e6040518463ffffffff1660e01b8152600401611982939291906135b6565b600060405180830381600087803b15801561199c57600080fd5b505af11580156119b0573d6000803e3d6000fd5b50505050505050505050505050505050565b6004805460405163a211937760e01b81526000926001600160a01b039092169163a2119377916119f6918e918e9101613371565b6020604051808303816000875af1158015611a15573d6000803e3d6000fd5b505050506040513d601f19601f82011682018060405250810190611a39919061339b565b60008c81526009602052604090819020828155601001805460ff19166001179055600554905163d505accf60e01b81529192506001600160a01b03169063d505accf90611a96908c908c908b908b908b908b908b90600401613558565b600060405180830381600087803b158015611ab057600080fd5b505af1158015611ac4573d6000803e3d6000fd5b5050600554604051633950935160e01b81526001600160a01b038c81166004830152602482018b90529091169250633950935191506044016020604051808303816000875af1158015611b1b573d6000803e3d6000fd5b505050506040513d601f19601f82011682018060405250810190611b3f9190613599565b506005546040516323b872dd60e01b81526001600160a01b03909116906323b872dd90611b74908c908b908b906004016135b6565b6020604051808303816000875af1158015611b93573d6000803e3d6000fd5b505050506040513d601f19601f82011682018060405250810190611bb79190613599565b505050505050505050505050565b60055460405163d505accf60e01b81526001600160a01b039091169063d505accf90611c01908a908a908a908a908a908a908a90600401613558565b600060405180830381600087803b158015611c1b57600080fd5b505af1158015611c2f573d6000803e3d6000fd5b5050600554604051633950935160e01b81526001600160a01b038a81166004830152602482018a90529091169250633950935191506044016020604051808303816000875af1158015611c86573d6000803e3d6000fd5b505050506040513d601f19601f82011682018060405250810190611caa9190613599565b506005546040516323b872dd60e01b81526001600160a01b03909116906323b872dd90611cdf908a9030908a906004016135b6565b6020604051808303816000875af1158015611cfe573d6000803e3d6000fd5b505050506040513d601f19601f82011682018060405250810190611d229190613599565b5050505050505050565b60408051808201825260048152634165726f60e01b6020918201528151808301835260018152603160f81b90820152600b5482517f8b73c3c69bb8fe3d512ecc4cf759cc79239f7b179b0ffacaa9a75d522b39400f818401527fbf01fc4e5f7eb1f2eee29681cd6d2cda1045d51fd80c223d1eaea49e08734bf9818501527fc89efdaa54c0f20c7adf612882df0950f5a951637e0307cdcb4c672f298b8bc660608201524660808201526001600160a01b0390911660a0808301919091528351808303909101815260c0909101909252815191012090565b611e0c6126d2565b6001600160a01b038116611e715760405162461bcd60e51b815260206004820152602660248201527f4f776e61626c653a206e6577206f776e657220697320746865207a65726f206160448201526564647265737360d01b6064820152608401611820565b611e7a8161272c565b50565b6060611e876126d2565b600a546001811015611ece5760405162461bcd60e51b815260206004820152601060248201526f6173736574732061726520656d70747960801b6044820152606401611820565b808411158015611edc575060015b611f4e5760405162461bcd60e51b815260206004820152603f60248201527f6c6f77657220626f756e646172792073686f756c64206265206c657373206f7260448201527f20657175616c20746f2073697a6520616e64206e6f6e206e65676174697665006064820152608401611820565b808311158015611f5c575060015b611fce5760405162461bcd60e51b815260206004820152603f60248201527f757070657220626f756e646172792073686f756c64206265206c657373206f7260448201527f20657175616c20746f2073697a6520616e64206e6f6e206e65676174697665006064820152608401611820565b600a5460009067ffffffffffffffff811115611fec57611fec612945565b60405190808252806020026020018201604052801561202557816020015b612012612879565b81526020019060019003908161200a5790505b5090506000855b8581116126c75760096000600a838154811061204a5761204a6135da565b9060005260206000200154815260200190815260200160002060405180610280016040529081600082015481526020016001820160009054906101000a900460ff16151515158152602001600282015481526020016003820180546120ae9061340f565b80601f01602080910402602001604051908101604052809291908181526020018280546120da9061340f565b80156121275780601f106120fc57610100808354040283529160200191612127565b820191906000526020600020905b81548152906001019060200180831161210a57829003601f168201915b505050505081526020016004820180546121409061340f565b80601f016020809104026020016040519081016040528092919081815260200182805461216c9061340f565b80156121b95780601f1061218e576101008083540402835291602001916121b9565b820191906000526020600020905b81548152906001019060200180831161219c57829003601f168201915b505050918352505060058201546001600160a01b031660208201526006820180546040909201916121e99061340f565b80601f01602080910402602001604051908101604052809291908181526020018280546122159061340f565b80156122625780601f1061223757610100808354040283529160200191612262565b820191906000526020600020905b81548152906001019060200180831161224557829003601f168201915b5050505050815260200160078201805461227b9061340f565b80601f01602080910402602001604051908101604052809291908181526020018280546122a79061340f565b80156122f45780601f106122c9576101008083540402835291602001916122f4565b820191906000526020600020905b8154815290600101906020018083116122d757829003601f168201915b5050505050815260200160088201805461230d9061340f565b80601f01602080910402602001604051908101604052809291908181526020018280546123399061340f565b80156123865780601f1061235b57610100808354040283529160200191612386565b820191906000526020600020905b81548152906001019060200180831161236957829003601f168201915b5050509183525050600982015460209091019060ff1660048111156123ad576123ad612f50565b60048111156123be576123be612f50565b8152602001600a820180546123d29061340f565b80601f01602080910402602001604051908101604052809291908181526020018280546123fe9061340f565b801561244b5780601f106124205761010080835404028352916020019161244b565b820191906000526020600020905b81548152906001019060200180831161242e57829003601f168201915b50505050508152602001600b820180546124649061340f565b80601f01602080910402602001604051908101604052809291908181526020018280546124909061340f565b80156124dd5780601f106124b2576101008083540402835291602001916124dd565b820191906000526020600020905b8154815290600101906020018083116124c057829003601f168201915b50505050508152602001600c820180546124f69061340f565b80601f01602080910402602001604051908101604052809291908181526020018280546125229061340f565b801561256f5780601f106125445761010080835404028352916020019161256f565b820191906000526020600020905b81548152906001019060200180831161255257829003601f168201915b50505050508152602001600d820180546125889061340f565b80601f01602080910402602001604051908101604052809291908181526020018280546125b49061340f565b80156126015780601f106125d657610100808354040283529160200191612601565b820191906000526020600020905b8154815290600101906020018083116125e457829003601f168201915b5050509183525050600e82015460ff80821615156020840152610100820481161515604084015262010000909104811615156060830152600f8301546080830152601083015460a09092019116600281111561265f5761265f612f50565b600281111561267057612670612f50565b815260109190910154610100900460ff161515602090910152835184908490811061269d5761269d6135da565b60209081029190910101526126b3826001613606565b9150806126bf81613619565b91505061202c565b509095945050505050565b6001546001600160a01b03163314610f945760405162461bcd60e51b815260206004820181905260248201527f4f776e61626c653a2063616c6c6572206973206e6f7420746865206f776e65726044820152606401611820565b600180546001600160a01b038381166001600160a01b0319831681179093556040519116919082907f8be0079c531659141344cd1fd0a4f28419497f9722a3daafe3b4186f6b6457e090600090a35050565b6060600382600281111561279457612794612f50565b60ff1611156127a257600080fd5b8160028111156127b4576127b4612f50565b6000036127de57505060408051808201909152600781526650656e64696e6760c81b602082015290565b8160028111156127f0576127f0612f50565b60010361281a57505060408051808201909152600781526610dc99585d195960ca1b602082015290565b505060408051808201909152600481526314dbdb1960e21b602082015290565b919050565b60405180608001604052806000815260200160006001600160a01b0316815260200160006001600160a01b03168152602001600081525090565b6040518061028001604052806000815260200160001515815260200160008152602001606081526020016060815260200160006001600160a01b03168152602001606081526020016060815260200160608152602001600060048111156128e2576128e2612f50565b815260200160608152602001606081526020016060815260200160608152602001600015158152602001600015158152602001600015158152602001600081526020016000600281111561293857612938612f50565b8152600060209091015290565b634e487b7160e01b600052604160045260246000fd5b604051610280810167ffffffffffffffff8111828210171561297f5761297f612945565b60405290565b600082601f83011261299657600080fd5b813567ffffffffffffffff808211156129b1576129b1612945565b604051601f8301601f19908116603f011681019082821181831017156129d9576129d9612945565b816040528381528660208588010111156129f257600080fd5b836020870160208301376000602085830101528094505050505092915050565b80356001600160a01b038116811461283a57600080fd5b60008060408385031215612a3c57600080fd5b823567ffffffffffffffff811115612a5357600080fd5b612a5f85828601612985565b925050612a6e60208401612a12565b90509250929050565b8015158114611e7a57600080fd5b803561283a81612a77565b80356005811061283a57600080fd5b80356003811061283a57600080fd5b60006102808284031215612ac157600080fd5b612ac961295b565b905081358152612adb60208301612a85565b602082015260408201356040820152606082013567ffffffffffffffff80821115612b0557600080fd5b612b1185838601612985565b60608401526080840135915080821115612b2a57600080fd5b612b3685838601612985565b6080840152612b4760a08501612a12565b60a084015260c0840135915080821115612b6057600080fd5b612b6c85838601612985565b60c084015260e0840135915080821115612b8557600080fd5b612b9185838601612985565b60e084015261010091508184013581811115612bac57600080fd5b612bb886828701612985565b83850152506101209150612bcd828501612a90565b8284015261014091508184013581811115612be757600080fd5b612bf386828701612985565b838501525061016091508184013581811115612c0e57600080fd5b612c1a86828701612985565b838501525061018091508184013581811115612c3557600080fd5b612c4186828701612985565b83850152506101a091508184013581811115612c5c57600080fd5b612c6886828701612985565b838501525050506101c0612c7d818401612a85565b908201526101e0612c8f838201612a85565b90820152610200612ca1838201612a85565b908201526102208281013590820152610240612cbe818401612a9f565b90820152610260612cd0838201612a85565b9082015292915050565b803560ff8116811461283a57600080fd5b600080600080600080600060e0888a031215612d0657600080fd5b873567ffffffffffffffff80821115612d1e57600080fd5b612d2a8b838c01612aae565b985060208a0135915080821115612d4057600080fd5b50612d4d8a828b01612985565b965050612d5c60408901612cda565b969995985095966060810135965060808101359560a0820135955060c0909101359350915050565b600060208284031215612d9657600080fd5b5035919050565b60008060408385031215612db057600080fd5b823567ffffffffffffffff80821115612dc857600080fd5b612dd486838701612aae565b93506020850135915080821115612dea57600080fd5b50612df785828601612985565b9150509250929050565b60008060008060008060008060006101208a8c031215612e2057600080fd5b612e298a612a12565b9850612e3760208b01612a12565b975060408a0135965060608a01359550612e5360808b01612cda565b945060a08a0135935060c08a01359250612e6f60e08b01612a12565b91506101008a013590509295985092959850929598565b600060208284031215612e9857600080fd5b813567ffffffffffffffff811115612eaf57600080fd5b612ebb84828501612aae565b949350505050565b60008060408385031215612ed657600080fd5b612edf83612a12565b9150612a6e60208401612a12565b60005b83811015612f08578181015183820152602001612ef0565b50506000910152565b60008151808452612f29816020860160208601612eed565b601f01601f19169290920160200192915050565b6020815260006110386020830184612f11565b634e487b7160e01b600052602160045260246000fd5b60058110612f7657612f76612f50565b9052565b60038110612f7657612f76612f50565b6000610280825184526020830151612fa6602086018215159052565b50604083015160408501526060830151816060860152612fc882860182612f11565b91505060808301518482036080860152612fe28282612f11565b91505060a0830151612fff60a08601826001600160a01b03169052565b5060c083015184820360c08601526130178282612f11565b91505060e083015184820360e08601526130318282612f11565b915050610100808401518583038287015261304c8382612f11565b925050506101208084015161306382870182612f66565b5050610140808401518583038287015261307d8382612f11565b9250505061016080840151858303828701526130998382612f11565b9250505061018080840151858303828701526130b58382612f11565b925050506101a080840151858303828701526130d18382612f11565b925050506101c0808401516130e98287018215159052565b50506101e0838101511515908501526102008084015115159085015261022080840151908501526102408084015161312382870182612f7a565b50506102609283015115159390920192909252919050565b6020815260006110386020830184612f8a565b6000806000806000806000806000806101408b8d03121561316e57600080fd5b6131778b612a12565b995060208b0135985061318c60408c01612cda565b975060608b0135965060808b0135955060a08b0135945060c08b013593506131b660e08c01612cda565b92506101008b013591506101208b013590509295989b9194979a5092959850565b6000806000806000806000806000806101408b8d0312156131f757600080fd5b8a35995060208b013567ffffffffffffffff81111561321557600080fd5b6132218d828e01612985565b99505061323060408c01612a12565b975061323e60608c01612a12565b965061324c60808c01612a12565b955060a08b0135945060c08b013593506131b660e08c01612cda565b600080600080600080600060e0888a03121561328357600080fd5b61328c88612a12565b965061329a60208901612a12565b955060408801359450606088013593506132b660808901612cda565b925060a0880135915060c0880135905092959891949750929550565b6000602082840312156132e457600080fd5b61103882612a12565b6000806040838503121561330057600080fd5b50508035926020909101359150565b6000602080830181845280855180835260408601915060408160051b870101925083870160005b8281101561336457603f19888603018452613352858351612f8a565b94509285019290850190600101613336565b5092979650505050505050565b6040815260006133846040830185612f11565b905060018060a01b03831660208301529392505050565b6000602082840312156133ad57600080fd5b5051919050565b858152846020820152600084516133d2816040850160208901612eed565b8201600585106133e4576133e4612f50565b8460f81b60408201528351613400816041840160208801612eed565b01604101979650505050505050565b600181811c9082168061342357607f821691505b60208210810361344357634e487b7160e01b600052602260045260246000fd5b50919050565b601f82111561349357600081815260208120601f850160051c810160208610156134705750805b601f850160051c820191505b8181101561348f5782815560010161347c565b5050505b505050565b815167ffffffffffffffff8111156134b2576134b2612945565b6134c6816134c0845461340f565b84613449565b602080601f8311600181146134fb57600084156134e35750858301515b600019600386901b1c1916600185901b17855561348f565b600085815260208120601f198616915b8281101561352a5788860151825594840194600190910190840161350b565b50858210156135485787850151600019600388901b60f8161c191681555b5050505050600190811b01905550565b6001600160a01b0397881681529590961660208601526040850193909352606084019190915260ff16608083015260a082015260c081019190915260e00190565b6000602082840312156135ab57600080fd5b815161103881612a77565b6001600160a01b039384168152919092166020820152604081019190915260600190565b634e487b7160e01b600052603260045260246000fd5b634e487b7160e01b600052601160045260246000fd5b808201808211156103c1576103c16135f0565b60006001820161362b5761362b6135f0565b506001019056fea2646970667358221220039206d523bd0cbe29b8bdfc6793ee944e311485c4368454789515f41c39aebb64736f6c63430008110033","opcodes":"PUSH1 0x80 PUSH1 0x40 MSTORE PUSH32 0x6E71EDAE12B1B97F4D1F60370FEF10105FA2FAAE0126114A169C64845D6126C9 PUSH1 0x6 SSTORE PUSH7 0x38D7EA4C68000 PUSH1 0x7 SSTORE CALLVALUE DUP1 ISZERO PUSH3 0x40 JUMPI PUSH1 0x0 DUP1 REVERT JUMPDEST POP PUSH1 0x1 PUSH1 0x0 SSTORE PUSH3 0x51 CALLER PUSH3 0x57 JUMP JUMPDEST PUSH3 0xA9 JUMP JUMPDEST PUSH1 0x1 DUP1 SLOAD PUSH1 0x1 PUSH1 0x1 PUSH1 0xA0 SHL SUB DUP4 DUP2 AND PUSH1 0x1 PUSH1 0x1 PUSH1 0xA0 SHL SUB NOT DUP4 AND DUP2 OR SWAP1 SWAP4 SSTORE PUSH1 0x40 MLOAD SWAP2 AND SWAP2 SWAP1 DUP3 SWAP1 PUSH32 0x8BE0079C531659141344CD1FD0A4F28419497F9722A3DAAFE3B4186F6B6457E0 SWAP1 PUSH1 0x0 SWAP1 LOG3 POP POP JUMP JUMPDEST PUSH2 0x3668 DUP1 PUSH3 0xB9 PUSH1 0x0 CODECOPY PUSH1 0x0 RETURN INVALID PUSH1 0x80 PUSH1 0x40 MSTORE CALLVALUE DUP1 ISZERO PUSH2 0x10 JUMPI PUSH1 0x0 DUP1 REVERT JUMPDEST POP PUSH1 0x4 CALLDATASIZE LT PUSH2 0x12C JUMPI PUSH1 0x0 CALLDATALOAD PUSH1 0xE0 SHR DUP1 PUSH4 0x80F12FCD GT PUSH2 0xAD JUMPI DUP1 PUSH4 0xCD7E0F7A GT PUSH2 0x71 JUMPI DUP1 PUSH4 0xCD7E0F7A EQ PUSH2 0x2AB JUMPI DUP1 PUSH4 0xD22CAD9A EQ PUSH2 0x2BE JUMPI DUP1 PUSH4 0xE2208A65 EQ PUSH2 0x2D1 JUMPI DUP1 PUSH4 0xF2FDE38B EQ PUSH2 0x2D9 JUMPI DUP1 PUSH4 0xF7785A07 EQ PUSH2 0x2EC JUMPI PUSH1 0x0 DUP1 REVERT JUMPDEST DUP1 PUSH4 0x80F12FCD EQ PUSH2 0x24C JUMPI DUP1 PUSH4 0x8184A48C EQ PUSH2 0x254 JUMPI DUP1 PUSH4 0x8DA5CB5B EQ PUSH2 0x274 JUMPI DUP1 PUSH4 0x982AAF6B EQ PUSH2 0x28F JUMPI DUP1 PUSH4 0xA9276328 EQ PUSH2 0x298 JUMPI PUSH1 0x0 DUP1 REVERT JUMPDEST DUP1 PUSH4 0x6ABFCC72 GT PUSH2 0xF4 JUMPI DUP1 PUSH4 0x6ABFCC72 EQ PUSH2 0x1C0 JUMPI DUP1 PUSH4 0x715018A6 EQ PUSH2 0x1D3 JUMPI DUP1 PUSH4 0x72C40429 EQ PUSH2 0x1DB JUMPI DUP1 PUSH4 0x76BA6009 EQ PUSH2 0x1FE JUMPI DUP1 PUSH4 0x7D7B3056 EQ PUSH2 0x22C JUMPI PUSH1 0x0 DUP1 REVERT JUMPDEST DUP1 PUSH4 0x4F32279 EQ PUSH2 0x131 JUMPI DUP1 PUSH4 0x40393FD3 EQ PUSH2 0x157 JUMPI DUP1 PUSH4 0x43FB19D9 EQ PUSH2 0x16C JUMPI DUP1 PUSH4 0x46B4C35D EQ PUSH2 0x19A JUMPI DUP1 PUSH4 0x55824391 EQ PUSH2 0x1AD JUMPI JUMPDEST PUSH1 0x0 DUP1 REVERT JUMPDEST PUSH2 0x144 PUSH2 0x13F CALLDATASIZE PUSH1 0x4 PUSH2 0x2A29 JUMP JUMPDEST PUSH2 0x30C JUMP JUMPDEST PUSH1 0x40 MLOAD SWAP1 DUP2 MSTORE PUSH1 0x20 ADD JUMPDEST PUSH1 0x40 MLOAD DUP1 SWAP2 SUB SWAP1 RETURN JUMPDEST PUSH2 0x16A PUSH2 0x165 CALLDATASIZE PUSH1 0x4 PUSH2 0x2CEB JUMP JUMPDEST PUSH2 0x3C7 JUMP JUMPDEST STOP JUMPDEST PUSH2 0x16A PUSH2 0x17A CALLDATASIZE PUSH1 0x4 PUSH2 0x2D84 JUMP JUMPDEST PUSH1 0x0 SWAP1 DUP2 MSTORE PUSH1 0x9 PUSH1 0x20 MSTORE PUSH1 0x40 SWAP1 KECCAK256 PUSH1 0xE ADD DUP1 SLOAD PUSH2 0xFF00 NOT AND PUSH2 0x100 OR SWAP1 SSTORE JUMP JUMPDEST PUSH2 0x16A PUSH2 0x1A8 CALLDATASIZE PUSH1 0x4 PUSH2 0x2D9D JUMP JUMPDEST PUSH2 0x7A5 JUMP JUMPDEST PUSH2 0x16A PUSH2 0x1BB CALLDATASIZE PUSH1 0x4 PUSH2 0x2E01 JUMP JUMPDEST PUSH2 0xAE5 JUMP JUMPDEST PUSH2 0x144 PUSH2 0x1CE CALLDATASIZE PUSH1 0x4 PUSH2 0x2E86 JUMP JUMPDEST PUSH2 0xCC7 JUMP JUMPDEST PUSH2 0x16A PUSH2 0xF82 JUMP JUMPDEST PUSH2 0x1EE PUSH2 0x1E9 CALLDATASIZE PUSH1 0x4 PUSH2 0x2EC3 JUMP JUMPDEST PUSH2 0xF96 JUMP JUMPDEST PUSH1 0x40 MLOAD SWAP1 ISZERO ISZERO DUP2 MSTORE PUSH1 0x20 ADD PUSH2 0x14E JUMP JUMPDEST PUSH2 0x16A PUSH2 0x20C CALLDATASIZE PUSH1 0x4 PUSH2 0x2D84 JUMP JUMPDEST PUSH1 0x0 SWAP1 DUP2 MSTORE PUSH1 0x9 PUSH1 0x20 MSTORE PUSH1 0x40 SWAP1 KECCAK256 PUSH1 0x10 ADD DUP1 SLOAD PUSH2 0xFF00 NOT AND PUSH2 0x100 OR SWAP1 SSTORE JUMP JUMPDEST PUSH2 0x23F PUSH2 0x23A CALLDATASIZE PUSH1 0x4 PUSH2 0x2D84 JUMP JUMPDEST PUSH2 0x1016 JUMP JUMPDEST PUSH1 0x40 MLOAD PUSH2 0x14E SWAP2 SWAP1 PUSH2 0x2F3D JUMP JUMPDEST PUSH1 0xA SLOAD PUSH2 0x144 JUMP JUMPDEST PUSH2 0x267 PUSH2 0x262 CALLDATASIZE PUSH1 0x4 PUSH2 0x2D84 JUMP JUMPDEST PUSH2 0x103F JUMP JUMPDEST PUSH1 0x40 MLOAD PUSH2 0x14E SWAP2 SWAP1 PUSH2 0x313B JUMP JUMPDEST PUSH1 0x1 SLOAD PUSH1 0x40 MLOAD PUSH1 0x1 PUSH1 0x1 PUSH1 0xA0 SHL SUB SWAP1 SWAP2 AND DUP2 MSTORE PUSH1 0x20 ADD PUSH2 0x14E JUMP JUMPDEST PUSH2 0x144 PUSH1 0x6 SLOAD DUP2 JUMP JUMPDEST PUSH2 0x16A PUSH2 0x2A6 CALLDATASIZE PUSH1 0x4 PUSH2 0x314E JUMP JUMPDEST PUSH2 0x167C JUMP JUMPDEST PUSH2 0x16A PUSH2 0x2B9 CALLDATASIZE PUSH1 0x4 PUSH2 0x31D7 JUMP JUMPDEST PUSH2 0x19C2 JUMP JUMPDEST PUSH2 0x16A PUSH2 0x2CC CALLDATASIZE PUSH1 0x4 PUSH2 0x3268 JUMP JUMPDEST PUSH2 0x1BC5 JUMP JUMPDEST PUSH2 0x144 PUSH2 0x1D2C JUMP JUMPDEST PUSH2 0x16A PUSH2 0x2E7 CALLDATASIZE PUSH1 0x4 PUSH2 0x32D2 JUMP JUMPDEST PUSH2 0x1E04 JUMP JUMPDEST PUSH2 0x2FF PUSH2 0x2FA CALLDATASIZE PUSH1 0x4 PUSH2 0x32ED JUMP JUMPDEST PUSH2 0x1E7D JUMP JUMPDEST PUSH1 0x40 MLOAD PUSH2 0x14E SWAP2 SWAP1 PUSH2 0x330F JUMP JUMPDEST PUSH1 0x4 DUP1 SLOAD PUSH1 0x40 MLOAD PUSH4 0xA2119377 PUSH1 0xE0 SHL DUP2 MSTORE PUSH1 0x0 SWAP3 DUP4 SWAP3 PUSH1 0x1 PUSH1 0x1 PUSH1 0xA0 SHL SUB AND SWAP2 PUSH4 0xA2119377 SWAP2 PUSH2 0x340 SWAP2 DUP9 SWAP2 DUP9 SWAP2 ADD PUSH2 0x3371 JUMP JUMPDEST PUSH1 0x20 PUSH1 0x40 MLOAD DUP1 DUP4 SUB DUP2 PUSH1 0x0 DUP8 GAS CALL ISZERO DUP1 ISZERO PUSH2 0x35F JUMPI RETURNDATASIZE PUSH1 0x0 DUP1 RETURNDATACOPY RETURNDATASIZE PUSH1 0x0 REVERT JUMPDEST POP POP POP POP PUSH1 0x40 MLOAD RETURNDATASIZE PUSH1 0x1F NOT PUSH1 0x1F DUP3 ADD AND DUP3 ADD DUP1 PUSH1 0x40 MSTORE POP DUP2 ADD SWAP1 PUSH2 0x383 SWAP2 SWAP1 PUSH2 0x339B JUMP JUMPDEST SWAP1 POP PUSH32 0x2CC161D398589FF5526CD6B429338AE827D66C48171D3DBAEAC9A7BF822935BD DUP2 PUSH1 0x40 MLOAD PUSH2 0x3B6 SWAP2 DUP2 MSTORE PUSH1 0x20 ADD SWAP1 JUMP JUMPDEST PUSH1 0x40 MLOAD DUP1 SWAP2 SUB SWAP1 LOG1 SWAP1 POP JUMPDEST SWAP3 SWAP2 POP POP JUMP JUMPDEST PUSH1 0x4 DUP1 SLOAD PUSH1 0xA0 DUP10 ADD MLOAD PUSH1 0x40 MLOAD PUSH4 0xA2119377 PUSH1 0xE0 SHL DUP2 MSTORE PUSH1 0x1 PUSH1 0x1 PUSH1 0xA0 SHL SUB SWAP1 SWAP3 AND SWAP3 PUSH4 0xA2119377 SWAP3 PUSH2 0x3FD SWAP3 DUP12 SWAP3 SWAP1 SWAP2 ADD PUSH2 0x3371 JUMP JUMPDEST PUSH1 0x20 PUSH1 0x40 MLOAD DUP1 DUP4 SUB DUP2 PUSH1 0x0 DUP8 GAS CALL ISZERO DUP1 ISZERO PUSH2 0x41C JUMPI RETURNDATASIZE PUSH1 0x0 DUP1 RETURNDATACOPY RETURNDATASIZE PUSH1 0x0 REVERT JUMPDEST POP POP POP POP PUSH1 0x40 MLOAD RETURNDATASIZE PUSH1 0x1F NOT PUSH1 0x1F DUP3 ADD AND DUP3 ADD DUP1 PUSH1 0x40 MSTORE POP DUP2 ADD SWAP1 PUSH2 0x440 SWAP2 SWAP1 PUSH2 0x339B JUMP JUMPDEST POP PUSH1 0x4 DUP1 SLOAD PUSH1 0x40 MLOAD PUSH4 0x7AC2FF7B PUSH1 0xE0 SHL DUP2 MSTORE ADDRESS SWAP3 DUP2 ADD SWAP3 SWAP1 SWAP3 MSTORE PUSH1 0x24 DUP3 ADD DUP4 SWAP1 MSTORE PUSH1 0x44 DUP3 ADD DUP5 SWAP1 MSTORE PUSH1 0xFF DUP8 AND PUSH1 0x64 DUP4 ADD MSTORE PUSH1 0x84 DUP3 ADD DUP7 SWAP1 MSTORE PUSH1 0xA4 DUP3 ADD DUP6 SWAP1 MSTORE PUSH1 0x1 PUSH1 0x1 PUSH1 0xA0 SHL SUB AND SWAP1 PUSH4 0x7AC2FF7B SWAP1 PUSH1 0xC4 ADD PUSH1 0x0 PUSH1 0x40 MLOAD DUP1 DUP4 SUB DUP2 PUSH1 0x0 DUP8 DUP1 EXTCODESIZE ISZERO DUP1 ISZERO PUSH2 0x4AC JUMPI PUSH1 0x0 DUP1 REVERT JUMPDEST POP GAS CALL ISZERO DUP1 ISZERO PUSH2 0x4C0 JUMPI RETURNDATASIZE PUSH1 0x0 DUP1 RETURNDATACOPY RETURNDATASIZE PUSH1 0x0 REVERT JUMPDEST POP POP POP DUP2 DUP9 MSTORE POP PUSH1 0x40 DUP1 DUP9 ADD MLOAD PUSH2 0x100 DUP10 ADD MLOAD PUSH2 0x120 DUP11 ADD MLOAD PUSH2 0x140 DUP12 ADD MLOAD SWAP4 MLOAD PUSH1 0x0 SWAP5 PUSH2 0x516 SWAP5 PUSH2 0x4FC SWAP5 SWAP1 SWAP4 DUP9 SWAP4 SWAP2 SWAP3 SWAP1 SWAP2 PUSH1 0x20 ADD PUSH2 0x33B4 JUMP JUMPDEST PUSH1 0x40 MLOAD PUSH1 0x20 DUP2 DUP4 SUB SUB DUP2 MSTORE SWAP1 PUSH1 0x40 MSTORE DUP1 MLOAD PUSH1 0x20 SWAP1 SWAP2 ADD KECCAK256 SWAP1 JUMP JUMPDEST PUSH1 0x40 MLOAD PUSH1 0x20 ADD PUSH2 0x528 SWAP2 DUP2 MSTORE PUSH1 0x20 ADD SWAP1 JUMP JUMPDEST PUSH1 0x40 DUP1 MLOAD DUP1 DUP4 SUB PUSH1 0x1F NOT ADD DUP2 MSTORE SWAP2 DUP2 MSTORE DUP2 MLOAD PUSH1 0x20 SWAP3 DUP4 ADD KECCAK256 PUSH1 0x0 DUP2 DUP2 MSTORE PUSH1 0x9 DUP5 MSTORE DUP3 SWAP1 KECCAK256 DUP12 MLOAD DUP2 SSTORE SWAP3 DUP12 ADD MLOAD PUSH1 0x1 DUP5 ADD DUP1 SLOAD PUSH1 0xFF NOT AND SWAP2 ISZERO ISZERO SWAP2 SWAP1 SWAP2 OR SWAP1 SSTORE SWAP1 DUP11 ADD MLOAD PUSH1 0x2 DUP4 ADD SSTORE PUSH1 0x60 DUP11 ADD MLOAD SWAP1 SWAP3 POP DUP10 SWAP2 SWAP1 PUSH1 0x3 DUP3 ADD SWAP1 PUSH2 0x58A SWAP1 DUP3 PUSH2 0x3498 JUMP JUMPDEST POP PUSH1 0x80 DUP3 ADD MLOAD PUSH1 0x4 DUP3 ADD SWAP1 PUSH2 0x59F SWAP1 DUP3 PUSH2 0x3498 JUMP JUMPDEST POP PUSH1 0xA0 DUP3 ADD MLOAD PUSH1 0x5 DUP3 ADD DUP1 SLOAD PUSH1 0x1 PUSH1 0x1 PUSH1 0xA0 SHL SUB NOT AND PUSH1 0x1 PUSH1 0x1 PUSH1 0xA0 SHL SUB SWAP1 SWAP3 AND SWAP2 SWAP1 SWAP2 OR SWAP1 SSTORE PUSH1 0xC0 DUP3 ADD MLOAD PUSH1 0x6 DUP3 ADD SWAP1 PUSH2 0x5DA SWAP1 DUP3 PUSH2 0x3498 JUMP JUMPDEST POP PUSH1 0xE0 DUP3 ADD MLOAD PUSH1 0x7 DUP3 ADD SWAP1 PUSH2 0x5EF SWAP1 DUP3 PUSH2 0x3498 JUMP JUMPDEST POP PUSH2 0x100 DUP3 ADD MLOAD PUSH1 0x8 DUP3 ADD SWAP1 PUSH2 0x605 SWAP1 DUP3 PUSH2 0x3498 JUMP JUMPDEST POP PUSH2 0x120 DUP3 ADD MLOAD PUSH1 0x9 DUP3 ADD DUP1 SLOAD PUSH1 0xFF NOT AND PUSH1 0x1 DUP4 PUSH1 0x4 DUP2 GT ISZERO PUSH2 0x62A JUMPI PUSH2 0x62A PUSH2 0x2F50 JUMP JUMPDEST MUL OR SWAP1 SSTORE POP PUSH2 0x140 DUP3 ADD MLOAD PUSH1 0xA DUP3 ADD SWAP1 PUSH2 0x644 SWAP1 DUP3 PUSH2 0x3498 JUMP JUMPDEST POP PUSH2 0x160 DUP3 ADD MLOAD PUSH1 0xB DUP3 ADD SWAP1 PUSH2 0x65A SWAP1 DUP3 PUSH2 0x3498 JUMP JUMPDEST POP PUSH2 0x180 DUP3 ADD MLOAD PUSH1 0xC DUP3 ADD SWAP1 PUSH2 0x670 SWAP1 DUP3 PUSH2 0x3498 JUMP JUMPDEST POP PUSH2 0x1A0 DUP3 ADD MLOAD PUSH1 0xD DUP3 ADD SWAP1 PUSH2 0x686 SWAP1 DUP3 PUSH2 0x3498 JUMP JUMPDEST POP PUSH2 0x1C0 DUP3 ADD MLOAD PUSH1 0xE DUP3 ADD DUP1 SLOAD PUSH2 0x1E0 DUP6 ADD MLOAD PUSH2 0x200 DUP7 ADD MLOAD ISZERO ISZERO PUSH3 0x10000 MUL PUSH3 0xFF0000 NOT SWAP2 ISZERO ISZERO PUSH2 0x100 MUL PUSH2 0xFF00 NOT SWAP6 ISZERO ISZERO SWAP6 SWAP1 SWAP6 AND PUSH2 0xFFFF NOT SWAP1 SWAP4 AND SWAP3 SWAP1 SWAP3 OR SWAP4 SWAP1 SWAP4 OR SWAP3 SWAP1 SWAP3 AND SWAP2 SWAP1 SWAP2 OR SWAP1 SSTORE PUSH2 0x220 DUP3 ADD MLOAD PUSH1 0xF DUP3 ADD SSTORE PUSH2 0x240 DUP3 ADD MLOAD PUSH1 0x10 DUP3 ADD DUP1 SLOAD PUSH1 0xFF NOT AND PUSH1 0x1 DUP4 PUSH1 0x2 DUP2 GT ISZERO PUSH2 0x705 JUMPI PUSH2 0x705 PUSH2 0x2F50 JUMP JUMPDEST MUL OR SWAP1 SSTORE POP PUSH2 0x260 SWAP2 SWAP1 SWAP2 ADD MLOAD PUSH1 0x10 SWAP1 SWAP2 ADD DUP1 SLOAD SWAP2 ISZERO ISZERO PUSH2 0x100 MUL PUSH2 0xFF00 NOT SWAP1 SWAP3 AND SWAP2 SWAP1 SWAP2 OR SWAP1 SSTORE PUSH1 0xA DUP1 SLOAD PUSH1 0x1 DUP2 ADD DUP3 SSTORE PUSH1 0x0 SWAP2 SWAP1 SWAP2 MSTORE PUSH32 0xC65A7BB8D6351C1CF70C95A316CC6A92839C986682D98BC35F958F4883F9D2A8 ADD DUP2 SWAP1 SSTORE PUSH1 0x40 DUP1 MLOAD DUP3 DUP2 MSTORE PUSH1 0x20 DUP2 ADD DUP5 SWAP1 MSTORE PUSH32 0x400A15904B2574E109CD26861B874B1208C6D17BC8BEAFDB885D8ECC14F00B8 SWAP2 ADD PUSH1 0x40 MLOAD DUP1 SWAP2 SUB SWAP1 LOG1 POP POP POP POP POP POP POP POP JUMP JUMPDEST PUSH1 0x4 DUP1 SLOAD PUSH1 0xA0 DUP5 ADD MLOAD PUSH1 0x40 MLOAD PUSH4 0xA2119377 PUSH1 0xE0 SHL DUP2 MSTORE PUSH1 0x0 SWAP4 PUSH1 0x1 PUSH1 0x1 PUSH1 0xA0 SHL SUB SWAP1 SWAP4 AND SWAP3 PUSH4 0xA2119377 SWAP3 PUSH2 0x7DC SWAP3 DUP8 SWAP3 ADD PUSH2 0x3371 JUMP JUMPDEST PUSH1 0x20 PUSH1 0x40 MLOAD DUP1 DUP4 SUB DUP2 PUSH1 0x0 DUP8 GAS CALL ISZERO DUP1 ISZERO PUSH2 0x7FB JUMPI RETURNDATASIZE PUSH1 0x0 DUP1 RETURNDATACOPY RETURNDATASIZE PUSH1 0x0 REVERT JUMPDEST POP POP POP POP PUSH1 0x40 MLOAD RETURNDATASIZE PUSH1 0x1F NOT PUSH1 0x1F DUP3 ADD AND DUP3 ADD DUP1 PUSH1 0x40 MSTORE POP DUP2 ADD SWAP1 PUSH2 0x81F SWAP2 SWAP1 PUSH2 0x339B JUMP JUMPDEST DUP1 DUP5 MSTORE PUSH1 0x40 DUP1 DUP6 ADD MLOAD PUSH2 0x100 DUP7 ADD MLOAD PUSH2 0x120 DUP8 ADD MLOAD PUSH2 0x140 DUP9 ADD MLOAD SWAP4 MLOAD SWAP5 SWAP6 POP PUSH1 0x0 SWAP5 PUSH2 0x85A SWAP5 PUSH2 0x4FC SWAP5 SWAP4 DUP9 SWAP4 SWAP1 SWAP3 SWAP1 SWAP2 SWAP1 PUSH1 0x20 ADD PUSH2 0x33B4 JUMP JUMPDEST PUSH1 0x40 MLOAD PUSH1 0x20 ADD PUSH2 0x86C SWAP2 DUP2 MSTORE PUSH1 0x20 ADD SWAP1 JUMP JUMPDEST PUSH1 0x40 DUP1 MLOAD DUP1 DUP4 SUB PUSH1 0x1F NOT ADD DUP2 MSTORE SWAP2 DUP2 MSTORE DUP2 MLOAD PUSH1 0x20 SWAP3 DUP4 ADD KECCAK256 PUSH1 0x0 DUP2 DUP2 MSTORE PUSH1 0x9 DUP5 MSTORE DUP3 SWAP1 KECCAK256 DUP8 MLOAD DUP2 SSTORE SWAP3 DUP8 ADD MLOAD PUSH1 0x1 DUP5 ADD DUP1 SLOAD PUSH1 0xFF NOT AND SWAP2 ISZERO ISZERO SWAP2 SWAP1 SWAP2 OR SWAP1 SSTORE SWAP1 DUP7 ADD MLOAD PUSH1 0x2 DUP4 ADD SSTORE PUSH1 0x60 DUP7 ADD MLOAD SWAP1 SWAP3 POP DUP6 SWAP2 SWAP1 PUSH1 0x3 DUP3 ADD SWAP1 PUSH2 0x8CE SWAP1 DUP3 PUSH2 0x3498 JUMP JUMPDEST POP PUSH1 0x80 DUP3 ADD MLOAD PUSH1 0x4 DUP3 ADD SWAP1 PUSH2 0x8E3 SWAP1 DUP3 PUSH2 0x3498 JUMP JUMPDEST POP PUSH1 0xA0 DUP3 ADD MLOAD PUSH1 0x5 DUP3 ADD DUP1 SLOAD PUSH1 0x1 PUSH1 0x1 PUSH1 0xA0 SHL SUB NOT AND PUSH1 0x1 PUSH1 0x1 PUSH1 0xA0 SHL SUB SWAP1 SWAP3 AND SWAP2 SWAP1 SWAP2 OR SWAP1 SSTORE PUSH1 0xC0 DUP3 ADD MLOAD PUSH1 0x6 DUP3 ADD SWAP1 PUSH2 0x91E SWAP1 DUP3 PUSH2 0x3498 JUMP JUMPDEST POP PUSH1 0xE0 DUP3 ADD MLOAD PUSH1 0x7 DUP3 ADD SWAP1 PUSH2 0x933 SWAP1 DUP3 PUSH2 0x3498 JUMP JUMPDEST POP PUSH2 0x100 DUP3 ADD MLOAD PUSH1 0x8 DUP3 ADD SWAP1 PUSH2 0x949 SWAP1 DUP3 PUSH2 0x3498 JUMP JUMPDEST POP PUSH2 0x120 DUP3 ADD MLOAD PUSH1 0x9 DUP3 ADD DUP1 SLOAD PUSH1 0xFF NOT AND PUSH1 0x1 DUP4 PUSH1 0x4 DUP2 GT ISZERO PUSH2 0x96E JUMPI PUSH2 0x96E PUSH2 0x2F50 JUMP JUMPDEST MUL OR SWAP1 SSTORE POP PUSH2 0x140 DUP3 ADD MLOAD PUSH1 0xA DUP3 ADD SWAP1 PUSH2 0x988 SWAP1 DUP3 PUSH2 0x3498 JUMP JUMPDEST POP PUSH2 0x160 DUP3 ADD MLOAD PUSH1 0xB DUP3 ADD SWAP1 PUSH2 0x99E SWAP1 DUP3 PUSH2 0x3498 JUMP JUMPDEST POP PUSH2 0x180 DUP3 ADD MLOAD PUSH1 0xC DUP3 ADD SWAP1 PUSH2 0x9B4 SWAP1 DUP3 PUSH2 0x3498 JUMP JUMPDEST POP PUSH2 0x1A0 DUP3 ADD MLOAD PUSH1 0xD DUP3 ADD SWAP1 PUSH2 0x9CA SWAP1 DUP3 PUSH2 0x3498 JUMP JUMPDEST POP PUSH2 0x1C0 DUP3 ADD MLOAD PUSH1 0xE DUP3 ADD DUP1 SLOAD PUSH2 0x1E0 DUP6 ADD MLOAD PUSH2 0x200 DUP7 ADD MLOAD ISZERO ISZERO PUSH3 0x10000 MUL PUSH3 0xFF0000 NOT SWAP2 ISZERO ISZERO PUSH2 0x100 MUL PUSH2 0xFF00 NOT SWAP6 ISZERO ISZERO SWAP6 SWAP1 SWAP6 AND PUSH2 0xFFFF NOT SWAP1 SWAP4 AND SWAP3 SWAP1 SWAP3 OR SWAP4 SWAP1 SWAP4 OR SWAP3 SWAP1 SWAP3 AND SWAP2 SWAP1 SWAP2 OR SWAP1 SSTORE PUSH2 0x220 DUP3 ADD MLOAD PUSH1 0xF DUP3 ADD SSTORE PUSH2 0x240 DUP3 ADD MLOAD PUSH1 0x10 DUP3 ADD DUP1 SLOAD PUSH1 0xFF NOT AND PUSH1 0x1 DUP4 PUSH1 0x2 DUP2 GT ISZERO PUSH2 0xA49 JUMPI PUSH2 0xA49 PUSH2 0x2F50 JUMP JUMPDEST MUL OR SWAP1 SSTORE POP PUSH2 0x260 SWAP2 SWAP1 SWAP2 ADD MLOAD PUSH1 0x10 SWAP1 SWAP2 ADD DUP1 SLOAD SWAP2 ISZERO ISZERO PUSH2 0x100 MUL PUSH2 0xFF00 NOT SWAP1 SWAP3 AND SWAP2 SWAP1 SWAP2 OR SWAP1 SSTORE PUSH1 0xA DUP1 SLOAD PUSH1 0x1 DUP2 ADD DUP3 SSTORE PUSH1 0x0 SWAP2 SWAP1 SWAP2 MSTORE PUSH32 0xC65A7BB8D6351C1CF70C95A316CC6A92839C986682D98BC35F958F4883F9D2A8 ADD DUP2 SWAP1 SSTORE PUSH1 0x40 DUP1 MLOAD DUP3 DUP2 MSTORE PUSH1 0x20 DUP2 ADD DUP5 SWAP1 MSTORE PUSH32 0x7CDDF1FB24A9CE9A5994BAB46A1EA1306BBABA94E6B9F319CC235ED8BFEB8D6C SWAP2 ADD PUSH1 0x40 MLOAD DUP1 SWAP2 SUB SWAP1 LOG1 POP POP POP POP JUMP JUMPDEST PUSH2 0xAED PUSH2 0x283F JUMP JUMPDEST DUP8 DUP2 MSTORE PUSH1 0x1 PUSH1 0x1 PUSH1 0xA0 SHL SUB DUP1 DUP12 AND PUSH1 0x20 DUP1 DUP5 ADD SWAP2 DUP3 MSTORE DUP6 DUP4 AND PUSH1 0x40 DUP1 DUP7 ADD DUP3 DUP2 MSTORE PUSH1 0x60 DUP8 ADD DUP9 DUP2 MSTORE PUSH1 0x0 SWAP4 DUP5 MSTORE PUSH1 0x8 DUP6 MSTORE DUP3 DUP5 KECCAK256 DUP10 DUP6 MSTORE SWAP1 SWAP5 MSTORE SWAP2 DUP2 SWAP1 KECCAK256 DUP7 MLOAD DUP2 SSTORE SWAP4 MLOAD PUSH1 0x1 DUP6 ADD DUP1 SLOAD SWAP2 DUP8 AND PUSH1 0x1 PUSH1 0x1 PUSH1 0xA0 SHL SUB NOT SWAP3 DUP4 AND OR SWAP1 SSTORE SWAP2 MLOAD PUSH1 0x2 DUP6 ADD DUP1 SLOAD SWAP2 DUP8 AND SWAP2 SWAP1 SWAP4 AND OR SWAP1 SWAP2 SSTORE SWAP1 MLOAD PUSH1 0x3 SWAP1 SWAP3 ADD SWAP2 SWAP1 SWAP2 SSTORE PUSH1 0x5 SLOAD SWAP1 MLOAD PUSH4 0xD505ACCF PUSH1 0xE0 SHL DUP2 MSTORE SWAP2 AND SWAP1 PUSH4 0xD505ACCF SWAP1 PUSH2 0xB99 SWAP1 DUP14 SWAP1 DUP14 SWAP1 DUP14 SWAP1 DUP14 SWAP1 DUP14 SWAP1 DUP14 SWAP1 DUP14 SWAP1 PUSH1 0x4 ADD PUSH2 0x3558 JUMP JUMPDEST PUSH1 0x0 PUSH1 0x40 MLOAD DUP1 DUP4 SUB DUP2 PUSH1 0x0 DUP8 DUP1 EXTCODESIZE ISZERO DUP1 ISZERO PUSH2 0xBB3 JUMPI PUSH1 0x0 DUP1 REVERT JUMPDEST POP GAS CALL ISZERO DUP1 ISZERO PUSH2 0xBC7 JUMPI RETURNDATASIZE PUSH1 0x0 DUP1 RETURNDATACOPY RETURNDATASIZE PUSH1 0x0 REVERT JUMPDEST POP POP PUSH1 0x5 SLOAD PUSH1 0x40 MLOAD PUSH4 0x39509351 PUSH1 0xE0 SHL DUP2 MSTORE PUSH1 0x1 PUSH1 0x1 PUSH1 0xA0 SHL SUB DUP14 DUP2 AND PUSH1 0x4 DUP4 ADD MSTORE PUSH1 0x24 DUP3 ADD DUP14 SWAP1 MSTORE SWAP1 SWAP2 AND SWAP3 POP PUSH4 0x39509351 SWAP2 POP PUSH1 0x44 ADD PUSH1 0x20 PUSH1 0x40 MLOAD DUP1 DUP4 SUB DUP2 PUSH1 0x0 DUP8 GAS CALL ISZERO DUP1 ISZERO PUSH2 0xC1E JUMPI RETURNDATASIZE PUSH1 0x0 DUP1 RETURNDATACOPY RETURNDATASIZE PUSH1 0x0 REVERT JUMPDEST POP POP POP POP PUSH1 0x40 MLOAD RETURNDATASIZE PUSH1 0x1F NOT PUSH1 0x1F DUP3 ADD AND DUP3 ADD DUP1 PUSH1 0x40 MSTORE POP DUP2 ADD SWAP1 PUSH2 0xC42 SWAP2 SWAP1 PUSH2 0x3599 JUMP JUMPDEST POP PUSH1 0x5 SLOAD PUSH1 0x40 MLOAD PUSH4 0x23B872DD PUSH1 0xE0 SHL DUP2 MSTORE PUSH1 0x1 PUSH1 0x1 PUSH1 0xA0 SHL SUB SWAP1 SWAP2 AND SWAP1 PUSH4 0x23B872DD SWAP1 PUSH2 0xC77 SWAP1 DUP14 SWAP1 ADDRESS SWAP1 DUP14 SWAP1 PUSH1 0x4 ADD PUSH2 0x35B6 JUMP JUMPDEST PUSH1 0x20 PUSH1 0x40 MLOAD DUP1 DUP4 SUB DUP2 PUSH1 0x0 DUP8 GAS CALL ISZERO DUP1 ISZERO PUSH2 0xC96 JUMPI RETURNDATASIZE PUSH1 0x0 DUP1 RETURNDATACOPY RETURNDATASIZE PUSH1 0x0 REVERT JUMPDEST POP POP POP POP PUSH1 0x40 MLOAD RETURNDATASIZE PUSH1 0x1F NOT PUSH1 0x1F DUP3 ADD AND DUP3 ADD DUP1 PUSH1 0x40 MSTORE POP DUP2 ADD SWAP1 PUSH2 0xCBA SWAP2 SWAP1 PUSH2 0x3599 JUMP JUMPDEST POP POP POP POP POP POP POP POP POP POP POP JUMP JUMPDEST PUSH1 0x0 DUP1 PUSH2 0xCFD DUP4 PUSH1 0x40 ADD MLOAD DUP5 PUSH1 0x0 ADD MLOAD DUP6 PUSH2 0x100 ADD MLOAD DUP7 PUSH2 0x120 ADD MLOAD DUP8 PUSH2 0x140 ADD MLOAD PUSH1 0x40 MLOAD PUSH1 0x20 ADD PUSH2 0x4FC SWAP6 SWAP5 SWAP4 SWAP3 SWAP2 SWAP1 PUSH2 0x33B4 JUMP JUMPDEST PUSH1 0x40 MLOAD PUSH1 0x20 ADD PUSH2 0xD0F SWAP2 DUP2 MSTORE PUSH1 0x20 ADD SWAP1 JUMP JUMPDEST PUSH1 0x40 DUP1 MLOAD DUP1 DUP4 SUB PUSH1 0x1F NOT ADD DUP2 MSTORE SWAP2 DUP2 MSTORE DUP2 MLOAD PUSH1 0x20 SWAP3 DUP4 ADD KECCAK256 PUSH1 0x0 DUP2 DUP2 MSTORE PUSH1 0x9 DUP5 MSTORE DUP3 SWAP1 KECCAK256 DUP7 MLOAD DUP2 SSTORE SWAP3 DUP7 ADD MLOAD PUSH1 0x1 DUP5 ADD DUP1 SLOAD PUSH1 0xFF NOT AND SWAP2 ISZERO ISZERO SWAP2 SWAP1 SWAP2 OR SWAP1 SSTORE SWAP1 DUP6 ADD MLOAD PUSH1 0x2 DUP4 ADD SSTORE PUSH1 0x60 DUP6 ADD MLOAD SWAP1 SWAP3 POP DUP5 SWAP2 SWAP1 PUSH1 0x3 DUP3 ADD SWAP1 PUSH2 0xD71 SWAP1 DUP3 PUSH2 0x3498 JUMP JUMPDEST POP PUSH1 0x80 DUP3 ADD MLOAD PUSH1 0x4 DUP3 ADD SWAP1 PUSH2 0xD86 SWAP1 DUP3 PUSH2 0x3498 JUMP JUMPDEST POP PUSH1 0xA0 DUP3 ADD MLOAD PUSH1 0x5 DUP3 ADD DUP1 SLOAD PUSH1 0x1 PUSH1 0x1 PUSH1 0xA0 SHL SUB NOT AND PUSH1 0x1 PUSH1 0x1 PUSH1 0xA0 SHL SUB SWAP1 SWAP3 AND SWAP2 SWAP1 SWAP2 OR SWAP1 SSTORE PUSH1 0xC0 DUP3 ADD MLOAD PUSH1 0x6 DUP3 ADD SWAP1 PUSH2 0xDC1 SWAP1 DUP3 PUSH2 0x3498 JUMP JUMPDEST POP PUSH1 0xE0 DUP3 ADD MLOAD PUSH1 0x7 DUP3 ADD SWAP1 PUSH2 0xDD6 SWAP1 DUP3 PUSH2 0x3498 JUMP JUMPDEST POP PUSH2 0x100 DUP3 ADD MLOAD PUSH1 0x8 DUP3 ADD SWAP1 PUSH2 0xDEC SWAP1 DUP3 PUSH2 0x3498 JUMP JUMPDEST POP PUSH2 0x120 DUP3 ADD MLOAD PUSH1 0x9 DUP3 ADD DUP1 SLOAD PUSH1 0xFF NOT AND PUSH1 0x1 DUP4 PUSH1 0x4 DUP2 GT ISZERO PUSH2 0xE11 JUMPI PUSH2 0xE11 PUSH2 0x2F50 JUMP JUMPDEST MUL OR SWAP1 SSTORE POP PUSH2 0x140 DUP3 ADD MLOAD PUSH1 0xA DUP3 ADD SWAP1 PUSH2 0xE2B SWAP1 DUP3 PUSH2 0x3498 JUMP JUMPDEST POP PUSH2 0x160 DUP3 ADD MLOAD PUSH1 0xB DUP3 ADD SWAP1 PUSH2 0xE41 SWAP1 DUP3 PUSH2 0x3498 JUMP JUMPDEST POP PUSH2 0x180 DUP3 ADD MLOAD PUSH1 0xC DUP3 ADD SWAP1 PUSH2 0xE57 SWAP1 DUP3 PUSH2 0x3498 JUMP JUMPDEST POP PUSH2 0x1A0 DUP3 ADD MLOAD PUSH1 0xD DUP3 ADD SWAP1 PUSH2 0xE6D SWAP1 DUP3 PUSH2 0x3498 JUMP JUMPDEST POP PUSH2 0x1C0 DUP3 ADD MLOAD PUSH1 0xE DUP3 ADD DUP1 SLOAD PUSH2 0x1E0 DUP6 ADD MLOAD PUSH2 0x200 DUP7 ADD MLOAD ISZERO ISZERO PUSH3 0x10000 MUL PUSH3 0xFF0000 NOT SWAP2 ISZERO ISZERO PUSH2 0x100 MUL PUSH2 0xFF00 NOT SWAP6 ISZERO ISZERO SWAP6 SWAP1 SWAP6 AND PUSH2 0xFFFF NOT SWAP1 SWAP4 AND SWAP3 SWAP1 SWAP3 OR SWAP4 SWAP1 SWAP4 OR SWAP3 SWAP1 SWAP3 AND SWAP2 SWAP1 SWAP2 OR SWAP1 SSTORE PUSH2 0x220 DUP3 ADD MLOAD PUSH1 0xF DUP3 ADD SSTORE PUSH2 0x240 DUP3 ADD MLOAD PUSH1 0x10 DUP3 ADD DUP1 SLOAD PUSH1 0xFF NOT AND PUSH1 0x1 DUP4 PUSH1 0x2 DUP2 GT ISZERO PUSH2 0xEEC JUMPI PUSH2 0xEEC PUSH2 0x2F50 JUMP JUMPDEST MUL OR SWAP1 SSTORE POP PUSH2 0x260 SWAP2 SWAP1 SWAP2 ADD MLOAD PUSH1 0x10 SWAP1 SWAP2 ADD DUP1 SLOAD SWAP2 ISZERO ISZERO PUSH2 0x100 MUL PUSH2 0xFF00 NOT SWAP1 SWAP3 AND SWAP2 SWAP1 SWAP2 OR SWAP1 SSTORE PUSH1 0xA DUP1 SLOAD PUSH1 0x1 DUP2 ADD DUP3 SSTORE PUSH1 0x0 SWAP2 SWAP1 SWAP2 MSTORE PUSH32 0xC65A7BB8D6351C1CF70C95A316CC6A92839C986682D98BC35F958F4883F9D2A8 ADD DUP2 SWAP1 SSTORE PUSH1 0x40 MLOAD DUP2 DUP2 MSTORE PUSH32 0x8BE2D25238708C5E063396E6D61F4B7B207886987437015D6484870F109924A8 SWAP1 PUSH1 0x20 ADD PUSH1 0x40 MLOAD DUP1 SWAP2 SUB SWAP1 LOG1 SWAP3 SWAP2 POP POP JUMP JUMPDEST PUSH2 0xF8A PUSH2 0x26D2 JUMP JUMPDEST PUSH2 0xF94 PUSH1 0x0 PUSH2 0x272C JUMP JUMPDEST JUMP JUMPDEST PUSH1 0x4 DUP1 SLOAD PUSH1 0x1 PUSH1 0x1 PUSH1 0xA0 SHL SUB DUP5 DUP2 AND PUSH1 0x1 PUSH1 0x1 PUSH1 0xA0 SHL SUB NOT SWAP3 DUP4 AND DUP2 OR SWAP1 SWAP4 SSTORE PUSH1 0x5 DUP1 SLOAD SWAP2 DUP6 AND SWAP2 DUP4 AND DUP3 OR SWAP1 SSTORE PUSH1 0xB DUP1 SLOAD SWAP1 SWAP3 AND DUP2 OR SWAP1 SWAP2 SSTORE PUSH1 0x40 DUP1 MLOAD SWAP3 DUP4 MSTORE PUSH1 0x20 DUP4 ADD SWAP2 SWAP1 SWAP2 MSTORE PUSH1 0x0 SWAP2 PUSH32 0xE35FA6870EEEDBA0DF9480A717F514D523B132DC90A8075DF0B4F4B91BF27B4A SWAP2 ADD PUSH1 0x40 MLOAD DUP1 SWAP2 SUB SWAP1 LOG1 POP PUSH1 0x1 SWAP3 SWAP2 POP POP JUMP JUMPDEST PUSH1 0x0 DUP2 DUP2 MSTORE PUSH1 0x9 PUSH1 0x20 MSTORE PUSH1 0x40 DUP2 KECCAK256 PUSH1 0x10 ADD SLOAD PUSH1 0x60 SWAP2 SWAP1 PUSH2 0x1038 SWAP1 PUSH1 0xFF AND PUSH2 0x277E JUMP JUMPDEST SWAP4 SWAP3 POP POP POP JUMP JUMPDEST PUSH2 0x1047 PUSH2 0x2879 JUMP JUMPDEST PUSH1 0x0 DUP3 DUP2 MSTORE PUSH1 0x9 PUSH1 0x20 SWAP1 DUP2 MSTORE PUSH1 0x40 SWAP2 DUP3 SWAP1 KECCAK256 DUP3 MLOAD PUSH2 0x280 DUP2 ADD DUP5 MSTORE DUP2 SLOAD DUP2 MSTORE PUSH1 0x1 DUP3 ADD SLOAD PUSH1 0xFF AND ISZERO ISZERO SWAP3 DUP2 ADD SWAP3 SWAP1 SWAP3 MSTORE PUSH1 0x2 DUP2 ADD SLOAD SWAP3 DUP3 ADD SWAP3 SWAP1 SWAP3 MSTORE PUSH1 0x3 DUP3 ADD DUP1 SLOAD SWAP2 SWAP3 SWAP2 PUSH1 0x60 DUP5 ADD SWAP2 SWAP1 PUSH2 0x109B SWAP1 PUSH2 0x340F JUMP JUMPDEST DUP1 PUSH1 0x1F ADD PUSH1 0x20 DUP1 SWAP2 DIV MUL PUSH1 0x20 ADD PUSH1 0x40 MLOAD SWAP1 DUP2 ADD PUSH1 0x40 MSTORE DUP1 SWAP3 SWAP2 SWAP1 DUP2 DUP2 MSTORE PUSH1 0x20 ADD DUP3 DUP1 SLOAD PUSH2 0x10C7 SWAP1 PUSH2 0x340F JUMP JUMPDEST DUP1 ISZERO PUSH2 0x1114 JUMPI DUP1 PUSH1 0x1F LT PUSH2 0x10E9 JUMPI PUSH2 0x100 DUP1 DUP4 SLOAD DIV MUL DUP4 MSTORE SWAP2 PUSH1 0x20 ADD SWAP2 PUSH2 0x1114 JUMP JUMPDEST DUP3 ADD SWAP2 SWAP1 PUSH1 0x0 MSTORE PUSH1 0x20 PUSH1 0x0 KECCAK256 SWAP1 JUMPDEST DUP2 SLOAD DUP2 MSTORE SWAP1 PUSH1 0x1 ADD SWAP1 PUSH1 0x20 ADD DUP1 DUP4 GT PUSH2 0x10F7 JUMPI DUP3 SWAP1 SUB PUSH1 0x1F AND DUP3 ADD SWAP2 JUMPDEST POP POP POP POP POP DUP2 MSTORE PUSH1 0x20 ADD PUSH1 0x4 DUP3 ADD DUP1 SLOAD PUSH2 0x112D SWAP1 PUSH2 0x340F JUMP JUMPDEST DUP1 PUSH1 0x1F ADD PUSH1 0x20 DUP1 SWAP2 DIV MUL PUSH1 0x20 ADD PUSH1 0x40 MLOAD SWAP1 DUP2 ADD PUSH1 0x40 MSTORE DUP1 SWAP3 SWAP2 SWAP1 DUP2 DUP2 MSTORE PUSH1 0x20 ADD DUP3 DUP1 SLOAD PUSH2 0x1159 SWAP1 PUSH2 0x340F JUMP JUMPDEST DUP1 ISZERO PUSH2 0x11A6 JUMPI DUP1 PUSH1 0x1F LT PUSH2 0x117B JUMPI PUSH2 0x100 DUP1 DUP4 SLOAD DIV MUL DUP4 MSTORE SWAP2 PUSH1 0x20 ADD SWAP2 PUSH2 0x11A6 JUMP JUMPDEST DUP3 ADD SWAP2 SWAP1 PUSH1 0x0 MSTORE PUSH1 0x20 PUSH1 0x0 KECCAK256 SWAP1 JUMPDEST DUP2 SLOAD DUP2 MSTORE SWAP1 PUSH1 0x1 ADD SWAP1 PUSH1 0x20 ADD DUP1 DUP4 GT PUSH2 0x1189 JUMPI DUP3 SWAP1 SUB PUSH1 0x1F AND DUP3 ADD SWAP2 JUMPDEST POP POP POP SWAP2 DUP4 MSTORE POP POP PUSH1 0x5 DUP3 ADD SLOAD PUSH1 0x1 PUSH1 0x1 PUSH1 0xA0 SHL SUB AND PUSH1 0x20 DUP3 ADD MSTORE PUSH1 0x6 DUP3 ADD DUP1 SLOAD PUSH1 0x40 SWAP1 SWAP3 ADD SWAP2 PUSH2 0x11D6 SWAP1 PUSH2 0x340F JUMP JUMPDEST DUP1 PUSH1 0x1F ADD PUSH1 0x20 DUP1 SWAP2 DIV MUL PUSH1 0x20 ADD PUSH1 0x40 MLOAD SWAP1 DUP2 ADD PUSH1 0x40 MSTORE DUP1 SWAP3 SWAP2 SWAP1 DUP2 DUP2 MSTORE PUSH1 0x20 ADD DUP3 DUP1 SLOAD PUSH2 0x1202 SWAP1 PUSH2 0x340F JUMP JUMPDEST DUP1 ISZERO PUSH2 0x124F JUMPI DUP1 PUSH1 0x1F LT PUSH2 0x1224 JUMPI PUSH2 0x100 DUP1 DUP4 SLOAD DIV MUL DUP4 MSTORE SWAP2 PUSH1 0x20 ADD SWAP2 PUSH2 0x124F JUMP JUMPDEST DUP3 ADD SWAP2 SWAP1 PUSH1 0x0 MSTORE PUSH1 0x20 PUSH1 0x0 KECCAK256 SWAP1 JUMPDEST DUP2 SLOAD DUP2 MSTORE SWAP1 PUSH1 0x1 ADD SWAP1 PUSH1 0x20 ADD DUP1 DUP4 GT PUSH2 0x1232 JUMPI DUP3 SWAP1 SUB PUSH1 0x1F AND DUP3 ADD SWAP2 JUMPDEST POP POP POP POP POP DUP2 MSTORE PUSH1 0x20 ADD PUSH1 0x7 DUP3 ADD DUP1 SLOAD PUSH2 0x1268 SWAP1 PUSH2 0x340F JUMP JUMPDEST DUP1 PUSH1 0x1F ADD PUSH1 0x20 DUP1 SWAP2 DIV MUL PUSH1 0x20 ADD PUSH1 0x40 MLOAD SWAP1 DUP2 ADD PUSH1 0x40 MSTORE DUP1 SWAP3 SWAP2 SWAP1 DUP2 DUP2 MSTORE PUSH1 0x20 ADD DUP3 DUP1 SLOAD PUSH2 0x1294 SWAP1 PUSH2 0x340F JUMP JUMPDEST DUP1 ISZERO PUSH2 0x12E1 JUMPI DUP1 PUSH1 0x1F LT PUSH2 0x12B6 JUMPI PUSH2 0x100 DUP1 DUP4 SLOAD DIV MUL DUP4 MSTORE SWAP2 PUSH1 0x20 ADD SWAP2 PUSH2 0x12E1 JUMP JUMPDEST DUP3 ADD SWAP2 SWAP1 PUSH1 0x0 MSTORE PUSH1 0x20 PUSH1 0x0 KECCAK256 SWAP1 JUMPDEST DUP2 SLOAD DUP2 MSTORE SWAP1 PUSH1 0x1 ADD SWAP1 PUSH1 0x20 ADD DUP1 DUP4 GT PUSH2 0x12C4 JUMPI DUP3 SWAP1 SUB PUSH1 0x1F AND DUP3 ADD SWAP2 JUMPDEST POP POP POP POP POP DUP2 MSTORE PUSH1 0x20 ADD PUSH1 0x8 DUP3 ADD DUP1 SLOAD PUSH2 0x12FA SWAP1 PUSH2 0x340F JUMP JUMPDEST DUP1 PUSH1 0x1F ADD PUSH1 0x20 DUP1 SWAP2 DIV MUL PUSH1 0x20 ADD PUSH1 0x40 MLOAD SWAP1 DUP2 ADD PUSH1 0x40 MSTORE DUP1 SWAP3 SWAP2 SWAP1 DUP2 DUP2 MSTORE PUSH1 0x20 ADD DUP3 DUP1 SLOAD PUSH2 0x1326 SWAP1 PUSH2 0x340F JUMP JUMPDEST DUP1 ISZERO PUSH2 0x1373 JUMPI DUP1 PUSH1 0x1F LT PUSH2 0x1348 JUMPI PUSH2 0x100 DUP1 DUP4 SLOAD DIV MUL DUP4 MSTORE SWAP2 PUSH1 0x20 ADD SWAP2 PUSH2 0x1373 JUMP JUMPDEST DUP3 ADD SWAP2 SWAP1 PUSH1 0x0 MSTORE PUSH1 0x20 PUSH1 0x0 KECCAK256 SWAP1 JUMPDEST DUP2 SLOAD DUP2 MSTORE SWAP1 PUSH1 0x1 ADD SWAP1 PUSH1 0x20 ADD DUP1 DUP4 GT PUSH2 0x1356 JUMPI DUP3 SWAP1 SUB PUSH1 0x1F AND DUP3 ADD SWAP2 JUMPDEST POP POP POP SWAP2 DUP4 MSTORE POP POP PUSH1 0x9 DUP3 ADD SLOAD PUSH1 0x20 SWAP1 SWAP2 ADD SWAP1 PUSH1 0xFF AND PUSH1 0x4 DUP2 GT ISZERO PUSH2 0x139A JUMPI PUSH2 0x139A PUSH2 0x2F50 JUMP JUMPDEST PUSH1 0x4 DUP2 GT ISZERO PUSH2 0x13AB JUMPI PUSH2 0x13AB PUSH2 0x2F50 JUMP JUMPDEST DUP2 MSTORE PUSH1 0x20 ADD PUSH1 0xA DUP3 ADD DUP1 SLOAD PUSH2 0x13BF SWAP1 PUSH2 0x340F JUMP JUMPDEST DUP1 PUSH1 0x1F ADD PUSH1 0x20 DUP1 SWAP2 DIV MUL PUSH1 0x20 ADD PUSH1 0x40 MLOAD SWAP1 DUP2 ADD PUSH1 0x40 MSTORE DUP1 SWAP3 SWAP2 SWAP1 DUP2 DUP2 MSTORE PUSH1 0x20 ADD DUP3 DUP1 SLOAD PUSH2 0x13EB SWAP1 PUSH2 0x340F JUMP JUMPDEST DUP1 ISZERO PUSH2 0x1438 JUMPI DUP1 PUSH1 0x1F LT PUSH2 0x140D JUMPI PUSH2 0x100 DUP1 DUP4 SLOAD DIV MUL DUP4 MSTORE SWAP2 PUSH1 0x20 ADD SWAP2 PUSH2 0x1438 JUMP JUMPDEST DUP3 ADD SWAP2 SWAP1 PUSH1 0x0 MSTORE PUSH1 0x20 PUSH1 0x0 KECCAK256 SWAP1 JUMPDEST DUP2 SLOAD DUP2 MSTORE SWAP1 PUSH1 0x1 ADD SWAP1 PUSH1 0x20 ADD DUP1 DUP4 GT PUSH2 0x141B JUMPI DUP3 SWAP1 SUB PUSH1 0x1F AND DUP3 ADD SWAP2 JUMPDEST POP POP POP POP POP DUP2 MSTORE PUSH1 0x20 ADD PUSH1 0xB DUP3 ADD DUP1 SLOAD PUSH2 0x1451 SWAP1 PUSH2 0x340F JUMP JUMPDEST DUP1 PUSH1 0x1F ADD PUSH1 0x20 DUP1 SWAP2 DIV MUL PUSH1 0x20 ADD PUSH1 0x40 MLOAD SWAP1 DUP2 ADD PUSH1 0x40 MSTORE DUP1 SWAP3 SWAP2 SWAP1 DUP2 DUP2 MSTORE PUSH1 0x20 ADD DUP3 DUP1 SLOAD PUSH2 0x147D SWAP1 PUSH2 0x340F JUMP JUMPDEST DUP1 ISZERO PUSH2 0x14CA JUMPI DUP1 PUSH1 0x1F LT PUSH2 0x149F JUMPI PUSH2 0x100 DUP1 DUP4 SLOAD DIV MUL DUP4 MSTORE SWAP2 PUSH1 0x20 ADD SWAP2 PUSH2 0x14CA JUMP JUMPDEST DUP3 ADD SWAP2 SWAP1 PUSH1 0x0 MSTORE PUSH1 0x20 PUSH1 0x0 KECCAK256 SWAP1 JUMPDEST DUP2 SLOAD DUP2 MSTORE SWAP1 PUSH1 0x1 ADD SWAP1 PUSH1 0x20 ADD DUP1 DUP4 GT PUSH2 0x14AD JUMPI DUP3 SWAP1 SUB PUSH1 0x1F AND DUP3 ADD SWAP2 JUMPDEST POP POP POP POP POP DUP2 MSTORE PUSH1 0x20 ADD PUSH1 0xC DUP3 ADD DUP1 SLOAD PUSH2 0x14E3 SWAP1 PUSH2 0x340F JUMP JUMPDEST DUP1 PUSH1 0x1F ADD PUSH1 0x20 DUP1 SWAP2 DIV MUL PUSH1 0x20 ADD PUSH1 0x40 MLOAD SWAP1 DUP2 ADD PUSH1 0x40 MSTORE DUP1 SWAP3 SWAP2 SWAP1 DUP2 DUP2 MSTORE PUSH1 0x20 ADD DUP3 DUP1 SLOAD PUSH2 0x150F SWAP1 PUSH2 0x340F JUMP JUMPDEST DUP1 ISZERO PUSH2 0x155C JUMPI DUP1 PUSH1 0x1F LT PUSH2 0x1531 JUMPI PUSH2 0x100 DUP1 DUP4 SLOAD DIV MUL DUP4 MSTORE SWAP2 PUSH1 0x20 ADD SWAP2 PUSH2 0x155C JUMP JUMPDEST DUP3 ADD SWAP2 SWAP1 PUSH1 0x0 MSTORE PUSH1 0x20 PUSH1 0x0 KECCAK256 SWAP1 JUMPDEST DUP2 SLOAD DUP2 MSTORE SWAP1 PUSH1 0x1 ADD SWAP1 PUSH1 0x20 ADD DUP1 DUP4 GT PUSH2 0x153F JUMPI DUP3 SWAP1 SUB PUSH1 0x1F AND DUP3 ADD SWAP2 JUMPDEST POP POP POP POP POP DUP2 MSTORE PUSH1 0x20 ADD PUSH1 0xD DUP3 ADD DUP1 SLOAD PUSH2 0x1575 SWAP1 PUSH2 0x340F JUMP JUMPDEST DUP1 PUSH1 0x1F ADD PUSH1 0x20 DUP1 SWAP2 DIV MUL PUSH1 0x20 ADD PUSH1 0x40 MLOAD SWAP1 DUP2 ADD PUSH1 0x40 MSTORE DUP1 SWAP3 SWAP2 SWAP1 DUP2 DUP2 MSTORE PUSH1 0x20 ADD DUP3 DUP1 SLOAD PUSH2 0x15A1 SWAP1 PUSH2 0x340F JUMP JUMPDEST DUP1 ISZERO PUSH2 0x15EE JUMPI DUP1 PUSH1 0x1F LT PUSH2 0x15C3 JUMPI PUSH2 0x100 DUP1 DUP4 SLOAD DIV MUL DUP4 MSTORE SWAP2 PUSH1 0x20 ADD SWAP2 PUSH2 0x15EE JUMP JUMPDEST DUP3 ADD SWAP2 SWAP1 PUSH1 0x0 MSTORE PUSH1 0x20 PUSH1 0x0 KECCAK256 SWAP1 JUMPDEST DUP2 SLOAD DUP2 MSTORE SWAP1 PUSH1 0x1 ADD SWAP1 PUSH1 0x20 ADD DUP1 DUP4 GT PUSH2 0x15D1 JUMPI DUP3 SWAP1 SUB PUSH1 0x1F AND DUP3 ADD SWAP2 JUMPDEST POP POP POP SWAP2 DUP4 MSTORE POP POP PUSH1 0xE DUP3 ADD SLOAD PUSH1 0xFF DUP1 DUP3 AND ISZERO ISZERO PUSH1 0x20 DUP5 ADD MSTORE PUSH2 0x100 DUP3 DIV DUP2 AND ISZERO ISZERO PUSH1 0x40 DUP5 ADD MSTORE PUSH3 0x10000 SWAP1 SWAP2 DIV DUP2 AND ISZERO ISZERO PUSH1 0x60 DUP4 ADD MSTORE PUSH1 0xF DUP4 ADD SLOAD PUSH1 0x80 DUP4 ADD MSTORE PUSH1 0x10 DUP4 ADD SLOAD PUSH1 0xA0 SWAP1 SWAP3 ADD SWAP2 AND PUSH1 0x2 DUP2 GT ISZERO PUSH2 0x164C JUMPI PUSH2 0x164C PUSH2 0x2F50 JUMP JUMPDEST PUSH1 0x2 DUP2 GT ISZERO PUSH2 0x165D JUMPI PUSH2 0x165D PUSH2 0x2F50 JUMP JUMPDEST DUP2 MSTORE PUSH1 0x10 SWAP2 SWAP1 SWAP2 ADD SLOAD PUSH2 0x100 SWAP1 DIV PUSH1 0xFF AND ISZERO ISZERO PUSH1 0x20 SWAP1 SWAP2 ADD MSTORE SWAP3 SWAP2 POP POP JUMP JUMPDEST PUSH2 0x1684 PUSH2 0x283F JUMP JUMPDEST POP PUSH1 0x1 PUSH1 0x1 PUSH1 0xA0 SHL SUB DUP1 DUP12 AND PUSH1 0x0 SWAP1 DUP2 MSTORE PUSH1 0x8 PUSH1 0x20 SWAP1 DUP2 MSTORE PUSH1 0x40 DUP1 DUP4 KECCAK256 DUP14 DUP5 MSTORE DUP3 MSTORE DUP1 DUP4 KECCAK256 DUP2 MLOAD PUSH1 0x80 DUP2 ADD DUP4 MSTORE DUP2 SLOAD DUP2 MSTORE PUSH1 0x1 DUP3 ADD SLOAD DUP7 AND SWAP4 DUP2 ADD SWAP4 SWAP1 SWAP4 MSTORE PUSH1 0x2 DUP2 ADD SLOAD SWAP1 SWAP5 AND SWAP1 DUP3 ADD MSTORE PUSH1 0x3 SWAP1 SWAP3 ADD SLOAD PUSH1 0x60 DUP4 ADD MSTORE PUSH2 0x16E2 PUSH2 0x1D2C JUMP JUMPDEST PUSH1 0x6 SLOAD PUSH1 0x20 DUP5 DUP2 ADD MLOAD DUP6 MLOAD PUSH1 0x40 DUP1 MLOAD DUP1 DUP6 ADD SWAP6 SWAP1 SWAP6 MSTORE PUSH1 0x1 PUSH1 0x1 PUSH1 0xA0 SHL SUB SWAP1 SWAP3 AND DUP5 DUP4 ADD MSTORE ADDRESS PUSH1 0x60 DUP6 ADD MSTORE PUSH1 0x80 DUP5 ADD MSTORE PUSH1 0xA0 DUP4 ADD DUP11 SWAP1 MSTORE PUSH1 0xC0 DUP1 DUP5 ADD DUP13 SWAP1 MSTORE DUP2 MLOAD DUP1 DUP6 SUB SWAP1 SWAP2 ADD DUP2 MSTORE PUSH1 0xE0 DUP5 ADD SWAP1 SWAP2 MSTORE DUP1 MLOAD SWAP2 ADD KECCAK256 PUSH2 0x1901 PUSH1 0xF0 SHL PUSH2 0x100 DUP4 ADD MSTORE PUSH2 0x102 DUP3 ADD SWAP3 SWAP1 SWAP3 MSTORE PUSH2 0x122 DUP2 ADD SWAP2 SWAP1 SWAP2 MSTORE PUSH2 0x142 ADD PUSH1 0x40 DUP1 MLOAD PUSH1 0x1F NOT DUP2 DUP5 SUB ADD DUP2 MSTORE DUP3 DUP3 MSTORE DUP1 MLOAD PUSH1 0x20 SWAP2 DUP3 ADD KECCAK256 PUSH1 0x0 DUP5 MSTORE SWAP1 DUP4 ADD DUP1 DUP4 MSTORE DUP2 SWAP1 MSTORE PUSH1 0xFF DUP14 AND SWAP2 DUP4 ADD SWAP2 SWAP1 SWAP2 MSTORE PUSH1 0x60 DUP3 ADD DUP12 SWAP1 MSTORE PUSH1 0x80 DUP3 ADD DUP11 SWAP1 MSTORE SWAP2 POP PUSH1 0x1 SWAP1 PUSH1 0xA0 ADD PUSH1 0x20 PUSH1 0x40 MLOAD PUSH1 0x20 DUP2 SUB SWAP1 DUP1 DUP5 SUB SWAP1 DUP6 GAS STATICCALL ISZERO DUP1 ISZERO PUSH2 0x17C1 JUMPI RETURNDATASIZE PUSH1 0x0 DUP1 RETURNDATACOPY RETURNDATASIZE PUSH1 0x0 REVERT JUMPDEST POP POP POP PUSH1 0x20 PUSH1 0x40 MLOAD SUB MLOAD PUSH1 0x1 PUSH1 0x1 PUSH1 0xA0 SHL SUB AND DUP3 PUSH1 0x20 ADD MLOAD PUSH1 0x1 PUSH1 0x1 PUSH1 0xA0 SHL SUB AND EQ PUSH2 0x1829 JUMPI PUSH1 0x40 MLOAD PUSH3 0x461BCD PUSH1 0xE5 SHL DUP2 MSTORE PUSH1 0x20 PUSH1 0x4 DUP3 ADD MSTORE PUSH1 0x12 PUSH1 0x24 DUP3 ADD MSTORE PUSH18 0x496E76616C6964205369676E617475726521 PUSH1 0x70 SHL PUSH1 0x44 DUP3 ADD MSTORE PUSH1 0x64 ADD JUMPDEST PUSH1 0x40 MLOAD DUP1 SWAP2 SUB SWAP1 REVERT JUMPDEST PUSH1 0x5 PUSH1 0x0 SWAP1 SLOAD SWAP1 PUSH2 0x100 EXP SWAP1 DIV PUSH1 0x1 PUSH1 0x1 PUSH1 0xA0 SHL SUB AND PUSH1 0x1 PUSH1 0x1 PUSH1 0xA0 SHL SUB AND PUSH4 0x23B872DD ADDRESS DUP15 DUP6 PUSH1 0x0 ADD MLOAD PUSH1 0x40 MLOAD DUP5 PUSH4 0xFFFFFFFF AND PUSH1 0xE0 SHL DUP2 MSTORE PUSH1 0x4 ADD PUSH2 0x1872 SWAP4 SWAP3 SWAP2 SWAP1 PUSH2 0x35B6 JUMP JUMPDEST PUSH1 0x20 PUSH1 0x40 MLOAD DUP1 DUP4 SUB DUP2 PUSH1 0x0 DUP8 GAS CALL ISZERO DUP1 ISZERO PUSH2 0x1891 JUMPI RETURNDATASIZE PUSH1 0x0 DUP1 RETURNDATACOPY RETURNDATASIZE PUSH1 0x0 REVERT JUMPDEST POP POP POP POP PUSH1 0x40 MLOAD RETURNDATASIZE PUSH1 0x1F NOT PUSH1 0x1F DUP3 ADD AND DUP3 ADD DUP1 PUSH1 0x40 MSTORE POP DUP2 ADD SWAP1 PUSH2 0x18B5 SWAP2 SWAP1 PUSH2 0x3599 JUMP JUMPDEST POP PUSH1 0x4 DUP1 SLOAD PUSH1 0x40 MLOAD PUSH4 0x7AC2FF7B PUSH1 0xE0 SHL DUP2 MSTORE ADDRESS SWAP3 DUP2 ADD SWAP3 SWAP1 SWAP3 MSTORE PUSH1 0x24 DUP3 ADD DUP14 SWAP1 MSTORE PUSH1 0x44 DUP3 ADD DUP10 SWAP1 MSTORE PUSH1 0xFF DUP8 AND PUSH1 0x64 DUP4 ADD MSTORE PUSH1 0x84 DUP3 ADD DUP7 SWAP1 MSTORE PUSH1 0xA4 DUP3 ADD DUP6 SWAP1 MSTORE PUSH1 0x1 PUSH1 0x1 PUSH1 0xA0 SHL SUB AND SWAP1 PUSH4 0x7AC2FF7B SWAP1 PUSH1 0xC4 ADD PUSH1 0x0 PUSH1 0x40 MLOAD DUP1 DUP4 SUB DUP2 PUSH1 0x0 DUP8 DUP1 EXTCODESIZE ISZERO DUP1 ISZERO PUSH2 0x1921 JUMPI PUSH1 0x0 DUP1 REVERT JUMPDEST POP GAS CALL ISZERO DUP1 ISZERO PUSH2 0x1935 JUMPI RETURNDATASIZE PUSH1 0x0 DUP1 RETURNDATACOPY RETURNDATASIZE PUSH1 0x0 REVERT JUMPDEST POP POP POP POP PUSH1 0x4 PUSH1 0x0 SWAP1 SLOAD SWAP1 PUSH2 0x100 EXP SWAP1 DIV PUSH1 0x1 PUSH1 0x1 PUSH1 0xA0 SHL SUB AND PUSH1 0x1 PUSH1 0x1 PUSH1 0xA0 SHL SUB AND PUSH4 0x23B872DD DUP14 DUP5 PUSH1 0x20 ADD MLOAD DUP15 PUSH1 0x40 MLOAD DUP5 PUSH4 0xFFFFFFFF AND PUSH1 0xE0 SHL DUP2 MSTORE PUSH1 0x4 ADD PUSH2 0x1982 SWAP4 SWAP3 SWAP2 SWAP1 PUSH2 0x35B6 JUMP JUMPDEST PUSH1 0x0 PUSH1 0x40 MLOAD DUP1 DUP4 SUB DUP2 PUSH1 0x0 DUP8 DUP1 EXTCODESIZE ISZERO DUP1 ISZERO PUSH2 0x199C JUMPI PUSH1 0x0 DUP1 REVERT JUMPDEST POP GAS CALL ISZERO DUP1 ISZERO PUSH2 0x19B0 JUMPI RETURNDATASIZE PUSH1 0x0 DUP1 RETURNDATACOPY RETURNDATASIZE PUSH1 0x0 REVERT JUMPDEST POP POP POP POP POP POP POP POP POP POP POP POP POP POP POP POP JUMP JUMPDEST PUSH1 0x4 DUP1 SLOAD PUSH1 0x40 MLOAD PUSH4 0xA2119377 PUSH1 0xE0 SHL DUP2 MSTORE PUSH1 0x0 SWAP3 PUSH1 0x1 PUSH1 0x1 PUSH1 0xA0 SHL SUB SWAP1 SWAP3 AND SWAP2 PUSH4 0xA2119377 SWAP2 PUSH2 0x19F6 SWAP2 DUP15 SWAP2 DUP15 SWAP2 ADD PUSH2 0x3371 JUMP JUMPDEST PUSH1 0x20 PUSH1 0x40 MLOAD DUP1 DUP4 SUB DUP2 PUSH1 0x0 DUP8 GAS CALL ISZERO DUP1 ISZERO PUSH2 0x1A15 JUMPI RETURNDATASIZE PUSH1 0x0 DUP1 RETURNDATACOPY RETURNDATASIZE PUSH1 0x0 REVERT JUMPDEST POP POP POP POP PUSH1 0x40 MLOAD RETURNDATASIZE PUSH1 0x1F NOT PUSH1 0x1F DUP3 ADD AND DUP3 ADD DUP1 PUSH1 0x40 MSTORE POP DUP2 ADD SWAP1 PUSH2 0x1A39 SWAP2 SWAP1 PUSH2 0x339B JUMP JUMPDEST PUSH1 0x0 DUP13 DUP2 MSTORE PUSH1 0x9 PUSH1 0x20 MSTORE PUSH1 0x40 SWAP1 DUP2 SWAP1 KECCAK256 DUP3 DUP2 SSTORE PUSH1 0x10 ADD DUP1 SLOAD PUSH1 0xFF NOT AND PUSH1 0x1 OR SWAP1 SSTORE PUSH1 0x5 SLOAD SWAP1 MLOAD PUSH4 0xD505ACCF PUSH1 0xE0 SHL DUP2 MSTORE SWAP2 SWAP3 POP PUSH1 0x1 PUSH1 0x1 PUSH1 0xA0 SHL SUB AND SWAP1 PUSH4 0xD505ACCF SWAP1 PUSH2 0x1A96 SWAP1 DUP13 SWAP1 DUP13 SWAP1 DUP12 SWAP1 DUP12 SWAP1 DUP12 SWAP1 DUP12 SWAP1 DUP12 SWAP1 PUSH1 0x4 ADD PUSH2 0x3558 JUMP JUMPDEST PUSH1 0x0 PUSH1 0x40 MLOAD DUP1 DUP4 SUB DUP2 PUSH1 0x0 DUP8 DUP1 EXTCODESIZE ISZERO DUP1 ISZERO PUSH2 0x1AB0 JUMPI PUSH1 0x0 DUP1 REVERT JUMPDEST POP GAS CALL ISZERO DUP1 ISZERO PUSH2 0x1AC4 JUMPI RETURNDATASIZE PUSH1 0x0 DUP1 RETURNDATACOPY RETURNDATASIZE PUSH1 0x0 REVERT JUMPDEST POP POP PUSH1 0x5 SLOAD PUSH1 0x40 MLOAD PUSH4 0x39509351 PUSH1 0xE0 SHL DUP2 MSTORE PUSH1 0x1 PUSH1 0x1 PUSH1 0xA0 SHL SUB DUP13 DUP2 AND PUSH1 0x4 DUP4 ADD MSTORE PUSH1 0x24 DUP3 ADD DUP12 SWAP1 MSTORE SWAP1 SWAP2 AND SWAP3 POP PUSH4 0x39509351 SWAP2 POP PUSH1 0x44 ADD PUSH1 0x20 PUSH1 0x40 MLOAD DUP1 DUP4 SUB DUP2 PUSH1 0x0 DUP8 GAS CALL ISZERO DUP1 ISZERO PUSH2 0x1B1B JUMPI RETURNDATASIZE PUSH1 0x0 DUP1 RETURNDATACOPY RETURNDATASIZE PUSH1 0x0 REVERT JUMPDEST POP POP POP POP PUSH1 0x40 MLOAD RETURNDATASIZE PUSH1 0x1F NOT PUSH1 0x1F DUP3 ADD AND DUP3 ADD DUP1 PUSH1 0x40 MSTORE POP DUP2 ADD SWAP1 PUSH2 0x1B3F SWAP2 SWAP1 PUSH2 0x3599 JUMP JUMPDEST POP PUSH1 0x5 SLOAD PUSH1 0x40 MLOAD PUSH4 0x23B872DD PUSH1 0xE0 SHL DUP2 MSTORE PUSH1 0x1 PUSH1 0x1 PUSH1 0xA0 SHL SUB SWAP1 SWAP2 AND SWAP1 PUSH4 0x23B872DD SWAP1 PUSH2 0x1B74 SWAP1 DUP13 SWAP1 DUP12 SWAP1 DUP12 SWAP1 PUSH1 0x4 ADD PUSH2 0x35B6 JUMP JUMPDEST PUSH1 0x20 PUSH1 0x40 MLOAD DUP1 DUP4 SUB DUP2 PUSH1 0x0 DUP8 GAS CALL ISZERO DUP1 ISZERO PUSH2 0x1B93 JUMPI RETURNDATASIZE PUSH1 0x0 DUP1 RETURNDATACOPY RETURNDATASIZE PUSH1 0x0 REVERT JUMPDEST POP POP POP POP PUSH1 0x40 MLOAD RETURNDATASIZE PUSH1 0x1F NOT PUSH1 0x1F DUP3 ADD AND DUP3 ADD DUP1 PUSH1 0x40 MSTORE POP DUP2 ADD SWAP1 PUSH2 0x1BB7 SWAP2 SWAP1 PUSH2 0x3599 JUMP JUMPDEST POP POP POP POP POP POP POP POP POP POP POP POP JUMP JUMPDEST PUSH1 0x5 SLOAD PUSH1 0x40 MLOAD PUSH4 0xD505ACCF PUSH1 0xE0 SHL DUP2 MSTORE PUSH1 0x1 PUSH1 0x1 PUSH1 0xA0 SHL SUB SWAP1 SWAP2 AND SWAP1 PUSH4 0xD505ACCF SWAP1 PUSH2 0x1C01 SWAP1 DUP11 SWAP1 DUP11 SWAP1 DUP11 SWAP1 DUP11 SWAP1 DUP11 SWAP1 DUP11 SWAP1 DUP11 SWAP1 PUSH1 0x4 ADD PUSH2 0x3558 JUMP JUMPDEST PUSH1 0x0 PUSH1 0x40 MLOAD DUP1 DUP4 SUB DUP2 PUSH1 0x0 DUP8 DUP1 EXTCODESIZE ISZERO DUP1 ISZERO PUSH2 0x1C1B JUMPI PUSH1 0x0 DUP1 REVERT JUMPDEST POP GAS CALL ISZERO DUP1 ISZERO PUSH2 0x1C2F JUMPI RETURNDATASIZE PUSH1 0x0 DUP1 RETURNDATACOPY RETURNDATASIZE PUSH1 0x0 REVERT JUMPDEST POP POP PUSH1 0x5 SLOAD PUSH1 0x40 MLOAD PUSH4 0x39509351 PUSH1 0xE0 SHL DUP2 MSTORE PUSH1 0x1 PUSH1 0x1 PUSH1 0xA0 SHL SUB DUP11 DUP2 AND PUSH1 0x4 DUP4 ADD MSTORE PUSH1 0x24 DUP3 ADD DUP11 SWAP1 MSTORE SWAP1 SWAP2 AND SWAP3 POP PUSH4 0x39509351 SWAP2 POP PUSH1 0x44 ADD PUSH1 0x20 PUSH1 0x40 MLOAD DUP1 DUP4 SUB DUP2 PUSH1 0x0 DUP8 GAS CALL ISZERO DUP1 ISZERO PUSH2 0x1C86 JUMPI RETURNDATASIZE PUSH1 0x0 DUP1 RETURNDATACOPY RETURNDATASIZE PUSH1 0x0 REVERT JUMPDEST POP POP POP POP PUSH1 0x40 MLOAD RETURNDATASIZE PUSH1 0x1F NOT PUSH1 0x1F DUP3 ADD AND DUP3 ADD DUP1 PUSH1 0x40 MSTORE POP DUP2 ADD SWAP1 PUSH2 0x1CAA SWAP2 SWAP1 PUSH2 0x3599 JUMP JUMPDEST POP PUSH1 0x5 SLOAD PUSH1 0x40 MLOAD PUSH4 0x23B872DD PUSH1 0xE0 SHL DUP2 MSTORE PUSH1 0x1 PUSH1 0x1 PUSH1 0xA0 SHL SUB SWAP1 SWAP2 AND SWAP1 PUSH4 0x23B872DD SWAP1 PUSH2 0x1CDF SWAP1 DUP11 SWAP1 ADDRESS SWAP1 DUP11 SWAP1 PUSH1 0x4 ADD PUSH2 0x35B6 JUMP JUMPDEST PUSH1 0x20 PUSH1 0x40 MLOAD DUP1 DUP4 SUB DUP2 PUSH1 0x0 DUP8 GAS CALL ISZERO DUP1 ISZERO PUSH2 0x1CFE JUMPI RETURNDATASIZE PUSH1 0x0 DUP1 RETURNDATACOPY RETURNDATASIZE PUSH1 0x0 REVERT JUMPDEST POP POP POP POP PUSH1 0x40 MLOAD RETURNDATASIZE PUSH1 0x1F NOT PUSH1 0x1F DUP3 ADD AND DUP3 ADD DUP1 PUSH1 0x40 MSTORE POP DUP2 ADD SWAP1 PUSH2 0x1D22 SWAP2 SWAP1 PUSH2 0x3599 JUMP JUMPDEST POP POP POP POP POP POP POP POP JUMP JUMPDEST PUSH1 0x40 DUP1 MLOAD DUP1 DUP3 ADD DUP3 MSTORE PUSH1 0x4 DUP2 MSTORE PUSH4 0x4165726F PUSH1 0xE0 SHL PUSH1 0x20 SWAP2 DUP3 ADD MSTORE DUP2 MLOAD DUP1 DUP4 ADD DUP4 MSTORE PUSH1 0x1 DUP2 MSTORE PUSH1 0x31 PUSH1 0xF8 SHL SWAP1 DUP3 ADD MSTORE PUSH1 0xB SLOAD DUP3 MLOAD PUSH32 0x8B73C3C69BB8FE3D512ECC4CF759CC79239F7B179B0FFACAA9A75D522B39400F DUP2 DUP5 ADD MSTORE PUSH32 0xBF01FC4E5F7EB1F2EEE29681CD6D2CDA1045D51FD80C223D1EAEA49E08734BF9 DUP2 DUP6 ADD MSTORE PUSH32 0xC89EFDAA54C0F20C7ADF612882DF0950F5A951637E0307CDCB4C672F298B8BC6 PUSH1 0x60 DUP3 ADD MSTORE CHAINID PUSH1 0x80 DUP3 ADD MSTORE PUSH1 0x1 PUSH1 0x1 PUSH1 0xA0 SHL SUB SWAP1 SWAP2 AND PUSH1 0xA0 DUP1 DUP4 ADD SWAP2 SWAP1 SWAP2 MSTORE DUP4 MLOAD DUP1 DUP4 SUB SWAP1 SWAP2 ADD DUP2 MSTORE PUSH1 0xC0 SWAP1 SWAP2 ADD SWAP1 SWAP3 MSTORE DUP2 MLOAD SWAP2 ADD KECCAK256 SWAP1 JUMP JUMPDEST PUSH2 0x1E0C PUSH2 0x26D2 JUMP JUMPDEST PUSH1 0x1 PUSH1 0x1 PUSH1 0xA0 SHL SUB DUP2 AND PUSH2 0x1E71 JUMPI PUSH1 0x40 MLOAD PUSH3 0x461BCD PUSH1 0xE5 SHL DUP2 MSTORE PUSH1 0x20 PUSH1 0x4 DUP3 ADD MSTORE PUSH1 0x26 PUSH1 0x24 DUP3 ADD MSTORE PUSH32 0x4F776E61626C653A206E6577206F776E657220697320746865207A65726F2061 PUSH1 0x44 DUP3 ADD MSTORE PUSH6 0x646472657373 PUSH1 0xD0 SHL PUSH1 0x64 DUP3 ADD MSTORE PUSH1 0x84 ADD PUSH2 0x1820 JUMP JUMPDEST PUSH2 0x1E7A DUP2 PUSH2 0x272C JUMP JUMPDEST POP JUMP JUMPDEST PUSH1 0x60 PUSH2 0x1E87 PUSH2 0x26D2 JUMP JUMPDEST PUSH1 0xA SLOAD PUSH1 0x1 DUP2 LT ISZERO PUSH2 0x1ECE JUMPI PUSH1 0x40 MLOAD PUSH3 0x461BCD PUSH1 0xE5 SHL DUP2 MSTORE PUSH1 0x20 PUSH1 0x4 DUP3 ADD MSTORE PUSH1 0x10 PUSH1 0x24 DUP3 ADD MSTORE PUSH16 0x6173736574732061726520656D707479 PUSH1 0x80 SHL PUSH1 0x44 DUP3 ADD MSTORE PUSH1 0x64 ADD PUSH2 0x1820 JUMP JUMPDEST DUP1 DUP5 GT ISZERO DUP1 ISZERO PUSH2 0x1EDC JUMPI POP PUSH1 0x1 JUMPDEST PUSH2 0x1F4E JUMPI PUSH1 0x40 MLOAD PUSH3 0x461BCD PUSH1 0xE5 SHL DUP2 MSTORE PUSH1 0x20 PUSH1 0x4 DUP3 ADD MSTORE PUSH1 0x3F PUSH1 0x24 DUP3 ADD MSTORE PUSH32 0x6C6F77657220626F756E646172792073686F756C64206265206C657373206F72 PUSH1 0x44 DUP3 ADD MSTORE PUSH32 0x20657175616C20746F2073697A6520616E64206E6F6E206E6567617469766500 PUSH1 0x64 DUP3 ADD MSTORE PUSH1 0x84 ADD PUSH2 0x1820 JUMP JUMPDEST DUP1 DUP4 GT ISZERO DUP1 ISZERO PUSH2 0x1F5C JUMPI POP PUSH1 0x1 JUMPDEST PUSH2 0x1FCE JUMPI PUSH1 0x40 MLOAD PUSH3 0x461BCD PUSH1 0xE5 SHL DUP2 MSTORE PUSH1 0x20 PUSH1 0x4 DUP3 ADD MSTORE PUSH1 0x3F PUSH1 0x24 DUP3 ADD MSTORE PUSH32 0x757070657220626F756E646172792073686F756C64206265206C657373206F72 PUSH1 0x44 DUP3 ADD MSTORE PUSH32 0x20657175616C20746F2073697A6520616E64206E6F6E206E6567617469766500 PUSH1 0x64 DUP3 ADD MSTORE PUSH1 0x84 ADD PUSH2 0x1820 JUMP JUMPDEST PUSH1 0xA SLOAD PUSH1 0x0 SWAP1 PUSH8 0xFFFFFFFFFFFFFFFF DUP2 GT ISZERO PUSH2 0x1FEC JUMPI PUSH2 0x1FEC PUSH2 0x2945 JUMP JUMPDEST PUSH1 0x40 MLOAD SWAP1 DUP1 DUP3 MSTORE DUP1 PUSH1 0x20 MUL PUSH1 0x20 ADD DUP3 ADD PUSH1 0x40 MSTORE DUP1 ISZERO PUSH2 0x2025 JUMPI DUP2 PUSH1 0x20 ADD JUMPDEST PUSH2 0x2012 PUSH2 0x2879 JUMP JUMPDEST DUP2 MSTORE PUSH1 0x20 ADD SWAP1 PUSH1 0x1 SWAP1 SUB SWAP1 DUP2 PUSH2 0x200A JUMPI SWAP1 POP JUMPDEST POP SWAP1 POP PUSH1 0x0 DUP6 JUMPDEST DUP6 DUP2 GT PUSH2 0x26C7 JUMPI PUSH1 0x9 PUSH1 0x0 PUSH1 0xA DUP4 DUP2 SLOAD DUP2 LT PUSH2 0x204A JUMPI PUSH2 0x204A PUSH2 0x35DA JUMP JUMPDEST SWAP1 PUSH1 0x0 MSTORE PUSH1 0x20 PUSH1 0x0 KECCAK256 ADD SLOAD DUP2 MSTORE PUSH1 0x20 ADD SWAP1 DUP2 MSTORE PUSH1 0x20 ADD PUSH1 0x0 KECCAK256 PUSH1 0x40 MLOAD DUP1 PUSH2 0x280 ADD PUSH1 0x40 MSTORE SWAP1 DUP2 PUSH1 0x0 DUP3 ADD SLOAD DUP2 MSTORE PUSH1 0x20 ADD PUSH1 0x1 DUP3 ADD PUSH1 0x0 SWAP1 SLOAD SWAP1 PUSH2 0x100 EXP SWAP1 DIV PUSH1 0xFF AND ISZERO ISZERO ISZERO ISZERO DUP2 MSTORE PUSH1 0x20 ADD PUSH1 0x2 DUP3 ADD SLOAD DUP2 MSTORE PUSH1 0x20 ADD PUSH1 0x3 DUP3 ADD DUP1 SLOAD PUSH2 0x20AE SWAP1 PUSH2 0x340F JUMP JUMPDEST DUP1 PUSH1 0x1F ADD PUSH1 0x20 DUP1 SWAP2 DIV MUL PUSH1 0x20 ADD PUSH1 0x40 MLOAD SWAP1 DUP2 ADD PUSH1 0x40 MSTORE DUP1 SWAP3 SWAP2 SWAP1 DUP2 DUP2 MSTORE PUSH1 0x20 ADD DUP3 DUP1 SLOAD PUSH2 0x20DA SWAP1 PUSH2 0x340F JUMP JUMPDEST DUP1 ISZERO PUSH2 0x2127 JUMPI DUP1 PUSH1 0x1F LT PUSH2 0x20FC JUMPI PUSH2 0x100 DUP1 DUP4 SLOAD DIV MUL DUP4 MSTORE SWAP2 PUSH1 0x20 ADD SWAP2 PUSH2 0x2127 JUMP JUMPDEST DUP3 ADD SWAP2 SWAP1 PUSH1 0x0 MSTORE PUSH1 0x20 PUSH1 0x0 KECCAK256 SWAP1 JUMPDEST DUP2 SLOAD DUP2 MSTORE SWAP1 PUSH1 0x1 ADD SWAP1 PUSH1 0x20 ADD DUP1 DUP4 GT PUSH2 0x210A JUMPI DUP3 SWAP1 SUB PUSH1 0x1F AND DUP3 ADD SWAP2 JUMPDEST POP POP POP POP POP DUP2 MSTORE PUSH1 0x20 ADD PUSH1 0x4 DUP3 ADD DUP1 SLOAD PUSH2 0x2140 SWAP1 PUSH2 0x340F JUMP JUMPDEST DUP1 PUSH1 0x1F ADD PUSH1 0x20 DUP1 SWAP2 DIV MUL PUSH1 0x20 ADD PUSH1 0x40 MLOAD SWAP1 DUP2 ADD PUSH1 0x40 MSTORE DUP1 SWAP3 SWAP2 SWAP1 DUP2 DUP2 MSTORE PUSH1 0x20 ADD DUP3 DUP1 SLOAD PUSH2 0x216C SWAP1 PUSH2 0x340F JUMP JUMPDEST DUP1 ISZERO PUSH2 0x21B9 JUMPI DUP1 PUSH1 0x1F LT PUSH2 0x218E JUMPI PUSH2 0x100 DUP1 DUP4 SLOAD DIV MUL DUP4 MSTORE SWAP2 PUSH1 0x20 ADD SWAP2 PUSH2 0x21B9 JUMP JUMPDEST DUP3 ADD SWAP2 SWAP1 PUSH1 0x0 MSTORE PUSH1 0x20 PUSH1 0x0 KECCAK256 SWAP1 JUMPDEST DUP2 SLOAD DUP2 MSTORE SWAP1 PUSH1 0x1 ADD SWAP1 PUSH1 0x20 ADD DUP1 DUP4 GT PUSH2 0x219C JUMPI DUP3 SWAP1 SUB PUSH1 0x1F AND DUP3 ADD SWAP2 JUMPDEST POP POP POP SWAP2 DUP4 MSTORE POP POP PUSH1 0x5 DUP3 ADD SLOAD PUSH1 0x1 PUSH1 0x1 PUSH1 0xA0 SHL SUB AND PUSH1 0x20 DUP3 ADD MSTORE PUSH1 0x6 DUP3 ADD DUP1 SLOAD PUSH1 0x40 SWAP1 SWAP3 ADD SWAP2 PUSH2 0x21E9 SWAP1 PUSH2 0x340F JUMP JUMPDEST DUP1 PUSH1 0x1F ADD PUSH1 0x20 DUP1 SWAP2 DIV MUL PUSH1 0x20 ADD PUSH1 0x40 MLOAD SWAP1 DUP2 ADD PUSH1 0x40 MSTORE DUP1 SWAP3 SWAP2 SWAP1 DUP2 DUP2 MSTORE PUSH1 0x20 ADD DUP3 DUP1 SLOAD PUSH2 0x2215 SWAP1 PUSH2 0x340F JUMP JUMPDEST DUP1 ISZERO PUSH2 0x2262 JUMPI DUP1 PUSH1 0x1F LT PUSH2 0x2237 JUMPI PUSH2 0x100 DUP1 DUP4 SLOAD DIV MUL DUP4 MSTORE SWAP2 PUSH1 0x20 ADD SWAP2 PUSH2 0x2262 JUMP JUMPDEST DUP3 ADD SWAP2 SWAP1 PUSH1 0x0 MSTORE PUSH1 0x20 PUSH1 0x0 KECCAK256 SWAP1 JUMPDEST DUP2 SLOAD DUP2 MSTORE SWAP1 PUSH1 0x1 ADD SWAP1 PUSH1 0x20 ADD DUP1 DUP4 GT PUSH2 0x2245 JUMPI DUP3 SWAP1 SUB PUSH1 0x1F AND DUP3 ADD SWAP2 JUMPDEST POP POP POP POP POP DUP2 MSTORE PUSH1 0x20 ADD PUSH1 0x7 DUP3 ADD DUP1 SLOAD PUSH2 0x227B SWAP1 PUSH2 0x340F JUMP JUMPDEST DUP1 PUSH1 0x1F ADD PUSH1 0x20 DUP1 SWAP2 DIV MUL PUSH1 0x20 ADD PUSH1 0x40 MLOAD SWAP1 DUP2 ADD PUSH1 0x40 MSTORE DUP1 SWAP3 SWAP2 SWAP1 DUP2 DUP2 MSTORE PUSH1 0x20 ADD DUP3 DUP1 SLOAD PUSH2 0x22A7 SWAP1 PUSH2 0x340F JUMP JUMPDEST DUP1 ISZERO PUSH2 0x22F4 JUMPI DUP1 PUSH1 0x1F LT PUSH2 0x22C9 JUMPI PUSH2 0x100 DUP1 DUP4 SLOAD DIV MUL DUP4 MSTORE SWAP2 PUSH1 0x20 ADD SWAP2 PUSH2 0x22F4 JUMP JUMPDEST DUP3 ADD SWAP2 SWAP1 PUSH1 0x0 MSTORE PUSH1 0x20 PUSH1 0x0 KECCAK256 SWAP1 JUMPDEST DUP2 SLOAD DUP2 MSTORE SWAP1 PUSH1 0x1 ADD SWAP1 PUSH1 0x20 ADD DUP1 DUP4 GT PUSH2 0x22D7 JUMPI DUP3 SWAP1 SUB PUSH1 0x1F AND DUP3 ADD SWAP2 JUMPDEST POP POP POP POP POP DUP2 MSTORE PUSH1 0x20 ADD PUSH1 0x8 DUP3 ADD DUP1 SLOAD PUSH2 0x230D SWAP1 PUSH2 0x340F JUMP JUMPDEST DUP1 PUSH1 0x1F ADD PUSH1 0x20 DUP1 SWAP2 DIV MUL PUSH1 0x20 ADD PUSH1 0x40 MLOAD SWAP1 DUP2 ADD PUSH1 0x40 MSTORE DUP1 SWAP3 SWAP2 SWAP1 DUP2 DUP2 MSTORE PUSH1 0x20 ADD DUP3 DUP1 SLOAD PUSH2 0x2339 SWAP1 PUSH2 0x340F JUMP JUMPDEST DUP1 ISZERO PUSH2 0x2386 JUMPI DUP1 PUSH1 0x1F LT PUSH2 0x235B JUMPI PUSH2 0x100 DUP1 DUP4 SLOAD DIV MUL DUP4 MSTORE SWAP2 PUSH1 0x20 ADD SWAP2 PUSH2 0x2386 JUMP JUMPDEST DUP3 ADD SWAP2 SWAP1 PUSH1 0x0 MSTORE PUSH1 0x20 PUSH1 0x0 KECCAK256 SWAP1 JUMPDEST DUP2 SLOAD DUP2 MSTORE SWAP1 PUSH1 0x1 ADD SWAP1 PUSH1 0x20 ADD DUP1 DUP4 GT PUSH2 0x2369 JUMPI DUP3 SWAP1 SUB PUSH1 0x1F AND DUP3 ADD SWAP2 JUMPDEST POP POP POP SWAP2 DUP4 MSTORE POP POP PUSH1 0x9 DUP3 ADD SLOAD PUSH1 0x20 SWAP1 SWAP2 ADD SWAP1 PUSH1 0xFF AND PUSH1 0x4 DUP2 GT ISZERO PUSH2 0x23AD JUMPI PUSH2 0x23AD PUSH2 0x2F50 JUMP JUMPDEST PUSH1 0x4 DUP2 GT ISZERO PUSH2 0x23BE JUMPI PUSH2 0x23BE PUSH2 0x2F50 JUMP JUMPDEST DUP2 MSTORE PUSH1 0x20 ADD PUSH1 0xA DUP3 ADD DUP1 SLOAD PUSH2 0x23D2 SWAP1 PUSH2 0x340F JUMP JUMPDEST DUP1 PUSH1 0x1F ADD PUSH1 0x20 DUP1 SWAP2 DIV MUL PUSH1 0x20 ADD PUSH1 0x40 MLOAD SWAP1 DUP2 ADD PUSH1 0x40 MSTORE DUP1 SWAP3 SWAP2 SWAP1 DUP2 DUP2 MSTORE PUSH1 0x20 ADD DUP3 DUP1 SLOAD PUSH2 0x23FE SWAP1 PUSH2 0x340F JUMP JUMPDEST DUP1 ISZERO PUSH2 0x244B JUMPI DUP1 PUSH1 0x1F LT PUSH2 0x2420 JUMPI PUSH2 0x100 DUP1 DUP4 SLOAD DIV MUL DUP4 MSTORE SWAP2 PUSH1 0x20 ADD SWAP2 PUSH2 0x244B JUMP JUMPDEST DUP3 ADD SWAP2 SWAP1 PUSH1 0x0 MSTORE PUSH1 0x20 PUSH1 0x0 KECCAK256 SWAP1 JUMPDEST DUP2 SLOAD DUP2 MSTORE SWAP1 PUSH1 0x1 ADD SWAP1 PUSH1 0x20 ADD DUP1 DUP4 GT PUSH2 0x242E JUMPI DUP3 SWAP1 SUB PUSH1 0x1F AND DUP3 ADD SWAP2 JUMPDEST POP POP POP POP POP DUP2 MSTORE PUSH1 0x20 ADD PUSH1 0xB DUP3 ADD DUP1 SLOAD PUSH2 0x2464 SWAP1 PUSH2 0x340F JUMP JUMPDEST DUP1 PUSH1 0x1F ADD PUSH1 0x20 DUP1 SWAP2 DIV MUL PUSH1 0x20 ADD PUSH1 0x40 MLOAD SWAP1 DUP2 ADD PUSH1 0x40 MSTORE DUP1 SWAP3 SWAP2 SWAP1 DUP2 DUP2 MSTORE PUSH1 0x20 ADD DUP3 DUP1 SLOAD PUSH2 0x2490 SWAP1 PUSH2 0x340F JUMP JUMPDEST DUP1 ISZERO PUSH2 0x24DD JUMPI DUP1 PUSH1 0x1F LT PUSH2 0x24B2 JUMPI PUSH2 0x100 DUP1 DUP4 SLOAD DIV MUL DUP4 MSTORE SWAP2 PUSH1 0x20 ADD SWAP2 PUSH2 0x24DD JUMP JUMPDEST DUP3 ADD SWAP2 SWAP1 PUSH1 0x0 MSTORE PUSH1 0x20 PUSH1 0x0 KECCAK256 SWAP1 JUMPDEST DUP2 SLOAD DUP2 MSTORE SWAP1 PUSH1 0x1 ADD SWAP1 PUSH1 0x20 ADD DUP1 DUP4 GT PUSH2 0x24C0 JUMPI DUP3 SWAP1 SUB PUSH1 0x1F AND DUP3 ADD SWAP2 JUMPDEST POP POP POP POP POP DUP2 MSTORE PUSH1 0x20 ADD PUSH1 0xC DUP3 ADD DUP1 SLOAD PUSH2 0x24F6 SWAP1 PUSH2 0x340F JUMP JUMPDEST DUP1 PUSH1 0x1F ADD PUSH1 0x20 DUP1 SWAP2 DIV MUL PUSH1 0x20 ADD PUSH1 0x40 MLOAD SWAP1 DUP2 ADD PUSH1 0x40 MSTORE DUP1 SWAP3 SWAP2 SWAP1 DUP2 DUP2 MSTORE PUSH1 0x20 ADD DUP3 DUP1 SLOAD PUSH2 0x2522 SWAP1 PUSH2 0x340F JUMP JUMPDEST DUP1 ISZERO PUSH2 0x256F JUMPI DUP1 PUSH1 0x1F LT PUSH2 0x2544 JUMPI PUSH2 0x100 DUP1 DUP4 SLOAD DIV MUL DUP4 MSTORE SWAP2 PUSH1 0x20 ADD SWAP2 PUSH2 0x256F JUMP JUMPDEST DUP3 ADD SWAP2 SWAP1 PUSH1 0x0 MSTORE PUSH1 0x20 PUSH1 0x0 KECCAK256 SWAP1 JUMPDEST DUP2 SLOAD DUP2 MSTORE SWAP1 PUSH1 0x1 ADD SWAP1 PUSH1 0x20 ADD DUP1 DUP4 GT PUSH2 0x2552 JUMPI DUP3 SWAP1 SUB PUSH1 0x1F AND DUP3 ADD SWAP2 JUMPDEST POP POP POP POP POP DUP2 MSTORE PUSH1 0x20 ADD PUSH1 0xD DUP3 ADD DUP1 SLOAD PUSH2 0x2588 SWAP1 PUSH2 0x340F JUMP JUMPDEST DUP1 PUSH1 0x1F ADD PUSH1 0x20 DUP1 SWAP2 DIV MUL PUSH1 0x20 ADD PUSH1 0x40 MLOAD SWAP1 DUP2 ADD PUSH1 0x40 MSTORE DUP1 SWAP3 SWAP2 SWAP1 DUP2 DUP2 MSTORE PUSH1 0x20 ADD DUP3 DUP1 SLOAD PUSH2 0x25B4 SWAP1 PUSH2 0x340F JUMP JUMPDEST DUP1 ISZERO PUSH2 0x2601 JUMPI DUP1 PUSH1 0x1F LT PUSH2 0x25D6 JUMPI PUSH2 0x100 DUP1 DUP4 SLOAD DIV MUL DUP4 MSTORE SWAP2 PUSH1 0x20 ADD SWAP2 PUSH2 0x2601 JUMP JUMPDEST DUP3 ADD SWAP2 SWAP1 PUSH1 0x0 MSTORE PUSH1 0x20 PUSH1 0x0 KECCAK256 SWAP1 JUMPDEST DUP2 SLOAD DUP2 MSTORE SWAP1 PUSH1 0x1 ADD SWAP1 PUSH1 0x20 ADD DUP1 DUP4 GT PUSH2 0x25E4 JUMPI DUP3 SWAP1 SUB PUSH1 0x1F AND DUP3 ADD SWAP2 JUMPDEST POP POP POP SWAP2 DUP4 MSTORE POP POP PUSH1 0xE DUP3 ADD SLOAD PUSH1 0xFF DUP1 DUP3 AND ISZERO ISZERO PUSH1 0x20 DUP5 ADD MSTORE PUSH2 0x100 DUP3 DIV DUP2 AND ISZERO ISZERO PUSH1 0x40 DUP5 ADD MSTORE PUSH3 0x10000 SWAP1 SWAP2 DIV DUP2 AND ISZERO ISZERO PUSH1 0x60 DUP4 ADD MSTORE PUSH1 0xF DUP4 ADD SLOAD PUSH1 0x80 DUP4 ADD MSTORE PUSH1 0x10 DUP4 ADD SLOAD PUSH1 0xA0 SWAP1 SWAP3 ADD SWAP2 AND PUSH1 0x2 DUP2 GT ISZERO PUSH2 0x265F JUMPI PUSH2 0x265F PUSH2 0x2F50 JUMP JUMPDEST PUSH1 0x2 DUP2 GT ISZERO PUSH2 0x2670 JUMPI PUSH2 0x2670 PUSH2 0x2F50 JUMP JUMPDEST DUP2 MSTORE PUSH1 0x10 SWAP2 SWAP1 SWAP2 ADD SLOAD PUSH2 0x100 SWAP1 DIV PUSH1 0xFF AND ISZERO ISZERO PUSH1 0x20 SWAP1 SWAP2 ADD MSTORE DUP4 MLOAD DUP5 SWAP1 DUP5 SWAP1 DUP2 LT PUSH2 0x269D JUMPI PUSH2 0x269D PUSH2 0x35DA JUMP JUMPDEST PUSH1 0x20 SWAP1 DUP2 MUL SWAP2 SWAP1 SWAP2 ADD ADD MSTORE PUSH2 0x26B3 DUP3 PUSH1 0x1 PUSH2 0x3606 JUMP JUMPDEST SWAP2 POP DUP1 PUSH2 0x26BF DUP2 PUSH2 0x3619 JUMP JUMPDEST SWAP2 POP POP PUSH2 0x202C JUMP JUMPDEST POP SWAP1 SWAP6 SWAP5 POP POP POP POP POP JUMP JUMPDEST PUSH1 0x1 SLOAD PUSH1 0x1 PUSH1 0x1 PUSH1 0xA0 SHL SUB AND CALLER EQ PUSH2 0xF94 JUMPI PUSH1 0x40 MLOAD PUSH3 0x461BCD PUSH1 0xE5 SHL DUP2 MSTORE PUSH1 0x20 PUSH1 0x4 DUP3 ADD DUP2 SWAP1 MSTORE PUSH1 0x24 DUP3 ADD MSTORE PUSH32 0x4F776E61626C653A2063616C6C6572206973206E6F7420746865206F776E6572 PUSH1 0x44 DUP3 ADD MSTORE PUSH1 0x64 ADD PUSH2 0x1820 JUMP JUMPDEST PUSH1 0x1 DUP1 SLOAD PUSH1 0x1 PUSH1 0x1 PUSH1 0xA0 SHL SUB DUP4 DUP2 AND PUSH1 0x1 PUSH1 0x1 PUSH1 0xA0 SHL SUB NOT DUP4 AND DUP2 OR SWAP1 SWAP4 SSTORE PUSH1 0x40 MLOAD SWAP2 AND SWAP2 SWAP1 DUP3 SWAP1 PUSH32 0x8BE0079C531659141344CD1FD0A4F28419497F9722A3DAAFE3B4186F6B6457E0 SWAP1 PUSH1 0x0 SWAP1 LOG3 POP POP JUMP JUMPDEST PUSH1 0x60 PUSH1 0x3 DUP3 PUSH1 0x2 DUP2 GT ISZERO PUSH2 0x2794 JUMPI PUSH2 0x2794 PUSH2 0x2F50 JUMP JUMPDEST PUSH1 0xFF AND GT ISZERO PUSH2 0x27A2 JUMPI PUSH1 0x0 DUP1 REVERT JUMPDEST DUP2 PUSH1 0x2 DUP2 GT ISZERO PUSH2 0x27B4 JUMPI PUSH2 0x27B4 PUSH2 0x2F50 JUMP JUMPDEST PUSH1 0x0 SUB PUSH2 0x27DE JUMPI POP POP PUSH1 0x40 DUP1 MLOAD DUP1 DUP3 ADD SWAP1 SWAP2 MSTORE PUSH1 0x7 DUP2 MSTORE PUSH7 0x50656E64696E67 PUSH1 0xC8 SHL PUSH1 0x20 DUP3 ADD MSTORE SWAP1 JUMP JUMPDEST DUP2 PUSH1 0x2 DUP2 GT ISZERO PUSH2 0x27F0 JUMPI PUSH2 0x27F0 PUSH2 0x2F50 JUMP JUMPDEST PUSH1 0x1 SUB PUSH2 0x281A JUMPI POP POP PUSH1 0x40 DUP1 MLOAD DUP1 DUP3 ADD SWAP1 SWAP2 MSTORE PUSH1 0x7 DUP2 MSTORE PUSH7 0x10DC99585D1959 PUSH1 0xCA SHL PUSH1 0x20 DUP3 ADD MSTORE SWAP1 JUMP JUMPDEST POP POP PUSH1 0x40 DUP1 MLOAD DUP1 DUP3 ADD SWAP1 SWAP2 MSTORE PUSH1 0x4 DUP2 MSTORE PUSH4 0x14DBDB19 PUSH1 0xE2 SHL PUSH1 0x20 DUP3 ADD MSTORE SWAP1 JUMP JUMPDEST SWAP2 SWAP1 POP JUMP JUMPDEST PUSH1 0x40 MLOAD DUP1 PUSH1 0x80 ADD PUSH1 0x40 MSTORE DUP1 PUSH1 0x0 DUP2 MSTORE PUSH1 0x20 ADD PUSH1 0x0 PUSH1 0x1 PUSH1 0x1 PUSH1 0xA0 SHL SUB AND DUP2 MSTORE PUSH1 0x20 ADD PUSH1 0x0 PUSH1 0x1 PUSH1 0x1 PUSH1 0xA0 SHL SUB AND DUP2 MSTORE PUSH1 0x20 ADD PUSH1 0x0 DUP2 MSTORE POP SWAP1 JUMP JUMPDEST PUSH1 0x40 MLOAD DUP1 PUSH2 0x280 ADD PUSH1 0x40 MSTORE DUP1 PUSH1 0x0 DUP2 MSTORE PUSH1 0x20 ADD PUSH1 0x0 ISZERO ISZERO DUP2 MSTORE PUSH1 0x20 ADD PUSH1 0x0 DUP2 MSTORE PUSH1 0x20 ADD PUSH1 0x60 DUP2 MSTORE PUSH1 0x20 ADD PUSH1 0x60 DUP2 MSTORE PUSH1 0x20 ADD PUSH1 0x0 PUSH1 0x1 PUSH1 0x1 PUSH1 0xA0 SHL SUB AND DUP2 MSTORE PUSH1 0x20 ADD PUSH1 0x60 DUP2 MSTORE PUSH1 0x20 ADD PUSH1 0x60 DUP2 MSTORE PUSH1 0x20 ADD PUSH1 0x60 DUP2 MSTORE PUSH1 0x20 ADD PUSH1 0x0 PUSH1 0x4 DUP2 GT ISZERO PUSH2 0x28E2 JUMPI PUSH2 0x28E2 PUSH2 0x2F50 JUMP JUMPDEST DUP2 MSTORE PUSH1 0x20 ADD PUSH1 0x60 DUP2 MSTORE PUSH1 0x20 ADD PUSH1 0x60 DUP2 MSTORE PUSH1 0x20 ADD PUSH1 0x60 DUP2 MSTORE PUSH1 0x20 ADD PUSH1 0x60 DUP2 MSTORE PUSH1 0x20 ADD PUSH1 0x0 ISZERO ISZERO DUP2 MSTORE PUSH1 0x20 ADD PUSH1 0x0 ISZERO ISZERO DUP2 MSTORE PUSH1 0x20 ADD PUSH1 0x0 ISZERO ISZERO DUP2 MSTORE PUSH1 0x20 ADD PUSH1 0x0 DUP2 MSTORE PUSH1 0x20 ADD PUSH1 0x0 PUSH1 0x2 DUP2 GT ISZERO PUSH2 0x2938 JUMPI PUSH2 0x2938 PUSH2 0x2F50 JUMP JUMPDEST DUP2 MSTORE PUSH1 0x0 PUSH1 0x20 SWAP1 SWAP2 ADD MSTORE SWAP1 JUMP JUMPDEST PUSH4 0x4E487B71 PUSH1 0xE0 SHL PUSH1 0x0 MSTORE PUSH1 0x41 PUSH1 0x4 MSTORE PUSH1 0x24 PUSH1 0x0 REVERT JUMPDEST PUSH1 0x40 MLOAD PUSH2 0x280 DUP2 ADD PUSH8 0xFFFFFFFFFFFFFFFF DUP2 GT DUP3 DUP3 LT OR ISZERO PUSH2 0x297F JUMPI PUSH2 0x297F PUSH2 0x2945 JUMP JUMPDEST PUSH1 0x40 MSTORE SWAP1 JUMP JUMPDEST PUSH1 0x0 DUP3 PUSH1 0x1F DUP4 ADD SLT PUSH2 0x2996 JUMPI PUSH1 0x0 DUP1 REVERT JUMPDEST DUP2 CALLDATALOAD PUSH8 0xFFFFFFFFFFFFFFFF DUP1 DUP3 GT ISZERO PUSH2 0x29B1 JUMPI PUSH2 0x29B1 PUSH2 0x2945 JUMP JUMPDEST PUSH1 0x40 MLOAD PUSH1 0x1F DUP4 ADD PUSH1 0x1F NOT SWAP1 DUP2 AND PUSH1 0x3F ADD AND DUP2 ADD SWAP1 DUP3 DUP3 GT DUP2 DUP4 LT OR ISZERO PUSH2 0x29D9 JUMPI PUSH2 0x29D9 PUSH2 0x2945 JUMP JUMPDEST DUP2 PUSH1 0x40 MSTORE DUP4 DUP2 MSTORE DUP7 PUSH1 0x20 DUP6 DUP9 ADD ADD GT ISZERO PUSH2 0x29F2 JUMPI PUSH1 0x0 DUP1 REVERT JUMPDEST DUP4 PUSH1 0x20 DUP8 ADD PUSH1 0x20 DUP4 ADD CALLDATACOPY PUSH1 0x0 PUSH1 0x20 DUP6 DUP4 ADD ADD MSTORE DUP1 SWAP5 POP POP POP POP POP SWAP3 SWAP2 POP POP JUMP JUMPDEST DUP1 CALLDATALOAD PUSH1 0x1 PUSH1 0x1 PUSH1 0xA0 SHL SUB DUP2 AND DUP2 EQ PUSH2 0x283A JUMPI PUSH1 0x0 DUP1 REVERT JUMPDEST PUSH1 0x0 DUP1 PUSH1 0x40 DUP4 DUP6 SUB SLT ISZERO PUSH2 0x2A3C JUMPI PUSH1 0x0 DUP1 REVERT JUMPDEST DUP3 CALLDATALOAD PUSH8 0xFFFFFFFFFFFFFFFF DUP2 GT ISZERO PUSH2 0x2A53 JUMPI PUSH1 0x0 DUP1 REVERT JUMPDEST PUSH2 0x2A5F DUP6 DUP3 DUP7 ADD PUSH2 0x2985 JUMP JUMPDEST SWAP3 POP POP PUSH2 0x2A6E PUSH1 0x20 DUP5 ADD PUSH2 0x2A12 JUMP JUMPDEST SWAP1 POP SWAP3 POP SWAP3 SWAP1 POP JUMP JUMPDEST DUP1 ISZERO ISZERO DUP2 EQ PUSH2 0x1E7A JUMPI PUSH1 0x0 DUP1 REVERT JUMPDEST DUP1 CALLDATALOAD PUSH2 0x283A DUP2 PUSH2 0x2A77 JUMP JUMPDEST DUP1 CALLDATALOAD PUSH1 0x5 DUP2 LT PUSH2 0x283A JUMPI PUSH1 0x0 DUP1 REVERT JUMPDEST DUP1 CALLDATALOAD PUSH1 0x3 DUP2 LT PUSH2 0x283A JUMPI PUSH1 0x0 DUP1 REVERT JUMPDEST PUSH1 0x0 PUSH2 0x280 DUP3 DUP5 SUB SLT ISZERO PUSH2 0x2AC1 JUMPI PUSH1 0x0 DUP1 REVERT JUMPDEST PUSH2 0x2AC9 PUSH2 0x295B JUMP JUMPDEST SWAP1 POP DUP2 CALLDATALOAD DUP2 MSTORE PUSH2 0x2ADB PUSH1 0x20 DUP4 ADD PUSH2 0x2A85 JUMP JUMPDEST PUSH1 0x20 DUP3 ADD MSTORE PUSH1 0x40 DUP3 ADD CALLDATALOAD PUSH1 0x40 DUP3 ADD MSTORE PUSH1 0x60 DUP3 ADD CALLDATALOAD PUSH8 0xFFFFFFFFFFFFFFFF DUP1 DUP3 GT ISZERO PUSH2 0x2B05 JUMPI PUSH1 0x0 DUP1 REVERT JUMPDEST PUSH2 0x2B11 DUP6 DUP4 DUP7 ADD PUSH2 0x2985 JUMP JUMPDEST PUSH1 0x60 DUP5 ADD MSTORE PUSH1 0x80 DUP5 ADD CALLDATALOAD SWAP2 POP DUP1 DUP3 GT ISZERO PUSH2 0x2B2A JUMPI PUSH1 0x0 DUP1 REVERT JUMPDEST PUSH2 0x2B36 DUP6 DUP4 DUP7 ADD PUSH2 0x2985 JUMP JUMPDEST PUSH1 0x80 DUP5 ADD MSTORE PUSH2 0x2B47 PUSH1 0xA0 DUP6 ADD PUSH2 0x2A12 JUMP JUMPDEST PUSH1 0xA0 DUP5 ADD MSTORE PUSH1 0xC0 DUP5 ADD CALLDATALOAD SWAP2 POP DUP1 DUP3 GT ISZERO PUSH2 0x2B60 JUMPI PUSH1 0x0 DUP1 REVERT JUMPDEST PUSH2 0x2B6C DUP6 DUP4 DUP7 ADD PUSH2 0x2985 JUMP JUMPDEST PUSH1 0xC0 DUP5 ADD MSTORE PUSH1 0xE0 DUP5 ADD CALLDATALOAD SWAP2 POP DUP1 DUP3 GT ISZERO PUSH2 0x2B85 JUMPI PUSH1 0x0 DUP1 REVERT JUMPDEST PUSH2 0x2B91 DUP6 DUP4 DUP7 ADD PUSH2 0x2985 JUMP JUMPDEST PUSH1 0xE0 DUP5 ADD MSTORE PUSH2 0x100 SWAP2 POP DUP2 DUP5 ADD CALLDATALOAD DUP2 DUP2 GT ISZERO PUSH2 0x2BAC JUMPI PUSH1 0x0 DUP1 REVERT JUMPDEST PUSH2 0x2BB8 DUP7 DUP3 DUP8 ADD PUSH2 0x2985 JUMP JUMPDEST DUP4 DUP6 ADD MSTORE POP PUSH2 0x120 SWAP2 POP PUSH2 0x2BCD DUP3 DUP6 ADD PUSH2 0x2A90 JUMP JUMPDEST DUP3 DUP5 ADD MSTORE PUSH2 0x140 SWAP2 POP DUP2 DUP5 ADD CALLDATALOAD DUP2 DUP2 GT ISZERO PUSH2 0x2BE7 JUMPI PUSH1 0x0 DUP1 REVERT JUMPDEST PUSH2 0x2BF3 DUP7 DUP3 DUP8 ADD PUSH2 0x2985 JUMP JUMPDEST DUP4 DUP6 ADD MSTORE POP PUSH2 0x160 SWAP2 POP DUP2 DUP5 ADD CALLDATALOAD DUP2 DUP2 GT ISZERO PUSH2 0x2C0E JUMPI PUSH1 0x0 DUP1 REVERT JUMPDEST PUSH2 0x2C1A DUP7 DUP3 DUP8 ADD PUSH2 0x2985 JUMP JUMPDEST DUP4 DUP6 ADD MSTORE POP PUSH2 0x180 SWAP2 POP DUP2 DUP5 ADD CALLDATALOAD DUP2 DUP2 GT ISZERO PUSH2 0x2C35 JUMPI PUSH1 0x0 DUP1 REVERT JUMPDEST PUSH2 0x2C41 DUP7 DUP3 DUP8 ADD PUSH2 0x2985 JUMP JUMPDEST DUP4 DUP6 ADD MSTORE POP PUSH2 0x1A0 SWAP2 POP DUP2 DUP5 ADD CALLDATALOAD DUP2 DUP2 GT ISZERO PUSH2 0x2C5C JUMPI PUSH1 0x0 DUP1 REVERT JUMPDEST PUSH2 0x2C68 DUP7 DUP3 DUP8 ADD PUSH2 0x2985 JUMP JUMPDEST DUP4 DUP6 ADD MSTORE POP POP POP PUSH2 0x1C0 PUSH2 0x2C7D DUP2 DUP5 ADD PUSH2 0x2A85 JUMP JUMPDEST SWAP1 DUP3 ADD MSTORE PUSH2 0x1E0 PUSH2 0x2C8F DUP4 DUP3 ADD PUSH2 0x2A85 JUMP JUMPDEST SWAP1 DUP3 ADD MSTORE PUSH2 0x200 PUSH2 0x2CA1 DUP4 DUP3 ADD PUSH2 0x2A85 JUMP JUMPDEST SWAP1 DUP3 ADD MSTORE PUSH2 0x220 DUP3 DUP2 ADD CALLDATALOAD SWAP1 DUP3 ADD MSTORE PUSH2 0x240 PUSH2 0x2CBE DUP2 DUP5 ADD PUSH2 0x2A9F JUMP JUMPDEST SWAP1 DUP3 ADD MSTORE PUSH2 0x260 PUSH2 0x2CD0 DUP4 DUP3 ADD PUSH2 0x2A85 JUMP JUMPDEST SWAP1 DUP3 ADD MSTORE SWAP3 SWAP2 POP POP JUMP JUMPDEST DUP1 CALLDATALOAD PUSH1 0xFF DUP2 AND DUP2 EQ PUSH2 0x283A JUMPI PUSH1 0x0 DUP1 REVERT JUMPDEST PUSH1 0x0 DUP1 PUSH1 0x0 DUP1 PUSH1 0x0 DUP1 PUSH1 0x0 PUSH1 0xE0 DUP9 DUP11 SUB SLT ISZERO PUSH2 0x2D06 JUMPI PUSH1 0x0 DUP1 REVERT JUMPDEST DUP8 CALLDATALOAD PUSH8 0xFFFFFFFFFFFFFFFF DUP1 DUP3 GT ISZERO PUSH2 0x2D1E JUMPI PUSH1 0x0 DUP1 REVERT JUMPDEST PUSH2 0x2D2A DUP12 DUP4 DUP13 ADD PUSH2 0x2AAE JUMP JUMPDEST SWAP9 POP PUSH1 0x20 DUP11 ADD CALLDATALOAD SWAP2 POP DUP1 DUP3 GT ISZERO PUSH2 0x2D40 JUMPI PUSH1 0x0 DUP1 REVERT JUMPDEST POP PUSH2 0x2D4D DUP11 DUP3 DUP12 ADD PUSH2 0x2985 JUMP JUMPDEST SWAP7 POP POP PUSH2 0x2D5C PUSH1 0x40 DUP10 ADD PUSH2 0x2CDA JUMP JUMPDEST SWAP7 SWAP10 SWAP6 SWAP9 POP SWAP6 SWAP7 PUSH1 0x60 DUP2 ADD CALLDATALOAD SWAP7 POP PUSH1 0x80 DUP2 ADD CALLDATALOAD SWAP6 PUSH1 0xA0 DUP3 ADD CALLDATALOAD SWAP6 POP PUSH1 0xC0 SWAP1 SWAP2 ADD CALLDATALOAD SWAP4 POP SWAP2 POP POP JUMP JUMPDEST PUSH1 0x0 PUSH1 0x20 DUP3 DUP5 SUB SLT ISZERO PUSH2 0x2D96 JUMPI PUSH1 0x0 DUP1 REVERT JUMPDEST POP CALLDATALOAD SWAP2 SWAP1 POP JUMP JUMPDEST PUSH1 0x0 DUP1 PUSH1 0x40 DUP4 DUP6 SUB SLT ISZERO PUSH2 0x2DB0 JUMPI PUSH1 0x0 DUP1 REVERT JUMPDEST DUP3 CALLDATALOAD PUSH8 0xFFFFFFFFFFFFFFFF DUP1 DUP3 GT ISZERO PUSH2 0x2DC8 JUMPI PUSH1 0x0 DUP1 REVERT JUMPDEST PUSH2 0x2DD4 DUP7 DUP4 DUP8 ADD PUSH2 0x2AAE JUMP JUMPDEST SWAP4 POP PUSH1 0x20 DUP6 ADD CALLDATALOAD SWAP2 POP DUP1 DUP3 GT ISZERO PUSH2 0x2DEA JUMPI PUSH1 0x0 DUP1 REVERT JUMPDEST POP PUSH2 0x2DF7 DUP6 DUP3 DUP7 ADD PUSH2 0x2985 JUMP JUMPDEST SWAP2 POP POP SWAP3 POP SWAP3 SWAP1 POP JUMP JUMPDEST PUSH1 0x0 DUP1 PUSH1 0x0 DUP1 PUSH1 0x0 DUP1 PUSH1 0x0 DUP1 PUSH1 0x0 PUSH2 0x120 DUP11 DUP13 SUB SLT ISZERO PUSH2 0x2E20 JUMPI PUSH1 0x0 DUP1 REVERT JUMPDEST PUSH2 0x2E29 DUP11 PUSH2 0x2A12 JUMP JUMPDEST SWAP9 POP PUSH2 0x2E37 PUSH1 0x20 DUP12 ADD PUSH2 0x2A12 JUMP JUMPDEST SWAP8 POP PUSH1 0x40 DUP11 ADD CALLDATALOAD SWAP7 POP PUSH1 0x60 DUP11 ADD CALLDATALOAD SWAP6 POP PUSH2 0x2E53 PUSH1 0x80 DUP12 ADD PUSH2 0x2CDA JUMP JUMPDEST SWAP5 POP PUSH1 0xA0 DUP11 ADD CALLDATALOAD SWAP4 POP PUSH1 0xC0 DUP11 ADD CALLDATALOAD SWAP3 POP PUSH2 0x2E6F PUSH1 0xE0 DUP12 ADD PUSH2 0x2A12 JUMP JUMPDEST SWAP2 POP PUSH2 0x100 DUP11 ADD CALLDATALOAD SWAP1 POP SWAP3 SWAP6 SWAP9 POP SWAP3 SWAP6 SWAP9 POP SWAP3 SWAP6 SWAP9 JUMP JUMPDEST PUSH1 0x0 PUSH1 0x20 DUP3 DUP5 SUB SLT ISZERO PUSH2 0x2E98 JUMPI PUSH1 0x0 DUP1 REVERT JUMPDEST DUP2 CALLDATALOAD PUSH8 0xFFFFFFFFFFFFFFFF DUP2 GT ISZERO PUSH2 0x2EAF JUMPI PUSH1 0x0 DUP1 REVERT JUMPDEST PUSH2 0x2EBB DUP5 DUP3 DUP6 ADD PUSH2 0x2AAE JUMP JUMPDEST SWAP5 SWAP4 POP POP POP POP JUMP JUMPDEST PUSH1 0x0 DUP1 PUSH1 0x40 DUP4 DUP6 SUB SLT ISZERO PUSH2 0x2ED6 JUMPI PUSH1 0x0 DUP1 REVERT JUMPDEST PUSH2 0x2EDF DUP4 PUSH2 0x2A12 JUMP JUMPDEST SWAP2 POP PUSH2 0x2A6E PUSH1 0x20 DUP5 ADD PUSH2 0x2A12 JUMP JUMPDEST PUSH1 0x0 JUMPDEST DUP4 DUP2 LT ISZERO PUSH2 0x2F08 JUMPI DUP2 DUP2 ADD MLOAD DUP4 DUP3 ADD MSTORE PUSH1 0x20 ADD PUSH2 0x2EF0 JUMP JUMPDEST POP POP PUSH1 0x0 SWAP2 ADD MSTORE JUMP JUMPDEST PUSH1 0x0 DUP2 MLOAD DUP1 DUP5 MSTORE PUSH2 0x2F29 DUP2 PUSH1 0x20 DUP7 ADD PUSH1 0x20 DUP7 ADD PUSH2 0x2EED JUMP JUMPDEST PUSH1 0x1F ADD PUSH1 0x1F NOT AND SWAP3 SWAP1 SWAP3 ADD PUSH1 0x20 ADD SWAP3 SWAP2 POP POP JUMP JUMPDEST PUSH1 0x20 DUP2 MSTORE PUSH1 0x0 PUSH2 0x1038 PUSH1 0x20 DUP4 ADD DUP5 PUSH2 0x2F11 JUMP JUMPDEST PUSH4 0x4E487B71 PUSH1 0xE0 SHL PUSH1 0x0 MSTORE PUSH1 0x21 PUSH1 0x4 MSTORE PUSH1 0x24 PUSH1 0x0 REVERT JUMPDEST PUSH1 0x5 DUP2 LT PUSH2 0x2F76 JUMPI PUSH2 0x2F76 PUSH2 0x2F50 JUMP JUMPDEST SWAP1 MSTORE JUMP JUMPDEST PUSH1 0x3 DUP2 LT PUSH2 0x2F76 JUMPI PUSH2 0x2F76 PUSH2 0x2F50 JUMP JUMPDEST PUSH1 0x0 PUSH2 0x280 DUP3 MLOAD DUP5 MSTORE PUSH1 0x20 DUP4 ADD MLOAD PUSH2 0x2FA6 PUSH1 0x20 DUP7 ADD DUP3 ISZERO ISZERO SWAP1 MSTORE JUMP JUMPDEST POP PUSH1 0x40 DUP4 ADD MLOAD PUSH1 0x40 DUP6 ADD MSTORE PUSH1 0x60 DUP4 ADD MLOAD DUP2 PUSH1 0x60 DUP7 ADD MSTORE PUSH2 0x2FC8 DUP3 DUP7 ADD DUP3 PUSH2 0x2F11 JUMP JUMPDEST SWAP2 POP POP PUSH1 0x80 DUP4 ADD MLOAD DUP5 DUP3 SUB PUSH1 0x80 DUP7 ADD MSTORE PUSH2 0x2FE2 DUP3 DUP3 PUSH2 0x2F11 JUMP JUMPDEST SWAP2 POP POP PUSH1 0xA0 DUP4 ADD MLOAD PUSH2 0x2FFF PUSH1 0xA0 DUP7 ADD DUP3 PUSH1 0x1 PUSH1 0x1 PUSH1 0xA0 SHL SUB AND SWAP1 MSTORE JUMP JUMPDEST POP PUSH1 0xC0 DUP4 ADD MLOAD DUP5 DUP3 SUB PUSH1 0xC0 DUP7 ADD MSTORE PUSH2 0x3017 DUP3 DUP3 PUSH2 0x2F11 JUMP JUMPDEST SWAP2 POP POP PUSH1 0xE0 DUP4 ADD MLOAD DUP5 DUP3 SUB PUSH1 0xE0 DUP7 ADD MSTORE PUSH2 0x3031 DUP3 DUP3 PUSH2 0x2F11 JUMP JUMPDEST SWAP2 POP POP PUSH2 0x100 DUP1 DUP5 ADD MLOAD DUP6 DUP4 SUB DUP3 DUP8 ADD MSTORE PUSH2 0x304C DUP4 DUP3 PUSH2 0x2F11 JUMP JUMPDEST SWAP3 POP POP POP PUSH2 0x120 DUP1 DUP5 ADD MLOAD PUSH2 0x3063 DUP3 DUP8 ADD DUP3 PUSH2 0x2F66 JUMP JUMPDEST POP POP PUSH2 0x140 DUP1 DUP5 ADD MLOAD DUP6 DUP4 SUB DUP3 DUP8 ADD MSTORE PUSH2 0x307D DUP4 DUP3 PUSH2 0x2F11 JUMP JUMPDEST SWAP3 POP POP POP PUSH2 0x160 DUP1 DUP5 ADD MLOAD DUP6 DUP4 SUB DUP3 DUP8 ADD MSTORE PUSH2 0x3099 DUP4 DUP3 PUSH2 0x2F11 JUMP JUMPDEST SWAP3 POP POP POP PUSH2 0x180 DUP1 DUP5 ADD MLOAD DUP6 DUP4 SUB DUP3 DUP8 ADD MSTORE PUSH2 0x30B5 DUP4 DUP3 PUSH2 0x2F11 JUMP JUMPDEST SWAP3 POP POP POP PUSH2 0x1A0 DUP1 DUP5 ADD MLOAD DUP6 DUP4 SUB DUP3 DUP8 ADD MSTORE PUSH2 0x30D1 DUP4 DUP3 PUSH2 0x2F11 JUMP JUMPDEST SWAP3 POP POP POP PUSH2 0x1C0 DUP1 DUP5 ADD MLOAD PUSH2 0x30E9 DUP3 DUP8 ADD DUP3 ISZERO ISZERO SWAP1 MSTORE JUMP JUMPDEST POP POP PUSH2 0x1E0 DUP4 DUP2 ADD MLOAD ISZERO ISZERO SWAP1 DUP6 ADD MSTORE PUSH2 0x200 DUP1 DUP5 ADD MLOAD ISZERO ISZERO SWAP1 DUP6 ADD MSTORE PUSH2 0x220 DUP1 DUP5 ADD MLOAD SWAP1 DUP6 ADD MSTORE PUSH2 0x240 DUP1 DUP5 ADD MLOAD PUSH2 0x3123 DUP3 DUP8 ADD DUP3 PUSH2 0x2F7A JUMP JUMPDEST POP POP PUSH2 0x260 SWAP3 DUP4 ADD MLOAD ISZERO ISZERO SWAP4 SWAP1 SWAP3 ADD SWAP3 SWAP1 SWAP3 MSTORE SWAP2 SWAP1 POP JUMP JUMPDEST PUSH1 0x20 DUP2 MSTORE PUSH1 0x0 PUSH2 0x1038 PUSH1 0x20 DUP4 ADD DUP5 PUSH2 0x2F8A JUMP JUMPDEST PUSH1 0x0 DUP1 PUSH1 0x0 DUP1 PUSH1 0x0 DUP1 PUSH1 0x0 DUP1 PUSH1 0x0 DUP1 PUSH2 0x140 DUP12 DUP14 SUB SLT ISZERO PUSH2 0x316E JUMPI PUSH1 0x0 DUP1 REVERT JUMPDEST PUSH2 0x3177 DUP12 PUSH2 0x2A12 JUMP JUMPDEST SWAP10 POP PUSH1 0x20 DUP12 ADD CALLDATALOAD SWAP9 POP PUSH2 0x318C PUSH1 0x40 DUP13 ADD PUSH2 0x2CDA JUMP JUMPDEST SWAP8 POP PUSH1 0x60 DUP12 ADD CALLDATALOAD SWAP7 POP PUSH1 0x80 DUP12 ADD CALLDATALOAD SWAP6 POP PUSH1 0xA0 DUP12 ADD CALLDATALOAD SWAP5 POP PUSH1 0xC0 DUP12 ADD CALLDATALOAD SWAP4 POP PUSH2 0x31B6 PUSH1 0xE0 DUP13 ADD PUSH2 0x2CDA JUMP JUMPDEST SWAP3 POP PUSH2 0x100 DUP12 ADD CALLDATALOAD SWAP2 POP PUSH2 0x120 DUP12 ADD CALLDATALOAD SWAP1 POP SWAP3 SWAP6 SWAP9 SWAP12 SWAP2 SWAP5 SWAP8 SWAP11 POP SWAP3 SWAP6 SWAP9 POP JUMP JUMPDEST PUSH1 0x0 DUP1 PUSH1 0x0 DUP1 PUSH1 0x0 DUP1 PUSH1 0x0 DUP1 PUSH1 0x0 DUP1 PUSH2 0x140 DUP12 DUP14 SUB SLT ISZERO PUSH2 0x31F7 JUMPI PUSH1 0x0 DUP1 REVERT JUMPDEST DUP11 CALLDATALOAD SWAP10 POP PUSH1 0x20 DUP12 ADD CALLDATALOAD PUSH8 0xFFFFFFFFFFFFFFFF DUP2 GT ISZERO PUSH2 0x3215 JUMPI PUSH1 0x0 DUP1 REVERT JUMPDEST PUSH2 0x3221 DUP14 DUP3 DUP15 ADD PUSH2 0x2985 JUMP JUMPDEST SWAP10 POP POP PUSH2 0x3230 PUSH1 0x40 DUP13 ADD PUSH2 0x2A12 JUMP JUMPDEST SWAP8 POP PUSH2 0x323E PUSH1 0x60 DUP13 ADD PUSH2 0x2A12 JUMP JUMPDEST SWAP7 POP PUSH2 0x324C PUSH1 0x80 DUP13 ADD PUSH2 0x2A12 JUMP JUMPDEST SWAP6 POP PUSH1 0xA0 DUP12 ADD CALLDATALOAD SWAP5 POP PUSH1 0xC0 DUP12 ADD CALLDATALOAD SWAP4 POP PUSH2 0x31B6 PUSH1 0xE0 DUP13 ADD PUSH2 0x2CDA JUMP JUMPDEST PUSH1 0x0 DUP1 PUSH1 0x0 DUP1 PUSH1 0x0 DUP1 PUSH1 0x0 PUSH1 0xE0 DUP9 DUP11 SUB SLT ISZERO PUSH2 0x3283 JUMPI PUSH1 0x0 DUP1 REVERT JUMPDEST PUSH2 0x328C DUP9 PUSH2 0x2A12 JUMP JUMPDEST SWAP7 POP PUSH2 0x329A PUSH1 0x20 DUP10 ADD PUSH2 0x2A12 JUMP JUMPDEST SWAP6 POP PUSH1 0x40 DUP9 ADD CALLDATALOAD SWAP5 POP PUSH1 0x60 DUP9 ADD CALLDATALOAD SWAP4 POP PUSH2 0x32B6 PUSH1 0x80 DUP10 ADD PUSH2 0x2CDA JUMP JUMPDEST SWAP3 POP PUSH1 0xA0 DUP9 ADD CALLDATALOAD SWAP2 POP PUSH1 0xC0 DUP9 ADD CALLDATALOAD SWAP1 POP SWAP3 SWAP6 SWAP9 SWAP2 SWAP5 SWAP8 POP SWAP3 SWAP6 POP JUMP JUMPDEST PUSH1 0x0 PUSH1 0x20 DUP3 DUP5 SUB SLT ISZERO PUSH2 0x32E4 JUMPI PUSH1 0x0 DUP1 REVERT JUMPDEST PUSH2 0x1038 DUP3 PUSH2 0x2A12 JUMP JUMPDEST PUSH1 0x0 DUP1 PUSH1 0x40 DUP4 DUP6 SUB SLT ISZERO PUSH2 0x3300 JUMPI PUSH1 0x0 DUP1 REVERT JUMPDEST POP POP DUP1 CALLDATALOAD SWAP3 PUSH1 0x20 SWAP1 SWAP2 ADD CALLDATALOAD SWAP2 POP JUMP JUMPDEST PUSH1 0x0 PUSH1 0x20 DUP1 DUP4 ADD DUP2 DUP5 MSTORE DUP1 DUP6 MLOAD DUP1 DUP4 MSTORE PUSH1 0x40 DUP7 ADD SWAP2 POP PUSH1 0x40 DUP2 PUSH1 0x5 SHL DUP8 ADD ADD SWAP3 POP DUP4 DUP8 ADD PUSH1 0x0 JUMPDEST DUP3 DUP2 LT ISZERO PUSH2 0x3364 JUMPI PUSH1 0x3F NOT DUP9 DUP7 SUB ADD DUP5 MSTORE PUSH2 0x3352 DUP6 DUP4 MLOAD PUSH2 0x2F8A JUMP JUMPDEST SWAP5 POP SWAP3 DUP6 ADD SWAP3 SWAP1 DUP6 ADD SWAP1 PUSH1 0x1 ADD PUSH2 0x3336 JUMP JUMPDEST POP SWAP3 SWAP8 SWAP7 POP POP POP POP POP POP POP JUMP JUMPDEST PUSH1 0x40 DUP2 MSTORE PUSH1 0x0 PUSH2 0x3384 PUSH1 0x40 DUP4 ADD DUP6 PUSH2 0x2F11 JUMP JUMPDEST SWAP1 POP PUSH1 0x1 DUP1 PUSH1 0xA0 SHL SUB DUP4 AND PUSH1 0x20 DUP4 ADD MSTORE SWAP4 SWAP3 POP POP POP JUMP JUMPDEST PUSH1 0x0 PUSH1 0x20 DUP3 DUP5 SUB SLT ISZERO PUSH2 0x33AD JUMPI PUSH1 0x0 DUP1 REVERT JUMPDEST POP MLOAD SWAP2 SWAP1 POP JUMP JUMPDEST DUP6 DUP2 MSTORE DUP5 PUSH1 0x20 DUP3 ADD MSTORE PUSH1 0x0 DUP5 MLOAD PUSH2 0x33D2 DUP2 PUSH1 0x40 DUP6 ADD PUSH1 0x20 DUP10 ADD PUSH2 0x2EED JUMP JUMPDEST DUP3 ADD PUSH1 0x5 DUP6 LT PUSH2 0x33E4 JUMPI PUSH2 0x33E4 PUSH2 0x2F50 JUMP JUMPDEST DUP5 PUSH1 0xF8 SHL PUSH1 0x40 DUP3 ADD MSTORE DUP4 MLOAD PUSH2 0x3400 DUP2 PUSH1 0x41 DUP5 ADD PUSH1 0x20 DUP9 ADD PUSH2 0x2EED JUMP JUMPDEST ADD PUSH1 0x41 ADD SWAP8 SWAP7 POP POP POP POP POP POP POP JUMP JUMPDEST PUSH1 0x1 DUP2 DUP2 SHR SWAP1 DUP3 AND DUP1 PUSH2 0x3423 JUMPI PUSH1 0x7F DUP3 AND SWAP2 POP JUMPDEST PUSH1 0x20 DUP3 LT DUP2 SUB PUSH2 0x3443 JUMPI PUSH4 0x4E487B71 PUSH1 0xE0 SHL PUSH1 0x0 MSTORE PUSH1 0x22 PUSH1 0x4 MSTORE PUSH1 0x24 PUSH1 0x0 REVERT JUMPDEST POP SWAP2 SWAP1 POP JUMP JUMPDEST PUSH1 0x1F DUP3 GT ISZERO PUSH2 0x3493 JUMPI PUSH1 0x0 DUP2 DUP2 MSTORE PUSH1 0x20 DUP2 KECCAK256 PUSH1 0x1F DUP6 ADD PUSH1 0x5 SHR DUP2 ADD PUSH1 0x20 DUP7 LT ISZERO PUSH2 0x3470 JUMPI POP DUP1 JUMPDEST PUSH1 0x1F DUP6 ADD PUSH1 0x5 SHR DUP3 ADD SWAP2 POP JUMPDEST DUP2 DUP2 LT ISZERO PUSH2 0x348F JUMPI DUP3 DUP2 SSTORE PUSH1 0x1 ADD PUSH2 0x347C JUMP JUMPDEST POP POP POP JUMPDEST POP POP POP JUMP JUMPDEST DUP2 MLOAD PUSH8 0xFFFFFFFFFFFFFFFF DUP2 GT ISZERO PUSH2 0x34B2 JUMPI PUSH2 0x34B2 PUSH2 0x2945 JUMP JUMPDEST PUSH2 0x34C6 DUP2 PUSH2 0x34C0 DUP5 SLOAD PUSH2 0x340F JUMP JUMPDEST DUP5 PUSH2 0x3449 JUMP JUMPDEST PUSH1 0x20 DUP1 PUSH1 0x1F DUP4 GT PUSH1 0x1 DUP2 EQ PUSH2 0x34FB JUMPI PUSH1 0x0 DUP5 ISZERO PUSH2 0x34E3 JUMPI POP DUP6 DUP4 ADD MLOAD JUMPDEST PUSH1 0x0 NOT PUSH1 0x3 DUP7 SWAP1 SHL SHR NOT AND PUSH1 0x1 DUP6 SWAP1 SHL OR DUP6 SSTORE PUSH2 0x348F JUMP JUMPDEST PUSH1 0x0 DUP6 DUP2 MSTORE PUSH1 0x20 DUP2 KECCAK256 PUSH1 0x1F NOT DUP7 AND SWAP2 JUMPDEST DUP3 DUP2 LT ISZERO PUSH2 0x352A JUMPI DUP9 DUP7 ADD MLOAD DUP3 SSTORE SWAP5 DUP5 ADD SWAP5 PUSH1 0x1 SWAP1 SWAP2 ADD SWAP1 DUP5 ADD PUSH2 0x350B JUMP JUMPDEST POP DUP6 DUP3 LT ISZERO PUSH2 0x3548 JUMPI DUP8 DUP6 ADD MLOAD PUSH1 0x0 NOT PUSH1 0x3 DUP9 SWAP1 SHL PUSH1 0xF8 AND SHR NOT AND DUP2 SSTORE JUMPDEST POP POP POP POP POP PUSH1 0x1 SWAP1 DUP2 SHL ADD SWAP1 SSTORE POP JUMP JUMPDEST PUSH1 0x1 PUSH1 0x1 PUSH1 0xA0 SHL SUB SWAP8 DUP9 AND DUP2 MSTORE SWAP6 SWAP1 SWAP7 AND PUSH1 0x20 DUP7 ADD MSTORE PUSH1 0x40 DUP6 ADD SWAP4 SWAP1 SWAP4 MSTORE PUSH1 0x60 DUP5 ADD SWAP2 SWAP1 SWAP2 MSTORE PUSH1 0xFF AND PUSH1 0x80 DUP4 ADD MSTORE PUSH1 0xA0 DUP3 ADD MSTORE PUSH1 0xC0 DUP2 ADD SWAP2 SWAP1 SWAP2 MSTORE PUSH1 0xE0 ADD SWAP1 JUMP JUMPDEST PUSH1 0x0 PUSH1 0x20 DUP3 DUP5 SUB SLT ISZERO PUSH2 0x35AB JUMPI PUSH1 0x0 DUP1 REVERT JUMPDEST DUP2 MLOAD PUSH2 0x1038 DUP2 PUSH2 0x2A77 JUMP JUMPDEST PUSH1 0x1 PUSH1 0x1 PUSH1 0xA0 SHL SUB SWAP4 DUP5 AND DUP2 MSTORE SWAP2 SWAP1 SWAP3 AND PUSH1 0x20 DUP3 ADD MSTORE PUSH1 0x40 DUP2 ADD SWAP2 SWAP1 SWAP2 MSTORE PUSH1 0x60 ADD SWAP1 JUMP JUMPDEST PUSH4 0x4E487B71 PUSH1 0xE0 SHL PUSH1 0x0 MSTORE PUSH1 0x32 PUSH1 0x4 MSTORE PUSH1 0x24 PUSH1 0x0 REVERT JUMPDEST PUSH4 0x4E487B71 PUSH1 0xE0 SHL PUSH1 0x0 MSTORE PUSH1 0x11 PUSH1 0x4 MSTORE PUSH1 0x24 PUSH1 0x0 REVERT JUMPDEST DUP1 DUP3 ADD DUP1 DUP3 GT ISZERO PUSH2 0x3C1 JUMPI PUSH2 0x3C1 PUSH2 0x35F0 JUMP JUMPDEST PUSH1 0x0 PUSH1 0x1 DUP3 ADD PUSH2 0x362B JUMPI PUSH2 0x362B PUSH2 0x35F0 JUMP JUMPDEST POP PUSH1 0x1 ADD SWAP1 JUMP INVALID LOG2 PUSH5 0x6970667358 0x22 SLT KECCAK256 SUB SWAP3 MOD 0xD5 0x23 0xBD 0xC 0xBE 0x29 0xB8 0xBD 0xFC PUSH8 0x93EE944E311485C4 CALLDATASIZE DUP5 SLOAD PUSH25 0x9515F41C39AEBB64736F6C6343000811003300000000000000 "},"methodIdentifiers":{"ERC20_DOMAIN_SEPARATOR()":"e2208a65","_PERMIT_TYPEHASH()":"982aaf6b","approvePendingAsset(bytes32,string,address,address,address,uint256,uint256,uint8,bytes32,bytes32)":"cd7e0f7a","approveRequest(bytes32)":"76ba6009","assignDeployedAddressToInstance(address,address)":"72c40429","buyAsset(address,address,uint256,uint256,uint8,bytes32,bytes32)":"d22cad9a","buyAssetApprove(address,uint256,uint8,bytes32,bytes32,uint256,uint256,uint8,bytes32,bytes32)":"a9276328","buyAssetRequest(address,address,uint256,uint256,uint8,bytes32,bytes32,address,uint256)":"55824391","createAsset((uint256,bool,uint256,string,string,address,string,string,string,uint8,string,string,string,string,bool,bool,bool,uint256,uint8,bool),string)":"46b4c35d","createAssetForSell((uint256,bool,uint256,string,string,address,string,string,string,uint8,string,string,string,string,bool,bool,bool,uint256,uint8,bool),string,uint8,bytes32,bytes32,uint256,uint256)":"40393fd3","createAssetPending((uint256,bool,uint256,string,string,address,string,string,string,uint8,string,string,string,string,bool,bool,bool,uint256,uint8,bool))":"6abfcc72","getAllHashesLength()":"80f12fcd","getAllMarketItem(uint256,uint256)":"f7785a07","getMarketItem(bytes32)":"8184a48c","getMarketItemStatus(bytes32)":"7d7b3056","mintNFT(string,address)":"04f32279","owner()":"8da5cb5b","renounceOwnership()":"715018a6","setMarketItemToPrivate(bytes32)":"43fb19d9","transferOwnership(address)":"f2fde38b"}}}}}