{"contracts/v2/NFTMarketV2.sol":{"NFTMarketV2":{"abi":[{"inputs":[],"stateMutability":"nonpayable","type":"constructor"},{"anonymous":false,"inputs":[{"indexed":true,"internalType":"address","name":"previousOwner","type":"address"},{"indexed":true,"internalType":"address","name":"newOwner","type":"address"}],"name":"OwnershipTransferred","type":"event"},{"inputs":[{"internalType":"bytes","name":"hash","type":"bytes"},{"internalType":"string","name":"tokenUri","type":"string"}],"name":"approvePendingAsset","outputs":[{"internalType":"bool","name":"","type":"bool"}],"stateMutability":"nonpayable","type":"function"},{"inputs":[{"internalType":"address","name":"nftContractAddress","type":"address"}],"name":"assignDeployedAddressToInstance","outputs":[{"internalType":"bool","name":"","type":"bool"}],"stateMutability":"nonpayable","type":"function"},{"inputs":[],"name":"buyAsset","outputs":[],"stateMutability":"nonpayable","type":"function"},{"inputs":[{"components":[{"internalType":"uint256","name":"nftID","type":"uint256"},{"internalType":"bool","name":"new_env","type":"bool"},{"internalType":"uint256","name":"creatorUserID","type":"uint256"},{"internalType":"string","name":"creatorUsername","type":"string"},{"internalType":"string","name":"creatorName","type":"string"},{"internalType":"address","name":"creatorMetamaskId","type":"address"},{"internalType":"string","name":"associatedProjectName","type":"string"},{"internalType":"string","name":"associatedProjectUrl","type":"string"},{"internalType":"string","name":"assetName","type":"string"},{"internalType":"enum NFTMarketV2.AssetType","name":"assetType","type":"uint8"},{"internalType":"string","name":"assetDescription","type":"string"},{"internalType":"string","name":"assetOffer","type":"string"},{"internalType":"string","name":"assetTerms","type":"string"},{"internalType":"string","name":"assetImage","type":"string"},{"internalType":"bool","name":"isHidden","type":"bool"},{"internalType":"bool","name":"isPrivate","type":"bool"},{"internalType":"bool","name":"multiNft","type":"bool"},{"internalType":"uint256","name":"assetPrice","type":"uint256"},{"internalType":"enum NFTMarketV2.Status","name":"status","type":"uint8"}],"internalType":"struct NFTMarketV2.MarketItem","name":"data","type":"tuple"},{"internalType":"string","name":"tokenUri","type":"string"}],"name":"createAsset","outputs":[{"internalType":"bool","name":"","type":"bool"}],"stateMutability":"nonpayable","type":"function"},{"inputs":[{"components":[{"internalType":"uint256","name":"nftID","type":"uint256"},{"internalType":"bool","name":"new_env","type":"bool"},{"internalType":"uint256","name":"creatorUserID","type":"uint256"},{"internalType":"string","name":"creatorUsername","type":"string"},{"internalType":"string","name":"creatorName","type":"string"},{"internalType":"address","name":"creatorMetamaskId","type":"address"},{"internalType":"string","name":"associatedProjectName","type":"string"},{"internalType":"string","name":"associatedProjectUrl","type":"string"},{"internalType":"string","name":"assetName","type":"string"},{"internalType":"enum NFTMarketV2.AssetType","name":"assetType","type":"uint8"},{"internalType":"string","name":"assetDescription","type":"string"},{"internalType":"string","name":"assetOffer","type":"string"},{"internalType":"string","name":"assetTerms","type":"string"},{"internalType":"string","name":"assetImage","type":"string"},{"internalType":"bool","name":"isHidden","type":"bool"},{"internalType":"bool","name":"isPrivate","type":"bool"},{"internalType":"bool","name":"multiNft","type":"bool"},{"internalType":"uint256","name":"assetPrice","type":"uint256"},{"internalType":"enum NFTMarketV2.Status","name":"status","type":"uint8"}],"internalType":"struct NFTMarketV2.MarketItem","name":"data","type":"tuple"}],"name":"createAssetPending","outputs":[{"internalType":"bool","name":"","type":"bool"}],"stateMutability":"nonpayable","type":"function"},{"inputs":[{"internalType":"uint256","name":"lowerBoundary","type":"uint256"},{"internalType":"uint256","name":"upperBoundary","type":"uint256"}],"name":"getAllMarketItem","outputs":[{"components":[{"internalType":"uint256","name":"nftID","type":"uint256"},{"internalType":"bool","name":"new_env","type":"bool"},{"internalType":"uint256","name":"creatorUserID","type":"uint256"},{"internalType":"string","name":"creatorUsername","type":"string"},{"internalType":"string","name":"creatorName","type":"string"},{"internalType":"address","name":"creatorMetamaskId","type":"address"},{"internalType":"string","name":"associatedProjectName","type":"string"},{"internalType":"string","name":"associatedProjectUrl","type":"string"},{"internalType":"string","name":"assetName","type":"string"},{"internalType":"enum NFTMarketV2.AssetType","name":"assetType","type":"uint8"},{"internalType":"string","name":"assetDescription","type":"string"},{"internalType":"string","name":"assetOffer","type":"string"},{"internalType":"string","name":"assetTerms","type":"string"},{"internalType":"string","name":"assetImage","type":"string"},{"internalType":"bool","name":"isHidden","type":"bool"},{"internalType":"bool","name":"isPrivate","type":"bool"},{"internalType":"bool","name":"multiNft","type":"bool"},{"internalType":"uint256","name":"assetPrice","type":"uint256"},{"internalType":"enum NFTMarketV2.Status","name":"status","type":"uint8"}],"internalType":"struct NFTMarketV2.MarketItem[]","name":"","type":"tuple[]"}],"stateMutability":"view","type":"function"},{"inputs":[{"internalType":"bytes","name":"hash","type":"bytes"}],"name":"getMarketItem","outputs":[{"components":[{"internalType":"uint256","name":"nftID","type":"uint256"},{"internalType":"bool","name":"new_env","type":"bool"},{"internalType":"uint256","name":"creatorUserID","type":"uint256"},{"internalType":"string","name":"creatorUsername","type":"string"},{"internalType":"string","name":"creatorName","type":"string"},{"internalType":"address","name":"creatorMetamaskId","type":"address"},{"internalType":"string","name":"associatedProjectName","type":"string"},{"internalType":"string","name":"associatedProjectUrl","type":"string"},{"internalType":"string","name":"assetName","type":"string"},{"internalType":"enum NFTMarketV2.AssetType","name":"assetType","type":"uint8"},{"internalType":"string","name":"assetDescription","type":"string"},{"internalType":"string","name":"assetOffer","type":"string"},{"internalType":"string","name":"assetTerms","type":"string"},{"internalType":"string","name":"assetImage","type":"string"},{"internalType":"bool","name":"isHidden","type":"bool"},{"internalType":"bool","name":"isPrivate","type":"bool"},{"internalType":"bool","name":"multiNft","type":"bool"},{"internalType":"uint256","name":"assetPrice","type":"uint256"},{"internalType":"enum NFTMarketV2.Status","name":"status","type":"uint8"}],"internalType":"struct NFTMarketV2.MarketItem","name":"","type":"tuple"}],"stateMutability":"view","type":"function"},{"inputs":[{"internalType":"bytes","name":"hash","type":"bytes"}],"name":"getMarketItemStatus","outputs":[{"internalType":"string","name":"","type":"string"}],"stateMutability":"view","type":"function"},{"inputs":[],"name":"nftContract","outputs":[{"internalType":"contract NFTV2","name":"","type":"address"}],"stateMutability":"view","type":"function"},{"inputs":[],"name":"owner","outputs":[{"internalType":"address","name":"","type":"address"}],"stateMutability":"view","type":"function"},{"inputs":[],"name":"renounceOwnership","outputs":[],"stateMutability":"nonpayable","type":"function"},{"inputs":[{"internalType":"address","name":"newOwner","type":"address"}],"name":"transferOwnership","outputs":[],"stateMutability":"nonpayable","type":"function"}],"evm":{"bytecode":{"linkReferences":{},"object":"608060405266038d7ea4c6800060055534801561001b57600080fd5b50600160005561002a3361002f565b610081565b600180546001600160a01b038381166001600160a01b0319831681179093556040519116919082907f8be0079c531659141344cd1fd0a4f28419497f9722a3daafe3b4186f6b6457e090600090a35050565b6123d9806100906000396000f3fe608060405234801561001057600080fd5b50600436106100b45760003560e01c8063a835460211610071578063a835460214610147578063b35f22ac1461017a578063d56d229d1461018d578063ec597cd1146101a0578063f2fde38b146101c0578063f7785a07146101d357600080fd5b80634d5a3552146100b957806357bf0305146100e2578063629a2a2414610105578063715018a6146101185780638da5cb5b146101225780639fbaf13114610120575b600080fd5b6100cc6100c7366004611a5a565b6101f3565b6040516100d99190611cc4565b60405180910390f35b6100f56100f0366004611f36565b610825565b60405190151581526020016100d9565b6100f5610113366004611f6b565b610aba565b610120610ba3565b005b6001546001600160a01b03165b6040516001600160a01b0390911681526020016100d9565b6100f5610155366004611fcf565b600480546001600160a01b0319166001600160a01b0392909216919091179055600190565b6100f5610188366004611fea565b610be2565b60045461012f906001600160a01b031681565b6101b36101ae366004611a5a565b610edb565b6040516100d99190612021565b6101206101ce366004611fcf565b610f14565b6101e66101e1366004612034565b610faf565b6040516100d99190612056565b6101fb6118c9565b60068260405161020b91906120b8565b9081526040805191829003602090810183206102608401835280548452600181015460ff1615159184019190915260028101549183019190915260038101805460608401919061025a906120d4565b80601f0160208091040260200160405190810160405280929190818152602001828054610286906120d4565b80156102d35780601f106102a8576101008083540402835291602001916102d3565b820191906000526020600020905b8154815290600101906020018083116102b657829003601f168201915b505050505081526020016004820180546102ec906120d4565b80601f0160208091040260200160405190810160405280929190818152602001828054610318906120d4565b80156103655780601f1061033a57610100808354040283529160200191610365565b820191906000526020600020905b81548152906001019060200180831161034857829003601f168201915b505050918352505060058201546001600160a01b03166020820152600682018054604090920191610395906120d4565b80601f01602080910402602001604051908101604052809291908181526020018280546103c1906120d4565b801561040e5780601f106103e35761010080835404028352916020019161040e565b820191906000526020600020905b8154815290600101906020018083116103f157829003601f168201915b50505050508152602001600782018054610427906120d4565b80601f0160208091040260200160405190810160405280929190818152602001828054610453906120d4565b80156104a05780601f10610475576101008083540402835291602001916104a0565b820191906000526020600020905b81548152906001019060200180831161048357829003601f168201915b505050505081526020016008820180546104b9906120d4565b80601f01602080910402602001604051908101604052809291908181526020018280546104e5906120d4565b80156105325780601f1061050757610100808354040283529160200191610532565b820191906000526020600020905b81548152906001019060200180831161051557829003601f168201915b5050509183525050600982015460209091019060ff16600481111561055957610559611ae7565b600481111561056a5761056a611ae7565b8152602001600a8201805461057e906120d4565b80601f01602080910402602001604051908101604052809291908181526020018280546105aa906120d4565b80156105f75780601f106105cc576101008083540402835291602001916105f7565b820191906000526020600020905b8154815290600101906020018083116105da57829003601f168201915b50505050508152602001600b82018054610610906120d4565b80601f016020809104026020016040519081016040528092919081815260200182805461063c906120d4565b80156106895780601f1061065e57610100808354040283529160200191610689565b820191906000526020600020905b81548152906001019060200180831161066c57829003601f168201915b50505050508152602001600c820180546106a2906120d4565b80601f01602080910402602001604051908101604052809291908181526020018280546106ce906120d4565b801561071b5780601f106106f05761010080835404028352916020019161071b565b820191906000526020600020905b8154815290600101906020018083116106fe57829003601f168201915b50505050508152602001600d82018054610734906120d4565b80601f0160208091040260200160405190810160405280929190818152602001828054610760906120d4565b80156107ad5780601f10610782576101008083540402835291602001916107ad565b820191906000526020600020905b81548152906001019060200180831161079057829003601f168201915b5050509183525050600e82015460ff80821615156020840152610100820481161515604084015262010000909104811615156060830152600f8301546080830152601083015460a09092019116600281111561080b5761080b611ae7565b600281111561081c5761081c611ae7565b90525092915050565b6000806108758360400151846000015185610100015186610120015187610140015160405160200161085b95949392919061210e565b604051602081830303815290604052805160209091012090565b60405160200161088791815260200190565b6040516020818303038152906040529050826006826040516108a991906120b8565b9081526040805160209281900383019020835181559183015160018301805460ff19169115159190911790558201516002820155606082015160038201906108f190826121b8565b506080820151600482019061090690826121b8565b5060a08201516005820180546001600160a01b0319166001600160a01b0390921691909117905560c0820151600682019061094190826121b8565b5060e0820151600782019061095690826121b8565b50610100820151600882019061096c90826121b8565b5061012082015160098201805460ff1916600183600481111561099157610991611ae7565b0217905550610140820151600a8201906109ab90826121b8565b50610160820151600b8201906109c190826121b8565b50610180820151600c8201906109d790826121b8565b506101a0820151600d8201906109ed90826121b8565b506101c0820151600e820180546101e08501516102008601511515620100000262ff0000199115156101000261ff00199515159590951661ffff19909316929092179390931792909216919091179055610220820151600f82015561024082015160108201805460ff19166001836002811115610a6c57610a6c611ae7565b021790555050600780546001810182556000919091527fa66cc928b5edb82af9bd49922954155ab7b0942694bea4ce44661d9a8736c688019050610ab082826121b8565b5060019392505050565b6004805460405163a211937760e01b815260009283926001600160a01b03169163a211937791610aee918791339101612278565b6020604051808303816000875af1158015610b0d573d6000803e3d6000fd5b505050506040513d601f19601f82011682018060405250810190610b3191906122a2565b905080600685604051610b4491906120b8565b90815260405190819003602001812091909155600190600690610b689087906120b8565b908152604051908190036020019020601001805460ff19166001836002811115610b9457610b94611ae7565b02179055506001949350505050565b6001546001600160a01b03163314610bd65760405162461bcd60e51b8152600401610bcd906122bb565b60405180910390fd5b610be060006117b6565b565b6004805460405163a211937760e01b815260009283926001600160a01b03169163a211937791610c16918791339101612278565b6020604051808303816000875af1158015610c35573d6000803e3d6000fd5b505050506040513d601f19601f82011682018060405250810190610c5991906122a2565b8085526040808601516101008701516101208801516101408901519351949550600094610c949461085b94938893909290919060200161210e565b604051602001610ca691815260200190565b604051602081830303815290604052905084600682604051610cc891906120b8565b9081526040805160209281900383019020835181559183015160018301805460ff1916911515919091179055820151600282015560608201516003820190610d1090826121b8565b5060808201516004820190610d2590826121b8565b5060a08201516005820180546001600160a01b0319166001600160a01b0390921691909117905560c08201516006820190610d6090826121b8565b5060e08201516007820190610d7590826121b8565b506101008201516008820190610d8b90826121b8565b5061012082015160098201805460ff19166001836004811115610db057610db0611ae7565b0217905550610140820151600a820190610dca90826121b8565b50610160820151600b820190610de090826121b8565b50610180820151600c820190610df690826121b8565b506101a0820151600d820190610e0c90826121b8565b506101c0820151600e820180546101e08501516102008601511515620100000262ff0000199115156101000261ff00199515159590951661ffff19909316929092179390931792909216919091179055610220820151600f82015561024082015160108201805460ff19166001836002811115610e8b57610e8b611ae7565b021790555050600780546001810182556000919091527fa66cc928b5edb82af9bd49922954155ab7b0942694bea4ce44661d9a8736c688019050610ecf82826121b8565b50600195945050505050565b60606000610f0d600684604051610ef291906120b8565b9081526040519081900360200190206010015460ff16611808565b9392505050565b6001546001600160a01b03163314610f3e5760405162461bcd60e51b8152600401610bcd906122bb565b6001600160a01b038116610fa35760405162461bcd60e51b815260206004820152602660248201527f4f776e61626c653a206e6577206f776e657220697320746865207a65726f206160448201526564647265737360d01b6064820152608401610bcd565b610fac816117b6565b50565b6001546060906001600160a01b03163314610fdc5760405162461bcd60e51b8152600401610bcd906122bb565b60075460018110156110235760405162461bcd60e51b815260206004820152601060248201526f6173736574732061726520656d70747960801b6044820152606401610bcd565b808411158015611031575060015b6110a35760405162461bcd60e51b815260206004820152603f60248201527f6c6f77657220626f756e646172792073686f756c64206265206c657373206f7260448201527f20657175616c20746f2073697a6520616e64206e6f6e206e65676174697665006064820152608401610bcd565b8083111580156110b1575060015b6111235760405162461bcd60e51b815260206004820152603f60248201527f757070657220626f756e646172792073686f756c64206265206c657373206f7260448201527f20657175616c20746f2073697a6520616e64206e6f6e206e65676174697665006064820152608401610bcd565b60606000855b8581116117ab57600660078281548110611145576111456122f0565b9060005260206000200160405161115c9190612306565b9081526040805191829003602090810183206102608401835280548452600181015460ff161515918401919091526002810154918301919091526003810180546060840191906111ab906120d4565b80601f01602080910402602001604051908101604052809291908181526020018280546111d7906120d4565b80156112245780601f106111f957610100808354040283529160200191611224565b820191906000526020600020905b81548152906001019060200180831161120757829003601f168201915b5050505050815260200160048201805461123d906120d4565b80601f0160208091040260200160405190810160405280929190818152602001828054611269906120d4565b80156112b65780601f1061128b576101008083540402835291602001916112b6565b820191906000526020600020905b81548152906001019060200180831161129957829003601f168201915b505050918352505060058201546001600160a01b031660208201526006820180546040909201916112e6906120d4565b80601f0160208091040260200160405190810160405280929190818152602001828054611312906120d4565b801561135f5780601f106113345761010080835404028352916020019161135f565b820191906000526020600020905b81548152906001019060200180831161134257829003601f168201915b50505050508152602001600782018054611378906120d4565b80601f01602080910402602001604051908101604052809291908181526020018280546113a4906120d4565b80156113f15780601f106113c6576101008083540402835291602001916113f1565b820191906000526020600020905b8154815290600101906020018083116113d457829003601f168201915b5050505050815260200160088201805461140a906120d4565b80601f0160208091040260200160405190810160405280929190818152602001828054611436906120d4565b80156114835780601f1061145857610100808354040283529160200191611483565b820191906000526020600020905b81548152906001019060200180831161146657829003601f168201915b5050509183525050600982015460209091019060ff1660048111156114aa576114aa611ae7565b60048111156114bb576114bb611ae7565b8152602001600a820180546114cf906120d4565b80601f01602080910402602001604051908101604052809291908181526020018280546114fb906120d4565b80156115485780601f1061151d57610100808354040283529160200191611548565b820191906000526020600020905b81548152906001019060200180831161152b57829003601f168201915b50505050508152602001600b82018054611561906120d4565b80601f016020809104026020016040519081016040528092919081815260200182805461158d906120d4565b80156115da5780601f106115af576101008083540402835291602001916115da565b820191906000526020600020905b8154815290600101906020018083116115bd57829003601f168201915b50505050508152602001600c820180546115f3906120d4565b80601f016020809104026020016040519081016040528092919081815260200182805461161f906120d4565b801561166c5780601f106116415761010080835404028352916020019161166c565b820191906000526020600020905b81548152906001019060200180831161164f57829003601f168201915b50505050508152602001600d82018054611685906120d4565b80601f01602080910402602001604051908101604052809291908181526020018280546116b1906120d4565b80156116fe5780601f106116d3576101008083540402835291602001916116fe565b820191906000526020600020905b8154815290600101906020018083116116e157829003601f168201915b5050509183525050600e82015460ff80821615156020840152610100820481161515604084015262010000909104811615156060830152600f8301546080830152601083015460a09092019116600281111561175c5761175c611ae7565b600281111561176d5761176d611ae7565b905250838361177b8161237c565b94508151811061178d5761178d6122f0565b602002602001018190525080806117a39061237c565b915050611129565b509095945050505050565b600180546001600160a01b038381166001600160a01b0319831681179093556040519116919082907f8be0079c531659141344cd1fd0a4f28419497f9722a3daafe3b4186f6b6457e090600090a35050565b6060600382600281111561181e5761181e611ae7565b60ff16111561182c57600080fd5b81600281111561183e5761183e611ae7565b60000361186857505060408051808201909152600781526650656e64696e6760c81b602082015290565b81600281111561187a5761187a611ae7565b6001036118a457505060408051808201909152600781526610dc99585d195960ca1b602082015290565b505060408051808201909152600481526314dbdb1960e21b602082015290565b919050565b6040518061026001604052806000815260200160001515815260200160008152602001606081526020016060815260200160006001600160a01b031681526020016060815260200160608152602001606081526020016000600481111561193257611932611ae7565b815260200160608152602001606081526020016060815260200160608152602001600015158152602001600015158152602001600015158152602001600081526020016000600281111561198857611988611ae7565b905290565b634e487b7160e01b600052604160045260246000fd5b604051610260810167ffffffffffffffff811182821017156119c7576119c761198d565b60405290565b600082601f8301126119de57600080fd5b813567ffffffffffffffff808211156119f9576119f961198d565b604051601f8301601f19908116603f01168101908282118183101715611a2157611a2161198d565b81604052838152866020858801011115611a3a57600080fd5b836020870160208301376000602085830101528094505050505092915050565b600060208284031215611a6c57600080fd5b813567ffffffffffffffff811115611a8357600080fd5b611a8f848285016119cd565b949350505050565b60005b83811015611ab2578181015183820152602001611a9a565b50506000910152565b60008151808452611ad3816020860160208601611a97565b601f01601f19169290920160200192915050565b634e487b7160e01b600052602160045260246000fd5b60058110611b0d57611b0d611ae7565b9052565b60038110611b0d57611b0d611ae7565b6000610260825184526020830151611b3d602086018215159052565b50604083015160408501526060830151816060860152611b5f82860182611abb565b91505060808301518482036080860152611b798282611abb565b91505060a0830151611b9660a08601826001600160a01b03169052565b5060c083015184820360c0860152611bae8282611abb565b91505060e083015184820360e0860152611bc88282611abb565b9150506101008084015185830382870152611be38382611abb565b9250505061012080840151611bfa82870182611afd565b50506101408084015185830382870152611c148382611abb565b925050506101608084015185830382870152611c308382611abb565b925050506101808084015185830382870152611c4c8382611abb565b925050506101a08084015185830382870152611c688382611abb565b925050506101c080840151611c808287018215159052565b50506101e08381015115159085015261020080840151151590850152610220808401519085015261024080840151611cba82870182611b11565b5090949350505050565b602081526000610f0d6020830184611b21565b803580151581146118c457600080fd5b80356001600160a01b03811681146118c457600080fd5b8035600581106118c457600080fd5b8035600381106118c457600080fd5b60006102608284031215611d2f57600080fd5b611d376119a3565b905081358152611d4960208301611cd7565b602082015260408201356040820152606082013567ffffffffffffffff80821115611d7357600080fd5b611d7f858386016119cd565b60608401526080840135915080821115611d9857600080fd5b611da4858386016119cd565b6080840152611db560a08501611ce7565b60a084015260c0840135915080821115611dce57600080fd5b611dda858386016119cd565b60c084015260e0840135915080821115611df357600080fd5b611dff858386016119cd565b60e084015261010091508184013581811115611e1a57600080fd5b611e26868287016119cd565b83850152506101209150611e3b828501611cfe565b8284015261014091508184013581811115611e5557600080fd5b611e61868287016119cd565b838501525061016091508184013581811115611e7c57600080fd5b611e88868287016119cd565b838501525061018091508184013581811115611ea357600080fd5b611eaf868287016119cd565b83850152506101a091508184013581811115611eca57600080fd5b611ed6868287016119cd565b838501525050506101c0611eeb818401611cd7565b908201526101e0611efd838201611cd7565b90820152610200611f0f838201611cd7565b908201526102208281013590820152610240611f2c818401611d0d565b9082015292915050565b600060208284031215611f4857600080fd5b813567ffffffffffffffff811115611f5f57600080fd5b611a8f84828501611d1c565b60008060408385031215611f7e57600080fd5b823567ffffffffffffffff80821115611f9657600080fd5b611fa2868387016119cd565b93506020850135915080821115611fb857600080fd5b50611fc5858286016119cd565b9150509250929050565b600060208284031215611fe157600080fd5b610f0d82611ce7565b60008060408385031215611ffd57600080fd5b823567ffffffffffffffff8082111561201557600080fd5b611fa286838701611d1c565b602081526000610f0d6020830184611abb565b6000806040838503121561204757600080fd5b50508035926020909101359150565b6000602080830181845280855180835260408601915060408160051b870101925083870160005b828110156120ab57603f19888603018452612099858351611b21565b9450928501929085019060010161207d565b5092979650505050505050565b600082516120ca818460208701611a97565b9190910192915050565b600181811c908216806120e857607f821691505b60208210810361210857634e487b7160e01b600052602260045260246000fd5b50919050565b8581528460208201526000845161212c816040850160208901611a97565b82016005851061213e5761213e611ae7565b8460f81b6040820152835161215a816041840160208801611a97565b01604101979650505050505050565b601f8211156121b357600081815260208120601f850160051c810160208610156121905750805b601f850160051c820191505b818110156121af5782815560010161219c565b5050505b505050565b815167ffffffffffffffff8111156121d2576121d261198d565b6121e6816121e084546120d4565b84612169565b602080601f83116001811461221b57600084156122035750858301515b600019600386901b1c1916600185901b1785556121af565b600085815260208120601f198616915b8281101561224a5788860151825594840194600190910190840161222b565b50858210156122685787850151600019600388901b60f8161c191681555b5050505050600190811b01905550565b60408152600061228b6040830185611abb565b905060018060a01b03831660208301529392505050565b6000602082840312156122b457600080fd5b5051919050565b6020808252818101527f4f776e61626c653a2063616c6c6572206973206e6f7420746865206f776e6572604082015260600190565b634e487b7160e01b600052603260045260246000fd5b6000808354612314816120d4565b6001828116801561232c576001811461234157612370565b60ff1984168752821515830287019450612370565b8760005260208060002060005b858110156123675781548a82015290840190820161234e565b50505082870194505b50929695505050505050565b60006001820161239c57634e487b7160e01b600052601160045260246000fd5b506001019056fea2646970667358221220368dad4f616c15c083d41743d905414f16dce7be9f19657c8ea6a079bef6ff4464736f6c63430008110033","opcodes":"PUSH1 0x80 PUSH1 0x40 MSTORE PUSH7 0x38D7EA4C68000 PUSH1 0x5 SSTORE CALLVALUE DUP1 ISZERO PUSH2 0x1B JUMPI PUSH1 0x0 DUP1 REVERT JUMPDEST POP PUSH1 0x1 PUSH1 0x0 SSTORE PUSH2 0x2A CALLER PUSH2 0x2F JUMP JUMPDEST PUSH2 0x81 JUMP JUMPDEST PUSH1 0x1 DUP1 SLOAD PUSH1 0x1 PUSH1 0x1 PUSH1 0xA0 SHL SUB DUP4 DUP2 AND PUSH1 0x1 PUSH1 0x1 PUSH1 0xA0 SHL SUB NOT DUP4 AND DUP2 OR SWAP1 SWAP4 SSTORE PUSH1 0x40 MLOAD SWAP2 AND SWAP2 SWAP1 DUP3 SWAP1 PUSH32 0x8BE0079C531659141344CD1FD0A4F28419497F9722A3DAAFE3B4186F6B6457E0 SWAP1 PUSH1 0x0 SWAP1 LOG3 POP POP JUMP JUMPDEST PUSH2 0x23D9 DUP1 PUSH2 0x90 PUSH1 0x0 CODECOPY PUSH1 0x0 RETURN INVALID PUSH1 0x80 PUSH1 0x40 MSTORE CALLVALUE DUP1 ISZERO PUSH2 0x10 JUMPI PUSH1 0x0 DUP1 REVERT JUMPDEST POP PUSH1 0x4 CALLDATASIZE LT PUSH2 0xB4 JUMPI PUSH1 0x0 CALLDATALOAD PUSH1 0xE0 SHR DUP1 PUSH4 0xA8354602 GT PUSH2 0x71 JUMPI DUP1 PUSH4 0xA8354602 EQ PUSH2 0x147 JUMPI DUP1 PUSH4 0xB35F22AC EQ PUSH2 0x17A JUMPI DUP1 PUSH4 0xD56D229D EQ PUSH2 0x18D JUMPI DUP1 PUSH4 0xEC597CD1 EQ PUSH2 0x1A0 JUMPI DUP1 PUSH4 0xF2FDE38B EQ PUSH2 0x1C0 JUMPI DUP1 PUSH4 0xF7785A07 EQ PUSH2 0x1D3 JUMPI PUSH1 0x0 DUP1 REVERT JUMPDEST DUP1 PUSH4 0x4D5A3552 EQ PUSH2 0xB9 JUMPI DUP1 PUSH4 0x57BF0305 EQ PUSH2 0xE2 JUMPI DUP1 PUSH4 0x629A2A24 EQ PUSH2 0x105 JUMPI DUP1 PUSH4 0x715018A6 EQ PUSH2 0x118 JUMPI DUP1 PUSH4 0x8DA5CB5B EQ PUSH2 0x122 JUMPI DUP1 PUSH4 0x9FBAF131 EQ PUSH2 0x120 JUMPI JUMPDEST PUSH1 0x0 DUP1 REVERT JUMPDEST PUSH2 0xCC PUSH2 0xC7 CALLDATASIZE PUSH1 0x4 PUSH2 0x1A5A JUMP JUMPDEST PUSH2 0x1F3 JUMP JUMPDEST PUSH1 0x40 MLOAD PUSH2 0xD9 SWAP2 SWAP1 PUSH2 0x1CC4 JUMP JUMPDEST PUSH1 0x40 MLOAD DUP1 SWAP2 SUB SWAP1 RETURN JUMPDEST PUSH2 0xF5 PUSH2 0xF0 CALLDATASIZE PUSH1 0x4 PUSH2 0x1F36 JUMP JUMPDEST PUSH2 0x825 JUMP JUMPDEST PUSH1 0x40 MLOAD SWAP1 ISZERO ISZERO DUP2 MSTORE PUSH1 0x20 ADD PUSH2 0xD9 JUMP JUMPDEST PUSH2 0xF5 PUSH2 0x113 CALLDATASIZE PUSH1 0x4 PUSH2 0x1F6B JUMP JUMPDEST PUSH2 0xABA JUMP JUMPDEST PUSH2 0x120 PUSH2 0xBA3 JUMP JUMPDEST STOP JUMPDEST PUSH1 0x1 SLOAD PUSH1 0x1 PUSH1 0x1 PUSH1 0xA0 SHL SUB AND JUMPDEST PUSH1 0x40 MLOAD PUSH1 0x1 PUSH1 0x1 PUSH1 0xA0 SHL SUB SWAP1 SWAP2 AND DUP2 MSTORE PUSH1 0x20 ADD PUSH2 0xD9 JUMP JUMPDEST PUSH2 0xF5 PUSH2 0x155 CALLDATASIZE PUSH1 0x4 PUSH2 0x1FCF JUMP JUMPDEST PUSH1 0x4 DUP1 SLOAD PUSH1 0x1 PUSH1 0x1 PUSH1 0xA0 SHL SUB NOT AND PUSH1 0x1 PUSH1 0x1 PUSH1 0xA0 SHL SUB SWAP3 SWAP1 SWAP3 AND SWAP2 SWAP1 SWAP2 OR SWAP1 SSTORE PUSH1 0x1 SWAP1 JUMP JUMPDEST PUSH2 0xF5 PUSH2 0x188 CALLDATASIZE PUSH1 0x4 PUSH2 0x1FEA JUMP JUMPDEST PUSH2 0xBE2 JUMP JUMPDEST PUSH1 0x4 SLOAD PUSH2 0x12F SWAP1 PUSH1 0x1 PUSH1 0x1 PUSH1 0xA0 SHL SUB AND DUP2 JUMP JUMPDEST PUSH2 0x1B3 PUSH2 0x1AE CALLDATASIZE PUSH1 0x4 PUSH2 0x1A5A JUMP JUMPDEST PUSH2 0xEDB JUMP JUMPDEST PUSH1 0x40 MLOAD PUSH2 0xD9 SWAP2 SWAP1 PUSH2 0x2021 JUMP JUMPDEST PUSH2 0x120 PUSH2 0x1CE CALLDATASIZE PUSH1 0x4 PUSH2 0x1FCF JUMP JUMPDEST PUSH2 0xF14 JUMP JUMPDEST PUSH2 0x1E6 PUSH2 0x1E1 CALLDATASIZE PUSH1 0x4 PUSH2 0x2034 JUMP JUMPDEST PUSH2 0xFAF JUMP JUMPDEST PUSH1 0x40 MLOAD PUSH2 0xD9 SWAP2 SWAP1 PUSH2 0x2056 JUMP JUMPDEST PUSH2 0x1FB PUSH2 0x18C9 JUMP JUMPDEST PUSH1 0x6 DUP3 PUSH1 0x40 MLOAD PUSH2 0x20B SWAP2 SWAP1 PUSH2 0x20B8 JUMP JUMPDEST SWAP1 DUP2 MSTORE PUSH1 0x40 DUP1 MLOAD SWAP2 DUP3 SWAP1 SUB PUSH1 0x20 SWAP1 DUP2 ADD DUP4 KECCAK256 PUSH2 0x260 DUP5 ADD DUP4 MSTORE DUP1 SLOAD DUP5 MSTORE PUSH1 0x1 DUP2 ADD SLOAD PUSH1 0xFF AND ISZERO ISZERO SWAP2 DUP5 ADD SWAP2 SWAP1 SWAP2 MSTORE PUSH1 0x2 DUP2 ADD SLOAD SWAP2 DUP4 ADD SWAP2 SWAP1 SWAP2 MSTORE PUSH1 0x3 DUP2 ADD DUP1 SLOAD PUSH1 0x60 DUP5 ADD SWAP2 SWAP1 PUSH2 0x25A SWAP1 PUSH2 0x20D4 JUMP JUMPDEST DUP1 PUSH1 0x1F ADD PUSH1 0x20 DUP1 SWAP2 DIV MUL PUSH1 0x20 ADD PUSH1 0x40 MLOAD SWAP1 DUP2 ADD PUSH1 0x40 MSTORE DUP1 SWAP3 SWAP2 SWAP1 DUP2 DUP2 MSTORE PUSH1 0x20 ADD DUP3 DUP1 SLOAD PUSH2 0x286 SWAP1 PUSH2 0x20D4 JUMP JUMPDEST DUP1 ISZERO PUSH2 0x2D3 JUMPI DUP1 PUSH1 0x1F LT PUSH2 0x2A8 JUMPI PUSH2 0x100 DUP1 DUP4 SLOAD DIV MUL DUP4 MSTORE SWAP2 PUSH1 0x20 ADD SWAP2 PUSH2 0x2D3 JUMP JUMPDEST DUP3 ADD SWAP2 SWAP1 PUSH1 0x0 MSTORE PUSH1 0x20 PUSH1 0x0 KECCAK256 SWAP1 JUMPDEST DUP2 SLOAD DUP2 MSTORE SWAP1 PUSH1 0x1 ADD SWAP1 PUSH1 0x20 ADD DUP1 DUP4 GT PUSH2 0x2B6 JUMPI DUP3 SWAP1 SUB PUSH1 0x1F AND DUP3 ADD SWAP2 JUMPDEST POP POP POP POP POP DUP2 MSTORE PUSH1 0x20 ADD PUSH1 0x4 DUP3 ADD DUP1 SLOAD PUSH2 0x2EC SWAP1 PUSH2 0x20D4 JUMP JUMPDEST DUP1 PUSH1 0x1F ADD PUSH1 0x20 DUP1 SWAP2 DIV MUL PUSH1 0x20 ADD PUSH1 0x40 MLOAD SWAP1 DUP2 ADD PUSH1 0x40 MSTORE DUP1 SWAP3 SWAP2 SWAP1 DUP2 DUP2 MSTORE PUSH1 0x20 ADD DUP3 DUP1 SLOAD PUSH2 0x318 SWAP1 PUSH2 0x20D4 JUMP JUMPDEST DUP1 ISZERO PUSH2 0x365 JUMPI DUP1 PUSH1 0x1F LT PUSH2 0x33A JUMPI PUSH2 0x100 DUP1 DUP4 SLOAD DIV MUL DUP4 MSTORE SWAP2 PUSH1 0x20 ADD SWAP2 PUSH2 0x365 JUMP JUMPDEST DUP3 ADD SWAP2 SWAP1 PUSH1 0x0 MSTORE PUSH1 0x20 PUSH1 0x0 KECCAK256 SWAP1 JUMPDEST DUP2 SLOAD DUP2 MSTORE SWAP1 PUSH1 0x1 ADD SWAP1 PUSH1 0x20 ADD DUP1 DUP4 GT PUSH2 0x348 JUMPI DUP3 SWAP1 SUB PUSH1 0x1F AND DUP3 ADD SWAP2 JUMPDEST POP POP POP SWAP2 DUP4 MSTORE POP POP PUSH1 0x5 DUP3 ADD SLOAD PUSH1 0x1 PUSH1 0x1 PUSH1 0xA0 SHL SUB AND PUSH1 0x20 DUP3 ADD MSTORE PUSH1 0x6 DUP3 ADD DUP1 SLOAD PUSH1 0x40 SWAP1 SWAP3 ADD SWAP2 PUSH2 0x395 SWAP1 PUSH2 0x20D4 JUMP JUMPDEST DUP1 PUSH1 0x1F ADD PUSH1 0x20 DUP1 SWAP2 DIV MUL PUSH1 0x20 ADD PUSH1 0x40 MLOAD SWAP1 DUP2 ADD PUSH1 0x40 MSTORE DUP1 SWAP3 SWAP2 SWAP1 DUP2 DUP2 MSTORE PUSH1 0x20 ADD DUP3 DUP1 SLOAD PUSH2 0x3C1 SWAP1 PUSH2 0x20D4 JUMP JUMPDEST DUP1 ISZERO PUSH2 0x40E JUMPI DUP1 PUSH1 0x1F LT PUSH2 0x3E3 JUMPI PUSH2 0x100 DUP1 DUP4 SLOAD DIV MUL DUP4 MSTORE SWAP2 PUSH1 0x20 ADD SWAP2 PUSH2 0x40E JUMP JUMPDEST DUP3 ADD SWAP2 SWAP1 PUSH1 0x0 MSTORE PUSH1 0x20 PUSH1 0x0 KECCAK256 SWAP1 JUMPDEST DUP2 SLOAD DUP2 MSTORE SWAP1 PUSH1 0x1 ADD SWAP1 PUSH1 0x20 ADD DUP1 DUP4 GT PUSH2 0x3F1 JUMPI DUP3 SWAP1 SUB PUSH1 0x1F AND DUP3 ADD SWAP2 JUMPDEST POP POP POP POP POP DUP2 MSTORE PUSH1 0x20 ADD PUSH1 0x7 DUP3 ADD DUP1 SLOAD PUSH2 0x427 SWAP1 PUSH2 0x20D4 JUMP JUMPDEST DUP1 PUSH1 0x1F ADD PUSH1 0x20 DUP1 SWAP2 DIV MUL PUSH1 0x20 ADD PUSH1 0x40 MLOAD SWAP1 DUP2 ADD PUSH1 0x40 MSTORE DUP1 SWAP3 SWAP2 SWAP1 DUP2 DUP2 MSTORE PUSH1 0x20 ADD DUP3 DUP1 SLOAD PUSH2 0x453 SWAP1 PUSH2 0x20D4 JUMP JUMPDEST DUP1 ISZERO PUSH2 0x4A0 JUMPI DUP1 PUSH1 0x1F LT PUSH2 0x475 JUMPI PUSH2 0x100 DUP1 DUP4 SLOAD DIV MUL DUP4 MSTORE SWAP2 PUSH1 0x20 ADD SWAP2 PUSH2 0x4A0 JUMP JUMPDEST DUP3 ADD SWAP2 SWAP1 PUSH1 0x0 MSTORE PUSH1 0x20 PUSH1 0x0 KECCAK256 SWAP1 JUMPDEST DUP2 SLOAD DUP2 MSTORE SWAP1 PUSH1 0x1 ADD SWAP1 PUSH1 0x20 ADD DUP1 DUP4 GT PUSH2 0x483 JUMPI DUP3 SWAP1 SUB PUSH1 0x1F AND DUP3 ADD SWAP2 JUMPDEST POP POP POP POP POP DUP2 MSTORE PUSH1 0x20 ADD PUSH1 0x8 DUP3 ADD DUP1 SLOAD PUSH2 0x4B9 SWAP1 PUSH2 0x20D4 JUMP JUMPDEST DUP1 PUSH1 0x1F ADD PUSH1 0x20 DUP1 SWAP2 DIV MUL PUSH1 0x20 ADD PUSH1 0x40 MLOAD SWAP1 DUP2 ADD PUSH1 0x40 MSTORE DUP1 SWAP3 SWAP2 SWAP1 DUP2 DUP2 MSTORE PUSH1 0x20 ADD DUP3 DUP1 SLOAD PUSH2 0x4E5 SWAP1 PUSH2 0x20D4 JUMP JUMPDEST DUP1 ISZERO PUSH2 0x532 JUMPI DUP1 PUSH1 0x1F LT PUSH2 0x507 JUMPI PUSH2 0x100 DUP1 DUP4 SLOAD DIV MUL DUP4 MSTORE SWAP2 PUSH1 0x20 ADD SWAP2 PUSH2 0x532 JUMP JUMPDEST DUP3 ADD SWAP2 SWAP1 PUSH1 0x0 MSTORE PUSH1 0x20 PUSH1 0x0 KECCAK256 SWAP1 JUMPDEST DUP2 SLOAD DUP2 MSTORE SWAP1 PUSH1 0x1 ADD SWAP1 PUSH1 0x20 ADD DUP1 DUP4 GT PUSH2 0x515 JUMPI DUP3 SWAP1 SUB PUSH1 0x1F AND DUP3 ADD SWAP2 JUMPDEST POP POP POP SWAP2 DUP4 MSTORE POP POP PUSH1 0x9 DUP3 ADD SLOAD PUSH1 0x20 SWAP1 SWAP2 ADD SWAP1 PUSH1 0xFF AND PUSH1 0x4 DUP2 GT ISZERO PUSH2 0x559 JUMPI PUSH2 0x559 PUSH2 0x1AE7 JUMP JUMPDEST PUSH1 0x4 DUP2 GT ISZERO PUSH2 0x56A JUMPI PUSH2 0x56A PUSH2 0x1AE7 JUMP JUMPDEST DUP2 MSTORE PUSH1 0x20 ADD PUSH1 0xA DUP3 ADD DUP1 SLOAD PUSH2 0x57E SWAP1 PUSH2 0x20D4 JUMP JUMPDEST DUP1 PUSH1 0x1F ADD PUSH1 0x20 DUP1 SWAP2 DIV MUL PUSH1 0x20 ADD PUSH1 0x40 MLOAD SWAP1 DUP2 ADD PUSH1 0x40 MSTORE DUP1 SWAP3 SWAP2 SWAP1 DUP2 DUP2 MSTORE PUSH1 0x20 ADD DUP3 DUP1 SLOAD PUSH2 0x5AA SWAP1 PUSH2 0x20D4 JUMP JUMPDEST DUP1 ISZERO PUSH2 0x5F7 JUMPI DUP1 PUSH1 0x1F LT PUSH2 0x5CC JUMPI PUSH2 0x100 DUP1 DUP4 SLOAD DIV MUL DUP4 MSTORE SWAP2 PUSH1 0x20 ADD SWAP2 PUSH2 0x5F7 JUMP JUMPDEST DUP3 ADD SWAP2 SWAP1 PUSH1 0x0 MSTORE PUSH1 0x20 PUSH1 0x0 KECCAK256 SWAP1 JUMPDEST DUP2 SLOAD DUP2 MSTORE SWAP1 PUSH1 0x1 ADD SWAP1 PUSH1 0x20 ADD DUP1 DUP4 GT PUSH2 0x5DA JUMPI DUP3 SWAP1 SUB PUSH1 0x1F AND DUP3 ADD SWAP2 JUMPDEST POP POP POP POP POP DUP2 MSTORE PUSH1 0x20 ADD PUSH1 0xB DUP3 ADD DUP1 SLOAD PUSH2 0x610 SWAP1 PUSH2 0x20D4 JUMP JUMPDEST DUP1 PUSH1 0x1F ADD PUSH1 0x20 DUP1 SWAP2 DIV MUL PUSH1 0x20 ADD PUSH1 0x40 MLOAD SWAP1 DUP2 ADD PUSH1 0x40 MSTORE DUP1 SWAP3 SWAP2 SWAP1 DUP2 DUP2 MSTORE PUSH1 0x20 ADD DUP3 DUP1 SLOAD PUSH2 0x63C SWAP1 PUSH2 0x20D4 JUMP JUMPDEST DUP1 ISZERO PUSH2 0x689 JUMPI DUP1 PUSH1 0x1F LT PUSH2 0x65E JUMPI PUSH2 0x100 DUP1 DUP4 SLOAD DIV MUL DUP4 MSTORE SWAP2 PUSH1 0x20 ADD SWAP2 PUSH2 0x689 JUMP JUMPDEST DUP3 ADD SWAP2 SWAP1 PUSH1 0x0 MSTORE PUSH1 0x20 PUSH1 0x0 KECCAK256 SWAP1 JUMPDEST DUP2 SLOAD DUP2 MSTORE SWAP1 PUSH1 0x1 ADD SWAP1 PUSH1 0x20 ADD DUP1 DUP4 GT PUSH2 0x66C JUMPI DUP3 SWAP1 SUB PUSH1 0x1F AND DUP3 ADD SWAP2 JUMPDEST POP POP POP POP POP DUP2 MSTORE PUSH1 0x20 ADD PUSH1 0xC DUP3 ADD DUP1 SLOAD PUSH2 0x6A2 SWAP1 PUSH2 0x20D4 JUMP JUMPDEST DUP1 PUSH1 0x1F ADD PUSH1 0x20 DUP1 SWAP2 DIV MUL PUSH1 0x20 ADD PUSH1 0x40 MLOAD SWAP1 DUP2 ADD PUSH1 0x40 MSTORE DUP1 SWAP3 SWAP2 SWAP1 DUP2 DUP2 MSTORE PUSH1 0x20 ADD DUP3 DUP1 SLOAD PUSH2 0x6CE SWAP1 PUSH2 0x20D4 JUMP JUMPDEST DUP1 ISZERO PUSH2 0x71B JUMPI DUP1 PUSH1 0x1F LT PUSH2 0x6F0 JUMPI PUSH2 0x100 DUP1 DUP4 SLOAD DIV MUL DUP4 MSTORE SWAP2 PUSH1 0x20 ADD SWAP2 PUSH2 0x71B JUMP JUMPDEST DUP3 ADD SWAP2 SWAP1 PUSH1 0x0 MSTORE PUSH1 0x20 PUSH1 0x0 KECCAK256 SWAP1 JUMPDEST DUP2 SLOAD DUP2 MSTORE SWAP1 PUSH1 0x1 ADD SWAP1 PUSH1 0x20 ADD DUP1 DUP4 GT PUSH2 0x6FE JUMPI DUP3 SWAP1 SUB PUSH1 0x1F AND DUP3 ADD SWAP2 JUMPDEST POP POP POP POP POP DUP2 MSTORE PUSH1 0x20 ADD PUSH1 0xD DUP3 ADD DUP1 SLOAD PUSH2 0x734 SWAP1 PUSH2 0x20D4 JUMP JUMPDEST DUP1 PUSH1 0x1F ADD PUSH1 0x20 DUP1 SWAP2 DIV MUL PUSH1 0x20 ADD PUSH1 0x40 MLOAD SWAP1 DUP2 ADD PUSH1 0x40 MSTORE DUP1 SWAP3 SWAP2 SWAP1 DUP2 DUP2 MSTORE PUSH1 0x20 ADD DUP3 DUP1 SLOAD PUSH2 0x760 SWAP1 PUSH2 0x20D4 JUMP JUMPDEST DUP1 ISZERO PUSH2 0x7AD JUMPI DUP1 PUSH1 0x1F LT PUSH2 0x782 JUMPI PUSH2 0x100 DUP1 DUP4 SLOAD DIV MUL DUP4 MSTORE SWAP2 PUSH1 0x20 ADD SWAP2 PUSH2 0x7AD JUMP JUMPDEST DUP3 ADD SWAP2 SWAP1 PUSH1 0x0 MSTORE PUSH1 0x20 PUSH1 0x0 KECCAK256 SWAP1 JUMPDEST DUP2 SLOAD DUP2 MSTORE SWAP1 PUSH1 0x1 ADD SWAP1 PUSH1 0x20 ADD DUP1 DUP4 GT PUSH2 0x790 JUMPI DUP3 SWAP1 SUB PUSH1 0x1F AND DUP3 ADD SWAP2 JUMPDEST POP POP POP SWAP2 DUP4 MSTORE POP POP PUSH1 0xE DUP3 ADD SLOAD PUSH1 0xFF DUP1 DUP3 AND ISZERO ISZERO PUSH1 0x20 DUP5 ADD MSTORE PUSH2 0x100 DUP3 DIV DUP2 AND ISZERO ISZERO PUSH1 0x40 DUP5 ADD MSTORE PUSH3 0x10000 SWAP1 SWAP2 DIV DUP2 AND ISZERO ISZERO PUSH1 0x60 DUP4 ADD MSTORE PUSH1 0xF DUP4 ADD SLOAD PUSH1 0x80 DUP4 ADD MSTORE PUSH1 0x10 DUP4 ADD SLOAD PUSH1 0xA0 SWAP1 SWAP3 ADD SWAP2 AND PUSH1 0x2 DUP2 GT ISZERO PUSH2 0x80B JUMPI PUSH2 0x80B PUSH2 0x1AE7 JUMP JUMPDEST PUSH1 0x2 DUP2 GT ISZERO PUSH2 0x81C JUMPI PUSH2 0x81C PUSH2 0x1AE7 JUMP JUMPDEST SWAP1 MSTORE POP SWAP3 SWAP2 POP POP JUMP JUMPDEST PUSH1 0x0 DUP1 PUSH2 0x875 DUP4 PUSH1 0x40 ADD MLOAD DUP5 PUSH1 0x0 ADD MLOAD DUP6 PUSH2 0x100 ADD MLOAD DUP7 PUSH2 0x120 ADD MLOAD DUP8 PUSH2 0x140 ADD MLOAD PUSH1 0x40 MLOAD PUSH1 0x20 ADD PUSH2 0x85B SWAP6 SWAP5 SWAP4 SWAP3 SWAP2 SWAP1 PUSH2 0x210E JUMP JUMPDEST PUSH1 0x40 MLOAD PUSH1 0x20 DUP2 DUP4 SUB SUB DUP2 MSTORE SWAP1 PUSH1 0x40 MSTORE DUP1 MLOAD PUSH1 0x20 SWAP1 SWAP2 ADD KECCAK256 SWAP1 JUMP JUMPDEST PUSH1 0x40 MLOAD PUSH1 0x20 ADD PUSH2 0x887 SWAP2 DUP2 MSTORE PUSH1 0x20 ADD SWAP1 JUMP JUMPDEST PUSH1 0x40 MLOAD PUSH1 0x20 DUP2 DUP4 SUB SUB DUP2 MSTORE SWAP1 PUSH1 0x40 MSTORE SWAP1 POP DUP3 PUSH1 0x6 DUP3 PUSH1 0x40 MLOAD PUSH2 0x8A9 SWAP2 SWAP1 PUSH2 0x20B8 JUMP JUMPDEST SWAP1 DUP2 MSTORE PUSH1 0x40 DUP1 MLOAD PUSH1 0x20 SWAP3 DUP2 SWAP1 SUB DUP4 ADD SWAP1 KECCAK256 DUP4 MLOAD DUP2 SSTORE SWAP2 DUP4 ADD MLOAD PUSH1 0x1 DUP4 ADD DUP1 SLOAD PUSH1 0xFF NOT AND SWAP2 ISZERO ISZERO SWAP2 SWAP1 SWAP2 OR SWAP1 SSTORE DUP3 ADD MLOAD PUSH1 0x2 DUP3 ADD SSTORE PUSH1 0x60 DUP3 ADD MLOAD PUSH1 0x3 DUP3 ADD SWAP1 PUSH2 0x8F1 SWAP1 DUP3 PUSH2 0x21B8 JUMP JUMPDEST POP PUSH1 0x80 DUP3 ADD MLOAD PUSH1 0x4 DUP3 ADD SWAP1 PUSH2 0x906 SWAP1 DUP3 PUSH2 0x21B8 JUMP JUMPDEST POP PUSH1 0xA0 DUP3 ADD MLOAD PUSH1 0x5 DUP3 ADD DUP1 SLOAD PUSH1 0x1 PUSH1 0x1 PUSH1 0xA0 SHL SUB NOT AND PUSH1 0x1 PUSH1 0x1 PUSH1 0xA0 SHL SUB SWAP1 SWAP3 AND SWAP2 SWAP1 SWAP2 OR SWAP1 SSTORE PUSH1 0xC0 DUP3 ADD MLOAD PUSH1 0x6 DUP3 ADD SWAP1 PUSH2 0x941 SWAP1 DUP3 PUSH2 0x21B8 JUMP JUMPDEST POP PUSH1 0xE0 DUP3 ADD MLOAD PUSH1 0x7 DUP3 ADD SWAP1 PUSH2 0x956 SWAP1 DUP3 PUSH2 0x21B8 JUMP JUMPDEST POP PUSH2 0x100 DUP3 ADD MLOAD PUSH1 0x8 DUP3 ADD SWAP1 PUSH2 0x96C SWAP1 DUP3 PUSH2 0x21B8 JUMP JUMPDEST POP PUSH2 0x120 DUP3 ADD MLOAD PUSH1 0x9 DUP3 ADD DUP1 SLOAD PUSH1 0xFF NOT AND PUSH1 0x1 DUP4 PUSH1 0x4 DUP2 GT ISZERO PUSH2 0x991 JUMPI PUSH2 0x991 PUSH2 0x1AE7 JUMP JUMPDEST MUL OR SWAP1 SSTORE POP PUSH2 0x140 DUP3 ADD MLOAD PUSH1 0xA DUP3 ADD SWAP1 PUSH2 0x9AB SWAP1 DUP3 PUSH2 0x21B8 JUMP JUMPDEST POP PUSH2 0x160 DUP3 ADD MLOAD PUSH1 0xB DUP3 ADD SWAP1 PUSH2 0x9C1 SWAP1 DUP3 PUSH2 0x21B8 JUMP JUMPDEST POP PUSH2 0x180 DUP3 ADD MLOAD PUSH1 0xC DUP3 ADD SWAP1 PUSH2 0x9D7 SWAP1 DUP3 PUSH2 0x21B8 JUMP JUMPDEST POP PUSH2 0x1A0 DUP3 ADD MLOAD PUSH1 0xD DUP3 ADD SWAP1 PUSH2 0x9ED SWAP1 DUP3 PUSH2 0x21B8 JUMP JUMPDEST POP PUSH2 0x1C0 DUP3 ADD MLOAD PUSH1 0xE DUP3 ADD DUP1 SLOAD PUSH2 0x1E0 DUP6 ADD MLOAD PUSH2 0x200 DUP7 ADD MLOAD ISZERO ISZERO PUSH3 0x10000 MUL PUSH3 0xFF0000 NOT SWAP2 ISZERO ISZERO PUSH2 0x100 MUL PUSH2 0xFF00 NOT SWAP6 ISZERO ISZERO SWAP6 SWAP1 SWAP6 AND PUSH2 0xFFFF NOT SWAP1 SWAP4 AND SWAP3 SWAP1 SWAP3 OR SWAP4 SWAP1 SWAP4 OR SWAP3 SWAP1 SWAP3 AND SWAP2 SWAP1 SWAP2 OR SWAP1 SSTORE PUSH2 0x220 DUP3 ADD MLOAD PUSH1 0xF DUP3 ADD SSTORE PUSH2 0x240 DUP3 ADD MLOAD PUSH1 0x10 DUP3 ADD DUP1 SLOAD PUSH1 0xFF NOT AND PUSH1 0x1 DUP4 PUSH1 0x2 DUP2 GT ISZERO PUSH2 0xA6C JUMPI PUSH2 0xA6C PUSH2 0x1AE7 JUMP JUMPDEST MUL OR SWAP1 SSTORE POP POP PUSH1 0x7 DUP1 SLOAD PUSH1 0x1 DUP2 ADD DUP3 SSTORE PUSH1 0x0 SWAP2 SWAP1 SWAP2 MSTORE PUSH32 0xA66CC928B5EDB82AF9BD49922954155AB7B0942694BEA4CE44661D9A8736C688 ADD SWAP1 POP PUSH2 0xAB0 DUP3 DUP3 PUSH2 0x21B8 JUMP JUMPDEST POP PUSH1 0x1 SWAP4 SWAP3 POP POP POP JUMP JUMPDEST PUSH1 0x4 DUP1 SLOAD PUSH1 0x40 MLOAD PUSH4 0xA2119377 PUSH1 0xE0 SHL DUP2 MSTORE PUSH1 0x0 SWAP3 DUP4 SWAP3 PUSH1 0x1 PUSH1 0x1 PUSH1 0xA0 SHL SUB AND SWAP2 PUSH4 0xA2119377 SWAP2 PUSH2 0xAEE SWAP2 DUP8 SWAP2 CALLER SWAP2 ADD PUSH2 0x2278 JUMP JUMPDEST PUSH1 0x20 PUSH1 0x40 MLOAD DUP1 DUP4 SUB DUP2 PUSH1 0x0 DUP8 GAS CALL ISZERO DUP1 ISZERO PUSH2 0xB0D JUMPI RETURNDATASIZE PUSH1 0x0 DUP1 RETURNDATACOPY RETURNDATASIZE PUSH1 0x0 REVERT JUMPDEST POP POP POP POP PUSH1 0x40 MLOAD RETURNDATASIZE PUSH1 0x1F NOT PUSH1 0x1F DUP3 ADD AND DUP3 ADD DUP1 PUSH1 0x40 MSTORE POP DUP2 ADD SWAP1 PUSH2 0xB31 SWAP2 SWAP1 PUSH2 0x22A2 JUMP JUMPDEST SWAP1 POP DUP1 PUSH1 0x6 DUP6 PUSH1 0x40 MLOAD PUSH2 0xB44 SWAP2 SWAP1 PUSH2 0x20B8 JUMP JUMPDEST SWAP1 DUP2 MSTORE PUSH1 0x40 MLOAD SWAP1 DUP2 SWAP1 SUB PUSH1 0x20 ADD DUP2 KECCAK256 SWAP2 SWAP1 SWAP2 SSTORE PUSH1 0x1 SWAP1 PUSH1 0x6 SWAP1 PUSH2 0xB68 SWAP1 DUP8 SWAP1 PUSH2 0x20B8 JUMP JUMPDEST SWAP1 DUP2 MSTORE PUSH1 0x40 MLOAD SWAP1 DUP2 SWAP1 SUB PUSH1 0x20 ADD SWAP1 KECCAK256 PUSH1 0x10 ADD DUP1 SLOAD PUSH1 0xFF NOT AND PUSH1 0x1 DUP4 PUSH1 0x2 DUP2 GT ISZERO PUSH2 0xB94 JUMPI PUSH2 0xB94 PUSH2 0x1AE7 JUMP JUMPDEST MUL OR SWAP1 SSTORE POP PUSH1 0x1 SWAP5 SWAP4 POP POP POP POP JUMP JUMPDEST PUSH1 0x1 SLOAD PUSH1 0x1 PUSH1 0x1 PUSH1 0xA0 SHL SUB AND CALLER EQ PUSH2 0xBD6 JUMPI PUSH1 0x40 MLOAD PUSH3 0x461BCD PUSH1 0xE5 SHL DUP2 MSTORE PUSH1 0x4 ADD PUSH2 0xBCD SWAP1 PUSH2 0x22BB JUMP JUMPDEST PUSH1 0x40 MLOAD DUP1 SWAP2 SUB SWAP1 REVERT JUMPDEST PUSH2 0xBE0 PUSH1 0x0 PUSH2 0x17B6 JUMP JUMPDEST JUMP JUMPDEST PUSH1 0x4 DUP1 SLOAD PUSH1 0x40 MLOAD PUSH4 0xA2119377 PUSH1 0xE0 SHL DUP2 MSTORE PUSH1 0x0 SWAP3 DUP4 SWAP3 PUSH1 0x1 PUSH1 0x1 PUSH1 0xA0 SHL SUB AND SWAP2 PUSH4 0xA2119377 SWAP2 PUSH2 0xC16 SWAP2 DUP8 SWAP2 CALLER SWAP2 ADD PUSH2 0x2278 JUMP JUMPDEST PUSH1 0x20 PUSH1 0x40 MLOAD DUP1 DUP4 SUB DUP2 PUSH1 0x0 DUP8 GAS CALL ISZERO DUP1 ISZERO PUSH2 0xC35 JUMPI RETURNDATASIZE PUSH1 0x0 DUP1 RETURNDATACOPY RETURNDATASIZE PUSH1 0x0 REVERT JUMPDEST POP POP POP POP PUSH1 0x40 MLOAD RETURNDATASIZE PUSH1 0x1F NOT PUSH1 0x1F DUP3 ADD AND DUP3 ADD DUP1 PUSH1 0x40 MSTORE POP DUP2 ADD SWAP1 PUSH2 0xC59 SWAP2 SWAP1 PUSH2 0x22A2 JUMP JUMPDEST DUP1 DUP6 MSTORE PUSH1 0x40 DUP1 DUP7 ADD MLOAD PUSH2 0x100 DUP8 ADD MLOAD PUSH2 0x120 DUP9 ADD MLOAD PUSH2 0x140 DUP10 ADD MLOAD SWAP4 MLOAD SWAP5 SWAP6 POP PUSH1 0x0 SWAP5 PUSH2 0xC94 SWAP5 PUSH2 0x85B SWAP5 SWAP4 DUP9 SWAP4 SWAP1 SWAP3 SWAP1 SWAP2 SWAP1 PUSH1 0x20 ADD PUSH2 0x210E JUMP JUMPDEST PUSH1 0x40 MLOAD PUSH1 0x20 ADD PUSH2 0xCA6 SWAP2 DUP2 MSTORE PUSH1 0x20 ADD SWAP1 JUMP JUMPDEST PUSH1 0x40 MLOAD PUSH1 0x20 DUP2 DUP4 SUB SUB DUP2 MSTORE SWAP1 PUSH1 0x40 MSTORE SWAP1 POP DUP5 PUSH1 0x6 DUP3 PUSH1 0x40 MLOAD PUSH2 0xCC8 SWAP2 SWAP1 PUSH2 0x20B8 JUMP JUMPDEST SWAP1 DUP2 MSTORE PUSH1 0x40 DUP1 MLOAD PUSH1 0x20 SWAP3 DUP2 SWAP1 SUB DUP4 ADD SWAP1 KECCAK256 DUP4 MLOAD DUP2 SSTORE SWAP2 DUP4 ADD MLOAD PUSH1 0x1 DUP4 ADD DUP1 SLOAD PUSH1 0xFF NOT AND SWAP2 ISZERO ISZERO SWAP2 SWAP1 SWAP2 OR SWAP1 SSTORE DUP3 ADD MLOAD PUSH1 0x2 DUP3 ADD SSTORE PUSH1 0x60 DUP3 ADD MLOAD PUSH1 0x3 DUP3 ADD SWAP1 PUSH2 0xD10 SWAP1 DUP3 PUSH2 0x21B8 JUMP JUMPDEST POP PUSH1 0x80 DUP3 ADD MLOAD PUSH1 0x4 DUP3 ADD SWAP1 PUSH2 0xD25 SWAP1 DUP3 PUSH2 0x21B8 JUMP JUMPDEST POP PUSH1 0xA0 DUP3 ADD MLOAD PUSH1 0x5 DUP3 ADD DUP1 SLOAD PUSH1 0x1 PUSH1 0x1 PUSH1 0xA0 SHL SUB NOT AND PUSH1 0x1 PUSH1 0x1 PUSH1 0xA0 SHL SUB SWAP1 SWAP3 AND SWAP2 SWAP1 SWAP2 OR SWAP1 SSTORE PUSH1 0xC0 DUP3 ADD MLOAD PUSH1 0x6 DUP3 ADD SWAP1 PUSH2 0xD60 SWAP1 DUP3 PUSH2 0x21B8 JUMP JUMPDEST POP PUSH1 0xE0 DUP3 ADD MLOAD PUSH1 0x7 DUP3 ADD SWAP1 PUSH2 0xD75 SWAP1 DUP3 PUSH2 0x21B8 JUMP JUMPDEST POP PUSH2 0x100 DUP3 ADD MLOAD PUSH1 0x8 DUP3 ADD SWAP1 PUSH2 0xD8B SWAP1 DUP3 PUSH2 0x21B8 JUMP JUMPDEST POP PUSH2 0x120 DUP3 ADD MLOAD PUSH1 0x9 DUP3 ADD DUP1 SLOAD PUSH1 0xFF NOT AND PUSH1 0x1 DUP4 PUSH1 0x4 DUP2 GT ISZERO PUSH2 0xDB0 JUMPI PUSH2 0xDB0 PUSH2 0x1AE7 JUMP JUMPDEST MUL OR SWAP1 SSTORE POP PUSH2 0x140 DUP3 ADD MLOAD PUSH1 0xA DUP3 ADD SWAP1 PUSH2 0xDCA SWAP1 DUP3 PUSH2 0x21B8 JUMP JUMPDEST POP PUSH2 0x160 DUP3 ADD MLOAD PUSH1 0xB DUP3 ADD SWAP1 PUSH2 0xDE0 SWAP1 DUP3 PUSH2 0x21B8 JUMP JUMPDEST POP PUSH2 0x180 DUP3 ADD MLOAD PUSH1 0xC DUP3 ADD SWAP1 PUSH2 0xDF6 SWAP1 DUP3 PUSH2 0x21B8 JUMP JUMPDEST POP PUSH2 0x1A0 DUP3 ADD MLOAD PUSH1 0xD DUP3 ADD SWAP1 PUSH2 0xE0C SWAP1 DUP3 PUSH2 0x21B8 JUMP JUMPDEST POP PUSH2 0x1C0 DUP3 ADD MLOAD PUSH1 0xE DUP3 ADD DUP1 SLOAD PUSH2 0x1E0 DUP6 ADD MLOAD PUSH2 0x200 DUP7 ADD MLOAD ISZERO ISZERO PUSH3 0x10000 MUL PUSH3 0xFF0000 NOT SWAP2 ISZERO ISZERO PUSH2 0x100 MUL PUSH2 0xFF00 NOT SWAP6 ISZERO ISZERO SWAP6 SWAP1 SWAP6 AND PUSH2 0xFFFF NOT SWAP1 SWAP4 AND SWAP3 SWAP1 SWAP3 OR SWAP4 SWAP1 SWAP4 OR SWAP3 SWAP1 SWAP3 AND SWAP2 SWAP1 SWAP2 OR SWAP1 SSTORE PUSH2 0x220 DUP3 ADD MLOAD PUSH1 0xF DUP3 ADD SSTORE PUSH2 0x240 DUP3 ADD MLOAD PUSH1 0x10 DUP3 ADD DUP1 SLOAD PUSH1 0xFF NOT AND PUSH1 0x1 DUP4 PUSH1 0x2 DUP2 GT ISZERO PUSH2 0xE8B JUMPI PUSH2 0xE8B PUSH2 0x1AE7 JUMP JUMPDEST MUL OR SWAP1 SSTORE POP POP PUSH1 0x7 DUP1 SLOAD PUSH1 0x1 DUP2 ADD DUP3 SSTORE PUSH1 0x0 SWAP2 SWAP1 SWAP2 MSTORE PUSH32 0xA66CC928B5EDB82AF9BD49922954155AB7B0942694BEA4CE44661D9A8736C688 ADD SWAP1 POP PUSH2 0xECF DUP3 DUP3 PUSH2 0x21B8 JUMP JUMPDEST POP PUSH1 0x1 SWAP6 SWAP5 POP POP POP POP POP JUMP JUMPDEST PUSH1 0x60 PUSH1 0x0 PUSH2 0xF0D PUSH1 0x6 DUP5 PUSH1 0x40 MLOAD PUSH2 0xEF2 SWAP2 SWAP1 PUSH2 0x20B8 JUMP JUMPDEST SWAP1 DUP2 MSTORE PUSH1 0x40 MLOAD SWAP1 DUP2 SWAP1 SUB PUSH1 0x20 ADD SWAP1 KECCAK256 PUSH1 0x10 ADD SLOAD PUSH1 0xFF AND PUSH2 0x1808 JUMP JUMPDEST SWAP4 SWAP3 POP POP POP JUMP JUMPDEST PUSH1 0x1 SLOAD PUSH1 0x1 PUSH1 0x1 PUSH1 0xA0 SHL SUB AND CALLER EQ PUSH2 0xF3E JUMPI PUSH1 0x40 MLOAD PUSH3 0x461BCD PUSH1 0xE5 SHL DUP2 MSTORE PUSH1 0x4 ADD PUSH2 0xBCD SWAP1 PUSH2 0x22BB JUMP JUMPDEST PUSH1 0x1 PUSH1 0x1 PUSH1 0xA0 SHL SUB DUP2 AND PUSH2 0xFA3 JUMPI PUSH1 0x40 MLOAD PUSH3 0x461BCD PUSH1 0xE5 SHL DUP2 MSTORE PUSH1 0x20 PUSH1 0x4 DUP3 ADD MSTORE PUSH1 0x26 PUSH1 0x24 DUP3 ADD MSTORE PUSH32 0x4F776E61626C653A206E6577206F776E657220697320746865207A65726F2061 PUSH1 0x44 DUP3 ADD MSTORE PUSH6 0x646472657373 PUSH1 0xD0 SHL PUSH1 0x64 DUP3 ADD MSTORE PUSH1 0x84 ADD PUSH2 0xBCD JUMP JUMPDEST PUSH2 0xFAC DUP2 PUSH2 0x17B6 JUMP JUMPDEST POP JUMP JUMPDEST PUSH1 0x1 SLOAD PUSH1 0x60 SWAP1 PUSH1 0x1 PUSH1 0x1 PUSH1 0xA0 SHL SUB AND CALLER EQ PUSH2 0xFDC JUMPI PUSH1 0x40 MLOAD PUSH3 0x461BCD PUSH1 0xE5 SHL DUP2 MSTORE PUSH1 0x4 ADD PUSH2 0xBCD SWAP1 PUSH2 0x22BB JUMP JUMPDEST PUSH1 0x7 SLOAD PUSH1 0x1 DUP2 LT ISZERO PUSH2 0x1023 JUMPI PUSH1 0x40 MLOAD PUSH3 0x461BCD PUSH1 0xE5 SHL DUP2 MSTORE PUSH1 0x20 PUSH1 0x4 DUP3 ADD MSTORE PUSH1 0x10 PUSH1 0x24 DUP3 ADD MSTORE PUSH16 0x6173736574732061726520656D707479 PUSH1 0x80 SHL PUSH1 0x44 DUP3 ADD MSTORE PUSH1 0x64 ADD PUSH2 0xBCD JUMP JUMPDEST DUP1 DUP5 GT ISZERO DUP1 ISZERO PUSH2 0x1031 JUMPI POP PUSH1 0x1 JUMPDEST PUSH2 0x10A3 JUMPI PUSH1 0x40 MLOAD PUSH3 0x461BCD PUSH1 0xE5 SHL DUP2 MSTORE PUSH1 0x20 PUSH1 0x4 DUP3 ADD MSTORE PUSH1 0x3F PUSH1 0x24 DUP3 ADD MSTORE PUSH32 0x6C6F77657220626F756E646172792073686F756C64206265206C657373206F72 PUSH1 0x44 DUP3 ADD MSTORE PUSH32 0x20657175616C20746F2073697A6520616E64206E6F6E206E6567617469766500 PUSH1 0x64 DUP3 ADD MSTORE PUSH1 0x84 ADD PUSH2 0xBCD JUMP JUMPDEST DUP1 DUP4 GT ISZERO DUP1 ISZERO PUSH2 0x10B1 JUMPI POP PUSH1 0x1 JUMPDEST PUSH2 0x1123 JUMPI PUSH1 0x40 MLOAD PUSH3 0x461BCD PUSH1 0xE5 SHL DUP2 MSTORE PUSH1 0x20 PUSH1 0x4 DUP3 ADD MSTORE PUSH1 0x3F PUSH1 0x24 DUP3 ADD MSTORE PUSH32 0x757070657220626F756E646172792073686F756C64206265206C657373206F72 PUSH1 0x44 DUP3 ADD MSTORE PUSH32 0x20657175616C20746F2073697A6520616E64206E6F6E206E6567617469766500 PUSH1 0x64 DUP3 ADD MSTORE PUSH1 0x84 ADD PUSH2 0xBCD JUMP JUMPDEST PUSH1 0x60 PUSH1 0x0 DUP6 JUMPDEST DUP6 DUP2 GT PUSH2 0x17AB JUMPI PUSH1 0x6 PUSH1 0x7 DUP3 DUP2 SLOAD DUP2 LT PUSH2 0x1145 JUMPI PUSH2 0x1145 PUSH2 0x22F0 JUMP JUMPDEST SWAP1 PUSH1 0x0 MSTORE PUSH1 0x20 PUSH1 0x0 KECCAK256 ADD PUSH1 0x40 MLOAD PUSH2 0x115C SWAP2 SWAP1 PUSH2 0x2306 JUMP JUMPDEST SWAP1 DUP2 MSTORE PUSH1 0x40 DUP1 MLOAD SWAP2 DUP3 SWAP1 SUB PUSH1 0x20 SWAP1 DUP2 ADD DUP4 KECCAK256 PUSH2 0x260 DUP5 ADD DUP4 MSTORE DUP1 SLOAD DUP5 MSTORE PUSH1 0x1 DUP2 ADD SLOAD PUSH1 0xFF AND ISZERO ISZERO SWAP2 DUP5 ADD SWAP2 SWAP1 SWAP2 MSTORE PUSH1 0x2 DUP2 ADD SLOAD SWAP2 DUP4 ADD SWAP2 SWAP1 SWAP2 MSTORE PUSH1 0x3 DUP2 ADD DUP1 SLOAD PUSH1 0x60 DUP5 ADD SWAP2 SWAP1 PUSH2 0x11AB SWAP1 PUSH2 0x20D4 JUMP JUMPDEST DUP1 PUSH1 0x1F ADD PUSH1 0x20 DUP1 SWAP2 DIV MUL PUSH1 0x20 ADD PUSH1 0x40 MLOAD SWAP1 DUP2 ADD PUSH1 0x40 MSTORE DUP1 SWAP3 SWAP2 SWAP1 DUP2 DUP2 MSTORE PUSH1 0x20 ADD DUP3 DUP1 SLOAD PUSH2 0x11D7 SWAP1 PUSH2 0x20D4 JUMP JUMPDEST DUP1 ISZERO PUSH2 0x1224 JUMPI DUP1 PUSH1 0x1F LT PUSH2 0x11F9 JUMPI PUSH2 0x100 DUP1 DUP4 SLOAD DIV MUL DUP4 MSTORE SWAP2 PUSH1 0x20 ADD SWAP2 PUSH2 0x1224 JUMP JUMPDEST DUP3 ADD SWAP2 SWAP1 PUSH1 0x0 MSTORE PUSH1 0x20 PUSH1 0x0 KECCAK256 SWAP1 JUMPDEST DUP2 SLOAD DUP2 MSTORE SWAP1 PUSH1 0x1 ADD SWAP1 PUSH1 0x20 ADD DUP1 DUP4 GT PUSH2 0x1207 JUMPI DUP3 SWAP1 SUB PUSH1 0x1F AND DUP3 ADD SWAP2 JUMPDEST POP POP POP POP POP DUP2 MSTORE PUSH1 0x20 ADD PUSH1 0x4 DUP3 ADD DUP1 SLOAD PUSH2 0x123D SWAP1 PUSH2 0x20D4 JUMP JUMPDEST DUP1 PUSH1 0x1F ADD PUSH1 0x20 DUP1 SWAP2 DIV MUL PUSH1 0x20 ADD PUSH1 0x40 MLOAD SWAP1 DUP2 ADD PUSH1 0x40 MSTORE DUP1 SWAP3 SWAP2 SWAP1 DUP2 DUP2 MSTORE PUSH1 0x20 ADD DUP3 DUP1 SLOAD PUSH2 0x1269 SWAP1 PUSH2 0x20D4 JUMP JUMPDEST DUP1 ISZERO PUSH2 0x12B6 JUMPI DUP1 PUSH1 0x1F LT PUSH2 0x128B JUMPI PUSH2 0x100 DUP1 DUP4 SLOAD DIV MUL DUP4 MSTORE SWAP2 PUSH1 0x20 ADD SWAP2 PUSH2 0x12B6 JUMP JUMPDEST DUP3 ADD SWAP2 SWAP1 PUSH1 0x0 MSTORE PUSH1 0x20 PUSH1 0x0 KECCAK256 SWAP1 JUMPDEST DUP2 SLOAD DUP2 MSTORE SWAP1 PUSH1 0x1 ADD SWAP1 PUSH1 0x20 ADD DUP1 DUP4 GT PUSH2 0x1299 JUMPI DUP3 SWAP1 SUB PUSH1 0x1F AND DUP3 ADD SWAP2 JUMPDEST POP POP POP SWAP2 DUP4 MSTORE POP POP PUSH1 0x5 DUP3 ADD SLOAD PUSH1 0x1 PUSH1 0x1 PUSH1 0xA0 SHL SUB AND PUSH1 0x20 DUP3 ADD MSTORE PUSH1 0x6 DUP3 ADD DUP1 SLOAD PUSH1 0x40 SWAP1 SWAP3 ADD SWAP2 PUSH2 0x12E6 SWAP1 PUSH2 0x20D4 JUMP JUMPDEST DUP1 PUSH1 0x1F ADD PUSH1 0x20 DUP1 SWAP2 DIV MUL PUSH1 0x20 ADD PUSH1 0x40 MLOAD SWAP1 DUP2 ADD PUSH1 0x40 MSTORE DUP1 SWAP3 SWAP2 SWAP1 DUP2 DUP2 MSTORE PUSH1 0x20 ADD DUP3 DUP1 SLOAD PUSH2 0x1312 SWAP1 PUSH2 0x20D4 JUMP JUMPDEST DUP1 ISZERO PUSH2 0x135F JUMPI DUP1 PUSH1 0x1F LT PUSH2 0x1334 JUMPI PUSH2 0x100 DUP1 DUP4 SLOAD DIV MUL DUP4 MSTORE SWAP2 PUSH1 0x20 ADD SWAP2 PUSH2 0x135F JUMP JUMPDEST DUP3 ADD SWAP2 SWAP1 PUSH1 0x0 MSTORE PUSH1 0x20 PUSH1 0x0 KECCAK256 SWAP1 JUMPDEST DUP2 SLOAD DUP2 MSTORE SWAP1 PUSH1 0x1 ADD SWAP1 PUSH1 0x20 ADD DUP1 DUP4 GT PUSH2 0x1342 JUMPI DUP3 SWAP1 SUB PUSH1 0x1F AND DUP3 ADD SWAP2 JUMPDEST POP POP POP POP POP DUP2 MSTORE PUSH1 0x20 ADD PUSH1 0x7 DUP3 ADD DUP1 SLOAD PUSH2 0x1378 SWAP1 PUSH2 0x20D4 JUMP JUMPDEST DUP1 PUSH1 0x1F ADD PUSH1 0x20 DUP1 SWAP2 DIV MUL PUSH1 0x20 ADD PUSH1 0x40 MLOAD SWAP1 DUP2 ADD PUSH1 0x40 MSTORE DUP1 SWAP3 SWAP2 SWAP1 DUP2 DUP2 MSTORE PUSH1 0x20 ADD DUP3 DUP1 SLOAD PUSH2 0x13A4 SWAP1 PUSH2 0x20D4 JUMP JUMPDEST DUP1 ISZERO PUSH2 0x13F1 JUMPI DUP1 PUSH1 0x1F LT PUSH2 0x13C6 JUMPI PUSH2 0x100 DUP1 DUP4 SLOAD DIV MUL DUP4 MSTORE SWAP2 PUSH1 0x20 ADD SWAP2 PUSH2 0x13F1 JUMP JUMPDEST DUP3 ADD SWAP2 SWAP1 PUSH1 0x0 MSTORE PUSH1 0x20 PUSH1 0x0 KECCAK256 SWAP1 JUMPDEST DUP2 SLOAD DUP2 MSTORE SWAP1 PUSH1 0x1 ADD SWAP1 PUSH1 0x20 ADD DUP1 DUP4 GT PUSH2 0x13D4 JUMPI DUP3 SWAP1 SUB PUSH1 0x1F AND DUP3 ADD SWAP2 JUMPDEST POP POP POP POP POP DUP2 MSTORE PUSH1 0x20 ADD PUSH1 0x8 DUP3 ADD DUP1 SLOAD PUSH2 0x140A SWAP1 PUSH2 0x20D4 JUMP JUMPDEST DUP1 PUSH1 0x1F ADD PUSH1 0x20 DUP1 SWAP2 DIV MUL PUSH1 0x20 ADD PUSH1 0x40 MLOAD SWAP1 DUP2 ADD PUSH1 0x40 MSTORE DUP1 SWAP3 SWAP2 SWAP1 DUP2 DUP2 MSTORE PUSH1 0x20 ADD DUP3 DUP1 SLOAD PUSH2 0x1436 SWAP1 PUSH2 0x20D4 JUMP JUMPDEST DUP1 ISZERO PUSH2 0x1483 JUMPI DUP1 PUSH1 0x1F LT PUSH2 0x1458 JUMPI PUSH2 0x100 DUP1 DUP4 SLOAD DIV MUL DUP4 MSTORE SWAP2 PUSH1 0x20 ADD SWAP2 PUSH2 0x1483 JUMP JUMPDEST DUP3 ADD SWAP2 SWAP1 PUSH1 0x0 MSTORE PUSH1 0x20 PUSH1 0x0 KECCAK256 SWAP1 JUMPDEST DUP2 SLOAD DUP2 MSTORE SWAP1 PUSH1 0x1 ADD SWAP1 PUSH1 0x20 ADD DUP1 DUP4 GT PUSH2 0x1466 JUMPI DUP3 SWAP1 SUB PUSH1 0x1F AND DUP3 ADD SWAP2 JUMPDEST POP POP POP SWAP2 DUP4 MSTORE POP POP PUSH1 0x9 DUP3 ADD SLOAD PUSH1 0x20 SWAP1 SWAP2 ADD SWAP1 PUSH1 0xFF AND PUSH1 0x4 DUP2 GT ISZERO PUSH2 0x14AA JUMPI PUSH2 0x14AA PUSH2 0x1AE7 JUMP JUMPDEST PUSH1 0x4 DUP2 GT ISZERO PUSH2 0x14BB JUMPI PUSH2 0x14BB PUSH2 0x1AE7 JUMP JUMPDEST DUP2 MSTORE PUSH1 0x20 ADD PUSH1 0xA DUP3 ADD DUP1 SLOAD PUSH2 0x14CF SWAP1 PUSH2 0x20D4 JUMP JUMPDEST DUP1 PUSH1 0x1F ADD PUSH1 0x20 DUP1 SWAP2 DIV MUL PUSH1 0x20 ADD PUSH1 0x40 MLOAD SWAP1 DUP2 ADD PUSH1 0x40 MSTORE DUP1 SWAP3 SWAP2 SWAP1 DUP2 DUP2 MSTORE PUSH1 0x20 ADD DUP3 DUP1 SLOAD PUSH2 0x14FB SWAP1 PUSH2 0x20D4 JUMP JUMPDEST DUP1 ISZERO PUSH2 0x1548 JUMPI DUP1 PUSH1 0x1F LT PUSH2 0x151D JUMPI PUSH2 0x100 DUP1 DUP4 SLOAD DIV MUL DUP4 MSTORE SWAP2 PUSH1 0x20 ADD SWAP2 PUSH2 0x1548 JUMP JUMPDEST DUP3 ADD SWAP2 SWAP1 PUSH1 0x0 MSTORE PUSH1 0x20 PUSH1 0x0 KECCAK256 SWAP1 JUMPDEST DUP2 SLOAD DUP2 MSTORE SWAP1 PUSH1 0x1 ADD SWAP1 PUSH1 0x20 ADD DUP1 DUP4 GT PUSH2 0x152B JUMPI DUP3 SWAP1 SUB PUSH1 0x1F AND DUP3 ADD SWAP2 JUMPDEST POP POP POP POP POP DUP2 MSTORE PUSH1 0x20 ADD PUSH1 0xB DUP3 ADD DUP1 SLOAD PUSH2 0x1561 SWAP1 PUSH2 0x20D4 JUMP JUMPDEST DUP1 PUSH1 0x1F ADD PUSH1 0x20 DUP1 SWAP2 DIV MUL PUSH1 0x20 ADD PUSH1 0x40 MLOAD SWAP1 DUP2 ADD PUSH1 0x40 MSTORE DUP1 SWAP3 SWAP2 SWAP1 DUP2 DUP2 MSTORE PUSH1 0x20 ADD DUP3 DUP1 SLOAD PUSH2 0x158D SWAP1 PUSH2 0x20D4 JUMP JUMPDEST DUP1 ISZERO PUSH2 0x15DA JUMPI DUP1 PUSH1 0x1F LT PUSH2 0x15AF JUMPI PUSH2 0x100 DUP1 DUP4 SLOAD DIV MUL DUP4 MSTORE SWAP2 PUSH1 0x20 ADD SWAP2 PUSH2 0x15DA JUMP JUMPDEST DUP3 ADD SWAP2 SWAP1 PUSH1 0x0 MSTORE PUSH1 0x20 PUSH1 0x0 KECCAK256 SWAP1 JUMPDEST DUP2 SLOAD DUP2 MSTORE SWAP1 PUSH1 0x1 ADD SWAP1 PUSH1 0x20 ADD DUP1 DUP4 GT PUSH2 0x15BD JUMPI DUP3 SWAP1 SUB PUSH1 0x1F AND DUP3 ADD SWAP2 JUMPDEST POP POP POP POP POP DUP2 MSTORE PUSH1 0x20 ADD PUSH1 0xC DUP3 ADD DUP1 SLOAD PUSH2 0x15F3 SWAP1 PUSH2 0x20D4 JUMP JUMPDEST DUP1 PUSH1 0x1F ADD PUSH1 0x20 DUP1 SWAP2 DIV MUL PUSH1 0x20 ADD PUSH1 0x40 MLOAD SWAP1 DUP2 ADD PUSH1 0x40 MSTORE DUP1 SWAP3 SWAP2 SWAP1 DUP2 DUP2 MSTORE PUSH1 0x20 ADD DUP3 DUP1 SLOAD PUSH2 0x161F SWAP1 PUSH2 0x20D4 JUMP JUMPDEST DUP1 ISZERO PUSH2 0x166C JUMPI DUP1 PUSH1 0x1F LT PUSH2 0x1641 JUMPI PUSH2 0x100 DUP1 DUP4 SLOAD DIV MUL DUP4 MSTORE SWAP2 PUSH1 0x20 ADD SWAP2 PUSH2 0x166C JUMP JUMPDEST DUP3 ADD SWAP2 SWAP1 PUSH1 0x0 MSTORE PUSH1 0x20 PUSH1 0x0 KECCAK256 SWAP1 JUMPDEST DUP2 SLOAD DUP2 MSTORE SWAP1 PUSH1 0x1 ADD SWAP1 PUSH1 0x20 ADD DUP1 DUP4 GT PUSH2 0x164F JUMPI DUP3 SWAP1 SUB PUSH1 0x1F AND DUP3 ADD SWAP2 JUMPDEST POP POP POP POP POP DUP2 MSTORE PUSH1 0x20 ADD PUSH1 0xD DUP3 ADD DUP1 SLOAD PUSH2 0x1685 SWAP1 PUSH2 0x20D4 JUMP JUMPDEST DUP1 PUSH1 0x1F ADD PUSH1 0x20 DUP1 SWAP2 DIV MUL PUSH1 0x20 ADD PUSH1 0x40 MLOAD SWAP1 DUP2 ADD PUSH1 0x40 MSTORE DUP1 SWAP3 SWAP2 SWAP1 DUP2 DUP2 MSTORE PUSH1 0x20 ADD DUP3 DUP1 SLOAD PUSH2 0x16B1 SWAP1 PUSH2 0x20D4 JUMP JUMPDEST DUP1 ISZERO PUSH2 0x16FE JUMPI DUP1 PUSH1 0x1F LT PUSH2 0x16D3 JUMPI PUSH2 0x100 DUP1 DUP4 SLOAD DIV MUL DUP4 MSTORE SWAP2 PUSH1 0x20 ADD SWAP2 PUSH2 0x16FE JUMP JUMPDEST DUP3 ADD SWAP2 SWAP1 PUSH1 0x0 MSTORE PUSH1 0x20 PUSH1 0x0 KECCAK256 SWAP1 JUMPDEST DUP2 SLOAD DUP2 MSTORE SWAP1 PUSH1 0x1 ADD SWAP1 PUSH1 0x20 ADD DUP1 DUP4 GT PUSH2 0x16E1 JUMPI DUP3 SWAP1 SUB PUSH1 0x1F AND DUP3 ADD SWAP2 JUMPDEST POP POP POP SWAP2 DUP4 MSTORE POP POP PUSH1 0xE DUP3 ADD SLOAD PUSH1 0xFF DUP1 DUP3 AND ISZERO ISZERO PUSH1 0x20 DUP5 ADD MSTORE PUSH2 0x100 DUP3 DIV DUP2 AND ISZERO ISZERO PUSH1 0x40 DUP5 ADD MSTORE PUSH3 0x10000 SWAP1 SWAP2 DIV DUP2 AND ISZERO ISZERO PUSH1 0x60 DUP4 ADD MSTORE PUSH1 0xF DUP4 ADD SLOAD PUSH1 0x80 DUP4 ADD MSTORE PUSH1 0x10 DUP4 ADD SLOAD PUSH1 0xA0 SWAP1 SWAP3 ADD SWAP2 AND PUSH1 0x2 DUP2 GT ISZERO PUSH2 0x175C JUMPI PUSH2 0x175C PUSH2 0x1AE7 JUMP JUMPDEST PUSH1 0x2 DUP2 GT ISZERO PUSH2 0x176D JUMPI PUSH2 0x176D PUSH2 0x1AE7 JUMP JUMPDEST SWAP1 MSTORE POP DUP4 DUP4 PUSH2 0x177B DUP2 PUSH2 0x237C JUMP JUMPDEST SWAP5 POP DUP2 MLOAD DUP2 LT PUSH2 0x178D JUMPI PUSH2 0x178D PUSH2 0x22F0 JUMP JUMPDEST PUSH1 0x20 MUL PUSH1 0x20 ADD ADD DUP2 SWAP1 MSTORE POP DUP1 DUP1 PUSH2 0x17A3 SWAP1 PUSH2 0x237C JUMP JUMPDEST SWAP2 POP POP PUSH2 0x1129 JUMP JUMPDEST POP SWAP1 SWAP6 SWAP5 POP POP POP POP POP JUMP JUMPDEST PUSH1 0x1 DUP1 SLOAD PUSH1 0x1 PUSH1 0x1 PUSH1 0xA0 SHL SUB DUP4 DUP2 AND PUSH1 0x1 PUSH1 0x1 PUSH1 0xA0 SHL SUB NOT DUP4 AND DUP2 OR SWAP1 SWAP4 SSTORE PUSH1 0x40 MLOAD SWAP2 AND SWAP2 SWAP1 DUP3 SWAP1 PUSH32 0x8BE0079C531659141344CD1FD0A4F28419497F9722A3DAAFE3B4186F6B6457E0 SWAP1 PUSH1 0x0 SWAP1 LOG3 POP POP JUMP JUMPDEST PUSH1 0x60 PUSH1 0x3 DUP3 PUSH1 0x2 DUP2 GT ISZERO PUSH2 0x181E JUMPI PUSH2 0x181E PUSH2 0x1AE7 JUMP JUMPDEST PUSH1 0xFF AND GT ISZERO PUSH2 0x182C JUMPI PUSH1 0x0 DUP1 REVERT JUMPDEST DUP2 PUSH1 0x2 DUP2 GT ISZERO PUSH2 0x183E JUMPI PUSH2 0x183E PUSH2 0x1AE7 JUMP JUMPDEST PUSH1 0x0 SUB PUSH2 0x1868 JUMPI POP POP PUSH1 0x40 DUP1 MLOAD DUP1 DUP3 ADD SWAP1 SWAP2 MSTORE PUSH1 0x7 DUP2 MSTORE PUSH7 0x50656E64696E67 PUSH1 0xC8 SHL PUSH1 0x20 DUP3 ADD MSTORE SWAP1 JUMP JUMPDEST DUP2 PUSH1 0x2 DUP2 GT ISZERO PUSH2 0x187A JUMPI PUSH2 0x187A PUSH2 0x1AE7 JUMP JUMPDEST PUSH1 0x1 SUB PUSH2 0x18A4 JUMPI POP POP PUSH1 0x40 DUP1 MLOAD DUP1 DUP3 ADD SWAP1 SWAP2 MSTORE PUSH1 0x7 DUP2 MSTORE PUSH7 0x10DC99585D1959 PUSH1 0xCA SHL PUSH1 0x20 DUP3 ADD MSTORE SWAP1 JUMP JUMPDEST POP POP PUSH1 0x40 DUP1 MLOAD DUP1 DUP3 ADD SWAP1 SWAP2 MSTORE PUSH1 0x4 DUP2 MSTORE PUSH4 0x14DBDB19 PUSH1 0xE2 SHL PUSH1 0x20 DUP3 ADD MSTORE SWAP1 JUMP JUMPDEST SWAP2 SWAP1 POP JUMP JUMPDEST PUSH1 0x40 MLOAD DUP1 PUSH2 0x260 ADD PUSH1 0x40 MSTORE DUP1 PUSH1 0x0 DUP2 MSTORE PUSH1 0x20 ADD PUSH1 0x0 ISZERO ISZERO DUP2 MSTORE PUSH1 0x20 ADD PUSH1 0x0 DUP2 MSTORE PUSH1 0x20 ADD PUSH1 0x60 DUP2 MSTORE PUSH1 0x20 ADD PUSH1 0x60 DUP2 MSTORE PUSH1 0x20 ADD PUSH1 0x0 PUSH1 0x1 PUSH1 0x1 PUSH1 0xA0 SHL SUB AND DUP2 MSTORE PUSH1 0x20 ADD PUSH1 0x60 DUP2 MSTORE PUSH1 0x20 ADD PUSH1 0x60 DUP2 MSTORE PUSH1 0x20 ADD PUSH1 0x60 DUP2 MSTORE PUSH1 0x20 ADD PUSH1 0x0 PUSH1 0x4 DUP2 GT ISZERO PUSH2 0x1932 JUMPI PUSH2 0x1932 PUSH2 0x1AE7 JUMP JUMPDEST DUP2 MSTORE PUSH1 0x20 ADD PUSH1 0x60 DUP2 MSTORE PUSH1 0x20 ADD PUSH1 0x60 DUP2 MSTORE PUSH1 0x20 ADD PUSH1 0x60 DUP2 MSTORE PUSH1 0x20 ADD PUSH1 0x60 DUP2 MSTORE PUSH1 0x20 ADD PUSH1 0x0 ISZERO ISZERO DUP2 MSTORE PUSH1 0x20 ADD PUSH1 0x0 ISZERO ISZERO DUP2 MSTORE PUSH1 0x20 ADD PUSH1 0x0 ISZERO ISZERO DUP2 MSTORE PUSH1 0x20 ADD PUSH1 0x0 DUP2 MSTORE PUSH1 0x20 ADD PUSH1 0x0 PUSH1 0x2 DUP2 GT ISZERO PUSH2 0x1988 JUMPI PUSH2 0x1988 PUSH2 0x1AE7 JUMP JUMPDEST SWAP1 MSTORE SWAP1 JUMP JUMPDEST PUSH4 0x4E487B71 PUSH1 0xE0 SHL PUSH1 0x0 MSTORE PUSH1 0x41 PUSH1 0x4 MSTORE PUSH1 0x24 PUSH1 0x0 REVERT JUMPDEST PUSH1 0x40 MLOAD PUSH2 0x260 DUP2 ADD PUSH8 0xFFFFFFFFFFFFFFFF DUP2 GT DUP3 DUP3 LT OR ISZERO PUSH2 0x19C7 JUMPI PUSH2 0x19C7 PUSH2 0x198D JUMP JUMPDEST PUSH1 0x40 MSTORE SWAP1 JUMP JUMPDEST PUSH1 0x0 DUP3 PUSH1 0x1F DUP4 ADD SLT PUSH2 0x19DE JUMPI PUSH1 0x0 DUP1 REVERT JUMPDEST DUP2 CALLDATALOAD PUSH8 0xFFFFFFFFFFFFFFFF DUP1 DUP3 GT ISZERO PUSH2 0x19F9 JUMPI PUSH2 0x19F9 PUSH2 0x198D JUMP JUMPDEST PUSH1 0x40 MLOAD PUSH1 0x1F DUP4 ADD PUSH1 0x1F NOT SWAP1 DUP2 AND PUSH1 0x3F ADD AND DUP2 ADD SWAP1 DUP3 DUP3 GT DUP2 DUP4 LT OR ISZERO PUSH2 0x1A21 JUMPI PUSH2 0x1A21 PUSH2 0x198D JUMP JUMPDEST DUP2 PUSH1 0x40 MSTORE DUP4 DUP2 MSTORE DUP7 PUSH1 0x20 DUP6 DUP9 ADD ADD GT ISZERO PUSH2 0x1A3A JUMPI PUSH1 0x0 DUP1 REVERT JUMPDEST DUP4 PUSH1 0x20 DUP8 ADD PUSH1 0x20 DUP4 ADD CALLDATACOPY PUSH1 0x0 PUSH1 0x20 DUP6 DUP4 ADD ADD MSTORE DUP1 SWAP5 POP POP POP POP POP SWAP3 SWAP2 POP POP JUMP JUMPDEST PUSH1 0x0 PUSH1 0x20 DUP3 DUP5 SUB SLT ISZERO PUSH2 0x1A6C JUMPI PUSH1 0x0 DUP1 REVERT JUMPDEST DUP2 CALLDATALOAD PUSH8 0xFFFFFFFFFFFFFFFF DUP2 GT ISZERO PUSH2 0x1A83 JUMPI PUSH1 0x0 DUP1 REVERT JUMPDEST PUSH2 0x1A8F DUP5 DUP3 DUP6 ADD PUSH2 0x19CD JUMP JUMPDEST SWAP5 SWAP4 POP POP POP POP JUMP JUMPDEST PUSH1 0x0 JUMPDEST DUP4 DUP2 LT ISZERO PUSH2 0x1AB2 JUMPI DUP2 DUP2 ADD MLOAD DUP4 DUP3 ADD MSTORE PUSH1 0x20 ADD PUSH2 0x1A9A JUMP JUMPDEST POP POP PUSH1 0x0 SWAP2 ADD MSTORE JUMP JUMPDEST PUSH1 0x0 DUP2 MLOAD DUP1 DUP5 MSTORE PUSH2 0x1AD3 DUP2 PUSH1 0x20 DUP7 ADD PUSH1 0x20 DUP7 ADD PUSH2 0x1A97 JUMP JUMPDEST PUSH1 0x1F ADD PUSH1 0x1F NOT AND SWAP3 SWAP1 SWAP3 ADD PUSH1 0x20 ADD SWAP3 SWAP2 POP POP JUMP JUMPDEST PUSH4 0x4E487B71 PUSH1 0xE0 SHL PUSH1 0x0 MSTORE PUSH1 0x21 PUSH1 0x4 MSTORE PUSH1 0x24 PUSH1 0x0 REVERT JUMPDEST PUSH1 0x5 DUP2 LT PUSH2 0x1B0D JUMPI PUSH2 0x1B0D PUSH2 0x1AE7 JUMP JUMPDEST SWAP1 MSTORE JUMP JUMPDEST PUSH1 0x3 DUP2 LT PUSH2 0x1B0D JUMPI PUSH2 0x1B0D PUSH2 0x1AE7 JUMP JUMPDEST PUSH1 0x0 PUSH2 0x260 DUP3 MLOAD DUP5 MSTORE PUSH1 0x20 DUP4 ADD MLOAD PUSH2 0x1B3D PUSH1 0x20 DUP7 ADD DUP3 ISZERO ISZERO SWAP1 MSTORE JUMP JUMPDEST POP PUSH1 0x40 DUP4 ADD MLOAD PUSH1 0x40 DUP6 ADD MSTORE PUSH1 0x60 DUP4 ADD MLOAD DUP2 PUSH1 0x60 DUP7 ADD MSTORE PUSH2 0x1B5F DUP3 DUP7 ADD DUP3 PUSH2 0x1ABB JUMP JUMPDEST SWAP2 POP POP PUSH1 0x80 DUP4 ADD MLOAD DUP5 DUP3 SUB PUSH1 0x80 DUP7 ADD MSTORE PUSH2 0x1B79 DUP3 DUP3 PUSH2 0x1ABB JUMP JUMPDEST SWAP2 POP POP PUSH1 0xA0 DUP4 ADD MLOAD PUSH2 0x1B96 PUSH1 0xA0 DUP7 ADD DUP3 PUSH1 0x1 PUSH1 0x1 PUSH1 0xA0 SHL SUB AND SWAP1 MSTORE JUMP JUMPDEST POP PUSH1 0xC0 DUP4 ADD MLOAD DUP5 DUP3 SUB PUSH1 0xC0 DUP7 ADD MSTORE PUSH2 0x1BAE DUP3 DUP3 PUSH2 0x1ABB JUMP JUMPDEST SWAP2 POP POP PUSH1 0xE0 DUP4 ADD MLOAD DUP5 DUP3 SUB PUSH1 0xE0 DUP7 ADD MSTORE PUSH2 0x1BC8 DUP3 DUP3 PUSH2 0x1ABB JUMP JUMPDEST SWAP2 POP POP PUSH2 0x100 DUP1 DUP5 ADD MLOAD DUP6 DUP4 SUB DUP3 DUP8 ADD MSTORE PUSH2 0x1BE3 DUP4 DUP3 PUSH2 0x1ABB JUMP JUMPDEST SWAP3 POP POP POP PUSH2 0x120 DUP1 DUP5 ADD MLOAD PUSH2 0x1BFA DUP3 DUP8 ADD DUP3 PUSH2 0x1AFD JUMP JUMPDEST POP POP PUSH2 0x140 DUP1 DUP5 ADD MLOAD DUP6 DUP4 SUB DUP3 DUP8 ADD MSTORE PUSH2 0x1C14 DUP4 DUP3 PUSH2 0x1ABB JUMP JUMPDEST SWAP3 POP POP POP PUSH2 0x160 DUP1 DUP5 ADD MLOAD DUP6 DUP4 SUB DUP3 DUP8 ADD MSTORE PUSH2 0x1C30 DUP4 DUP3 PUSH2 0x1ABB JUMP JUMPDEST SWAP3 POP POP POP PUSH2 0x180 DUP1 DUP5 ADD MLOAD DUP6 DUP4 SUB DUP3 DUP8 ADD MSTORE PUSH2 0x1C4C DUP4 DUP3 PUSH2 0x1ABB JUMP JUMPDEST SWAP3 POP POP POP PUSH2 0x1A0 DUP1 DUP5 ADD MLOAD DUP6 DUP4 SUB DUP3 DUP8 ADD MSTORE PUSH2 0x1C68 DUP4 DUP3 PUSH2 0x1ABB JUMP JUMPDEST SWAP3 POP POP POP PUSH2 0x1C0 DUP1 DUP5 ADD MLOAD PUSH2 0x1C80 DUP3 DUP8 ADD DUP3 ISZERO ISZERO SWAP1 MSTORE JUMP JUMPDEST POP POP PUSH2 0x1E0 DUP4 DUP2 ADD MLOAD ISZERO ISZERO SWAP1 DUP6 ADD MSTORE PUSH2 0x200 DUP1 DUP5 ADD MLOAD ISZERO ISZERO SWAP1 DUP6 ADD MSTORE PUSH2 0x220 DUP1 DUP5 ADD MLOAD SWAP1 DUP6 ADD MSTORE PUSH2 0x240 DUP1 DUP5 ADD MLOAD PUSH2 0x1CBA DUP3 DUP8 ADD DUP3 PUSH2 0x1B11 JUMP JUMPDEST POP SWAP1 SWAP5 SWAP4 POP POP POP POP JUMP JUMPDEST PUSH1 0x20 DUP2 MSTORE PUSH1 0x0 PUSH2 0xF0D PUSH1 0x20 DUP4 ADD DUP5 PUSH2 0x1B21 JUMP JUMPDEST DUP1 CALLDATALOAD DUP1 ISZERO ISZERO DUP2 EQ PUSH2 0x18C4 JUMPI PUSH1 0x0 DUP1 REVERT JUMPDEST DUP1 CALLDATALOAD PUSH1 0x1 PUSH1 0x1 PUSH1 0xA0 SHL SUB DUP2 AND DUP2 EQ PUSH2 0x18C4 JUMPI PUSH1 0x0 DUP1 REVERT JUMPDEST DUP1 CALLDATALOAD PUSH1 0x5 DUP2 LT PUSH2 0x18C4 JUMPI PUSH1 0x0 DUP1 REVERT JUMPDEST DUP1 CALLDATALOAD PUSH1 0x3 DUP2 LT PUSH2 0x18C4 JUMPI PUSH1 0x0 DUP1 REVERT JUMPDEST PUSH1 0x0 PUSH2 0x260 DUP3 DUP5 SUB SLT ISZERO PUSH2 0x1D2F JUMPI PUSH1 0x0 DUP1 REVERT JUMPDEST PUSH2 0x1D37 PUSH2 0x19A3 JUMP JUMPDEST SWAP1 POP DUP2 CALLDATALOAD DUP2 MSTORE PUSH2 0x1D49 PUSH1 0x20 DUP4 ADD PUSH2 0x1CD7 JUMP JUMPDEST PUSH1 0x20 DUP3 ADD MSTORE PUSH1 0x40 DUP3 ADD CALLDATALOAD PUSH1 0x40 DUP3 ADD MSTORE PUSH1 0x60 DUP3 ADD CALLDATALOAD PUSH8 0xFFFFFFFFFFFFFFFF DUP1 DUP3 GT ISZERO PUSH2 0x1D73 JUMPI PUSH1 0x0 DUP1 REVERT JUMPDEST PUSH2 0x1D7F DUP6 DUP4 DUP7 ADD PUSH2 0x19CD JUMP JUMPDEST PUSH1 0x60 DUP5 ADD MSTORE PUSH1 0x80 DUP5 ADD CALLDATALOAD SWAP2 POP DUP1 DUP3 GT ISZERO PUSH2 0x1D98 JUMPI PUSH1 0x0 DUP1 REVERT JUMPDEST PUSH2 0x1DA4 DUP6 DUP4 DUP7 ADD PUSH2 0x19CD JUMP JUMPDEST PUSH1 0x80 DUP5 ADD MSTORE PUSH2 0x1DB5 PUSH1 0xA0 DUP6 ADD PUSH2 0x1CE7 JUMP JUMPDEST PUSH1 0xA0 DUP5 ADD MSTORE PUSH1 0xC0 DUP5 ADD CALLDATALOAD SWAP2 POP DUP1 DUP3 GT ISZERO PUSH2 0x1DCE JUMPI PUSH1 0x0 DUP1 REVERT JUMPDEST PUSH2 0x1DDA DUP6 DUP4 DUP7 ADD PUSH2 0x19CD JUMP JUMPDEST PUSH1 0xC0 DUP5 ADD MSTORE PUSH1 0xE0 DUP5 ADD CALLDATALOAD SWAP2 POP DUP1 DUP3 GT ISZERO PUSH2 0x1DF3 JUMPI PUSH1 0x0 DUP1 REVERT JUMPDEST PUSH2 0x1DFF DUP6 DUP4 DUP7 ADD PUSH2 0x19CD JUMP JUMPDEST PUSH1 0xE0 DUP5 ADD MSTORE PUSH2 0x100 SWAP2 POP DUP2 DUP5 ADD CALLDATALOAD DUP2 DUP2 GT ISZERO PUSH2 0x1E1A JUMPI PUSH1 0x0 DUP1 REVERT JUMPDEST PUSH2 0x1E26 DUP7 DUP3 DUP8 ADD PUSH2 0x19CD JUMP JUMPDEST DUP4 DUP6 ADD MSTORE POP PUSH2 0x120 SWAP2 POP PUSH2 0x1E3B DUP3 DUP6 ADD PUSH2 0x1CFE JUMP JUMPDEST DUP3 DUP5 ADD MSTORE PUSH2 0x140 SWAP2 POP DUP2 DUP5 ADD CALLDATALOAD DUP2 DUP2 GT ISZERO PUSH2 0x1E55 JUMPI PUSH1 0x0 DUP1 REVERT JUMPDEST PUSH2 0x1E61 DUP7 DUP3 DUP8 ADD PUSH2 0x19CD JUMP JUMPDEST DUP4 DUP6 ADD MSTORE POP PUSH2 0x160 SWAP2 POP DUP2 DUP5 ADD CALLDATALOAD DUP2 DUP2 GT ISZERO PUSH2 0x1E7C JUMPI PUSH1 0x0 DUP1 REVERT JUMPDEST PUSH2 0x1E88 DUP7 DUP3 DUP8 ADD PUSH2 0x19CD JUMP JUMPDEST DUP4 DUP6 ADD MSTORE POP PUSH2 0x180 SWAP2 POP DUP2 DUP5 ADD CALLDATALOAD DUP2 DUP2 GT ISZERO PUSH2 0x1EA3 JUMPI PUSH1 0x0 DUP1 REVERT JUMPDEST PUSH2 0x1EAF DUP7 DUP3 DUP8 ADD PUSH2 0x19CD JUMP JUMPDEST DUP4 DUP6 ADD MSTORE POP PUSH2 0x1A0 SWAP2 POP DUP2 DUP5 ADD CALLDATALOAD DUP2 DUP2 GT ISZERO PUSH2 0x1ECA JUMPI PUSH1 0x0 DUP1 REVERT JUMPDEST PUSH2 0x1ED6 DUP7 DUP3 DUP8 ADD PUSH2 0x19CD JUMP JUMPDEST DUP4 DUP6 ADD MSTORE POP POP POP PUSH2 0x1C0 PUSH2 0x1EEB DUP2 DUP5 ADD PUSH2 0x1CD7 JUMP JUMPDEST SWAP1 DUP3 ADD MSTORE PUSH2 0x1E0 PUSH2 0x1EFD DUP4 DUP3 ADD PUSH2 0x1CD7 JUMP JUMPDEST SWAP1 DUP3 ADD MSTORE PUSH2 0x200 PUSH2 0x1F0F DUP4 DUP3 ADD PUSH2 0x1CD7 JUMP JUMPDEST SWAP1 DUP3 ADD MSTORE PUSH2 0x220 DUP3 DUP2 ADD CALLDATALOAD SWAP1 DUP3 ADD MSTORE PUSH2 0x240 PUSH2 0x1F2C DUP2 DUP5 ADD PUSH2 0x1D0D JUMP JUMPDEST SWAP1 DUP3 ADD MSTORE SWAP3 SWAP2 POP POP JUMP JUMPDEST PUSH1 0x0 PUSH1 0x20 DUP3 DUP5 SUB SLT ISZERO PUSH2 0x1F48 JUMPI PUSH1 0x0 DUP1 REVERT JUMPDEST DUP2 CALLDATALOAD PUSH8 0xFFFFFFFFFFFFFFFF DUP2 GT ISZERO PUSH2 0x1F5F JUMPI PUSH1 0x0 DUP1 REVERT JUMPDEST PUSH2 0x1A8F DUP5 DUP3 DUP6 ADD PUSH2 0x1D1C JUMP JUMPDEST PUSH1 0x0 DUP1 PUSH1 0x40 DUP4 DUP6 SUB SLT ISZERO PUSH2 0x1F7E JUMPI PUSH1 0x0 DUP1 REVERT JUMPDEST DUP3 CALLDATALOAD PUSH8 0xFFFFFFFFFFFFFFFF DUP1 DUP3 GT ISZERO PUSH2 0x1F96 JUMPI PUSH1 0x0 DUP1 REVERT JUMPDEST PUSH2 0x1FA2 DUP7 DUP4 DUP8 ADD PUSH2 0x19CD JUMP JUMPDEST SWAP4 POP PUSH1 0x20 DUP6 ADD CALLDATALOAD SWAP2 POP DUP1 DUP3 GT ISZERO PUSH2 0x1FB8 JUMPI PUSH1 0x0 DUP1 REVERT JUMPDEST POP PUSH2 0x1FC5 DUP6 DUP3 DUP7 ADD PUSH2 0x19CD JUMP JUMPDEST SWAP2 POP POP SWAP3 POP SWAP3 SWAP1 POP JUMP JUMPDEST PUSH1 0x0 PUSH1 0x20 DUP3 DUP5 SUB SLT ISZERO PUSH2 0x1FE1 JUMPI PUSH1 0x0 DUP1 REVERT JUMPDEST PUSH2 0xF0D DUP3 PUSH2 0x1CE7 JUMP JUMPDEST PUSH1 0x0 DUP1 PUSH1 0x40 DUP4 DUP6 SUB SLT ISZERO PUSH2 0x1FFD JUMPI PUSH1 0x0 DUP1 REVERT JUMPDEST DUP3 CALLDATALOAD PUSH8 0xFFFFFFFFFFFFFFFF DUP1 DUP3 GT ISZERO PUSH2 0x2015 JUMPI PUSH1 0x0 DUP1 REVERT JUMPDEST PUSH2 0x1FA2 DUP7 DUP4 DUP8 ADD PUSH2 0x1D1C JUMP JUMPDEST PUSH1 0x20 DUP2 MSTORE PUSH1 0x0 PUSH2 0xF0D PUSH1 0x20 DUP4 ADD DUP5 PUSH2 0x1ABB JUMP JUMPDEST PUSH1 0x0 DUP1 PUSH1 0x40 DUP4 DUP6 SUB SLT ISZERO PUSH2 0x2047 JUMPI PUSH1 0x0 DUP1 REVERT JUMPDEST POP POP DUP1 CALLDATALOAD SWAP3 PUSH1 0x20 SWAP1 SWAP2 ADD CALLDATALOAD SWAP2 POP JUMP JUMPDEST PUSH1 0x0 PUSH1 0x20 DUP1 DUP4 ADD DUP2 DUP5 MSTORE DUP1 DUP6 MLOAD DUP1 DUP4 MSTORE PUSH1 0x40 DUP7 ADD SWAP2 POP PUSH1 0x40 DUP2 PUSH1 0x5 SHL DUP8 ADD ADD SWAP3 POP DUP4 DUP8 ADD PUSH1 0x0 JUMPDEST DUP3 DUP2 LT ISZERO PUSH2 0x20AB JUMPI PUSH1 0x3F NOT DUP9 DUP7 SUB ADD DUP5 MSTORE PUSH2 0x2099 DUP6 DUP4 MLOAD PUSH2 0x1B21 JUMP JUMPDEST SWAP5 POP SWAP3 DUP6 ADD SWAP3 SWAP1 DUP6 ADD SWAP1 PUSH1 0x1 ADD PUSH2 0x207D JUMP JUMPDEST POP SWAP3 SWAP8 SWAP7 POP POP POP POP POP POP POP JUMP JUMPDEST PUSH1 0x0 DUP3 MLOAD PUSH2 0x20CA DUP2 DUP5 PUSH1 0x20 DUP8 ADD PUSH2 0x1A97 JUMP JUMPDEST SWAP2 SWAP1 SWAP2 ADD SWAP3 SWAP2 POP POP JUMP JUMPDEST PUSH1 0x1 DUP2 DUP2 SHR SWAP1 DUP3 AND DUP1 PUSH2 0x20E8 JUMPI PUSH1 0x7F DUP3 AND SWAP2 POP JUMPDEST PUSH1 0x20 DUP3 LT DUP2 SUB PUSH2 0x2108 JUMPI PUSH4 0x4E487B71 PUSH1 0xE0 SHL PUSH1 0x0 MSTORE PUSH1 0x22 PUSH1 0x4 MSTORE PUSH1 0x24 PUSH1 0x0 REVERT JUMPDEST POP SWAP2 SWAP1 POP JUMP JUMPDEST DUP6 DUP2 MSTORE DUP5 PUSH1 0x20 DUP3 ADD MSTORE PUSH1 0x0 DUP5 MLOAD PUSH2 0x212C DUP2 PUSH1 0x40 DUP6 ADD PUSH1 0x20 DUP10 ADD PUSH2 0x1A97 JUMP JUMPDEST DUP3 ADD PUSH1 0x5 DUP6 LT PUSH2 0x213E JUMPI PUSH2 0x213E PUSH2 0x1AE7 JUMP JUMPDEST DUP5 PUSH1 0xF8 SHL PUSH1 0x40 DUP3 ADD MSTORE DUP4 MLOAD PUSH2 0x215A DUP2 PUSH1 0x41 DUP5 ADD PUSH1 0x20 DUP9 ADD PUSH2 0x1A97 JUMP JUMPDEST ADD PUSH1 0x41 ADD SWAP8 SWAP7 POP POP POP POP POP POP POP JUMP JUMPDEST PUSH1 0x1F DUP3 GT ISZERO PUSH2 0x21B3 JUMPI PUSH1 0x0 DUP2 DUP2 MSTORE PUSH1 0x20 DUP2 KECCAK256 PUSH1 0x1F DUP6 ADD PUSH1 0x5 SHR DUP2 ADD PUSH1 0x20 DUP7 LT ISZERO PUSH2 0x2190 JUMPI POP DUP1 JUMPDEST PUSH1 0x1F DUP6 ADD PUSH1 0x5 SHR DUP3 ADD SWAP2 POP JUMPDEST DUP2 DUP2 LT ISZERO PUSH2 0x21AF JUMPI DUP3 DUP2 SSTORE PUSH1 0x1 ADD PUSH2 0x219C JUMP JUMPDEST POP POP POP JUMPDEST POP POP POP JUMP JUMPDEST DUP2 MLOAD PUSH8 0xFFFFFFFFFFFFFFFF DUP2 GT ISZERO PUSH2 0x21D2 JUMPI PUSH2 0x21D2 PUSH2 0x198D JUMP JUMPDEST PUSH2 0x21E6 DUP2 PUSH2 0x21E0 DUP5 SLOAD PUSH2 0x20D4 JUMP JUMPDEST DUP5 PUSH2 0x2169 JUMP JUMPDEST PUSH1 0x20 DUP1 PUSH1 0x1F DUP4 GT PUSH1 0x1 DUP2 EQ PUSH2 0x221B JUMPI PUSH1 0x0 DUP5 ISZERO PUSH2 0x2203 JUMPI POP DUP6 DUP4 ADD MLOAD JUMPDEST PUSH1 0x0 NOT PUSH1 0x3 DUP7 SWAP1 SHL SHR NOT AND PUSH1 0x1 DUP6 SWAP1 SHL OR DUP6 SSTORE PUSH2 0x21AF JUMP JUMPDEST PUSH1 0x0 DUP6 DUP2 MSTORE PUSH1 0x20 DUP2 KECCAK256 PUSH1 0x1F NOT DUP7 AND SWAP2 JUMPDEST DUP3 DUP2 LT ISZERO PUSH2 0x224A JUMPI DUP9 DUP7 ADD MLOAD DUP3 SSTORE SWAP5 DUP5 ADD SWAP5 PUSH1 0x1 SWAP1 SWAP2 ADD SWAP1 DUP5 ADD PUSH2 0x222B JUMP JUMPDEST POP DUP6 DUP3 LT ISZERO PUSH2 0x2268 JUMPI DUP8 DUP6 ADD MLOAD PUSH1 0x0 NOT PUSH1 0x3 DUP9 SWAP1 SHL PUSH1 0xF8 AND SHR NOT AND DUP2 SSTORE JUMPDEST POP POP POP POP POP PUSH1 0x1 SWAP1 DUP2 SHL ADD SWAP1 SSTORE POP JUMP JUMPDEST PUSH1 0x40 DUP2 MSTORE PUSH1 0x0 PUSH2 0x228B PUSH1 0x40 DUP4 ADD DUP6 PUSH2 0x1ABB JUMP JUMPDEST SWAP1 POP PUSH1 0x1 DUP1 PUSH1 0xA0 SHL SUB DUP4 AND PUSH1 0x20 DUP4 ADD MSTORE SWAP4 SWAP3 POP POP POP JUMP JUMPDEST PUSH1 0x0 PUSH1 0x20 DUP3 DUP5 SUB SLT ISZERO PUSH2 0x22B4 JUMPI PUSH1 0x0 DUP1 REVERT JUMPDEST POP MLOAD SWAP2 SWAP1 POP JUMP JUMPDEST PUSH1 0x20 DUP1 DUP3 MSTORE DUP2 DUP2 ADD MSTORE PUSH32 0x4F776E61626C653A2063616C6C6572206973206E6F7420746865206F776E6572 PUSH1 0x40 DUP3 ADD MSTORE PUSH1 0x60 ADD SWAP1 JUMP JUMPDEST PUSH4 0x4E487B71 PUSH1 0xE0 SHL PUSH1 0x0 MSTORE PUSH1 0x32 PUSH1 0x4 MSTORE PUSH1 0x24 PUSH1 0x0 REVERT JUMPDEST PUSH1 0x0 DUP1 DUP4 SLOAD PUSH2 0x2314 DUP2 PUSH2 0x20D4 JUMP JUMPDEST PUSH1 0x1 DUP3 DUP2 AND DUP1 ISZERO PUSH2 0x232C JUMPI PUSH1 0x1 DUP2 EQ PUSH2 0x2341 JUMPI PUSH2 0x2370 JUMP JUMPDEST PUSH1 0xFF NOT DUP5 AND DUP8 MSTORE DUP3 ISZERO ISZERO DUP4 MUL DUP8 ADD SWAP5 POP PUSH2 0x2370 JUMP JUMPDEST DUP8 PUSH1 0x0 MSTORE PUSH1 0x20 DUP1 PUSH1 0x0 KECCAK256 PUSH1 0x0 JUMPDEST DUP6 DUP2 LT ISZERO PUSH2 0x2367 JUMPI DUP2 SLOAD DUP11 DUP3 ADD MSTORE SWAP1 DUP5 ADD SWAP1 DUP3 ADD PUSH2 0x234E JUMP JUMPDEST POP POP POP DUP3 DUP8 ADD SWAP5 POP JUMPDEST POP SWAP3 SWAP7 SWAP6 POP POP POP POP POP POP JUMP JUMPDEST PUSH1 0x0 PUSH1 0x1 DUP3 ADD PUSH2 0x239C JUMPI PUSH4 0x4E487B71 PUSH1 0xE0 SHL PUSH1 0x0 MSTORE PUSH1 0x11 PUSH1 0x4 MSTORE PUSH1 0x24 PUSH1 0x0 REVERT JUMPDEST POP PUSH1 0x1 ADD SWAP1 JUMP INVALID LOG2 PUSH5 0x6970667358 0x22 SLT KECCAK256 CALLDATASIZE DUP14 0xAD 0x4F PUSH2 0x6C15 0xC0 DUP4 0xD4 OR NUMBER 0xD9 SDIV COINBASE 0x4F AND 0xDC 0xE7 0xBE SWAP16 NOT PUSH6 0x7C8EA6A079BE 0xF6 SELFDESTRUCT DIFFICULTY PUSH5 0x736F6C6343 STOP ADDMOD GT STOP CALLER "},"methodIdentifiers":{"approvePendingAsset(bytes,string)":"629a2a24","assignDeployedAddressToInstance(address)":"a8354602","buyAsset()":"9fbaf131","createAsset((uint256,bool,uint256,string,string,address,string,string,string,uint8,string,string,string,string,bool,bool,bool,uint256,uint8),string)":"b35f22ac","createAssetPending((uint256,bool,uint256,string,string,address,string,string,string,uint8,string,string,string,string,bool,bool,bool,uint256,uint8))":"57bf0305","getAllMarketItem(uint256,uint256)":"f7785a07","getMarketItem(bytes)":"4d5a3552","getMarketItemStatus(bytes)":"ec597cd1","nftContract()":"d56d229d","owner()":"8da5cb5b","renounceOwnership()":"715018a6","transferOwnership(address)":"f2fde38b"}}}}}