{"contracts/v2/NFTMarketV2.sol":{"NFTMarketV2":{"abi":[{"inputs":[],"stateMutability":"nonpayable","type":"constructor"},{"anonymous":false,"inputs":[{"indexed":true,"internalType":"address","name":"previousOwner","type":"address"},{"indexed":true,"internalType":"address","name":"newOwner","type":"address"}],"name":"OwnershipTransferred","type":"event"},{"inputs":[],"name":"ERC20_DOMAIN_SEPARATOR","outputs":[{"internalType":"bytes32","name":"","type":"bytes32"}],"stateMutability":"view","type":"function"},{"inputs":[],"name":"_PERMIT_TYPEHASH","outputs":[{"internalType":"bytes32","name":"","type":"bytes32"}],"stateMutability":"view","type":"function"},{"inputs":[{"internalType":"bytes","name":"hash","type":"bytes"},{"internalType":"string","name":"tokenUri","type":"string"},{"internalType":"address","name":"signer","type":"address"},{"internalType":"address","name":"projectOwner","type":"address"},{"internalType":"uint256","name":"value","type":"uint256"},{"internalType":"uint256","name":"deadline","type":"uint256"},{"internalType":"uint8","name":"v","type":"uint8"},{"internalType":"bytes32","name":"r","type":"bytes32"},{"internalType":"bytes32","name":"s","type":"bytes32"},{"internalType":"uint256","name":"amount","type":"uint256"}],"name":"approvePendingAsset","outputs":[{"internalType":"bool","name":"","type":"bool"}],"stateMutability":"nonpayable","type":"function"},{"inputs":[{"internalType":"address","name":"nftContractAddress","type":"address"},{"internalType":"address","name":"aeroContractAddress","type":"address"}],"name":"assignDeployedAddressToInstance","outputs":[{"internalType":"bool","name":"","type":"bool"}],"stateMutability":"nonpayable","type":"function"},{"inputs":[{"internalType":"address","name":"owner","type":"address"},{"internalType":"address","name":"spender","type":"address"},{"internalType":"uint256","name":"value","type":"uint256"},{"internalType":"uint256","name":"deadline","type":"uint256"},{"internalType":"uint8","name":"v","type":"uint8"},{"internalType":"bytes32","name":"r","type":"bytes32"},{"internalType":"bytes32","name":"s","type":"bytes32"},{"internalType":"address","name":"nftOwner","type":"address"},{"internalType":"uint256","name":"_tokenId","type":"uint256"}],"name":"buyAsset","outputs":[{"internalType":"bool","name":"","type":"bool"}],"stateMutability":"nonpayable","type":"function"},{"inputs":[{"internalType":"address","name":"nftOwner","type":"address"},{"internalType":"uint256","name":"_tokenId","type":"uint256"},{"internalType":"uint8","name":"v","type":"uint8"},{"internalType":"bytes32","name":"r","type":"bytes32"},{"internalType":"bytes32","name":"s","type":"bytes32"},{"internalType":"uint256","name":"deadline","type":"uint256"},{"internalType":"uint256","name":"nonce","type":"uint256"},{"internalType":"uint8","name":"vN","type":"uint8"},{"internalType":"bytes32","name":"rN","type":"bytes32"},{"internalType":"bytes32","name":"sN","type":"bytes32"}],"name":"buyAssetApprove","outputs":[{"internalType":"bool","name":"","type":"bool"}],"stateMutability":"nonpayable","type":"function"},{"inputs":[{"components":[{"internalType":"uint256","name":"nftID","type":"uint256"},{"internalType":"bool","name":"new_env","type":"bool"},{"internalType":"uint256","name":"creatorUserID","type":"uint256"},{"internalType":"string","name":"creatorUsername","type":"string"},{"internalType":"string","name":"creatorName","type":"string"},{"internalType":"address","name":"creatorMetamaskId","type":"address"},{"internalType":"string","name":"associatedProjectName","type":"string"},{"internalType":"string","name":"associatedProjectUrl","type":"string"},{"internalType":"string","name":"assetName","type":"string"},{"internalType":"enum NFTMarketV2.AssetType","name":"assetType","type":"uint8"},{"internalType":"string","name":"assetDescription","type":"string"},{"internalType":"string","name":"assetOffer","type":"string"},{"internalType":"string","name":"assetTerms","type":"string"},{"internalType":"string","name":"assetImage","type":"string"},{"internalType":"bool","name":"isHidden","type":"bool"},{"internalType":"bool","name":"isPrivate","type":"bool"},{"internalType":"bool","name":"multiNft","type":"bool"},{"internalType":"uint256","name":"assetPrice","type":"uint256"},{"internalType":"enum NFTMarketV2.Status","name":"status","type":"uint8"}],"internalType":"struct NFTMarketV2.MarketItem","name":"data","type":"tuple"},{"internalType":"string","name":"tokenUri","type":"string"}],"name":"createAsset","outputs":[{"internalType":"bool","name":"","type":"bool"}],"stateMutability":"nonpayable","type":"function"},{"inputs":[{"components":[{"internalType":"uint256","name":"nftID","type":"uint256"},{"internalType":"bool","name":"new_env","type":"bool"},{"internalType":"uint256","name":"creatorUserID","type":"uint256"},{"internalType":"string","name":"creatorUsername","type":"string"},{"internalType":"string","name":"creatorName","type":"string"},{"internalType":"address","name":"creatorMetamaskId","type":"address"},{"internalType":"string","name":"associatedProjectName","type":"string"},{"internalType":"string","name":"associatedProjectUrl","type":"string"},{"internalType":"string","name":"assetName","type":"string"},{"internalType":"enum NFTMarketV2.AssetType","name":"assetType","type":"uint8"},{"internalType":"string","name":"assetDescription","type":"string"},{"internalType":"string","name":"assetOffer","type":"string"},{"internalType":"string","name":"assetTerms","type":"string"},{"internalType":"string","name":"assetImage","type":"string"},{"internalType":"bool","name":"isHidden","type":"bool"},{"internalType":"bool","name":"isPrivate","type":"bool"},{"internalType":"bool","name":"multiNft","type":"bool"},{"internalType":"uint256","name":"assetPrice","type":"uint256"},{"internalType":"enum NFTMarketV2.Status","name":"status","type":"uint8"}],"internalType":"struct NFTMarketV2.MarketItem","name":"data","type":"tuple"}],"name":"createAssetPending","outputs":[{"internalType":"bool","name":"","type":"bool"}],"stateMutability":"nonpayable","type":"function"},{"inputs":[],"name":"getAllHashesLength","outputs":[{"internalType":"uint256","name":"","type":"uint256"}],"stateMutability":"view","type":"function"},{"inputs":[{"internalType":"uint256","name":"lowerBoundary","type":"uint256"},{"internalType":"uint256","name":"upperBoundary","type":"uint256"}],"name":"getAllMarketItem","outputs":[{"components":[{"internalType":"uint256","name":"nftID","type":"uint256"},{"internalType":"bool","name":"new_env","type":"bool"},{"internalType":"uint256","name":"creatorUserID","type":"uint256"},{"internalType":"string","name":"creatorUsername","type":"string"},{"internalType":"string","name":"creatorName","type":"string"},{"internalType":"address","name":"creatorMetamaskId","type":"address"},{"internalType":"string","name":"associatedProjectName","type":"string"},{"internalType":"string","name":"associatedProjectUrl","type":"string"},{"internalType":"string","name":"assetName","type":"string"},{"internalType":"enum NFTMarketV2.AssetType","name":"assetType","type":"uint8"},{"internalType":"string","name":"assetDescription","type":"string"},{"internalType":"string","name":"assetOffer","type":"string"},{"internalType":"string","name":"assetTerms","type":"string"},{"internalType":"string","name":"assetImage","type":"string"},{"internalType":"bool","name":"isHidden","type":"bool"},{"internalType":"bool","name":"isPrivate","type":"bool"},{"internalType":"bool","name":"multiNft","type":"bool"},{"internalType":"uint256","name":"assetPrice","type":"uint256"},{"internalType":"enum NFTMarketV2.Status","name":"status","type":"uint8"}],"internalType":"struct NFTMarketV2.MarketItem[]","name":"","type":"tuple[]"}],"stateMutability":"view","type":"function"},{"inputs":[{"internalType":"bytes","name":"hash","type":"bytes"}],"name":"getMarketItem","outputs":[{"components":[{"internalType":"uint256","name":"nftID","type":"uint256"},{"internalType":"bool","name":"new_env","type":"bool"},{"internalType":"uint256","name":"creatorUserID","type":"uint256"},{"internalType":"string","name":"creatorUsername","type":"string"},{"internalType":"string","name":"creatorName","type":"string"},{"internalType":"address","name":"creatorMetamaskId","type":"address"},{"internalType":"string","name":"associatedProjectName","type":"string"},{"internalType":"string","name":"associatedProjectUrl","type":"string"},{"internalType":"string","name":"assetName","type":"string"},{"internalType":"enum NFTMarketV2.AssetType","name":"assetType","type":"uint8"},{"internalType":"string","name":"assetDescription","type":"string"},{"internalType":"string","name":"assetOffer","type":"string"},{"internalType":"string","name":"assetTerms","type":"string"},{"internalType":"string","name":"assetImage","type":"string"},{"internalType":"bool","name":"isHidden","type":"bool"},{"internalType":"bool","name":"isPrivate","type":"bool"},{"internalType":"bool","name":"multiNft","type":"bool"},{"internalType":"uint256","name":"assetPrice","type":"uint256"},{"internalType":"enum NFTMarketV2.Status","name":"status","type":"uint8"}],"internalType":"struct NFTMarketV2.MarketItem","name":"","type":"tuple"}],"stateMutability":"view","type":"function"},{"inputs":[{"internalType":"bytes","name":"hash","type":"bytes"}],"name":"getMarketItemStatus","outputs":[{"internalType":"string","name":"","type":"string"}],"stateMutability":"view","type":"function"},{"inputs":[{"internalType":"address","name":"nftOwner","type":"address"}],"name":"mintNFT","outputs":[{"internalType":"uint256","name":"","type":"uint256"}],"stateMutability":"nonpayable","type":"function"},{"inputs":[],"name":"owner","outputs":[{"internalType":"address","name":"","type":"address"}],"stateMutability":"view","type":"function"},{"inputs":[],"name":"renounceOwnership","outputs":[],"stateMutability":"nonpayable","type":"function"},{"inputs":[{"internalType":"address","name":"newOwner","type":"address"}],"name":"transferOwnership","outputs":[],"stateMutability":"nonpayable","type":"function"}],"evm":{"bytecode":{"linkReferences":{},"object":"60806040527f6e71edae12b1b97f4d1f60370fef10105fa2faae0126114a169c64845d6126c960065566038d7ea4c6800060075534801561003f57600080fd5b50600160005561004e33610053565b6100a5565b600180546001600160a01b038381166001600160a01b0319831681179093556040519116919082907f8be0079c531659141344cd1fd0a4f28419497f9722a3daafe3b4186f6b6457e090600090a35050565b612e6f80620000b56000396000f3fe608060405234801561001057600080fd5b50600436106101005760003560e01c806398f1970511610097578063e2208a6511610066578063e2208a6514610240578063ec597cd114610248578063f2fde38b14610268578063f7785a071461027b57600080fd5b806398f19705146101f4578063a189ebf614610207578063a92763281461021a578063b35f22ac1461022d57600080fd5b806372c40429116100d357806372c404291461017c57806380f12fcd146101c85780638da5cb5b146101d0578063982aaf6b146101eb57600080fd5b80634d5a35521461010557806354ba0f271461012e57806357bf03051461014f578063715018a614610172575b600080fd5b6101186101133660046122b7565b61029b565b6040516101259190612521565b60405180910390f35b61014161013c36600461254b565b6108cd565b604051908152602001610125565b61016261015d3660046127b7565b610968565b6040519015158152602001610125565b61017a610bfd565b005b61016261018a3660046127ec565b600480546001600160a01b03199081166001600160a01b039485161790915560058054821692909316918217909255600b8054909216179055600190565b600a54610141565b6001546040516001600160a01b039091168152602001610125565b61014160065481565b610162610202366004612830565b610c11565b6101626102153660046128b5565b610dfa565b61016261022836600461297d565b610fd1565b61016261023b366004612a06565b61131f565b610141611618565b61025b6102563660046122b7565b6116f0565b6040516101259190612a6a565b61017a61027636600461254b565b611722565b61028e610289366004612a7d565b61179b565b6040516101259190612a9f565b6102a36120ec565b6009826040516102b39190612b01565b9081526040805191829003602090810183206102608401835280548452600181015460ff1615159184019190915260028101549183019190915260038101805460608401919061030290612b1d565b80601f016020809104026020016040519081016040528092919081815260200182805461032e90612b1d565b801561037b5780601f106103505761010080835404028352916020019161037b565b820191906000526020600020905b81548152906001019060200180831161035e57829003601f168201915b5050505050815260200160048201805461039490612b1d565b80601f01602080910402602001604051908101604052809291908181526020018280546103c090612b1d565b801561040d5780601f106103e25761010080835404028352916020019161040d565b820191906000526020600020905b8154815290600101906020018083116103f057829003601f168201915b505050918352505060058201546001600160a01b0316602082015260068201805460409092019161043d90612b1d565b80601f016020809104026020016040519081016040528092919081815260200182805461046990612b1d565b80156104b65780601f1061048b576101008083540402835291602001916104b6565b820191906000526020600020905b81548152906001019060200180831161049957829003601f168201915b505050505081526020016007820180546104cf90612b1d565b80601f01602080910402602001604051908101604052809291908181526020018280546104fb90612b1d565b80156105485780601f1061051d57610100808354040283529160200191610548565b820191906000526020600020905b81548152906001019060200180831161052b57829003601f168201915b5050505050815260200160088201805461056190612b1d565b80601f016020809104026020016040519081016040528092919081815260200182805461058d90612b1d565b80156105da5780601f106105af576101008083540402835291602001916105da565b820191906000526020600020905b8154815290600101906020018083116105bd57829003601f168201915b5050509183525050600982015460209091019060ff16600481111561060157610601612344565b600481111561061257610612612344565b8152602001600a8201805461062690612b1d565b80601f016020809104026020016040519081016040528092919081815260200182805461065290612b1d565b801561069f5780601f106106745761010080835404028352916020019161069f565b820191906000526020600020905b81548152906001019060200180831161068257829003601f168201915b50505050508152602001600b820180546106b890612b1d565b80601f01602080910402602001604051908101604052809291908181526020018280546106e490612b1d565b80156107315780601f1061070657610100808354040283529160200191610731565b820191906000526020600020905b81548152906001019060200180831161071457829003601f168201915b50505050508152602001600c8201805461074a90612b1d565b80601f016020809104026020016040519081016040528092919081815260200182805461077690612b1d565b80156107c35780601f10610798576101008083540402835291602001916107c3565b820191906000526020600020905b8154815290600101906020018083116107a657829003601f168201915b50505050508152602001600d820180546107dc90612b1d565b80601f016020809104026020016040519081016040528092919081815260200182805461080890612b1d565b80156108555780601f1061082a57610100808354040283529160200191610855565b820191906000526020600020905b81548152906001019060200180831161083857829003601f168201915b5050509183525050600e82015460ff80821615156020840152610100820481161515604084015262010000909104811615156060830152600f8301546080830152601083015460a0909201911660028111156108b3576108b3612344565b60028111156108c4576108c4612344565b90525092915050565b600480546040805163a211937760e01b8152928301526008604483015267746f6b656e55726960c01b60648301526001600160a01b0383811660248401526000928392919091169063a2119377906084016020604051808303816000875af115801561093d573d6000803e3d6000fd5b505050506040513d601f19601f820116820180604052508101906109619190612b57565b9392505050565b6000806109b88360400151846000015185610100015186610120015187610140015160405160200161099e959493929190612b70565b604051602081830303815290604052805160209091012090565b6040516020016109ca91815260200190565b6040516020818303038152906040529050826009826040516109ec9190612b01565b9081526040805160209281900383019020835181559183015160018301805460ff1916911515919091179055820151600282015560608201516003820190610a349082612c1a565b5060808201516004820190610a499082612c1a565b5060a08201516005820180546001600160a01b0319166001600160a01b0390921691909117905560c08201516006820190610a849082612c1a565b5060e08201516007820190610a999082612c1a565b506101008201516008820190610aaf9082612c1a565b5061012082015160098201805460ff19166001836004811115610ad457610ad4612344565b0217905550610140820151600a820190610aee9082612c1a565b50610160820151600b820190610b049082612c1a565b50610180820151600c820190610b1a9082612c1a565b506101a0820151600d820190610b309082612c1a565b506101c0820151600e820180546101e08501516102008601511515620100000262ff0000199115156101000261ff00199515159590951661ffff19909316929092179390931792909216919091179055610220820151600f82015561024082015160108201805460ff19166001836002811115610baf57610baf612344565b021790555050600a80546001810182556000919091527fc65a7bb8d6351c1cf70c95a316cc6a92839c986682d98bc35f958f4883f9d2a8019050610bf38282612c1a565b5060019392505050565b610c05611f7f565b610c0f6000611fd9565b565b6000610c1b6121b0565b8881526001600160a01b03808c1660208084019182528683166040808601828152606087018981526000938452600885528284208a8552909452918190208651815593516001850180549187166001600160a01b0319928316179055915160028501805491871691909316179091559051600390920191909155600554905163d505accf60e01b815291169063d505accf90610cc7908e908e908e908e908e908e908e90600401612cda565b600060405180830381600087803b158015610ce157600080fd5b505af1158015610cf5573d6000803e3d6000fd5b5050600554604051633950935160e01b81526001600160a01b038e81166004830152602482018e90529091169250633950935191506044016020604051808303816000875af1158015610d4c573d6000803e3d6000fd5b505050506040513d601f19601f82011682018060405250810190610d709190612d1b565b506005546040516323b872dd60e01b81526001600160a01b03909116906323b872dd90610da5908e9030908e90600401612d38565b6020604051808303816000875af1158015610dc4573d6000803e3d6000fd5b505050506040513d601f19601f82011682018060405250810190610de89190612d1b565b5060019b9a5050505050505050505050565b6004805460405163a211937760e01b815260009283926001600160a01b03169163a211937791610e2e918f91339101612d5c565b6020604051808303816000875af1158015610e4d573d6000803e3d6000fd5b505050506040513d601f19601f82011682018060405250810190610e719190612b57565b90508060098d604051610e849190612b01565b90815260405190819003602001812091909155600190600990610ea8908f90612b01565b908152604051908190036020019020601001805460ff19166001836002811115610ed457610ed4612344565b021790555060055460405163d505accf60e01b81526001600160a01b039091169063d505accf90610f15908d9030908d908d908d908d908d90600401612cda565b600060405180830381600087803b158015610f2f57600080fd5b505af1158015610f43573d6000803e3d6000fd5b50506005546040516323b872dd60e01b81526001600160a01b0390911692506323b872dd9150610f7b908d908d908890600401612d38565b6020604051808303816000875af1158015610f9a573d6000803e3d6000fd5b505050506040513d601f19601f82011682018060405250810190610fbe9190612d1b565b5060019c9b505050505050505050505050565b6000610fdb6121b0565b506001600160a01b03808c1660009081526008602090815260408083208e8452825280832081516080810183528154815260018201548616938101939093526002810154909416908201526003909201546060830152611039611618565b600654602084810151855160408051808501959095526001600160a01b0390921684830152306060850152608084015260a083018b905260c08084018d90528151808503909101815260e08401909152805191012061190160f01b6101008301526101028201929092526101228101919091526101420160408051601f1981840301815282825280516020918201206000845290830180835281905260ff8e1691830191909152606082018c9052608082018b9052915060019060a0016020604051602081039080840390855afa158015611118573d6000803e3d6000fd5b505050602060405103516001600160a01b031682602001516001600160a01b0316146111805760405162461bcd60e51b8152602060048201526012602482015271496e76616c6964205369676e61747572652160701b60448201526064015b60405180910390fd5b600560009054906101000a90046001600160a01b03166001600160a01b03166323b872dd308f85600001516040518463ffffffff1660e01b81526004016111c993929190612d38565b6020604051808303816000875af11580156111e8573d6000803e3d6000fd5b505050506040513d601f19601f8201168201806040525081019061120c9190612d1b565b5060048054604051637ac2ff7b60e01b81523092810192909252602482018e9052604482018a905260ff881660648301526084820187905260a482018690526001600160a01b031690637ac2ff7b9060c401600060405180830381600087803b15801561127857600080fd5b505af115801561128c573d6000803e3d6000fd5b50505050600460009054906101000a90046001600160a01b03166001600160a01b03166323b872dd8e84602001518f6040518463ffffffff1660e01b81526004016112d993929190612d38565b600060405180830381600087803b1580156112f357600080fd5b505af1158015611307573d6000803e3d6000fd5b505050506001925050509a9950505050505050505050565b6004805460405163a211937760e01b815260009283926001600160a01b03169163a211937791611353918791339101612d5c565b6020604051808303816000875af1158015611372573d6000803e3d6000fd5b505050506040513d601f19601f820116820180604052508101906113969190612b57565b80855260408086015161010087015161012088015161014089015193519495506000946113d19461099e949388939092909190602001612b70565b6040516020016113e391815260200190565b6040516020818303038152906040529050846009826040516114059190612b01565b9081526040805160209281900383019020835181559183015160018301805460ff191691151591909117905582015160028201556060820151600382019061144d9082612c1a565b50608082015160048201906114629082612c1a565b5060a08201516005820180546001600160a01b0319166001600160a01b0390921691909117905560c0820151600682019061149d9082612c1a565b5060e082015160078201906114b29082612c1a565b5061010082015160088201906114c89082612c1a565b5061012082015160098201805460ff191660018360048111156114ed576114ed612344565b0217905550610140820151600a8201906115079082612c1a565b50610160820151600b82019061151d9082612c1a565b50610180820151600c8201906115339082612c1a565b506101a0820151600d8201906115499082612c1a565b506101c0820151600e820180546101e08501516102008601511515620100000262ff0000199115156101000261ff00199515159590951661ffff19909316929092179390931792909216919091179055610220820151600f82015561024082015160108201805460ff191660018360028111156115c8576115c8612344565b021790555050600a80546001810182556000919091527fc65a7bb8d6351c1cf70c95a316cc6a92839c986682d98bc35f958f4883f9d2a801905061160c8282612c1a565b50600195945050505050565b60408051808201825260048152634165726f60e01b6020918201528151808301835260018152603160f81b90820152600b5482517f8b73c3c69bb8fe3d512ecc4cf759cc79239f7b179b0ffacaa9a75d522b39400f818401527fbf01fc4e5f7eb1f2eee29681cd6d2cda1045d51fd80c223d1eaea49e08734bf9818501527fc89efdaa54c0f20c7adf612882df0950f5a951637e0307cdcb4c672f298b8bc660608201524660808201526001600160a01b0390911660a0808301919091528351808303909101815260c0909101909252815191012090565b606060006109616009846040516117079190612b01565b9081526040519081900360200190206010015460ff1661202b565b61172a611f7f565b6001600160a01b03811661178f5760405162461bcd60e51b815260206004820152602660248201527f4f776e61626c653a206e6577206f776e657220697320746865207a65726f206160448201526564647265737360d01b6064820152608401611177565b61179881611fd9565b50565b60606117a5611f7f565b600a5460018110156117ec5760405162461bcd60e51b815260206004820152601060248201526f6173736574732061726520656d70747960801b6044820152606401611177565b8084111580156117fa575060015b61186c5760405162461bcd60e51b815260206004820152603f60248201527f6c6f77657220626f756e646172792073686f756c64206265206c657373206f7260448201527f20657175616c20746f2073697a6520616e64206e6f6e206e65676174697665006064820152608401611177565b80831115801561187a575060015b6118ec5760405162461bcd60e51b815260206004820152603f60248201527f757070657220626f756e646172792073686f756c64206265206c657373206f7260448201527f20657175616c20746f2073697a6520616e64206e6f6e206e65676174697665006064820152608401611177565b60606000855b858111611f74576009600a828154811061190e5761190e612d86565b906000526020600020016040516119259190612d9c565b9081526040805191829003602090810183206102608401835280548452600181015460ff1615159184019190915260028101549183019190915260038101805460608401919061197490612b1d565b80601f01602080910402602001604051908101604052809291908181526020018280546119a090612b1d565b80156119ed5780601f106119c2576101008083540402835291602001916119ed565b820191906000526020600020905b8154815290600101906020018083116119d057829003601f168201915b50505050508152602001600482018054611a0690612b1d565b80601f0160208091040260200160405190810160405280929190818152602001828054611a3290612b1d565b8015611a7f5780601f10611a5457610100808354040283529160200191611a7f565b820191906000526020600020905b815481529060010190602001808311611a6257829003601f168201915b505050918352505060058201546001600160a01b03166020820152600682018054604090920191611aaf90612b1d565b80601f0160208091040260200160405190810160405280929190818152602001828054611adb90612b1d565b8015611b285780601f10611afd57610100808354040283529160200191611b28565b820191906000526020600020905b815481529060010190602001808311611b0b57829003601f168201915b50505050508152602001600782018054611b4190612b1d565b80601f0160208091040260200160405190810160405280929190818152602001828054611b6d90612b1d565b8015611bba5780601f10611b8f57610100808354040283529160200191611bba565b820191906000526020600020905b815481529060010190602001808311611b9d57829003601f168201915b50505050508152602001600882018054611bd390612b1d565b80601f0160208091040260200160405190810160405280929190818152602001828054611bff90612b1d565b8015611c4c5780601f10611c2157610100808354040283529160200191611c4c565b820191906000526020600020905b815481529060010190602001808311611c2f57829003601f168201915b5050509183525050600982015460209091019060ff166004811115611c7357611c73612344565b6004811115611c8457611c84612344565b8152602001600a82018054611c9890612b1d565b80601f0160208091040260200160405190810160405280929190818152602001828054611cc490612b1d565b8015611d115780601f10611ce657610100808354040283529160200191611d11565b820191906000526020600020905b815481529060010190602001808311611cf457829003601f168201915b50505050508152602001600b82018054611d2a90612b1d565b80601f0160208091040260200160405190810160405280929190818152602001828054611d5690612b1d565b8015611da35780601f10611d7857610100808354040283529160200191611da3565b820191906000526020600020905b815481529060010190602001808311611d8657829003601f168201915b50505050508152602001600c82018054611dbc90612b1d565b80601f0160208091040260200160405190810160405280929190818152602001828054611de890612b1d565b8015611e355780601f10611e0a57610100808354040283529160200191611e35565b820191906000526020600020905b815481529060010190602001808311611e1857829003601f168201915b50505050508152602001600d82018054611e4e90612b1d565b80601f0160208091040260200160405190810160405280929190818152602001828054611e7a90612b1d565b8015611ec75780601f10611e9c57610100808354040283529160200191611ec7565b820191906000526020600020905b815481529060010190602001808311611eaa57829003601f168201915b5050509183525050600e82015460ff80821615156020840152610100820481161515604084015262010000909104811615156060830152600f8301546080830152601083015460a090920191166002811115611f2557611f25612344565b6002811115611f3657611f36612344565b9052508383611f4481612e12565b945081518110611f5657611f56612d86565b60200260200101819052508080611f6c90612e12565b9150506118f2565b509095945050505050565b6001546001600160a01b03163314610c0f5760405162461bcd60e51b815260206004820181905260248201527f4f776e61626c653a2063616c6c6572206973206e6f7420746865206f776e65726044820152606401611177565b600180546001600160a01b038381166001600160a01b0319831681179093556040519116919082907f8be0079c531659141344cd1fd0a4f28419497f9722a3daafe3b4186f6b6457e090600090a35050565b6060600382600281111561204157612041612344565b60ff16111561204f57600080fd5b81600281111561206157612061612344565b60000361208b57505060408051808201909152600781526650656e64696e6760c81b602082015290565b81600281111561209d5761209d612344565b6001036120c757505060408051808201909152600781526610dc99585d195960ca1b602082015290565b505060408051808201909152600481526314dbdb1960e21b602082015290565b919050565b6040518061026001604052806000815260200160001515815260200160008152602001606081526020016060815260200160006001600160a01b031681526020016060815260200160608152602001606081526020016000600481111561215557612155612344565b81526020016060815260200160608152602001606081526020016060815260200160001515815260200160001515815260200160001515815260200160008152602001600060028111156121ab576121ab612344565b905290565b60405180608001604052806000815260200160006001600160a01b0316815260200160006001600160a01b03168152602001600081525090565b634e487b7160e01b600052604160045260246000fd5b604051610260810167ffffffffffffffff81118282101715612224576122246121ea565b60405290565b600082601f83011261223b57600080fd5b813567ffffffffffffffff80821115612256576122566121ea565b604051601f8301601f19908116603f0116810190828211818310171561227e5761227e6121ea565b8160405283815286602085880101111561229757600080fd5b836020870160208301376000602085830101528094505050505092915050565b6000602082840312156122c957600080fd5b813567ffffffffffffffff8111156122e057600080fd5b6122ec8482850161222a565b949350505050565b60005b8381101561230f5781810151838201526020016122f7565b50506000910152565b600081518084526123308160208601602086016122f4565b601f01601f19169290920160200192915050565b634e487b7160e01b600052602160045260246000fd5b6005811061236a5761236a612344565b9052565b6003811061236a5761236a612344565b600061026082518452602083015161239a602086018215159052565b506040830151604085015260608301518160608601526123bc82860182612318565b915050608083015184820360808601526123d68282612318565b91505060a08301516123f360a08601826001600160a01b03169052565b5060c083015184820360c086015261240b8282612318565b91505060e083015184820360e08601526124258282612318565b91505061010080840151858303828701526124408382612318565b92505050610120808401516124578287018261235a565b505061014080840151858303828701526124718382612318565b92505050610160808401518583038287015261248d8382612318565b9250505061018080840151858303828701526124a98382612318565b925050506101a080840151858303828701526124c58382612318565b925050506101c0808401516124dd8287018215159052565b50506101e083810151151590850152610200808401511515908501526102208084015190850152610240808401516125178287018261236e565b5090949350505050565b602081526000610961602083018461237e565b80356001600160a01b03811681146120e757600080fd5b60006020828403121561255d57600080fd5b61096182612534565b801515811461179857600080fd5b80356120e781612566565b8035600581106120e757600080fd5b8035600381106120e757600080fd5b600061026082840312156125b057600080fd5b6125b8612200565b9050813581526125ca60208301612574565b602082015260408201356040820152606082013567ffffffffffffffff808211156125f457600080fd5b6126008583860161222a565b6060840152608084013591508082111561261957600080fd5b6126258583860161222a565b608084015261263660a08501612534565b60a084015260c084013591508082111561264f57600080fd5b61265b8583860161222a565b60c084015260e084013591508082111561267457600080fd5b6126808583860161222a565b60e08401526101009150818401358181111561269b57600080fd5b6126a78682870161222a565b838501525061012091506126bc82850161257f565b82840152610140915081840135818111156126d657600080fd5b6126e28682870161222a565b8385015250610160915081840135818111156126fd57600080fd5b6127098682870161222a565b83850152506101809150818401358181111561272457600080fd5b6127308682870161222a565b83850152506101a09150818401358181111561274b57600080fd5b6127578682870161222a565b838501525050506101c061276c818401612574565b908201526101e061277e838201612574565b90820152610200612790838201612574565b9082015261022082810135908201526102406127ad81840161258e565b9082015292915050565b6000602082840312156127c957600080fd5b813567ffffffffffffffff8111156127e057600080fd5b6122ec8482850161259d565b600080604083850312156127ff57600080fd5b61280883612534565b915061281660208401612534565b90509250929050565b803560ff811681146120e757600080fd5b60008060008060008060008060006101208a8c03121561284f57600080fd5b6128588a612534565b985061286660208b01612534565b975060408a0135965060608a0135955061288260808b0161281f565b945060a08a0135935060c08a0135925061289e60e08b01612534565b91506101008a013590509295985092959850929598565b6000806000806000806000806000806101408b8d0312156128d557600080fd5b8a3567ffffffffffffffff808211156128ed57600080fd5b6128f98e838f0161222a565b9b5060208d013591508082111561290f57600080fd5b5061291c8d828e0161222a565b99505061292b60408c01612534565b975061293960608c01612534565b965060808b0135955060a08b0135945061295560c08c0161281f565b935060e08b013592506101008b013591506101208b013590509295989b9194979a5092959850565b6000806000806000806000806000806101408b8d03121561299d57600080fd5b6129a68b612534565b995060208b013598506129bb60408c0161281f565b975060608b0135965060808b0135955060a08b0135945060c08b013593506129e560e08c0161281f565b92506101008b013591506101208b013590509295989b9194979a5092959850565b60008060408385031215612a1957600080fd5b823567ffffffffffffffff80821115612a3157600080fd5b612a3d8683870161259d565b93506020850135915080821115612a5357600080fd5b50612a608582860161222a565b9150509250929050565b6020815260006109616020830184612318565b60008060408385031215612a9057600080fd5b50508035926020909101359150565b6000602080830181845280855180835260408601915060408160051b870101925083870160005b82811015612af457603f19888603018452612ae285835161237e565b94509285019290850190600101612ac6565b5092979650505050505050565b60008251612b138184602087016122f4565b9190910192915050565b600181811c90821680612b3157607f821691505b602082108103612b5157634e487b7160e01b600052602260045260246000fd5b50919050565b600060208284031215612b6957600080fd5b5051919050565b85815284602082015260008451612b8e8160408501602089016122f4565b820160058510612ba057612ba0612344565b8460f81b60408201528351612bbc8160418401602088016122f4565b01604101979650505050505050565b601f821115612c1557600081815260208120601f850160051c81016020861015612bf25750805b601f850160051c820191505b81811015612c1157828155600101612bfe565b5050505b505050565b815167ffffffffffffffff811115612c3457612c346121ea565b612c4881612c428454612b1d565b84612bcb565b602080601f831160018114612c7d5760008415612c655750858301515b600019600386901b1c1916600185901b178555612c11565b600085815260208120601f198616915b82811015612cac57888601518255948401946001909101908401612c8d565b5085821015612cca5787850151600019600388901b60f8161c191681555b5050505050600190811b01905550565b6001600160a01b0397881681529590961660208601526040850193909352606084019190915260ff16608083015260a082015260c081019190915260e00190565b600060208284031215612d2d57600080fd5b815161096181612566565b6001600160a01b039384168152919092166020820152604081019190915260600190565b604081526000612d6f6040830185612318565b905060018060a01b03831660208301529392505050565b634e487b7160e01b600052603260045260246000fd5b6000808354612daa81612b1d565b60018281168015612dc25760018114612dd757612e06565b60ff1984168752821515830287019450612e06565b8760005260208060002060005b85811015612dfd5781548a820152908401908201612de4565b50505082870194505b50929695505050505050565b600060018201612e3257634e487b7160e01b600052601160045260246000fd5b506001019056fea264697066735822122033781bdeeb3455c28c762b3554ed86f0f066889782b1ee04aeaa5fc95c47788564736f6c63430008110033","opcodes":"PUSH1 0x80 PUSH1 0x40 MSTORE PUSH32 0x6E71EDAE12B1B97F4D1F60370FEF10105FA2FAAE0126114A169C64845D6126C9 PUSH1 0x6 SSTORE PUSH7 0x38D7EA4C68000 PUSH1 0x7 SSTORE CALLVALUE DUP1 ISZERO PUSH2 0x3F JUMPI PUSH1 0x0 DUP1 REVERT JUMPDEST POP PUSH1 0x1 PUSH1 0x0 SSTORE PUSH2 0x4E CALLER PUSH2 0x53 JUMP JUMPDEST PUSH2 0xA5 JUMP JUMPDEST PUSH1 0x1 DUP1 SLOAD PUSH1 0x1 PUSH1 0x1 PUSH1 0xA0 SHL SUB DUP4 DUP2 AND PUSH1 0x1 PUSH1 0x1 PUSH1 0xA0 SHL SUB NOT DUP4 AND DUP2 OR SWAP1 SWAP4 SSTORE PUSH1 0x40 MLOAD SWAP2 AND SWAP2 SWAP1 DUP3 SWAP1 PUSH32 0x8BE0079C531659141344CD1FD0A4F28419497F9722A3DAAFE3B4186F6B6457E0 SWAP1 PUSH1 0x0 SWAP1 LOG3 POP POP JUMP JUMPDEST PUSH2 0x2E6F DUP1 PUSH3 0xB5 PUSH1 0x0 CODECOPY PUSH1 0x0 RETURN INVALID PUSH1 0x80 PUSH1 0x40 MSTORE CALLVALUE DUP1 ISZERO PUSH2 0x10 JUMPI PUSH1 0x0 DUP1 REVERT JUMPDEST POP PUSH1 0x4 CALLDATASIZE LT PUSH2 0x100 JUMPI PUSH1 0x0 CALLDATALOAD PUSH1 0xE0 SHR DUP1 PUSH4 0x98F19705 GT PUSH2 0x97 JUMPI DUP1 PUSH4 0xE2208A65 GT PUSH2 0x66 JUMPI DUP1 PUSH4 0xE2208A65 EQ PUSH2 0x240 JUMPI DUP1 PUSH4 0xEC597CD1 EQ PUSH2 0x248 JUMPI DUP1 PUSH4 0xF2FDE38B EQ PUSH2 0x268 JUMPI DUP1 PUSH4 0xF7785A07 EQ PUSH2 0x27B JUMPI PUSH1 0x0 DUP1 REVERT JUMPDEST DUP1 PUSH4 0x98F19705 EQ PUSH2 0x1F4 JUMPI DUP1 PUSH4 0xA189EBF6 EQ PUSH2 0x207 JUMPI DUP1 PUSH4 0xA9276328 EQ PUSH2 0x21A JUMPI DUP1 PUSH4 0xB35F22AC EQ PUSH2 0x22D JUMPI PUSH1 0x0 DUP1 REVERT JUMPDEST DUP1 PUSH4 0x72C40429 GT PUSH2 0xD3 JUMPI DUP1 PUSH4 0x72C40429 EQ PUSH2 0x17C JUMPI DUP1 PUSH4 0x80F12FCD EQ PUSH2 0x1C8 JUMPI DUP1 PUSH4 0x8DA5CB5B EQ PUSH2 0x1D0 JUMPI DUP1 PUSH4 0x982AAF6B EQ PUSH2 0x1EB JUMPI PUSH1 0x0 DUP1 REVERT JUMPDEST DUP1 PUSH4 0x4D5A3552 EQ PUSH2 0x105 JUMPI DUP1 PUSH4 0x54BA0F27 EQ PUSH2 0x12E JUMPI DUP1 PUSH4 0x57BF0305 EQ PUSH2 0x14F JUMPI DUP1 PUSH4 0x715018A6 EQ PUSH2 0x172 JUMPI JUMPDEST PUSH1 0x0 DUP1 REVERT JUMPDEST PUSH2 0x118 PUSH2 0x113 CALLDATASIZE PUSH1 0x4 PUSH2 0x22B7 JUMP JUMPDEST PUSH2 0x29B JUMP JUMPDEST PUSH1 0x40 MLOAD PUSH2 0x125 SWAP2 SWAP1 PUSH2 0x2521 JUMP JUMPDEST PUSH1 0x40 MLOAD DUP1 SWAP2 SUB SWAP1 RETURN JUMPDEST PUSH2 0x141 PUSH2 0x13C CALLDATASIZE PUSH1 0x4 PUSH2 0x254B JUMP JUMPDEST PUSH2 0x8CD JUMP JUMPDEST PUSH1 0x40 MLOAD SWAP1 DUP2 MSTORE PUSH1 0x20 ADD PUSH2 0x125 JUMP JUMPDEST PUSH2 0x162 PUSH2 0x15D CALLDATASIZE PUSH1 0x4 PUSH2 0x27B7 JUMP JUMPDEST PUSH2 0x968 JUMP JUMPDEST PUSH1 0x40 MLOAD SWAP1 ISZERO ISZERO DUP2 MSTORE PUSH1 0x20 ADD PUSH2 0x125 JUMP JUMPDEST PUSH2 0x17A PUSH2 0xBFD JUMP JUMPDEST STOP JUMPDEST PUSH2 0x162 PUSH2 0x18A CALLDATASIZE PUSH1 0x4 PUSH2 0x27EC JUMP JUMPDEST PUSH1 0x4 DUP1 SLOAD PUSH1 0x1 PUSH1 0x1 PUSH1 0xA0 SHL SUB NOT SWAP1 DUP2 AND PUSH1 0x1 PUSH1 0x1 PUSH1 0xA0 SHL SUB SWAP5 DUP6 AND OR SWAP1 SWAP2 SSTORE PUSH1 0x5 DUP1 SLOAD DUP3 AND SWAP3 SWAP1 SWAP4 AND SWAP2 DUP3 OR SWAP1 SWAP3 SSTORE PUSH1 0xB DUP1 SLOAD SWAP1 SWAP3 AND OR SWAP1 SSTORE PUSH1 0x1 SWAP1 JUMP JUMPDEST PUSH1 0xA SLOAD PUSH2 0x141 JUMP JUMPDEST PUSH1 0x1 SLOAD PUSH1 0x40 MLOAD PUSH1 0x1 PUSH1 0x1 PUSH1 0xA0 SHL SUB SWAP1 SWAP2 AND DUP2 MSTORE PUSH1 0x20 ADD PUSH2 0x125 JUMP JUMPDEST PUSH2 0x141 PUSH1 0x6 SLOAD DUP2 JUMP JUMPDEST PUSH2 0x162 PUSH2 0x202 CALLDATASIZE PUSH1 0x4 PUSH2 0x2830 JUMP JUMPDEST PUSH2 0xC11 JUMP JUMPDEST PUSH2 0x162 PUSH2 0x215 CALLDATASIZE PUSH1 0x4 PUSH2 0x28B5 JUMP JUMPDEST PUSH2 0xDFA JUMP JUMPDEST PUSH2 0x162 PUSH2 0x228 CALLDATASIZE PUSH1 0x4 PUSH2 0x297D JUMP JUMPDEST PUSH2 0xFD1 JUMP JUMPDEST PUSH2 0x162 PUSH2 0x23B CALLDATASIZE PUSH1 0x4 PUSH2 0x2A06 JUMP JUMPDEST PUSH2 0x131F JUMP JUMPDEST PUSH2 0x141 PUSH2 0x1618 JUMP JUMPDEST PUSH2 0x25B PUSH2 0x256 CALLDATASIZE PUSH1 0x4 PUSH2 0x22B7 JUMP JUMPDEST PUSH2 0x16F0 JUMP JUMPDEST PUSH1 0x40 MLOAD PUSH2 0x125 SWAP2 SWAP1 PUSH2 0x2A6A JUMP JUMPDEST PUSH2 0x17A PUSH2 0x276 CALLDATASIZE PUSH1 0x4 PUSH2 0x254B JUMP JUMPDEST PUSH2 0x1722 JUMP JUMPDEST PUSH2 0x28E PUSH2 0x289 CALLDATASIZE PUSH1 0x4 PUSH2 0x2A7D JUMP JUMPDEST PUSH2 0x179B JUMP JUMPDEST PUSH1 0x40 MLOAD PUSH2 0x125 SWAP2 SWAP1 PUSH2 0x2A9F JUMP JUMPDEST PUSH2 0x2A3 PUSH2 0x20EC JUMP JUMPDEST PUSH1 0x9 DUP3 PUSH1 0x40 MLOAD PUSH2 0x2B3 SWAP2 SWAP1 PUSH2 0x2B01 JUMP JUMPDEST SWAP1 DUP2 MSTORE PUSH1 0x40 DUP1 MLOAD SWAP2 DUP3 SWAP1 SUB PUSH1 0x20 SWAP1 DUP2 ADD DUP4 KECCAK256 PUSH2 0x260 DUP5 ADD DUP4 MSTORE DUP1 SLOAD DUP5 MSTORE PUSH1 0x1 DUP2 ADD SLOAD PUSH1 0xFF AND ISZERO ISZERO SWAP2 DUP5 ADD SWAP2 SWAP1 SWAP2 MSTORE PUSH1 0x2 DUP2 ADD SLOAD SWAP2 DUP4 ADD SWAP2 SWAP1 SWAP2 MSTORE PUSH1 0x3 DUP2 ADD DUP1 SLOAD PUSH1 0x60 DUP5 ADD SWAP2 SWAP1 PUSH2 0x302 SWAP1 PUSH2 0x2B1D JUMP JUMPDEST DUP1 PUSH1 0x1F ADD PUSH1 0x20 DUP1 SWAP2 DIV MUL PUSH1 0x20 ADD PUSH1 0x40 MLOAD SWAP1 DUP2 ADD PUSH1 0x40 MSTORE DUP1 SWAP3 SWAP2 SWAP1 DUP2 DUP2 MSTORE PUSH1 0x20 ADD DUP3 DUP1 SLOAD PUSH2 0x32E SWAP1 PUSH2 0x2B1D JUMP JUMPDEST DUP1 ISZERO PUSH2 0x37B JUMPI DUP1 PUSH1 0x1F LT PUSH2 0x350 JUMPI PUSH2 0x100 DUP1 DUP4 SLOAD DIV MUL DUP4 MSTORE SWAP2 PUSH1 0x20 ADD SWAP2 PUSH2 0x37B JUMP JUMPDEST DUP3 ADD SWAP2 SWAP1 PUSH1 0x0 MSTORE PUSH1 0x20 PUSH1 0x0 KECCAK256 SWAP1 JUMPDEST DUP2 SLOAD DUP2 MSTORE SWAP1 PUSH1 0x1 ADD SWAP1 PUSH1 0x20 ADD DUP1 DUP4 GT PUSH2 0x35E JUMPI DUP3 SWAP1 SUB PUSH1 0x1F AND DUP3 ADD SWAP2 JUMPDEST POP POP POP POP POP DUP2 MSTORE PUSH1 0x20 ADD PUSH1 0x4 DUP3 ADD DUP1 SLOAD PUSH2 0x394 SWAP1 PUSH2 0x2B1D JUMP JUMPDEST DUP1 PUSH1 0x1F ADD PUSH1 0x20 DUP1 SWAP2 DIV MUL PUSH1 0x20 ADD PUSH1 0x40 MLOAD SWAP1 DUP2 ADD PUSH1 0x40 MSTORE DUP1 SWAP3 SWAP2 SWAP1 DUP2 DUP2 MSTORE PUSH1 0x20 ADD DUP3 DUP1 SLOAD PUSH2 0x3C0 SWAP1 PUSH2 0x2B1D JUMP JUMPDEST DUP1 ISZERO PUSH2 0x40D JUMPI DUP1 PUSH1 0x1F LT PUSH2 0x3E2 JUMPI PUSH2 0x100 DUP1 DUP4 SLOAD DIV MUL DUP4 MSTORE SWAP2 PUSH1 0x20 ADD SWAP2 PUSH2 0x40D JUMP JUMPDEST DUP3 ADD SWAP2 SWAP1 PUSH1 0x0 MSTORE PUSH1 0x20 PUSH1 0x0 KECCAK256 SWAP1 JUMPDEST DUP2 SLOAD DUP2 MSTORE SWAP1 PUSH1 0x1 ADD SWAP1 PUSH1 0x20 ADD DUP1 DUP4 GT PUSH2 0x3F0 JUMPI DUP3 SWAP1 SUB PUSH1 0x1F AND DUP3 ADD SWAP2 JUMPDEST POP POP POP SWAP2 DUP4 MSTORE POP POP PUSH1 0x5 DUP3 ADD SLOAD PUSH1 0x1 PUSH1 0x1 PUSH1 0xA0 SHL SUB AND PUSH1 0x20 DUP3 ADD MSTORE PUSH1 0x6 DUP3 ADD DUP1 SLOAD PUSH1 0x40 SWAP1 SWAP3 ADD SWAP2 PUSH2 0x43D SWAP1 PUSH2 0x2B1D JUMP JUMPDEST DUP1 PUSH1 0x1F ADD PUSH1 0x20 DUP1 SWAP2 DIV MUL PUSH1 0x20 ADD PUSH1 0x40 MLOAD SWAP1 DUP2 ADD PUSH1 0x40 MSTORE DUP1 SWAP3 SWAP2 SWAP1 DUP2 DUP2 MSTORE PUSH1 0x20 ADD DUP3 DUP1 SLOAD PUSH2 0x469 SWAP1 PUSH2 0x2B1D JUMP JUMPDEST DUP1 ISZERO PUSH2 0x4B6 JUMPI DUP1 PUSH1 0x1F LT PUSH2 0x48B JUMPI PUSH2 0x100 DUP1 DUP4 SLOAD DIV MUL DUP4 MSTORE SWAP2 PUSH1 0x20 ADD SWAP2 PUSH2 0x4B6 JUMP JUMPDEST DUP3 ADD SWAP2 SWAP1 PUSH1 0x0 MSTORE PUSH1 0x20 PUSH1 0x0 KECCAK256 SWAP1 JUMPDEST DUP2 SLOAD DUP2 MSTORE SWAP1 PUSH1 0x1 ADD SWAP1 PUSH1 0x20 ADD DUP1 DUP4 GT PUSH2 0x499 JUMPI DUP3 SWAP1 SUB PUSH1 0x1F AND DUP3 ADD SWAP2 JUMPDEST POP POP POP POP POP DUP2 MSTORE PUSH1 0x20 ADD PUSH1 0x7 DUP3 ADD DUP1 SLOAD PUSH2 0x4CF SWAP1 PUSH2 0x2B1D JUMP JUMPDEST DUP1 PUSH1 0x1F ADD PUSH1 0x20 DUP1 SWAP2 DIV MUL PUSH1 0x20 ADD PUSH1 0x40 MLOAD SWAP1 DUP2 ADD PUSH1 0x40 MSTORE DUP1 SWAP3 SWAP2 SWAP1 DUP2 DUP2 MSTORE PUSH1 0x20 ADD DUP3 DUP1 SLOAD PUSH2 0x4FB SWAP1 PUSH2 0x2B1D JUMP JUMPDEST DUP1 ISZERO PUSH2 0x548 JUMPI DUP1 PUSH1 0x1F LT PUSH2 0x51D JUMPI PUSH2 0x100 DUP1 DUP4 SLOAD DIV MUL DUP4 MSTORE SWAP2 PUSH1 0x20 ADD SWAP2 PUSH2 0x548 JUMP JUMPDEST DUP3 ADD SWAP2 SWAP1 PUSH1 0x0 MSTORE PUSH1 0x20 PUSH1 0x0 KECCAK256 SWAP1 JUMPDEST DUP2 SLOAD DUP2 MSTORE SWAP1 PUSH1 0x1 ADD SWAP1 PUSH1 0x20 ADD DUP1 DUP4 GT PUSH2 0x52B JUMPI DUP3 SWAP1 SUB PUSH1 0x1F AND DUP3 ADD SWAP2 JUMPDEST POP POP POP POP POP DUP2 MSTORE PUSH1 0x20 ADD PUSH1 0x8 DUP3 ADD DUP1 SLOAD PUSH2 0x561 SWAP1 PUSH2 0x2B1D JUMP JUMPDEST DUP1 PUSH1 0x1F ADD PUSH1 0x20 DUP1 SWAP2 DIV MUL PUSH1 0x20 ADD PUSH1 0x40 MLOAD SWAP1 DUP2 ADD PUSH1 0x40 MSTORE DUP1 SWAP3 SWAP2 SWAP1 DUP2 DUP2 MSTORE PUSH1 0x20 ADD DUP3 DUP1 SLOAD PUSH2 0x58D SWAP1 PUSH2 0x2B1D JUMP JUMPDEST DUP1 ISZERO PUSH2 0x5DA JUMPI DUP1 PUSH1 0x1F LT PUSH2 0x5AF JUMPI PUSH2 0x100 DUP1 DUP4 SLOAD DIV MUL DUP4 MSTORE SWAP2 PUSH1 0x20 ADD SWAP2 PUSH2 0x5DA JUMP JUMPDEST DUP3 ADD SWAP2 SWAP1 PUSH1 0x0 MSTORE PUSH1 0x20 PUSH1 0x0 KECCAK256 SWAP1 JUMPDEST DUP2 SLOAD DUP2 MSTORE SWAP1 PUSH1 0x1 ADD SWAP1 PUSH1 0x20 ADD DUP1 DUP4 GT PUSH2 0x5BD JUMPI DUP3 SWAP1 SUB PUSH1 0x1F AND DUP3 ADD SWAP2 JUMPDEST POP POP POP SWAP2 DUP4 MSTORE POP POP PUSH1 0x9 DUP3 ADD SLOAD PUSH1 0x20 SWAP1 SWAP2 ADD SWAP1 PUSH1 0xFF AND PUSH1 0x4 DUP2 GT ISZERO PUSH2 0x601 JUMPI PUSH2 0x601 PUSH2 0x2344 JUMP JUMPDEST PUSH1 0x4 DUP2 GT ISZERO PUSH2 0x612 JUMPI PUSH2 0x612 PUSH2 0x2344 JUMP JUMPDEST DUP2 MSTORE PUSH1 0x20 ADD PUSH1 0xA DUP3 ADD DUP1 SLOAD PUSH2 0x626 SWAP1 PUSH2 0x2B1D JUMP JUMPDEST DUP1 PUSH1 0x1F ADD PUSH1 0x20 DUP1 SWAP2 DIV MUL PUSH1 0x20 ADD PUSH1 0x40 MLOAD SWAP1 DUP2 ADD PUSH1 0x40 MSTORE DUP1 SWAP3 SWAP2 SWAP1 DUP2 DUP2 MSTORE PUSH1 0x20 ADD DUP3 DUP1 SLOAD PUSH2 0x652 SWAP1 PUSH2 0x2B1D JUMP JUMPDEST DUP1 ISZERO PUSH2 0x69F JUMPI DUP1 PUSH1 0x1F LT PUSH2 0x674 JUMPI PUSH2 0x100 DUP1 DUP4 SLOAD DIV MUL DUP4 MSTORE SWAP2 PUSH1 0x20 ADD SWAP2 PUSH2 0x69F JUMP JUMPDEST DUP3 ADD SWAP2 SWAP1 PUSH1 0x0 MSTORE PUSH1 0x20 PUSH1 0x0 KECCAK256 SWAP1 JUMPDEST DUP2 SLOAD DUP2 MSTORE SWAP1 PUSH1 0x1 ADD SWAP1 PUSH1 0x20 ADD DUP1 DUP4 GT PUSH2 0x682 JUMPI DUP3 SWAP1 SUB PUSH1 0x1F AND DUP3 ADD SWAP2 JUMPDEST POP POP POP POP POP DUP2 MSTORE PUSH1 0x20 ADD PUSH1 0xB DUP3 ADD DUP1 SLOAD PUSH2 0x6B8 SWAP1 PUSH2 0x2B1D JUMP JUMPDEST DUP1 PUSH1 0x1F ADD PUSH1 0x20 DUP1 SWAP2 DIV MUL PUSH1 0x20 ADD PUSH1 0x40 MLOAD SWAP1 DUP2 ADD PUSH1 0x40 MSTORE DUP1 SWAP3 SWAP2 SWAP1 DUP2 DUP2 MSTORE PUSH1 0x20 ADD DUP3 DUP1 SLOAD PUSH2 0x6E4 SWAP1 PUSH2 0x2B1D JUMP JUMPDEST DUP1 ISZERO PUSH2 0x731 JUMPI DUP1 PUSH1 0x1F LT PUSH2 0x706 JUMPI PUSH2 0x100 DUP1 DUP4 SLOAD DIV MUL DUP4 MSTORE SWAP2 PUSH1 0x20 ADD SWAP2 PUSH2 0x731 JUMP JUMPDEST DUP3 ADD SWAP2 SWAP1 PUSH1 0x0 MSTORE PUSH1 0x20 PUSH1 0x0 KECCAK256 SWAP1 JUMPDEST DUP2 SLOAD DUP2 MSTORE SWAP1 PUSH1 0x1 ADD SWAP1 PUSH1 0x20 ADD DUP1 DUP4 GT PUSH2 0x714 JUMPI DUP3 SWAP1 SUB PUSH1 0x1F AND DUP3 ADD SWAP2 JUMPDEST POP POP POP POP POP DUP2 MSTORE PUSH1 0x20 ADD PUSH1 0xC DUP3 ADD DUP1 SLOAD PUSH2 0x74A SWAP1 PUSH2 0x2B1D JUMP JUMPDEST DUP1 PUSH1 0x1F ADD PUSH1 0x20 DUP1 SWAP2 DIV MUL PUSH1 0x20 ADD PUSH1 0x40 MLOAD SWAP1 DUP2 ADD PUSH1 0x40 MSTORE DUP1 SWAP3 SWAP2 SWAP1 DUP2 DUP2 MSTORE PUSH1 0x20 ADD DUP3 DUP1 SLOAD PUSH2 0x776 SWAP1 PUSH2 0x2B1D JUMP JUMPDEST DUP1 ISZERO PUSH2 0x7C3 JUMPI DUP1 PUSH1 0x1F LT PUSH2 0x798 JUMPI PUSH2 0x100 DUP1 DUP4 SLOAD DIV MUL DUP4 MSTORE SWAP2 PUSH1 0x20 ADD SWAP2 PUSH2 0x7C3 JUMP JUMPDEST DUP3 ADD SWAP2 SWAP1 PUSH1 0x0 MSTORE PUSH1 0x20 PUSH1 0x0 KECCAK256 SWAP1 JUMPDEST DUP2 SLOAD DUP2 MSTORE SWAP1 PUSH1 0x1 ADD SWAP1 PUSH1 0x20 ADD DUP1 DUP4 GT PUSH2 0x7A6 JUMPI DUP3 SWAP1 SUB PUSH1 0x1F AND DUP3 ADD SWAP2 JUMPDEST POP POP POP POP POP DUP2 MSTORE PUSH1 0x20 ADD PUSH1 0xD DUP3 ADD DUP1 SLOAD PUSH2 0x7DC SWAP1 PUSH2 0x2B1D JUMP JUMPDEST DUP1 PUSH1 0x1F ADD PUSH1 0x20 DUP1 SWAP2 DIV MUL PUSH1 0x20 ADD PUSH1 0x40 MLOAD SWAP1 DUP2 ADD PUSH1 0x40 MSTORE DUP1 SWAP3 SWAP2 SWAP1 DUP2 DUP2 MSTORE PUSH1 0x20 ADD DUP3 DUP1 SLOAD PUSH2 0x808 SWAP1 PUSH2 0x2B1D JUMP JUMPDEST DUP1 ISZERO PUSH2 0x855 JUMPI DUP1 PUSH1 0x1F LT PUSH2 0x82A JUMPI PUSH2 0x100 DUP1 DUP4 SLOAD DIV MUL DUP4 MSTORE SWAP2 PUSH1 0x20 ADD SWAP2 PUSH2 0x855 JUMP JUMPDEST DUP3 ADD SWAP2 SWAP1 PUSH1 0x0 MSTORE PUSH1 0x20 PUSH1 0x0 KECCAK256 SWAP1 JUMPDEST DUP2 SLOAD DUP2 MSTORE SWAP1 PUSH1 0x1 ADD SWAP1 PUSH1 0x20 ADD DUP1 DUP4 GT PUSH2 0x838 JUMPI DUP3 SWAP1 SUB PUSH1 0x1F AND DUP3 ADD SWAP2 JUMPDEST POP POP POP SWAP2 DUP4 MSTORE POP POP PUSH1 0xE DUP3 ADD SLOAD PUSH1 0xFF DUP1 DUP3 AND ISZERO ISZERO PUSH1 0x20 DUP5 ADD MSTORE PUSH2 0x100 DUP3 DIV DUP2 AND ISZERO ISZERO PUSH1 0x40 DUP5 ADD MSTORE PUSH3 0x10000 SWAP1 SWAP2 DIV DUP2 AND ISZERO ISZERO PUSH1 0x60 DUP4 ADD MSTORE PUSH1 0xF DUP4 ADD SLOAD PUSH1 0x80 DUP4 ADD MSTORE PUSH1 0x10 DUP4 ADD SLOAD PUSH1 0xA0 SWAP1 SWAP3 ADD SWAP2 AND PUSH1 0x2 DUP2 GT ISZERO PUSH2 0x8B3 JUMPI PUSH2 0x8B3 PUSH2 0x2344 JUMP JUMPDEST PUSH1 0x2 DUP2 GT ISZERO PUSH2 0x8C4 JUMPI PUSH2 0x8C4 PUSH2 0x2344 JUMP JUMPDEST SWAP1 MSTORE POP SWAP3 SWAP2 POP POP JUMP JUMPDEST PUSH1 0x4 DUP1 SLOAD PUSH1 0x40 DUP1 MLOAD PUSH4 0xA2119377 PUSH1 0xE0 SHL DUP2 MSTORE SWAP3 DUP4 ADD MSTORE PUSH1 0x8 PUSH1 0x44 DUP4 ADD MSTORE PUSH8 0x746F6B656E557269 PUSH1 0xC0 SHL PUSH1 0x64 DUP4 ADD MSTORE PUSH1 0x1 PUSH1 0x1 PUSH1 0xA0 SHL SUB DUP4 DUP2 AND PUSH1 0x24 DUP5 ADD MSTORE PUSH1 0x0 SWAP3 DUP4 SWAP3 SWAP2 SWAP1 SWAP2 AND SWAP1 PUSH4 0xA2119377 SWAP1 PUSH1 0x84 ADD PUSH1 0x20 PUSH1 0x40 MLOAD DUP1 DUP4 SUB DUP2 PUSH1 0x0 DUP8 GAS CALL ISZERO DUP1 ISZERO PUSH2 0x93D JUMPI RETURNDATASIZE PUSH1 0x0 DUP1 RETURNDATACOPY RETURNDATASIZE PUSH1 0x0 REVERT JUMPDEST POP POP POP POP PUSH1 0x40 MLOAD RETURNDATASIZE PUSH1 0x1F NOT PUSH1 0x1F DUP3 ADD AND DUP3 ADD DUP1 PUSH1 0x40 MSTORE POP DUP2 ADD SWAP1 PUSH2 0x961 SWAP2 SWAP1 PUSH2 0x2B57 JUMP JUMPDEST SWAP4 SWAP3 POP POP POP JUMP JUMPDEST PUSH1 0x0 DUP1 PUSH2 0x9B8 DUP4 PUSH1 0x40 ADD MLOAD DUP5 PUSH1 0x0 ADD MLOAD DUP6 PUSH2 0x100 ADD MLOAD DUP7 PUSH2 0x120 ADD MLOAD DUP8 PUSH2 0x140 ADD MLOAD PUSH1 0x40 MLOAD PUSH1 0x20 ADD PUSH2 0x99E SWAP6 SWAP5 SWAP4 SWAP3 SWAP2 SWAP1 PUSH2 0x2B70 JUMP JUMPDEST PUSH1 0x40 MLOAD PUSH1 0x20 DUP2 DUP4 SUB SUB DUP2 MSTORE SWAP1 PUSH1 0x40 MSTORE DUP1 MLOAD PUSH1 0x20 SWAP1 SWAP2 ADD KECCAK256 SWAP1 JUMP JUMPDEST PUSH1 0x40 MLOAD PUSH1 0x20 ADD PUSH2 0x9CA SWAP2 DUP2 MSTORE PUSH1 0x20 ADD SWAP1 JUMP JUMPDEST PUSH1 0x40 MLOAD PUSH1 0x20 DUP2 DUP4 SUB SUB DUP2 MSTORE SWAP1 PUSH1 0x40 MSTORE SWAP1 POP DUP3 PUSH1 0x9 DUP3 PUSH1 0x40 MLOAD PUSH2 0x9EC SWAP2 SWAP1 PUSH2 0x2B01 JUMP JUMPDEST SWAP1 DUP2 MSTORE PUSH1 0x40 DUP1 MLOAD PUSH1 0x20 SWAP3 DUP2 SWAP1 SUB DUP4 ADD SWAP1 KECCAK256 DUP4 MLOAD DUP2 SSTORE SWAP2 DUP4 ADD MLOAD PUSH1 0x1 DUP4 ADD DUP1 SLOAD PUSH1 0xFF NOT AND SWAP2 ISZERO ISZERO SWAP2 SWAP1 SWAP2 OR SWAP1 SSTORE DUP3 ADD MLOAD PUSH1 0x2 DUP3 ADD SSTORE PUSH1 0x60 DUP3 ADD MLOAD PUSH1 0x3 DUP3 ADD SWAP1 PUSH2 0xA34 SWAP1 DUP3 PUSH2 0x2C1A JUMP JUMPDEST POP PUSH1 0x80 DUP3 ADD MLOAD PUSH1 0x4 DUP3 ADD SWAP1 PUSH2 0xA49 SWAP1 DUP3 PUSH2 0x2C1A JUMP JUMPDEST POP PUSH1 0xA0 DUP3 ADD MLOAD PUSH1 0x5 DUP3 ADD DUP1 SLOAD PUSH1 0x1 PUSH1 0x1 PUSH1 0xA0 SHL SUB NOT AND PUSH1 0x1 PUSH1 0x1 PUSH1 0xA0 SHL SUB SWAP1 SWAP3 AND SWAP2 SWAP1 SWAP2 OR SWAP1 SSTORE PUSH1 0xC0 DUP3 ADD MLOAD PUSH1 0x6 DUP3 ADD SWAP1 PUSH2 0xA84 SWAP1 DUP3 PUSH2 0x2C1A JUMP JUMPDEST POP PUSH1 0xE0 DUP3 ADD MLOAD PUSH1 0x7 DUP3 ADD SWAP1 PUSH2 0xA99 SWAP1 DUP3 PUSH2 0x2C1A JUMP JUMPDEST POP PUSH2 0x100 DUP3 ADD MLOAD PUSH1 0x8 DUP3 ADD SWAP1 PUSH2 0xAAF SWAP1 DUP3 PUSH2 0x2C1A JUMP JUMPDEST POP PUSH2 0x120 DUP3 ADD MLOAD PUSH1 0x9 DUP3 ADD DUP1 SLOAD PUSH1 0xFF NOT AND PUSH1 0x1 DUP4 PUSH1 0x4 DUP2 GT ISZERO PUSH2 0xAD4 JUMPI PUSH2 0xAD4 PUSH2 0x2344 JUMP JUMPDEST MUL OR SWAP1 SSTORE POP PUSH2 0x140 DUP3 ADD MLOAD PUSH1 0xA DUP3 ADD SWAP1 PUSH2 0xAEE SWAP1 DUP3 PUSH2 0x2C1A JUMP JUMPDEST POP PUSH2 0x160 DUP3 ADD MLOAD PUSH1 0xB DUP3 ADD SWAP1 PUSH2 0xB04 SWAP1 DUP3 PUSH2 0x2C1A JUMP JUMPDEST POP PUSH2 0x180 DUP3 ADD MLOAD PUSH1 0xC DUP3 ADD SWAP1 PUSH2 0xB1A SWAP1 DUP3 PUSH2 0x2C1A JUMP JUMPDEST POP PUSH2 0x1A0 DUP3 ADD MLOAD PUSH1 0xD DUP3 ADD SWAP1 PUSH2 0xB30 SWAP1 DUP3 PUSH2 0x2C1A JUMP JUMPDEST POP PUSH2 0x1C0 DUP3 ADD MLOAD PUSH1 0xE DUP3 ADD DUP1 SLOAD PUSH2 0x1E0 DUP6 ADD MLOAD PUSH2 0x200 DUP7 ADD MLOAD ISZERO ISZERO PUSH3 0x10000 MUL PUSH3 0xFF0000 NOT SWAP2 ISZERO ISZERO PUSH2 0x100 MUL PUSH2 0xFF00 NOT SWAP6 ISZERO ISZERO SWAP6 SWAP1 SWAP6 AND PUSH2 0xFFFF NOT SWAP1 SWAP4 AND SWAP3 SWAP1 SWAP3 OR SWAP4 SWAP1 SWAP4 OR SWAP3 SWAP1 SWAP3 AND SWAP2 SWAP1 SWAP2 OR SWAP1 SSTORE PUSH2 0x220 DUP3 ADD MLOAD PUSH1 0xF DUP3 ADD SSTORE PUSH2 0x240 DUP3 ADD MLOAD PUSH1 0x10 DUP3 ADD DUP1 SLOAD PUSH1 0xFF NOT AND PUSH1 0x1 DUP4 PUSH1 0x2 DUP2 GT ISZERO PUSH2 0xBAF JUMPI PUSH2 0xBAF PUSH2 0x2344 JUMP JUMPDEST MUL OR SWAP1 SSTORE POP POP PUSH1 0xA DUP1 SLOAD PUSH1 0x1 DUP2 ADD DUP3 SSTORE PUSH1 0x0 SWAP2 SWAP1 SWAP2 MSTORE PUSH32 0xC65A7BB8D6351C1CF70C95A316CC6A92839C986682D98BC35F958F4883F9D2A8 ADD SWAP1 POP PUSH2 0xBF3 DUP3 DUP3 PUSH2 0x2C1A JUMP JUMPDEST POP PUSH1 0x1 SWAP4 SWAP3 POP POP POP JUMP JUMPDEST PUSH2 0xC05 PUSH2 0x1F7F JUMP JUMPDEST PUSH2 0xC0F PUSH1 0x0 PUSH2 0x1FD9 JUMP JUMPDEST JUMP JUMPDEST PUSH1 0x0 PUSH2 0xC1B PUSH2 0x21B0 JUMP JUMPDEST DUP9 DUP2 MSTORE PUSH1 0x1 PUSH1 0x1 PUSH1 0xA0 SHL SUB DUP1 DUP13 AND PUSH1 0x20 DUP1 DUP5 ADD SWAP2 DUP3 MSTORE DUP7 DUP4 AND PUSH1 0x40 DUP1 DUP7 ADD DUP3 DUP2 MSTORE PUSH1 0x60 DUP8 ADD DUP10 DUP2 MSTORE PUSH1 0x0 SWAP4 DUP5 MSTORE PUSH1 0x8 DUP6 MSTORE DUP3 DUP5 KECCAK256 DUP11 DUP6 MSTORE SWAP1 SWAP5 MSTORE SWAP2 DUP2 SWAP1 KECCAK256 DUP7 MLOAD DUP2 SSTORE SWAP4 MLOAD PUSH1 0x1 DUP6 ADD DUP1 SLOAD SWAP2 DUP8 AND PUSH1 0x1 PUSH1 0x1 PUSH1 0xA0 SHL SUB NOT SWAP3 DUP4 AND OR SWAP1 SSTORE SWAP2 MLOAD PUSH1 0x2 DUP6 ADD DUP1 SLOAD SWAP2 DUP8 AND SWAP2 SWAP1 SWAP4 AND OR SWAP1 SWAP2 SSTORE SWAP1 MLOAD PUSH1 0x3 SWAP1 SWAP3 ADD SWAP2 SWAP1 SWAP2 SSTORE PUSH1 0x5 SLOAD SWAP1 MLOAD PUSH4 0xD505ACCF PUSH1 0xE0 SHL DUP2 MSTORE SWAP2 AND SWAP1 PUSH4 0xD505ACCF SWAP1 PUSH2 0xCC7 SWAP1 DUP15 SWAP1 DUP15 SWAP1 DUP15 SWAP1 DUP15 SWAP1 DUP15 SWAP1 DUP15 SWAP1 DUP15 SWAP1 PUSH1 0x4 ADD PUSH2 0x2CDA JUMP JUMPDEST PUSH1 0x0 PUSH1 0x40 MLOAD DUP1 DUP4 SUB DUP2 PUSH1 0x0 DUP8 DUP1 EXTCODESIZE ISZERO DUP1 ISZERO PUSH2 0xCE1 JUMPI PUSH1 0x0 DUP1 REVERT JUMPDEST POP GAS CALL ISZERO DUP1 ISZERO PUSH2 0xCF5 JUMPI RETURNDATASIZE PUSH1 0x0 DUP1 RETURNDATACOPY RETURNDATASIZE PUSH1 0x0 REVERT JUMPDEST POP POP PUSH1 0x5 SLOAD PUSH1 0x40 MLOAD PUSH4 0x39509351 PUSH1 0xE0 SHL DUP2 MSTORE PUSH1 0x1 PUSH1 0x1 PUSH1 0xA0 SHL SUB DUP15 DUP2 AND PUSH1 0x4 DUP4 ADD MSTORE PUSH1 0x24 DUP3 ADD DUP15 SWAP1 MSTORE SWAP1 SWAP2 AND SWAP3 POP PUSH4 0x39509351 SWAP2 POP PUSH1 0x44 ADD PUSH1 0x20 PUSH1 0x40 MLOAD DUP1 DUP4 SUB DUP2 PUSH1 0x0 DUP8 GAS CALL ISZERO DUP1 ISZERO PUSH2 0xD4C JUMPI RETURNDATASIZE PUSH1 0x0 DUP1 RETURNDATACOPY RETURNDATASIZE PUSH1 0x0 REVERT JUMPDEST POP POP POP POP PUSH1 0x40 MLOAD RETURNDATASIZE PUSH1 0x1F NOT PUSH1 0x1F DUP3 ADD AND DUP3 ADD DUP1 PUSH1 0x40 MSTORE POP DUP2 ADD SWAP1 PUSH2 0xD70 SWAP2 SWAP1 PUSH2 0x2D1B JUMP JUMPDEST POP PUSH1 0x5 SLOAD PUSH1 0x40 MLOAD PUSH4 0x23B872DD PUSH1 0xE0 SHL DUP2 MSTORE PUSH1 0x1 PUSH1 0x1 PUSH1 0xA0 SHL SUB SWAP1 SWAP2 AND SWAP1 PUSH4 0x23B872DD SWAP1 PUSH2 0xDA5 SWAP1 DUP15 SWAP1 ADDRESS SWAP1 DUP15 SWAP1 PUSH1 0x4 ADD PUSH2 0x2D38 JUMP JUMPDEST PUSH1 0x20 PUSH1 0x40 MLOAD DUP1 DUP4 SUB DUP2 PUSH1 0x0 DUP8 GAS CALL ISZERO DUP1 ISZERO PUSH2 0xDC4 JUMPI RETURNDATASIZE PUSH1 0x0 DUP1 RETURNDATACOPY RETURNDATASIZE PUSH1 0x0 REVERT JUMPDEST POP POP POP POP PUSH1 0x40 MLOAD RETURNDATASIZE PUSH1 0x1F NOT PUSH1 0x1F DUP3 ADD AND DUP3 ADD DUP1 PUSH1 0x40 MSTORE POP DUP2 ADD SWAP1 PUSH2 0xDE8 SWAP2 SWAP1 PUSH2 0x2D1B JUMP JUMPDEST POP PUSH1 0x1 SWAP12 SWAP11 POP POP POP POP POP POP POP POP POP POP POP JUMP JUMPDEST PUSH1 0x4 DUP1 SLOAD PUSH1 0x40 MLOAD PUSH4 0xA2119377 PUSH1 0xE0 SHL DUP2 MSTORE PUSH1 0x0 SWAP3 DUP4 SWAP3 PUSH1 0x1 PUSH1 0x1 PUSH1 0xA0 SHL SUB AND SWAP2 PUSH4 0xA2119377 SWAP2 PUSH2 0xE2E SWAP2 DUP16 SWAP2 CALLER SWAP2 ADD PUSH2 0x2D5C JUMP JUMPDEST PUSH1 0x20 PUSH1 0x40 MLOAD DUP1 DUP4 SUB DUP2 PUSH1 0x0 DUP8 GAS CALL ISZERO DUP1 ISZERO PUSH2 0xE4D JUMPI RETURNDATASIZE PUSH1 0x0 DUP1 RETURNDATACOPY RETURNDATASIZE PUSH1 0x0 REVERT JUMPDEST POP POP POP POP PUSH1 0x40 MLOAD RETURNDATASIZE PUSH1 0x1F NOT PUSH1 0x1F DUP3 ADD AND DUP3 ADD DUP1 PUSH1 0x40 MSTORE POP DUP2 ADD SWAP1 PUSH2 0xE71 SWAP2 SWAP1 PUSH2 0x2B57 JUMP JUMPDEST SWAP1 POP DUP1 PUSH1 0x9 DUP14 PUSH1 0x40 MLOAD PUSH2 0xE84 SWAP2 SWAP1 PUSH2 0x2B01 JUMP JUMPDEST SWAP1 DUP2 MSTORE PUSH1 0x40 MLOAD SWAP1 DUP2 SWAP1 SUB PUSH1 0x20 ADD DUP2 KECCAK256 SWAP2 SWAP1 SWAP2 SSTORE PUSH1 0x1 SWAP1 PUSH1 0x9 SWAP1 PUSH2 0xEA8 SWAP1 DUP16 SWAP1 PUSH2 0x2B01 JUMP JUMPDEST SWAP1 DUP2 MSTORE PUSH1 0x40 MLOAD SWAP1 DUP2 SWAP1 SUB PUSH1 0x20 ADD SWAP1 KECCAK256 PUSH1 0x10 ADD DUP1 SLOAD PUSH1 0xFF NOT AND PUSH1 0x1 DUP4 PUSH1 0x2 DUP2 GT ISZERO PUSH2 0xED4 JUMPI PUSH2 0xED4 PUSH2 0x2344 JUMP JUMPDEST MUL OR SWAP1 SSTORE POP PUSH1 0x5 SLOAD PUSH1 0x40 MLOAD PUSH4 0xD505ACCF PUSH1 0xE0 SHL DUP2 MSTORE PUSH1 0x1 PUSH1 0x1 PUSH1 0xA0 SHL SUB SWAP1 SWAP2 AND SWAP1 PUSH4 0xD505ACCF SWAP1 PUSH2 0xF15 SWAP1 DUP14 SWAP1 ADDRESS SWAP1 DUP14 SWAP1 DUP14 SWAP1 DUP14 SWAP1 DUP14 SWAP1 DUP14 SWAP1 PUSH1 0x4 ADD PUSH2 0x2CDA JUMP JUMPDEST PUSH1 0x0 PUSH1 0x40 MLOAD DUP1 DUP4 SUB DUP2 PUSH1 0x0 DUP8 DUP1 EXTCODESIZE ISZERO DUP1 ISZERO PUSH2 0xF2F JUMPI PUSH1 0x0 DUP1 REVERT JUMPDEST POP GAS CALL ISZERO DUP1 ISZERO PUSH2 0xF43 JUMPI RETURNDATASIZE PUSH1 0x0 DUP1 RETURNDATACOPY RETURNDATASIZE PUSH1 0x0 REVERT JUMPDEST POP POP PUSH1 0x5 SLOAD PUSH1 0x40 MLOAD PUSH4 0x23B872DD PUSH1 0xE0 SHL DUP2 MSTORE PUSH1 0x1 PUSH1 0x1 PUSH1 0xA0 SHL SUB SWAP1 SWAP2 AND SWAP3 POP PUSH4 0x23B872DD SWAP2 POP PUSH2 0xF7B SWAP1 DUP14 SWAP1 DUP14 SWAP1 DUP9 SWAP1 PUSH1 0x4 ADD PUSH2 0x2D38 JUMP JUMPDEST PUSH1 0x20 PUSH1 0x40 MLOAD DUP1 DUP4 SUB DUP2 PUSH1 0x0 DUP8 GAS CALL ISZERO DUP1 ISZERO PUSH2 0xF9A JUMPI RETURNDATASIZE PUSH1 0x0 DUP1 RETURNDATACOPY RETURNDATASIZE PUSH1 0x0 REVERT JUMPDEST POP POP POP POP PUSH1 0x40 MLOAD RETURNDATASIZE PUSH1 0x1F NOT PUSH1 0x1F DUP3 ADD AND DUP3 ADD DUP1 PUSH1 0x40 MSTORE POP DUP2 ADD SWAP1 PUSH2 0xFBE SWAP2 SWAP1 PUSH2 0x2D1B JUMP JUMPDEST POP PUSH1 0x1 SWAP13 SWAP12 POP POP POP POP POP POP POP POP POP POP POP POP JUMP JUMPDEST PUSH1 0x0 PUSH2 0xFDB PUSH2 0x21B0 JUMP JUMPDEST POP PUSH1 0x1 PUSH1 0x1 PUSH1 0xA0 SHL SUB DUP1 DUP13 AND PUSH1 0x0 SWAP1 DUP2 MSTORE PUSH1 0x8 PUSH1 0x20 SWAP1 DUP2 MSTORE PUSH1 0x40 DUP1 DUP4 KECCAK256 DUP15 DUP5 MSTORE DUP3 MSTORE DUP1 DUP4 KECCAK256 DUP2 MLOAD PUSH1 0x80 DUP2 ADD DUP4 MSTORE DUP2 SLOAD DUP2 MSTORE PUSH1 0x1 DUP3 ADD SLOAD DUP7 AND SWAP4 DUP2 ADD SWAP4 SWAP1 SWAP4 MSTORE PUSH1 0x2 DUP2 ADD SLOAD SWAP1 SWAP5 AND SWAP1 DUP3 ADD MSTORE PUSH1 0x3 SWAP1 SWAP3 ADD SLOAD PUSH1 0x60 DUP4 ADD MSTORE PUSH2 0x1039 PUSH2 0x1618 JUMP JUMPDEST PUSH1 0x6 SLOAD PUSH1 0x20 DUP5 DUP2 ADD MLOAD DUP6 MLOAD PUSH1 0x40 DUP1 MLOAD DUP1 DUP6 ADD SWAP6 SWAP1 SWAP6 MSTORE PUSH1 0x1 PUSH1 0x1 PUSH1 0xA0 SHL SUB SWAP1 SWAP3 AND DUP5 DUP4 ADD MSTORE ADDRESS PUSH1 0x60 DUP6 ADD MSTORE PUSH1 0x80 DUP5 ADD MSTORE PUSH1 0xA0 DUP4 ADD DUP12 SWAP1 MSTORE PUSH1 0xC0 DUP1 DUP5 ADD DUP14 SWAP1 MSTORE DUP2 MLOAD DUP1 DUP6 SUB SWAP1 SWAP2 ADD DUP2 MSTORE PUSH1 0xE0 DUP5 ADD SWAP1 SWAP2 MSTORE DUP1 MLOAD SWAP2 ADD KECCAK256 PUSH2 0x1901 PUSH1 0xF0 SHL PUSH2 0x100 DUP4 ADD MSTORE PUSH2 0x102 DUP3 ADD SWAP3 SWAP1 SWAP3 MSTORE PUSH2 0x122 DUP2 ADD SWAP2 SWAP1 SWAP2 MSTORE PUSH2 0x142 ADD PUSH1 0x40 DUP1 MLOAD PUSH1 0x1F NOT DUP2 DUP5 SUB ADD DUP2 MSTORE DUP3 DUP3 MSTORE DUP1 MLOAD PUSH1 0x20 SWAP2 DUP3 ADD KECCAK256 PUSH1 0x0 DUP5 MSTORE SWAP1 DUP4 ADD DUP1 DUP4 MSTORE DUP2 SWAP1 MSTORE PUSH1 0xFF DUP15 AND SWAP2 DUP4 ADD SWAP2 SWAP1 SWAP2 MSTORE PUSH1 0x60 DUP3 ADD DUP13 SWAP1 MSTORE PUSH1 0x80 DUP3 ADD DUP12 SWAP1 MSTORE SWAP2 POP PUSH1 0x1 SWAP1 PUSH1 0xA0 ADD PUSH1 0x20 PUSH1 0x40 MLOAD PUSH1 0x20 DUP2 SUB SWAP1 DUP1 DUP5 SUB SWAP1 DUP6 GAS STATICCALL ISZERO DUP1 ISZERO PUSH2 0x1118 JUMPI RETURNDATASIZE PUSH1 0x0 DUP1 RETURNDATACOPY RETURNDATASIZE PUSH1 0x0 REVERT JUMPDEST POP POP POP PUSH1 0x20 PUSH1 0x40 MLOAD SUB MLOAD PUSH1 0x1 PUSH1 0x1 PUSH1 0xA0 SHL SUB AND DUP3 PUSH1 0x20 ADD MLOAD PUSH1 0x1 PUSH1 0x1 PUSH1 0xA0 SHL SUB AND EQ PUSH2 0x1180 JUMPI PUSH1 0x40 MLOAD PUSH3 0x461BCD PUSH1 0xE5 SHL DUP2 MSTORE PUSH1 0x20 PUSH1 0x4 DUP3 ADD MSTORE PUSH1 0x12 PUSH1 0x24 DUP3 ADD MSTORE PUSH18 0x496E76616C6964205369676E617475726521 PUSH1 0x70 SHL PUSH1 0x44 DUP3 ADD MSTORE PUSH1 0x64 ADD JUMPDEST PUSH1 0x40 MLOAD DUP1 SWAP2 SUB SWAP1 REVERT JUMPDEST PUSH1 0x5 PUSH1 0x0 SWAP1 SLOAD SWAP1 PUSH2 0x100 EXP SWAP1 DIV PUSH1 0x1 PUSH1 0x1 PUSH1 0xA0 SHL SUB AND PUSH1 0x1 PUSH1 0x1 PUSH1 0xA0 SHL SUB AND PUSH4 0x23B872DD ADDRESS DUP16 DUP6 PUSH1 0x0 ADD MLOAD PUSH1 0x40 MLOAD DUP5 PUSH4 0xFFFFFFFF AND PUSH1 0xE0 SHL DUP2 MSTORE PUSH1 0x4 ADD PUSH2 0x11C9 SWAP4 SWAP3 SWAP2 SWAP1 PUSH2 0x2D38 JUMP JUMPDEST PUSH1 0x20 PUSH1 0x40 MLOAD DUP1 DUP4 SUB DUP2 PUSH1 0x0 DUP8 GAS CALL ISZERO DUP1 ISZERO PUSH2 0x11E8 JUMPI RETURNDATASIZE PUSH1 0x0 DUP1 RETURNDATACOPY RETURNDATASIZE PUSH1 0x0 REVERT JUMPDEST POP POP POP POP PUSH1 0x40 MLOAD RETURNDATASIZE PUSH1 0x1F NOT PUSH1 0x1F DUP3 ADD AND DUP3 ADD DUP1 PUSH1 0x40 MSTORE POP DUP2 ADD SWAP1 PUSH2 0x120C SWAP2 SWAP1 PUSH2 0x2D1B JUMP JUMPDEST POP PUSH1 0x4 DUP1 SLOAD PUSH1 0x40 MLOAD PUSH4 0x7AC2FF7B PUSH1 0xE0 SHL DUP2 MSTORE ADDRESS SWAP3 DUP2 ADD SWAP3 SWAP1 SWAP3 MSTORE PUSH1 0x24 DUP3 ADD DUP15 SWAP1 MSTORE PUSH1 0x44 DUP3 ADD DUP11 SWAP1 MSTORE PUSH1 0xFF DUP9 AND PUSH1 0x64 DUP4 ADD MSTORE PUSH1 0x84 DUP3 ADD DUP8 SWAP1 MSTORE PUSH1 0xA4 DUP3 ADD DUP7 SWAP1 MSTORE PUSH1 0x1 PUSH1 0x1 PUSH1 0xA0 SHL SUB AND SWAP1 PUSH4 0x7AC2FF7B SWAP1 PUSH1 0xC4 ADD PUSH1 0x0 PUSH1 0x40 MLOAD DUP1 DUP4 SUB DUP2 PUSH1 0x0 DUP8 DUP1 EXTCODESIZE ISZERO DUP1 ISZERO PUSH2 0x1278 JUMPI PUSH1 0x0 DUP1 REVERT JUMPDEST POP GAS CALL ISZERO DUP1 ISZERO PUSH2 0x128C JUMPI RETURNDATASIZE PUSH1 0x0 DUP1 RETURNDATACOPY RETURNDATASIZE PUSH1 0x0 REVERT JUMPDEST POP POP POP POP PUSH1 0x4 PUSH1 0x0 SWAP1 SLOAD SWAP1 PUSH2 0x100 EXP SWAP1 DIV PUSH1 0x1 PUSH1 0x1 PUSH1 0xA0 SHL SUB AND PUSH1 0x1 PUSH1 0x1 PUSH1 0xA0 SHL SUB AND PUSH4 0x23B872DD DUP15 DUP5 PUSH1 0x20 ADD MLOAD DUP16 PUSH1 0x40 MLOAD DUP5 PUSH4 0xFFFFFFFF AND PUSH1 0xE0 SHL DUP2 MSTORE PUSH1 0x4 ADD PUSH2 0x12D9 SWAP4 SWAP3 SWAP2 SWAP1 PUSH2 0x2D38 JUMP JUMPDEST PUSH1 0x0 PUSH1 0x40 MLOAD DUP1 DUP4 SUB DUP2 PUSH1 0x0 DUP8 DUP1 EXTCODESIZE ISZERO DUP1 ISZERO PUSH2 0x12F3 JUMPI PUSH1 0x0 DUP1 REVERT JUMPDEST POP GAS CALL ISZERO DUP1 ISZERO PUSH2 0x1307 JUMPI RETURNDATASIZE PUSH1 0x0 DUP1 RETURNDATACOPY RETURNDATASIZE PUSH1 0x0 REVERT JUMPDEST POP POP POP POP PUSH1 0x1 SWAP3 POP POP POP SWAP11 SWAP10 POP POP POP POP POP POP POP POP POP POP JUMP JUMPDEST PUSH1 0x4 DUP1 SLOAD PUSH1 0x40 MLOAD PUSH4 0xA2119377 PUSH1 0xE0 SHL DUP2 MSTORE PUSH1 0x0 SWAP3 DUP4 SWAP3 PUSH1 0x1 PUSH1 0x1 PUSH1 0xA0 SHL SUB AND SWAP2 PUSH4 0xA2119377 SWAP2 PUSH2 0x1353 SWAP2 DUP8 SWAP2 CALLER SWAP2 ADD PUSH2 0x2D5C JUMP JUMPDEST PUSH1 0x20 PUSH1 0x40 MLOAD DUP1 DUP4 SUB DUP2 PUSH1 0x0 DUP8 GAS CALL ISZERO DUP1 ISZERO PUSH2 0x1372 JUMPI RETURNDATASIZE PUSH1 0x0 DUP1 RETURNDATACOPY RETURNDATASIZE PUSH1 0x0 REVERT JUMPDEST POP POP POP POP PUSH1 0x40 MLOAD RETURNDATASIZE PUSH1 0x1F NOT PUSH1 0x1F DUP3 ADD AND DUP3 ADD DUP1 PUSH1 0x40 MSTORE POP DUP2 ADD SWAP1 PUSH2 0x1396 SWAP2 SWAP1 PUSH2 0x2B57 JUMP JUMPDEST DUP1 DUP6 MSTORE PUSH1 0x40 DUP1 DUP7 ADD MLOAD PUSH2 0x100 DUP8 ADD MLOAD PUSH2 0x120 DUP9 ADD MLOAD PUSH2 0x140 DUP10 ADD MLOAD SWAP4 MLOAD SWAP5 SWAP6 POP PUSH1 0x0 SWAP5 PUSH2 0x13D1 SWAP5 PUSH2 0x99E SWAP5 SWAP4 DUP9 SWAP4 SWAP1 SWAP3 SWAP1 SWAP2 SWAP1 PUSH1 0x20 ADD PUSH2 0x2B70 JUMP JUMPDEST PUSH1 0x40 MLOAD PUSH1 0x20 ADD PUSH2 0x13E3 SWAP2 DUP2 MSTORE PUSH1 0x20 ADD SWAP1 JUMP JUMPDEST PUSH1 0x40 MLOAD PUSH1 0x20 DUP2 DUP4 SUB SUB DUP2 MSTORE SWAP1 PUSH1 0x40 MSTORE SWAP1 POP DUP5 PUSH1 0x9 DUP3 PUSH1 0x40 MLOAD PUSH2 0x1405 SWAP2 SWAP1 PUSH2 0x2B01 JUMP JUMPDEST SWAP1 DUP2 MSTORE PUSH1 0x40 DUP1 MLOAD PUSH1 0x20 SWAP3 DUP2 SWAP1 SUB DUP4 ADD SWAP1 KECCAK256 DUP4 MLOAD DUP2 SSTORE SWAP2 DUP4 ADD MLOAD PUSH1 0x1 DUP4 ADD DUP1 SLOAD PUSH1 0xFF NOT AND SWAP2 ISZERO ISZERO SWAP2 SWAP1 SWAP2 OR SWAP1 SSTORE DUP3 ADD MLOAD PUSH1 0x2 DUP3 ADD SSTORE PUSH1 0x60 DUP3 ADD MLOAD PUSH1 0x3 DUP3 ADD SWAP1 PUSH2 0x144D SWAP1 DUP3 PUSH2 0x2C1A JUMP JUMPDEST POP PUSH1 0x80 DUP3 ADD MLOAD PUSH1 0x4 DUP3 ADD SWAP1 PUSH2 0x1462 SWAP1 DUP3 PUSH2 0x2C1A JUMP JUMPDEST POP PUSH1 0xA0 DUP3 ADD MLOAD PUSH1 0x5 DUP3 ADD DUP1 SLOAD PUSH1 0x1 PUSH1 0x1 PUSH1 0xA0 SHL SUB NOT AND PUSH1 0x1 PUSH1 0x1 PUSH1 0xA0 SHL SUB SWAP1 SWAP3 AND SWAP2 SWAP1 SWAP2 OR SWAP1 SSTORE PUSH1 0xC0 DUP3 ADD MLOAD PUSH1 0x6 DUP3 ADD SWAP1 PUSH2 0x149D SWAP1 DUP3 PUSH2 0x2C1A JUMP JUMPDEST POP PUSH1 0xE0 DUP3 ADD MLOAD PUSH1 0x7 DUP3 ADD SWAP1 PUSH2 0x14B2 SWAP1 DUP3 PUSH2 0x2C1A JUMP JUMPDEST POP PUSH2 0x100 DUP3 ADD MLOAD PUSH1 0x8 DUP3 ADD SWAP1 PUSH2 0x14C8 SWAP1 DUP3 PUSH2 0x2C1A JUMP JUMPDEST POP PUSH2 0x120 DUP3 ADD MLOAD PUSH1 0x9 DUP3 ADD DUP1 SLOAD PUSH1 0xFF NOT AND PUSH1 0x1 DUP4 PUSH1 0x4 DUP2 GT ISZERO PUSH2 0x14ED JUMPI PUSH2 0x14ED PUSH2 0x2344 JUMP JUMPDEST MUL OR SWAP1 SSTORE POP PUSH2 0x140 DUP3 ADD MLOAD PUSH1 0xA DUP3 ADD SWAP1 PUSH2 0x1507 SWAP1 DUP3 PUSH2 0x2C1A JUMP JUMPDEST POP PUSH2 0x160 DUP3 ADD MLOAD PUSH1 0xB DUP3 ADD SWAP1 PUSH2 0x151D SWAP1 DUP3 PUSH2 0x2C1A JUMP JUMPDEST POP PUSH2 0x180 DUP3 ADD MLOAD PUSH1 0xC DUP3 ADD SWAP1 PUSH2 0x1533 SWAP1 DUP3 PUSH2 0x2C1A JUMP JUMPDEST POP PUSH2 0x1A0 DUP3 ADD MLOAD PUSH1 0xD DUP3 ADD SWAP1 PUSH2 0x1549 SWAP1 DUP3 PUSH2 0x2C1A JUMP JUMPDEST POP PUSH2 0x1C0 DUP3 ADD MLOAD PUSH1 0xE DUP3 ADD DUP1 SLOAD PUSH2 0x1E0 DUP6 ADD MLOAD PUSH2 0x200 DUP7 ADD MLOAD ISZERO ISZERO PUSH3 0x10000 MUL PUSH3 0xFF0000 NOT SWAP2 ISZERO ISZERO PUSH2 0x100 MUL PUSH2 0xFF00 NOT SWAP6 ISZERO ISZERO SWAP6 SWAP1 SWAP6 AND PUSH2 0xFFFF NOT SWAP1 SWAP4 AND SWAP3 SWAP1 SWAP3 OR SWAP4 SWAP1 SWAP4 OR SWAP3 SWAP1 SWAP3 AND SWAP2 SWAP1 SWAP2 OR SWAP1 SSTORE PUSH2 0x220 DUP3 ADD MLOAD PUSH1 0xF DUP3 ADD SSTORE PUSH2 0x240 DUP3 ADD MLOAD PUSH1 0x10 DUP3 ADD DUP1 SLOAD PUSH1 0xFF NOT AND PUSH1 0x1 DUP4 PUSH1 0x2 DUP2 GT ISZERO PUSH2 0x15C8 JUMPI PUSH2 0x15C8 PUSH2 0x2344 JUMP JUMPDEST MUL OR SWAP1 SSTORE POP POP PUSH1 0xA DUP1 SLOAD PUSH1 0x1 DUP2 ADD DUP3 SSTORE PUSH1 0x0 SWAP2 SWAP1 SWAP2 MSTORE PUSH32 0xC65A7BB8D6351C1CF70C95A316CC6A92839C986682D98BC35F958F4883F9D2A8 ADD SWAP1 POP PUSH2 0x160C DUP3 DUP3 PUSH2 0x2C1A JUMP JUMPDEST POP PUSH1 0x1 SWAP6 SWAP5 POP POP POP POP POP JUMP JUMPDEST PUSH1 0x40 DUP1 MLOAD DUP1 DUP3 ADD DUP3 MSTORE PUSH1 0x4 DUP2 MSTORE PUSH4 0x4165726F PUSH1 0xE0 SHL PUSH1 0x20 SWAP2 DUP3 ADD MSTORE DUP2 MLOAD DUP1 DUP4 ADD DUP4 MSTORE PUSH1 0x1 DUP2 MSTORE PUSH1 0x31 PUSH1 0xF8 SHL SWAP1 DUP3 ADD MSTORE PUSH1 0xB SLOAD DUP3 MLOAD PUSH32 0x8B73C3C69BB8FE3D512ECC4CF759CC79239F7B179B0FFACAA9A75D522B39400F DUP2 DUP5 ADD MSTORE PUSH32 0xBF01FC4E5F7EB1F2EEE29681CD6D2CDA1045D51FD80C223D1EAEA49E08734BF9 DUP2 DUP6 ADD MSTORE PUSH32 0xC89EFDAA54C0F20C7ADF612882DF0950F5A951637E0307CDCB4C672F298B8BC6 PUSH1 0x60 DUP3 ADD MSTORE CHAINID PUSH1 0x80 DUP3 ADD MSTORE PUSH1 0x1 PUSH1 0x1 PUSH1 0xA0 SHL SUB SWAP1 SWAP2 AND PUSH1 0xA0 DUP1 DUP4 ADD SWAP2 SWAP1 SWAP2 MSTORE DUP4 MLOAD DUP1 DUP4 SUB SWAP1 SWAP2 ADD DUP2 MSTORE PUSH1 0xC0 SWAP1 SWAP2 ADD SWAP1 SWAP3 MSTORE DUP2 MLOAD SWAP2 ADD KECCAK256 SWAP1 JUMP JUMPDEST PUSH1 0x60 PUSH1 0x0 PUSH2 0x961 PUSH1 0x9 DUP5 PUSH1 0x40 MLOAD PUSH2 0x1707 SWAP2 SWAP1 PUSH2 0x2B01 JUMP JUMPDEST SWAP1 DUP2 MSTORE PUSH1 0x40 MLOAD SWAP1 DUP2 SWAP1 SUB PUSH1 0x20 ADD SWAP1 KECCAK256 PUSH1 0x10 ADD SLOAD PUSH1 0xFF AND PUSH2 0x202B JUMP JUMPDEST PUSH2 0x172A PUSH2 0x1F7F JUMP JUMPDEST PUSH1 0x1 PUSH1 0x1 PUSH1 0xA0 SHL SUB DUP2 AND PUSH2 0x178F JUMPI PUSH1 0x40 MLOAD PUSH3 0x461BCD PUSH1 0xE5 SHL DUP2 MSTORE PUSH1 0x20 PUSH1 0x4 DUP3 ADD MSTORE PUSH1 0x26 PUSH1 0x24 DUP3 ADD MSTORE PUSH32 0x4F776E61626C653A206E6577206F776E657220697320746865207A65726F2061 PUSH1 0x44 DUP3 ADD MSTORE PUSH6 0x646472657373 PUSH1 0xD0 SHL PUSH1 0x64 DUP3 ADD MSTORE PUSH1 0x84 ADD PUSH2 0x1177 JUMP JUMPDEST PUSH2 0x1798 DUP2 PUSH2 0x1FD9 JUMP JUMPDEST POP JUMP JUMPDEST PUSH1 0x60 PUSH2 0x17A5 PUSH2 0x1F7F JUMP JUMPDEST PUSH1 0xA SLOAD PUSH1 0x1 DUP2 LT ISZERO PUSH2 0x17EC JUMPI PUSH1 0x40 MLOAD PUSH3 0x461BCD PUSH1 0xE5 SHL DUP2 MSTORE PUSH1 0x20 PUSH1 0x4 DUP3 ADD MSTORE PUSH1 0x10 PUSH1 0x24 DUP3 ADD MSTORE PUSH16 0x6173736574732061726520656D707479 PUSH1 0x80 SHL PUSH1 0x44 DUP3 ADD MSTORE PUSH1 0x64 ADD PUSH2 0x1177 JUMP JUMPDEST DUP1 DUP5 GT ISZERO DUP1 ISZERO PUSH2 0x17FA JUMPI POP PUSH1 0x1 JUMPDEST PUSH2 0x186C JUMPI PUSH1 0x40 MLOAD PUSH3 0x461BCD PUSH1 0xE5 SHL DUP2 MSTORE PUSH1 0x20 PUSH1 0x4 DUP3 ADD MSTORE PUSH1 0x3F PUSH1 0x24 DUP3 ADD MSTORE PUSH32 0x6C6F77657220626F756E646172792073686F756C64206265206C657373206F72 PUSH1 0x44 DUP3 ADD MSTORE PUSH32 0x20657175616C20746F2073697A6520616E64206E6F6E206E6567617469766500 PUSH1 0x64 DUP3 ADD MSTORE PUSH1 0x84 ADD PUSH2 0x1177 JUMP JUMPDEST DUP1 DUP4 GT ISZERO DUP1 ISZERO PUSH2 0x187A JUMPI POP PUSH1 0x1 JUMPDEST PUSH2 0x18EC JUMPI PUSH1 0x40 MLOAD PUSH3 0x461BCD PUSH1 0xE5 SHL DUP2 MSTORE PUSH1 0x20 PUSH1 0x4 DUP3 ADD MSTORE PUSH1 0x3F PUSH1 0x24 DUP3 ADD MSTORE PUSH32 0x757070657220626F756E646172792073686F756C64206265206C657373206F72 PUSH1 0x44 DUP3 ADD MSTORE PUSH32 0x20657175616C20746F2073697A6520616E64206E6F6E206E6567617469766500 PUSH1 0x64 DUP3 ADD MSTORE PUSH1 0x84 ADD PUSH2 0x1177 JUMP JUMPDEST PUSH1 0x60 PUSH1 0x0 DUP6 JUMPDEST DUP6 DUP2 GT PUSH2 0x1F74 JUMPI PUSH1 0x9 PUSH1 0xA DUP3 DUP2 SLOAD DUP2 LT PUSH2 0x190E JUMPI PUSH2 0x190E PUSH2 0x2D86 JUMP JUMPDEST SWAP1 PUSH1 0x0 MSTORE PUSH1 0x20 PUSH1 0x0 KECCAK256 ADD PUSH1 0x40 MLOAD PUSH2 0x1925 SWAP2 SWAP1 PUSH2 0x2D9C JUMP JUMPDEST SWAP1 DUP2 MSTORE PUSH1 0x40 DUP1 MLOAD SWAP2 DUP3 SWAP1 SUB PUSH1 0x20 SWAP1 DUP2 ADD DUP4 KECCAK256 PUSH2 0x260 DUP5 ADD DUP4 MSTORE DUP1 SLOAD DUP5 MSTORE PUSH1 0x1 DUP2 ADD SLOAD PUSH1 0xFF AND ISZERO ISZERO SWAP2 DUP5 ADD SWAP2 SWAP1 SWAP2 MSTORE PUSH1 0x2 DUP2 ADD SLOAD SWAP2 DUP4 ADD SWAP2 SWAP1 SWAP2 MSTORE PUSH1 0x3 DUP2 ADD DUP1 SLOAD PUSH1 0x60 DUP5 ADD SWAP2 SWAP1 PUSH2 0x1974 SWAP1 PUSH2 0x2B1D JUMP JUMPDEST DUP1 PUSH1 0x1F ADD PUSH1 0x20 DUP1 SWAP2 DIV MUL PUSH1 0x20 ADD PUSH1 0x40 MLOAD SWAP1 DUP2 ADD PUSH1 0x40 MSTORE DUP1 SWAP3 SWAP2 SWAP1 DUP2 DUP2 MSTORE PUSH1 0x20 ADD DUP3 DUP1 SLOAD PUSH2 0x19A0 SWAP1 PUSH2 0x2B1D JUMP JUMPDEST DUP1 ISZERO PUSH2 0x19ED JUMPI DUP1 PUSH1 0x1F LT PUSH2 0x19C2 JUMPI PUSH2 0x100 DUP1 DUP4 SLOAD DIV MUL DUP4 MSTORE SWAP2 PUSH1 0x20 ADD SWAP2 PUSH2 0x19ED JUMP JUMPDEST DUP3 ADD SWAP2 SWAP1 PUSH1 0x0 MSTORE PUSH1 0x20 PUSH1 0x0 KECCAK256 SWAP1 JUMPDEST DUP2 SLOAD DUP2 MSTORE SWAP1 PUSH1 0x1 ADD SWAP1 PUSH1 0x20 ADD DUP1 DUP4 GT PUSH2 0x19D0 JUMPI DUP3 SWAP1 SUB PUSH1 0x1F AND DUP3 ADD SWAP2 JUMPDEST POP POP POP POP POP DUP2 MSTORE PUSH1 0x20 ADD PUSH1 0x4 DUP3 ADD DUP1 SLOAD PUSH2 0x1A06 SWAP1 PUSH2 0x2B1D JUMP JUMPDEST DUP1 PUSH1 0x1F ADD PUSH1 0x20 DUP1 SWAP2 DIV MUL PUSH1 0x20 ADD PUSH1 0x40 MLOAD SWAP1 DUP2 ADD PUSH1 0x40 MSTORE DUP1 SWAP3 SWAP2 SWAP1 DUP2 DUP2 MSTORE PUSH1 0x20 ADD DUP3 DUP1 SLOAD PUSH2 0x1A32 SWAP1 PUSH2 0x2B1D JUMP JUMPDEST DUP1 ISZERO PUSH2 0x1A7F JUMPI DUP1 PUSH1 0x1F LT PUSH2 0x1A54 JUMPI PUSH2 0x100 DUP1 DUP4 SLOAD DIV MUL DUP4 MSTORE SWAP2 PUSH1 0x20 ADD SWAP2 PUSH2 0x1A7F JUMP JUMPDEST DUP3 ADD SWAP2 SWAP1 PUSH1 0x0 MSTORE PUSH1 0x20 PUSH1 0x0 KECCAK256 SWAP1 JUMPDEST DUP2 SLOAD DUP2 MSTORE SWAP1 PUSH1 0x1 ADD SWAP1 PUSH1 0x20 ADD DUP1 DUP4 GT PUSH2 0x1A62 JUMPI DUP3 SWAP1 SUB PUSH1 0x1F AND DUP3 ADD SWAP2 JUMPDEST POP POP POP SWAP2 DUP4 MSTORE POP POP PUSH1 0x5 DUP3 ADD SLOAD PUSH1 0x1 PUSH1 0x1 PUSH1 0xA0 SHL SUB AND PUSH1 0x20 DUP3 ADD MSTORE PUSH1 0x6 DUP3 ADD DUP1 SLOAD PUSH1 0x40 SWAP1 SWAP3 ADD SWAP2 PUSH2 0x1AAF SWAP1 PUSH2 0x2B1D JUMP JUMPDEST DUP1 PUSH1 0x1F ADD PUSH1 0x20 DUP1 SWAP2 DIV MUL PUSH1 0x20 ADD PUSH1 0x40 MLOAD SWAP1 DUP2 ADD PUSH1 0x40 MSTORE DUP1 SWAP3 SWAP2 SWAP1 DUP2 DUP2 MSTORE PUSH1 0x20 ADD DUP3 DUP1 SLOAD PUSH2 0x1ADB SWAP1 PUSH2 0x2B1D JUMP JUMPDEST DUP1 ISZERO PUSH2 0x1B28 JUMPI DUP1 PUSH1 0x1F LT PUSH2 0x1AFD JUMPI PUSH2 0x100 DUP1 DUP4 SLOAD DIV MUL DUP4 MSTORE SWAP2 PUSH1 0x20 ADD SWAP2 PUSH2 0x1B28 JUMP JUMPDEST DUP3 ADD SWAP2 SWAP1 PUSH1 0x0 MSTORE PUSH1 0x20 PUSH1 0x0 KECCAK256 SWAP1 JUMPDEST DUP2 SLOAD DUP2 MSTORE SWAP1 PUSH1 0x1 ADD SWAP1 PUSH1 0x20 ADD DUP1 DUP4 GT PUSH2 0x1B0B JUMPI DUP3 SWAP1 SUB PUSH1 0x1F AND DUP3 ADD SWAP2 JUMPDEST POP POP POP POP POP DUP2 MSTORE PUSH1 0x20 ADD PUSH1 0x7 DUP3 ADD DUP1 SLOAD PUSH2 0x1B41 SWAP1 PUSH2 0x2B1D JUMP JUMPDEST DUP1 PUSH1 0x1F ADD PUSH1 0x20 DUP1 SWAP2 DIV MUL PUSH1 0x20 ADD PUSH1 0x40 MLOAD SWAP1 DUP2 ADD PUSH1 0x40 MSTORE DUP1 SWAP3 SWAP2 SWAP1 DUP2 DUP2 MSTORE PUSH1 0x20 ADD DUP3 DUP1 SLOAD PUSH2 0x1B6D SWAP1 PUSH2 0x2B1D JUMP JUMPDEST DUP1 ISZERO PUSH2 0x1BBA JUMPI DUP1 PUSH1 0x1F LT PUSH2 0x1B8F JUMPI PUSH2 0x100 DUP1 DUP4 SLOAD DIV MUL DUP4 MSTORE SWAP2 PUSH1 0x20 ADD SWAP2 PUSH2 0x1BBA JUMP JUMPDEST DUP3 ADD SWAP2 SWAP1 PUSH1 0x0 MSTORE PUSH1 0x20 PUSH1 0x0 KECCAK256 SWAP1 JUMPDEST DUP2 SLOAD DUP2 MSTORE SWAP1 PUSH1 0x1 ADD SWAP1 PUSH1 0x20 ADD DUP1 DUP4 GT PUSH2 0x1B9D JUMPI DUP3 SWAP1 SUB PUSH1 0x1F AND DUP3 ADD SWAP2 JUMPDEST POP POP POP POP POP DUP2 MSTORE PUSH1 0x20 ADD PUSH1 0x8 DUP3 ADD DUP1 SLOAD PUSH2 0x1BD3 SWAP1 PUSH2 0x2B1D JUMP JUMPDEST DUP1 PUSH1 0x1F ADD PUSH1 0x20 DUP1 SWAP2 DIV MUL PUSH1 0x20 ADD PUSH1 0x40 MLOAD SWAP1 DUP2 ADD PUSH1 0x40 MSTORE DUP1 SWAP3 SWAP2 SWAP1 DUP2 DUP2 MSTORE PUSH1 0x20 ADD DUP3 DUP1 SLOAD PUSH2 0x1BFF SWAP1 PUSH2 0x2B1D JUMP JUMPDEST DUP1 ISZERO PUSH2 0x1C4C JUMPI DUP1 PUSH1 0x1F LT PUSH2 0x1C21 JUMPI PUSH2 0x100 DUP1 DUP4 SLOAD DIV MUL DUP4 MSTORE SWAP2 PUSH1 0x20 ADD SWAP2 PUSH2 0x1C4C JUMP JUMPDEST DUP3 ADD SWAP2 SWAP1 PUSH1 0x0 MSTORE PUSH1 0x20 PUSH1 0x0 KECCAK256 SWAP1 JUMPDEST DUP2 SLOAD DUP2 MSTORE SWAP1 PUSH1 0x1 ADD SWAP1 PUSH1 0x20 ADD DUP1 DUP4 GT PUSH2 0x1C2F JUMPI DUP3 SWAP1 SUB PUSH1 0x1F AND DUP3 ADD SWAP2 JUMPDEST POP POP POP SWAP2 DUP4 MSTORE POP POP PUSH1 0x9 DUP3 ADD SLOAD PUSH1 0x20 SWAP1 SWAP2 ADD SWAP1 PUSH1 0xFF AND PUSH1 0x4 DUP2 GT ISZERO PUSH2 0x1C73 JUMPI PUSH2 0x1C73 PUSH2 0x2344 JUMP JUMPDEST PUSH1 0x4 DUP2 GT ISZERO PUSH2 0x1C84 JUMPI PUSH2 0x1C84 PUSH2 0x2344 JUMP JUMPDEST DUP2 MSTORE PUSH1 0x20 ADD PUSH1 0xA DUP3 ADD DUP1 SLOAD PUSH2 0x1C98 SWAP1 PUSH2 0x2B1D JUMP JUMPDEST DUP1 PUSH1 0x1F ADD PUSH1 0x20 DUP1 SWAP2 DIV MUL PUSH1 0x20 ADD PUSH1 0x40 MLOAD SWAP1 DUP2 ADD PUSH1 0x40 MSTORE DUP1 SWAP3 SWAP2 SWAP1 DUP2 DUP2 MSTORE PUSH1 0x20 ADD DUP3 DUP1 SLOAD PUSH2 0x1CC4 SWAP1 PUSH2 0x2B1D JUMP JUMPDEST DUP1 ISZERO PUSH2 0x1D11 JUMPI DUP1 PUSH1 0x1F LT PUSH2 0x1CE6 JUMPI PUSH2 0x100 DUP1 DUP4 SLOAD DIV MUL DUP4 MSTORE SWAP2 PUSH1 0x20 ADD SWAP2 PUSH2 0x1D11 JUMP JUMPDEST DUP3 ADD SWAP2 SWAP1 PUSH1 0x0 MSTORE PUSH1 0x20 PUSH1 0x0 KECCAK256 SWAP1 JUMPDEST DUP2 SLOAD DUP2 MSTORE SWAP1 PUSH1 0x1 ADD SWAP1 PUSH1 0x20 ADD DUP1 DUP4 GT PUSH2 0x1CF4 JUMPI DUP3 SWAP1 SUB PUSH1 0x1F AND DUP3 ADD SWAP2 JUMPDEST POP POP POP POP POP DUP2 MSTORE PUSH1 0x20 ADD PUSH1 0xB DUP3 ADD DUP1 SLOAD PUSH2 0x1D2A SWAP1 PUSH2 0x2B1D JUMP JUMPDEST DUP1 PUSH1 0x1F ADD PUSH1 0x20 DUP1 SWAP2 DIV MUL PUSH1 0x20 ADD PUSH1 0x40 MLOAD SWAP1 DUP2 ADD PUSH1 0x40 MSTORE DUP1 SWAP3 SWAP2 SWAP1 DUP2 DUP2 MSTORE PUSH1 0x20 ADD DUP3 DUP1 SLOAD PUSH2 0x1D56 SWAP1 PUSH2 0x2B1D JUMP JUMPDEST DUP1 ISZERO PUSH2 0x1DA3 JUMPI DUP1 PUSH1 0x1F LT PUSH2 0x1D78 JUMPI PUSH2 0x100 DUP1 DUP4 SLOAD DIV MUL DUP4 MSTORE SWAP2 PUSH1 0x20 ADD SWAP2 PUSH2 0x1DA3 JUMP JUMPDEST DUP3 ADD SWAP2 SWAP1 PUSH1 0x0 MSTORE PUSH1 0x20 PUSH1 0x0 KECCAK256 SWAP1 JUMPDEST DUP2 SLOAD DUP2 MSTORE SWAP1 PUSH1 0x1 ADD SWAP1 PUSH1 0x20 ADD DUP1 DUP4 GT PUSH2 0x1D86 JUMPI DUP3 SWAP1 SUB PUSH1 0x1F AND DUP3 ADD SWAP2 JUMPDEST POP POP POP POP POP DUP2 MSTORE PUSH1 0x20 ADD PUSH1 0xC DUP3 ADD DUP1 SLOAD PUSH2 0x1DBC SWAP1 PUSH2 0x2B1D JUMP JUMPDEST DUP1 PUSH1 0x1F ADD PUSH1 0x20 DUP1 SWAP2 DIV MUL PUSH1 0x20 ADD PUSH1 0x40 MLOAD SWAP1 DUP2 ADD PUSH1 0x40 MSTORE DUP1 SWAP3 SWAP2 SWAP1 DUP2 DUP2 MSTORE PUSH1 0x20 ADD DUP3 DUP1 SLOAD PUSH2 0x1DE8 SWAP1 PUSH2 0x2B1D JUMP JUMPDEST DUP1 ISZERO PUSH2 0x1E35 JUMPI DUP1 PUSH1 0x1F LT PUSH2 0x1E0A JUMPI PUSH2 0x100 DUP1 DUP4 SLOAD DIV MUL DUP4 MSTORE SWAP2 PUSH1 0x20 ADD SWAP2 PUSH2 0x1E35 JUMP JUMPDEST DUP3 ADD SWAP2 SWAP1 PUSH1 0x0 MSTORE PUSH1 0x20 PUSH1 0x0 KECCAK256 SWAP1 JUMPDEST DUP2 SLOAD DUP2 MSTORE SWAP1 PUSH1 0x1 ADD SWAP1 PUSH1 0x20 ADD DUP1 DUP4 GT PUSH2 0x1E18 JUMPI DUP3 SWAP1 SUB PUSH1 0x1F AND DUP3 ADD SWAP2 JUMPDEST POP POP POP POP POP DUP2 MSTORE PUSH1 0x20 ADD PUSH1 0xD DUP3 ADD DUP1 SLOAD PUSH2 0x1E4E SWAP1 PUSH2 0x2B1D JUMP JUMPDEST DUP1 PUSH1 0x1F ADD PUSH1 0x20 DUP1 SWAP2 DIV MUL PUSH1 0x20 ADD PUSH1 0x40 MLOAD SWAP1 DUP2 ADD PUSH1 0x40 MSTORE DUP1 SWAP3 SWAP2 SWAP1 DUP2 DUP2 MSTORE PUSH1 0x20 ADD DUP3 DUP1 SLOAD PUSH2 0x1E7A SWAP1 PUSH2 0x2B1D JUMP JUMPDEST DUP1 ISZERO PUSH2 0x1EC7 JUMPI DUP1 PUSH1 0x1F LT PUSH2 0x1E9C JUMPI PUSH2 0x100 DUP1 DUP4 SLOAD DIV MUL DUP4 MSTORE SWAP2 PUSH1 0x20 ADD SWAP2 PUSH2 0x1EC7 JUMP JUMPDEST DUP3 ADD SWAP2 SWAP1 PUSH1 0x0 MSTORE PUSH1 0x20 PUSH1 0x0 KECCAK256 SWAP1 JUMPDEST DUP2 SLOAD DUP2 MSTORE SWAP1 PUSH1 0x1 ADD SWAP1 PUSH1 0x20 ADD DUP1 DUP4 GT PUSH2 0x1EAA JUMPI DUP3 SWAP1 SUB PUSH1 0x1F AND DUP3 ADD SWAP2 JUMPDEST POP POP POP SWAP2 DUP4 MSTORE POP POP PUSH1 0xE DUP3 ADD SLOAD PUSH1 0xFF DUP1 DUP3 AND ISZERO ISZERO PUSH1 0x20 DUP5 ADD MSTORE PUSH2 0x100 DUP3 DIV DUP2 AND ISZERO ISZERO PUSH1 0x40 DUP5 ADD MSTORE PUSH3 0x10000 SWAP1 SWAP2 DIV DUP2 AND ISZERO ISZERO PUSH1 0x60 DUP4 ADD MSTORE PUSH1 0xF DUP4 ADD SLOAD PUSH1 0x80 DUP4 ADD MSTORE PUSH1 0x10 DUP4 ADD SLOAD PUSH1 0xA0 SWAP1 SWAP3 ADD SWAP2 AND PUSH1 0x2 DUP2 GT ISZERO PUSH2 0x1F25 JUMPI PUSH2 0x1F25 PUSH2 0x2344 JUMP JUMPDEST PUSH1 0x2 DUP2 GT ISZERO PUSH2 0x1F36 JUMPI PUSH2 0x1F36 PUSH2 0x2344 JUMP JUMPDEST SWAP1 MSTORE POP DUP4 DUP4 PUSH2 0x1F44 DUP2 PUSH2 0x2E12 JUMP JUMPDEST SWAP5 POP DUP2 MLOAD DUP2 LT PUSH2 0x1F56 JUMPI PUSH2 0x1F56 PUSH2 0x2D86 JUMP JUMPDEST PUSH1 0x20 MUL PUSH1 0x20 ADD ADD DUP2 SWAP1 MSTORE POP DUP1 DUP1 PUSH2 0x1F6C SWAP1 PUSH2 0x2E12 JUMP JUMPDEST SWAP2 POP POP PUSH2 0x18F2 JUMP JUMPDEST POP SWAP1 SWAP6 SWAP5 POP POP POP POP POP JUMP JUMPDEST PUSH1 0x1 SLOAD PUSH1 0x1 PUSH1 0x1 PUSH1 0xA0 SHL SUB AND CALLER EQ PUSH2 0xC0F JUMPI PUSH1 0x40 MLOAD PUSH3 0x461BCD PUSH1 0xE5 SHL DUP2 MSTORE PUSH1 0x20 PUSH1 0x4 DUP3 ADD DUP2 SWAP1 MSTORE PUSH1 0x24 DUP3 ADD MSTORE PUSH32 0x4F776E61626C653A2063616C6C6572206973206E6F7420746865206F776E6572 PUSH1 0x44 DUP3 ADD MSTORE PUSH1 0x64 ADD PUSH2 0x1177 JUMP JUMPDEST PUSH1 0x1 DUP1 SLOAD PUSH1 0x1 PUSH1 0x1 PUSH1 0xA0 SHL SUB DUP4 DUP2 AND PUSH1 0x1 PUSH1 0x1 PUSH1 0xA0 SHL SUB NOT DUP4 AND DUP2 OR SWAP1 SWAP4 SSTORE PUSH1 0x40 MLOAD SWAP2 AND SWAP2 SWAP1 DUP3 SWAP1 PUSH32 0x8BE0079C531659141344CD1FD0A4F28419497F9722A3DAAFE3B4186F6B6457E0 SWAP1 PUSH1 0x0 SWAP1 LOG3 POP POP JUMP JUMPDEST PUSH1 0x60 PUSH1 0x3 DUP3 PUSH1 0x2 DUP2 GT ISZERO PUSH2 0x2041 JUMPI PUSH2 0x2041 PUSH2 0x2344 JUMP JUMPDEST PUSH1 0xFF AND GT ISZERO PUSH2 0x204F JUMPI PUSH1 0x0 DUP1 REVERT JUMPDEST DUP2 PUSH1 0x2 DUP2 GT ISZERO PUSH2 0x2061 JUMPI PUSH2 0x2061 PUSH2 0x2344 JUMP JUMPDEST PUSH1 0x0 SUB PUSH2 0x208B JUMPI POP POP PUSH1 0x40 DUP1 MLOAD DUP1 DUP3 ADD SWAP1 SWAP2 MSTORE PUSH1 0x7 DUP2 MSTORE PUSH7 0x50656E64696E67 PUSH1 0xC8 SHL PUSH1 0x20 DUP3 ADD MSTORE SWAP1 JUMP JUMPDEST DUP2 PUSH1 0x2 DUP2 GT ISZERO PUSH2 0x209D JUMPI PUSH2 0x209D PUSH2 0x2344 JUMP JUMPDEST PUSH1 0x1 SUB PUSH2 0x20C7 JUMPI POP POP PUSH1 0x40 DUP1 MLOAD DUP1 DUP3 ADD SWAP1 SWAP2 MSTORE PUSH1 0x7 DUP2 MSTORE PUSH7 0x10DC99585D1959 PUSH1 0xCA SHL PUSH1 0x20 DUP3 ADD MSTORE SWAP1 JUMP JUMPDEST POP POP PUSH1 0x40 DUP1 MLOAD DUP1 DUP3 ADD SWAP1 SWAP2 MSTORE PUSH1 0x4 DUP2 MSTORE PUSH4 0x14DBDB19 PUSH1 0xE2 SHL PUSH1 0x20 DUP3 ADD MSTORE SWAP1 JUMP JUMPDEST SWAP2 SWAP1 POP JUMP JUMPDEST PUSH1 0x40 MLOAD DUP1 PUSH2 0x260 ADD PUSH1 0x40 MSTORE DUP1 PUSH1 0x0 DUP2 MSTORE PUSH1 0x20 ADD PUSH1 0x0 ISZERO ISZERO DUP2 MSTORE PUSH1 0x20 ADD PUSH1 0x0 DUP2 MSTORE PUSH1 0x20 ADD PUSH1 0x60 DUP2 MSTORE PUSH1 0x20 ADD PUSH1 0x60 DUP2 MSTORE PUSH1 0x20 ADD PUSH1 0x0 PUSH1 0x1 PUSH1 0x1 PUSH1 0xA0 SHL SUB AND DUP2 MSTORE PUSH1 0x20 ADD PUSH1 0x60 DUP2 MSTORE PUSH1 0x20 ADD PUSH1 0x60 DUP2 MSTORE PUSH1 0x20 ADD PUSH1 0x60 DUP2 MSTORE PUSH1 0x20 ADD PUSH1 0x0 PUSH1 0x4 DUP2 GT ISZERO PUSH2 0x2155 JUMPI PUSH2 0x2155 PUSH2 0x2344 JUMP JUMPDEST DUP2 MSTORE PUSH1 0x20 ADD PUSH1 0x60 DUP2 MSTORE PUSH1 0x20 ADD PUSH1 0x60 DUP2 MSTORE PUSH1 0x20 ADD PUSH1 0x60 DUP2 MSTORE PUSH1 0x20 ADD PUSH1 0x60 DUP2 MSTORE PUSH1 0x20 ADD PUSH1 0x0 ISZERO ISZERO DUP2 MSTORE PUSH1 0x20 ADD PUSH1 0x0 ISZERO ISZERO DUP2 MSTORE PUSH1 0x20 ADD PUSH1 0x0 ISZERO ISZERO DUP2 MSTORE PUSH1 0x20 ADD PUSH1 0x0 DUP2 MSTORE PUSH1 0x20 ADD PUSH1 0x0 PUSH1 0x2 DUP2 GT ISZERO PUSH2 0x21AB JUMPI PUSH2 0x21AB PUSH2 0x2344 JUMP JUMPDEST SWAP1 MSTORE SWAP1 JUMP JUMPDEST PUSH1 0x40 MLOAD DUP1 PUSH1 0x80 ADD PUSH1 0x40 MSTORE DUP1 PUSH1 0x0 DUP2 MSTORE PUSH1 0x20 ADD PUSH1 0x0 PUSH1 0x1 PUSH1 0x1 PUSH1 0xA0 SHL SUB AND DUP2 MSTORE PUSH1 0x20 ADD PUSH1 0x0 PUSH1 0x1 PUSH1 0x1 PUSH1 0xA0 SHL SUB AND DUP2 MSTORE PUSH1 0x20 ADD PUSH1 0x0 DUP2 MSTORE POP SWAP1 JUMP JUMPDEST PUSH4 0x4E487B71 PUSH1 0xE0 SHL PUSH1 0x0 MSTORE PUSH1 0x41 PUSH1 0x4 MSTORE PUSH1 0x24 PUSH1 0x0 REVERT JUMPDEST PUSH1 0x40 MLOAD PUSH2 0x260 DUP2 ADD PUSH8 0xFFFFFFFFFFFFFFFF DUP2 GT DUP3 DUP3 LT OR ISZERO PUSH2 0x2224 JUMPI PUSH2 0x2224 PUSH2 0x21EA JUMP JUMPDEST PUSH1 0x40 MSTORE SWAP1 JUMP JUMPDEST PUSH1 0x0 DUP3 PUSH1 0x1F DUP4 ADD SLT PUSH2 0x223B JUMPI PUSH1 0x0 DUP1 REVERT JUMPDEST DUP2 CALLDATALOAD PUSH8 0xFFFFFFFFFFFFFFFF DUP1 DUP3 GT ISZERO PUSH2 0x2256 JUMPI PUSH2 0x2256 PUSH2 0x21EA JUMP JUMPDEST PUSH1 0x40 MLOAD PUSH1 0x1F DUP4 ADD PUSH1 0x1F NOT SWAP1 DUP2 AND PUSH1 0x3F ADD AND DUP2 ADD SWAP1 DUP3 DUP3 GT DUP2 DUP4 LT OR ISZERO PUSH2 0x227E JUMPI PUSH2 0x227E PUSH2 0x21EA JUMP JUMPDEST DUP2 PUSH1 0x40 MSTORE DUP4 DUP2 MSTORE DUP7 PUSH1 0x20 DUP6 DUP9 ADD ADD GT ISZERO PUSH2 0x2297 JUMPI PUSH1 0x0 DUP1 REVERT JUMPDEST DUP4 PUSH1 0x20 DUP8 ADD PUSH1 0x20 DUP4 ADD CALLDATACOPY PUSH1 0x0 PUSH1 0x20 DUP6 DUP4 ADD ADD MSTORE DUP1 SWAP5 POP POP POP POP POP SWAP3 SWAP2 POP POP JUMP JUMPDEST PUSH1 0x0 PUSH1 0x20 DUP3 DUP5 SUB SLT ISZERO PUSH2 0x22C9 JUMPI PUSH1 0x0 DUP1 REVERT JUMPDEST DUP2 CALLDATALOAD PUSH8 0xFFFFFFFFFFFFFFFF DUP2 GT ISZERO PUSH2 0x22E0 JUMPI PUSH1 0x0 DUP1 REVERT JUMPDEST PUSH2 0x22EC DUP5 DUP3 DUP6 ADD PUSH2 0x222A JUMP JUMPDEST SWAP5 SWAP4 POP POP POP POP JUMP JUMPDEST PUSH1 0x0 JUMPDEST DUP4 DUP2 LT ISZERO PUSH2 0x230F JUMPI DUP2 DUP2 ADD MLOAD DUP4 DUP3 ADD MSTORE PUSH1 0x20 ADD PUSH2 0x22F7 JUMP JUMPDEST POP POP PUSH1 0x0 SWAP2 ADD MSTORE JUMP JUMPDEST PUSH1 0x0 DUP2 MLOAD DUP1 DUP5 MSTORE PUSH2 0x2330 DUP2 PUSH1 0x20 DUP7 ADD PUSH1 0x20 DUP7 ADD PUSH2 0x22F4 JUMP JUMPDEST PUSH1 0x1F ADD PUSH1 0x1F NOT AND SWAP3 SWAP1 SWAP3 ADD PUSH1 0x20 ADD SWAP3 SWAP2 POP POP JUMP JUMPDEST PUSH4 0x4E487B71 PUSH1 0xE0 SHL PUSH1 0x0 MSTORE PUSH1 0x21 PUSH1 0x4 MSTORE PUSH1 0x24 PUSH1 0x0 REVERT JUMPDEST PUSH1 0x5 DUP2 LT PUSH2 0x236A JUMPI PUSH2 0x236A PUSH2 0x2344 JUMP JUMPDEST SWAP1 MSTORE JUMP JUMPDEST PUSH1 0x3 DUP2 LT PUSH2 0x236A JUMPI PUSH2 0x236A PUSH2 0x2344 JUMP JUMPDEST PUSH1 0x0 PUSH2 0x260 DUP3 MLOAD DUP5 MSTORE PUSH1 0x20 DUP4 ADD MLOAD PUSH2 0x239A PUSH1 0x20 DUP7 ADD DUP3 ISZERO ISZERO SWAP1 MSTORE JUMP JUMPDEST POP PUSH1 0x40 DUP4 ADD MLOAD PUSH1 0x40 DUP6 ADD MSTORE PUSH1 0x60 DUP4 ADD MLOAD DUP2 PUSH1 0x60 DUP7 ADD MSTORE PUSH2 0x23BC DUP3 DUP7 ADD DUP3 PUSH2 0x2318 JUMP JUMPDEST SWAP2 POP POP PUSH1 0x80 DUP4 ADD MLOAD DUP5 DUP3 SUB PUSH1 0x80 DUP7 ADD MSTORE PUSH2 0x23D6 DUP3 DUP3 PUSH2 0x2318 JUMP JUMPDEST SWAP2 POP POP PUSH1 0xA0 DUP4 ADD MLOAD PUSH2 0x23F3 PUSH1 0xA0 DUP7 ADD DUP3 PUSH1 0x1 PUSH1 0x1 PUSH1 0xA0 SHL SUB AND SWAP1 MSTORE JUMP JUMPDEST POP PUSH1 0xC0 DUP4 ADD MLOAD DUP5 DUP3 SUB PUSH1 0xC0 DUP7 ADD MSTORE PUSH2 0x240B DUP3 DUP3 PUSH2 0x2318 JUMP JUMPDEST SWAP2 POP POP PUSH1 0xE0 DUP4 ADD MLOAD DUP5 DUP3 SUB PUSH1 0xE0 DUP7 ADD MSTORE PUSH2 0x2425 DUP3 DUP3 PUSH2 0x2318 JUMP JUMPDEST SWAP2 POP POP PUSH2 0x100 DUP1 DUP5 ADD MLOAD DUP6 DUP4 SUB DUP3 DUP8 ADD MSTORE PUSH2 0x2440 DUP4 DUP3 PUSH2 0x2318 JUMP JUMPDEST SWAP3 POP POP POP PUSH2 0x120 DUP1 DUP5 ADD MLOAD PUSH2 0x2457 DUP3 DUP8 ADD DUP3 PUSH2 0x235A JUMP JUMPDEST POP POP PUSH2 0x140 DUP1 DUP5 ADD MLOAD DUP6 DUP4 SUB DUP3 DUP8 ADD MSTORE PUSH2 0x2471 DUP4 DUP3 PUSH2 0x2318 JUMP JUMPDEST SWAP3 POP POP POP PUSH2 0x160 DUP1 DUP5 ADD MLOAD DUP6 DUP4 SUB DUP3 DUP8 ADD MSTORE PUSH2 0x248D DUP4 DUP3 PUSH2 0x2318 JUMP JUMPDEST SWAP3 POP POP POP PUSH2 0x180 DUP1 DUP5 ADD MLOAD DUP6 DUP4 SUB DUP3 DUP8 ADD MSTORE PUSH2 0x24A9 DUP4 DUP3 PUSH2 0x2318 JUMP JUMPDEST SWAP3 POP POP POP PUSH2 0x1A0 DUP1 DUP5 ADD MLOAD DUP6 DUP4 SUB DUP3 DUP8 ADD MSTORE PUSH2 0x24C5 DUP4 DUP3 PUSH2 0x2318 JUMP JUMPDEST SWAP3 POP POP POP PUSH2 0x1C0 DUP1 DUP5 ADD MLOAD PUSH2 0x24DD DUP3 DUP8 ADD DUP3 ISZERO ISZERO SWAP1 MSTORE JUMP JUMPDEST POP POP PUSH2 0x1E0 DUP4 DUP2 ADD MLOAD ISZERO ISZERO SWAP1 DUP6 ADD MSTORE PUSH2 0x200 DUP1 DUP5 ADD MLOAD ISZERO ISZERO SWAP1 DUP6 ADD MSTORE PUSH2 0x220 DUP1 DUP5 ADD MLOAD SWAP1 DUP6 ADD MSTORE PUSH2 0x240 DUP1 DUP5 ADD MLOAD PUSH2 0x2517 DUP3 DUP8 ADD DUP3 PUSH2 0x236E JUMP JUMPDEST POP SWAP1 SWAP5 SWAP4 POP POP POP POP JUMP JUMPDEST PUSH1 0x20 DUP2 MSTORE PUSH1 0x0 PUSH2 0x961 PUSH1 0x20 DUP4 ADD DUP5 PUSH2 0x237E JUMP JUMPDEST DUP1 CALLDATALOAD PUSH1 0x1 PUSH1 0x1 PUSH1 0xA0 SHL SUB DUP2 AND DUP2 EQ PUSH2 0x20E7 JUMPI PUSH1 0x0 DUP1 REVERT JUMPDEST PUSH1 0x0 PUSH1 0x20 DUP3 DUP5 SUB SLT ISZERO PUSH2 0x255D JUMPI PUSH1 0x0 DUP1 REVERT JUMPDEST PUSH2 0x961 DUP3 PUSH2 0x2534 JUMP JUMPDEST DUP1 ISZERO ISZERO DUP2 EQ PUSH2 0x1798 JUMPI PUSH1 0x0 DUP1 REVERT JUMPDEST DUP1 CALLDATALOAD PUSH2 0x20E7 DUP2 PUSH2 0x2566 JUMP JUMPDEST DUP1 CALLDATALOAD PUSH1 0x5 DUP2 LT PUSH2 0x20E7 JUMPI PUSH1 0x0 DUP1 REVERT JUMPDEST DUP1 CALLDATALOAD PUSH1 0x3 DUP2 LT PUSH2 0x20E7 JUMPI PUSH1 0x0 DUP1 REVERT JUMPDEST PUSH1 0x0 PUSH2 0x260 DUP3 DUP5 SUB SLT ISZERO PUSH2 0x25B0 JUMPI PUSH1 0x0 DUP1 REVERT JUMPDEST PUSH2 0x25B8 PUSH2 0x2200 JUMP JUMPDEST SWAP1 POP DUP2 CALLDATALOAD DUP2 MSTORE PUSH2 0x25CA PUSH1 0x20 DUP4 ADD PUSH2 0x2574 JUMP JUMPDEST PUSH1 0x20 DUP3 ADD MSTORE PUSH1 0x40 DUP3 ADD CALLDATALOAD PUSH1 0x40 DUP3 ADD MSTORE PUSH1 0x60 DUP3 ADD CALLDATALOAD PUSH8 0xFFFFFFFFFFFFFFFF DUP1 DUP3 GT ISZERO PUSH2 0x25F4 JUMPI PUSH1 0x0 DUP1 REVERT JUMPDEST PUSH2 0x2600 DUP6 DUP4 DUP7 ADD PUSH2 0x222A JUMP JUMPDEST PUSH1 0x60 DUP5 ADD MSTORE PUSH1 0x80 DUP5 ADD CALLDATALOAD SWAP2 POP DUP1 DUP3 GT ISZERO PUSH2 0x2619 JUMPI PUSH1 0x0 DUP1 REVERT JUMPDEST PUSH2 0x2625 DUP6 DUP4 DUP7 ADD PUSH2 0x222A JUMP JUMPDEST PUSH1 0x80 DUP5 ADD MSTORE PUSH2 0x2636 PUSH1 0xA0 DUP6 ADD PUSH2 0x2534 JUMP JUMPDEST PUSH1 0xA0 DUP5 ADD MSTORE PUSH1 0xC0 DUP5 ADD CALLDATALOAD SWAP2 POP DUP1 DUP3 GT ISZERO PUSH2 0x264F JUMPI PUSH1 0x0 DUP1 REVERT JUMPDEST PUSH2 0x265B DUP6 DUP4 DUP7 ADD PUSH2 0x222A JUMP JUMPDEST PUSH1 0xC0 DUP5 ADD MSTORE PUSH1 0xE0 DUP5 ADD CALLDATALOAD SWAP2 POP DUP1 DUP3 GT ISZERO PUSH2 0x2674 JUMPI PUSH1 0x0 DUP1 REVERT JUMPDEST PUSH2 0x2680 DUP6 DUP4 DUP7 ADD PUSH2 0x222A JUMP JUMPDEST PUSH1 0xE0 DUP5 ADD MSTORE PUSH2 0x100 SWAP2 POP DUP2 DUP5 ADD CALLDATALOAD DUP2 DUP2 GT ISZERO PUSH2 0x269B JUMPI PUSH1 0x0 DUP1 REVERT JUMPDEST PUSH2 0x26A7 DUP7 DUP3 DUP8 ADD PUSH2 0x222A JUMP JUMPDEST DUP4 DUP6 ADD MSTORE POP PUSH2 0x120 SWAP2 POP PUSH2 0x26BC DUP3 DUP6 ADD PUSH2 0x257F JUMP JUMPDEST DUP3 DUP5 ADD MSTORE PUSH2 0x140 SWAP2 POP DUP2 DUP5 ADD CALLDATALOAD DUP2 DUP2 GT ISZERO PUSH2 0x26D6 JUMPI PUSH1 0x0 DUP1 REVERT JUMPDEST PUSH2 0x26E2 DUP7 DUP3 DUP8 ADD PUSH2 0x222A JUMP JUMPDEST DUP4 DUP6 ADD MSTORE POP PUSH2 0x160 SWAP2 POP DUP2 DUP5 ADD CALLDATALOAD DUP2 DUP2 GT ISZERO PUSH2 0x26FD JUMPI PUSH1 0x0 DUP1 REVERT JUMPDEST PUSH2 0x2709 DUP7 DUP3 DUP8 ADD PUSH2 0x222A JUMP JUMPDEST DUP4 DUP6 ADD MSTORE POP PUSH2 0x180 SWAP2 POP DUP2 DUP5 ADD CALLDATALOAD DUP2 DUP2 GT ISZERO PUSH2 0x2724 JUMPI PUSH1 0x0 DUP1 REVERT JUMPDEST PUSH2 0x2730 DUP7 DUP3 DUP8 ADD PUSH2 0x222A JUMP JUMPDEST DUP4 DUP6 ADD MSTORE POP PUSH2 0x1A0 SWAP2 POP DUP2 DUP5 ADD CALLDATALOAD DUP2 DUP2 GT ISZERO PUSH2 0x274B JUMPI PUSH1 0x0 DUP1 REVERT JUMPDEST PUSH2 0x2757 DUP7 DUP3 DUP8 ADD PUSH2 0x222A JUMP JUMPDEST DUP4 DUP6 ADD MSTORE POP POP POP PUSH2 0x1C0 PUSH2 0x276C DUP2 DUP5 ADD PUSH2 0x2574 JUMP JUMPDEST SWAP1 DUP3 ADD MSTORE PUSH2 0x1E0 PUSH2 0x277E DUP4 DUP3 ADD PUSH2 0x2574 JUMP JUMPDEST SWAP1 DUP3 ADD MSTORE PUSH2 0x200 PUSH2 0x2790 DUP4 DUP3 ADD PUSH2 0x2574 JUMP JUMPDEST SWAP1 DUP3 ADD MSTORE PUSH2 0x220 DUP3 DUP2 ADD CALLDATALOAD SWAP1 DUP3 ADD MSTORE PUSH2 0x240 PUSH2 0x27AD DUP2 DUP5 ADD PUSH2 0x258E JUMP JUMPDEST SWAP1 DUP3 ADD MSTORE SWAP3 SWAP2 POP POP JUMP JUMPDEST PUSH1 0x0 PUSH1 0x20 DUP3 DUP5 SUB SLT ISZERO PUSH2 0x27C9 JUMPI PUSH1 0x0 DUP1 REVERT JUMPDEST DUP2 CALLDATALOAD PUSH8 0xFFFFFFFFFFFFFFFF DUP2 GT ISZERO PUSH2 0x27E0 JUMPI PUSH1 0x0 DUP1 REVERT JUMPDEST PUSH2 0x22EC DUP5 DUP3 DUP6 ADD PUSH2 0x259D JUMP JUMPDEST PUSH1 0x0 DUP1 PUSH1 0x40 DUP4 DUP6 SUB SLT ISZERO PUSH2 0x27FF JUMPI PUSH1 0x0 DUP1 REVERT JUMPDEST PUSH2 0x2808 DUP4 PUSH2 0x2534 JUMP JUMPDEST SWAP2 POP PUSH2 0x2816 PUSH1 0x20 DUP5 ADD PUSH2 0x2534 JUMP JUMPDEST SWAP1 POP SWAP3 POP SWAP3 SWAP1 POP JUMP JUMPDEST DUP1 CALLDATALOAD PUSH1 0xFF DUP2 AND DUP2 EQ PUSH2 0x20E7 JUMPI PUSH1 0x0 DUP1 REVERT JUMPDEST PUSH1 0x0 DUP1 PUSH1 0x0 DUP1 PUSH1 0x0 DUP1 PUSH1 0x0 DUP1 PUSH1 0x0 PUSH2 0x120 DUP11 DUP13 SUB SLT ISZERO PUSH2 0x284F JUMPI PUSH1 0x0 DUP1 REVERT JUMPDEST PUSH2 0x2858 DUP11 PUSH2 0x2534 JUMP JUMPDEST SWAP9 POP PUSH2 0x2866 PUSH1 0x20 DUP12 ADD PUSH2 0x2534 JUMP JUMPDEST SWAP8 POP PUSH1 0x40 DUP11 ADD CALLDATALOAD SWAP7 POP PUSH1 0x60 DUP11 ADD CALLDATALOAD SWAP6 POP PUSH2 0x2882 PUSH1 0x80 DUP12 ADD PUSH2 0x281F JUMP JUMPDEST SWAP5 POP PUSH1 0xA0 DUP11 ADD CALLDATALOAD SWAP4 POP PUSH1 0xC0 DUP11 ADD CALLDATALOAD SWAP3 POP PUSH2 0x289E PUSH1 0xE0 DUP12 ADD PUSH2 0x2534 JUMP JUMPDEST SWAP2 POP PUSH2 0x100 DUP11 ADD CALLDATALOAD SWAP1 POP SWAP3 SWAP6 SWAP9 POP SWAP3 SWAP6 SWAP9 POP SWAP3 SWAP6 SWAP9 JUMP JUMPDEST PUSH1 0x0 DUP1 PUSH1 0x0 DUP1 PUSH1 0x0 DUP1 PUSH1 0x0 DUP1 PUSH1 0x0 DUP1 PUSH2 0x140 DUP12 DUP14 SUB SLT ISZERO PUSH2 0x28D5 JUMPI PUSH1 0x0 DUP1 REVERT JUMPDEST DUP11 CALLDATALOAD PUSH8 0xFFFFFFFFFFFFFFFF DUP1 DUP3 GT ISZERO PUSH2 0x28ED JUMPI PUSH1 0x0 DUP1 REVERT JUMPDEST PUSH2 0x28F9 DUP15 DUP4 DUP16 ADD PUSH2 0x222A JUMP JUMPDEST SWAP12 POP PUSH1 0x20 DUP14 ADD CALLDATALOAD SWAP2 POP DUP1 DUP3 GT ISZERO PUSH2 0x290F JUMPI PUSH1 0x0 DUP1 REVERT JUMPDEST POP PUSH2 0x291C DUP14 DUP3 DUP15 ADD PUSH2 0x222A JUMP JUMPDEST SWAP10 POP POP PUSH2 0x292B PUSH1 0x40 DUP13 ADD PUSH2 0x2534 JUMP JUMPDEST SWAP8 POP PUSH2 0x2939 PUSH1 0x60 DUP13 ADD PUSH2 0x2534 JUMP JUMPDEST SWAP7 POP PUSH1 0x80 DUP12 ADD CALLDATALOAD SWAP6 POP PUSH1 0xA0 DUP12 ADD CALLDATALOAD SWAP5 POP PUSH2 0x2955 PUSH1 0xC0 DUP13 ADD PUSH2 0x281F JUMP JUMPDEST SWAP4 POP PUSH1 0xE0 DUP12 ADD CALLDATALOAD SWAP3 POP PUSH2 0x100 DUP12 ADD CALLDATALOAD SWAP2 POP PUSH2 0x120 DUP12 ADD CALLDATALOAD SWAP1 POP SWAP3 SWAP6 SWAP9 SWAP12 SWAP2 SWAP5 SWAP8 SWAP11 POP SWAP3 SWAP6 SWAP9 POP JUMP JUMPDEST PUSH1 0x0 DUP1 PUSH1 0x0 DUP1 PUSH1 0x0 DUP1 PUSH1 0x0 DUP1 PUSH1 0x0 DUP1 PUSH2 0x140 DUP12 DUP14 SUB SLT ISZERO PUSH2 0x299D JUMPI PUSH1 0x0 DUP1 REVERT JUMPDEST PUSH2 0x29A6 DUP12 PUSH2 0x2534 JUMP JUMPDEST SWAP10 POP PUSH1 0x20 DUP12 ADD CALLDATALOAD SWAP9 POP PUSH2 0x29BB PUSH1 0x40 DUP13 ADD PUSH2 0x281F JUMP JUMPDEST SWAP8 POP PUSH1 0x60 DUP12 ADD CALLDATALOAD SWAP7 POP PUSH1 0x80 DUP12 ADD CALLDATALOAD SWAP6 POP PUSH1 0xA0 DUP12 ADD CALLDATALOAD SWAP5 POP PUSH1 0xC0 DUP12 ADD CALLDATALOAD SWAP4 POP PUSH2 0x29E5 PUSH1 0xE0 DUP13 ADD PUSH2 0x281F JUMP JUMPDEST SWAP3 POP PUSH2 0x100 DUP12 ADD CALLDATALOAD SWAP2 POP PUSH2 0x120 DUP12 ADD CALLDATALOAD SWAP1 POP SWAP3 SWAP6 SWAP9 SWAP12 SWAP2 SWAP5 SWAP8 SWAP11 POP SWAP3 SWAP6 SWAP9 POP JUMP JUMPDEST PUSH1 0x0 DUP1 PUSH1 0x40 DUP4 DUP6 SUB SLT ISZERO PUSH2 0x2A19 JUMPI PUSH1 0x0 DUP1 REVERT JUMPDEST DUP3 CALLDATALOAD PUSH8 0xFFFFFFFFFFFFFFFF DUP1 DUP3 GT ISZERO PUSH2 0x2A31 JUMPI PUSH1 0x0 DUP1 REVERT JUMPDEST PUSH2 0x2A3D DUP7 DUP4 DUP8 ADD PUSH2 0x259D JUMP JUMPDEST SWAP4 POP PUSH1 0x20 DUP6 ADD CALLDATALOAD SWAP2 POP DUP1 DUP3 GT ISZERO PUSH2 0x2A53 JUMPI PUSH1 0x0 DUP1 REVERT JUMPDEST POP PUSH2 0x2A60 DUP6 DUP3 DUP7 ADD PUSH2 0x222A JUMP JUMPDEST SWAP2 POP POP SWAP3 POP SWAP3 SWAP1 POP JUMP JUMPDEST PUSH1 0x20 DUP2 MSTORE PUSH1 0x0 PUSH2 0x961 PUSH1 0x20 DUP4 ADD DUP5 PUSH2 0x2318 JUMP JUMPDEST PUSH1 0x0 DUP1 PUSH1 0x40 DUP4 DUP6 SUB SLT ISZERO PUSH2 0x2A90 JUMPI PUSH1 0x0 DUP1 REVERT JUMPDEST POP POP DUP1 CALLDATALOAD SWAP3 PUSH1 0x20 SWAP1 SWAP2 ADD CALLDATALOAD SWAP2 POP JUMP JUMPDEST PUSH1 0x0 PUSH1 0x20 DUP1 DUP4 ADD DUP2 DUP5 MSTORE DUP1 DUP6 MLOAD DUP1 DUP4 MSTORE PUSH1 0x40 DUP7 ADD SWAP2 POP PUSH1 0x40 DUP2 PUSH1 0x5 SHL DUP8 ADD ADD SWAP3 POP DUP4 DUP8 ADD PUSH1 0x0 JUMPDEST DUP3 DUP2 LT ISZERO PUSH2 0x2AF4 JUMPI PUSH1 0x3F NOT DUP9 DUP7 SUB ADD DUP5 MSTORE PUSH2 0x2AE2 DUP6 DUP4 MLOAD PUSH2 0x237E JUMP JUMPDEST SWAP5 POP SWAP3 DUP6 ADD SWAP3 SWAP1 DUP6 ADD SWAP1 PUSH1 0x1 ADD PUSH2 0x2AC6 JUMP JUMPDEST POP SWAP3 SWAP8 SWAP7 POP POP POP POP POP POP POP JUMP JUMPDEST PUSH1 0x0 DUP3 MLOAD PUSH2 0x2B13 DUP2 DUP5 PUSH1 0x20 DUP8 ADD PUSH2 0x22F4 JUMP JUMPDEST SWAP2 SWAP1 SWAP2 ADD SWAP3 SWAP2 POP POP JUMP JUMPDEST PUSH1 0x1 DUP2 DUP2 SHR SWAP1 DUP3 AND DUP1 PUSH2 0x2B31 JUMPI PUSH1 0x7F DUP3 AND SWAP2 POP JUMPDEST PUSH1 0x20 DUP3 LT DUP2 SUB PUSH2 0x2B51 JUMPI PUSH4 0x4E487B71 PUSH1 0xE0 SHL PUSH1 0x0 MSTORE PUSH1 0x22 PUSH1 0x4 MSTORE PUSH1 0x24 PUSH1 0x0 REVERT JUMPDEST POP SWAP2 SWAP1 POP JUMP JUMPDEST PUSH1 0x0 PUSH1 0x20 DUP3 DUP5 SUB SLT ISZERO PUSH2 0x2B69 JUMPI PUSH1 0x0 DUP1 REVERT JUMPDEST POP MLOAD SWAP2 SWAP1 POP JUMP JUMPDEST DUP6 DUP2 MSTORE DUP5 PUSH1 0x20 DUP3 ADD MSTORE PUSH1 0x0 DUP5 MLOAD PUSH2 0x2B8E DUP2 PUSH1 0x40 DUP6 ADD PUSH1 0x20 DUP10 ADD PUSH2 0x22F4 JUMP JUMPDEST DUP3 ADD PUSH1 0x5 DUP6 LT PUSH2 0x2BA0 JUMPI PUSH2 0x2BA0 PUSH2 0x2344 JUMP JUMPDEST DUP5 PUSH1 0xF8 SHL PUSH1 0x40 DUP3 ADD MSTORE DUP4 MLOAD PUSH2 0x2BBC DUP2 PUSH1 0x41 DUP5 ADD PUSH1 0x20 DUP9 ADD PUSH2 0x22F4 JUMP JUMPDEST ADD PUSH1 0x41 ADD SWAP8 SWAP7 POP POP POP POP POP POP POP JUMP JUMPDEST PUSH1 0x1F DUP3 GT ISZERO PUSH2 0x2C15 JUMPI PUSH1 0x0 DUP2 DUP2 MSTORE PUSH1 0x20 DUP2 KECCAK256 PUSH1 0x1F DUP6 ADD PUSH1 0x5 SHR DUP2 ADD PUSH1 0x20 DUP7 LT ISZERO PUSH2 0x2BF2 JUMPI POP DUP1 JUMPDEST PUSH1 0x1F DUP6 ADD PUSH1 0x5 SHR DUP3 ADD SWAP2 POP JUMPDEST DUP2 DUP2 LT ISZERO PUSH2 0x2C11 JUMPI DUP3 DUP2 SSTORE PUSH1 0x1 ADD PUSH2 0x2BFE JUMP JUMPDEST POP POP POP JUMPDEST POP POP POP JUMP JUMPDEST DUP2 MLOAD PUSH8 0xFFFFFFFFFFFFFFFF DUP2 GT ISZERO PUSH2 0x2C34 JUMPI PUSH2 0x2C34 PUSH2 0x21EA JUMP JUMPDEST PUSH2 0x2C48 DUP2 PUSH2 0x2C42 DUP5 SLOAD PUSH2 0x2B1D JUMP JUMPDEST DUP5 PUSH2 0x2BCB JUMP JUMPDEST PUSH1 0x20 DUP1 PUSH1 0x1F DUP4 GT PUSH1 0x1 DUP2 EQ PUSH2 0x2C7D JUMPI PUSH1 0x0 DUP5 ISZERO PUSH2 0x2C65 JUMPI POP DUP6 DUP4 ADD MLOAD JUMPDEST PUSH1 0x0 NOT PUSH1 0x3 DUP7 SWAP1 SHL SHR NOT AND PUSH1 0x1 DUP6 SWAP1 SHL OR DUP6 SSTORE PUSH2 0x2C11 JUMP JUMPDEST PUSH1 0x0 DUP6 DUP2 MSTORE PUSH1 0x20 DUP2 KECCAK256 PUSH1 0x1F NOT DUP7 AND SWAP2 JUMPDEST DUP3 DUP2 LT ISZERO PUSH2 0x2CAC JUMPI DUP9 DUP7 ADD MLOAD DUP3 SSTORE SWAP5 DUP5 ADD SWAP5 PUSH1 0x1 SWAP1 SWAP2 ADD SWAP1 DUP5 ADD PUSH2 0x2C8D JUMP JUMPDEST POP DUP6 DUP3 LT ISZERO PUSH2 0x2CCA JUMPI DUP8 DUP6 ADD MLOAD PUSH1 0x0 NOT PUSH1 0x3 DUP9 SWAP1 SHL PUSH1 0xF8 AND SHR NOT AND DUP2 SSTORE JUMPDEST POP POP POP POP POP PUSH1 0x1 SWAP1 DUP2 SHL ADD SWAP1 SSTORE POP JUMP JUMPDEST PUSH1 0x1 PUSH1 0x1 PUSH1 0xA0 SHL SUB SWAP8 DUP9 AND DUP2 MSTORE SWAP6 SWAP1 SWAP7 AND PUSH1 0x20 DUP7 ADD MSTORE PUSH1 0x40 DUP6 ADD SWAP4 SWAP1 SWAP4 MSTORE PUSH1 0x60 DUP5 ADD SWAP2 SWAP1 SWAP2 MSTORE PUSH1 0xFF AND PUSH1 0x80 DUP4 ADD MSTORE PUSH1 0xA0 DUP3 ADD MSTORE PUSH1 0xC0 DUP2 ADD SWAP2 SWAP1 SWAP2 MSTORE PUSH1 0xE0 ADD SWAP1 JUMP JUMPDEST PUSH1 0x0 PUSH1 0x20 DUP3 DUP5 SUB SLT ISZERO PUSH2 0x2D2D JUMPI PUSH1 0x0 DUP1 REVERT JUMPDEST DUP2 MLOAD PUSH2 0x961 DUP2 PUSH2 0x2566 JUMP JUMPDEST PUSH1 0x1 PUSH1 0x1 PUSH1 0xA0 SHL SUB SWAP4 DUP5 AND DUP2 MSTORE SWAP2 SWAP1 SWAP3 AND PUSH1 0x20 DUP3 ADD MSTORE PUSH1 0x40 DUP2 ADD SWAP2 SWAP1 SWAP2 MSTORE PUSH1 0x60 ADD SWAP1 JUMP JUMPDEST PUSH1 0x40 DUP2 MSTORE PUSH1 0x0 PUSH2 0x2D6F PUSH1 0x40 DUP4 ADD DUP6 PUSH2 0x2318 JUMP JUMPDEST SWAP1 POP PUSH1 0x1 DUP1 PUSH1 0xA0 SHL SUB DUP4 AND PUSH1 0x20 DUP4 ADD MSTORE SWAP4 SWAP3 POP POP POP JUMP JUMPDEST PUSH4 0x4E487B71 PUSH1 0xE0 SHL PUSH1 0x0 MSTORE PUSH1 0x32 PUSH1 0x4 MSTORE PUSH1 0x24 PUSH1 0x0 REVERT JUMPDEST PUSH1 0x0 DUP1 DUP4 SLOAD PUSH2 0x2DAA DUP2 PUSH2 0x2B1D JUMP JUMPDEST PUSH1 0x1 DUP3 DUP2 AND DUP1 ISZERO PUSH2 0x2DC2 JUMPI PUSH1 0x1 DUP2 EQ PUSH2 0x2DD7 JUMPI PUSH2 0x2E06 JUMP JUMPDEST PUSH1 0xFF NOT DUP5 AND DUP8 MSTORE DUP3 ISZERO ISZERO DUP4 MUL DUP8 ADD SWAP5 POP PUSH2 0x2E06 JUMP JUMPDEST DUP8 PUSH1 0x0 MSTORE PUSH1 0x20 DUP1 PUSH1 0x0 KECCAK256 PUSH1 0x0 JUMPDEST DUP6 DUP2 LT ISZERO PUSH2 0x2DFD JUMPI DUP2 SLOAD DUP11 DUP3 ADD MSTORE SWAP1 DUP5 ADD SWAP1 DUP3 ADD PUSH2 0x2DE4 JUMP JUMPDEST POP POP POP DUP3 DUP8 ADD SWAP5 POP JUMPDEST POP SWAP3 SWAP7 SWAP6 POP POP POP POP POP POP JUMP JUMPDEST PUSH1 0x0 PUSH1 0x1 DUP3 ADD PUSH2 0x2E32 JUMPI PUSH4 0x4E487B71 PUSH1 0xE0 SHL PUSH1 0x0 MSTORE PUSH1 0x11 PUSH1 0x4 MSTORE PUSH1 0x24 PUSH1 0x0 REVERT JUMPDEST POP PUSH1 0x1 ADD SWAP1 JUMP INVALID LOG2 PUSH5 0x6970667358 0x22 SLT KECCAK256 CALLER PUSH25 0x1BDEEB3455C28C762B3554ED86F0F066889782B1EE04AEAA5F 0xC9 0x5C SELFBALANCE PUSH25 0x8564736F6C6343000811003300000000000000000000000000 "},"methodIdentifiers":{"ERC20_DOMAIN_SEPARATOR()":"e2208a65","_PERMIT_TYPEHASH()":"982aaf6b","approvePendingAsset(bytes,string,address,address,uint256,uint256,uint8,bytes32,bytes32,uint256)":"a189ebf6","assignDeployedAddressToInstance(address,address)":"72c40429","buyAsset(address,address,uint256,uint256,uint8,bytes32,bytes32,address,uint256)":"98f19705","buyAssetApprove(address,uint256,uint8,bytes32,bytes32,uint256,uint256,uint8,bytes32,bytes32)":"a9276328","createAsset((uint256,bool,uint256,string,string,address,string,string,string,uint8,string,string,string,string,bool,bool,bool,uint256,uint8),string)":"b35f22ac","createAssetPending((uint256,bool,uint256,string,string,address,string,string,string,uint8,string,string,string,string,bool,bool,bool,uint256,uint8))":"57bf0305","getAllHashesLength()":"80f12fcd","getAllMarketItem(uint256,uint256)":"f7785a07","getMarketItem(bytes)":"4d5a3552","getMarketItemStatus(bytes)":"ec597cd1","mintNFT(address)":"54ba0f27","owner()":"8da5cb5b","renounceOwnership()":"715018a6","transferOwnership(address)":"f2fde38b"}}}}}