{
  "_format": "hh-sol-artifact-1",
  "contractName": "RFT",
  "sourceName": "contracts/RFT.sol",
  "abi": [
    {
      "inputs": [
        {
          "internalType": "string",
          "name": "_name",
          "type": "string"
        },
        {
          "internalType": "string",
          "name": "_symbol",
          "type": "string"
        },
        {
          "internalType": "address",
          "name": "_nftAddress",
          "type": "address"
        },
        {
          "internalType": "uint256",
          "name": "_nftId",
          "type": "uint256"
        },
        {
          "internalType": "uint256",
          "name": "_sharePrice",
          "type": "uint256"
        },
        {
          "internalType": "uint256",
          "name": "_shareSupply",
          "type": "uint256"
        },
        {
          "internalType": "address",
          "name": "_daiAddress",
          "type": "address"
        }
      ],
      "stateMutability": "nonpayable",
      "type": "constructor"
    },
    {
      "anonymous": false,
      "inputs": [
        {
          "indexed": true,
          "internalType": "address",
          "name": "owner",
          "type": "address"
        },
        {
          "indexed": true,
          "internalType": "address",
          "name": "spender",
          "type": "address"
        },
        {
          "indexed": false,
          "internalType": "uint256",
          "name": "value",
          "type": "uint256"
        }
      ],
      "name": "Approval",
      "type": "event"
    },
    {
      "anonymous": false,
      "inputs": [
        {
          "indexed": true,
          "internalType": "address",
          "name": "from",
          "type": "address"
        },
        {
          "indexed": true,
          "internalType": "address",
          "name": "to",
          "type": "address"
        },
        {
          "indexed": false,
          "internalType": "uint256",
          "name": "value",
          "type": "uint256"
        }
      ],
      "name": "Transfer",
      "type": "event"
    },
    {
      "inputs": [],
      "name": "admin",
      "outputs": [
        {
          "internalType": "address",
          "name": "",
          "type": "address"
        }
      ],
      "stateMutability": "view",
      "type": "function"
    },
    {
      "inputs": [
        {
          "internalType": "address",
          "name": "owner",
          "type": "address"
        },
        {
          "internalType": "address",
          "name": "spender",
          "type": "address"
        }
      ],
      "name": "allowance",
      "outputs": [
        {
          "internalType": "uint256",
          "name": "",
          "type": "uint256"
        }
      ],
      "stateMutability": "view",
      "type": "function"
    },
    {
      "inputs": [
        {
          "internalType": "address",
          "name": "spender",
          "type": "address"
        },
        {
          "internalType": "uint256",
          "name": "amount",
          "type": "uint256"
        }
      ],
      "name": "approve",
      "outputs": [
        {
          "internalType": "bool",
          "name": "",
          "type": "bool"
        }
      ],
      "stateMutability": "nonpayable",
      "type": "function"
    },
    {
      "inputs": [
        {
          "internalType": "address",
          "name": "account",
          "type": "address"
        }
      ],
      "name": "balanceOf",
      "outputs": [
        {
          "internalType": "uint256",
          "name": "",
          "type": "uint256"
        }
      ],
      "stateMutability": "view",
      "type": "function"
    },
    {
      "inputs": [
        {
          "internalType": "uint256",
          "name": "shareAmount",
          "type": "uint256"
        }
      ],
      "name": "buyShare",
      "outputs": [],
      "stateMutability": "nonpayable",
      "type": "function"
    },
    {
      "inputs": [],
      "name": "dai",
      "outputs": [
        {
          "internalType": "contract IERC20",
          "name": "",
          "type": "address"
        }
      ],
      "stateMutability": "view",
      "type": "function"
    },
    {
      "inputs": [],
      "name": "dealEnd",
      "outputs": [
        {
          "internalType": "uint256",
          "name": "",
          "type": "uint256"
        }
      ],
      "stateMutability": "view",
      "type": "function"
    },
    {
      "inputs": [],
      "name": "decimals",
      "outputs": [
        {
          "internalType": "uint8",
          "name": "",
          "type": "uint8"
        }
      ],
      "stateMutability": "view",
      "type": "function"
    },
    {
      "inputs": [
        {
          "internalType": "address",
          "name": "spender",
          "type": "address"
        },
        {
          "internalType": "uint256",
          "name": "subtractedValue",
          "type": "uint256"
        }
      ],
      "name": "decreaseAllowance",
      "outputs": [
        {
          "internalType": "bool",
          "name": "",
          "type": "bool"
        }
      ],
      "stateMutability": "nonpayable",
      "type": "function"
    },
    {
      "inputs": [
        {
          "internalType": "address",
          "name": "spender",
          "type": "address"
        },
        {
          "internalType": "uint256",
          "name": "addedValue",
          "type": "uint256"
        }
      ],
      "name": "increaseAllowance",
      "outputs": [
        {
          "internalType": "bool",
          "name": "",
          "type": "bool"
        }
      ],
      "stateMutability": "nonpayable",
      "type": "function"
    },
    {
      "inputs": [],
      "name": "name",
      "outputs": [
        {
          "internalType": "string",
          "name": "",
          "type": "string"
        }
      ],
      "stateMutability": "view",
      "type": "function"
    },
    {
      "inputs": [],
      "name": "nft",
      "outputs": [
        {
          "internalType": "contract IERC721",
          "name": "",
          "type": "address"
        }
      ],
      "stateMutability": "view",
      "type": "function"
    },
    {
      "inputs": [],
      "name": "nftId",
      "outputs": [
        {
          "internalType": "uint256",
          "name": "",
          "type": "uint256"
        }
      ],
      "stateMutability": "view",
      "type": "function"
    },
    {
      "inputs": [],
      "name": "sharePrice",
      "outputs": [
        {
          "internalType": "uint256",
          "name": "",
          "type": "uint256"
        }
      ],
      "stateMutability": "view",
      "type": "function"
    },
    {
      "inputs": [],
      "name": "shareSupply",
      "outputs": [
        {
          "internalType": "uint256",
          "name": "",
          "type": "uint256"
        }
      ],
      "stateMutability": "view",
      "type": "function"
    },
    {
      "inputs": [],
      "name": "startDeal",
      "outputs": [],
      "stateMutability": "nonpayable",
      "type": "function"
    },
    {
      "inputs": [],
      "name": "symbol",
      "outputs": [
        {
          "internalType": "string",
          "name": "",
          "type": "string"
        }
      ],
      "stateMutability": "view",
      "type": "function"
    },
    {
      "inputs": [],
      "name": "totalSupply",
      "outputs": [
        {
          "internalType": "uint256",
          "name": "",
          "type": "uint256"
        }
      ],
      "stateMutability": "view",
      "type": "function"
    },
    {
      "inputs": [
        {
          "internalType": "address",
          "name": "recipient",
          "type": "address"
        },
        {
          "internalType": "uint256",
          "name": "amount",
          "type": "uint256"
        }
      ],
      "name": "transfer",
      "outputs": [
        {
          "internalType": "bool",
          "name": "",
          "type": "bool"
        }
      ],
      "stateMutability": "nonpayable",
      "type": "function"
    },
    {
      "inputs": [
        {
          "internalType": "address",
          "name": "sender",
          "type": "address"
        },
        {
          "internalType": "address",
          "name": "recipient",
          "type": "address"
        },
        {
          "internalType": "uint256",
          "name": "amount",
          "type": "uint256"
        }
      ],
      "name": "transferFrom",
      "outputs": [
        {
          "internalType": "bool",
          "name": "",
          "type": "bool"
        }
      ],
      "stateMutability": "nonpayable",
      "type": "function"
    },
    {
      "inputs": [],
      "name": "withdrawProfits",
      "outputs": [],
      "stateMutability": "nonpayable",
      "type": "function"
    }
  ],
  "bytecode": "0x60806040523480156200001157600080fd5b50604051620012e6380380620012e683398101604081905262000034916200018c565b86866003620000448382620002c7565b506004620000538282620002c7565b505050600893909355600980546001600160a01b039586166001600160a01b031991821617909155600592909255600655600a80549290931691811691909117909155600b80549091163317905550620003939050565b634e487b7160e01b600052604160045260246000fd5b600082601f830112620000d257600080fd5b81516001600160401b0380821115620000ef57620000ef620000aa565b604051601f8301601f19908116603f011681019082821181831017156200011a576200011a620000aa565b816040528381526020925086838588010111156200013757600080fd5b600091505b838210156200015b57858201830151818301840152908201906200013c565b600093810190920192909252949350505050565b80516001600160a01b03811681146200018757600080fd5b919050565b600080600080600080600060e0888a031215620001a857600080fd5b87516001600160401b0380821115620001c057600080fd5b620001ce8b838c01620000c0565b985060208a0151915080821115620001e557600080fd5b50620001f48a828b01620000c0565b96505062000205604089016200016f565b9450606088015193506080880151925060a088015191506200022a60c089016200016f565b905092959891949750929550565b600181811c908216806200024d57607f821691505b6020821081036200026e57634e487b7160e01b600052602260045260246000fd5b50919050565b601f821115620002c257600081815260208120601f850160051c810160208610156200029d5750805b601f850160051c820191505b81811015620002be57828155600101620002a9565b5050505b505050565b81516001600160401b03811115620002e357620002e3620000aa565b620002fb81620002f4845462000238565b8462000274565b602080601f8311600181146200033357600084156200031a5750858301515b600019600386901b1c1916600185901b178555620002be565b600085815260208120601f198616915b82811015620003645788860151825594840194600190910190840162000343565b5085821015620003835787850151600019600388901b60f8161c191681555b5050505050600190811b01905550565b610f4380620003a36000396000f3fe608060405234801561001057600080fd5b50600436106101375760003560e01c806370a08231116100b8578063a9ed6e9a1161007c578063a9ed6e9a1461026b578063c6bc51821461027e578063dd62ed3e14610287578063f32ff137146102c0578063f4b9fa75146102c8578063f851a440146102db57600080fd5b806370a082311461020b578063872697291461023457806395d89b411461023d578063a457c2d714610245578063a9059cbb1461025857600080fd5b806323b872dd116100ff57806323b872dd146101a1578063313ce567146101b457806339509351146101c357806339913e09146101d657806347ccca02146101e057600080fd5b806301f091c61461013c57806306fdde0314610158578063095ea7b31461016d5780631108671d1461019057806318160ddd14610199575b600080fd5b61014560065481565b6040519081526020015b60405180910390f35b6101606102ee565b60405161014f9190610d07565b61018061017b366004610d71565b610380565b604051901515815260200161014f565b61014560075481565b600254610145565b6101806101af366004610d9b565b610397565b6040516012815260200161014f565b6101806101d1366004610d71565b610446565b6101de610482565b005b6009546101f3906001600160a01b031681565b6040516001600160a01b03909116815260200161014f565b610145610219366004610dd7565b6001600160a01b031660009081526020819052604090205490565b61014560055481565b61016061063b565b610180610253366004610d71565b61064a565b610180610266366004610d71565b6106e3565b6101de610279366004610df9565b6106f0565b61014560085481565b610145610295366004610e12565b6001600160a01b03918216600090815260016020908152604080832093909416825291909152205490565b6101de61086c565b600a546101f3906001600160a01b031681565b600b546101f3906001600160a01b031681565b6060600380546102fd90610e45565b80601f016020809104026020016040519081016040528092919081815260200182805461032990610e45565b80156103765780601f1061034b57610100808354040283529160200191610376565b820191906000526020600020905b81548152906001019060200180831161035957829003601f168201915b5050505050905090565b600061038d338484610935565b5060015b92915050565b60006103a4848484610a59565b6001600160a01b03841660009081526001602090815260408083203384529091529020548281101561042e5760405162461bcd60e51b815260206004820152602860248201527f45524332303a207472616e7366657220616d6f756e74206578636565647320616044820152676c6c6f77616e636560c01b60648201526084015b60405180910390fd5b61043b8533858403610935565b506001949350505050565b3360008181526001602090815260408083206001600160a01b0387168452909152812054909161038d91859061047d908690610e95565b610935565b600b546001600160a01b031633146104c95760405162461bcd60e51b815260206004820152600a60248201526937b7363c9030b236b4b760b11b6044820152606401610425565b60075442116105115760405162461bcd60e51b81526020600482015260146024820152731250d3c81b9bdd08199a5b9a5cda1959081e595d60621b6044820152606401610425565b600a546040516370a0823160e01b81523060048201526000916001600160a01b0316906370a0823190602401602060405180830381865afa15801561055a573d6000803e3d6000fd5b505050506040513d601f19601f8201168201806040525081019061057e9190610ea8565b9050801561060157600a54600b5460405163a9059cbb60e01b81526001600160a01b0391821660048201526024810184905291169063a9059cbb906044016020604051808303816000875af11580156105db573d6000803e3d6000fd5b505050506040513d601f19601f820116820180604052508101906105ff9190610ec1565b505b600061060c60025490565b6006546106199190610ee3565b9050801561063757600b54610637906001600160a01b031682610c28565b5050565b6060600480546102fd90610e45565b3360009081526001602090815260408083206001600160a01b0386168452909152812054828110156106cc5760405162461bcd60e51b815260206004820152602560248201527f45524332303a2064656372656173656420616c6c6f77616e63652062656c6f77604482015264207a65726f60d81b6064820152608401610425565b6106d93385858403610935565b5060019392505050565b600061038d338484610a59565b6000600754116107385760405162461bcd60e51b81526020600482015260136024820152721250d3c81b9bdd081cdd185c9d1959081e595d606a1b6044820152606401610425565b60075442111561077c5760405162461bcd60e51b815260206004820152600f60248201526e1250d3c81a5cc8199a5b9a5cda1959608a1b6044820152606401610425565b6006548161078960025490565b6107939190610e95565b11156107d55760405162461bcd60e51b81526020600482015260116024820152706e6f7420656e6f7567682073686172657360781b6044820152606401610425565b6000600554826107e59190610ef6565b600a546040516323b872dd60e01b8152336004820152306024820152604481018390529192506001600160a01b0316906323b872dd906064016020604051808303816000875af115801561083d573d6000803e3d6000fd5b505050506040513d601f19601f820116820180604052508101906108619190610ec1565b506106373383610c28565b600b546001600160a01b031633146108b35760405162461bcd60e51b815260206004820152600a60248201526937b7363c9030b236b4b760b11b6044820152606401610425565b6009546008546040516323b872dd60e01b815233600482015230602482015260448101919091526001600160a01b03909116906323b872dd90606401600060405180830381600087803b15801561090957600080fd5b505af115801561091d573d6000803e3d6000fd5b5050505042620151806109309190610e95565b600755565b6001600160a01b0383166109975760405162461bcd60e51b8152602060048201526024808201527f45524332303a20617070726f76652066726f6d20746865207a65726f206164646044820152637265737360e01b6064820152608401610425565b6001600160a01b0382166109f85760405162461bcd60e51b815260206004820152602260248201527f45524332303a20617070726f766520746f20746865207a65726f206164647265604482015261737360f01b6064820152608401610425565b6001600160a01b0383811660008181526001602090815260408083209487168084529482529182902085905590518481527f8c5be1e5ebec7d5bd14f71427d1e84f3dd0314c0f7b2291e5b200ac8c7c3b925910160405180910390a3505050565b6001600160a01b038316610abd5760405162461bcd60e51b815260206004820152602560248201527f45524332303a207472616e736665722066726f6d20746865207a65726f206164604482015264647265737360d81b6064820152608401610425565b6001600160a01b038216610b1f5760405162461bcd60e51b815260206004820152602360248201527f45524332303a207472616e7366657220746f20746865207a65726f206164647260448201526265737360e81b6064820152608401610425565b6001600160a01b03831660009081526020819052604090205481811015610b975760405162461bcd60e51b815260206004820152602660248201527f45524332303a207472616e7366657220616d6f756e7420657863656564732062604482015265616c616e636560d01b6064820152608401610425565b6001600160a01b03808516600090815260208190526040808220858503905591851681529081208054849290610bce908490610e95565b92505081905550826001600160a01b0316846001600160a01b03167fddf252ad1be2c89b69c2b068fc378daa952ba7f163c4a11628f55a4df523b3ef84604051610c1a91815260200190565b60405180910390a350505050565b6001600160a01b038216610c7e5760405162461bcd60e51b815260206004820152601f60248201527f45524332303a206d696e7420746f20746865207a65726f2061646472657373006044820152606401610425565b8060026000828254610c909190610e95565b90915550506001600160a01b03821660009081526020819052604081208054839290610cbd908490610e95565b90915550506040518181526001600160a01b038316906000907fddf252ad1be2c89b69c2b068fc378daa952ba7f163c4a11628f55a4df523b3ef9060200160405180910390a35050565b600060208083528351808285015260005b81811015610d3457858101830151858201604001528201610d18565b506000604082860101526040601f19601f8301168501019250505092915050565b80356001600160a01b0381168114610d6c57600080fd5b919050565b60008060408385031215610d8457600080fd5b610d8d83610d55565b946020939093013593505050565b600080600060608486031215610db057600080fd5b610db984610d55565b9250610dc760208501610d55565b9150604084013590509250925092565b600060208284031215610de957600080fd5b610df282610d55565b9392505050565b600060208284031215610e0b57600080fd5b5035919050565b60008060408385031215610e2557600080fd5b610e2e83610d55565b9150610e3c60208401610d55565b90509250929050565b600181811c90821680610e5957607f821691505b602082108103610e7957634e487b7160e01b600052602260045260246000fd5b50919050565b634e487b7160e01b600052601160045260246000fd5b8082018082111561039157610391610e7f565b600060208284031215610eba57600080fd5b5051919050565b600060208284031215610ed357600080fd5b81518015158114610df257600080fd5b8181038181111561039157610391610e7f565b808202811582820484141761039157610391610e7f56fea2646970667358221220c7fbe92663e6dd591e84436fe85332ad9d912c133aad88387aac64479f342b8664736f6c63430008110033",
  "linkReferences": {},
  "deployedLinkReferences": {}
}