{
  "_format": "hh-sol-artifact-1",
  "contractName": "NFTMarket",
  "sourceName": "contracts/NFTMarket.sol",
  "abi": [
    {
      "inputs": [
        {
          "internalType": "address",
          "name": "aeroTokenAddress",
          "type": "address"
        }
      ],
      "stateMutability": "nonpayable",
      "type": "constructor"
    },
    {
      "anonymous": false,
      "inputs": [
        {
          "indexed": true,
          "internalType": "uint256",
          "name": "itemId",
          "type": "uint256"
        },
        {
          "indexed": true,
          "internalType": "address",
          "name": "nftContract",
          "type": "address"
        },
        {
          "indexed": true,
          "internalType": "uint256",
          "name": "tokenId",
          "type": "uint256"
        },
        {
          "indexed": false,
          "internalType": "address",
          "name": "seller",
          "type": "address"
        },
        {
          "indexed": false,
          "internalType": "address",
          "name": "owner",
          "type": "address"
        },
        {
          "indexed": false,
          "internalType": "uint256",
          "name": "price",
          "type": "uint256"
        },
        {
          "indexed": false,
          "internalType": "bool",
          "name": "isPrivateAsset",
          "type": "bool"
        },
        {
          "indexed": false,
          "internalType": "bool",
          "name": "sold",
          "type": "bool"
        }
      ],
      "name": "MarketItemCreated",
      "type": "event"
    },
    {
      "inputs": [
        {
          "internalType": "address",
          "name": "nftContract",
          "type": "address"
        },
        {
          "internalType": "string",
          "name": "tokenURI",
          "type": "string"
        },
        {
          "internalType": "uint256",
          "name": "price",
          "type": "uint256"
        },
        {
          "internalType": "bool",
          "name": "isPrivateAsset",
          "type": "bool"
        }
      ],
      "name": "createMarketItem",
      "outputs": [],
      "stateMutability": "payable",
      "type": "function"
    },
    {
      "inputs": [
        {
          "internalType": "address",
          "name": "nftContract",
          "type": "address"
        },
        {
          "internalType": "uint256",
          "name": "itemId",
          "type": "uint256"
        },
        {
          "internalType": "uint256",
          "name": "deadline",
          "type": "uint256"
        },
        {
          "internalType": "uint8",
          "name": "v",
          "type": "uint8"
        },
        {
          "internalType": "bytes32",
          "name": "r",
          "type": "bytes32"
        },
        {
          "internalType": "bytes32",
          "name": "s",
          "type": "bytes32"
        }
      ],
      "name": "createMarketSale",
      "outputs": [],
      "stateMutability": "nonpayable",
      "type": "function"
    },
    {
      "inputs": [],
      "name": "fetchItemsCreated",
      "outputs": [
        {
          "components": [
            {
              "internalType": "uint256",
              "name": "itemId",
              "type": "uint256"
            },
            {
              "internalType": "address",
              "name": "nftContract",
              "type": "address"
            },
            {
              "internalType": "uint256",
              "name": "tokenId",
              "type": "uint256"
            },
            {
              "internalType": "address",
              "name": "seller",
              "type": "address"
            },
            {
              "internalType": "address",
              "name": "owner",
              "type": "address"
            },
            {
              "internalType": "address[]",
              "name": "sharedAddrs",
              "type": "address[]"
            },
            {
              "internalType": "uint256",
              "name": "price",
              "type": "uint256"
            },
            {
              "internalType": "bool",
              "name": "isPrivateAsset",
              "type": "bool"
            },
            {
              "internalType": "bool",
              "name": "sold",
              "type": "bool"
            }
          ],
          "internalType": "struct NFTMarket.MarketItem[]",
          "name": "",
          "type": "tuple[]"
        }
      ],
      "stateMutability": "view",
      "type": "function"
    },
    {
      "inputs": [
        {
          "internalType": "uint256",
          "name": "id",
          "type": "uint256"
        }
      ],
      "name": "fetchMarketItemById",
      "outputs": [
        {
          "components": [
            {
              "internalType": "uint256",
              "name": "itemId",
              "type": "uint256"
            },
            {
              "internalType": "address",
              "name": "nftContract",
              "type": "address"
            },
            {
              "internalType": "uint256",
              "name": "tokenId",
              "type": "uint256"
            },
            {
              "internalType": "address",
              "name": "seller",
              "type": "address"
            },
            {
              "internalType": "address",
              "name": "owner",
              "type": "address"
            },
            {
              "internalType": "address[]",
              "name": "sharedAddrs",
              "type": "address[]"
            },
            {
              "internalType": "uint256",
              "name": "price",
              "type": "uint256"
            },
            {
              "internalType": "bool",
              "name": "isPrivateAsset",
              "type": "bool"
            },
            {
              "internalType": "bool",
              "name": "sold",
              "type": "bool"
            }
          ],
          "internalType": "struct NFTMarket.MarketItem",
          "name": "",
          "type": "tuple"
        }
      ],
      "stateMutability": "view",
      "type": "function"
    },
    {
      "inputs": [],
      "name": "fetchMarketItems",
      "outputs": [
        {
          "components": [
            {
              "internalType": "uint256",
              "name": "itemId",
              "type": "uint256"
            },
            {
              "internalType": "address",
              "name": "nftContract",
              "type": "address"
            },
            {
              "internalType": "uint256",
              "name": "tokenId",
              "type": "uint256"
            },
            {
              "internalType": "address",
              "name": "seller",
              "type": "address"
            },
            {
              "internalType": "address",
              "name": "owner",
              "type": "address"
            },
            {
              "internalType": "address[]",
              "name": "sharedAddrs",
              "type": "address[]"
            },
            {
              "internalType": "uint256",
              "name": "price",
              "type": "uint256"
            },
            {
              "internalType": "bool",
              "name": "isPrivateAsset",
              "type": "bool"
            },
            {
              "internalType": "bool",
              "name": "sold",
              "type": "bool"
            }
          ],
          "internalType": "struct NFTMarket.MarketItem[]",
          "name": "",
          "type": "tuple[]"
        }
      ],
      "stateMutability": "view",
      "type": "function"
    },
    {
      "inputs": [],
      "name": "fetchMyNFTs",
      "outputs": [
        {
          "components": [
            {
              "internalType": "uint256",
              "name": "itemId",
              "type": "uint256"
            },
            {
              "internalType": "address",
              "name": "nftContract",
              "type": "address"
            },
            {
              "internalType": "uint256",
              "name": "tokenId",
              "type": "uint256"
            },
            {
              "internalType": "address",
              "name": "seller",
              "type": "address"
            },
            {
              "internalType": "address",
              "name": "owner",
              "type": "address"
            },
            {
              "internalType": "address[]",
              "name": "sharedAddrs",
              "type": "address[]"
            },
            {
              "internalType": "uint256",
              "name": "price",
              "type": "uint256"
            },
            {
              "internalType": "bool",
              "name": "isPrivateAsset",
              "type": "bool"
            },
            {
              "internalType": "bool",
              "name": "sold",
              "type": "bool"
            }
          ],
          "internalType": "struct NFTMarket.MarketItem[]",
          "name": "",
          "type": "tuple[]"
        }
      ],
      "stateMutability": "view",
      "type": "function"
    },
    {
      "inputs": [],
      "name": "getListingPrice",
      "outputs": [
        {
          "internalType": "uint256",
          "name": "",
          "type": "uint256"
        }
      ],
      "stateMutability": "view",
      "type": "function"
    },
    {
      "inputs": [
        {
          "internalType": "uint256",
          "name": "id",
          "type": "uint256"
        },
        {
          "internalType": "address[]",
          "name": "addrs",
          "type": "address[]"
        }
      ],
      "name": "setSharedAddress",
      "outputs": [],
      "stateMutability": "nonpayable",
      "type": "function"
    }
  ],
  "bytecode": "0x608060405266038d7ea4c6800060055534801561001b57600080fd5b5060405161175538038061175583398101604081905261003a91610072565b600160005560048054336001600160a01b031991821617909155600380549091166001600160a01b03929092169190911790556100a2565b60006020828403121561008457600080fd5b81516001600160a01b038116811461009b57600080fd5b9392505050565b6116a4806100b16000396000f3fe60806040526004361061007b5760003560e01c8063a32ff6dc1161004e578063a32ff6dc14610100578063ad1477a914610113578063ccab4f7214610140578063f064c32e1461016057600080fd5b80630f08efe01461008057806312e85585146100ab57806314beeb10146100c9578063202e3740146100eb575b600080fd5b34801561008c57600080fd5b50610095610175565b6040516100a2919061127c565b60405180910390f35b3480156100b757600080fd5b506005546040519081526020016100a2565b3480156100d557600080fd5b506100e96100e4366004611341565b61036f565b005b3480156100f757600080fd5b506100956103ff565b6100e961010e366004611416565b610636565b34801561011f57600080fd5b5061013361012e3660046114d6565b610964565b6040516100a291906114ef565b34801561014c57600080fd5b506100e961015b366004611509565b610a96565b34801561016c57600080fd5b50610095610e3a565b6060600061018260015490565b9050600061018f60025490565b60015461019c919061157f565b90506000808267ffffffffffffffff8111156101ba576101ba6112de565b6040519080825280602002602001820160405280156101f357816020015b6101e06110ca565b8152602001906001900390816101d85790505b50905060005b84811015610366576000600681610211846001611598565b81526020810191909152604001600020600401546001600160a01b031603610354576000610240826001611598565b6000818152600660209081526040918290208251610120810184528154815260018201546001600160a01b0390811682850152600283015482860152600383015481166060830152600483015416608082015260058201805485518186028101860190965280865295965091949093859360a08601939192908301828280156102f257602002820191906000526020600020905b81546001600160a01b031681526001909101906020018083116102d4575b50505091835250506006820154602082015260079091015460ff808216151560408401526101009091041615156060909101528451859087908110610339576103396115ab565b602090810291909101015261034f600186611598565b945050505b8061035e816115c1565b9150506101f9565b50949350505050565b60008281526006602052604090206007015460ff166103d55760405162461bcd60e51b815260206004820152601a60248201527f4d61726b6574206974656d206973206e6f74207072697661746500000000000060448201526064015b60405180910390fd5b600082815260066020908152604090912082516103fa92600590920191840190611115565b505050565b6060600061040c60015490565b905060008060005b8381101561046e57336006600061042c846001611598565b81526020810191909152604001600020600401546001600160a01b03160361045c57610459600184611598565b92505b80610466816115c1565b915050610414565b5060008267ffffffffffffffff81111561048a5761048a6112de565b6040519080825280602002602001820160405280156104c357816020015b6104b06110ca565b8152602001906001900390816104a85790505b50905060005b848110156103665733600660006104e1846001611598565b81526020810191909152604001600020600401546001600160a01b031603610624576000610510826001611598565b6000818152600660209081526040918290208251610120810184528154815260018201546001600160a01b0390811682850152600283015482860152600383015481166060830152600483015416608082015260058201805485518186028101860190965280865295965091949093859360a08601939192908301828280156105c257602002820191906000526020600020905b81546001600160a01b031681526001909101906020018083116105a4575b50505091835250506006820154602082015260079091015460ff808216151560408401526101009091041615156060909101528451859087908110610609576106096115ab565b602090810291909101015261061f600186611598565b945050505b8061062e816115c1565b9150506104c9565b61063e611071565b6000821161068e5760405162461bcd60e51b815260206004820152601c60248201527f5072696365206d757374206265206174206c656173742031207765690000000060448201526064016103cc565b60055434146106f65760405162461bcd60e51b815260206004820152602e60248201527f5472616e73616374696f6e20666565206d75737420626520657175616c20746f60448201526d206c697374696e6720707269636560901b60648201526084016103cc565b604051630138280760e01b81526000906001600160a01b0386169063013828079061072790339088906004016115da565b6020604051808303816000875af1158015610746573d6000803e3d6000fd5b505050506040513d601f19601f8201168201806040525081019061076a9190611638565b905061077a600180546001019055565b600061078560015490565b60408051610120810182528281526001600160a01b038981166020808401918252838501888152336060860190815260006080870181815288518281528086018a5260a0890190815260c089018f90528d151560e08a015261010089018390528a835260068652989091208751815594516001860180549188166001600160a01b031992831617905592516002860155905160038501805491871691841691909117905551600484018054919095169116179092559251805194955091936108539260058501920190611115565b5060c0820151600682015560e0820151600790910180546101009384015161ffff1990911692151561ff001916929092179115159092021790556040516323b872dd60e01b8152336004820152306024820152604481018390526001600160a01b038716906323b872dd90606401600060405180830381600087803b1580156108db57600080fd5b505af11580156108ef573d6000803e3d6000fd5b5050604080513381526000602082018190528183018990528715156060830152608082015290518593506001600160a01b038a16925084917fc99151f4453170a67bc7441775fde1a3bc3220c06645df1121e703aab5e7da5d919081900360a00190a4505061095e6001600055565b50505050565b61096c6110ca565b6001548211156109b05760405162461bcd60e51b815260206004820152600f60248201526e125b9d985b1a5908125d195b481259608a1b60448201526064016103cc565b60008281526006602090815260408083208151610120810183528154815260018201546001600160a01b039081168286015260028301548285015260038301548116606083015260048301541660808201526005820180548451818702810187019095528085529194929360a0860193909290830182828015610a5c57602002820191906000526020600020905b81546001600160a01b03168152600190910190602001808311610a3e575b50505091835250506006820154602082015260079091015460ff808216151560408401526101009091041615156060909101529392505050565b610a9e611071565b6000858152600660208190526040918290209081015460029091015460035492516370a0823160e01b81523360048201529192909183916001600160a01b0316906370a0823190602401602060405180830381865afa158015610b05573d6000803e3d6000fd5b505050506040513d601f19601f82011682018060405250810190610b299190611638565b1015610b9f576040805162461bcd60e51b81526020600482015260248101919091527f506c65617365207375626d6974207468652061736b696e67207072696365206960448201527f6e206f7264657220746f20636f6d706c6574652074686520707572636861736560648201526084016103cc565b60035460405163d505accf60e01b8152336004820152306024820152604481018490526064810188905260ff8716608482015260a4810186905260c481018590526001600160a01b039091169063d505accf9060e401600060405180830381600087803b158015610c0f57600080fd5b505af1158015610c23573d6000803e3d6000fd5b50506003805460008b81526006602052604090819020909201549151633950935160e01b81526001600160a01b0392831660048201526024810187905291169250633950935191506044016020604051808303816000875af1158015610c8d573d6000803e3d6000fd5b505050506040513d601f19601f82011682018060405250810190610cb19190611651565b5060038054600089815260066020526040908190209092015491516323b872dd60e01b81523360048201526001600160a01b039283166024820152604481018590529116906323b872dd906064016020604051808303816000875af1158015610d1e573d6000803e3d6000fd5b505050506040513d601f19601f82011682018060405250810190610d429190611651565b506040516323b872dd60e01b8152306004820152336024820152604481018290526001600160a01b038916906323b872dd90606401600060405180830381600087803b158015610d9157600080fd5b505af1158015610da5573d6000803e3d6000fd5b50505060008881526006602052604090206004810180546001600160a01b03191633179055600701805461ff00191661010017905550610de9600280546001019055565b6004546005546040516001600160a01b039092169181156108fc0291906000818181858888f19350505050158015610e25573d6000803e3d6000fd5b505050610e326001600055565b505050505050565b60606000610e4760015490565b905060008060005b83811015610ea9573360066000610e67846001611598565b81526020810191909152604001600020600301546001600160a01b031603610e9757610e94600184611598565b92505b80610ea1816115c1565b915050610e4f565b5060008267ffffffffffffffff811115610ec557610ec56112de565b604051908082528060200260200182016040528015610efe57816020015b610eeb6110ca565b815260200190600190039081610ee35790505b50905060005b84811015610366573360066000610f1c846001611598565b81526020810191909152604001600020600301546001600160a01b03160361105f576000610f4b826001611598565b6000818152600660209081526040918290208251610120810184528154815260018201546001600160a01b0390811682850152600283015482860152600383015481166060830152600483015416608082015260058201805485518186028101860190965280865295965091949093859360a0860193919290830182828015610ffd57602002820191906000526020600020905b81546001600160a01b03168152600190910190602001808311610fdf575b50505091835250506006820154602082015260079091015460ff808216151560408401526101009091041615156060909101528451859087908110611044576110446115ab565b602090810291909101015261105a600186611598565b945050505b80611069816115c1565b915050610f04565b6002600054036110c35760405162461bcd60e51b815260206004820152601f60248201527f5265656e7472616e637947756172643a207265656e7472616e742063616c6c0060448201526064016103cc565b6002600055565b604080516101208101825260008082526020820181905291810182905260608082018390526080820183905260a082015260c0810182905260e0810182905261010081019190915290565b82805482825590600052602060002090810192821561116a579160200282015b8281111561116a57825182546001600160a01b0319166001600160a01b03909116178255602090920191600190910190611135565b5061117692915061117a565b5090565b5b80821115611176576000815560010161117b565b600081518084526020808501945080840160005b838110156111c85781516001600160a01b0316875295820195908201906001016111a3565b509495945050505050565b60006101208251845260018060a01b03602084015116602085015260408301516040850152606083015161121260608601826001600160a01b03169052565b50608083015161122d60808601826001600160a01b03169052565b5060a08301518160a08601526112458286018261118f565b91505060c083015160c085015260e083015161126560e086018215159052565b506101009283015115159390920192909252919050565b6000602080830181845280855180835260408601915060408160051b870101925083870160005b828110156112d157603f198886030184526112bf8583516111d3565b945092850192908501906001016112a3565b5092979650505050505050565b634e487b7160e01b600052604160045260246000fd5b604051601f8201601f1916810167ffffffffffffffff8111828210171561131d5761131d6112de565b604052919050565b80356001600160a01b038116811461133c57600080fd5b919050565b6000806040838503121561135457600080fd5b8235915060208084013567ffffffffffffffff8082111561137457600080fd5b818601915086601f83011261138857600080fd5b81358181111561139a5761139a6112de565b8060051b91506113ab8483016112f4565b81815291830184019184810190898411156113c557600080fd5b938501935b838510156113ea576113db85611325565b825293850193908501906113ca565b8096505050505050509250929050565b801515811461140857600080fd5b50565b803561133c816113fa565b6000806000806080858703121561142c57600080fd5b61143585611325565b935060208086013567ffffffffffffffff8082111561145357600080fd5b818801915088601f83011261146757600080fd5b813581811115611479576114796112de565b61148b601f8201601f191685016112f4565b915080825289848285010111156114a157600080fd5b8084840185840137600084828401015250809550505050604085013591506114cb6060860161140b565b905092959194509250565b6000602082840312156114e857600080fd5b5035919050565b60208152600061150260208301846111d3565b9392505050565b60008060008060008060c0878903121561152257600080fd5b61152b87611325565b95506020870135945060408701359350606087013560ff8116811461154f57600080fd5b9598949750929560808101359460a0909101359350915050565b634e487b7160e01b600052601160045260246000fd5b8181038181111561159257611592611569565b92915050565b8082018082111561159257611592611569565b634e487b7160e01b600052603260045260246000fd5b6000600182016115d3576115d3611569565b5060010190565b60018060a01b038316815260006020604081840152835180604085015260005b81811015611616578581018301518582016060015282016115fa565b506000606082860101526060601f19601f830116850101925050509392505050565b60006020828403121561164a57600080fd5b5051919050565b60006020828403121561166357600080fd5b8151611502816113fa56fea2646970667358221220bde4a93c7f64434a34c7a16941331bb6b2b41f03b63bc3a667a34f442013252664736f6c63430008110033",
  "linkReferences": {},
  "deployedLinkReferences": {}
}