{
  "_format": "hh-sol-artifact-1",
  "contractName": "NFTMarket",
  "sourceName": "contracts/NFTMarket.sol",
  "abi": [
    {
      "inputs": [
        {
          "internalType": "contract IERC20",
          "name": "_aeroToken",
          "type": "address"
        }
      ],
      "stateMutability": "nonpayable",
      "type": "constructor"
    },
    {
      "anonymous": false,
      "inputs": [
        {
          "indexed": true,
          "internalType": "uint256",
          "name": "itemId",
          "type": "uint256"
        },
        {
          "indexed": true,
          "internalType": "address",
          "name": "nftContract",
          "type": "address"
        },
        {
          "indexed": true,
          "internalType": "uint256",
          "name": "tokenId",
          "type": "uint256"
        },
        {
          "indexed": false,
          "internalType": "address",
          "name": "seller",
          "type": "address"
        },
        {
          "indexed": false,
          "internalType": "address",
          "name": "owner",
          "type": "address"
        },
        {
          "indexed": false,
          "internalType": "uint256",
          "name": "price",
          "type": "uint256"
        },
        {
          "indexed": false,
          "internalType": "bool",
          "name": "isPrivateAsset",
          "type": "bool"
        },
        {
          "indexed": false,
          "internalType": "bool",
          "name": "sold",
          "type": "bool"
        }
      ],
      "name": "MarketItemCreated",
      "type": "event"
    },
    {
      "inputs": [
        {
          "internalType": "address",
          "name": "nftContract",
          "type": "address"
        },
        {
          "internalType": "uint256",
          "name": "tokenId",
          "type": "uint256"
        },
        {
          "internalType": "uint256",
          "name": "price",
          "type": "uint256"
        },
        {
          "internalType": "bool",
          "name": "isPrivateAsset",
          "type": "bool"
        }
      ],
      "name": "createMarketItem",
      "outputs": [],
      "stateMutability": "payable",
      "type": "function"
    },
    {
      "inputs": [
        {
          "internalType": "address",
          "name": "nftContract",
          "type": "address"
        },
        {
          "internalType": "uint256",
          "name": "itemId",
          "type": "uint256"
        }
      ],
      "name": "createMarketSale",
      "outputs": [],
      "stateMutability": "nonpayable",
      "type": "function"
    },
    {
      "inputs": [],
      "name": "fetchItemsCreated",
      "outputs": [
        {
          "components": [
            {
              "internalType": "uint256",
              "name": "itemId",
              "type": "uint256"
            },
            {
              "internalType": "address",
              "name": "nftContract",
              "type": "address"
            },
            {
              "internalType": "uint256",
              "name": "tokenId",
              "type": "uint256"
            },
            {
              "internalType": "address",
              "name": "seller",
              "type": "address"
            },
            {
              "internalType": "address",
              "name": "owner",
              "type": "address"
            },
            {
              "internalType": "uint256",
              "name": "price",
              "type": "uint256"
            },
            {
              "internalType": "bool",
              "name": "isPrivateAsset",
              "type": "bool"
            },
            {
              "internalType": "bool",
              "name": "sold",
              "type": "bool"
            }
          ],
          "internalType": "struct NFTMarket.MarketItem[]",
          "name": "",
          "type": "tuple[]"
        }
      ],
      "stateMutability": "view",
      "type": "function"
    },
    {
      "inputs": [],
      "name": "fetchMarketItems",
      "outputs": [
        {
          "components": [
            {
              "internalType": "uint256",
              "name": "itemId",
              "type": "uint256"
            },
            {
              "internalType": "address",
              "name": "nftContract",
              "type": "address"
            },
            {
              "internalType": "uint256",
              "name": "tokenId",
              "type": "uint256"
            },
            {
              "internalType": "address",
              "name": "seller",
              "type": "address"
            },
            {
              "internalType": "address",
              "name": "owner",
              "type": "address"
            },
            {
              "internalType": "uint256",
              "name": "price",
              "type": "uint256"
            },
            {
              "internalType": "bool",
              "name": "isPrivateAsset",
              "type": "bool"
            },
            {
              "internalType": "bool",
              "name": "sold",
              "type": "bool"
            }
          ],
          "internalType": "struct NFTMarket.MarketItem[]",
          "name": "",
          "type": "tuple[]"
        }
      ],
      "stateMutability": "view",
      "type": "function"
    },
    {
      "inputs": [],
      "name": "fetchMyNFTs",
      "outputs": [
        {
          "components": [
            {
              "internalType": "uint256",
              "name": "itemId",
              "type": "uint256"
            },
            {
              "internalType": "address",
              "name": "nftContract",
              "type": "address"
            },
            {
              "internalType": "uint256",
              "name": "tokenId",
              "type": "uint256"
            },
            {
              "internalType": "address",
              "name": "seller",
              "type": "address"
            },
            {
              "internalType": "address",
              "name": "owner",
              "type": "address"
            },
            {
              "internalType": "uint256",
              "name": "price",
              "type": "uint256"
            },
            {
              "internalType": "bool",
              "name": "isPrivateAsset",
              "type": "bool"
            },
            {
              "internalType": "bool",
              "name": "sold",
              "type": "bool"
            }
          ],
          "internalType": "struct NFTMarket.MarketItem[]",
          "name": "",
          "type": "tuple[]"
        }
      ],
      "stateMutability": "view",
      "type": "function"
    },
    {
      "inputs": [],
      "name": "getListingPrice",
      "outputs": [
        {
          "internalType": "uint256",
          "name": "",
          "type": "uint256"
        }
      ],
      "stateMutability": "view",
      "type": "function"
    }
  ],
  "bytecode": "0x608060405266038d7ea4c6800060055534801561001b57600080fd5b50604051610f8c380380610f8c83398101604081905261003a91610072565b600160005560048054336001600160a01b031991821617909155600380549091166001600160a01b03929092169190911790556100a2565b60006020828403121561008457600080fd5b81516001600160a01b038116811461009b57600080fd5b9392505050565b610edb806100b16000396000f3fe6080604052600436106100555760003560e01c80630f08efe01461005a57806312e8558514610085578063202e3740146100a3578063c23b139e146100b8578063e814ce78146100da578063f064c32e146100ed575b600080fd5b34801561006657600080fd5b5061006f610102565b60405161007c9190610ca1565b60405180910390f35b34801561009157600080fd5b5060055460405190815260200161007c565b3480156100af57600080fd5b5061006f61029e565b3480156100c457600080fd5b506100d86100d3366004610d5e565b610477565b005b6100d86100e8366004610d99565b610709565b3480156100f957600080fd5b5061006f610a2b565b6060600061010f60015490565b9050600061011c60025490565b6001546101299190610df7565b90506000808267ffffffffffffffff81111561014757610147610e10565b60405190808252806020026020018201604052801561018057816020015b61016d610c5d565b8152602001906001900390816101655790505b50905060005b8481101561029557600060068161019e846001610e26565b81526020810191909152604001600020600401546001600160a01b0316036102835760006101cd826001610e26565b600081815260066020818152604092839020835161010080820186528254825260018301546001600160a01b039081169483019490945260028301549582019590955260038201548316606082015260048201549092166080830152600581015460a08301529182015460ff808216151560c0840152939004909216151560e083015285519293509185908790811061026857610268610e39565b602090810291909101015261027e600186610e26565b945050505b8061028d81610e4f565b915050610186565b50949350505050565b606060006102ab60015490565b905060008060005b8381101561030d5733600660006102cb846001610e26565b81526020810191909152604001600020600401546001600160a01b0316036102fb576102f8600184610e26565b92505b8061030581610e4f565b9150506102b3565b5060008267ffffffffffffffff81111561032957610329610e10565b60405190808252806020026020018201604052801561036257816020015b61034f610c5d565b8152602001906001900390816103475790505b50905060005b84811015610295573360066000610380846001610e26565b81526020810191909152604001600020600401546001600160a01b0316036104655760006103af826001610e26565b600081815260066020818152604092839020835161010080820186528254825260018301546001600160a01b039081169483019490945260028301549582019590955260038201548316606082015260048201549092166080830152600581015460a08301529182015460ff808216151560c0840152939004909216151560e083015285519293509185908790811061044a5761044a610e39565b6020908102919091010152610460600186610e26565b945050505b8061046f81610e4f565b915050610368565b61047f610c04565b60008181526006602052604090819020600581015460029091015460035492516370a0823160e01b81523360048201529192909183916001600160a01b0316906370a0823190602401602060405180830381865afa1580156104e5573d6000803e3d6000fd5b505050506040513d601f19601f820116820180604052508101906105099190610e68565b1015610584576040805162461bcd60e51b81526020600482015260248101919091527f506c65617365207375626d6974207468652061736b696e67207072696365206960448201527f6e206f7264657220746f20636f6d706c6574652074686520707572636861736560648201526084015b60405180910390fd5b60038054600085815260066020526040908190209092015491516323b872dd60e01b81523360048201526001600160a01b039283166024820152604481018590529116906323b872dd906064016020604051808303816000875af11580156105f0573d6000803e3d6000fd5b505050506040513d601f19601f820116820180604052508101906106149190610e81565b506040516323b872dd60e01b8152306004820152336024820152604481018290526001600160a01b038516906323b872dd90606401600060405180830381600087803b15801561066357600080fd5b505af1158015610677573d6000803e3d6000fd5b50505060008481526006602081905260409091206004810180546001600160a01b0319163317905501805461ff001916610100179055506106bc600280546001019055565b6004546005546040516001600160a01b039092169181156108fc0291906000818181858888f193505050501580156106f8573d6000803e3d6000fd5b5050506107056001600055565b5050565b610711610c04565b600082116107615760405162461bcd60e51b815260206004820152601c60248201527f5072696365206d757374206265206174206c6561737420312077656900000000604482015260640161057b565b60055434146107c95760405162461bcd60e51b815260206004820152602e60248201527f5472616e73616374696f6e20666565206d75737420626520657175616c20746f60448201526d206c697374696e6720707269636560901b606482015260840161057b565b6107d7600180546001019055565b60006107e260015490565b9050604051806101000160405280828152602001866001600160a01b03168152602001858152602001336001600160a01b0316815260200160006001600160a01b03168152602001848152602001831515815260200160001515815250600660008381526020019081526020016000206000820151816000015560208201518160010160006101000a8154816001600160a01b0302191690836001600160a01b031602179055506040820151816002015560608201518160030160006101000a8154816001600160a01b0302191690836001600160a01b0316021790555060808201518160040160006101000a8154816001600160a01b0302191690836001600160a01b0316021790555060a0820151816005015560c08201518160060160006101000a81548160ff02191690831515021790555060e08201518160060160016101000a81548160ff021916908315150217905550905050846001600160a01b03166323b872dd3330876040518463ffffffff1660e01b8152600401610989939291906001600160a01b039384168152919092166020820152604081019190915260600190565b600060405180830381600087803b1580156109a357600080fd5b505af11580156109b7573d6000803e3d6000fd5b5050604080513381526000602082018190528183018890528615156060830152608082015290518793506001600160a01b038916925084917fc99151f4453170a67bc7441775fde1a3bc3220c06645df1121e703aab5e7da5d919081900360a00190a450610a256001600055565b50505050565b60606000610a3860015490565b905060008060005b83811015610a9a573360066000610a58846001610e26565b81526020810191909152604001600020600301546001600160a01b031603610a8857610a85600184610e26565b92505b80610a9281610e4f565b915050610a40565b5060008267ffffffffffffffff811115610ab657610ab6610e10565b604051908082528060200260200182016040528015610aef57816020015b610adc610c5d565b815260200190600190039081610ad45790505b50905060005b84811015610295573360066000610b0d846001610e26565b81526020810191909152604001600020600301546001600160a01b031603610bf2576000610b3c826001610e26565b600081815260066020818152604092839020835161010080820186528254825260018301546001600160a01b039081169483019490945260028301549582019590955260038201548316606082015260048201549092166080830152600581015460a08301529182015460ff808216151560c0840152939004909216151560e0830152855192935091859087908110610bd757610bd7610e39565b6020908102919091010152610bed600186610e26565b945050505b80610bfc81610e4f565b915050610af5565b600260005403610c565760405162461bcd60e51b815260206004820152601f60248201527f5265656e7472616e637947756172643a207265656e7472616e742063616c6c00604482015260640161057b565b6002600055565b6040805161010081018252600080825260208201819052918101829052606081018290526080810182905260a0810182905260c0810182905260e081019190915290565b602080825282518282018190526000919060409081850190868401855b82811015610d3557815180518552868101516001600160a01b039081168887015286820151878701526060808301518216908701526080808301519091169086015260a0808201519086015260c08082015115159086015260e0908101511515908501526101009093019290850190600101610cbe565b5091979650505050505050565b80356001600160a01b0381168114610d5957600080fd5b919050565b60008060408385031215610d7157600080fd5b610d7a83610d42565b946020939093013593505050565b8015158114610d9657600080fd5b50565b60008060008060808587031215610daf57600080fd5b610db885610d42565b935060208501359250604085013591506060850135610dd681610d88565b939692955090935050565b634e487b7160e01b600052601160045260246000fd5b81810381811115610e0a57610e0a610de1565b92915050565b634e487b7160e01b600052604160045260246000fd5b80820180821115610e0a57610e0a610de1565b634e487b7160e01b600052603260045260246000fd5b600060018201610e6157610e61610de1565b5060010190565b600060208284031215610e7a57600080fd5b5051919050565b600060208284031215610e9357600080fd5b8151610e9e81610d88565b939250505056fea26469706673582212207bedef69dabfd4dd2a17e249969a3ba9178d244d99979e4722469e1fde3eff0364736f6c63430008110033",
  "linkReferences": {},
  "deployedLinkReferences": {}
}