{
  "_format": "hh-sol-artifact-1",
  "contractName": "NFTMarket",
  "sourceName": "contracts/NFTMarket.sol",
  "abi": [
    {
      "inputs": [],
      "stateMutability": "nonpayable",
      "type": "constructor"
    },
    {
      "anonymous": false,
      "inputs": [
        {
          "indexed": true,
          "internalType": "uint256",
          "name": "itemId",
          "type": "uint256"
        },
        {
          "indexed": true,
          "internalType": "address",
          "name": "nftContract",
          "type": "address"
        },
        {
          "indexed": true,
          "internalType": "uint256",
          "name": "tokenId",
          "type": "uint256"
        },
        {
          "indexed": false,
          "internalType": "address",
          "name": "seller",
          "type": "address"
        },
        {
          "indexed": false,
          "internalType": "address",
          "name": "owner",
          "type": "address"
        },
        {
          "indexed": false,
          "internalType": "uint256",
          "name": "price",
          "type": "uint256"
        },
        {
          "indexed": false,
          "internalType": "bool",
          "name": "sold",
          "type": "bool"
        }
      ],
      "name": "MarketItemCreated",
      "type": "event"
    },
    {
      "inputs": [
        {
          "internalType": "address",
          "name": "nftContract",
          "type": "address"
        },
        {
          "internalType": "uint256",
          "name": "tokenId",
          "type": "uint256"
        },
        {
          "internalType": "uint256",
          "name": "price",
          "type": "uint256"
        }
      ],
      "name": "createMarketItem",
      "outputs": [],
      "stateMutability": "payable",
      "type": "function"
    },
    {
      "inputs": [
        {
          "internalType": "address",
          "name": "nftContract",
          "type": "address"
        },
        {
          "internalType": "uint256",
          "name": "itemId",
          "type": "uint256"
        }
      ],
      "name": "createMarketSale",
      "outputs": [],
      "stateMutability": "payable",
      "type": "function"
    },
    {
      "inputs": [],
      "name": "fetchItemsCreated",
      "outputs": [
        {
          "components": [
            {
              "internalType": "uint256",
              "name": "itemId",
              "type": "uint256"
            },
            {
              "internalType": "address",
              "name": "nftContract",
              "type": "address"
            },
            {
              "internalType": "uint256",
              "name": "tokenId",
              "type": "uint256"
            },
            {
              "internalType": "address payable",
              "name": "seller",
              "type": "address"
            },
            {
              "internalType": "address payable",
              "name": "owner",
              "type": "address"
            },
            {
              "internalType": "uint256",
              "name": "price",
              "type": "uint256"
            },
            {
              "internalType": "bool",
              "name": "sold",
              "type": "bool"
            }
          ],
          "internalType": "struct NFTMarket.MarketItem[]",
          "name": "",
          "type": "tuple[]"
        }
      ],
      "stateMutability": "view",
      "type": "function"
    },
    {
      "inputs": [],
      "name": "fetchMarketItems",
      "outputs": [
        {
          "components": [
            {
              "internalType": "uint256",
              "name": "itemId",
              "type": "uint256"
            },
            {
              "internalType": "address",
              "name": "nftContract",
              "type": "address"
            },
            {
              "internalType": "uint256",
              "name": "tokenId",
              "type": "uint256"
            },
            {
              "internalType": "address payable",
              "name": "seller",
              "type": "address"
            },
            {
              "internalType": "address payable",
              "name": "owner",
              "type": "address"
            },
            {
              "internalType": "uint256",
              "name": "price",
              "type": "uint256"
            },
            {
              "internalType": "bool",
              "name": "sold",
              "type": "bool"
            }
          ],
          "internalType": "struct NFTMarket.MarketItem[]",
          "name": "",
          "type": "tuple[]"
        }
      ],
      "stateMutability": "view",
      "type": "function"
    },
    {
      "inputs": [],
      "name": "fetchMyNFTs",
      "outputs": [
        {
          "components": [
            {
              "internalType": "uint256",
              "name": "itemId",
              "type": "uint256"
            },
            {
              "internalType": "address",
              "name": "nftContract",
              "type": "address"
            },
            {
              "internalType": "uint256",
              "name": "tokenId",
              "type": "uint256"
            },
            {
              "internalType": "address payable",
              "name": "seller",
              "type": "address"
            },
            {
              "internalType": "address payable",
              "name": "owner",
              "type": "address"
            },
            {
              "internalType": "uint256",
              "name": "price",
              "type": "uint256"
            },
            {
              "internalType": "bool",
              "name": "sold",
              "type": "bool"
            }
          ],
          "internalType": "struct NFTMarket.MarketItem[]",
          "name": "",
          "type": "tuple[]"
        }
      ],
      "stateMutability": "view",
      "type": "function"
    },
    {
      "inputs": [],
      "name": "getListingPrice",
      "outputs": [
        {
          "internalType": "uint256",
          "name": "",
          "type": "uint256"
        }
      ],
      "stateMutability": "view",
      "type": "function"
    }
  ],
  "bytecode": "0x608060405266038d7ea4c6800060045534801561001b57600080fd5b506001600055600380546001600160a01b03191633179055610cdb806100426000396000f3fe6080604052600436106100555760003560e01c80630f08efe01461005a57806312e8558514610085578063202e3740146100a357806358eb2df5146100b8578063c23b139e146100cd578063f064c32e146100e0575b600080fd5b34801561006657600080fd5b5061006f6100f5565b60405161007c9190610b11565b60405180910390f35b34801561009157600080fd5b5060045460405190815260200161007c565b3480156100af57600080fd5b5061006f610280565b6100cb6100c6366004610bc1565b610448565b005b6100cb6100db366004610bf4565b6106f2565b3480156100ec57600080fd5b5061006f61090d565b6060600061010260015490565b9050600061010f60025490565b60015461011c9190610c34565b90506000808267ffffffffffffffff81111561013a5761013a610c4d565b60405190808252806020026020018201604052801561017357816020015b610160610ad5565b8152602001906001900390816101585790505b50905060005b84811015610277576000600581610191846001610c63565b81526020810191909152604001600020600401546001600160a01b0316036102655760006101c0826001610c63565b600081815260056020818152604092839020835160e0810185528154815260018201546001600160a01b0390811693820193909352600282015494810194909452600381015482166060850152600481015490911660808401529081015460a0830152600681015460ff16151560c083015285519293509185908790811061024a5761024a610c76565b6020908102919091010152610260600186610c63565b945050505b8061026f81610c8c565b915050610179565b50949350505050565b6060600061028d60015490565b905060008060005b838110156102ef5733600560006102ad846001610c63565b81526020810191909152604001600020600401546001600160a01b0316036102dd576102da600184610c63565b92505b806102e781610c8c565b915050610295565b5060008267ffffffffffffffff81111561030b5761030b610c4d565b60405190808252806020026020018201604052801561034457816020015b610331610ad5565b8152602001906001900390816103295790505b50905060005b84811015610277573360056000610362846001610c63565b81526020810191909152604001600020600401546001600160a01b031603610436576000610391826001610c63565b600081815260056020818152604092839020835160e0810185528154815260018201546001600160a01b0390811693820193909352600282015494810194909452600381015482166060850152600481015490911660808401529081015460a0830152600681015460ff16151560c083015285519293509185908790811061041b5761041b610c76565b6020908102919091010152610431600186610c63565b945050505b8061044081610c8c565b91505061034a565b60026000540361049f5760405162461bcd60e51b815260206004820152601f60248201527f5265656e7472616e637947756172643a207265656e7472616e742063616c6c0060448201526064015b60405180910390fd5b6002600055806104f15760405162461bcd60e51b815260206004820152601c60248201527f5072696365206d757374206265206174206c65617374203120776569000000006044820152606401610496565b60045434146105595760405162461bcd60e51b815260206004820152602e60248201527f5472616e73616374696f6e20666565206d75737420626520657175616c20746f60448201526d206c697374696e6720707269636560901b6064820152608401610496565b610567600180546001019055565b600061057260015490565b6040805160e0810182528281526001600160a01b0387811660208084018281528486018a8152336060870181815260006080890181815260a08a018e815260c08b018381528d8452600598899052928c90209a518b55955160018b018054918b166001600160a01b0319928316179055945160028b0155915160038a018054918a1691861691909117905590516004808a01805492909916919094161790965591519286019290925592516006909401805494151560ff199095169490941790935592516323b872dd60e01b81529182015230602482015260448101869052919250906323b872dd90606401600060405180830381600087803b15801561067857600080fd5b505af115801561068c573d6000803e3d6000fd5b505060408051338152600060208201819052818301879052606082015290518693506001600160a01b038816925084917f045dfa01dcba2b36aba1d3dc4a874f4b0c5d2fbeb8d2c4b34a7d88c8d8f929d1919081900360800190a4505060016000555050565b6002600054036107445760405162461bcd60e51b815260206004820152601f60248201527f5265656e7472616e637947756172643a207265656e7472616e742063616c6c006044820152606401610496565b60026000818155828152600560208190526040909120908101549101543482146107d8576040805162461bcd60e51b81526020600482015260248101919091527f506c65617365207375626d6974207468652061736b696e67207072696365206960448201527f6e206f7264657220746f20636f6d706c657465207468652070757263686173656064820152608401610496565b6000838152600560205260408082206003015490516001600160a01b03909116913480156108fc02929091818181858888f19350505050158015610820573d6000803e3d6000fd5b506040516323b872dd60e01b8152306004820152336024820152604481018290526001600160a01b038516906323b872dd90606401600060405180830381600087803b15801561086f57600080fd5b505af1158015610883573d6000803e3d6000fd5b50505060008481526005602052604090206004810180546001600160a01b03191633179055600601805460ff19166001179055506108c5600280546001019055565b6003546004546040516001600160a01b039092169181156108fc0291906000818181858888f19350505050158015610901573d6000803e3d6000fd5b50506001600055505050565b6060600061091a60015490565b905060008060005b8381101561097c57336005600061093a846001610c63565b81526020810191909152604001600020600301546001600160a01b03160361096a57610967600184610c63565b92505b8061097481610c8c565b915050610922565b5060008267ffffffffffffffff81111561099857610998610c4d565b6040519080825280602002602001820160405280156109d157816020015b6109be610ad5565b8152602001906001900390816109b65790505b50905060005b848110156102775733600560006109ef846001610c63565b81526020810191909152604001600020600301546001600160a01b031603610ac3576000610a1e826001610c63565b600081815260056020818152604092839020835160e0810185528154815260018201546001600160a01b0390811693820193909352600282015494810194909452600381015482166060850152600481015490911660808401529081015460a0830152600681015460ff16151560c0830152855192935091859087908110610aa857610aa8610c76565b6020908102919091010152610abe600186610c63565b945050505b80610acd81610c8c565b9150506109d7565b6040805160e081018252600080825260208201819052918101829052606081018290526080810182905260a0810182905260c081019190915290565b602080825282518282018190526000919060409081850190868401855b82811015610b9857815180518552868101516001600160a01b039081168887015286820151878701526060808301518216908701526080808301519091169086015260a0808201519086015260c09081015115159085015260e09093019290850190600101610b2e565b5091979650505050505050565b80356001600160a01b0381168114610bbc57600080fd5b919050565b600080600060608486031215610bd657600080fd5b610bdf84610ba5565b95602085013595506040909401359392505050565b60008060408385031215610c0757600080fd5b610c1083610ba5565b946020939093013593505050565b634e487b7160e01b600052601160045260246000fd5b81810381811115610c4757610c47610c1e565b92915050565b634e487b7160e01b600052604160045260246000fd5b80820180821115610c4757610c47610c1e565b634e487b7160e01b600052603260045260246000fd5b600060018201610c9e57610c9e610c1e565b506001019056fea2646970667358221220585cc126c8e3d74c9ec1c91fea48053878bf2e1a5693d28d0350ec67ac321de664736f6c63430008110033",
  "linkReferences": {},
  "deployedLinkReferences": {}
}