{
  "_format": "hh-sol-artifact-1",
  "contractName": "NFTMarket",
  "sourceName": "contracts/NFTMarket.sol",
  "abi": [
    {
      "inputs": [
        {
          "internalType": "address",
          "name": "aeroTokenAddress",
          "type": "address"
        }
      ],
      "stateMutability": "nonpayable",
      "type": "constructor"
    },
    {
      "anonymous": false,
      "inputs": [
        {
          "indexed": true,
          "internalType": "uint256",
          "name": "itemId",
          "type": "uint256"
        },
        {
          "indexed": true,
          "internalType": "address",
          "name": "nftContract",
          "type": "address"
        },
        {
          "indexed": true,
          "internalType": "uint256",
          "name": "tokenId",
          "type": "uint256"
        },
        {
          "indexed": false,
          "internalType": "address",
          "name": "seller",
          "type": "address"
        },
        {
          "indexed": false,
          "internalType": "address",
          "name": "owner",
          "type": "address"
        },
        {
          "indexed": false,
          "internalType": "address[]",
          "name": "sharedAddrs",
          "type": "address[]"
        },
        {
          "indexed": false,
          "internalType": "uint8[]",
          "name": "sharedItemPermissions",
          "type": "uint8[]"
        },
        {
          "indexed": false,
          "internalType": "uint256",
          "name": "price",
          "type": "uint256"
        },
        {
          "indexed": false,
          "internalType": "bool",
          "name": "isPrivateAsset",
          "type": "bool"
        },
        {
          "indexed": false,
          "internalType": "bool",
          "name": "sold",
          "type": "bool"
        },
        {
          "components": [
            {
              "internalType": "string",
              "name": "profileName",
              "type": "string"
            },
            {
              "internalType": "string",
              "name": "profileUserName",
              "type": "string"
            },
            {
              "internalType": "string",
              "name": "projectName",
              "type": "string"
            },
            {
              "internalType": "string",
              "name": "projectSlug",
              "type": "string"
            },
            {
              "internalType": "string",
              "name": "environment",
              "type": "string"
            },
            {
              "internalType": "string",
              "name": "userType",
              "type": "string"
            }
          ],
          "indexed": false,
          "internalType": "struct NFTMarket.UrlParameters",
          "name": "urlParameters",
          "type": "tuple"
        }
      ],
      "name": "MarketItemCreated",
      "type": "event"
    },
    {
      "inputs": [
        {
          "internalType": "address",
          "name": "nftContract",
          "type": "address"
        },
        {
          "internalType": "string",
          "name": "tokenURI",
          "type": "string"
        },
        {
          "internalType": "uint256",
          "name": "price",
          "type": "uint256"
        },
        {
          "internalType": "bool",
          "name": "isPrivateAsset",
          "type": "bool"
        },
        {
          "components": [
            {
              "internalType": "string",
              "name": "profileName",
              "type": "string"
            },
            {
              "internalType": "string",
              "name": "profileUserName",
              "type": "string"
            },
            {
              "internalType": "string",
              "name": "projectName",
              "type": "string"
            },
            {
              "internalType": "string",
              "name": "projectSlug",
              "type": "string"
            },
            {
              "internalType": "string",
              "name": "environment",
              "type": "string"
            },
            {
              "internalType": "string",
              "name": "userType",
              "type": "string"
            }
          ],
          "internalType": "struct NFTMarket.UrlParameters",
          "name": "urlParameters",
          "type": "tuple"
        }
      ],
      "name": "createMarketItem",
      "outputs": [],
      "stateMutability": "payable",
      "type": "function"
    },
    {
      "inputs": [
        {
          "internalType": "address",
          "name": "nftContract",
          "type": "address"
        },
        {
          "internalType": "uint256",
          "name": "itemId",
          "type": "uint256"
        },
        {
          "internalType": "uint256",
          "name": "deadline",
          "type": "uint256"
        },
        {
          "internalType": "uint8",
          "name": "v",
          "type": "uint8"
        },
        {
          "internalType": "bytes32",
          "name": "r",
          "type": "bytes32"
        },
        {
          "internalType": "bytes32",
          "name": "s",
          "type": "bytes32"
        }
      ],
      "name": "createMarketSale",
      "outputs": [],
      "stateMutability": "nonpayable",
      "type": "function"
    },
    {
      "inputs": [],
      "name": "fetchItemsCreated",
      "outputs": [
        {
          "components": [
            {
              "internalType": "uint256",
              "name": "itemId",
              "type": "uint256"
            },
            {
              "internalType": "address",
              "name": "nftContract",
              "type": "address"
            },
            {
              "internalType": "uint256",
              "name": "tokenId",
              "type": "uint256"
            },
            {
              "internalType": "address",
              "name": "seller",
              "type": "address"
            },
            {
              "internalType": "address",
              "name": "owner",
              "type": "address"
            },
            {
              "internalType": "address[]",
              "name": "sharedAddrs",
              "type": "address[]"
            },
            {
              "internalType": "uint8[]",
              "name": "sharedItemPermissions",
              "type": "uint8[]"
            },
            {
              "internalType": "uint256",
              "name": "price",
              "type": "uint256"
            },
            {
              "internalType": "bool",
              "name": "isPrivateAsset",
              "type": "bool"
            },
            {
              "internalType": "bool",
              "name": "sold",
              "type": "bool"
            },
            {
              "components": [
                {
                  "internalType": "string",
                  "name": "profileName",
                  "type": "string"
                },
                {
                  "internalType": "string",
                  "name": "profileUserName",
                  "type": "string"
                },
                {
                  "internalType": "string",
                  "name": "projectName",
                  "type": "string"
                },
                {
                  "internalType": "string",
                  "name": "projectSlug",
                  "type": "string"
                },
                {
                  "internalType": "string",
                  "name": "environment",
                  "type": "string"
                },
                {
                  "internalType": "string",
                  "name": "userType",
                  "type": "string"
                }
              ],
              "internalType": "struct NFTMarket.UrlParameters",
              "name": "urlParameters",
              "type": "tuple"
            }
          ],
          "internalType": "struct NFTMarket.MarketItem[]",
          "name": "",
          "type": "tuple[]"
        }
      ],
      "stateMutability": "view",
      "type": "function"
    },
    {
      "inputs": [
        {
          "internalType": "uint256",
          "name": "id",
          "type": "uint256"
        }
      ],
      "name": "fetchMarketItemById",
      "outputs": [
        {
          "components": [
            {
              "internalType": "uint256",
              "name": "itemId",
              "type": "uint256"
            },
            {
              "internalType": "address",
              "name": "nftContract",
              "type": "address"
            },
            {
              "internalType": "uint256",
              "name": "tokenId",
              "type": "uint256"
            },
            {
              "internalType": "address",
              "name": "seller",
              "type": "address"
            },
            {
              "internalType": "address",
              "name": "owner",
              "type": "address"
            },
            {
              "internalType": "address[]",
              "name": "sharedAddrs",
              "type": "address[]"
            },
            {
              "internalType": "uint8[]",
              "name": "sharedItemPermissions",
              "type": "uint8[]"
            },
            {
              "internalType": "uint256",
              "name": "price",
              "type": "uint256"
            },
            {
              "internalType": "bool",
              "name": "isPrivateAsset",
              "type": "bool"
            },
            {
              "internalType": "bool",
              "name": "sold",
              "type": "bool"
            },
            {
              "components": [
                {
                  "internalType": "string",
                  "name": "profileName",
                  "type": "string"
                },
                {
                  "internalType": "string",
                  "name": "profileUserName",
                  "type": "string"
                },
                {
                  "internalType": "string",
                  "name": "projectName",
                  "type": "string"
                },
                {
                  "internalType": "string",
                  "name": "projectSlug",
                  "type": "string"
                },
                {
                  "internalType": "string",
                  "name": "environment",
                  "type": "string"
                },
                {
                  "internalType": "string",
                  "name": "userType",
                  "type": "string"
                }
              ],
              "internalType": "struct NFTMarket.UrlParameters",
              "name": "urlParameters",
              "type": "tuple"
            }
          ],
          "internalType": "struct NFTMarket.MarketItem",
          "name": "",
          "type": "tuple"
        }
      ],
      "stateMutability": "view",
      "type": "function"
    },
    {
      "inputs": [],
      "name": "fetchMarketItems",
      "outputs": [
        {
          "components": [
            {
              "internalType": "uint256",
              "name": "itemId",
              "type": "uint256"
            },
            {
              "internalType": "address",
              "name": "nftContract",
              "type": "address"
            },
            {
              "internalType": "uint256",
              "name": "tokenId",
              "type": "uint256"
            },
            {
              "internalType": "address",
              "name": "seller",
              "type": "address"
            },
            {
              "internalType": "address",
              "name": "owner",
              "type": "address"
            },
            {
              "internalType": "address[]",
              "name": "sharedAddrs",
              "type": "address[]"
            },
            {
              "internalType": "uint8[]",
              "name": "sharedItemPermissions",
              "type": "uint8[]"
            },
            {
              "internalType": "uint256",
              "name": "price",
              "type": "uint256"
            },
            {
              "internalType": "bool",
              "name": "isPrivateAsset",
              "type": "bool"
            },
            {
              "internalType": "bool",
              "name": "sold",
              "type": "bool"
            },
            {
              "components": [
                {
                  "internalType": "string",
                  "name": "profileName",
                  "type": "string"
                },
                {
                  "internalType": "string",
                  "name": "profileUserName",
                  "type": "string"
                },
                {
                  "internalType": "string",
                  "name": "projectName",
                  "type": "string"
                },
                {
                  "internalType": "string",
                  "name": "projectSlug",
                  "type": "string"
                },
                {
                  "internalType": "string",
                  "name": "environment",
                  "type": "string"
                },
                {
                  "internalType": "string",
                  "name": "userType",
                  "type": "string"
                }
              ],
              "internalType": "struct NFTMarket.UrlParameters",
              "name": "urlParameters",
              "type": "tuple"
            }
          ],
          "internalType": "struct NFTMarket.MarketItem[]",
          "name": "",
          "type": "tuple[]"
        }
      ],
      "stateMutability": "view",
      "type": "function"
    },
    {
      "inputs": [],
      "name": "fetchMyNFTs",
      "outputs": [
        {
          "components": [
            {
              "internalType": "uint256",
              "name": "itemId",
              "type": "uint256"
            },
            {
              "internalType": "address",
              "name": "nftContract",
              "type": "address"
            },
            {
              "internalType": "uint256",
              "name": "tokenId",
              "type": "uint256"
            },
            {
              "internalType": "address",
              "name": "seller",
              "type": "address"
            },
            {
              "internalType": "address",
              "name": "owner",
              "type": "address"
            },
            {
              "internalType": "address[]",
              "name": "sharedAddrs",
              "type": "address[]"
            },
            {
              "internalType": "uint8[]",
              "name": "sharedItemPermissions",
              "type": "uint8[]"
            },
            {
              "internalType": "uint256",
              "name": "price",
              "type": "uint256"
            },
            {
              "internalType": "bool",
              "name": "isPrivateAsset",
              "type": "bool"
            },
            {
              "internalType": "bool",
              "name": "sold",
              "type": "bool"
            },
            {
              "components": [
                {
                  "internalType": "string",
                  "name": "profileName",
                  "type": "string"
                },
                {
                  "internalType": "string",
                  "name": "profileUserName",
                  "type": "string"
                },
                {
                  "internalType": "string",
                  "name": "projectName",
                  "type": "string"
                },
                {
                  "internalType": "string",
                  "name": "projectSlug",
                  "type": "string"
                },
                {
                  "internalType": "string",
                  "name": "environment",
                  "type": "string"
                },
                {
                  "internalType": "string",
                  "name": "userType",
                  "type": "string"
                }
              ],
              "internalType": "struct NFTMarket.UrlParameters",
              "name": "urlParameters",
              "type": "tuple"
            }
          ],
          "internalType": "struct NFTMarket.MarketItem[]",
          "name": "",
          "type": "tuple[]"
        }
      ],
      "stateMutability": "view",
      "type": "function"
    },
    {
      "inputs": [],
      "name": "getListingPrice",
      "outputs": [
        {
          "internalType": "uint256",
          "name": "",
          "type": "uint256"
        }
      ],
      "stateMutability": "view",
      "type": "function"
    },
    {
      "inputs": [
        {
          "internalType": "uint256",
          "name": "id",
          "type": "uint256"
        },
        {
          "internalType": "address",
          "name": "addr",
          "type": "address"
        },
        {
          "internalType": "uint8",
          "name": "permission",
          "type": "uint8"
        }
      ],
      "name": "setPermissionSharedAddress",
      "outputs": [],
      "stateMutability": "nonpayable",
      "type": "function"
    },
    {
      "inputs": [
        {
          "internalType": "uint256",
          "name": "id",
          "type": "uint256"
        },
        {
          "internalType": "address[]",
          "name": "addrs",
          "type": "address[]"
        },
        {
          "internalType": "uint8[]",
          "name": "permissions",
          "type": "uint8[]"
        }
      ],
      "name": "setSharedAddress",
      "outputs": [],
      "stateMutability": "nonpayable",
      "type": "function"
    }
  ],
  "bytecode": "0x608060405266038d7ea4c680006005553480156200001c57600080fd5b5060405162003006380380620030068339810160408190526200003f9162000078565b600160005560048054336001600160a01b031991821617909155600380549091166001600160a01b0392909216919091179055620000aa565b6000602082840312156200008b57600080fd5b81516001600160a01b0381168114620000a357600080fd5b9392505050565b612f4c80620000ba6000396000f3fe6080604052600436106100865760003560e01c8063202e374011610059578063202e3740146101095780639dba6c571461011e578063ad1477a91461013e578063ccab4f721461016b578063f064c32e1461018b57600080fd5b80630eb5247b1461008b5780630f08efe0146100a05780630feb1289146100cb57806312e85585146100eb575b600080fd5b61009e6100993660046125fb565b6101a0565b005b3480156100ac57600080fd5b506100b56105cf565b6040516100c291906129b5565b60405180910390f35b3480156100d757600080fd5b5061009e6100e6366004612abe565b610bc1565b3480156100f757600080fd5b506005546040519081526020016100c2565b34801561011557600080fd5b506100b5610c73565b34801561012a57600080fd5b5061009e610139366004612b89565b6112a2565b34801561014a57600080fd5b5061015e610159366004612bc5565b6113cd565b6040516100c29190612bde565b34801561017757600080fd5b5061009e610186366004612bf8565b6118f9565b34801561019757600080fd5b506100b5611c9c565b6101a86122cb565b600083116101fd5760405162461bcd60e51b815260206004820152601c60248201527f5072696365206d757374206265206174206c656173742031207765690000000060448201526064015b60405180910390fd5b60055434146102655760405162461bcd60e51b815260206004820152602e60248201527f5472616e73616374696f6e20666565206d75737420626520657175616c20746f60448201526d206c697374696e6720707269636560901b60648201526084016101f4565b604051630138280760e01b81526000906001600160a01b038716906301382807906102969033908990600401612c50565b6020604051808303816000875af11580156102b5573d6000803e3d6000fd5b505050506040513d601f19601f820116820180604052508101906102d99190612c7c565b90506102e9600180546001019055565b60006102f460015490565b60408051610160810182528281526001600160a01b038a166020808301919091528183018690523360608301526000608083018190528351818152808301855260a084015283518181529182019093529293509160c08301915081526020808201889052861515604080840191909152600060608085018290526080948501899052868252600684529082902085518155858401516001820180546001600160a01b03199081166001600160a01b039384161790915593870151600283015591860151600382018054851691841691909117905593850151600485018054909316911617905560a083015180516103f19260058501920190612324565b5060c0820151805161040d916006840191602090910190612389565b5060e082015160078201556101008083015160088301805461012086015161ffff1990911692151561ff001916929092179115159092021790556101408201518051600983019081906104609082612d1a565b50602082015160018201906104759082612d1a565b506040820151600282019061048a9082612d1a565b506060820151600382019061049f9082612d1a565b50608082015160048201906104b49082612d1a565b5060a082015160058201906104c99082612d1a565b50506040516323b872dd60e01b8152336004820152306024820152604481018690526001600160a01b038b1693506323b872dd92506064019050600060405180830381600087803b15801561051d57600080fd5b505af1158015610531573d6000803e3d6000fd5b5084925050506001600160a01b038816827faba5a916f0ef4b5335c80adc18852a31be99e88a71114db1f4256bc106ba317e33600080604051908082528060200260200182016040528015610590578160200160208202803683370190505b5060408051600080825260208201928390526105b4959493928f918f918f90612dda565b60405180910390a450506105c86001600055565b5050505050565b606060006105dc60015490565b905060006105e960025490565b6001546105f69190612e9e565b90506000808267ffffffffffffffff8111156106145761061461250a565b60405190808252806020026020018201604052801561064d57816020015b61063a61242a565b8152602001906001900390816106325790505b50905060005b84811015610bb857600060068161066b846001612eb7565b81526020810191909152604001600020600401546001600160a01b031603610ba657600061069a826001612eb7565b6000818152600660209081526040918290208251610160810184528154815260018201546001600160a01b0390811682850152600283015482860152600383015481166060830152600483015416608082015260058201805485518186028101860190965280865295965091949093859360a086019391929083018282801561074c57602002820191906000526020600020905b81546001600160a01b0316815260019091019060200180831161072e575b50505050508152602001600682018054806020026020016040519081016040528092919081815260200182805480156107c257602002820191906000526020600020906000905b825461010083900a900460ff168152602060019283018181049485019490930390920291018084116107935790505b505050918352505060078201546020820152600882015460ff80821615156040808501919091526101009092041615156060830152805160c081019091526009830180546080909301928290829061081990612c95565b80601f016020809104026020016040519081016040528092919081815260200182805461084590612c95565b80156108925780601f1061086757610100808354040283529160200191610892565b820191906000526020600020905b81548152906001019060200180831161087557829003601f168201915b505050505081526020016001820180546108ab90612c95565b80601f01602080910402602001604051908101604052809291908181526020018280546108d790612c95565b80156109245780601f106108f957610100808354040283529160200191610924565b820191906000526020600020905b81548152906001019060200180831161090757829003601f168201915b5050505050815260200160028201805461093d90612c95565b80601f016020809104026020016040519081016040528092919081815260200182805461096990612c95565b80156109b65780601f1061098b576101008083540402835291602001916109b6565b820191906000526020600020905b81548152906001019060200180831161099957829003601f168201915b505050505081526020016003820180546109cf90612c95565b80601f01602080910402602001604051908101604052809291908181526020018280546109fb90612c95565b8015610a485780601f10610a1d57610100808354040283529160200191610a48565b820191906000526020600020905b815481529060010190602001808311610a2b57829003601f168201915b50505050508152602001600482018054610a6190612c95565b80601f0160208091040260200160405190810160405280929190818152602001828054610a8d90612c95565b8015610ada5780601f10610aaf57610100808354040283529160200191610ada565b820191906000526020600020905b815481529060010190602001808311610abd57829003601f168201915b50505050508152602001600582018054610af390612c95565b80601f0160208091040260200160405190810160405280929190818152602001828054610b1f90612c95565b8015610b6c5780601f10610b4157610100808354040283529160200191610b6c565b820191906000526020600020905b815481529060010190602001808311610b4f57829003601f168201915b50505050508152505081525050848681518110610b8b57610b8b612eca565b6020908102919091010152610ba1600186612eb7565b945050505b80610bb081612ee0565b915050610653565b50949350505050565b60008381526006602052604090206008015460ff16610c225760405162461bcd60e51b815260206004820152601a60248201527f4d61726b6574206974656d206973206e6f74207072697661746500000000000060448201526064016101f4565b60008381526006602090815260409091208351610c4792600590920191850190612324565b5060008381526006602081815260409092208351610c6d93919092019190840190612389565b50505050565b60606000610c8060015490565b905060008060005b83811015610ce2573360066000610ca0846001612eb7565b81526020810191909152604001600020600401546001600160a01b031603610cd057610ccd600184612eb7565b92505b80610cda81612ee0565b915050610c88565b5060008267ffffffffffffffff811115610cfe57610cfe61250a565b604051908082528060200260200182016040528015610d3757816020015b610d2461242a565b815260200190600190039081610d1c5790505b50905060005b84811015610bb8573360066000610d55846001612eb7565b81526020810191909152604001600020600401546001600160a01b031603611290576000610d84826001612eb7565b6000818152600660209081526040918290208251610160810184528154815260018201546001600160a01b0390811682850152600283015482860152600383015481166060830152600483015416608082015260058201805485518186028101860190965280865295965091949093859360a0860193919290830182828015610e3657602002820191906000526020600020905b81546001600160a01b03168152600190910190602001808311610e18575b5050505050815260200160068201805480602002602001604051908101604052809291908181526020018280548015610eac57602002820191906000526020600020906000905b825461010083900a900460ff16815260206001928301818104948501949093039092029101808411610e7d5790505b505050918352505060078201546020820152600882015460ff80821615156040808501919091526101009092041615156060830152805160c0810190915260098301805460809093019282908290610f0390612c95565b80601f0160208091040260200160405190810160405280929190818152602001828054610f2f90612c95565b8015610f7c5780601f10610f5157610100808354040283529160200191610f7c565b820191906000526020600020905b815481529060010190602001808311610f5f57829003601f168201915b50505050508152602001600182018054610f9590612c95565b80601f0160208091040260200160405190810160405280929190818152602001828054610fc190612c95565b801561100e5780601f10610fe35761010080835404028352916020019161100e565b820191906000526020600020905b815481529060010190602001808311610ff157829003601f168201915b5050505050815260200160028201805461102790612c95565b80601f016020809104026020016040519081016040528092919081815260200182805461105390612c95565b80156110a05780601f10611075576101008083540402835291602001916110a0565b820191906000526020600020905b81548152906001019060200180831161108357829003601f168201915b505050505081526020016003820180546110b990612c95565b80601f01602080910402602001604051908101604052809291908181526020018280546110e590612c95565b80156111325780601f1061110757610100808354040283529160200191611132565b820191906000526020600020905b81548152906001019060200180831161111557829003601f168201915b5050505050815260200160048201805461114b90612c95565b80601f016020809104026020016040519081016040528092919081815260200182805461117790612c95565b80156111c45780601f10611199576101008083540402835291602001916111c4565b820191906000526020600020905b8154815290600101906020018083116111a757829003601f168201915b505050505081526020016005820180546111dd90612c95565b80601f016020809104026020016040519081016040528092919081815260200182805461120990612c95565b80156112565780601f1061122b57610100808354040283529160200191611256565b820191906000526020600020905b81548152906001019060200180831161123957829003601f168201915b5050505050815250508152505084868151811061127557611275612eca565b602090810291909101015261128b600186612eb7565b945050505b8061129a81612ee0565b915050610d3d565b60008381526006602052604090206008015460ff166113035760405162461bcd60e51b815260206004820152601a60248201527f4d61726b6574206974656d206973206e6f74207072697661746500000000000060448201526064016101f4565b60005b600084815260066020526040902060050154811015610c6d57600084815260066020526040902060050180546001600160a01b03851691908390811061134e5761134e612eca565b6000918252602090912001546001600160a01b0316036113bb578160066000868152602001908152602001600020600601828154811061139057611390612eca565b90600052602060002090602091828204019190066101000a81548160ff021916908360ff1602179055505b806113c581612ee0565b915050611306565b6113d561242a565b6001548211156114195760405162461bcd60e51b815260206004820152600f60248201526e125b9d985b1a5908125d195b481259608a1b60448201526064016101f4565b60008281526006602090815260408083208151610160810183528154815260018201546001600160a01b039081168286015260028301548285015260038301548116606083015260048301541660808201526005820180548451818702810187019095528085529194929360a08601939092908301828280156114c557602002820191906000526020600020905b81546001600160a01b031681526001909101906020018083116114a7575b505050505081526020016006820180548060200260200160405190810160405280929190818152602001828054801561153b57602002820191906000526020600020906000905b825461010083900a900460ff1681526020600192830181810494850194909303909202910180841161150c5790505b505050918352505060078201546020820152600882015460ff80821615156040808501919091526101009092041615156060830152805160c081019091526009830180546080909301928290829061159290612c95565b80601f01602080910402602001604051908101604052809291908181526020018280546115be90612c95565b801561160b5780601f106115e05761010080835404028352916020019161160b565b820191906000526020600020905b8154815290600101906020018083116115ee57829003601f168201915b5050505050815260200160018201805461162490612c95565b80601f016020809104026020016040519081016040528092919081815260200182805461165090612c95565b801561169d5780601f106116725761010080835404028352916020019161169d565b820191906000526020600020905b81548152906001019060200180831161168057829003601f168201915b505050505081526020016002820180546116b690612c95565b80601f01602080910402602001604051908101604052809291908181526020018280546116e290612c95565b801561172f5780601f106117045761010080835404028352916020019161172f565b820191906000526020600020905b81548152906001019060200180831161171257829003601f168201915b5050505050815260200160038201805461174890612c95565b80601f016020809104026020016040519081016040528092919081815260200182805461177490612c95565b80156117c15780601f10611796576101008083540402835291602001916117c1565b820191906000526020600020905b8154815290600101906020018083116117a457829003601f168201915b505050505081526020016004820180546117da90612c95565b80601f016020809104026020016040519081016040528092919081815260200182805461180690612c95565b80156118535780601f1061182857610100808354040283529160200191611853565b820191906000526020600020905b81548152906001019060200180831161183657829003601f168201915b5050505050815260200160058201805461186c90612c95565b80601f016020809104026020016040519081016040528092919081815260200182805461189890612c95565b80156118e55780601f106118ba576101008083540402835291602001916118e5565b820191906000526020600020905b8154815290600101906020018083116118c857829003601f168201915b505050919092525050509052509392505050565b6119016122cb565b60008581526006602052604090819020600781015460029091015460035492516370a0823160e01b81523360048201529192909183916001600160a01b0316906370a0823190602401602060405180830381865afa158015611967573d6000803e3d6000fd5b505050506040513d601f19601f8201168201806040525081019061198b9190612c7c565b1015611a01576040805162461bcd60e51b81526020600482015260248101919091527f506c65617365207375626d6974207468652061736b696e67207072696365206960448201527f6e206f7264657220746f20636f6d706c6574652074686520707572636861736560648201526084016101f4565b60035460405163d505accf60e01b8152336004820152306024820152604481018490526064810188905260ff8716608482015260a4810186905260c481018590526001600160a01b039091169063d505accf9060e401600060405180830381600087803b158015611a7157600080fd5b505af1158015611a85573d6000803e3d6000fd5b50506003805460008b81526006602052604090819020909201549151633950935160e01b81526001600160a01b0392831660048201526024810187905291169250633950935191506044016020604051808303816000875af1158015611aef573d6000803e3d6000fd5b505050506040513d601f19601f82011682018060405250810190611b139190612ef9565b5060038054600089815260066020526040908190209092015491516323b872dd60e01b81523360048201526001600160a01b039283166024820152604481018590529116906323b872dd906064016020604051808303816000875af1158015611b80573d6000803e3d6000fd5b505050506040513d601f19601f82011682018060405250810190611ba49190612ef9565b506040516323b872dd60e01b8152306004820152336024820152604481018290526001600160a01b038916906323b872dd90606401600060405180830381600087803b158015611bf357600080fd5b505af1158015611c07573d6000803e3d6000fd5b50505060008881526006602052604090206004810180546001600160a01b03191633179055600801805461ff00191661010017905550611c4b600280546001019055565b6004546005546040516001600160a01b039092169181156108fc0291906000818181858888f19350505050158015611c87573d6000803e3d6000fd5b505050611c946001600055565b505050505050565b60606000611ca960015490565b905060008060005b83811015611d0b573360066000611cc9846001612eb7565b81526020810191909152604001600020600301546001600160a01b031603611cf957611cf6600184612eb7565b92505b80611d0381612ee0565b915050611cb1565b5060008267ffffffffffffffff811115611d2757611d2761250a565b604051908082528060200260200182016040528015611d6057816020015b611d4d61242a565b815260200190600190039081611d455790505b50905060005b84811015610bb8573360066000611d7e846001612eb7565b81526020810191909152604001600020600301546001600160a01b0316036122b9576000611dad826001612eb7565b6000818152600660209081526040918290208251610160810184528154815260018201546001600160a01b0390811682850152600283015482860152600383015481166060830152600483015416608082015260058201805485518186028101860190965280865295965091949093859360a0860193919290830182828015611e5f57602002820191906000526020600020905b81546001600160a01b03168152600190910190602001808311611e41575b5050505050815260200160068201805480602002602001604051908101604052809291908181526020018280548015611ed557602002820191906000526020600020906000905b825461010083900a900460ff16815260206001928301818104948501949093039092029101808411611ea65790505b505050918352505060078201546020820152600882015460ff80821615156040808501919091526101009092041615156060830152805160c0810190915260098301805460809093019282908290611f2c90612c95565b80601f0160208091040260200160405190810160405280929190818152602001828054611f5890612c95565b8015611fa55780601f10611f7a57610100808354040283529160200191611fa5565b820191906000526020600020905b815481529060010190602001808311611f8857829003601f168201915b50505050508152602001600182018054611fbe90612c95565b80601f0160208091040260200160405190810160405280929190818152602001828054611fea90612c95565b80156120375780601f1061200c57610100808354040283529160200191612037565b820191906000526020600020905b81548152906001019060200180831161201a57829003601f168201915b5050505050815260200160028201805461205090612c95565b80601f016020809104026020016040519081016040528092919081815260200182805461207c90612c95565b80156120c95780601f1061209e576101008083540402835291602001916120c9565b820191906000526020600020905b8154815290600101906020018083116120ac57829003601f168201915b505050505081526020016003820180546120e290612c95565b80601f016020809104026020016040519081016040528092919081815260200182805461210e90612c95565b801561215b5780601f106121305761010080835404028352916020019161215b565b820191906000526020600020905b81548152906001019060200180831161213e57829003601f168201915b5050505050815260200160048201805461217490612c95565b80601f01602080910402602001604051908101604052809291908181526020018280546121a090612c95565b80156121ed5780601f106121c2576101008083540402835291602001916121ed565b820191906000526020600020905b8154815290600101906020018083116121d057829003601f168201915b5050505050815260200160058201805461220690612c95565b80601f016020809104026020016040519081016040528092919081815260200182805461223290612c95565b801561227f5780601f106122545761010080835404028352916020019161227f565b820191906000526020600020905b81548152906001019060200180831161226257829003601f168201915b5050505050815250508152505084868151811061229e5761229e612eca565b60209081029190910101526122b4600186612eb7565b945050505b806122c381612ee0565b915050611d66565b60026000540361231d5760405162461bcd60e51b815260206004820152601f60248201527f5265656e7472616e637947756172643a207265656e7472616e742063616c6c0060448201526064016101f4565b6002600055565b828054828255906000526020600020908101928215612379579160200282015b8281111561237957825182546001600160a01b0319166001600160a01b03909116178255602090920191600190910190612344565b506123859291506124d9565b5090565b82805482825590600052602060002090601f016020900481019282156123795791602002820160005b838211156123f057835183826101000a81548160ff021916908360ff16021790555092602001926001016020816000010492830192600103026123b2565b801561241d5782816101000a81549060ff02191690556001016020816000010492830192600103026123f0565b50506123859291506124d9565b6040518061016001604052806000815260200160006001600160a01b031681526020016000815260200160006001600160a01b0316815260200160006001600160a01b031681526020016060815260200160608152602001600081526020016000151581526020016000151581526020016124d46040518060c001604052806060815260200160608152602001606081526020016060815260200160608152602001606081525090565b905290565b5b8082111561238557600081556001016124da565b80356001600160a01b038116811461250557600080fd5b919050565b634e487b7160e01b600052604160045260246000fd5b60405160c0810167ffffffffffffffff811182821017156125435761254361250a565b60405290565b604051601f8201601f1916810167ffffffffffffffff811182821017156125725761257261250a565b604052919050565b600082601f83011261258b57600080fd5b813567ffffffffffffffff8111156125a5576125a561250a565b6125b8601f8201601f1916602001612549565b8181528460208386010111156125cd57600080fd5b816020850160208301376000918101602001919091529392505050565b80151581146125f857600080fd5b50565b600080600080600060a0868803121561261357600080fd5b61261c866124ee565b9450602086013567ffffffffffffffff8082111561263957600080fd5b61264589838a0161257a565b9550604088013594506060880135915061265e826125ea565b9092506080870135908082111561267457600080fd5b9087019060c0828a03121561268857600080fd5b612690612520565b82358281111561269f57600080fd5b6126ab8b82860161257a565b8252506020830135828111156126c057600080fd5b6126cc8b82860161257a565b6020830152506040830135828111156126e457600080fd5b6126f08b82860161257a565b60408301525060608301358281111561270857600080fd5b6127148b82860161257a565b60608301525060808301358281111561272c57600080fd5b6127388b82860161257a565b60808301525060a08301358281111561275057600080fd5b61275c8b82860161257a565b60a0830152508093505050509295509295909350565b600081518084526020808501945080840160005b838110156127ab5781516001600160a01b031687529582019590820190600101612786565b509495945050505050565b600081518084526020808501945080840160005b838110156127ab57815160ff16875295820195908201906001016127ca565b6000815180845260005b8181101561280f576020818501810151868301820152016127f3565b506000602082860101526020601f19601f83011685010191505092915050565b6000815160c0845261284460c08501826127e9565b90506020830151848203602086015261285d82826127e9565b9150506040830151848203604086015261287782826127e9565b9150506060830151848203606086015261289182826127e9565b915050608083015184820360808601526128ab82826127e9565b91505060a083015184820360a08601526128c582826127e9565b95945050505050565b60006101608251845260208301516128f160208601826001600160a01b03169052565b5060408301516040850152606083015161291660608601826001600160a01b03169052565b50608083015161293160808601826001600160a01b03169052565b5060a08301518160a086015261294982860182612772565b91505060c083015184820360c086015261296382826127b6565b91505060e083015160e0850152610100808401516129848287018215159052565b50506101208381015115159085015261014080840151858303828701526129ab838261282f565b9695505050505050565b6000602080830181845280855180835260408601915060408160051b870101925083870160005b82811015612a0a57603f198886030184526129f88583516128ce565b945092850192908501906001016129dc565b5092979650505050505050565b600067ffffffffffffffff821115612a3157612a3161250a565b5060051b60200190565b803560ff8116811461250557600080fd5b600082601f830112612a5d57600080fd5b81356020612a72612a6d83612a17565b612549565b82815260059290921b84018101918181019086841115612a9157600080fd5b8286015b84811015612ab357612aa681612a3b565b8352918301918301612a95565b509695505050505050565b600080600060608486031215612ad357600080fd5b8335925060208085013567ffffffffffffffff80821115612af357600080fd5b818701915087601f830112612b0757600080fd5b8135612b15612a6d82612a17565b81815260059190911b8301840190848101908a831115612b3457600080fd5b938501935b82851015612b5957612b4a856124ee565b82529385019390850190612b39565b965050506040870135925080831115612b7157600080fd5b5050612b7f86828701612a4c565b9150509250925092565b600080600060608486031215612b9e57600080fd5b83359250612bae602085016124ee565b9150612bbc60408501612a3b565b90509250925092565b600060208284031215612bd757600080fd5b5035919050565b602081526000612bf160208301846128ce565b9392505050565b60008060008060008060c08789031215612c1157600080fd5b612c1a876124ee565b95506020870135945060408701359350612c3660608801612a3b565b92506080870135915060a087013590509295509295509295565b6001600160a01b0383168152604060208201819052600090612c74908301846127e9565b949350505050565b600060208284031215612c8e57600080fd5b5051919050565b600181811c90821680612ca957607f821691505b602082108103612cc957634e487b7160e01b600052602260045260246000fd5b50919050565b601f821115612d1557600081815260208120601f850160051c81016020861015612cf65750805b601f850160051c820191505b81811015611c9457828155600101612d02565b505050565b815167ffffffffffffffff811115612d3457612d3461250a565b612d4881612d428454612c95565b84612ccf565b602080601f831160018114612d7d5760008415612d655750858301515b600019600386901b1c1916600185901b178555611c94565b600085815260208120601f198616915b82811015612dac57888601518255948401946001909101908401612d8d565b5085821015612dca5787850151600019600388901b60f8161c191681555b5050505050600190811b01905550565b6001600160a01b0389811682528881166020808401919091526101006040840181905289519084018190526000926101208501928b810192855b81811015612e32578451841686529482019493820193600101612e14565b50505050508281036060840152612e4981896127b6565b9050866080840152612e5f60a084018715159052565b84151560c084015282810360e0840152612e79818561282f565b9b9a5050505050505050505050565b634e487b7160e01b600052601160045260246000fd5b81810381811115612eb157612eb1612e88565b92915050565b80820180821115612eb157612eb1612e88565b634e487b7160e01b600052603260045260246000fd5b600060018201612ef257612ef2612e88565b5060010190565b600060208284031215612f0b57600080fd5b8151612bf1816125ea56fea264697066735822122009b5d538e74e20f52f6339986612e32649261dfa064157ad5121df54a8d982fe64736f6c63430008110033",
  "linkReferences": {},
  "deployedLinkReferences": {}
}