{
  "_format": "hh-sol-artifact-1",
  "contractName": "NFTMarket",
  "sourceName": "contracts/NFTMarket.sol",
  "abi": [
    {
      "inputs": [
        {
          "internalType": "address",
          "name": "aeroTokenAddress",
          "type": "address"
        }
      ],
      "stateMutability": "nonpayable",
      "type": "constructor"
    },
    {
      "anonymous": false,
      "inputs": [
        {
          "indexed": true,
          "internalType": "uint256",
          "name": "itemId",
          "type": "uint256"
        },
        {
          "indexed": true,
          "internalType": "address",
          "name": "nftContract",
          "type": "address"
        },
        {
          "indexed": true,
          "internalType": "uint256",
          "name": "tokenId",
          "type": "uint256"
        },
        {
          "indexed": false,
          "internalType": "address",
          "name": "seller",
          "type": "address"
        },
        {
          "indexed": false,
          "internalType": "address",
          "name": "owner",
          "type": "address"
        },
        {
          "indexed": false,
          "internalType": "uint256",
          "name": "price",
          "type": "uint256"
        },
        {
          "indexed": false,
          "internalType": "bool",
          "name": "isPrivateAsset",
          "type": "bool"
        },
        {
          "indexed": false,
          "internalType": "bool",
          "name": "sold",
          "type": "bool"
        }
      ],
      "name": "MarketItemCreated",
      "type": "event"
    },
    {
      "inputs": [
        {
          "internalType": "address",
          "name": "nftContract",
          "type": "address"
        },
        {
          "internalType": "string",
          "name": "tokenURI",
          "type": "string"
        },
        {
          "internalType": "uint256",
          "name": "price",
          "type": "uint256"
        },
        {
          "internalType": "bool",
          "name": "isPrivateAsset",
          "type": "bool"
        }
      ],
      "name": "createMarketItem",
      "outputs": [],
      "stateMutability": "payable",
      "type": "function"
    },
    {
      "inputs": [
        {
          "internalType": "address",
          "name": "nftContract",
          "type": "address"
        },
        {
          "internalType": "uint256",
          "name": "itemId",
          "type": "uint256"
        },
        {
          "internalType": "uint256",
          "name": "deadline",
          "type": "uint256"
        },
        {
          "internalType": "uint8",
          "name": "v",
          "type": "uint8"
        },
        {
          "internalType": "bytes32",
          "name": "r",
          "type": "bytes32"
        },
        {
          "internalType": "bytes32",
          "name": "s",
          "type": "bytes32"
        }
      ],
      "name": "createMarketSale",
      "outputs": [],
      "stateMutability": "nonpayable",
      "type": "function"
    },
    {
      "inputs": [],
      "name": "fetchItemsCreated",
      "outputs": [
        {
          "components": [
            {
              "internalType": "uint256",
              "name": "itemId",
              "type": "uint256"
            },
            {
              "internalType": "address",
              "name": "nftContract",
              "type": "address"
            },
            {
              "internalType": "uint256",
              "name": "tokenId",
              "type": "uint256"
            },
            {
              "internalType": "address",
              "name": "seller",
              "type": "address"
            },
            {
              "internalType": "address",
              "name": "owner",
              "type": "address"
            },
            {
              "internalType": "uint256",
              "name": "price",
              "type": "uint256"
            },
            {
              "internalType": "bool",
              "name": "isPrivateAsset",
              "type": "bool"
            },
            {
              "internalType": "bool",
              "name": "sold",
              "type": "bool"
            }
          ],
          "internalType": "struct NFTMarket.MarketItem[]",
          "name": "",
          "type": "tuple[]"
        }
      ],
      "stateMutability": "view",
      "type": "function"
    },
    {
      "inputs": [],
      "name": "fetchMarketItems",
      "outputs": [
        {
          "components": [
            {
              "internalType": "uint256",
              "name": "itemId",
              "type": "uint256"
            },
            {
              "internalType": "address",
              "name": "nftContract",
              "type": "address"
            },
            {
              "internalType": "uint256",
              "name": "tokenId",
              "type": "uint256"
            },
            {
              "internalType": "address",
              "name": "seller",
              "type": "address"
            },
            {
              "internalType": "address",
              "name": "owner",
              "type": "address"
            },
            {
              "internalType": "uint256",
              "name": "price",
              "type": "uint256"
            },
            {
              "internalType": "bool",
              "name": "isPrivateAsset",
              "type": "bool"
            },
            {
              "internalType": "bool",
              "name": "sold",
              "type": "bool"
            }
          ],
          "internalType": "struct NFTMarket.MarketItem[]",
          "name": "",
          "type": "tuple[]"
        }
      ],
      "stateMutability": "view",
      "type": "function"
    },
    {
      "inputs": [],
      "name": "fetchMyNFTs",
      "outputs": [
        {
          "components": [
            {
              "internalType": "uint256",
              "name": "itemId",
              "type": "uint256"
            },
            {
              "internalType": "address",
              "name": "nftContract",
              "type": "address"
            },
            {
              "internalType": "uint256",
              "name": "tokenId",
              "type": "uint256"
            },
            {
              "internalType": "address",
              "name": "seller",
              "type": "address"
            },
            {
              "internalType": "address",
              "name": "owner",
              "type": "address"
            },
            {
              "internalType": "uint256",
              "name": "price",
              "type": "uint256"
            },
            {
              "internalType": "bool",
              "name": "isPrivateAsset",
              "type": "bool"
            },
            {
              "internalType": "bool",
              "name": "sold",
              "type": "bool"
            }
          ],
          "internalType": "struct NFTMarket.MarketItem[]",
          "name": "",
          "type": "tuple[]"
        }
      ],
      "stateMutability": "view",
      "type": "function"
    },
    {
      "inputs": [],
      "name": "getListingPrice",
      "outputs": [
        {
          "internalType": "uint256",
          "name": "",
          "type": "uint256"
        }
      ],
      "stateMutability": "view",
      "type": "function"
    }
  ],
  "bytecode": "0x608060405266038d7ea4c6800060055534801561001b57600080fd5b5060405161124d38038061124d83398101604081905261003a91610072565b600160005560048054336001600160a01b031991821617909155600380549091166001600160a01b03929092169190911790556100a2565b60006020828403121561008457600080fd5b81516001600160a01b038116811461009b57600080fd5b9392505050565b61119c806100b16000396000f3fe6080604052600436106100555760003560e01c80630f08efe01461005a57806312e8558514610085578063202e3740146100a3578063a32ff6dc146100b8578063ccab4f72146100cd578063f064c32e146100ed575b600080fd5b34801561006657600080fd5b5061006f610102565b60405161007c9190610e2f565b60405180910390f35b34801561009157600080fd5b5060055460405190815260200161007c565b3480156100af57600080fd5b5061006f61029e565b6100cb6100c6366004610f1e565b610477565b005b3480156100d957600080fd5b506100cb6100e8366004610ffa565b610815565b3480156100f957600080fd5b5061006f610bb9565b6060600061010f60015490565b9050600061011c60025490565b6001546101299190611070565b90506000808267ffffffffffffffff81111561014757610147610eec565b60405190808252806020026020018201604052801561018057816020015b61016d610deb565b8152602001906001900390816101655790505b50905060005b8481101561029557600060068161019e846001611089565b81526020810191909152604001600020600401546001600160a01b0316036102835760006101cd826001611089565b600081815260066020818152604092839020835161010080820186528254825260018301546001600160a01b039081169483019490945260028301549582019590955260038201548316606082015260048201549092166080830152600581015460a08301529182015460ff808216151560c0840152939004909216151560e08301528551929350918590879081106102685761026861109c565b602090810291909101015261027e600186611089565b945050505b8061028d816110b2565b915050610186565b50949350505050565b606060006102ab60015490565b905060008060005b8381101561030d5733600660006102cb846001611089565b81526020810191909152604001600020600401546001600160a01b0316036102fb576102f8600184611089565b92505b80610305816110b2565b9150506102b3565b5060008267ffffffffffffffff81111561032957610329610eec565b60405190808252806020026020018201604052801561036257816020015b61034f610deb565b8152602001906001900390816103475790505b50905060005b84811015610295573360066000610380846001611089565b81526020810191909152604001600020600401546001600160a01b0316036104655760006103af826001611089565b600081815260066020818152604092839020835161010080820186528254825260018301546001600160a01b039081169483019490945260028301549582019590955260038201548316606082015260048201549092166080830152600581015460a08301529182015460ff808216151560c0840152939004909216151560e083015285519293509185908790811061044a5761044a61109c565b6020908102919091010152610460600186611089565b945050505b8061046f816110b2565b915050610368565b61047f610d92565b600082116104d45760405162461bcd60e51b815260206004820152601c60248201527f5072696365206d757374206265206174206c656173742031207765690000000060448201526064015b60405180910390fd5b600554341461053c5760405162461bcd60e51b815260206004820152602e60248201527f5472616e73616374696f6e20666565206d75737420626520657175616c20746f60448201526d206c697374696e6720707269636560901b60648201526084016104cb565b604051630138280760e01b81526000906001600160a01b0386169063013828079061056d90339088906004016110cb565b6020604051808303816000875af115801561058c573d6000803e3d6000fd5b505050506040513d601f19601f820116820180604052508101906105b09190611129565b90506105c0600180546001019055565b60006105cb60015490565b9050604051806101000160405280828152602001876001600160a01b03168152602001838152602001336001600160a01b0316815260200160006001600160a01b03168152602001858152602001841515815260200160001515815250600660008381526020019081526020016000206000820151816000015560208201518160010160006101000a8154816001600160a01b0302191690836001600160a01b031602179055506040820151816002015560608201518160030160006101000a8154816001600160a01b0302191690836001600160a01b0316021790555060808201518160040160006101000a8154816001600160a01b0302191690836001600160a01b0316021790555060a0820151816005015560c08201518160060160006101000a81548160ff02191690831515021790555060e08201518160060160016101000a81548160ff021916908315150217905550905050856001600160a01b03166323b872dd3330856040518463ffffffff1660e01b8152600401610772939291906001600160a01b039384168152919092166020820152604081019190915260600190565b600060405180830381600087803b15801561078c57600080fd5b505af11580156107a0573d6000803e3d6000fd5b5050604080513381526000602082018190528183018990528715156060830152608082015290518593506001600160a01b038a16925084917fc99151f4453170a67bc7441775fde1a3bc3220c06645df1121e703aab5e7da5d919081900360a00190a4505061080f6001600055565b50505050565b61081d610d92565b60008581526006602052604090819020600581015460029091015460035492516370a0823160e01b81523360048201529192909183916001600160a01b0316906370a0823190602401602060405180830381865afa158015610883573d6000803e3d6000fd5b505050506040513d601f19601f820116820180604052508101906108a79190611129565b101561091d576040805162461bcd60e51b81526020600482015260248101919091527f506c65617365207375626d6974207468652061736b696e67207072696365206960448201527f6e206f7264657220746f20636f6d706c6574652074686520707572636861736560648201526084016104cb565b60035460405163d505accf60e01b8152336004820152306024820152604481018490526064810188905260ff8716608482015260a4810186905260c481018590526001600160a01b039091169063d505accf9060e401600060405180830381600087803b15801561098d57600080fd5b505af11580156109a1573d6000803e3d6000fd5b50506003805460008b81526006602052604090819020909201549151633950935160e01b81526001600160a01b0392831660048201526024810187905291169250633950935191506044016020604051808303816000875af1158015610a0b573d6000803e3d6000fd5b505050506040513d601f19601f82011682018060405250810190610a2f9190611142565b5060038054600089815260066020526040908190209092015491516323b872dd60e01b81523360048201526001600160a01b039283166024820152604481018590529116906323b872dd906064016020604051808303816000875af1158015610a9c573d6000803e3d6000fd5b505050506040513d601f19601f82011682018060405250810190610ac09190611142565b506040516323b872dd60e01b8152306004820152336024820152604481018290526001600160a01b038916906323b872dd90606401600060405180830381600087803b158015610b0f57600080fd5b505af1158015610b23573d6000803e3d6000fd5b50505060008881526006602081905260409091206004810180546001600160a01b0319163317905501805461ff00191661010017905550610b68600280546001019055565b6004546005546040516001600160a01b039092169181156108fc0291906000818181858888f19350505050158015610ba4573d6000803e3d6000fd5b505050610bb16001600055565b505050505050565b60606000610bc660015490565b905060008060005b83811015610c28573360066000610be6846001611089565b81526020810191909152604001600020600301546001600160a01b031603610c1657610c13600184611089565b92505b80610c20816110b2565b915050610bce565b5060008267ffffffffffffffff811115610c4457610c44610eec565b604051908082528060200260200182016040528015610c7d57816020015b610c6a610deb565b815260200190600190039081610c625790505b50905060005b84811015610295573360066000610c9b846001611089565b81526020810191909152604001600020600301546001600160a01b031603610d80576000610cca826001611089565b600081815260066020818152604092839020835161010080820186528254825260018301546001600160a01b039081169483019490945260028301549582019590955260038201548316606082015260048201549092166080830152600581015460a08301529182015460ff808216151560c0840152939004909216151560e0830152855192935091859087908110610d6557610d6561109c565b6020908102919091010152610d7b600186611089565b945050505b80610d8a816110b2565b915050610c83565b600260005403610de45760405162461bcd60e51b815260206004820152601f60248201527f5265656e7472616e637947756172643a207265656e7472616e742063616c6c0060448201526064016104cb565b6002600055565b6040805161010081018252600080825260208201819052918101829052606081018290526080810182905260a0810182905260c0810182905260e081019190915290565b602080825282518282018190526000919060409081850190868401855b82811015610ec357815180518552868101516001600160a01b039081168887015286820151878701526060808301518216908701526080808301519091169086015260a0808201519086015260c08082015115159086015260e0908101511515908501526101009093019290850190600101610e4c565b5091979650505050505050565b80356001600160a01b0381168114610ee757600080fd5b919050565b634e487b7160e01b600052604160045260246000fd5b8015158114610f1057600080fd5b50565b8035610ee781610f02565b60008060008060808587031215610f3457600080fd5b610f3d85610ed0565b9350602085013567ffffffffffffffff80821115610f5a57600080fd5b818701915087601f830112610f6e57600080fd5b813581811115610f8057610f80610eec565b604051601f8201601f19908116603f01168101908382118183101715610fa857610fa8610eec565b816040528281528a6020848701011115610fc157600080fd5b82602086016020830137600060208483010152809750505050505060408501359150610fef60608601610f13565b905092959194509250565b60008060008060008060c0878903121561101357600080fd5b61101c87610ed0565b95506020870135945060408701359350606087013560ff8116811461104057600080fd5b9598949750929560808101359460a0909101359350915050565b634e487b7160e01b600052601160045260246000fd5b818103818111156110835761108361105a565b92915050565b808201808211156110835761108361105a565b634e487b7160e01b600052603260045260246000fd5b6000600182016110c4576110c461105a565b5060010190565b60018060a01b038316815260006020604081840152835180604085015260005b81811015611107578581018301518582016060015282016110eb565b506000606082860101526060601f19601f830116850101925050509392505050565b60006020828403121561113b57600080fd5b5051919050565b60006020828403121561115457600080fd5b815161115f81610f02565b939250505056fea264697066735822122090e0867d273e381a4d8f0816ed26673b7106abf521cbc2bf6f3201c6ba16e9c464736f6c63430008110033",
  "linkReferences": {},
  "deployedLinkReferences": {}
}