{
  "_format": "hh-sol-artifact-1",
  "contractName": "NFTV2",
  "sourceName": "contracts/v2/NFTV2.sol",
  "abi": [
    {
      "inputs": [
        {
          "internalType": "address",
          "name": "marketplaceAddress",
          "type": "address"
        }
      ],
      "stateMutability": "nonpayable",
      "type": "constructor"
    },
    {
      "anonymous": false,
      "inputs": [
        {
          "indexed": true,
          "internalType": "address",
          "name": "owner",
          "type": "address"
        },
        {
          "indexed": true,
          "internalType": "address",
          "name": "approved",
          "type": "address"
        },
        {
          "indexed": true,
          "internalType": "uint256",
          "name": "tokenId",
          "type": "uint256"
        }
      ],
      "name": "Approval",
      "type": "event"
    },
    {
      "anonymous": false,
      "inputs": [
        {
          "indexed": true,
          "internalType": "address",
          "name": "owner",
          "type": "address"
        },
        {
          "indexed": true,
          "internalType": "address",
          "name": "operator",
          "type": "address"
        },
        {
          "indexed": false,
          "internalType": "bool",
          "name": "approved",
          "type": "bool"
        }
      ],
      "name": "ApprovalForAll",
      "type": "event"
    },
    {
      "anonymous": false,
      "inputs": [
        {
          "indexed": true,
          "internalType": "address",
          "name": "from",
          "type": "address"
        },
        {
          "indexed": true,
          "internalType": "address",
          "name": "to",
          "type": "address"
        },
        {
          "indexed": true,
          "internalType": "uint256",
          "name": "tokenId",
          "type": "uint256"
        }
      ],
      "name": "Transfer",
      "type": "event"
    },
    {
      "inputs": [
        {
          "internalType": "address",
          "name": "verifyingContract",
          "type": "address"
        }
      ],
      "name": "DOMAIN_SEPARATOR_TOKEN",
      "outputs": [
        {
          "internalType": "bytes32",
          "name": "",
          "type": "bytes32"
        }
      ],
      "stateMutability": "view",
      "type": "function"
    },
    {
      "inputs": [],
      "name": "PERMIT_TYPEHASH",
      "outputs": [
        {
          "internalType": "bytes32",
          "name": "",
          "type": "bytes32"
        }
      ],
      "stateMutability": "view",
      "type": "function"
    },
    {
      "inputs": [
        {
          "internalType": "uint256",
          "name": "tokenId",
          "type": "uint256"
        }
      ],
      "name": "_useNonce",
      "outputs": [
        {
          "internalType": "uint256",
          "name": "current",
          "type": "uint256"
        }
      ],
      "stateMutability": "nonpayable",
      "type": "function"
    },
    {
      "inputs": [
        {
          "internalType": "address",
          "name": "to",
          "type": "address"
        },
        {
          "internalType": "uint256",
          "name": "tokenId",
          "type": "uint256"
        }
      ],
      "name": "approve",
      "outputs": [],
      "stateMutability": "nonpayable",
      "type": "function"
    },
    {
      "inputs": [
        {
          "internalType": "address",
          "name": "owner",
          "type": "address"
        }
      ],
      "name": "balanceOf",
      "outputs": [
        {
          "internalType": "uint256",
          "name": "",
          "type": "uint256"
        }
      ],
      "stateMutability": "view",
      "type": "function"
    },
    {
      "inputs": [
        {
          "internalType": "string",
          "name": "tokenURI",
          "type": "string"
        },
        {
          "internalType": "address",
          "name": "nftOwner",
          "type": "address"
        }
      ],
      "name": "createToken",
      "outputs": [
        {
          "internalType": "uint256",
          "name": "",
          "type": "uint256"
        }
      ],
      "stateMutability": "nonpayable",
      "type": "function"
    },
    {
      "inputs": [
        {
          "internalType": "uint256",
          "name": "tokenId",
          "type": "uint256"
        }
      ],
      "name": "getApproved",
      "outputs": [
        {
          "internalType": "address",
          "name": "",
          "type": "address"
        }
      ],
      "stateMutability": "view",
      "type": "function"
    },
    {
      "inputs": [
        {
          "internalType": "address",
          "name": "owner",
          "type": "address"
        },
        {
          "internalType": "address",
          "name": "operator",
          "type": "address"
        }
      ],
      "name": "isApprovedForAll",
      "outputs": [
        {
          "internalType": "bool",
          "name": "",
          "type": "bool"
        }
      ],
      "stateMutability": "view",
      "type": "function"
    },
    {
      "inputs": [],
      "name": "name",
      "outputs": [
        {
          "internalType": "string",
          "name": "",
          "type": "string"
        }
      ],
      "stateMutability": "view",
      "type": "function"
    },
    {
      "inputs": [
        {
          "internalType": "uint256",
          "name": "tokenId",
          "type": "uint256"
        }
      ],
      "name": "nonces",
      "outputs": [
        {
          "internalType": "uint256",
          "name": "",
          "type": "uint256"
        }
      ],
      "stateMutability": "view",
      "type": "function"
    },
    {
      "inputs": [
        {
          "internalType": "uint256",
          "name": "tokenId",
          "type": "uint256"
        }
      ],
      "name": "ownerOf",
      "outputs": [
        {
          "internalType": "address",
          "name": "",
          "type": "address"
        }
      ],
      "stateMutability": "view",
      "type": "function"
    },
    {
      "inputs": [
        {
          "internalType": "address",
          "name": "spender",
          "type": "address"
        },
        {
          "internalType": "uint256",
          "name": "tokenId",
          "type": "uint256"
        },
        {
          "internalType": "uint256",
          "name": "deadline",
          "type": "uint256"
        },
        {
          "internalType": "uint8",
          "name": "v",
          "type": "uint8"
        },
        {
          "internalType": "bytes32",
          "name": "r",
          "type": "bytes32"
        },
        {
          "internalType": "bytes32",
          "name": "s",
          "type": "bytes32"
        }
      ],
      "name": "permit",
      "outputs": [],
      "stateMutability": "nonpayable",
      "type": "function"
    },
    {
      "inputs": [
        {
          "internalType": "address",
          "name": "from",
          "type": "address"
        },
        {
          "internalType": "address",
          "name": "to",
          "type": "address"
        },
        {
          "internalType": "uint256",
          "name": "tokenId",
          "type": "uint256"
        }
      ],
      "name": "safeTransferFrom",
      "outputs": [],
      "stateMutability": "nonpayable",
      "type": "function"
    },
    {
      "inputs": [
        {
          "internalType": "address",
          "name": "from",
          "type": "address"
        },
        {
          "internalType": "address",
          "name": "to",
          "type": "address"
        },
        {
          "internalType": "uint256",
          "name": "tokenId",
          "type": "uint256"
        },
        {
          "internalType": "bytes",
          "name": "data",
          "type": "bytes"
        }
      ],
      "name": "safeTransferFrom",
      "outputs": [],
      "stateMutability": "nonpayable",
      "type": "function"
    },
    {
      "inputs": [
        {
          "internalType": "address",
          "name": "operator",
          "type": "address"
        },
        {
          "internalType": "bool",
          "name": "approved",
          "type": "bool"
        }
      ],
      "name": "setApprovalForAll",
      "outputs": [],
      "stateMutability": "nonpayable",
      "type": "function"
    },
    {
      "inputs": [
        {
          "internalType": "bytes4",
          "name": "interfaceId",
          "type": "bytes4"
        }
      ],
      "name": "supportsInterface",
      "outputs": [
        {
          "internalType": "bool",
          "name": "",
          "type": "bool"
        }
      ],
      "stateMutability": "view",
      "type": "function"
    },
    {
      "inputs": [],
      "name": "symbol",
      "outputs": [
        {
          "internalType": "string",
          "name": "",
          "type": "string"
        }
      ],
      "stateMutability": "view",
      "type": "function"
    },
    {
      "inputs": [
        {
          "internalType": "uint256",
          "name": "tokenId",
          "type": "uint256"
        }
      ],
      "name": "tokenURI",
      "outputs": [
        {
          "internalType": "string",
          "name": "",
          "type": "string"
        }
      ],
      "stateMutability": "view",
      "type": "function"
    },
    {
      "inputs": [
        {
          "internalType": "address",
          "name": "from",
          "type": "address"
        },
        {
          "internalType": "address",
          "name": "to",
          "type": "address"
        },
        {
          "internalType": "uint256",
          "name": "tokenId",
          "type": "uint256"
        }
      ],
      "name": "transferFrom",
      "outputs": [],
      "stateMutability": "nonpayable",
      "type": "function"
    },
    {
      "inputs": [
        {
          "internalType": "address",
          "name": "nftOwner",
          "type": "address"
        },
        {
          "internalType": "address",
          "name": "to",
          "type": "address"
        },
        {
          "internalType": "uint256",
          "name": "_tokenId",
          "type": "uint256"
        }
      ],
      "name": "transfertoken",
      "outputs": [],
      "stateMutability": "nonpayable",
      "type": "function"
    }
  ],
  "bytecode": "0x600e60c0526d105052c813595d185b585c9ad95d60921b60e0527f26f0896d06c49219f09512d1cb55db09da9bf61db538340d9980c08966bdd9af608052610140604052600161010052603160f81b610120527fc89efdaa54c0f20c7adf612882df0950f5a951637e0307cdcb4c672f298b8bc660a0523480156200008357600080fd5b5060405162001eb238038062001eb2833981016040819052620000a69162000133565b6040518060400160405280600e81526020016d105052c813595d185b585c9ad95d60921b8152506040518060400160405280600381526020016241414d60e81b8152508160009081620000fa91906200020a565b5060016200010982826200020a565b5050600980546001600160a01b0319166001600160a01b03939093169290921790915550620002d6565b6000602082840312156200014657600080fd5b81516001600160a01b03811681146200015e57600080fd5b9392505050565b634e487b7160e01b600052604160045260246000fd5b600181811c908216806200019057607f821691505b602082108103620001b157634e487b7160e01b600052602260045260246000fd5b50919050565b601f8211156200020557600081815260208120601f850160051c81016020861015620001e05750805b601f850160051c820191505b818110156200020157828155600101620001ec565b5050505b505050565b81516001600160401b0381111562000226576200022662000165565b6200023e816200023784546200017b565b84620001b7565b602080601f8311600181146200027657600084156200025d5750858301515b600019600386901b1c1916600185901b17855562000201565b600085815260208120601f198616915b82811015620002a75788860151825594840194600190910190840162000286565b5085821015620002c65787850151600019600388901b60f8161c191681555b5050505050600190811b01905550565b60805160a051611bb6620002fc6000396000610a2f01526000610a070152611bb66000f3fe608060405234801561001057600080fd5b506004361061012c5760003560e01c806370a08231116100ad578063a22cb46511610071578063a22cb46514610296578063b88d4fde146102a9578063c87b56dd146102bc578063cbfbb10c146102cf578063e985e9c5146102e257600080fd5b806370a08231146102425780637ac2ff7b146102555780637ecf27e61461026857806395d89b411461027b578063a21193771461028357600080fd5b806316de28bc116100f457806316de28bc146101cf57806323b872dd146101e257806330adf81f146101f557806342842e0e1461021c5780636352211e1461022f57600080fd5b806301ffc9a71461013157806306fdde0314610159578063081812fc1461016e578063095ea7b314610199578063141a468c146101ae575b600080fd5b61014461013f3660046114ed565b61031e565b60405190151581526020015b60405180910390f35b610161610370565b604051610150919061155a565b61018161017c36600461156d565b610402565b6040516001600160a01b039091168152602001610150565b6101ac6101a73660046115a2565b610429565b005b6101c16101bc36600461156d565b610543565b604051908152602001610150565b6101ac6101dd3660046115cc565b610557565b6101ac6101f03660046115cc565b610562565b6101c17f49ecf333e5b8c95c40fdafc95c1ad136e8914a8fb55e9dc8bb01eaa83a2df9ad81565b6101ac61022a3660046115cc565b610588565b61018161023d36600461156d565b6105a3565b6101c1610250366004611608565b610603565b6101ac610263366004611623565b610689565b6101c1610276366004611608565b6109db565b610161610a8b565b6101c161029136600461170f565b610a9a565b6101ac6102a4366004611771565b610b2d565b6101ac6102b73660046117ad565b610b3c565b6101616102ca36600461156d565b610b74565b6101c16102dd36600461156d565b610c84565b6101446102f0366004611829565b6001600160a01b03918216600090815260056020908152604080832093909416825291909152205460ff1690565b60006001600160e01b031982166380ac58cd60e01b148061034f57506001600160e01b03198216635b5e139f60e01b145b8061036a57506301ffc9a760e01b6001600160e01b03198316145b92915050565b60606000805461037f90611853565b80601f01602080910402602001604051908101604052809291908181526020018280546103ab90611853565b80156103f85780601f106103cd576101008083540402835291602001916103f8565b820191906000526020600020905b8154815290600101906020018083116103db57829003601f168201915b5050505050905090565b600061040d82610ca2565b506000908152600460205260409020546001600160a01b031690565b6000610434826105a3565b9050806001600160a01b0316836001600160a01b0316036104a65760405162461bcd60e51b815260206004820152602160248201527f4552433732313a20617070726f76616c20746f2063757272656e74206f776e656044820152603960f91b60648201526084015b60405180910390fd5b336001600160a01b03821614806104c257506104c281336102f0565b6105345760405162461bcd60e51b815260206004820152603e60248201527f4552433732313a20617070726f76652063616c6c6572206973206e6f7420746f60448201527f6b656e206f776e6572206e6f7220617070726f76656420666f7220616c6c0000606482015260840161049d565b61053e8383610d04565b505050565b60008181526008602052604081205461036a565b61053e838383610d72565b61056c3382610f0e565b6105575760405162461bcd60e51b815260040161049d90611887565b61053e83838360405180602001604052806000815250610b3c565b6000818152600260205260408120546001600160a01b03168061036a5760405162461bcd60e51b8152602060048201526018602482015277115490cdcc8c4e881a5b9d985b1a59081d1bdad95b88125160421b604482015260640161049d565b60006001600160a01b03821661066d5760405162461bcd60e51b815260206004820152602960248201527f4552433732313a2061646472657373207a65726f206973206e6f7420612076616044820152683634b21037bbb732b960b91b606482015260840161049d565b506001600160a01b031660009081526003602052604090205490565b6000610694876109db565b7f49ecf333e5b8c95c40fdafc95c1ad136e8914a8fb55e9dc8bb01eaa83a2df9ad88886106c081610c84565b6040805160208101959095526001600160a01b03909316928401929092526060830152608082015260a0810187905260c0016040516020818303038152906040528051906020012060405160200161072f92919061190160f01b81526002810192909252602282015260420190565b6040516020818303038152906040528051906020012090506000610752876105a3565b9050806001600160a01b0316886001600160a01b0316036107c55760405162461bcd60e51b815260206004820152602760248201527f4552433732315065726d69743a20617070726f76616c20746f2063757272656e6044820152663a1037bbb732b960c91b606482015260840161049d565b6001600160a01b0381163b156108ca57604080516020810186905280820185905260f887901b6001600160f81b0319166060820152815160418183030181526061820192839052630b135d3f60e11b9092526001600160a01b03831691631626ba7e916108369186916065016118d5565b602060405180830381865afa158015610853573d6000803e3d6000fd5b505050506040513d601f19601f8201168201806040525081019061087791906118ee565b6001600160e01b031916631626ba7e60e01b146108c55760405162461bcd60e51b815260206004820152600c60248201526b155b985d5d1a1bdc9a5e995960a21b604482015260640161049d565b6109c7565b6040805160008082526020820180845285905260ff881692820192909252606081018690526080810185905260019060a0016020604051602081039080840390855afa15801561091e573d6000803e3d6000fd5b5050604051601f1901519150506001600160a01b0381166109755760405162461bcd60e51b8152602060048201526011602482015270496e76616c6964207369676e617475726560781b604482015260640161049d565b816001600160a01b0316816001600160a01b0316146109c55760405162461bcd60e51b815260206004820152600c60248201526b155b985d5d1a1bdc9a5e995960a21b604482015260640161049d565b505b6109d18888610d04565b5050505050505050565b604080517f8b73c3c69bb8fe3d512ecc4cf759cc79239f7b179b0ffacaa9a75d522b39400f60208201527f0000000000000000000000000000000000000000000000000000000000000000918101919091527f000000000000000000000000000000000000000000000000000000000000000060608201524660808201526001600160a01b03821660a082015260009060c001604051602081830303815290604052805190602001209050919050565b60606001805461037f90611853565b6009546000906001600160a01b03163314610af75760405162461bcd60e51b815260206004820152601960248201527f4e6f742063616c6c6564206279206d61726b6574706c61636500000000000000604482015260640161049d565b610b05600780546001019055565b6000610b1060075490565b9050610b1c8382610f8c565b610b2681856110ce565b9392505050565b610b38338383611161565b5050565b610b463383610f0e565b610b625760405162461bcd60e51b815260040161049d90611887565b610b6e8484848461122f565b50505050565b6060610b7f82610ca2565b60008281526006602052604081208054610b9890611853565b80601f0160208091040260200160405190810160405280929190818152602001828054610bc490611853565b8015610c115780601f10610be657610100808354040283529160200191610c11565b820191906000526020600020905b815481529060010190602001808311610bf457829003601f168201915b505050505090506000610c2f60408051602081019091526000815290565b90508051600003610c41575092915050565b815115610c73578082604051602001610c5b92919061190b565b60405160208183030381529060405292505050919050565b610c7c84611262565b949350505050565b60008181526008602052604090208054600181018255905b50919050565b6000818152600260205260409020546001600160a01b0316610d015760405162461bcd60e51b8152602060048201526018602482015277115490cdcc8c4e881a5b9d985b1a59081d1bdad95b88125160421b604482015260640161049d565b50565b600081815260046020526040902080546001600160a01b0319166001600160a01b0384169081179091558190610d39826105a3565b6001600160a01b03167f8c5be1e5ebec7d5bd14f71427d1e84f3dd0314c0f7b2291e5b200ac8c7c3b92560405160405180910390a45050565b826001600160a01b0316610d85826105a3565b6001600160a01b031614610de95760405162461bcd60e51b815260206004820152602560248201527f4552433732313a207472616e736665722066726f6d20696e636f72726563742060448201526437bbb732b960d91b606482015260840161049d565b6001600160a01b038216610e4b5760405162461bcd60e51b8152602060048201526024808201527f4552433732313a207472616e7366657220746f20746865207a65726f206164646044820152637265737360e01b606482015260840161049d565b610e56600082610d04565b6001600160a01b0383166000908152600360205260408120805460019290610e7f908490611950565b90915550506001600160a01b0382166000908152600360205260408120805460019290610ead908490611963565b909155505060008181526002602052604080822080546001600160a01b0319166001600160a01b0386811691821790925591518493918716917fddf252ad1be2c89b69c2b068fc378daa952ba7f163c4a11628f55a4df523b3ef91a4505050565b600080610f1a836105a3565b9050806001600160a01b0316846001600160a01b03161480610f6157506001600160a01b0380821660009081526005602090815260408083209388168352929052205460ff165b80610c7c5750836001600160a01b0316610f7a84610402565b6001600160a01b031614949350505050565b6001600160a01b038216610fe25760405162461bcd60e51b815260206004820181905260248201527f4552433732313a206d696e7420746f20746865207a65726f2061646472657373604482015260640161049d565b6000818152600260205260409020546001600160a01b0316156110475760405162461bcd60e51b815260206004820152601c60248201527f4552433732313a20746f6b656e20616c7265616479206d696e74656400000000604482015260640161049d565b6001600160a01b0382166000908152600360205260408120805460019290611070908490611963565b909155505060008181526002602052604080822080546001600160a01b0319166001600160a01b03861690811790915590518392907fddf252ad1be2c89b69c2b068fc378daa952ba7f163c4a11628f55a4df523b3ef908290a45050565b6000828152600260205260409020546001600160a01b03166111495760405162461bcd60e51b815260206004820152602e60248201527f45524337323155524953746f726167653a2055524920736574206f66206e6f6e60448201526d32bc34b9ba32b73a103a37b5b2b760911b606482015260840161049d565b600082815260066020526040902061053e82826119c4565b816001600160a01b0316836001600160a01b0316036111c25760405162461bcd60e51b815260206004820152601960248201527f4552433732313a20617070726f766520746f2063616c6c657200000000000000604482015260640161049d565b6001600160a01b03838116600081815260056020908152604080832094871680845294825291829020805460ff191686151590811790915591519182527f17307eab39ab6107e8899845ad3d59bd9653f200f220920489ca2b5937696c31910160405180910390a3505050565b61123a848484610d72565b611246848484846112d5565b610b6e5760405162461bcd60e51b815260040161049d90611a84565b606061126d82610ca2565b600061128460408051602081019091526000815290565b905060008151116112a45760405180602001604052806000815250610b26565b806112ae846113d6565b6040516020016112bf92919061190b565b6040516020818303038152906040529392505050565b60006001600160a01b0384163b156113cb57604051630a85bd0160e11b81526001600160a01b0385169063150b7a0290611319903390899088908890600401611ad6565b6020604051808303816000875af1925050508015611354575060408051601f3d908101601f19168201909252611351918101906118ee565b60015b6113b1573d808015611382576040519150601f19603f3d011682016040523d82523d6000602084013e611387565b606091505b5080516000036113a95760405162461bcd60e51b815260040161049d90611a84565b805181602001fd5b6001600160e01b031916630a85bd0160e11b149050610c7c565b506001949350505050565b6060816000036113fd5750506040805180820190915260018152600360fc1b602082015290565b8160005b8115611427578061141181611b13565b91506114209050600a83611b42565b9150611401565b60008167ffffffffffffffff81111561144257611442611683565b6040519080825280601f01601f19166020018201604052801561146c576020820181803683370190505b5090505b8415610c7c57611481600183611950565b915061148e600a86611b56565b611499906030611963565b60f81b8183815181106114ae576114ae611b6a565b60200101906001600160f81b031916908160001a9053506114d0600a86611b42565b9450611470565b6001600160e01b031981168114610d0157600080fd5b6000602082840312156114ff57600080fd5b8135610b26816114d7565b60005b8381101561152557818101518382015260200161150d565b50506000910152565b6000815180845261154681602086016020860161150a565b601f01601f19169290920160200192915050565b602081526000610b26602083018461152e565b60006020828403121561157f57600080fd5b5035919050565b80356001600160a01b038116811461159d57600080fd5b919050565b600080604083850312156115b557600080fd5b6115be83611586565b946020939093013593505050565b6000806000606084860312156115e157600080fd5b6115ea84611586565b92506115f860208501611586565b9150604084013590509250925092565b60006020828403121561161a57600080fd5b610b2682611586565b60008060008060008060c0878903121561163c57600080fd5b61164587611586565b95506020870135945060408701359350606087013560ff8116811461166957600080fd5b9598949750929560808101359460a0909101359350915050565b634e487b7160e01b600052604160045260246000fd5b600067ffffffffffffffff808411156116b4576116b4611683565b604051601f8501601f19908116603f011681019082821181831017156116dc576116dc611683565b816040528093508581528686860111156116f557600080fd5b858560208301376000602087830101525050509392505050565b6000806040838503121561172257600080fd5b823567ffffffffffffffff81111561173957600080fd5b8301601f8101851361174a57600080fd5b61175985823560208401611699565b92505061176860208401611586565b90509250929050565b6000806040838503121561178457600080fd5b61178d83611586565b9150602083013580151581146117a257600080fd5b809150509250929050565b600080600080608085870312156117c357600080fd5b6117cc85611586565b93506117da60208601611586565b925060408501359150606085013567ffffffffffffffff8111156117fd57600080fd5b8501601f8101871361180e57600080fd5b61181d87823560208401611699565b91505092959194509250565b6000806040838503121561183c57600080fd5b61184583611586565b915061176860208401611586565b600181811c9082168061186757607f821691505b602082108103610c9c57634e487b7160e01b600052602260045260246000fd5b6020808252602e908201527f4552433732313a2063616c6c6572206973206e6f7420746f6b656e206f776e6560408201526d1c881b9bdc88185c1c1c9bdd995960921b606082015260800190565b828152604060208201526000610c7c604083018461152e565b60006020828403121561190057600080fd5b8151610b26816114d7565b6000835161191d81846020880161150a565b83519083019061193181836020880161150a565b01949350505050565b634e487b7160e01b600052601160045260246000fd5b8181038181111561036a5761036a61193a565b8082018082111561036a5761036a61193a565b601f82111561053e57600081815260208120601f850160051c8101602086101561199d5750805b601f850160051c820191505b818110156119bc578281556001016119a9565b505050505050565b815167ffffffffffffffff8111156119de576119de611683565b6119f2816119ec8454611853565b84611976565b602080601f831160018114611a275760008415611a0f5750858301515b600019600386901b1c1916600185901b1785556119bc565b600085815260208120601f198616915b82811015611a5657888601518255948401946001909101908401611a37565b5085821015611a745787850151600019600388901b60f8161c191681555b5050505050600190811b01905550565b60208082526032908201527f4552433732313a207472616e7366657220746f206e6f6e20455243373231526560408201527131b2b4bb32b91034b6b83632b6b2b73a32b960711b606082015260800190565b6001600160a01b0385811682528416602082015260408101839052608060608201819052600090611b099083018461152e565b9695505050505050565b600060018201611b2557611b2561193a565b5060010190565b634e487b7160e01b600052601260045260246000fd5b600082611b5157611b51611b2c565b500490565b600082611b6557611b65611b2c565b500690565b634e487b7160e01b600052603260045260246000fdfea26469706673582212206e66dcbd0589689844e417d35a76e9e7cc9cfc135dcc62b6a70ac3ad70064d7f64736f6c63430008110033",
  "linkReferences": {},
  "deployedLinkReferences": {}
}