{
  "_format": "hh-sol-artifact-1",
  "contractName": "NFTV2",
  "sourceName": "contracts/v2/NFTV2.sol",
  "abi": [
    {
      "inputs": [
        {
          "internalType": "address",
          "name": "marketplaceAddress",
          "type": "address"
        }
      ],
      "stateMutability": "nonpayable",
      "type": "constructor"
    },
    {
      "anonymous": false,
      "inputs": [
        {
          "indexed": true,
          "internalType": "address",
          "name": "owner",
          "type": "address"
        },
        {
          "indexed": true,
          "internalType": "address",
          "name": "approved",
          "type": "address"
        },
        {
          "indexed": true,
          "internalType": "uint256",
          "name": "tokenId",
          "type": "uint256"
        }
      ],
      "name": "Approval",
      "type": "event"
    },
    {
      "anonymous": false,
      "inputs": [
        {
          "indexed": true,
          "internalType": "address",
          "name": "owner",
          "type": "address"
        },
        {
          "indexed": true,
          "internalType": "address",
          "name": "operator",
          "type": "address"
        },
        {
          "indexed": false,
          "internalType": "bool",
          "name": "approved",
          "type": "bool"
        }
      ],
      "name": "ApprovalForAll",
      "type": "event"
    },
    {
      "anonymous": false,
      "inputs": [
        {
          "indexed": true,
          "internalType": "address",
          "name": "from",
          "type": "address"
        },
        {
          "indexed": true,
          "internalType": "address",
          "name": "to",
          "type": "address"
        },
        {
          "indexed": true,
          "internalType": "uint256",
          "name": "tokenId",
          "type": "uint256"
        }
      ],
      "name": "Transfer",
      "type": "event"
    },
    {
      "inputs": [
        {
          "internalType": "address",
          "name": "verifyingContract",
          "type": "address"
        }
      ],
      "name": "DOMAIN_SEPARATOR_TOKEN",
      "outputs": [
        {
          "internalType": "bytes32",
          "name": "",
          "type": "bytes32"
        }
      ],
      "stateMutability": "view",
      "type": "function"
    },
    {
      "inputs": [],
      "name": "PERMIT_TYPEHASH",
      "outputs": [
        {
          "internalType": "bytes32",
          "name": "",
          "type": "bytes32"
        }
      ],
      "stateMutability": "view",
      "type": "function"
    },
    {
      "inputs": [
        {
          "internalType": "uint256",
          "name": "tokenId",
          "type": "uint256"
        }
      ],
      "name": "_useNonce",
      "outputs": [
        {
          "internalType": "uint256",
          "name": "current",
          "type": "uint256"
        }
      ],
      "stateMutability": "nonpayable",
      "type": "function"
    },
    {
      "inputs": [
        {
          "internalType": "address",
          "name": "to",
          "type": "address"
        },
        {
          "internalType": "uint256",
          "name": "tokenId",
          "type": "uint256"
        }
      ],
      "name": "approve",
      "outputs": [],
      "stateMutability": "nonpayable",
      "type": "function"
    },
    {
      "inputs": [
        {
          "internalType": "address",
          "name": "owner",
          "type": "address"
        }
      ],
      "name": "balanceOf",
      "outputs": [
        {
          "internalType": "uint256",
          "name": "",
          "type": "uint256"
        }
      ],
      "stateMutability": "view",
      "type": "function"
    },
    {
      "inputs": [
        {
          "internalType": "string",
          "name": "tokenURI",
          "type": "string"
        },
        {
          "internalType": "address",
          "name": "nftOwner",
          "type": "address"
        }
      ],
      "name": "createToken",
      "outputs": [
        {
          "internalType": "uint256",
          "name": "",
          "type": "uint256"
        }
      ],
      "stateMutability": "nonpayable",
      "type": "function"
    },
    {
      "inputs": [
        {
          "internalType": "uint256",
          "name": "tokenId",
          "type": "uint256"
        }
      ],
      "name": "getApproved",
      "outputs": [
        {
          "internalType": "address",
          "name": "",
          "type": "address"
        }
      ],
      "stateMutability": "view",
      "type": "function"
    },
    {
      "inputs": [
        {
          "internalType": "address",
          "name": "owner",
          "type": "address"
        },
        {
          "internalType": "address",
          "name": "operator",
          "type": "address"
        }
      ],
      "name": "isApprovedForAll",
      "outputs": [
        {
          "internalType": "bool",
          "name": "",
          "type": "bool"
        }
      ],
      "stateMutability": "view",
      "type": "function"
    },
    {
      "inputs": [],
      "name": "name",
      "outputs": [
        {
          "internalType": "string",
          "name": "",
          "type": "string"
        }
      ],
      "stateMutability": "view",
      "type": "function"
    },
    {
      "inputs": [
        {
          "internalType": "uint256",
          "name": "tokenId",
          "type": "uint256"
        }
      ],
      "name": "nonces",
      "outputs": [
        {
          "internalType": "uint256",
          "name": "",
          "type": "uint256"
        }
      ],
      "stateMutability": "view",
      "type": "function"
    },
    {
      "inputs": [
        {
          "internalType": "uint256",
          "name": "tokenId",
          "type": "uint256"
        }
      ],
      "name": "ownerOf",
      "outputs": [
        {
          "internalType": "address",
          "name": "",
          "type": "address"
        }
      ],
      "stateMutability": "view",
      "type": "function"
    },
    {
      "inputs": [
        {
          "internalType": "address",
          "name": "spender",
          "type": "address"
        },
        {
          "internalType": "uint256",
          "name": "tokenId",
          "type": "uint256"
        },
        {
          "internalType": "uint256",
          "name": "deadline",
          "type": "uint256"
        },
        {
          "internalType": "uint8",
          "name": "v",
          "type": "uint8"
        },
        {
          "internalType": "bytes32",
          "name": "r",
          "type": "bytes32"
        },
        {
          "internalType": "bytes32",
          "name": "s",
          "type": "bytes32"
        }
      ],
      "name": "permit",
      "outputs": [],
      "stateMutability": "nonpayable",
      "type": "function"
    },
    {
      "inputs": [
        {
          "internalType": "address",
          "name": "from",
          "type": "address"
        },
        {
          "internalType": "address",
          "name": "to",
          "type": "address"
        },
        {
          "internalType": "uint256",
          "name": "tokenId",
          "type": "uint256"
        }
      ],
      "name": "safeTransferFrom",
      "outputs": [],
      "stateMutability": "nonpayable",
      "type": "function"
    },
    {
      "inputs": [
        {
          "internalType": "address",
          "name": "from",
          "type": "address"
        },
        {
          "internalType": "address",
          "name": "to",
          "type": "address"
        },
        {
          "internalType": "uint256",
          "name": "tokenId",
          "type": "uint256"
        },
        {
          "internalType": "bytes",
          "name": "_data",
          "type": "bytes"
        }
      ],
      "name": "safeTransferFrom",
      "outputs": [],
      "stateMutability": "nonpayable",
      "type": "function"
    },
    {
      "inputs": [
        {
          "internalType": "address",
          "name": "operator",
          "type": "address"
        },
        {
          "internalType": "bool",
          "name": "approved",
          "type": "bool"
        }
      ],
      "name": "setApprovalForAll",
      "outputs": [],
      "stateMutability": "nonpayable",
      "type": "function"
    },
    {
      "inputs": [
        {
          "internalType": "bytes4",
          "name": "interfaceId",
          "type": "bytes4"
        }
      ],
      "name": "supportsInterface",
      "outputs": [
        {
          "internalType": "bool",
          "name": "",
          "type": "bool"
        }
      ],
      "stateMutability": "view",
      "type": "function"
    },
    {
      "inputs": [],
      "name": "symbol",
      "outputs": [
        {
          "internalType": "string",
          "name": "",
          "type": "string"
        }
      ],
      "stateMutability": "view",
      "type": "function"
    },
    {
      "inputs": [
        {
          "internalType": "uint256",
          "name": "tokenId",
          "type": "uint256"
        }
      ],
      "name": "tokenURI",
      "outputs": [
        {
          "internalType": "string",
          "name": "",
          "type": "string"
        }
      ],
      "stateMutability": "view",
      "type": "function"
    },
    {
      "inputs": [
        {
          "internalType": "address",
          "name": "from",
          "type": "address"
        },
        {
          "internalType": "address",
          "name": "to",
          "type": "address"
        },
        {
          "internalType": "uint256",
          "name": "tokenId",
          "type": "uint256"
        }
      ],
      "name": "transferFrom",
      "outputs": [],
      "stateMutability": "nonpayable",
      "type": "function"
    },
    {
      "inputs": [
        {
          "internalType": "address",
          "name": "nftOwner",
          "type": "address"
        },
        {
          "internalType": "address",
          "name": "to",
          "type": "address"
        },
        {
          "internalType": "uint256",
          "name": "_tokenId",
          "type": "uint256"
        }
      ],
      "name": "transfertoken",
      "outputs": [],
      "stateMutability": "nonpayable",
      "type": "function"
    }
  ],
  "bytecode": "0x600e60c0526d105052c813595d185b585c9ad95d60921b60e0527f26f0896d06c49219f09512d1cb55db09da9bf61db538340d9980c08966bdd9af608052610140604052600161010052603160f81b610120527fc89efdaa54c0f20c7adf612882df0950f5a951637e0307cdcb4c672f298b8bc660a0523480156200008357600080fd5b5060405162001ffb38038062001ffb833981016040819052620000a69162000133565b6040518060400160405280600e81526020016d105052c813595d185b585c9ad95d60921b8152506040518060400160405280600381526020016241414d60e81b8152508160009081620000fa91906200020a565b5060016200010982826200020a565b5050600980546001600160a01b0319166001600160a01b03939093169290921790915550620002d6565b6000602082840312156200014657600080fd5b81516001600160a01b03811681146200015e57600080fd5b9392505050565b634e487b7160e01b600052604160045260246000fd5b600181811c908216806200019057607f821691505b602082108103620001b157634e487b7160e01b600052602260045260246000fd5b50919050565b601f8211156200020557600081815260208120601f850160051c81016020861015620001e05750805b601f850160051c820191505b818110156200020157828155600101620001ec565b5050505b505050565b81516001600160401b0381111562000226576200022662000165565b6200023e816200023784546200017b565b84620001b7565b602080601f8311600181146200027657600084156200025d5750858301515b600019600386901b1c1916600185901b17855562000201565b600085815260208120601f198616915b82811015620002a75788860151825594840194600190910190840162000286565b5085821015620002c65787850151600019600388901b60f8161c191681555b5050505050600190811b01905550565b60805160a051611cff620002fc6000396000610a9f01526000610a770152611cff6000f3fe608060405234801561001057600080fd5b506004361061012c5760003560e01c806370a08231116100ad578063a22cb46511610071578063a22cb46514610296578063b88d4fde146102a9578063c87b56dd146102bc578063cbfbb10c146102cf578063e985e9c5146102e257600080fd5b806370a08231146102425780637ac2ff7b146102555780637ecf27e61461026857806395d89b411461027b578063a21193771461028357600080fd5b806316de28bc116100f457806316de28bc146101cf57806323b872dd146101e257806330adf81f146101f557806342842e0e1461021c5780636352211e1461022f57600080fd5b806301ffc9a71461013157806306fdde0314610159578063081812fc1461016e578063095ea7b314610199578063141a468c146101ae575b600080fd5b61014461013f366004611633565b61031e565b60405190151581526020015b60405180910390f35b610161610370565b60405161015091906116a0565b61018161017c3660046116b3565b610402565b6040516001600160a01b039091168152602001610150565b6101ac6101a73660046116e8565b61048f565b005b6101c16101bc3660046116b3565b6105a4565b604051908152602001610150565b6101ac6101dd366004611712565b6105b8565b6101ac6101f0366004611712565b6105c3565b6101c17f49ecf333e5b8c95c40fdafc95c1ad136e8914a8fb55e9dc8bb01eaa83a2df9ad81565b6101ac61022a366004611712565b6105e9565b61018161023d3660046116b3565b610604565b6101c161025036600461174e565b61067b565b6101ac610263366004611769565b610702565b6101c161027636600461174e565b610a4b565b610161610afb565b6101c1610291366004611855565b610b0a565b6101ac6102a43660046118b7565b610b9d565b6101ac6102b73660046118f3565b610bac565b6101616102ca3660046116b3565b610be4565b6101c16102dd3660046116b3565b610d5a565b6101446102f036600461196f565b6001600160a01b03918216600090815260056020908152604080832093909416825291909152205460ff1690565b60006001600160e01b031982166380ac58cd60e01b148061034f57506001600160e01b03198216635b5e139f60e01b145b8061036a57506301ffc9a760e01b6001600160e01b03198316145b92915050565b60606000805461037f90611999565b80601f01602080910402602001604051908101604052809291908181526020018280546103ab90611999565b80156103f85780601f106103cd576101008083540402835291602001916103f8565b820191906000526020600020905b8154815290600101906020018083116103db57829003601f168201915b5050505050905090565b600061040d82610d78565b6104735760405162461bcd60e51b815260206004820152602c60248201527f4552433732313a20617070726f76656420717565727920666f72206e6f6e657860448201526b34b9ba32b73a103a37b5b2b760a11b60648201526084015b60405180910390fd5b506000908152600460205260409020546001600160a01b031690565b600061049a82610604565b9050806001600160a01b0316836001600160a01b0316036105075760405162461bcd60e51b815260206004820152602160248201527f4552433732313a20617070726f76616c20746f2063757272656e74206f776e656044820152603960f91b606482015260840161046a565b336001600160a01b0382161480610523575061052381336102f0565b6105955760405162461bcd60e51b815260206004820152603860248201527f4552433732313a20617070726f76652063616c6c6572206973206e6f74206f7760448201527f6e6572206e6f7220617070726f76656420666f7220616c6c0000000000000000606482015260840161046a565b61059f8383610d95565b505050565b60008181526008602052604081205461036a565b61059f838383610e03565b6105cd3382610fa3565b6105b85760405162461bcd60e51b815260040161046a906119cd565b61059f83838360405180602001604052806000815250610bac565b6000818152600260205260408120546001600160a01b03168061036a5760405162461bcd60e51b815260206004820152602960248201527f4552433732313a206f776e657220717565727920666f72206e6f6e657869737460448201526832b73a103a37b5b2b760b91b606482015260840161046a565b60006001600160a01b0382166106e65760405162461bcd60e51b815260206004820152602a60248201527f4552433732313a2062616c616e636520717565727920666f7220746865207a65604482015269726f206164647265737360b01b606482015260840161046a565b506001600160a01b031660009081526003602052604090205490565b600061070d87610a4b565b7f49ecf333e5b8c95c40fdafc95c1ad136e8914a8fb55e9dc8bb01eaa83a2df9ad888861073981610d5a565b6040805160208101959095526001600160a01b03909316928401929092526060830152608082015260a0810187905260c001604051602081830303815290604052805190602001206040516020016107a892919061190160f01b81526002810192909252602282015260420190565b60405160208183030381529060405280519060200120905060006107cb87610604565b9050806001600160a01b0316886001600160a01b03160361083e5760405162461bcd60e51b815260206004820152602760248201527f4552433732315065726d69743a20617070726f76616c20746f2063757272656e6044820152663a1037bbb732b960c91b606482015260840161046a565b803b1561093a57604080516020810186905280820185905260f887901b6001600160f81b0319166060820152815160418183030181526061820192839052630b135d3f60e11b9092526001600160a01b03831691631626ba7e916108a6918691606501611a1e565b602060405180830381865afa1580156108c3573d6000803e3d6000fd5b505050506040513d601f19601f820116820180604052508101906108e79190611a37565b6001600160e01b031916631626ba7e60e01b146109355760405162461bcd60e51b815260206004820152600c60248201526b155b985d5d1a1bdc9a5e995960a21b604482015260640161046a565b610a37565b6040805160008082526020820180845285905260ff881692820192909252606081018690526080810185905260019060a0016020604051602081039080840390855afa15801561098e573d6000803e3d6000fd5b5050604051601f1901519150506001600160a01b0381166109e55760405162461bcd60e51b8152602060048201526011602482015270496e76616c6964207369676e617475726560781b604482015260640161046a565b816001600160a01b0316816001600160a01b031614610a355760405162461bcd60e51b815260206004820152600c60248201526b155b985d5d1a1bdc9a5e995960a21b604482015260640161046a565b505b610a418888610d95565b5050505050505050565b604080517f8b73c3c69bb8fe3d512ecc4cf759cc79239f7b179b0ffacaa9a75d522b39400f60208201527f0000000000000000000000000000000000000000000000000000000000000000918101919091527f000000000000000000000000000000000000000000000000000000000000000060608201524660808201526001600160a01b03821660a082015260009060c001604051602081830303815290604052805190602001209050919050565b60606001805461037f90611999565b6009546000906001600160a01b03163314610b675760405162461bcd60e51b815260206004820152601960248201527f4e6f742063616c6c6564206279206d61726b6574706c61636500000000000000604482015260640161046a565b610b75600780546001019055565b6000610b8060075490565b9050610b8c8382611089565b610b9681856111bc565b9392505050565b610ba8338383611240565b5050565b610bb63383610fa3565b610bd25760405162461bcd60e51b815260040161046a906119cd565b610bde8484848461130e565b50505050565b6060610bef82610d78565b610c555760405162461bcd60e51b815260206004820152603160248201527f45524337323155524953746f726167653a2055524920717565727920666f72206044820152703737b732bc34b9ba32b73a103a37b5b2b760791b606482015260840161046a565b60008281526006602052604081208054610c6e90611999565b80601f0160208091040260200160405190810160405280929190818152602001828054610c9a90611999565b8015610ce75780601f10610cbc57610100808354040283529160200191610ce7565b820191906000526020600020905b815481529060010190602001808311610cca57829003601f168201915b505050505090506000610d0560408051602081019091526000815290565b90508051600003610d17575092915050565b815115610d49578082604051602001610d31929190611a54565b60405160208183030381529060405292505050919050565b610d5284611341565b949350505050565b60008181526008602052604090208054600181018255905b50919050565b6000908152600260205260409020546001600160a01b0316151590565b600081815260046020526040902080546001600160a01b0319166001600160a01b0384169081179091558190610dca82610604565b6001600160a01b03167f8c5be1e5ebec7d5bd14f71427d1e84f3dd0314c0f7b2291e5b200ac8c7c3b92560405160405180910390a45050565b826001600160a01b0316610e1682610604565b6001600160a01b031614610e7e5760405162461bcd60e51b815260206004820152602960248201527f4552433732313a207472616e73666572206f6620746f6b656e2074686174206960448201526839903737ba1037bbb760b91b606482015260840161046a565b6001600160a01b038216610ee05760405162461bcd60e51b8152602060048201526024808201527f4552433732313a207472616e7366657220746f20746865207a65726f206164646044820152637265737360e01b606482015260840161046a565b610eeb600082610d95565b6001600160a01b0383166000908152600360205260408120805460019290610f14908490611a99565b90915550506001600160a01b0382166000908152600360205260408120805460019290610f42908490611aac565b909155505060008181526002602052604080822080546001600160a01b0319166001600160a01b0386811691821790925591518493918716917fddf252ad1be2c89b69c2b068fc378daa952ba7f163c4a11628f55a4df523b3ef91a4505050565b6000610fae82610d78565b61100f5760405162461bcd60e51b815260206004820152602c60248201527f4552433732313a206f70657261746f7220717565727920666f72206e6f6e657860448201526b34b9ba32b73a103a37b5b2b760a11b606482015260840161046a565b600061101a83610604565b9050806001600160a01b0316846001600160a01b031614806110555750836001600160a01b031661104a84610402565b6001600160a01b0316145b80610d5257506001600160a01b0380821660009081526005602090815260408083209388168352929052205460ff16610d52565b6001600160a01b0382166110df5760405162461bcd60e51b815260206004820181905260248201527f4552433732313a206d696e7420746f20746865207a65726f2061646472657373604482015260640161046a565b6110e881610d78565b156111355760405162461bcd60e51b815260206004820152601c60248201527f4552433732313a20746f6b656e20616c7265616479206d696e74656400000000604482015260640161046a565b6001600160a01b038216600090815260036020526040812080546001929061115e908490611aac565b909155505060008181526002602052604080822080546001600160a01b0319166001600160a01b03861690811790915590518392907fddf252ad1be2c89b69c2b068fc378daa952ba7f163c4a11628f55a4df523b3ef908290a45050565b6111c582610d78565b6112285760405162461bcd60e51b815260206004820152602e60248201527f45524337323155524953746f726167653a2055524920736574206f66206e6f6e60448201526d32bc34b9ba32b73a103a37b5b2b760911b606482015260840161046a565b600082815260066020526040902061059f8282611b0d565b816001600160a01b0316836001600160a01b0316036112a15760405162461bcd60e51b815260206004820152601960248201527f4552433732313a20617070726f766520746f2063616c6c657200000000000000604482015260640161046a565b6001600160a01b03838116600081815260056020908152604080832094871680845294825291829020805460ff191686151590811790915591519182527f17307eab39ab6107e8899845ad3d59bd9653f200f220920489ca2b5937696c31910160405180910390a3505050565b611319848484610e03565b61132584848484611418565b610bde5760405162461bcd60e51b815260040161046a90611bcd565b606061134c82610d78565b6113b05760405162461bcd60e51b815260206004820152602f60248201527f4552433732314d657461646174613a2055524920717565727920666f72206e6f60448201526e3732bc34b9ba32b73a103a37b5b2b760891b606482015260840161046a565b60006113c760408051602081019091526000815290565b905060008151116113e75760405180602001604052806000815250610b96565b806113f184611519565b604051602001611402929190611a54565b6040516020818303038152906040529392505050565b60006001600160a01b0384163b1561150e57604051630a85bd0160e11b81526001600160a01b0385169063150b7a029061145c903390899088908890600401611c1f565b6020604051808303816000875af1925050508015611497575060408051601f3d908101601f1916820190925261149491810190611a37565b60015b6114f4573d8080156114c5576040519150601f19603f3d011682016040523d82523d6000602084013e6114ca565b606091505b5080516000036114ec5760405162461bcd60e51b815260040161046a90611bcd565b805181602001fd5b6001600160e01b031916630a85bd0160e11b149050610d52565b506001949350505050565b6060816000036115405750506040805180820190915260018152600360fc1b602082015290565b8160005b811561156a578061155481611c5c565b91506115639050600a83611c8b565b9150611544565b60008167ffffffffffffffff811115611585576115856117c9565b6040519080825280601f01601f1916602001820160405280156115af576020820181803683370190505b5090505b8415610d52576115c4600183611a99565b91506115d1600a86611c9f565b6115dc906030611aac565b60f81b8183815181106115f1576115f1611cb3565b60200101906001600160f81b031916908160001a905350611613600a86611c8b565b94506115b3565b6001600160e01b03198116811461163057600080fd5b50565b60006020828403121561164557600080fd5b8135610b968161161a565b60005b8381101561166b578181015183820152602001611653565b50506000910152565b6000815180845261168c816020860160208601611650565b601f01601f19169290920160200192915050565b602081526000610b966020830184611674565b6000602082840312156116c557600080fd5b5035919050565b80356001600160a01b03811681146116e357600080fd5b919050565b600080604083850312156116fb57600080fd5b611704836116cc565b946020939093013593505050565b60008060006060848603121561172757600080fd5b611730846116cc565b925061173e602085016116cc565b9150604084013590509250925092565b60006020828403121561176057600080fd5b610b96826116cc565b60008060008060008060c0878903121561178257600080fd5b61178b876116cc565b95506020870135945060408701359350606087013560ff811681146117af57600080fd5b9598949750929560808101359460a0909101359350915050565b634e487b7160e01b600052604160045260246000fd5b600067ffffffffffffffff808411156117fa576117fa6117c9565b604051601f8501601f19908116603f01168101908282118183101715611822576118226117c9565b8160405280935085815286868601111561183b57600080fd5b858560208301376000602087830101525050509392505050565b6000806040838503121561186857600080fd5b823567ffffffffffffffff81111561187f57600080fd5b8301601f8101851361189057600080fd5b61189f858235602084016117df565b9250506118ae602084016116cc565b90509250929050565b600080604083850312156118ca57600080fd5b6118d3836116cc565b9150602083013580151581146118e857600080fd5b809150509250929050565b6000806000806080858703121561190957600080fd5b611912856116cc565b9350611920602086016116cc565b925060408501359150606085013567ffffffffffffffff81111561194357600080fd5b8501601f8101871361195457600080fd5b611963878235602084016117df565b91505092959194509250565b6000806040838503121561198257600080fd5b61198b836116cc565b91506118ae602084016116cc565b600181811c908216806119ad57607f821691505b602082108103610d7257634e487b7160e01b600052602260045260246000fd5b60208082526031908201527f4552433732313a207472616e736665722063616c6c6572206973206e6f74206f6040820152701ddb995c881b9bdc88185c1c1c9bdd9959607a1b606082015260800190565b828152604060208201526000610d526040830184611674565b600060208284031215611a4957600080fd5b8151610b968161161a565b60008351611a66818460208801611650565b835190830190611a7a818360208801611650565b01949350505050565b634e487b7160e01b600052601160045260246000fd5b8181038181111561036a5761036a611a83565b8082018082111561036a5761036a611a83565b601f82111561059f57600081815260208120601f850160051c81016020861015611ae65750805b601f850160051c820191505b81811015611b0557828155600101611af2565b505050505050565b815167ffffffffffffffff811115611b2757611b276117c9565b611b3b81611b358454611999565b84611abf565b602080601f831160018114611b705760008415611b585750858301515b600019600386901b1c1916600185901b178555611b05565b600085815260208120601f198616915b82811015611b9f57888601518255948401946001909101908401611b80565b5085821015611bbd5787850151600019600388901b60f8161c191681555b5050505050600190811b01905550565b60208082526032908201527f4552433732313a207472616e7366657220746f206e6f6e20455243373231526560408201527131b2b4bb32b91034b6b83632b6b2b73a32b960711b606082015260800190565b6001600160a01b0385811682528416602082015260408101839052608060608201819052600090611c5290830184611674565b9695505050505050565b600060018201611c6e57611c6e611a83565b5060010190565b634e487b7160e01b600052601260045260246000fd5b600082611c9a57611c9a611c75565b500490565b600082611cae57611cae611c75565b500690565b634e487b7160e01b600052603260045260246000fdfea26469706673582212200f4d87ede5fb3d47ab93798749f83ee043b6e7cc3be1f78f58d2d1425d37b32b64736f6c63430008110033",
  "linkReferences": {},
  "deployedLinkReferences": {}
}