{
  "_format": "hh-sol-artifact-1",
  "contractName": "NFTV2",
  "sourceName": "contracts/v2/NFTV2.sol",
  "abi": [
    {
      "inputs": [
        {
          "internalType": "address",
          "name": "marketplaceAddress",
          "type": "address"
        }
      ],
      "stateMutability": "nonpayable",
      "type": "constructor"
    },
    {
      "anonymous": false,
      "inputs": [
        {
          "indexed": true,
          "internalType": "address",
          "name": "owner",
          "type": "address"
        },
        {
          "indexed": true,
          "internalType": "address",
          "name": "approved",
          "type": "address"
        },
        {
          "indexed": true,
          "internalType": "uint256",
          "name": "tokenId",
          "type": "uint256"
        }
      ],
      "name": "Approval",
      "type": "event"
    },
    {
      "anonymous": false,
      "inputs": [
        {
          "indexed": true,
          "internalType": "address",
          "name": "owner",
          "type": "address"
        },
        {
          "indexed": true,
          "internalType": "address",
          "name": "operator",
          "type": "address"
        },
        {
          "indexed": false,
          "internalType": "bool",
          "name": "approved",
          "type": "bool"
        }
      ],
      "name": "ApprovalForAll",
      "type": "event"
    },
    {
      "anonymous": false,
      "inputs": [
        {
          "indexed": true,
          "internalType": "address",
          "name": "from",
          "type": "address"
        },
        {
          "indexed": true,
          "internalType": "address",
          "name": "to",
          "type": "address"
        },
        {
          "indexed": true,
          "internalType": "uint256",
          "name": "tokenId",
          "type": "uint256"
        }
      ],
      "name": "Transfer",
      "type": "event"
    },
    {
      "inputs": [
        {
          "internalType": "address",
          "name": "verifyingContract",
          "type": "address"
        }
      ],
      "name": "DOMAIN_SEPARATOR_TOKEN",
      "outputs": [
        {
          "internalType": "bytes32",
          "name": "",
          "type": "bytes32"
        }
      ],
      "stateMutability": "view",
      "type": "function"
    },
    {
      "inputs": [],
      "name": "PERMIT_TYPEHASH",
      "outputs": [
        {
          "internalType": "bytes32",
          "name": "",
          "type": "bytes32"
        }
      ],
      "stateMutability": "view",
      "type": "function"
    },
    {
      "inputs": [
        {
          "internalType": "uint256",
          "name": "tokenId",
          "type": "uint256"
        }
      ],
      "name": "_useNonce",
      "outputs": [
        {
          "internalType": "uint256",
          "name": "current",
          "type": "uint256"
        }
      ],
      "stateMutability": "nonpayable",
      "type": "function"
    },
    {
      "inputs": [
        {
          "internalType": "address",
          "name": "to",
          "type": "address"
        },
        {
          "internalType": "uint256",
          "name": "tokenId",
          "type": "uint256"
        }
      ],
      "name": "approve",
      "outputs": [],
      "stateMutability": "nonpayable",
      "type": "function"
    },
    {
      "inputs": [
        {
          "internalType": "address",
          "name": "owner",
          "type": "address"
        }
      ],
      "name": "balanceOf",
      "outputs": [
        {
          "internalType": "uint256",
          "name": "",
          "type": "uint256"
        }
      ],
      "stateMutability": "view",
      "type": "function"
    },
    {
      "inputs": [
        {
          "internalType": "string",
          "name": "tokenURI",
          "type": "string"
        },
        {
          "internalType": "address",
          "name": "nftOwner",
          "type": "address"
        }
      ],
      "name": "createToken",
      "outputs": [
        {
          "internalType": "uint256",
          "name": "",
          "type": "uint256"
        }
      ],
      "stateMutability": "nonpayable",
      "type": "function"
    },
    {
      "inputs": [
        {
          "internalType": "uint256",
          "name": "tokenId",
          "type": "uint256"
        }
      ],
      "name": "getApproved",
      "outputs": [
        {
          "internalType": "address",
          "name": "",
          "type": "address"
        }
      ],
      "stateMutability": "view",
      "type": "function"
    },
    {
      "inputs": [],
      "name": "getTokenId",
      "outputs": [
        {
          "internalType": "uint256",
          "name": "",
          "type": "uint256"
        }
      ],
      "stateMutability": "view",
      "type": "function"
    },
    {
      "inputs": [
        {
          "internalType": "address",
          "name": "owner",
          "type": "address"
        },
        {
          "internalType": "address",
          "name": "operator",
          "type": "address"
        }
      ],
      "name": "isApprovedForAll",
      "outputs": [
        {
          "internalType": "bool",
          "name": "",
          "type": "bool"
        }
      ],
      "stateMutability": "view",
      "type": "function"
    },
    {
      "inputs": [],
      "name": "name",
      "outputs": [
        {
          "internalType": "string",
          "name": "",
          "type": "string"
        }
      ],
      "stateMutability": "view",
      "type": "function"
    },
    {
      "inputs": [
        {
          "internalType": "uint256",
          "name": "tokenId",
          "type": "uint256"
        }
      ],
      "name": "nonces",
      "outputs": [
        {
          "internalType": "uint256",
          "name": "",
          "type": "uint256"
        }
      ],
      "stateMutability": "view",
      "type": "function"
    },
    {
      "inputs": [
        {
          "internalType": "uint256",
          "name": "tokenId",
          "type": "uint256"
        }
      ],
      "name": "ownerOf",
      "outputs": [
        {
          "internalType": "address",
          "name": "",
          "type": "address"
        }
      ],
      "stateMutability": "view",
      "type": "function"
    },
    {
      "inputs": [
        {
          "internalType": "address",
          "name": "spender",
          "type": "address"
        },
        {
          "internalType": "uint256",
          "name": "tokenId",
          "type": "uint256"
        },
        {
          "internalType": "uint256",
          "name": "deadline",
          "type": "uint256"
        },
        {
          "internalType": "uint8",
          "name": "v",
          "type": "uint8"
        },
        {
          "internalType": "bytes32",
          "name": "r",
          "type": "bytes32"
        },
        {
          "internalType": "bytes32",
          "name": "s",
          "type": "bytes32"
        }
      ],
      "name": "permit",
      "outputs": [],
      "stateMutability": "nonpayable",
      "type": "function"
    },
    {
      "inputs": [
        {
          "internalType": "address",
          "name": "from",
          "type": "address"
        },
        {
          "internalType": "address",
          "name": "to",
          "type": "address"
        },
        {
          "internalType": "uint256",
          "name": "tokenId",
          "type": "uint256"
        }
      ],
      "name": "safeTransferFrom",
      "outputs": [],
      "stateMutability": "nonpayable",
      "type": "function"
    },
    {
      "inputs": [
        {
          "internalType": "address",
          "name": "from",
          "type": "address"
        },
        {
          "internalType": "address",
          "name": "to",
          "type": "address"
        },
        {
          "internalType": "uint256",
          "name": "tokenId",
          "type": "uint256"
        },
        {
          "internalType": "bytes",
          "name": "data",
          "type": "bytes"
        }
      ],
      "name": "safeTransferFrom",
      "outputs": [],
      "stateMutability": "nonpayable",
      "type": "function"
    },
    {
      "inputs": [
        {
          "internalType": "address",
          "name": "operator",
          "type": "address"
        },
        {
          "internalType": "bool",
          "name": "approved",
          "type": "bool"
        }
      ],
      "name": "setApprovalForAll",
      "outputs": [],
      "stateMutability": "nonpayable",
      "type": "function"
    },
    {
      "inputs": [
        {
          "internalType": "bytes4",
          "name": "interfaceId",
          "type": "bytes4"
        }
      ],
      "name": "supportsInterface",
      "outputs": [
        {
          "internalType": "bool",
          "name": "",
          "type": "bool"
        }
      ],
      "stateMutability": "view",
      "type": "function"
    },
    {
      "inputs": [],
      "name": "symbol",
      "outputs": [
        {
          "internalType": "string",
          "name": "",
          "type": "string"
        }
      ],
      "stateMutability": "view",
      "type": "function"
    },
    {
      "inputs": [
        {
          "internalType": "uint256",
          "name": "tokenId",
          "type": "uint256"
        }
      ],
      "name": "tokenURI",
      "outputs": [
        {
          "internalType": "string",
          "name": "",
          "type": "string"
        }
      ],
      "stateMutability": "view",
      "type": "function"
    },
    {
      "inputs": [
        {
          "internalType": "address",
          "name": "from",
          "type": "address"
        },
        {
          "internalType": "address",
          "name": "to",
          "type": "address"
        },
        {
          "internalType": "uint256",
          "name": "tokenId",
          "type": "uint256"
        }
      ],
      "name": "transferFrom",
      "outputs": [],
      "stateMutability": "nonpayable",
      "type": "function"
    },
    {
      "inputs": [
        {
          "internalType": "address",
          "name": "nftOwner",
          "type": "address"
        },
        {
          "internalType": "address",
          "name": "to",
          "type": "address"
        },
        {
          "internalType": "uint256",
          "name": "_tokenId",
          "type": "uint256"
        }
      ],
      "name": "transfertoken",
      "outputs": [],
      "stateMutability": "nonpayable",
      "type": "function"
    }
  ],
  "bytecode": "0x600e60c0526d105052c813595d185b585c9ad95d60921b60e0527f26f0896d06c49219f09512d1cb55db09da9bf61db538340d9980c08966bdd9af608052610140604052600161010052603160f81b610120527fc89efdaa54c0f20c7adf612882df0950f5a951637e0307cdcb4c672f298b8bc660a0523480156200008357600080fd5b506040516200201638038062002016833981016040819052620000a69162000133565b6040518060400160405280600e81526020016d105052c813595d185b585c9ad95d60921b8152506040518060400160405280600381526020016241414d60e81b8152508160009081620000fa91906200020a565b5060016200010982826200020a565b5050600980546001600160a01b0319166001600160a01b03939093169290921790915550620002d6565b6000602082840312156200014657600080fd5b81516001600160a01b03811681146200015e57600080fd5b9392505050565b634e487b7160e01b600052604160045260246000fd5b600181811c908216806200019057607f821691505b602082108103620001b157634e487b7160e01b600052602260045260246000fd5b50919050565b601f8211156200020557600081815260208120601f850160051c81016020861015620001e05750805b601f850160051c820191505b818110156200020157828155600101620001ec565b5050505b505050565b81516001600160401b0381111562000226576200022662000165565b6200023e816200023784546200017b565b84620001b7565b602080601f8311600181146200027657600084156200025d5750858301515b600019600386901b1c1916600185901b17855562000201565b600085815260208120601f198616915b82811015620002a75788860151825594840194600190910190840162000286565b5085821015620002c65787850151600019600388901b60f8161c191681555b5050505050600190811b01905550565b60805160a051611d1a620002fc6000396000610aa201526000610a7a0152611d1a6000f3fe608060405234801561001057600080fd5b50600436106101375760003560e01c80636352211e116100b8578063a21193771161007c578063a211937714610296578063a22cb465146102a9578063b88d4fde146102bc578063c87b56dd146102cf578063cbfbb10c146102e2578063e985e9c5146102f557600080fd5b80636352211e1461024257806370a08231146102555780637ac2ff7b146102685780637ecf27e61461027b57806395d89b411461028e57600080fd5b8063141a468c116100ff578063141a468c146101cf57806316de28bc146101e257806323b872dd146101f557806330adf81f1461020857806342842e0e1461022f57600080fd5b8063010a38f51461013c57806301ffc9a71461015757806306fdde031461017a578063081812fc1461018f578063095ea7b3146101ba575b600080fd5b610144610331565b6040519081526020015b60405180910390f35b61016a61016536600461167a565b610396565b604051901515815260200161014e565b6101826103e8565b60405161014e91906116e7565b6101a261019d3660046116fa565b61047a565b6040516001600160a01b03909116815260200161014e565b6101cd6101c836600461172f565b6104a1565b005b6101446101dd3660046116fa565b6105b6565b6101cd6101f0366004611759565b6105ca565b6101cd610203366004611759565b6105d5565b6101447f49ecf333e5b8c95c40fdafc95c1ad136e8914a8fb55e9dc8bb01eaa83a2df9ad81565b6101cd61023d366004611759565b6105fb565b6101a26102503660046116fa565b610616565b610144610263366004611795565b610676565b6101cd6102763660046117b0565b6106fc565b610144610289366004611795565b610a4e565b610182610afe565b6101446102a436600461189c565b610b0d565b6101cd6102b73660046118fe565b610b9c565b6101cd6102ca36600461193a565b610bab565b6101826102dd3660046116fa565b610be3565b6101446102f03660046116fa565b610cf3565b61016a6103033660046119b6565b6001600160a01b03918216600090815260056020908152604080832093909416825291909152205460ff1690565b6009546000906001600160a01b0316331461038f5760405162461bcd60e51b81526020600482015260196024820152784e6f742063616c6c6564206279206d61726b6574706c61636560381b60448201526064015b60405180910390fd5b5060075490565b60006001600160e01b031982166380ac58cd60e01b14806103c757506001600160e01b03198216635b5e139f60e01b145b806103e257506301ffc9a760e01b6001600160e01b03198316145b92915050565b6060600080546103f7906119e0565b80601f0160208091040260200160405190810160405280929190818152602001828054610423906119e0565b80156104705780601f1061044557610100808354040283529160200191610470565b820191906000526020600020905b81548152906001019060200180831161045357829003601f168201915b5050505050905090565b600061048582610d11565b506000908152600460205260409020546001600160a01b031690565b60006104ac82610616565b9050806001600160a01b0316836001600160a01b0316036105195760405162461bcd60e51b815260206004820152602160248201527f4552433732313a20617070726f76616c20746f2063757272656e74206f776e656044820152603960f91b6064820152608401610386565b336001600160a01b038216148061053557506105358133610303565b6105a75760405162461bcd60e51b815260206004820152603d60248201527f4552433732313a20617070726f76652063616c6c6572206973206e6f7420746f60448201527f6b656e206f776e6572206f7220617070726f76656420666f7220616c6c0000006064820152608401610386565b6105b18383610d73565b505050565b6000818152600860205260408120546103e2565b6105b1838383610de1565b6105df3382610f52565b6105ca5760405162461bcd60e51b815260040161038690611a14565b6105b183838360405180602001604052806000815250610bab565b6000818152600260205260408120546001600160a01b0316806103e25760405162461bcd60e51b8152602060048201526018602482015277115490cdcc8c4e881a5b9d985b1a59081d1bdad95b88125160421b6044820152606401610386565b60006001600160a01b0382166106e05760405162461bcd60e51b815260206004820152602960248201527f4552433732313a2061646472657373207a65726f206973206e6f7420612076616044820152683634b21037bbb732b960b91b6064820152608401610386565b506001600160a01b031660009081526003602052604090205490565b600061070787610a4e565b7f49ecf333e5b8c95c40fdafc95c1ad136e8914a8fb55e9dc8bb01eaa83a2df9ad888861073381610cf3565b6040805160208101959095526001600160a01b03909316928401929092526060830152608082015260a0810187905260c001604051602081830303815290604052805190602001206040516020016107a292919061190160f01b81526002810192909252602282015260420190565b60405160208183030381529060405280519060200120905060006107c587610616565b9050806001600160a01b0316886001600160a01b0316036108385760405162461bcd60e51b815260206004820152602760248201527f4552433732315065726d69743a20617070726f76616c20746f2063757272656e6044820152663a1037bbb732b960c91b6064820152608401610386565b6001600160a01b0381163b1561093d57604080516020810186905280820185905260f887901b6001600160f81b0319166060820152815160418183030181526061820192839052630b135d3f60e11b9092526001600160a01b03831691631626ba7e916108a9918691606501611a61565b602060405180830381865afa1580156108c6573d6000803e3d6000fd5b505050506040513d601f19601f820116820180604052508101906108ea9190611a7a565b6001600160e01b031916631626ba7e60e01b146109385760405162461bcd60e51b815260206004820152600c60248201526b155b985d5d1a1bdc9a5e995960a21b6044820152606401610386565b610a3a565b6040805160008082526020820180845285905260ff881692820192909252606081018690526080810185905260019060a0016020604051602081039080840390855afa158015610991573d6000803e3d6000fd5b5050604051601f1901519150506001600160a01b0381166109e85760405162461bcd60e51b8152602060048201526011602482015270496e76616c6964207369676e617475726560781b6044820152606401610386565b816001600160a01b0316816001600160a01b031614610a385760405162461bcd60e51b815260206004820152600c60248201526b155b985d5d1a1bdc9a5e995960a21b6044820152606401610386565b505b610a448888610d73565b5050505050505050565b604080517f8b73c3c69bb8fe3d512ecc4cf759cc79239f7b179b0ffacaa9a75d522b39400f60208201527f0000000000000000000000000000000000000000000000000000000000000000918101919091527f000000000000000000000000000000000000000000000000000000000000000060608201524660808201526001600160a01b03821660a082015260009060c001604051602081830303815290604052805190602001209050919050565b6060600180546103f7906119e0565b6009546000906001600160a01b03163314610b665760405162461bcd60e51b81526020600482015260196024820152784e6f742063616c6c6564206279206d61726b6574706c61636560381b6044820152606401610386565b610b74600780546001019055565b6000610b7f60075490565b9050610b8b8382610fd0565b610b958185611169565b9392505050565b610ba73383836111fc565b5050565b610bb53383610f52565b610bd15760405162461bcd60e51b815260040161038690611a14565b610bdd848484846112ca565b50505050565b6060610bee82610d11565b60008281526006602052604081208054610c07906119e0565b80601f0160208091040260200160405190810160405280929190818152602001828054610c33906119e0565b8015610c805780601f10610c5557610100808354040283529160200191610c80565b820191906000526020600020905b815481529060010190602001808311610c6357829003601f168201915b505050505090506000610c9e60408051602081019091526000815290565b90508051600003610cb0575092915050565b815115610ce2578082604051602001610cca929190611a97565b60405160208183030381529060405292505050919050565b610ceb846112fd565b949350505050565b60008181526008602052604090208054600181018255905b50919050565b6000818152600260205260409020546001600160a01b0316610d705760405162461bcd60e51b8152602060048201526018602482015277115490cdcc8c4e881a5b9d985b1a59081d1bdad95b88125160421b6044820152606401610386565b50565b600081815260046020526040902080546001600160a01b0319166001600160a01b0384169081179091558190610da882610616565b6001600160a01b03167f8c5be1e5ebec7d5bd14f71427d1e84f3dd0314c0f7b2291e5b200ac8c7c3b92560405160405180910390a45050565b826001600160a01b0316610df482610616565b6001600160a01b031614610e1a5760405162461bcd60e51b815260040161038690611ac6565b6001600160a01b038216610e7c5760405162461bcd60e51b8152602060048201526024808201527f4552433732313a207472616e7366657220746f20746865207a65726f206164646044820152637265737360e01b6064820152608401610386565b610e898383836001611370565b826001600160a01b0316610e9c82610616565b6001600160a01b031614610ec25760405162461bcd60e51b815260040161038690611ac6565b600081815260046020908152604080832080546001600160a01b03199081169091556001600160a01b0387811680865260038552838620805460001901905590871680865283862080546001019055868652600290945282852080549092168417909155905184937fddf252ad1be2c89b69c2b068fc378daa952ba7f163c4a11628f55a4df523b3ef91a4505050565b600080610f5e83610616565b9050806001600160a01b0316846001600160a01b03161480610fa557506001600160a01b0380821660009081526005602090815260408083209388168352929052205460ff165b80610ceb5750836001600160a01b0316610fbe8461047a565b6001600160a01b031614949350505050565b6001600160a01b0382166110265760405162461bcd60e51b815260206004820181905260248201527f4552433732313a206d696e7420746f20746865207a65726f20616464726573736044820152606401610386565b6000818152600260205260409020546001600160a01b03161561108b5760405162461bcd60e51b815260206004820152601c60248201527f4552433732313a20746f6b656e20616c7265616479206d696e746564000000006044820152606401610386565b611099600083836001611370565b6000818152600260205260409020546001600160a01b0316156110fe5760405162461bcd60e51b815260206004820152601c60248201527f4552433732313a20746f6b656e20616c7265616479206d696e746564000000006044820152606401610386565b6001600160a01b038216600081815260036020908152604080832080546001019055848352600290915280822080546001600160a01b0319168417905551839291907fddf252ad1be2c89b69c2b068fc378daa952ba7f163c4a11628f55a4df523b3ef908290a45050565b6000828152600260205260409020546001600160a01b03166111e45760405162461bcd60e51b815260206004820152602e60248201527f45524337323155524953746f726167653a2055524920736574206f66206e6f6e60448201526d32bc34b9ba32b73a103a37b5b2b760911b6064820152608401610386565b60008281526006602052604090206105b18282611b59565b816001600160a01b0316836001600160a01b03160361125d5760405162461bcd60e51b815260206004820152601960248201527f4552433732313a20617070726f766520746f2063616c6c6572000000000000006044820152606401610386565b6001600160a01b03838116600081815260056020908152604080832094871680845294825291829020805460ff191686151590811790915591519182527f17307eab39ab6107e8899845ad3d59bd9653f200f220920489ca2b5937696c31910160405180910390a3505050565b6112d5848484610de1565b6112e1848484846113f8565b610bdd5760405162461bcd60e51b815260040161038690611c19565b606061130882610d11565b600061131f60408051602081019091526000815290565b9050600081511161133f5760405180602001604052806000815250610b95565b80611349846114f9565b60405160200161135a929190611a97565b6040516020818303038152906040529392505050565b6001811115610bdd576001600160a01b038416156113b6576001600160a01b038416600090815260036020526040812080548392906113b0908490611c81565b90915550505b6001600160a01b03831615610bdd576001600160a01b038316600090815260036020526040812080548392906113ed908490611c94565b909155505050505050565b60006001600160a01b0384163b156114ee57604051630a85bd0160e11b81526001600160a01b0385169063150b7a029061143c903390899088908890600401611ca7565b6020604051808303816000875af1925050508015611477575060408051601f3d908101601f1916820190925261147491810190611a7a565b60015b6114d4573d8080156114a5576040519150601f19603f3d011682016040523d82523d6000602084013e6114aa565b606091505b5080516000036114cc5760405162461bcd60e51b815260040161038690611c19565b805181602001fd5b6001600160e01b031916630a85bd0160e11b149050610ceb565b506001949350505050565b606060006115068361158c565b600101905060008167ffffffffffffffff81111561152657611526611810565b6040519080825280601f01601f191660200182016040528015611550576020820181803683370190505b5090508181016020015b600019016f181899199a1a9b1b9c1cb0b131b232b360811b600a86061a8153600a850494508461155a57509392505050565b60008072184f03e93ff9f4daa797ed6e38ed64bf6a1f0160401b83106115cb5772184f03e93ff9f4daa797ed6e38ed64bf6a1f0160401b830492506040015b6d04ee2d6d415b85acef810000000083106115f7576d04ee2d6d415b85acef8100000000830492506020015b662386f26fc10000831061161557662386f26fc10000830492506010015b6305f5e100831061162d576305f5e100830492506008015b612710831061164157612710830492506004015b60648310611653576064830492506002015b600a83106103e25760010192915050565b6001600160e01b031981168114610d7057600080fd5b60006020828403121561168c57600080fd5b8135610b9581611664565b60005b838110156116b257818101518382015260200161169a565b50506000910152565b600081518084526116d3816020860160208601611697565b601f01601f19169290920160200192915050565b602081526000610b9560208301846116bb565b60006020828403121561170c57600080fd5b5035919050565b80356001600160a01b038116811461172a57600080fd5b919050565b6000806040838503121561174257600080fd5b61174b83611713565b946020939093013593505050565b60008060006060848603121561176e57600080fd5b61177784611713565b925061178560208501611713565b9150604084013590509250925092565b6000602082840312156117a757600080fd5b610b9582611713565b60008060008060008060c087890312156117c957600080fd5b6117d287611713565b95506020870135945060408701359350606087013560ff811681146117f657600080fd5b9598949750929560808101359460a0909101359350915050565b634e487b7160e01b600052604160045260246000fd5b600067ffffffffffffffff8084111561184157611841611810565b604051601f8501601f19908116603f0116810190828211818310171561186957611869611810565b8160405280935085815286868601111561188257600080fd5b858560208301376000602087830101525050509392505050565b600080604083850312156118af57600080fd5b823567ffffffffffffffff8111156118c657600080fd5b8301601f810185136118d757600080fd5b6118e685823560208401611826565b9250506118f560208401611713565b90509250929050565b6000806040838503121561191157600080fd5b61191a83611713565b91506020830135801515811461192f57600080fd5b809150509250929050565b6000806000806080858703121561195057600080fd5b61195985611713565b935061196760208601611713565b925060408501359150606085013567ffffffffffffffff81111561198a57600080fd5b8501601f8101871361199b57600080fd5b6119aa87823560208401611826565b91505092959194509250565b600080604083850312156119c957600080fd5b6119d283611713565b91506118f560208401611713565b600181811c908216806119f457607f821691505b602082108103610d0b57634e487b7160e01b600052602260045260246000fd5b6020808252602d908201527f4552433732313a2063616c6c6572206973206e6f7420746f6b656e206f776e6560408201526c1c881bdc88185c1c1c9bdd9959609a1b606082015260800190565b828152604060208201526000610ceb60408301846116bb565b600060208284031215611a8c57600080fd5b8151610b9581611664565b60008351611aa9818460208801611697565b835190830190611abd818360208801611697565b01949350505050565b60208082526025908201527f4552433732313a207472616e736665722066726f6d20696e636f72726563742060408201526437bbb732b960d91b606082015260800190565b601f8211156105b157600081815260208120601f850160051c81016020861015611b325750805b601f850160051c820191505b81811015611b5157828155600101611b3e565b505050505050565b815167ffffffffffffffff811115611b7357611b73611810565b611b8781611b8184546119e0565b84611b0b565b602080601f831160018114611bbc5760008415611ba45750858301515b600019600386901b1c1916600185901b178555611b51565b600085815260208120601f198616915b82811015611beb57888601518255948401946001909101908401611bcc565b5085821015611c095787850151600019600388901b60f8161c191681555b5050505050600190811b01905550565b60208082526032908201527f4552433732313a207472616e7366657220746f206e6f6e20455243373231526560408201527131b2b4bb32b91034b6b83632b6b2b73a32b960711b606082015260800190565b634e487b7160e01b600052601160045260246000fd5b818103818111156103e2576103e2611c6b565b808201808211156103e2576103e2611c6b565b6001600160a01b0385811682528416602082015260408101839052608060608201819052600090611cda908301846116bb565b969550505050505056fea26469706673582212209c1320a012fb28d397316ee7cf99e2526249e13dbd6edf04c012c36215e6180964736f6c63430008110033",
  "linkReferences": {},
  "deployedLinkReferences": {}
}