{
  "_format": "hh-sol-artifact-1",
  "contractName": "AeroSwapUsd",
  "sourceName": "contracts/Aero-swap-usd.sol",
  "abi": [
    {
      "inputs": [
        {
          "internalType": "contract Aero",
          "name": "_token",
          "type": "address"
        }
      ],
      "stateMutability": "nonpayable",
      "type": "constructor"
    },
    {
      "anonymous": false,
      "inputs": [
        {
          "indexed": true,
          "internalType": "address",
          "name": "_buyer",
          "type": "address"
        },
        {
          "indexed": false,
          "internalType": "uint256",
          "name": "_amount",
          "type": "uint256"
        }
      ],
      "name": "Sell",
      "type": "event"
    },
    {
      "inputs": [],
      "name": "admin",
      "outputs": [
        {
          "internalType": "address",
          "name": "",
          "type": "address"
        }
      ],
      "stateMutability": "view",
      "type": "function"
    },
    {
      "inputs": [
        {
          "internalType": "uint256",
          "name": "_numberOfTokens",
          "type": "uint256"
        }
      ],
      "name": "buyTokens",
      "outputs": [],
      "stateMutability": "payable",
      "type": "function"
    },
    {
      "inputs": [
        {
          "internalType": "uint256",
          "name": "_numberOfTokens",
          "type": "uint256"
        }
      ],
      "name": "sellTokens",
      "outputs": [],
      "stateMutability": "payable",
      "type": "function"
    },
    {
      "inputs": [],
      "name": "token",
      "outputs": [
        {
          "internalType": "contract Aero",
          "name": "",
          "type": "address"
        }
      ],
      "stateMutability": "view",
      "type": "function"
    },
    {
      "inputs": [],
      "name": "tokensSold",
      "outputs": [
        {
          "internalType": "uint256",
          "name": "",
          "type": "uint256"
        }
      ],
      "stateMutability": "view",
      "type": "function"
    }
  ],
  "bytecode": "0x608060405234801561001057600080fd5b506040516105be3803806105be83398101604081905261002f91610062565b60008054336001600160a01b031991821617909155600180549091166001600160a01b0392909216919091179055610092565b60006020828403121561007457600080fd5b81516001600160a01b038116811461008b57600080fd5b9392505050565b61051d806100a16000396000f3fe60806040526004361061004a5760003560e01c80633610724e1461004f578063518ab2a8146100645780636c11bcd31461008d578063f851a440146100a0578063fc0c546a146100d8575b600080fd5b61006261005d36600461044a565b6100f8565b005b34801561007057600080fd5b5061007a60025481565b6040519081526020015b60405180910390f35b61006261009b36600461044a565b6102bf565b3480156100ac57600080fd5b506000546100c0906001600160a01b031681565b6040516001600160a01b039091168152602001610084565b3480156100e457600080fd5b506001546100c0906001600160a01b031681565b6001546040516370a0823160e01b815230600482015282916001600160a01b0316906370a0823190602401602060405180830381865afa158015610140573d6000803e3d6000fd5b505050506040513d601f19601f820116820180604052508101906101649190610463565b10156101b75760405162461bcd60e51b815260206004820152601f60248201527f496e73756666696369656e7420746f6b656e7320696e20636f6e74726163740060448201526064015b60405180910390fd5b60015460405163a9059cbb60e01b8152336004820152602481018390526001600160a01b039091169063a9059cbb906044016020604051808303816000875af1158015610208573d6000803e3d6000fd5b505050506040513d601f19601f8201168201806040525081019061022c919061047c565b6102705760405162461bcd60e51b8152602060048201526015602482015274151bdad95b881d1c985b9cd9995c8819985a5b1959605a1b60448201526064016101ae565b806002600082825461028291906104bb565b909155505060405181815233907f5e5e995ce3133561afceaa51a9a154d5db228cd7525d34df5185582c18d3df099060200160405180910390a250565b6001546040516370a0823160e01b815233600482015282916001600160a01b0316906370a0823190602401602060405180830381865afa158015610307573d6000803e3d6000fd5b505050506040513d601f19601f8201168201806040525081019061032b9190610463565b10156103795760405162461bcd60e51b815260206004820152601b60248201527f496e73756666696369656e7420746f6b656e732062616c616e6365000000000060448201526064016101ae565b6001546040516323b872dd60e01b8152336004820152306024820152604481018390526001600160a01b03909116906323b872dd906064016020604051808303816000875af11580156103d0573d6000803e3d6000fd5b505050506040513d601f19601f820116820180604052508101906103f4919061047c565b6104385760405162461bcd60e51b8152602060048201526015602482015274151bdad95b881d1c985b9cd9995c8819985a5b1959605a1b60448201526064016101ae565b806002600082825461028291906104d4565b60006020828403121561045c57600080fd5b5035919050565b60006020828403121561047557600080fd5b5051919050565b60006020828403121561048e57600080fd5b8151801515811461049e57600080fd5b9392505050565b634e487b7160e01b600052601160045260246000fd5b808201808211156104ce576104ce6104a5565b92915050565b818103818111156104ce576104ce6104a556fea264697066735822122073e49cc49d78f6faa6ed7f2fbc950509c2d2fe5d69cc11a16ac8f932d4a689f964736f6c63430008110033",
  "linkReferences": {},
  "deployedLinkReferences": {}
}