{
  "_format": "hh-sol-artifact-1",
  "contractName": "NFTMarketV2",
  "sourceName": "contracts/v2/NFTMarketV2.sol",
  "abi": [
    {
      "inputs": [],
      "stateMutability": "nonpayable",
      "type": "constructor"
    },
    {
      "anonymous": false,
      "inputs": [
        {
          "indexed": false,
          "internalType": "bytes32",
          "name": "hash",
          "type": "bytes32"
        },
        {
          "indexed": false,
          "internalType": "uint256",
          "name": "tokenId",
          "type": "uint256"
        }
      ],
      "name": "AssetForSellCreated",
      "type": "event"
    },
    {
      "anonymous": false,
      "inputs": [
        {
          "indexed": false,
          "internalType": "bytes32",
          "name": "assetHash",
          "type": "bytes32"
        }
      ],
      "name": "CreateAsset",
      "type": "event"
    },
    {
      "anonymous": false,
      "inputs": [
        {
          "indexed": false,
          "internalType": "bytes32",
          "name": "assetPendingHash",
          "type": "bytes32"
        }
      ],
      "name": "CreateAssetPending",
      "type": "event"
    },
    {
      "anonymous": false,
      "inputs": [
        {
          "indexed": false,
          "internalType": "address",
          "name": "nft",
          "type": "address"
        },
        {
          "indexed": false,
          "internalType": "address",
          "name": "aero",
          "type": "address"
        }
      ],
      "name": "Instance",
      "type": "event"
    },
    {
      "anonymous": false,
      "inputs": [
        {
          "indexed": false,
          "internalType": "uint256",
          "name": "tokenId",
          "type": "uint256"
        }
      ],
      "name": "MintNFT",
      "type": "event"
    },
    {
      "anonymous": false,
      "inputs": [
        {
          "indexed": true,
          "internalType": "address",
          "name": "previousOwner",
          "type": "address"
        },
        {
          "indexed": true,
          "internalType": "address",
          "name": "newOwner",
          "type": "address"
        }
      ],
      "name": "OwnershipTransferred",
      "type": "event"
    },
    {
      "inputs": [],
      "name": "ERC20_DOMAIN_SEPARATOR",
      "outputs": [
        {
          "internalType": "bytes32",
          "name": "",
          "type": "bytes32"
        }
      ],
      "stateMutability": "view",
      "type": "function"
    },
    {
      "inputs": [],
      "name": "_PERMIT_TYPEHASH",
      "outputs": [
        {
          "internalType": "bytes32",
          "name": "",
          "type": "bytes32"
        }
      ],
      "stateMutability": "view",
      "type": "function"
    },
    {
      "inputs": [
        {
          "internalType": "bytes32",
          "name": "hash",
          "type": "bytes32"
        },
        {
          "internalType": "string",
          "name": "tokenUri",
          "type": "string"
        },
        {
          "internalType": "address",
          "name": "signer",
          "type": "address"
        },
        {
          "internalType": "address",
          "name": "spender",
          "type": "address"
        },
        {
          "internalType": "address",
          "name": "projectOwner",
          "type": "address"
        },
        {
          "internalType": "uint256",
          "name": "value",
          "type": "uint256"
        },
        {
          "internalType": "uint256",
          "name": "deadline",
          "type": "uint256"
        },
        {
          "internalType": "uint8",
          "name": "v",
          "type": "uint8"
        },
        {
          "internalType": "bytes32",
          "name": "r",
          "type": "bytes32"
        },
        {
          "internalType": "bytes32",
          "name": "s",
          "type": "bytes32"
        }
      ],
      "name": "approvePendingAsset",
      "outputs": [],
      "stateMutability": "nonpayable",
      "type": "function"
    },
    {
      "inputs": [
        {
          "internalType": "bytes32",
          "name": "hash",
          "type": "bytes32"
        }
      ],
      "name": "approveRequest",
      "outputs": [],
      "stateMutability": "nonpayable",
      "type": "function"
    },
    {
      "inputs": [
        {
          "internalType": "address",
          "name": "nftContractAddress",
          "type": "address"
        },
        {
          "internalType": "address",
          "name": "aeroContractAddress",
          "type": "address"
        }
      ],
      "name": "assignDeployedAddressToInstance",
      "outputs": [
        {
          "internalType": "bool",
          "name": "",
          "type": "bool"
        }
      ],
      "stateMutability": "nonpayable",
      "type": "function"
    },
    {
      "inputs": [
        {
          "internalType": "address",
          "name": "owner",
          "type": "address"
        },
        {
          "internalType": "address",
          "name": "spender",
          "type": "address"
        },
        {
          "internalType": "uint256",
          "name": "value",
          "type": "uint256"
        },
        {
          "internalType": "uint256",
          "name": "deadline",
          "type": "uint256"
        },
        {
          "internalType": "uint8",
          "name": "v",
          "type": "uint8"
        },
        {
          "internalType": "bytes32",
          "name": "r",
          "type": "bytes32"
        },
        {
          "internalType": "bytes32",
          "name": "s",
          "type": "bytes32"
        },
        {
          "internalType": "uint256",
          "name": "_NFTTokenId",
          "type": "uint256"
        }
      ],
      "name": "buyAsset",
      "outputs": [],
      "stateMutability": "nonpayable",
      "type": "function"
    },
    {
      "inputs": [
        {
          "internalType": "address",
          "name": "nftOwner",
          "type": "address"
        },
        {
          "internalType": "uint256",
          "name": "_tokenId",
          "type": "uint256"
        },
        {
          "internalType": "uint8",
          "name": "v",
          "type": "uint8"
        },
        {
          "internalType": "bytes32",
          "name": "r",
          "type": "bytes32"
        },
        {
          "internalType": "bytes32",
          "name": "s",
          "type": "bytes32"
        },
        {
          "internalType": "uint256",
          "name": "deadline",
          "type": "uint256"
        },
        {
          "internalType": "uint256",
          "name": "nonce",
          "type": "uint256"
        },
        {
          "internalType": "uint8",
          "name": "vN",
          "type": "uint8"
        },
        {
          "internalType": "bytes32",
          "name": "rN",
          "type": "bytes32"
        },
        {
          "internalType": "bytes32",
          "name": "sN",
          "type": "bytes32"
        }
      ],
      "name": "buyAssetApprove",
      "outputs": [],
      "stateMutability": "nonpayable",
      "type": "function"
    },
    {
      "inputs": [
        {
          "internalType": "address",
          "name": "owner",
          "type": "address"
        },
        {
          "internalType": "address",
          "name": "spender",
          "type": "address"
        },
        {
          "internalType": "uint256",
          "name": "value",
          "type": "uint256"
        },
        {
          "internalType": "uint256",
          "name": "deadline",
          "type": "uint256"
        },
        {
          "internalType": "uint8",
          "name": "v",
          "type": "uint8"
        },
        {
          "internalType": "bytes32",
          "name": "r",
          "type": "bytes32"
        },
        {
          "internalType": "bytes32",
          "name": "s",
          "type": "bytes32"
        },
        {
          "internalType": "address",
          "name": "nftOwner",
          "type": "address"
        },
        {
          "internalType": "uint256",
          "name": "_tokenId",
          "type": "uint256"
        }
      ],
      "name": "buyAssetRequest",
      "outputs": [],
      "stateMutability": "nonpayable",
      "type": "function"
    },
    {
      "inputs": [
        {
          "components": [
            {
              "internalType": "uint256",
              "name": "nftID",
              "type": "uint256"
            },
            {
              "internalType": "bool",
              "name": "new_env",
              "type": "bool"
            },
            {
              "internalType": "uint256",
              "name": "creatorUserID",
              "type": "uint256"
            },
            {
              "internalType": "string",
              "name": "creatorUsername",
              "type": "string"
            },
            {
              "internalType": "string",
              "name": "creatorName",
              "type": "string"
            },
            {
              "internalType": "address",
              "name": "creatorMetamaskId",
              "type": "address"
            },
            {
              "internalType": "string",
              "name": "associatedProjectName",
              "type": "string"
            },
            {
              "internalType": "string",
              "name": "associatedProjectUrl",
              "type": "string"
            },
            {
              "internalType": "string",
              "name": "assetName",
              "type": "string"
            },
            {
              "internalType": "enum NFTMarketV2.AssetType",
              "name": "assetType",
              "type": "uint8"
            },
            {
              "internalType": "string",
              "name": "assetDescription",
              "type": "string"
            },
            {
              "internalType": "string",
              "name": "assetOffer",
              "type": "string"
            },
            {
              "internalType": "string",
              "name": "assetTerms",
              "type": "string"
            },
            {
              "internalType": "string",
              "name": "assetImage",
              "type": "string"
            },
            {
              "internalType": "bool",
              "name": "isHidden",
              "type": "bool"
            },
            {
              "internalType": "bool",
              "name": "isPrivate",
              "type": "bool"
            },
            {
              "internalType": "bool",
              "name": "multiNft",
              "type": "bool"
            },
            {
              "internalType": "uint256",
              "name": "assetPrice",
              "type": "uint256"
            },
            {
              "internalType": "enum NFTMarketV2.Status",
              "name": "status",
              "type": "uint8"
            },
            {
              "internalType": "bool",
              "name": "requestApproval",
              "type": "bool"
            }
          ],
          "internalType": "struct NFTMarketV2.MarketItem",
          "name": "data",
          "type": "tuple"
        },
        {
          "internalType": "string",
          "name": "tokenUri",
          "type": "string"
        }
      ],
      "name": "createAsset",
      "outputs": [],
      "stateMutability": "nonpayable",
      "type": "function"
    },
    {
      "inputs": [
        {
          "components": [
            {
              "internalType": "uint256",
              "name": "nftID",
              "type": "uint256"
            },
            {
              "internalType": "bool",
              "name": "new_env",
              "type": "bool"
            },
            {
              "internalType": "uint256",
              "name": "creatorUserID",
              "type": "uint256"
            },
            {
              "internalType": "string",
              "name": "creatorUsername",
              "type": "string"
            },
            {
              "internalType": "string",
              "name": "creatorName",
              "type": "string"
            },
            {
              "internalType": "address",
              "name": "creatorMetamaskId",
              "type": "address"
            },
            {
              "internalType": "string",
              "name": "associatedProjectName",
              "type": "string"
            },
            {
              "internalType": "string",
              "name": "associatedProjectUrl",
              "type": "string"
            },
            {
              "internalType": "string",
              "name": "assetName",
              "type": "string"
            },
            {
              "internalType": "enum NFTMarketV2.AssetType",
              "name": "assetType",
              "type": "uint8"
            },
            {
              "internalType": "string",
              "name": "assetDescription",
              "type": "string"
            },
            {
              "internalType": "string",
              "name": "assetOffer",
              "type": "string"
            },
            {
              "internalType": "string",
              "name": "assetTerms",
              "type": "string"
            },
            {
              "internalType": "string",
              "name": "assetImage",
              "type": "string"
            },
            {
              "internalType": "bool",
              "name": "isHidden",
              "type": "bool"
            },
            {
              "internalType": "bool",
              "name": "isPrivate",
              "type": "bool"
            },
            {
              "internalType": "bool",
              "name": "multiNft",
              "type": "bool"
            },
            {
              "internalType": "uint256",
              "name": "assetPrice",
              "type": "uint256"
            },
            {
              "internalType": "enum NFTMarketV2.Status",
              "name": "status",
              "type": "uint8"
            },
            {
              "internalType": "bool",
              "name": "requestApproval",
              "type": "bool"
            }
          ],
          "internalType": "struct NFTMarketV2.MarketItem",
          "name": "data",
          "type": "tuple"
        },
        {
          "internalType": "string",
          "name": "tokenUri",
          "type": "string"
        },
        {
          "internalType": "uint8",
          "name": "v",
          "type": "uint8"
        },
        {
          "internalType": "bytes32",
          "name": "r",
          "type": "bytes32"
        },
        {
          "internalType": "bytes32",
          "name": "s",
          "type": "bytes32"
        },
        {
          "internalType": "uint256",
          "name": "deadline",
          "type": "uint256"
        },
        {
          "internalType": "uint256",
          "name": "tokenId",
          "type": "uint256"
        }
      ],
      "name": "createAssetForSell",
      "outputs": [],
      "stateMutability": "nonpayable",
      "type": "function"
    },
    {
      "inputs": [
        {
          "components": [
            {
              "internalType": "uint256",
              "name": "nftID",
              "type": "uint256"
            },
            {
              "internalType": "bool",
              "name": "new_env",
              "type": "bool"
            },
            {
              "internalType": "uint256",
              "name": "creatorUserID",
              "type": "uint256"
            },
            {
              "internalType": "string",
              "name": "creatorUsername",
              "type": "string"
            },
            {
              "internalType": "string",
              "name": "creatorName",
              "type": "string"
            },
            {
              "internalType": "address",
              "name": "creatorMetamaskId",
              "type": "address"
            },
            {
              "internalType": "string",
              "name": "associatedProjectName",
              "type": "string"
            },
            {
              "internalType": "string",
              "name": "associatedProjectUrl",
              "type": "string"
            },
            {
              "internalType": "string",
              "name": "assetName",
              "type": "string"
            },
            {
              "internalType": "enum NFTMarketV2.AssetType",
              "name": "assetType",
              "type": "uint8"
            },
            {
              "internalType": "string",
              "name": "assetDescription",
              "type": "string"
            },
            {
              "internalType": "string",
              "name": "assetOffer",
              "type": "string"
            },
            {
              "internalType": "string",
              "name": "assetTerms",
              "type": "string"
            },
            {
              "internalType": "string",
              "name": "assetImage",
              "type": "string"
            },
            {
              "internalType": "bool",
              "name": "isHidden",
              "type": "bool"
            },
            {
              "internalType": "bool",
              "name": "isPrivate",
              "type": "bool"
            },
            {
              "internalType": "bool",
              "name": "multiNft",
              "type": "bool"
            },
            {
              "internalType": "uint256",
              "name": "assetPrice",
              "type": "uint256"
            },
            {
              "internalType": "enum NFTMarketV2.Status",
              "name": "status",
              "type": "uint8"
            },
            {
              "internalType": "bool",
              "name": "requestApproval",
              "type": "bool"
            }
          ],
          "internalType": "struct NFTMarketV2.MarketItem",
          "name": "data",
          "type": "tuple"
        }
      ],
      "name": "createAssetPending",
      "outputs": [
        {
          "internalType": "bytes32",
          "name": "",
          "type": "bytes32"
        }
      ],
      "stateMutability": "nonpayable",
      "type": "function"
    },
    {
      "inputs": [],
      "name": "getAllHashesLength",
      "outputs": [
        {
          "internalType": "uint256",
          "name": "",
          "type": "uint256"
        }
      ],
      "stateMutability": "view",
      "type": "function"
    },
    {
      "inputs": [
        {
          "internalType": "uint256",
          "name": "lowerBoundary",
          "type": "uint256"
        },
        {
          "internalType": "uint256",
          "name": "upperBoundary",
          "type": "uint256"
        }
      ],
      "name": "getAllMarketItem",
      "outputs": [
        {
          "components": [
            {
              "internalType": "uint256",
              "name": "nftID",
              "type": "uint256"
            },
            {
              "internalType": "bool",
              "name": "new_env",
              "type": "bool"
            },
            {
              "internalType": "uint256",
              "name": "creatorUserID",
              "type": "uint256"
            },
            {
              "internalType": "string",
              "name": "creatorUsername",
              "type": "string"
            },
            {
              "internalType": "string",
              "name": "creatorName",
              "type": "string"
            },
            {
              "internalType": "address",
              "name": "creatorMetamaskId",
              "type": "address"
            },
            {
              "internalType": "string",
              "name": "associatedProjectName",
              "type": "string"
            },
            {
              "internalType": "string",
              "name": "associatedProjectUrl",
              "type": "string"
            },
            {
              "internalType": "string",
              "name": "assetName",
              "type": "string"
            },
            {
              "internalType": "enum NFTMarketV2.AssetType",
              "name": "assetType",
              "type": "uint8"
            },
            {
              "internalType": "string",
              "name": "assetDescription",
              "type": "string"
            },
            {
              "internalType": "string",
              "name": "assetOffer",
              "type": "string"
            },
            {
              "internalType": "string",
              "name": "assetTerms",
              "type": "string"
            },
            {
              "internalType": "string",
              "name": "assetImage",
              "type": "string"
            },
            {
              "internalType": "bool",
              "name": "isHidden",
              "type": "bool"
            },
            {
              "internalType": "bool",
              "name": "isPrivate",
              "type": "bool"
            },
            {
              "internalType": "bool",
              "name": "multiNft",
              "type": "bool"
            },
            {
              "internalType": "uint256",
              "name": "assetPrice",
              "type": "uint256"
            },
            {
              "internalType": "enum NFTMarketV2.Status",
              "name": "status",
              "type": "uint8"
            },
            {
              "internalType": "bool",
              "name": "requestApproval",
              "type": "bool"
            }
          ],
          "internalType": "struct NFTMarketV2.MarketItem[]",
          "name": "",
          "type": "tuple[]"
        }
      ],
      "stateMutability": "view",
      "type": "function"
    },
    {
      "inputs": [
        {
          "internalType": "bytes32",
          "name": "hash",
          "type": "bytes32"
        }
      ],
      "name": "getMarketItem",
      "outputs": [
        {
          "components": [
            {
              "internalType": "uint256",
              "name": "nftID",
              "type": "uint256"
            },
            {
              "internalType": "bool",
              "name": "new_env",
              "type": "bool"
            },
            {
              "internalType": "uint256",
              "name": "creatorUserID",
              "type": "uint256"
            },
            {
              "internalType": "string",
              "name": "creatorUsername",
              "type": "string"
            },
            {
              "internalType": "string",
              "name": "creatorName",
              "type": "string"
            },
            {
              "internalType": "address",
              "name": "creatorMetamaskId",
              "type": "address"
            },
            {
              "internalType": "string",
              "name": "associatedProjectName",
              "type": "string"
            },
            {
              "internalType": "string",
              "name": "associatedProjectUrl",
              "type": "string"
            },
            {
              "internalType": "string",
              "name": "assetName",
              "type": "string"
            },
            {
              "internalType": "enum NFTMarketV2.AssetType",
              "name": "assetType",
              "type": "uint8"
            },
            {
              "internalType": "string",
              "name": "assetDescription",
              "type": "string"
            },
            {
              "internalType": "string",
              "name": "assetOffer",
              "type": "string"
            },
            {
              "internalType": "string",
              "name": "assetTerms",
              "type": "string"
            },
            {
              "internalType": "string",
              "name": "assetImage",
              "type": "string"
            },
            {
              "internalType": "bool",
              "name": "isHidden",
              "type": "bool"
            },
            {
              "internalType": "bool",
              "name": "isPrivate",
              "type": "bool"
            },
            {
              "internalType": "bool",
              "name": "multiNft",
              "type": "bool"
            },
            {
              "internalType": "uint256",
              "name": "assetPrice",
              "type": "uint256"
            },
            {
              "internalType": "enum NFTMarketV2.Status",
              "name": "status",
              "type": "uint8"
            },
            {
              "internalType": "bool",
              "name": "requestApproval",
              "type": "bool"
            }
          ],
          "internalType": "struct NFTMarketV2.MarketItem",
          "name": "",
          "type": "tuple"
        }
      ],
      "stateMutability": "view",
      "type": "function"
    },
    {
      "inputs": [
        {
          "internalType": "bytes32",
          "name": "hash",
          "type": "bytes32"
        }
      ],
      "name": "getMarketItemStatus",
      "outputs": [
        {
          "internalType": "string",
          "name": "",
          "type": "string"
        }
      ],
      "stateMutability": "view",
      "type": "function"
    },
    {
      "inputs": [
        {
          "internalType": "string",
          "name": "tokenUri",
          "type": "string"
        },
        {
          "internalType": "address",
          "name": "nftOwner",
          "type": "address"
        }
      ],
      "name": "mintNFT",
      "outputs": [
        {
          "internalType": "uint256",
          "name": "",
          "type": "uint256"
        }
      ],
      "stateMutability": "nonpayable",
      "type": "function"
    },
    {
      "inputs": [],
      "name": "owner",
      "outputs": [
        {
          "internalType": "address",
          "name": "",
          "type": "address"
        }
      ],
      "stateMutability": "view",
      "type": "function"
    },
    {
      "inputs": [],
      "name": "renounceOwnership",
      "outputs": [],
      "stateMutability": "nonpayable",
      "type": "function"
    },
    {
      "inputs": [
        {
          "internalType": "bytes32",
          "name": "hash",
          "type": "bytes32"
        }
      ],
      "name": "setMarketItemToPrivate",
      "outputs": [],
      "stateMutability": "nonpayable",
      "type": "function"
    },
    {
      "inputs": [
        {
          "internalType": "address",
          "name": "newOwner",
          "type": "address"
        }
      ],
      "name": "transferOwnership",
      "outputs": [],
      "stateMutability": "nonpayable",
      "type": "function"
    }
  ],
  "bytecode": "0x60806040527f6e71edae12b1b97f4d1f60370fef10105fa2faae0126114a169c64845d6126c960065566038d7ea4c680006007553480156200004057600080fd5b506001600055620000513362000057565b620000a9565b600180546001600160a01b038381166001600160a01b0319831681179093556040519116919082907f8be0079c531659141344cd1fd0a4f28419497f9722a3daafe3b4186f6b6457e090600090a35050565b6136c280620000b96000396000f3fe608060405234801561001057600080fd5b506004361061012c5760003560e01c80637d7b3056116100ad578063a927632811610071578063a9276328146102ab578063cd7e0f7a146102be578063e2208a65146102d1578063f2fde38b146102d9578063f7785a07146102ec57600080fd5b80637d7b30561461023f57806380f12fcd1461025f5780638184a48c146102675780638da5cb5b14610287578063982aaf6b146102a257600080fd5b806355824391116100f457806355824391146101c05780636abfcc72146101d3578063715018a6146101e657806372c40429146101ee57806376ba60091461021157600080fd5b806304f3227914610131578063337f65aa1461015757806340393fd31461016c57806343fb19d91461017f57806346b4c35d146101ad575b600080fd5b61014461013f366004612a7b565b61030c565b6040519081526020015b60405180910390f35b61016a610165366004612ada565b6103c7565b005b61016a61017a366004612daf565b610594565b61016a61018d366004612e48565b6000908152600960205260409020600e01805461ff001916610100179055565b61016a6101bb366004612e61565b610972565b61016a6101ce366004612ec5565b610cac565b6101446101e1366004612f4a565b610e8e565b61016a611149565b6102016101fc366004612f87565b61115d565b604051901515815260200161014e565b61016a61021f366004612e48565b6000908152600960205260409020601001805461ff001916610100179055565b61025261024d366004612e48565b6111dd565b60405161014e9190613001565b600a54610144565b61027a610275366004612e48565b611206565b60405161014e91906131ff565b6001546040516001600160a01b03909116815260200161014e565b61014460065481565b61016a6102b9366004613212565b611843565b61016a6102cc36600461329b565b611b89565b610144611d7e565b61016a6102e736600461332c565b611e56565b6102ff6102fa366004613347565b611ecf565b60405161014e9190613369565b6004805460405163a211937760e01b815260009283926001600160a01b03169163a2119377916103409188918891016133cb565b6020604051808303816000875af115801561035f573d6000803e3d6000fd5b505050506040513d601f19601f8201168201806040525081019061038391906133f5565b90507f2cc161d398589ff5526cd6b429338ae827d66c48171d3dbaeac9a7bf822935bd816040516103b691815260200190565b60405180910390a190505b92915050565b60055460405163d505accf60e01b81526001600160a01b039091169063d505accf90610403908b908b908b908b908b908b908b9060040161340e565b600060405180830381600087803b15801561041d57600080fd5b505af1158015610431573d6000803e3d6000fd5b5050600554604051633950935160e01b81526001600160a01b038b81166004830152602482018b90529091169250633950935191506044016020604051808303816000875af1158015610488573d6000803e3d6000fd5b505050506040513d601f19601f820116820180604052508101906104ac919061344f565b506005546040516323b872dd60e01b81526001600160a01b03909116906323b872dd906104e1908b9030908b9060040161346c565b6020604051808303816000875af1158015610500573d6000803e3d6000fd5b505050506040513d601f19601f82011682018060405250810190610524919061344f565b50600480546040516323b872dd60e01b81526001600160a01b03909116916323b872dd91610558918b918d9187910161346c565b600060405180830381600087803b15801561057257600080fd5b505af1158015610586573d6000803e3d6000fd5b505050505050505050505050565b6004805460a089015160405163a211937760e01b81526001600160a01b039092169263a2119377926105ca928b929091016133cb565b6020604051808303816000875af11580156105e9573d6000803e3d6000fd5b505050506040513d601f19601f8201168201806040525081019061060d91906133f5565b5060048054604051637ac2ff7b60e01b81523092810192909252602482018390526044820184905260ff871660648301526084820186905260a482018590526001600160a01b031690637ac2ff7b9060c401600060405180830381600087803b15801561067957600080fd5b505af115801561068d573d6000803e3d6000fd5b505050818852506040808801516101008901516101208a01516101408b015193516000946106e3946106c9949093889391929091602001613490565b604051602081830303815290604052805160209091012090565b6040516020016106f591815260200190565b60408051808303601f1901815291815281516020928301206000818152600984528290208b518155928b015160018401805460ff1916911515919091179055908a0151600283015560608a015190925089919060038201906107579082613574565b506080820151600482019061076c9082613574565b5060a08201516005820180546001600160a01b0319166001600160a01b0390921691909117905560c082015160068201906107a79082613574565b5060e082015160078201906107bc9082613574565b5061010082015160088201906107d29082613574565b5061012082015160098201805460ff191660018360048111156107f7576107f7613014565b0217905550610140820151600a8201906108119082613574565b50610160820151600b8201906108279082613574565b50610180820151600c82019061083d9082613574565b506101a0820151600d8201906108539082613574565b506101c0820151600e820180546101e08501516102008601511515620100000262ff0000199115156101000261ff00199515159590951661ffff19909316929092179390931792909216919091179055610220820151600f82015561024082015160108201805460ff191660018360028111156108d2576108d2613014565b02179055506102609190910151601090910180549115156101000261ff0019909216919091179055600a80546001810182556000919091527fc65a7bb8d6351c1cf70c95a316cc6a92839c986682d98bc35f958f4883f9d2a80181905560408051828152602081018490527f0400a15904b2574e109cd26861b874b1208c6d17bc8beafdb885d8ecc14f00b8910160405180910390a15050505050505050565b6004805460a084015160405163a211937760e01b81526000936001600160a01b039093169263a2119377926109a9928792016133cb565b6020604051808303816000875af11580156109c8573d6000803e3d6000fd5b505050506040513d601f19601f820116820180604052508101906109ec91906133f5565b8084526040808501516101008601516101208701516101408801519351949550600094610a27946106c9949388939092909190602001613490565b604051602001610a3991815260200190565b60408051808303601f190181529181528151602092830120600081815260098452829020875181559287015160018401805460ff191691151591909117905590860151600283015560608601519092508591906003820190610a9b9082613574565b5060808201516004820190610ab09082613574565b5060a08201516005820180546001600160a01b0319166001600160a01b0390921691909117905560c08201516006820190610aeb9082613574565b5060e08201516007820190610b009082613574565b506101008201516008820190610b169082613574565b5061012082015160098201805460ff19166001836004811115610b3b57610b3b613014565b0217905550610140820151600a820190610b559082613574565b50610160820151600b820190610b6b9082613574565b50610180820151600c820190610b819082613574565b506101a0820151600d820190610b979082613574565b506101c0820151600e820180546101e08501516102008601511515620100000262ff0000199115156101000261ff00199515159590951661ffff19909316929092179390931792909216919091179055610220820151600f82015561024082015160108201805460ff19166001836002811115610c1657610c16613014565b02179055506102609190910151601090910180549115156101000261ff0019909216919091179055600a80546001810182556000919091527fc65a7bb8d6351c1cf70c95a316cc6a92839c986682d98bc35f958f4883f9d2a8018190556040518181527f8b085463dcaf0be97879d41341336aa82d1faf7c1b744db2408e4d25c84790369060200160405180910390a150505050565b610cb4612891565b8781526001600160a01b03808b166020808401918252858316604080860182815260608701888152600093845260088552828420898552909452918190208651815593516001850180549187166001600160a01b0319928316179055915160028501805491871691909316179091559051600390920191909155600554905163d505accf60e01b815291169063d505accf90610d60908d908d908d908d908d908d908d9060040161340e565b600060405180830381600087803b158015610d7a57600080fd5b505af1158015610d8e573d6000803e3d6000fd5b5050600554604051633950935160e01b81526001600160a01b038d81166004830152602482018d90529091169250633950935191506044016020604051808303816000875af1158015610de5573d6000803e3d6000fd5b505050506040513d601f19601f82011682018060405250810190610e09919061344f565b506005546040516323b872dd60e01b81526001600160a01b03909116906323b872dd90610e3e908d9030908d9060040161346c565b6020604051808303816000875af1158015610e5d573d6000803e3d6000fd5b505050506040513d601f19601f82011682018060405250810190610e81919061344f565b5050505050505050505050565b600080610ec4836040015184600001518561010001518661012001518761014001516040516020016106c9959493929190613490565b604051602001610ed691815260200190565b60408051808303601f190181529181528151602092830120600081815260098452829020865181559286015160018401805460ff191691151591909117905590850151600283015560608501519092508491906003820190610f389082613574565b5060808201516004820190610f4d9082613574565b5060a08201516005820180546001600160a01b0319166001600160a01b0390921691909117905560c08201516006820190610f889082613574565b5060e08201516007820190610f9d9082613574565b506101008201516008820190610fb39082613574565b5061012082015160098201805460ff19166001836004811115610fd857610fd8613014565b0217905550610140820151600a820190610ff29082613574565b50610160820151600b8201906110089082613574565b50610180820151600c82019061101e9082613574565b506101a0820151600d8201906110349082613574565b506101c0820151600e820180546101e08501516102008601511515620100000262ff0000199115156101000261ff00199515159590951661ffff19909316929092179390931792909216919091179055610220820151600f82015561024082015160108201805460ff191660018360028111156110b3576110b3613014565b02179055506102609190910151601090910180549115156101000261ff0019909216919091179055600a80546001810182556000919091527fc65a7bb8d6351c1cf70c95a316cc6a92839c986682d98bc35f958f4883f9d2a8018190556040518181527f8be2d25238708c5e063396e6d61f4b7b207886987437015d6484870f109924a89060200160405180910390a192915050565b611151612724565b61115b600061277e565b565b600480546001600160a01b038481166001600160a01b031992831681179093556005805491851691831682179055600b805490921681179091556040805192835260208301919091526000917fe35fa6870eeedba0df9480a717f514d523b132dc90a8075df0b4f4b91bf27b4a910160405180910390a150600192915050565b600081815260096020526040812060100154606091906111ff9060ff166127d0565b9392505050565b61120e6128cb565b60008281526009602090815260409182902082516102808101845281548152600182015460ff16151592810192909252600281015492820192909252600382018054919291606084019190611262906134eb565b80601f016020809104026020016040519081016040528092919081815260200182805461128e906134eb565b80156112db5780601f106112b0576101008083540402835291602001916112db565b820191906000526020600020905b8154815290600101906020018083116112be57829003601f168201915b505050505081526020016004820180546112f4906134eb565b80601f0160208091040260200160405190810160405280929190818152602001828054611320906134eb565b801561136d5780601f106113425761010080835404028352916020019161136d565b820191906000526020600020905b81548152906001019060200180831161135057829003601f168201915b505050918352505060058201546001600160a01b0316602082015260068201805460409092019161139d906134eb565b80601f01602080910402602001604051908101604052809291908181526020018280546113c9906134eb565b80156114165780601f106113eb57610100808354040283529160200191611416565b820191906000526020600020905b8154815290600101906020018083116113f957829003601f168201915b5050505050815260200160078201805461142f906134eb565b80601f016020809104026020016040519081016040528092919081815260200182805461145b906134eb565b80156114a85780601f1061147d576101008083540402835291602001916114a8565b820191906000526020600020905b81548152906001019060200180831161148b57829003601f168201915b505050505081526020016008820180546114c1906134eb565b80601f01602080910402602001604051908101604052809291908181526020018280546114ed906134eb565b801561153a5780601f1061150f5761010080835404028352916020019161153a565b820191906000526020600020905b81548152906001019060200180831161151d57829003601f168201915b5050509183525050600982015460209091019060ff16600481111561156157611561613014565b600481111561157257611572613014565b8152602001600a82018054611586906134eb565b80601f01602080910402602001604051908101604052809291908181526020018280546115b2906134eb565b80156115ff5780601f106115d4576101008083540402835291602001916115ff565b820191906000526020600020905b8154815290600101906020018083116115e257829003601f168201915b50505050508152602001600b82018054611618906134eb565b80601f0160208091040260200160405190810160405280929190818152602001828054611644906134eb565b80156116915780601f1061166657610100808354040283529160200191611691565b820191906000526020600020905b81548152906001019060200180831161167457829003601f168201915b50505050508152602001600c820180546116aa906134eb565b80601f01602080910402602001604051908101604052809291908181526020018280546116d6906134eb565b80156117235780601f106116f857610100808354040283529160200191611723565b820191906000526020600020905b81548152906001019060200180831161170657829003601f168201915b50505050508152602001600d8201805461173c906134eb565b80601f0160208091040260200160405190810160405280929190818152602001828054611768906134eb565b80156117b55780601f1061178a576101008083540402835291602001916117b5565b820191906000526020600020905b81548152906001019060200180831161179857829003601f168201915b5050509183525050600e82015460ff80821615156020840152610100820481161515604084015262010000909104811615156060830152600f8301546080830152601083015460a09092019116600281111561181357611813613014565b600281111561182457611824613014565b815260109190910154610100900460ff16151560209091015292915050565b61184b612891565b506001600160a01b03808b1660009081526008602090815260408083208d84528252808320815160808101835281548152600182015486169381019390935260028101549094169082015260039092015460608301526118a9611d7e565b600654602084810151855160408051808501959095526001600160a01b0390921684830152306060850152608084015260a083018a905260c08084018c90528151808503909101815260e08401909152805191012061190160f01b6101008301526101028201929092526101228101919091526101420160408051601f1981840301815282825280516020918201206000845290830180835281905260ff8d1691830191909152606082018b9052608082018a9052915060019060a0016020604051602081039080840390855afa158015611988573d6000803e3d6000fd5b505050602060405103516001600160a01b031682602001516001600160a01b0316146119f05760405162461bcd60e51b8152602060048201526012602482015271496e76616c6964205369676e61747572652160701b60448201526064015b60405180910390fd5b600560009054906101000a90046001600160a01b03166001600160a01b03166323b872dd308e85600001516040518463ffffffff1660e01b8152600401611a399392919061346c565b6020604051808303816000875af1158015611a58573d6000803e3d6000fd5b505050506040513d601f19601f82011682018060405250810190611a7c919061344f565b5060048054604051637ac2ff7b60e01b81523092810192909252602482018d90526044820189905260ff871660648301526084820186905260a482018590526001600160a01b031690637ac2ff7b9060c401600060405180830381600087803b158015611ae857600080fd5b505af1158015611afc573d6000803e3d6000fd5b50505050600460009054906101000a90046001600160a01b03166001600160a01b03166323b872dd8d84602001518e6040518463ffffffff1660e01b8152600401611b499392919061346c565b600060405180830381600087803b158015611b6357600080fd5b505af1158015611b77573d6000803e3d6000fd5b50505050505050505050505050505050565b6004805460405163a211937760e01b81526000926001600160a01b039092169163a211937791611bbd918e918e91016133cb565b6020604051808303816000875af1158015611bdc573d6000803e3d6000fd5b505050506040513d601f19601f82011682018060405250810190611c0091906133f5565b60008c81526009602052604090819020828155601001805460ff19166001179055600554905163d505accf60e01b81529192506001600160a01b03169063d505accf90611c5d908c908c908b908b908b908b908b9060040161340e565b600060405180830381600087803b158015611c7757600080fd5b505af1158015611c8b573d6000803e3d6000fd5b5050600554604051633950935160e01b81526001600160a01b038c81166004830152602482018b90529091169250633950935191506044016020604051808303816000875af1158015611ce2573d6000803e3d6000fd5b505050506040513d601f19601f82011682018060405250810190611d06919061344f565b506005546040516323b872dd60e01b81526001600160a01b03909116906323b872dd90611d3b908c908b908b9060040161346c565b6020604051808303816000875af1158015611d5a573d6000803e3d6000fd5b505050506040513d601f19601f82011682018060405250810190610586919061344f565b60408051808201825260048152634165726f60e01b6020918201528151808301835260018152603160f81b90820152600b5482517f8b73c3c69bb8fe3d512ecc4cf759cc79239f7b179b0ffacaa9a75d522b39400f818401527fbf01fc4e5f7eb1f2eee29681cd6d2cda1045d51fd80c223d1eaea49e08734bf9818501527fc89efdaa54c0f20c7adf612882df0950f5a951637e0307cdcb4c672f298b8bc660608201524660808201526001600160a01b0390911660a0808301919091528351808303909101815260c0909101909252815191012090565b611e5e612724565b6001600160a01b038116611ec35760405162461bcd60e51b815260206004820152602660248201527f4f776e61626c653a206e6577206f776e657220697320746865207a65726f206160448201526564647265737360d01b60648201526084016119e7565b611ecc8161277e565b50565b6060611ed9612724565b600a546001811015611f205760405162461bcd60e51b815260206004820152601060248201526f6173736574732061726520656d70747960801b60448201526064016119e7565b808411158015611f2e575060015b611fa05760405162461bcd60e51b815260206004820152603f60248201527f6c6f77657220626f756e646172792073686f756c64206265206c657373206f7260448201527f20657175616c20746f2073697a6520616e64206e6f6e206e656761746976650060648201526084016119e7565b808311158015611fae575060015b6120205760405162461bcd60e51b815260206004820152603f60248201527f757070657220626f756e646172792073686f756c64206265206c657373206f7260448201527f20657175616c20746f2073697a6520616e64206e6f6e206e656761746976650060648201526084016119e7565b600a5460009067ffffffffffffffff81111561203e5761203e612997565b60405190808252806020026020018201604052801561207757816020015b6120646128cb565b81526020019060019003908161205c5790505b5090506000855b8581116127195760096000600a838154811061209c5761209c613634565b9060005260206000200154815260200190815260200160002060405180610280016040529081600082015481526020016001820160009054906101000a900460ff1615151515815260200160028201548152602001600382018054612100906134eb565b80601f016020809104026020016040519081016040528092919081815260200182805461212c906134eb565b80156121795780601f1061214e57610100808354040283529160200191612179565b820191906000526020600020905b81548152906001019060200180831161215c57829003601f168201915b50505050508152602001600482018054612192906134eb565b80601f01602080910402602001604051908101604052809291908181526020018280546121be906134eb565b801561220b5780601f106121e05761010080835404028352916020019161220b565b820191906000526020600020905b8154815290600101906020018083116121ee57829003601f168201915b505050918352505060058201546001600160a01b0316602082015260068201805460409092019161223b906134eb565b80601f0160208091040260200160405190810160405280929190818152602001828054612267906134eb565b80156122b45780601f10612289576101008083540402835291602001916122b4565b820191906000526020600020905b81548152906001019060200180831161229757829003601f168201915b505050505081526020016007820180546122cd906134eb565b80601f01602080910402602001604051908101604052809291908181526020018280546122f9906134eb565b80156123465780601f1061231b57610100808354040283529160200191612346565b820191906000526020600020905b81548152906001019060200180831161232957829003601f168201915b5050505050815260200160088201805461235f906134eb565b80601f016020809104026020016040519081016040528092919081815260200182805461238b906134eb565b80156123d85780601f106123ad576101008083540402835291602001916123d8565b820191906000526020600020905b8154815290600101906020018083116123bb57829003601f168201915b5050509183525050600982015460209091019060ff1660048111156123ff576123ff613014565b600481111561241057612410613014565b8152602001600a82018054612424906134eb565b80601f0160208091040260200160405190810160405280929190818152602001828054612450906134eb565b801561249d5780601f106124725761010080835404028352916020019161249d565b820191906000526020600020905b81548152906001019060200180831161248057829003601f168201915b50505050508152602001600b820180546124b6906134eb565b80601f01602080910402602001604051908101604052809291908181526020018280546124e2906134eb565b801561252f5780601f106125045761010080835404028352916020019161252f565b820191906000526020600020905b81548152906001019060200180831161251257829003601f168201915b50505050508152602001600c82018054612548906134eb565b80601f0160208091040260200160405190810160405280929190818152602001828054612574906134eb565b80156125c15780601f10612596576101008083540402835291602001916125c1565b820191906000526020600020905b8154815290600101906020018083116125a457829003601f168201915b50505050508152602001600d820180546125da906134eb565b80601f0160208091040260200160405190810160405280929190818152602001828054612606906134eb565b80156126535780601f1061262857610100808354040283529160200191612653565b820191906000526020600020905b81548152906001019060200180831161263657829003601f168201915b5050509183525050600e82015460ff80821615156020840152610100820481161515604084015262010000909104811615156060830152600f8301546080830152601083015460a0909201911660028111156126b1576126b1613014565b60028111156126c2576126c2613014565b815260109190910154610100900460ff16151560209091015283518490849081106126ef576126ef613634565b6020908102919091010152612705826001613660565b91508061271181613673565b91505061207e565b509095945050505050565b6001546001600160a01b0316331461115b5760405162461bcd60e51b815260206004820181905260248201527f4f776e61626c653a2063616c6c6572206973206e6f7420746865206f776e657260448201526064016119e7565b600180546001600160a01b038381166001600160a01b0319831681179093556040519116919082907f8be0079c531659141344cd1fd0a4f28419497f9722a3daafe3b4186f6b6457e090600090a35050565b606060038260028111156127e6576127e6613014565b60ff1611156127f457600080fd5b81600281111561280657612806613014565b60000361283057505060408051808201909152600781526650656e64696e6760c81b602082015290565b81600281111561284257612842613014565b60010361286c57505060408051808201909152600781526610dc99585d195960ca1b602082015290565b505060408051808201909152600481526314dbdb1960e21b602082015290565b919050565b60405180608001604052806000815260200160006001600160a01b0316815260200160006001600160a01b03168152602001600081525090565b6040518061028001604052806000815260200160001515815260200160008152602001606081526020016060815260200160006001600160a01b031681526020016060815260200160608152602001606081526020016000600481111561293457612934613014565b815260200160608152602001606081526020016060815260200160608152602001600015158152602001600015158152602001600015158152602001600081526020016000600281111561298a5761298a613014565b8152600060209091015290565b634e487b7160e01b600052604160045260246000fd5b604051610280810167ffffffffffffffff811182821017156129d1576129d1612997565b60405290565b600082601f8301126129e857600080fd5b813567ffffffffffffffff80821115612a0357612a03612997565b604051601f8301601f19908116603f01168101908282118183101715612a2b57612a2b612997565b81604052838152866020858801011115612a4457600080fd5b836020870160208301376000602085830101528094505050505092915050565b80356001600160a01b038116811461288c57600080fd5b60008060408385031215612a8e57600080fd5b823567ffffffffffffffff811115612aa557600080fd5b612ab1858286016129d7565b925050612ac060208401612a64565b90509250929050565b803560ff8116811461288c57600080fd5b600080600080600080600080610100898b031215612af757600080fd5b612b0089612a64565b9750612b0e60208a01612a64565b96506040890135955060608901359450612b2a60808a01612ac9565b979a969950949793969560a0850135955060c08501359460e001359350915050565b8015158114611ecc57600080fd5b803561288c81612b4c565b80356005811061288c57600080fd5b80356003811061288c57600080fd5b60006102808284031215612b9657600080fd5b612b9e6129ad565b905081358152612bb060208301612b5a565b602082015260408201356040820152606082013567ffffffffffffffff80821115612bda57600080fd5b612be6858386016129d7565b60608401526080840135915080821115612bff57600080fd5b612c0b858386016129d7565b6080840152612c1c60a08501612a64565b60a084015260c0840135915080821115612c3557600080fd5b612c41858386016129d7565b60c084015260e0840135915080821115612c5a57600080fd5b612c66858386016129d7565b60e084015261010091508184013581811115612c8157600080fd5b612c8d868287016129d7565b83850152506101209150612ca2828501612b65565b8284015261014091508184013581811115612cbc57600080fd5b612cc8868287016129d7565b838501525061016091508184013581811115612ce357600080fd5b612cef868287016129d7565b838501525061018091508184013581811115612d0a57600080fd5b612d16868287016129d7565b83850152506101a091508184013581811115612d3157600080fd5b612d3d868287016129d7565b838501525050506101c0612d52818401612b5a565b908201526101e0612d64838201612b5a565b90820152610200612d76838201612b5a565b908201526102208281013590820152610240612d93818401612b74565b90820152610260612da5838201612b5a565b9082015292915050565b600080600080600080600060e0888a031215612dca57600080fd5b873567ffffffffffffffff80821115612de257600080fd5b612dee8b838c01612b83565b985060208a0135915080821115612e0457600080fd5b50612e118a828b016129d7565b965050612e2060408901612ac9565b969995985095966060810135965060808101359560a0820135955060c0909101359350915050565b600060208284031215612e5a57600080fd5b5035919050565b60008060408385031215612e7457600080fd5b823567ffffffffffffffff80821115612e8c57600080fd5b612e9886838701612b83565b93506020850135915080821115612eae57600080fd5b50612ebb858286016129d7565b9150509250929050565b60008060008060008060008060006101208a8c031215612ee457600080fd5b612eed8a612a64565b9850612efb60208b01612a64565b975060408a0135965060608a01359550612f1760808b01612ac9565b945060a08a0135935060c08a01359250612f3360e08b01612a64565b91506101008a013590509295985092959850929598565b600060208284031215612f5c57600080fd5b813567ffffffffffffffff811115612f7357600080fd5b612f7f84828501612b83565b949350505050565b60008060408385031215612f9a57600080fd5b612fa383612a64565b9150612ac060208401612a64565b60005b83811015612fcc578181015183820152602001612fb4565b50506000910152565b60008151808452612fed816020860160208601612fb1565b601f01601f19169290920160200192915050565b6020815260006111ff6020830184612fd5565b634e487b7160e01b600052602160045260246000fd5b6005811061303a5761303a613014565b9052565b6003811061303a5761303a613014565b600061028082518452602083015161306a602086018215159052565b5060408301516040850152606083015181606086015261308c82860182612fd5565b915050608083015184820360808601526130a68282612fd5565b91505060a08301516130c360a08601826001600160a01b03169052565b5060c083015184820360c08601526130db8282612fd5565b91505060e083015184820360e08601526130f58282612fd5565b91505061010080840151858303828701526131108382612fd5565b92505050610120808401516131278287018261302a565b505061014080840151858303828701526131418382612fd5565b92505050610160808401518583038287015261315d8382612fd5565b9250505061018080840151858303828701526131798382612fd5565b925050506101a080840151858303828701526131958382612fd5565b925050506101c0808401516131ad8287018215159052565b50506101e083810151151590850152610200808401511515908501526102208084015190850152610240808401516131e78287018261303e565b50506102609283015115159390920192909252919050565b6020815260006111ff602083018461304e565b6000806000806000806000806000806101408b8d03121561323257600080fd5b61323b8b612a64565b995060208b0135985061325060408c01612ac9565b975060608b0135965060808b0135955060a08b0135945060c08b0135935061327a60e08c01612ac9565b92506101008b013591506101208b013590509295989b9194979a5092959850565b6000806000806000806000806000806101408b8d0312156132bb57600080fd5b8a35995060208b013567ffffffffffffffff8111156132d957600080fd5b6132e58d828e016129d7565b9950506132f460408c01612a64565b975061330260608c01612a64565b965061331060808c01612a64565b955060a08b0135945060c08b0135935061327a60e08c01612ac9565b60006020828403121561333e57600080fd5b6111ff82612a64565b6000806040838503121561335a57600080fd5b50508035926020909101359150565b6000602080830181845280855180835260408601915060408160051b870101925083870160005b828110156133be57603f198886030184526133ac85835161304e565b94509285019290850190600101613390565b5092979650505050505050565b6040815260006133de6040830185612fd5565b905060018060a01b03831660208301529392505050565b60006020828403121561340757600080fd5b5051919050565b6001600160a01b0397881681529590961660208601526040850193909352606084019190915260ff16608083015260a082015260c081019190915260e00190565b60006020828403121561346157600080fd5b81516111ff81612b4c565b6001600160a01b039384168152919092166020820152604081019190915260600190565b858152846020820152600084516134ae816040850160208901612fb1565b8201600585106134c0576134c0613014565b8460f81b604082015283516134dc816041840160208801612fb1565b01604101979650505050505050565b600181811c908216806134ff57607f821691505b60208210810361351f57634e487b7160e01b600052602260045260246000fd5b50919050565b601f82111561356f57600081815260208120601f850160051c8101602086101561354c5750805b601f850160051c820191505b8181101561356b57828155600101613558565b5050505b505050565b815167ffffffffffffffff81111561358e5761358e612997565b6135a28161359c84546134eb565b84613525565b602080601f8311600181146135d757600084156135bf5750858301515b600019600386901b1c1916600185901b17855561356b565b600085815260208120601f198616915b82811015613606578886015182559484019460019091019084016135e7565b50858210156136245787850151600019600388901b60f8161c191681555b5050505050600190811b01905550565b634e487b7160e01b600052603260045260246000fd5b634e487b7160e01b600052601160045260246000fd5b808201808211156103c1576103c161364a565b6000600182016136855761368561364a565b506001019056fea26469706673582212205d37eee59d0dd653846dcfa5c4c75842b8ef509e8de88d8db8994792de506ccf64736f6c63430008110033",
  "linkReferences": {},
  "deployedLinkReferences": {}
}