{
  "_format": "hh-sol-artifact-1",
  "contractName": "NFTMarketV2",
  "sourceName": "contracts/v2/NFTMarketV2.sol",
  "abi": [
    {
      "inputs": [],
      "stateMutability": "nonpayable",
      "type": "constructor"
    },
    {
      "anonymous": false,
      "inputs": [
        {
          "indexed": true,
          "internalType": "address",
          "name": "previousOwner",
          "type": "address"
        },
        {
          "indexed": true,
          "internalType": "address",
          "name": "newOwner",
          "type": "address"
        }
      ],
      "name": "OwnershipTransferred",
      "type": "event"
    },
    {
      "inputs": [],
      "name": "ERC20_DOMAIN_SEPARATOR",
      "outputs": [
        {
          "internalType": "bytes32",
          "name": "",
          "type": "bytes32"
        }
      ],
      "stateMutability": "view",
      "type": "function"
    },
    {
      "inputs": [],
      "name": "_PERMIT_TYPEHASH",
      "outputs": [
        {
          "internalType": "bytes32",
          "name": "",
          "type": "bytes32"
        }
      ],
      "stateMutability": "view",
      "type": "function"
    },
    {
      "inputs": [
        {
          "internalType": "bytes",
          "name": "hash",
          "type": "bytes"
        },
        {
          "internalType": "string",
          "name": "tokenUri",
          "type": "string"
        },
        {
          "internalType": "address",
          "name": "signer",
          "type": "address"
        },
        {
          "internalType": "address",
          "name": "projectOwner",
          "type": "address"
        },
        {
          "internalType": "uint256",
          "name": "value",
          "type": "uint256"
        },
        {
          "internalType": "uint256",
          "name": "deadline",
          "type": "uint256"
        },
        {
          "internalType": "uint8",
          "name": "v",
          "type": "uint8"
        },
        {
          "internalType": "bytes32",
          "name": "r",
          "type": "bytes32"
        },
        {
          "internalType": "bytes32",
          "name": "s",
          "type": "bytes32"
        },
        {
          "internalType": "uint256",
          "name": "amount",
          "type": "uint256"
        }
      ],
      "name": "approvePendingAsset",
      "outputs": [
        {
          "internalType": "bool",
          "name": "",
          "type": "bool"
        }
      ],
      "stateMutability": "nonpayable",
      "type": "function"
    },
    {
      "inputs": [
        {
          "internalType": "address",
          "name": "nftContractAddress",
          "type": "address"
        },
        {
          "internalType": "address",
          "name": "aeroContractAddress",
          "type": "address"
        }
      ],
      "name": "assignDeployedAddressToInstance",
      "outputs": [
        {
          "internalType": "bool",
          "name": "",
          "type": "bool"
        }
      ],
      "stateMutability": "nonpayable",
      "type": "function"
    },
    {
      "inputs": [
        {
          "internalType": "address",
          "name": "owner",
          "type": "address"
        },
        {
          "internalType": "address",
          "name": "spender",
          "type": "address"
        },
        {
          "internalType": "uint256",
          "name": "value",
          "type": "uint256"
        },
        {
          "internalType": "uint256",
          "name": "deadline",
          "type": "uint256"
        },
        {
          "internalType": "uint8",
          "name": "v",
          "type": "uint8"
        },
        {
          "internalType": "bytes32",
          "name": "r",
          "type": "bytes32"
        },
        {
          "internalType": "bytes32",
          "name": "s",
          "type": "bytes32"
        },
        {
          "internalType": "address",
          "name": "nftOwner",
          "type": "address"
        },
        {
          "internalType": "uint256",
          "name": "_tokenId",
          "type": "uint256"
        }
      ],
      "name": "buyAsset",
      "outputs": [
        {
          "internalType": "bool",
          "name": "",
          "type": "bool"
        }
      ],
      "stateMutability": "nonpayable",
      "type": "function"
    },
    {
      "inputs": [
        {
          "internalType": "address",
          "name": "nftOwner",
          "type": "address"
        },
        {
          "internalType": "uint256",
          "name": "_tokenId",
          "type": "uint256"
        },
        {
          "internalType": "uint8",
          "name": "v",
          "type": "uint8"
        },
        {
          "internalType": "bytes32",
          "name": "r",
          "type": "bytes32"
        },
        {
          "internalType": "bytes32",
          "name": "s",
          "type": "bytes32"
        },
        {
          "internalType": "uint256",
          "name": "deadline",
          "type": "uint256"
        },
        {
          "internalType": "uint256",
          "name": "nonce",
          "type": "uint256"
        },
        {
          "internalType": "uint8",
          "name": "vN",
          "type": "uint8"
        },
        {
          "internalType": "bytes32",
          "name": "rN",
          "type": "bytes32"
        },
        {
          "internalType": "bytes32",
          "name": "sN",
          "type": "bytes32"
        }
      ],
      "name": "buyAssetApprove",
      "outputs": [
        {
          "internalType": "bool",
          "name": "",
          "type": "bool"
        }
      ],
      "stateMutability": "nonpayable",
      "type": "function"
    },
    {
      "inputs": [
        {
          "components": [
            {
              "internalType": "uint256",
              "name": "nftID",
              "type": "uint256"
            },
            {
              "internalType": "bool",
              "name": "new_env",
              "type": "bool"
            },
            {
              "internalType": "uint256",
              "name": "creatorUserID",
              "type": "uint256"
            },
            {
              "internalType": "string",
              "name": "creatorUsername",
              "type": "string"
            },
            {
              "internalType": "string",
              "name": "creatorName",
              "type": "string"
            },
            {
              "internalType": "address",
              "name": "creatorMetamaskId",
              "type": "address"
            },
            {
              "internalType": "string",
              "name": "associatedProjectName",
              "type": "string"
            },
            {
              "internalType": "string",
              "name": "associatedProjectUrl",
              "type": "string"
            },
            {
              "internalType": "string",
              "name": "assetName",
              "type": "string"
            },
            {
              "internalType": "enum NFTMarketV2.AssetType",
              "name": "assetType",
              "type": "uint8"
            },
            {
              "internalType": "string",
              "name": "assetDescription",
              "type": "string"
            },
            {
              "internalType": "string",
              "name": "assetOffer",
              "type": "string"
            },
            {
              "internalType": "string",
              "name": "assetTerms",
              "type": "string"
            },
            {
              "internalType": "string",
              "name": "assetImage",
              "type": "string"
            },
            {
              "internalType": "bool",
              "name": "isHidden",
              "type": "bool"
            },
            {
              "internalType": "bool",
              "name": "isPrivate",
              "type": "bool"
            },
            {
              "internalType": "bool",
              "name": "multiNft",
              "type": "bool"
            },
            {
              "internalType": "uint256",
              "name": "assetPrice",
              "type": "uint256"
            },
            {
              "internalType": "enum NFTMarketV2.Status",
              "name": "status",
              "type": "uint8"
            }
          ],
          "internalType": "struct NFTMarketV2.MarketItem",
          "name": "data",
          "type": "tuple"
        },
        {
          "internalType": "string",
          "name": "tokenUri",
          "type": "string"
        }
      ],
      "name": "createAsset",
      "outputs": [
        {
          "internalType": "bool",
          "name": "",
          "type": "bool"
        }
      ],
      "stateMutability": "nonpayable",
      "type": "function"
    },
    {
      "inputs": [
        {
          "components": [
            {
              "internalType": "uint256",
              "name": "nftID",
              "type": "uint256"
            },
            {
              "internalType": "bool",
              "name": "new_env",
              "type": "bool"
            },
            {
              "internalType": "uint256",
              "name": "creatorUserID",
              "type": "uint256"
            },
            {
              "internalType": "string",
              "name": "creatorUsername",
              "type": "string"
            },
            {
              "internalType": "string",
              "name": "creatorName",
              "type": "string"
            },
            {
              "internalType": "address",
              "name": "creatorMetamaskId",
              "type": "address"
            },
            {
              "internalType": "string",
              "name": "associatedProjectName",
              "type": "string"
            },
            {
              "internalType": "string",
              "name": "associatedProjectUrl",
              "type": "string"
            },
            {
              "internalType": "string",
              "name": "assetName",
              "type": "string"
            },
            {
              "internalType": "enum NFTMarketV2.AssetType",
              "name": "assetType",
              "type": "uint8"
            },
            {
              "internalType": "string",
              "name": "assetDescription",
              "type": "string"
            },
            {
              "internalType": "string",
              "name": "assetOffer",
              "type": "string"
            },
            {
              "internalType": "string",
              "name": "assetTerms",
              "type": "string"
            },
            {
              "internalType": "string",
              "name": "assetImage",
              "type": "string"
            },
            {
              "internalType": "bool",
              "name": "isHidden",
              "type": "bool"
            },
            {
              "internalType": "bool",
              "name": "isPrivate",
              "type": "bool"
            },
            {
              "internalType": "bool",
              "name": "multiNft",
              "type": "bool"
            },
            {
              "internalType": "uint256",
              "name": "assetPrice",
              "type": "uint256"
            },
            {
              "internalType": "enum NFTMarketV2.Status",
              "name": "status",
              "type": "uint8"
            }
          ],
          "internalType": "struct NFTMarketV2.MarketItem",
          "name": "data",
          "type": "tuple"
        }
      ],
      "name": "createAssetPending",
      "outputs": [
        {
          "internalType": "bool",
          "name": "",
          "type": "bool"
        }
      ],
      "stateMutability": "nonpayable",
      "type": "function"
    },
    {
      "inputs": [],
      "name": "getAllHashesLength",
      "outputs": [
        {
          "internalType": "uint256",
          "name": "",
          "type": "uint256"
        }
      ],
      "stateMutability": "view",
      "type": "function"
    },
    {
      "inputs": [
        {
          "internalType": "uint256",
          "name": "lowerBoundary",
          "type": "uint256"
        },
        {
          "internalType": "uint256",
          "name": "upperBoundary",
          "type": "uint256"
        }
      ],
      "name": "getAllMarketItem",
      "outputs": [
        {
          "components": [
            {
              "internalType": "uint256",
              "name": "nftID",
              "type": "uint256"
            },
            {
              "internalType": "bool",
              "name": "new_env",
              "type": "bool"
            },
            {
              "internalType": "uint256",
              "name": "creatorUserID",
              "type": "uint256"
            },
            {
              "internalType": "string",
              "name": "creatorUsername",
              "type": "string"
            },
            {
              "internalType": "string",
              "name": "creatorName",
              "type": "string"
            },
            {
              "internalType": "address",
              "name": "creatorMetamaskId",
              "type": "address"
            },
            {
              "internalType": "string",
              "name": "associatedProjectName",
              "type": "string"
            },
            {
              "internalType": "string",
              "name": "associatedProjectUrl",
              "type": "string"
            },
            {
              "internalType": "string",
              "name": "assetName",
              "type": "string"
            },
            {
              "internalType": "enum NFTMarketV2.AssetType",
              "name": "assetType",
              "type": "uint8"
            },
            {
              "internalType": "string",
              "name": "assetDescription",
              "type": "string"
            },
            {
              "internalType": "string",
              "name": "assetOffer",
              "type": "string"
            },
            {
              "internalType": "string",
              "name": "assetTerms",
              "type": "string"
            },
            {
              "internalType": "string",
              "name": "assetImage",
              "type": "string"
            },
            {
              "internalType": "bool",
              "name": "isHidden",
              "type": "bool"
            },
            {
              "internalType": "bool",
              "name": "isPrivate",
              "type": "bool"
            },
            {
              "internalType": "bool",
              "name": "multiNft",
              "type": "bool"
            },
            {
              "internalType": "uint256",
              "name": "assetPrice",
              "type": "uint256"
            },
            {
              "internalType": "enum NFTMarketV2.Status",
              "name": "status",
              "type": "uint8"
            }
          ],
          "internalType": "struct NFTMarketV2.MarketItem[]",
          "name": "",
          "type": "tuple[]"
        }
      ],
      "stateMutability": "view",
      "type": "function"
    },
    {
      "inputs": [
        {
          "internalType": "bytes",
          "name": "hash",
          "type": "bytes"
        }
      ],
      "name": "getMarketItem",
      "outputs": [
        {
          "components": [
            {
              "internalType": "uint256",
              "name": "nftID",
              "type": "uint256"
            },
            {
              "internalType": "bool",
              "name": "new_env",
              "type": "bool"
            },
            {
              "internalType": "uint256",
              "name": "creatorUserID",
              "type": "uint256"
            },
            {
              "internalType": "string",
              "name": "creatorUsername",
              "type": "string"
            },
            {
              "internalType": "string",
              "name": "creatorName",
              "type": "string"
            },
            {
              "internalType": "address",
              "name": "creatorMetamaskId",
              "type": "address"
            },
            {
              "internalType": "string",
              "name": "associatedProjectName",
              "type": "string"
            },
            {
              "internalType": "string",
              "name": "associatedProjectUrl",
              "type": "string"
            },
            {
              "internalType": "string",
              "name": "assetName",
              "type": "string"
            },
            {
              "internalType": "enum NFTMarketV2.AssetType",
              "name": "assetType",
              "type": "uint8"
            },
            {
              "internalType": "string",
              "name": "assetDescription",
              "type": "string"
            },
            {
              "internalType": "string",
              "name": "assetOffer",
              "type": "string"
            },
            {
              "internalType": "string",
              "name": "assetTerms",
              "type": "string"
            },
            {
              "internalType": "string",
              "name": "assetImage",
              "type": "string"
            },
            {
              "internalType": "bool",
              "name": "isHidden",
              "type": "bool"
            },
            {
              "internalType": "bool",
              "name": "isPrivate",
              "type": "bool"
            },
            {
              "internalType": "bool",
              "name": "multiNft",
              "type": "bool"
            },
            {
              "internalType": "uint256",
              "name": "assetPrice",
              "type": "uint256"
            },
            {
              "internalType": "enum NFTMarketV2.Status",
              "name": "status",
              "type": "uint8"
            }
          ],
          "internalType": "struct NFTMarketV2.MarketItem",
          "name": "",
          "type": "tuple"
        }
      ],
      "stateMutability": "view",
      "type": "function"
    },
    {
      "inputs": [
        {
          "internalType": "bytes",
          "name": "hash",
          "type": "bytes"
        }
      ],
      "name": "getMarketItemStatus",
      "outputs": [
        {
          "internalType": "string",
          "name": "",
          "type": "string"
        }
      ],
      "stateMutability": "view",
      "type": "function"
    },
    {
      "inputs": [
        {
          "internalType": "address",
          "name": "nftOwner",
          "type": "address"
        }
      ],
      "name": "mintNFT",
      "outputs": [
        {
          "internalType": "uint256",
          "name": "",
          "type": "uint256"
        }
      ],
      "stateMutability": "nonpayable",
      "type": "function"
    },
    {
      "inputs": [],
      "name": "owner",
      "outputs": [
        {
          "internalType": "address",
          "name": "",
          "type": "address"
        }
      ],
      "stateMutability": "view",
      "type": "function"
    },
    {
      "inputs": [],
      "name": "renounceOwnership",
      "outputs": [],
      "stateMutability": "nonpayable",
      "type": "function"
    },
    {
      "inputs": [
        {
          "internalType": "address",
          "name": "newOwner",
          "type": "address"
        }
      ],
      "name": "transferOwnership",
      "outputs": [],
      "stateMutability": "nonpayable",
      "type": "function"
    }
  ],
  "bytecode": "0x60806040527f6e71edae12b1b97f4d1f60370fef10105fa2faae0126114a169c64845d6126c960065566038d7ea4c6800060075534801561003f57600080fd5b50600160005561004e33610053565b6100a5565b600180546001600160a01b038381166001600160a01b0319831681179093556040519116919082907f8be0079c531659141344cd1fd0a4f28419497f9722a3daafe3b4186f6b6457e090600090a35050565b612eb580620000b56000396000f3fe608060405234801561001057600080fd5b50600436106101005760003560e01c806398f1970511610097578063e2208a6511610066578063e2208a6514610240578063ec597cd114610248578063f2fde38b14610268578063f7785a071461027b57600080fd5b806398f19705146101f4578063a189ebf614610207578063a92763281461021a578063b35f22ac1461022d57600080fd5b806372c40429116100d357806372c404291461017c57806380f12fcd146101c85780638da5cb5b146101d0578063982aaf6b146101eb57600080fd5b80634d5a35521461010557806354ba0f271461012e57806357bf03051461014f578063715018a614610172575b600080fd5b6101186101133660046122c8565b61029b565b6040516101259190612532565b60405180910390f35b61014161013c36600461255c565b6108cd565b604051908152602001610125565b61016261015d3660046127c8565b610968565b6040519015158152602001610125565b61017a610bfd565b005b61016261018a3660046127fd565b600480546001600160a01b03199081166001600160a01b039485161790915560058054821692909316918217909255600b8054909216179055600190565b600a54610141565b6001546040516001600160a01b039091168152602001610125565b61014160065481565b610162610202366004612841565b610c3c565b6101626102153660046128c6565b610e25565b61016261022836600461298e565b610ffc565b61016261023b366004612a17565b611345565b61014161163e565b61025b6102563660046122c8565b611716565b6040516101259190612a7b565b61017a61027636600461255c565b611748565b61028e610289366004612a8e565b6117e3565b6040516101259190612ab0565b6102a36120fd565b6009826040516102b39190612b12565b9081526040805191829003602090810183206102608401835280548452600181015460ff1615159184019190915260028101549183019190915260038101805460608401919061030290612b2e565b80601f016020809104026020016040519081016040528092919081815260200182805461032e90612b2e565b801561037b5780601f106103505761010080835404028352916020019161037b565b820191906000526020600020905b81548152906001019060200180831161035e57829003601f168201915b5050505050815260200160048201805461039490612b2e565b80601f01602080910402602001604051908101604052809291908181526020018280546103c090612b2e565b801561040d5780601f106103e25761010080835404028352916020019161040d565b820191906000526020600020905b8154815290600101906020018083116103f057829003601f168201915b505050918352505060058201546001600160a01b0316602082015260068201805460409092019161043d90612b2e565b80601f016020809104026020016040519081016040528092919081815260200182805461046990612b2e565b80156104b65780601f1061048b576101008083540402835291602001916104b6565b820191906000526020600020905b81548152906001019060200180831161049957829003601f168201915b505050505081526020016007820180546104cf90612b2e565b80601f01602080910402602001604051908101604052809291908181526020018280546104fb90612b2e565b80156105485780601f1061051d57610100808354040283529160200191610548565b820191906000526020600020905b81548152906001019060200180831161052b57829003601f168201915b5050505050815260200160088201805461056190612b2e565b80601f016020809104026020016040519081016040528092919081815260200182805461058d90612b2e565b80156105da5780601f106105af576101008083540402835291602001916105da565b820191906000526020600020905b8154815290600101906020018083116105bd57829003601f168201915b5050509183525050600982015460209091019060ff16600481111561060157610601612355565b600481111561061257610612612355565b8152602001600a8201805461062690612b2e565b80601f016020809104026020016040519081016040528092919081815260200182805461065290612b2e565b801561069f5780601f106106745761010080835404028352916020019161069f565b820191906000526020600020905b81548152906001019060200180831161068257829003601f168201915b50505050508152602001600b820180546106b890612b2e565b80601f01602080910402602001604051908101604052809291908181526020018280546106e490612b2e565b80156107315780601f1061070657610100808354040283529160200191610731565b820191906000526020600020905b81548152906001019060200180831161071457829003601f168201915b50505050508152602001600c8201805461074a90612b2e565b80601f016020809104026020016040519081016040528092919081815260200182805461077690612b2e565b80156107c35780601f10610798576101008083540402835291602001916107c3565b820191906000526020600020905b8154815290600101906020018083116107a657829003601f168201915b50505050508152602001600d820180546107dc90612b2e565b80601f016020809104026020016040519081016040528092919081815260200182805461080890612b2e565b80156108555780601f1061082a57610100808354040283529160200191610855565b820191906000526020600020905b81548152906001019060200180831161083857829003601f168201915b5050509183525050600e82015460ff80821615156020840152610100820481161515604084015262010000909104811615156060830152600f8301546080830152601083015460a0909201911660028111156108b3576108b3612355565b60028111156108c4576108c4612355565b90525092915050565b600480546040805163a211937760e01b8152928301526008604483015267746f6b656e55726960c01b60648301526001600160a01b0383811660248401526000928392919091169063a2119377906084016020604051808303816000875af115801561093d573d6000803e3d6000fd5b505050506040513d601f19601f820116820180604052508101906109619190612b68565b9392505050565b6000806109b88360400151846000015185610100015186610120015187610140015160405160200161099e959493929190612b81565b604051602081830303815290604052805160209091012090565b6040516020016109ca91815260200190565b6040516020818303038152906040529050826009826040516109ec9190612b12565b9081526040805160209281900383019020835181559183015160018301805460ff1916911515919091179055820151600282015560608201516003820190610a349082612c2b565b5060808201516004820190610a499082612c2b565b5060a08201516005820180546001600160a01b0319166001600160a01b0390921691909117905560c08201516006820190610a849082612c2b565b5060e08201516007820190610a999082612c2b565b506101008201516008820190610aaf9082612c2b565b5061012082015160098201805460ff19166001836004811115610ad457610ad4612355565b0217905550610140820151600a820190610aee9082612c2b565b50610160820151600b820190610b049082612c2b565b50610180820151600c820190610b1a9082612c2b565b506101a0820151600d820190610b309082612c2b565b506101c0820151600e820180546101e08501516102008601511515620100000262ff0000199115156101000261ff00199515159590951661ffff19909316929092179390931792909216919091179055610220820151600f82015561024082015160108201805460ff19166001836002811115610baf57610baf612355565b021790555050600a80546001810182556000919091527fc65a7bb8d6351c1cf70c95a316cc6a92839c986682d98bc35f958f4883f9d2a8019050610bf38282612c2b565b5060019392505050565b6001546001600160a01b03163314610c305760405162461bcd60e51b8152600401610c2790612ceb565b60405180910390fd5b610c3a6000611fea565b565b6000610c466121c1565b8881526001600160a01b03808c1660208084019182528683166040808601828152606087018981526000938452600885528284208a8552909452918190208651815593516001850180549187166001600160a01b0319928316179055915160028501805491871691909316179091559051600390920191909155600554905163d505accf60e01b815291169063d505accf90610cf2908e908e908e908e908e908e908e90600401612d20565b600060405180830381600087803b158015610d0c57600080fd5b505af1158015610d20573d6000803e3d6000fd5b5050600554604051633950935160e01b81526001600160a01b038e81166004830152602482018e90529091169250633950935191506044016020604051808303816000875af1158015610d77573d6000803e3d6000fd5b505050506040513d601f19601f82011682018060405250810190610d9b9190612d61565b506005546040516323b872dd60e01b81526001600160a01b03909116906323b872dd90610dd0908e9030908e90600401612d7e565b6020604051808303816000875af1158015610def573d6000803e3d6000fd5b505050506040513d601f19601f82011682018060405250810190610e139190612d61565b5060019b9a5050505050505050505050565b6004805460405163a211937760e01b815260009283926001600160a01b03169163a211937791610e59918f91339101612da2565b6020604051808303816000875af1158015610e78573d6000803e3d6000fd5b505050506040513d601f19601f82011682018060405250810190610e9c9190612b68565b90508060098d604051610eaf9190612b12565b90815260405190819003602001812091909155600190600990610ed3908f90612b12565b908152604051908190036020019020601001805460ff19166001836002811115610eff57610eff612355565b021790555060055460405163d505accf60e01b81526001600160a01b039091169063d505accf90610f40908d9030908d908d908d908d908d90600401612d20565b600060405180830381600087803b158015610f5a57600080fd5b505af1158015610f6e573d6000803e3d6000fd5b50506005546040516323b872dd60e01b81526001600160a01b0390911692506323b872dd9150610fa6908d908d908890600401612d7e565b6020604051808303816000875af1158015610fc5573d6000803e3d6000fd5b505050506040513d601f19601f82011682018060405250810190610fe99190612d61565b5060019c9b505050505050505050505050565b60006110066121c1565b506001600160a01b03808c1660009081526008602090815260408083208e845282528083208151608081018352815481526001820154861693810193909352600281015490941690820152600390920154606083015261106461163e565b600654602084810151855160408051808501959095526001600160a01b0390921684830152306060850152608084015260a083018b905260c08084018d90528151808503909101815260e08401909152805191012061190160f01b6101008301526101028201929092526101228101919091526101420160408051601f1981840301815282825280516020918201206000845290830180835281905260ff8e1691830191909152606082018c9052608082018b9052915060019060a0016020604051602081039080840390855afa158015611143573d6000803e3d6000fd5b505050602060405103516001600160a01b031682602001516001600160a01b0316146111a65760405162461bcd60e51b8152602060048201526012602482015271496e76616c6964205369676e61747572652160701b6044820152606401610c27565b600560009054906101000a90046001600160a01b03166001600160a01b03166323b872dd308f85600001516040518463ffffffff1660e01b81526004016111ef93929190612d7e565b6020604051808303816000875af115801561120e573d6000803e3d6000fd5b505050506040513d601f19601f820116820180604052508101906112329190612d61565b5060048054604051637ac2ff7b60e01b81523092810192909252602482018e9052604482018a905260ff881660648301526084820187905260a482018690526001600160a01b031690637ac2ff7b9060c401600060405180830381600087803b15801561129e57600080fd5b505af11580156112b2573d6000803e3d6000fd5b50505050600460009054906101000a90046001600160a01b03166001600160a01b03166323b872dd8e84602001518f6040518463ffffffff1660e01b81526004016112ff93929190612d7e565b600060405180830381600087803b15801561131957600080fd5b505af115801561132d573d6000803e3d6000fd5b505050506001925050509a9950505050505050505050565b6004805460405163a211937760e01b815260009283926001600160a01b03169163a211937791611379918791339101612da2565b6020604051808303816000875af1158015611398573d6000803e3d6000fd5b505050506040513d601f19601f820116820180604052508101906113bc9190612b68565b80855260408086015161010087015161012088015161014089015193519495506000946113f79461099e949388939092909190602001612b81565b60405160200161140991815260200190565b60405160208183030381529060405290508460098260405161142b9190612b12565b9081526040805160209281900383019020835181559183015160018301805460ff19169115159190911790558201516002820155606082015160038201906114739082612c2b565b50608082015160048201906114889082612c2b565b5060a08201516005820180546001600160a01b0319166001600160a01b0390921691909117905560c082015160068201906114c39082612c2b565b5060e082015160078201906114d89082612c2b565b5061010082015160088201906114ee9082612c2b565b5061012082015160098201805460ff1916600183600481111561151357611513612355565b0217905550610140820151600a82019061152d9082612c2b565b50610160820151600b8201906115439082612c2b565b50610180820151600c8201906115599082612c2b565b506101a0820151600d82019061156f9082612c2b565b506101c0820151600e820180546101e08501516102008601511515620100000262ff0000199115156101000261ff00199515159590951661ffff19909316929092179390931792909216919091179055610220820151600f82015561024082015160108201805460ff191660018360028111156115ee576115ee612355565b021790555050600a80546001810182556000919091527fc65a7bb8d6351c1cf70c95a316cc6a92839c986682d98bc35f958f4883f9d2a80190506116328282612c2b565b50600195945050505050565b60408051808201825260048152634165726f60e01b6020918201528151808301835260018152603160f81b90820152600b5482517f8b73c3c69bb8fe3d512ecc4cf759cc79239f7b179b0ffacaa9a75d522b39400f818401527fbf01fc4e5f7eb1f2eee29681cd6d2cda1045d51fd80c223d1eaea49e08734bf9818501527fc89efdaa54c0f20c7adf612882df0950f5a951637e0307cdcb4c672f298b8bc660608201524660808201526001600160a01b0390911660a0808301919091528351808303909101815260c0909101909252815191012090565b6060600061096160098460405161172d9190612b12565b9081526040519081900360200190206010015460ff1661203c565b6001546001600160a01b031633146117725760405162461bcd60e51b8152600401610c2790612ceb565b6001600160a01b0381166117d75760405162461bcd60e51b815260206004820152602660248201527f4f776e61626c653a206e6577206f776e657220697320746865207a65726f206160448201526564647265737360d01b6064820152608401610c27565b6117e081611fea565b50565b6001546060906001600160a01b031633146118105760405162461bcd60e51b8152600401610c2790612ceb565b600a5460018110156118575760405162461bcd60e51b815260206004820152601060248201526f6173736574732061726520656d70747960801b6044820152606401610c27565b808411158015611865575060015b6118d75760405162461bcd60e51b815260206004820152603f60248201527f6c6f77657220626f756e646172792073686f756c64206265206c657373206f7260448201527f20657175616c20746f2073697a6520616e64206e6f6e206e65676174697665006064820152608401610c27565b8083111580156118e5575060015b6119575760405162461bcd60e51b815260206004820152603f60248201527f757070657220626f756e646172792073686f756c64206265206c657373206f7260448201527f20657175616c20746f2073697a6520616e64206e6f6e206e65676174697665006064820152608401610c27565b60606000855b858111611fdf576009600a828154811061197957611979612dcc565b906000526020600020016040516119909190612de2565b9081526040805191829003602090810183206102608401835280548452600181015460ff161515918401919091526002810154918301919091526003810180546060840191906119df90612b2e565b80601f0160208091040260200160405190810160405280929190818152602001828054611a0b90612b2e565b8015611a585780601f10611a2d57610100808354040283529160200191611a58565b820191906000526020600020905b815481529060010190602001808311611a3b57829003601f168201915b50505050508152602001600482018054611a7190612b2e565b80601f0160208091040260200160405190810160405280929190818152602001828054611a9d90612b2e565b8015611aea5780601f10611abf57610100808354040283529160200191611aea565b820191906000526020600020905b815481529060010190602001808311611acd57829003601f168201915b505050918352505060058201546001600160a01b03166020820152600682018054604090920191611b1a90612b2e565b80601f0160208091040260200160405190810160405280929190818152602001828054611b4690612b2e565b8015611b935780601f10611b6857610100808354040283529160200191611b93565b820191906000526020600020905b815481529060010190602001808311611b7657829003601f168201915b50505050508152602001600782018054611bac90612b2e565b80601f0160208091040260200160405190810160405280929190818152602001828054611bd890612b2e565b8015611c255780601f10611bfa57610100808354040283529160200191611c25565b820191906000526020600020905b815481529060010190602001808311611c0857829003601f168201915b50505050508152602001600882018054611c3e90612b2e565b80601f0160208091040260200160405190810160405280929190818152602001828054611c6a90612b2e565b8015611cb75780601f10611c8c57610100808354040283529160200191611cb7565b820191906000526020600020905b815481529060010190602001808311611c9a57829003601f168201915b5050509183525050600982015460209091019060ff166004811115611cde57611cde612355565b6004811115611cef57611cef612355565b8152602001600a82018054611d0390612b2e565b80601f0160208091040260200160405190810160405280929190818152602001828054611d2f90612b2e565b8015611d7c5780601f10611d5157610100808354040283529160200191611d7c565b820191906000526020600020905b815481529060010190602001808311611d5f57829003601f168201915b50505050508152602001600b82018054611d9590612b2e565b80601f0160208091040260200160405190810160405280929190818152602001828054611dc190612b2e565b8015611e0e5780601f10611de357610100808354040283529160200191611e0e565b820191906000526020600020905b815481529060010190602001808311611df157829003601f168201915b50505050508152602001600c82018054611e2790612b2e565b80601f0160208091040260200160405190810160405280929190818152602001828054611e5390612b2e565b8015611ea05780601f10611e7557610100808354040283529160200191611ea0565b820191906000526020600020905b815481529060010190602001808311611e8357829003601f168201915b50505050508152602001600d82018054611eb990612b2e565b80601f0160208091040260200160405190810160405280929190818152602001828054611ee590612b2e565b8015611f325780601f10611f0757610100808354040283529160200191611f32565b820191906000526020600020905b815481529060010190602001808311611f1557829003601f168201915b5050509183525050600e82015460ff80821615156020840152610100820481161515604084015262010000909104811615156060830152600f8301546080830152601083015460a090920191166002811115611f9057611f90612355565b6002811115611fa157611fa1612355565b9052508383611faf81612e58565b945081518110611fc157611fc1612dcc565b60200260200101819052508080611fd790612e58565b91505061195d565b509095945050505050565b600180546001600160a01b038381166001600160a01b0319831681179093556040519116919082907f8be0079c531659141344cd1fd0a4f28419497f9722a3daafe3b4186f6b6457e090600090a35050565b6060600382600281111561205257612052612355565b60ff16111561206057600080fd5b81600281111561207257612072612355565b60000361209c57505060408051808201909152600781526650656e64696e6760c81b602082015290565b8160028111156120ae576120ae612355565b6001036120d857505060408051808201909152600781526610dc99585d195960ca1b602082015290565b505060408051808201909152600481526314dbdb1960e21b602082015290565b919050565b6040518061026001604052806000815260200160001515815260200160008152602001606081526020016060815260200160006001600160a01b031681526020016060815260200160608152602001606081526020016000600481111561216657612166612355565b81526020016060815260200160608152602001606081526020016060815260200160001515815260200160001515815260200160001515815260200160008152602001600060028111156121bc576121bc612355565b905290565b60405180608001604052806000815260200160006001600160a01b0316815260200160006001600160a01b03168152602001600081525090565b634e487b7160e01b600052604160045260246000fd5b604051610260810167ffffffffffffffff81118282101715612235576122356121fb565b60405290565b600082601f83011261224c57600080fd5b813567ffffffffffffffff80821115612267576122676121fb565b604051601f8301601f19908116603f0116810190828211818310171561228f5761228f6121fb565b816040528381528660208588010111156122a857600080fd5b836020870160208301376000602085830101528094505050505092915050565b6000602082840312156122da57600080fd5b813567ffffffffffffffff8111156122f157600080fd5b6122fd8482850161223b565b949350505050565b60005b83811015612320578181015183820152602001612308565b50506000910152565b60008151808452612341816020860160208601612305565b601f01601f19169290920160200192915050565b634e487b7160e01b600052602160045260246000fd5b6005811061237b5761237b612355565b9052565b6003811061237b5761237b612355565b60006102608251845260208301516123ab602086018215159052565b506040830151604085015260608301518160608601526123cd82860182612329565b915050608083015184820360808601526123e78282612329565b91505060a083015161240460a08601826001600160a01b03169052565b5060c083015184820360c086015261241c8282612329565b91505060e083015184820360e08601526124368282612329565b91505061010080840151858303828701526124518382612329565b92505050610120808401516124688287018261236b565b505061014080840151858303828701526124828382612329565b92505050610160808401518583038287015261249e8382612329565b9250505061018080840151858303828701526124ba8382612329565b925050506101a080840151858303828701526124d68382612329565b925050506101c0808401516124ee8287018215159052565b50506101e083810151151590850152610200808401511515908501526102208084015190850152610240808401516125288287018261237f565b5090949350505050565b602081526000610961602083018461238f565b80356001600160a01b03811681146120f857600080fd5b60006020828403121561256e57600080fd5b61096182612545565b80151581146117e057600080fd5b80356120f881612577565b8035600581106120f857600080fd5b8035600381106120f857600080fd5b600061026082840312156125c157600080fd5b6125c9612211565b9050813581526125db60208301612585565b602082015260408201356040820152606082013567ffffffffffffffff8082111561260557600080fd5b6126118583860161223b565b6060840152608084013591508082111561262a57600080fd5b6126368583860161223b565b608084015261264760a08501612545565b60a084015260c084013591508082111561266057600080fd5b61266c8583860161223b565b60c084015260e084013591508082111561268557600080fd5b6126918583860161223b565b60e0840152610100915081840135818111156126ac57600080fd5b6126b88682870161223b565b838501525061012091506126cd828501612590565b82840152610140915081840135818111156126e757600080fd5b6126f38682870161223b565b83850152506101609150818401358181111561270e57600080fd5b61271a8682870161223b565b83850152506101809150818401358181111561273557600080fd5b6127418682870161223b565b83850152506101a09150818401358181111561275c57600080fd5b6127688682870161223b565b838501525050506101c061277d818401612585565b908201526101e061278f838201612585565b908201526102006127a1838201612585565b9082015261022082810135908201526102406127be81840161259f565b9082015292915050565b6000602082840312156127da57600080fd5b813567ffffffffffffffff8111156127f157600080fd5b6122fd848285016125ae565b6000806040838503121561281057600080fd5b61281983612545565b915061282760208401612545565b90509250929050565b803560ff811681146120f857600080fd5b60008060008060008060008060006101208a8c03121561286057600080fd5b6128698a612545565b985061287760208b01612545565b975060408a0135965060608a0135955061289360808b01612830565b945060a08a0135935060c08a013592506128af60e08b01612545565b91506101008a013590509295985092959850929598565b6000806000806000806000806000806101408b8d0312156128e657600080fd5b8a3567ffffffffffffffff808211156128fe57600080fd5b61290a8e838f0161223b565b9b5060208d013591508082111561292057600080fd5b5061292d8d828e0161223b565b99505061293c60408c01612545565b975061294a60608c01612545565b965060808b0135955060a08b0135945061296660c08c01612830565b935060e08b013592506101008b013591506101208b013590509295989b9194979a5092959850565b6000806000806000806000806000806101408b8d0312156129ae57600080fd5b6129b78b612545565b995060208b013598506129cc60408c01612830565b975060608b0135965060808b0135955060a08b0135945060c08b013593506129f660e08c01612830565b92506101008b013591506101208b013590509295989b9194979a5092959850565b60008060408385031215612a2a57600080fd5b823567ffffffffffffffff80821115612a4257600080fd5b612a4e868387016125ae565b93506020850135915080821115612a6457600080fd5b50612a718582860161223b565b9150509250929050565b6020815260006109616020830184612329565b60008060408385031215612aa157600080fd5b50508035926020909101359150565b6000602080830181845280855180835260408601915060408160051b870101925083870160005b82811015612b0557603f19888603018452612af385835161238f565b94509285019290850190600101612ad7565b5092979650505050505050565b60008251612b24818460208701612305565b9190910192915050565b600181811c90821680612b4257607f821691505b602082108103612b6257634e487b7160e01b600052602260045260246000fd5b50919050565b600060208284031215612b7a57600080fd5b5051919050565b85815284602082015260008451612b9f816040850160208901612305565b820160058510612bb157612bb1612355565b8460f81b60408201528351612bcd816041840160208801612305565b01604101979650505050505050565b601f821115612c2657600081815260208120601f850160051c81016020861015612c035750805b601f850160051c820191505b81811015612c2257828155600101612c0f565b5050505b505050565b815167ffffffffffffffff811115612c4557612c456121fb565b612c5981612c538454612b2e565b84612bdc565b602080601f831160018114612c8e5760008415612c765750858301515b600019600386901b1c1916600185901b178555612c22565b600085815260208120601f198616915b82811015612cbd57888601518255948401946001909101908401612c9e565b5085821015612cdb5787850151600019600388901b60f8161c191681555b5050505050600190811b01905550565b6020808252818101527f4f776e61626c653a2063616c6c6572206973206e6f7420746865206f776e6572604082015260600190565b6001600160a01b0397881681529590961660208601526040850193909352606084019190915260ff16608083015260a082015260c081019190915260e00190565b600060208284031215612d7357600080fd5b815161096181612577565b6001600160a01b039384168152919092166020820152604081019190915260600190565b604081526000612db56040830185612329565b905060018060a01b03831660208301529392505050565b634e487b7160e01b600052603260045260246000fd5b6000808354612df081612b2e565b60018281168015612e085760018114612e1d57612e4c565b60ff1984168752821515830287019450612e4c565b8760005260208060002060005b85811015612e435781548a820152908401908201612e2a565b50505082870194505b50929695505050505050565b600060018201612e7857634e487b7160e01b600052601160045260246000fd5b506001019056fea2646970667358221220c983b491f6e680401b4fecb179dc380086cfcf5d425a63a910ac0940040de18564736f6c63430008110033",
  "linkReferences": {},
  "deployedLinkReferences": {}
}