{
  "_format": "hh-sol-artifact-1",
  "contractName": "NFTMarketV2",
  "sourceName": "contracts/v2/NFTMarketV2.sol",
  "abi": [
    {
      "inputs": [],
      "stateMutability": "nonpayable",
      "type": "constructor"
    },
    {
      "anonymous": false,
      "inputs": [
        {
          "indexed": false,
          "internalType": "bytes32",
          "name": "hash",
          "type": "bytes32"
        },
        {
          "indexed": false,
          "internalType": "uint256",
          "name": "tokenId",
          "type": "uint256"
        }
      ],
      "name": "AssetForSellCreated",
      "type": "event"
    },
    {
      "anonymous": false,
      "inputs": [
        {
          "indexed": false,
          "internalType": "bytes32",
          "name": "assetHash",
          "type": "bytes32"
        }
      ],
      "name": "CreateAsset",
      "type": "event"
    },
    {
      "anonymous": false,
      "inputs": [
        {
          "indexed": false,
          "internalType": "bytes32",
          "name": "assetPendingHash",
          "type": "bytes32"
        }
      ],
      "name": "CreateAssetPending",
      "type": "event"
    },
    {
      "anonymous": false,
      "inputs": [
        {
          "indexed": false,
          "internalType": "address",
          "name": "nft",
          "type": "address"
        },
        {
          "indexed": false,
          "internalType": "address",
          "name": "aero",
          "type": "address"
        }
      ],
      "name": "Instance",
      "type": "event"
    },
    {
      "anonymous": false,
      "inputs": [
        {
          "indexed": false,
          "internalType": "uint256",
          "name": "tokenId",
          "type": "uint256"
        }
      ],
      "name": "MintNFT",
      "type": "event"
    },
    {
      "anonymous": false,
      "inputs": [
        {
          "indexed": true,
          "internalType": "address",
          "name": "previousOwner",
          "type": "address"
        },
        {
          "indexed": true,
          "internalType": "address",
          "name": "newOwner",
          "type": "address"
        }
      ],
      "name": "OwnershipTransferred",
      "type": "event"
    },
    {
      "inputs": [],
      "name": "ERC20_DOMAIN_SEPARATOR",
      "outputs": [
        {
          "internalType": "bytes32",
          "name": "",
          "type": "bytes32"
        }
      ],
      "stateMutability": "view",
      "type": "function"
    },
    {
      "inputs": [],
      "name": "_PERMIT_TYPEHASH",
      "outputs": [
        {
          "internalType": "bytes32",
          "name": "",
          "type": "bytes32"
        }
      ],
      "stateMutability": "view",
      "type": "function"
    },
    {
      "inputs": [
        {
          "internalType": "bytes32",
          "name": "hash",
          "type": "bytes32"
        },
        {
          "internalType": "string",
          "name": "tokenUri",
          "type": "string"
        },
        {
          "internalType": "address",
          "name": "signer",
          "type": "address"
        },
        {
          "internalType": "address",
          "name": "spender",
          "type": "address"
        },
        {
          "internalType": "address",
          "name": "projectOwner",
          "type": "address"
        },
        {
          "internalType": "uint256",
          "name": "value",
          "type": "uint256"
        },
        {
          "internalType": "uint256",
          "name": "deadline",
          "type": "uint256"
        },
        {
          "internalType": "uint8",
          "name": "v",
          "type": "uint8"
        },
        {
          "internalType": "bytes32",
          "name": "r",
          "type": "bytes32"
        },
        {
          "internalType": "bytes32",
          "name": "s",
          "type": "bytes32"
        }
      ],
      "name": "approvePendingAsset",
      "outputs": [],
      "stateMutability": "nonpayable",
      "type": "function"
    },
    {
      "inputs": [
        {
          "internalType": "address",
          "name": "nftContractAddress",
          "type": "address"
        },
        {
          "internalType": "address",
          "name": "aeroContractAddress",
          "type": "address"
        }
      ],
      "name": "assignDeployedAddressToInstance",
      "outputs": [
        {
          "internalType": "bool",
          "name": "",
          "type": "bool"
        }
      ],
      "stateMutability": "nonpayable",
      "type": "function"
    },
    {
      "inputs": [
        {
          "internalType": "address",
          "name": "owner",
          "type": "address"
        },
        {
          "internalType": "address",
          "name": "spender",
          "type": "address"
        },
        {
          "internalType": "uint256",
          "name": "value",
          "type": "uint256"
        },
        {
          "internalType": "uint256",
          "name": "deadline",
          "type": "uint256"
        },
        {
          "internalType": "uint8",
          "name": "v",
          "type": "uint8"
        },
        {
          "internalType": "bytes32",
          "name": "r",
          "type": "bytes32"
        },
        {
          "internalType": "bytes32",
          "name": "s",
          "type": "bytes32"
        },
        {
          "internalType": "uint256",
          "name": "_NFTTokenId",
          "type": "uint256"
        }
      ],
      "name": "buyAsset",
      "outputs": [],
      "stateMutability": "nonpayable",
      "type": "function"
    },
    {
      "inputs": [
        {
          "internalType": "address",
          "name": "nftOwner",
          "type": "address"
        },
        {
          "internalType": "uint256",
          "name": "_tokenId",
          "type": "uint256"
        },
        {
          "internalType": "uint8",
          "name": "v",
          "type": "uint8"
        },
        {
          "internalType": "bytes32",
          "name": "r",
          "type": "bytes32"
        },
        {
          "internalType": "bytes32",
          "name": "s",
          "type": "bytes32"
        },
        {
          "internalType": "uint256",
          "name": "deadline",
          "type": "uint256"
        },
        {
          "internalType": "uint256",
          "name": "nonce",
          "type": "uint256"
        },
        {
          "internalType": "uint8",
          "name": "vN",
          "type": "uint8"
        },
        {
          "internalType": "bytes32",
          "name": "rN",
          "type": "bytes32"
        },
        {
          "internalType": "bytes32",
          "name": "sN",
          "type": "bytes32"
        }
      ],
      "name": "buyAssetApprove",
      "outputs": [],
      "stateMutability": "nonpayable",
      "type": "function"
    },
    {
      "inputs": [
        {
          "internalType": "address",
          "name": "owner",
          "type": "address"
        },
        {
          "internalType": "address",
          "name": "spender",
          "type": "address"
        },
        {
          "internalType": "uint256",
          "name": "value",
          "type": "uint256"
        },
        {
          "internalType": "uint256",
          "name": "deadline",
          "type": "uint256"
        },
        {
          "internalType": "uint8",
          "name": "v",
          "type": "uint8"
        },
        {
          "internalType": "bytes32",
          "name": "r",
          "type": "bytes32"
        },
        {
          "internalType": "bytes32",
          "name": "s",
          "type": "bytes32"
        },
        {
          "internalType": "address",
          "name": "nftOwner",
          "type": "address"
        },
        {
          "internalType": "uint256",
          "name": "_tokenId",
          "type": "uint256"
        }
      ],
      "name": "buyAssetRequest",
      "outputs": [],
      "stateMutability": "nonpayable",
      "type": "function"
    },
    {
      "inputs": [
        {
          "components": [
            {
              "internalType": "uint256",
              "name": "nftID",
              "type": "uint256"
            },
            {
              "internalType": "bool",
              "name": "new_env",
              "type": "bool"
            },
            {
              "internalType": "uint256",
              "name": "creatorUserID",
              "type": "uint256"
            },
            {
              "internalType": "string",
              "name": "creatorUsername",
              "type": "string"
            },
            {
              "internalType": "string",
              "name": "creatorName",
              "type": "string"
            },
            {
              "internalType": "address",
              "name": "creatorMetamaskId",
              "type": "address"
            },
            {
              "internalType": "string",
              "name": "associatedProjectName",
              "type": "string"
            },
            {
              "internalType": "string",
              "name": "associatedProjectUrl",
              "type": "string"
            },
            {
              "internalType": "string",
              "name": "assetName",
              "type": "string"
            },
            {
              "internalType": "enum NFTMarketV2.AssetType",
              "name": "assetType",
              "type": "uint8"
            },
            {
              "internalType": "string",
              "name": "assetDescription",
              "type": "string"
            },
            {
              "internalType": "string",
              "name": "assetOffer",
              "type": "string"
            },
            {
              "internalType": "string",
              "name": "assetTerms",
              "type": "string"
            },
            {
              "internalType": "string",
              "name": "assetImage",
              "type": "string"
            },
            {
              "internalType": "bool",
              "name": "isHidden",
              "type": "bool"
            },
            {
              "internalType": "bool",
              "name": "isPrivate",
              "type": "bool"
            },
            {
              "internalType": "bool",
              "name": "multiNft",
              "type": "bool"
            },
            {
              "internalType": "uint256",
              "name": "assetPrice",
              "type": "uint256"
            },
            {
              "internalType": "enum NFTMarketV2.Status",
              "name": "status",
              "type": "uint8"
            },
            {
              "internalType": "bool",
              "name": "requestApproval",
              "type": "bool"
            }
          ],
          "internalType": "struct NFTMarketV2.MarketItem",
          "name": "data",
          "type": "tuple"
        },
        {
          "internalType": "string",
          "name": "tokenUri",
          "type": "string"
        }
      ],
      "name": "createAsset",
      "outputs": [],
      "stateMutability": "nonpayable",
      "type": "function"
    },
    {
      "inputs": [
        {
          "components": [
            {
              "internalType": "uint256",
              "name": "nftID",
              "type": "uint256"
            },
            {
              "internalType": "bool",
              "name": "new_env",
              "type": "bool"
            },
            {
              "internalType": "uint256",
              "name": "creatorUserID",
              "type": "uint256"
            },
            {
              "internalType": "string",
              "name": "creatorUsername",
              "type": "string"
            },
            {
              "internalType": "string",
              "name": "creatorName",
              "type": "string"
            },
            {
              "internalType": "address",
              "name": "creatorMetamaskId",
              "type": "address"
            },
            {
              "internalType": "string",
              "name": "associatedProjectName",
              "type": "string"
            },
            {
              "internalType": "string",
              "name": "associatedProjectUrl",
              "type": "string"
            },
            {
              "internalType": "string",
              "name": "assetName",
              "type": "string"
            },
            {
              "internalType": "enum NFTMarketV2.AssetType",
              "name": "assetType",
              "type": "uint8"
            },
            {
              "internalType": "string",
              "name": "assetDescription",
              "type": "string"
            },
            {
              "internalType": "string",
              "name": "assetOffer",
              "type": "string"
            },
            {
              "internalType": "string",
              "name": "assetTerms",
              "type": "string"
            },
            {
              "internalType": "string",
              "name": "assetImage",
              "type": "string"
            },
            {
              "internalType": "bool",
              "name": "isHidden",
              "type": "bool"
            },
            {
              "internalType": "bool",
              "name": "isPrivate",
              "type": "bool"
            },
            {
              "internalType": "bool",
              "name": "multiNft",
              "type": "bool"
            },
            {
              "internalType": "uint256",
              "name": "assetPrice",
              "type": "uint256"
            },
            {
              "internalType": "enum NFTMarketV2.Status",
              "name": "status",
              "type": "uint8"
            },
            {
              "internalType": "bool",
              "name": "requestApproval",
              "type": "bool"
            }
          ],
          "internalType": "struct NFTMarketV2.MarketItem",
          "name": "data",
          "type": "tuple"
        },
        {
          "internalType": "string",
          "name": "tokenUri",
          "type": "string"
        },
        {
          "internalType": "uint8",
          "name": "v",
          "type": "uint8"
        },
        {
          "internalType": "bytes32",
          "name": "r",
          "type": "bytes32"
        },
        {
          "internalType": "bytes32",
          "name": "s",
          "type": "bytes32"
        },
        {
          "internalType": "uint256",
          "name": "deadline",
          "type": "uint256"
        },
        {
          "internalType": "uint256",
          "name": "tokenId",
          "type": "uint256"
        }
      ],
      "name": "createAssetForSell",
      "outputs": [],
      "stateMutability": "nonpayable",
      "type": "function"
    },
    {
      "inputs": [
        {
          "components": [
            {
              "internalType": "uint256",
              "name": "nftID",
              "type": "uint256"
            },
            {
              "internalType": "bool",
              "name": "new_env",
              "type": "bool"
            },
            {
              "internalType": "uint256",
              "name": "creatorUserID",
              "type": "uint256"
            },
            {
              "internalType": "string",
              "name": "creatorUsername",
              "type": "string"
            },
            {
              "internalType": "string",
              "name": "creatorName",
              "type": "string"
            },
            {
              "internalType": "address",
              "name": "creatorMetamaskId",
              "type": "address"
            },
            {
              "internalType": "string",
              "name": "associatedProjectName",
              "type": "string"
            },
            {
              "internalType": "string",
              "name": "associatedProjectUrl",
              "type": "string"
            },
            {
              "internalType": "string",
              "name": "assetName",
              "type": "string"
            },
            {
              "internalType": "enum NFTMarketV2.AssetType",
              "name": "assetType",
              "type": "uint8"
            },
            {
              "internalType": "string",
              "name": "assetDescription",
              "type": "string"
            },
            {
              "internalType": "string",
              "name": "assetOffer",
              "type": "string"
            },
            {
              "internalType": "string",
              "name": "assetTerms",
              "type": "string"
            },
            {
              "internalType": "string",
              "name": "assetImage",
              "type": "string"
            },
            {
              "internalType": "bool",
              "name": "isHidden",
              "type": "bool"
            },
            {
              "internalType": "bool",
              "name": "isPrivate",
              "type": "bool"
            },
            {
              "internalType": "bool",
              "name": "multiNft",
              "type": "bool"
            },
            {
              "internalType": "uint256",
              "name": "assetPrice",
              "type": "uint256"
            },
            {
              "internalType": "enum NFTMarketV2.Status",
              "name": "status",
              "type": "uint8"
            },
            {
              "internalType": "bool",
              "name": "requestApproval",
              "type": "bool"
            }
          ],
          "internalType": "struct NFTMarketV2.MarketItem",
          "name": "data",
          "type": "tuple"
        }
      ],
      "name": "createAssetPending",
      "outputs": [
        {
          "internalType": "bytes32",
          "name": "",
          "type": "bytes32"
        }
      ],
      "stateMutability": "nonpayable",
      "type": "function"
    },
    {
      "inputs": [],
      "name": "fetchMyNFTs",
      "outputs": [
        {
          "components": [
            {
              "internalType": "uint256",
              "name": "nftID",
              "type": "uint256"
            },
            {
              "internalType": "bool",
              "name": "new_env",
              "type": "bool"
            },
            {
              "internalType": "uint256",
              "name": "creatorUserID",
              "type": "uint256"
            },
            {
              "internalType": "string",
              "name": "creatorUsername",
              "type": "string"
            },
            {
              "internalType": "string",
              "name": "creatorName",
              "type": "string"
            },
            {
              "internalType": "address",
              "name": "creatorMetamaskId",
              "type": "address"
            },
            {
              "internalType": "string",
              "name": "associatedProjectName",
              "type": "string"
            },
            {
              "internalType": "string",
              "name": "associatedProjectUrl",
              "type": "string"
            },
            {
              "internalType": "string",
              "name": "assetName",
              "type": "string"
            },
            {
              "internalType": "enum NFTMarketV2.AssetType",
              "name": "assetType",
              "type": "uint8"
            },
            {
              "internalType": "string",
              "name": "assetDescription",
              "type": "string"
            },
            {
              "internalType": "string",
              "name": "assetOffer",
              "type": "string"
            },
            {
              "internalType": "string",
              "name": "assetTerms",
              "type": "string"
            },
            {
              "internalType": "string",
              "name": "assetImage",
              "type": "string"
            },
            {
              "internalType": "bool",
              "name": "isHidden",
              "type": "bool"
            },
            {
              "internalType": "bool",
              "name": "isPrivate",
              "type": "bool"
            },
            {
              "internalType": "bool",
              "name": "multiNft",
              "type": "bool"
            },
            {
              "internalType": "uint256",
              "name": "assetPrice",
              "type": "uint256"
            },
            {
              "internalType": "enum NFTMarketV2.Status",
              "name": "status",
              "type": "uint8"
            },
            {
              "internalType": "bool",
              "name": "requestApproval",
              "type": "bool"
            }
          ],
          "internalType": "struct NFTMarketV2.MarketItem[]",
          "name": "",
          "type": "tuple[]"
        }
      ],
      "stateMutability": "view",
      "type": "function"
    },
    {
      "inputs": [],
      "name": "getAllHashesLength",
      "outputs": [
        {
          "internalType": "uint256",
          "name": "",
          "type": "uint256"
        }
      ],
      "stateMutability": "view",
      "type": "function"
    },
    {
      "inputs": [
        {
          "internalType": "uint256",
          "name": "lowerBoundary",
          "type": "uint256"
        },
        {
          "internalType": "uint256",
          "name": "upperBoundary",
          "type": "uint256"
        }
      ],
      "name": "getAllMarketItem",
      "outputs": [
        {
          "components": [
            {
              "internalType": "uint256",
              "name": "nftID",
              "type": "uint256"
            },
            {
              "internalType": "bool",
              "name": "new_env",
              "type": "bool"
            },
            {
              "internalType": "uint256",
              "name": "creatorUserID",
              "type": "uint256"
            },
            {
              "internalType": "string",
              "name": "creatorUsername",
              "type": "string"
            },
            {
              "internalType": "string",
              "name": "creatorName",
              "type": "string"
            },
            {
              "internalType": "address",
              "name": "creatorMetamaskId",
              "type": "address"
            },
            {
              "internalType": "string",
              "name": "associatedProjectName",
              "type": "string"
            },
            {
              "internalType": "string",
              "name": "associatedProjectUrl",
              "type": "string"
            },
            {
              "internalType": "string",
              "name": "assetName",
              "type": "string"
            },
            {
              "internalType": "enum NFTMarketV2.AssetType",
              "name": "assetType",
              "type": "uint8"
            },
            {
              "internalType": "string",
              "name": "assetDescription",
              "type": "string"
            },
            {
              "internalType": "string",
              "name": "assetOffer",
              "type": "string"
            },
            {
              "internalType": "string",
              "name": "assetTerms",
              "type": "string"
            },
            {
              "internalType": "string",
              "name": "assetImage",
              "type": "string"
            },
            {
              "internalType": "bool",
              "name": "isHidden",
              "type": "bool"
            },
            {
              "internalType": "bool",
              "name": "isPrivate",
              "type": "bool"
            },
            {
              "internalType": "bool",
              "name": "multiNft",
              "type": "bool"
            },
            {
              "internalType": "uint256",
              "name": "assetPrice",
              "type": "uint256"
            },
            {
              "internalType": "enum NFTMarketV2.Status",
              "name": "status",
              "type": "uint8"
            },
            {
              "internalType": "bool",
              "name": "requestApproval",
              "type": "bool"
            }
          ],
          "internalType": "struct NFTMarketV2.MarketItem[]",
          "name": "",
          "type": "tuple[]"
        }
      ],
      "stateMutability": "view",
      "type": "function"
    },
    {
      "inputs": [
        {
          "internalType": "bytes32",
          "name": "hash",
          "type": "bytes32"
        }
      ],
      "name": "getMarketItem",
      "outputs": [
        {
          "components": [
            {
              "internalType": "uint256",
              "name": "nftID",
              "type": "uint256"
            },
            {
              "internalType": "bool",
              "name": "new_env",
              "type": "bool"
            },
            {
              "internalType": "uint256",
              "name": "creatorUserID",
              "type": "uint256"
            },
            {
              "internalType": "string",
              "name": "creatorUsername",
              "type": "string"
            },
            {
              "internalType": "string",
              "name": "creatorName",
              "type": "string"
            },
            {
              "internalType": "address",
              "name": "creatorMetamaskId",
              "type": "address"
            },
            {
              "internalType": "string",
              "name": "associatedProjectName",
              "type": "string"
            },
            {
              "internalType": "string",
              "name": "associatedProjectUrl",
              "type": "string"
            },
            {
              "internalType": "string",
              "name": "assetName",
              "type": "string"
            },
            {
              "internalType": "enum NFTMarketV2.AssetType",
              "name": "assetType",
              "type": "uint8"
            },
            {
              "internalType": "string",
              "name": "assetDescription",
              "type": "string"
            },
            {
              "internalType": "string",
              "name": "assetOffer",
              "type": "string"
            },
            {
              "internalType": "string",
              "name": "assetTerms",
              "type": "string"
            },
            {
              "internalType": "string",
              "name": "assetImage",
              "type": "string"
            },
            {
              "internalType": "bool",
              "name": "isHidden",
              "type": "bool"
            },
            {
              "internalType": "bool",
              "name": "isPrivate",
              "type": "bool"
            },
            {
              "internalType": "bool",
              "name": "multiNft",
              "type": "bool"
            },
            {
              "internalType": "uint256",
              "name": "assetPrice",
              "type": "uint256"
            },
            {
              "internalType": "enum NFTMarketV2.Status",
              "name": "status",
              "type": "uint8"
            },
            {
              "internalType": "bool",
              "name": "requestApproval",
              "type": "bool"
            }
          ],
          "internalType": "struct NFTMarketV2.MarketItem",
          "name": "",
          "type": "tuple"
        }
      ],
      "stateMutability": "view",
      "type": "function"
    },
    {
      "inputs": [
        {
          "internalType": "bytes32",
          "name": "hash",
          "type": "bytes32"
        }
      ],
      "name": "getMarketItemStatus",
      "outputs": [
        {
          "internalType": "string",
          "name": "",
          "type": "string"
        }
      ],
      "stateMutability": "view",
      "type": "function"
    },
    {
      "inputs": [],
      "name": "getNftId",
      "outputs": [
        {
          "internalType": "uint256",
          "name": "",
          "type": "uint256"
        }
      ],
      "stateMutability": "view",
      "type": "function"
    },
    {
      "inputs": [
        {
          "internalType": "string",
          "name": "tokenUri",
          "type": "string"
        },
        {
          "internalType": "address",
          "name": "nftOwner",
          "type": "address"
        }
      ],
      "name": "mintNFT",
      "outputs": [
        {
          "internalType": "uint256",
          "name": "",
          "type": "uint256"
        }
      ],
      "stateMutability": "nonpayable",
      "type": "function"
    },
    {
      "inputs": [],
      "name": "owner",
      "outputs": [
        {
          "internalType": "address",
          "name": "",
          "type": "address"
        }
      ],
      "stateMutability": "view",
      "type": "function"
    },
    {
      "inputs": [],
      "name": "renounceOwnership",
      "outputs": [],
      "stateMutability": "nonpayable",
      "type": "function"
    },
    {
      "inputs": [
        {
          "internalType": "address",
          "name": "newOwner",
          "type": "address"
        }
      ],
      "name": "transferOwnership",
      "outputs": [],
      "stateMutability": "nonpayable",
      "type": "function"
    }
  ],
  "bytecode": "0x60806040527f6e71edae12b1b97f4d1f60370fef10105fa2faae0126114a169c64845d6126c960065566038d7ea4c680006007553480156200004057600080fd5b506001600055620000513362000057565b620000a9565b600180546001600160a01b038381166001600160a01b0319831681179093556040519116919082907f8be0079c531659141344cd1fd0a4f28419497f9722a3daafe3b4186f6b6457e090600090a35050565b613eb980620000b96000396000f3fe608060405234801561001057600080fd5b506004361061012c5760003560e01c80637d7b3056116100ad578063a927632811610071578063a92763281461026c578063cd7e0f7a1461027f578063e2208a6514610292578063f2fde38b1461029a578063f7785a07146102ad57600080fd5b80637d7b30561461020057806380f12fcd146102205780638184a48c146102285780638da5cb5b14610248578063982aaf6b1461026357600080fd5b806355824391116100f457806355824391146101a7578063644c45e0146101ba5780636abfcc72146101c2578063715018a6146101d557806372c40429146101dd57600080fd5b806304f3227914610131578063202e374014610157578063337f65aa1461016c57806340393fd31461018157806346b4c35d14610194575b600080fd5b61014461013f366004613272565b6102c0565b6040519081526020015b60405180910390f35b61015f61037b565b60405161014e91906134fb565b61017f61017a36600461356e565b610b51565b005b61017f61018f366004613843565b610d1e565b61017f6101a23660046138dc565b6110fc565b61017f6101b5366004613940565b611436565b610144611618565b6101446101d03660046139c5565b611685565b61017f611940565b6101f06101eb366004613a02565b611954565b604051901515815260200161014e565b61021361020e366004613a2c565b6119d4565b60405161014e9190613a45565b600a54610144565b61023b610236366004613a2c565b6119fd565b60405161014e9190613a58565b6001546040516001600160a01b03909116815260200161014e565b61014460065481565b61017f61027a366004613a6b565b61203a565b61017f61028d366004613af4565b612380565b610144612575565b61017f6102a8366004613b85565b61264d565b61015f6102bb366004613ba0565b6126c6565b6004805460405163a211937760e01b815260009283926001600160a01b03169163a2119377916102f4918891889101613bc2565b6020604051808303816000875af1158015610313573d6000803e3d6000fd5b505050506040513d601f19601f820116820180604052508101906103379190613bec565b90507f2cc161d398589ff5526cd6b429338ae827d66c48171d3dbaeac9a7bf822935bd8160405161036a91815260200190565b60405180910390a190505b92915050565b600a54606090600080805b838110156103fc57336001600160a01b031660096000600a84815481106103af576103af613c05565b600091825260208083209091015483528201929092526040019020600501546001600160a01b0316036103ea576103e7600184613c31565b92505b806103f481613c44565b915050610386565b5060008267ffffffffffffffff8111156104185761041861318e565b60405190808252806020026020018201604052801561045157816020015b61043e613088565b8152602001906001900390816104365790505b50905060005b84811015610b4857336001600160a01b031660096000600a848154811061048057610480613c05565b600091825260208083209091015483528201929092526040019020600501546001600160a01b031603610b3657600060096000600a84815481106104c6576104c6613c05565b9060005260206000200154815260200190815260200160002090508060405180610280016040529081600082015481526020016001820160009054906101000a900460ff161515151581526020016002820154815260200160038201805461052d90613c5d565b80601f016020809104026020016040519081016040528092919081815260200182805461055990613c5d565b80156105a65780601f1061057b576101008083540402835291602001916105a6565b820191906000526020600020905b81548152906001019060200180831161058957829003601f168201915b505050505081526020016004820180546105bf90613c5d565b80601f01602080910402602001604051908101604052809291908181526020018280546105eb90613c5d565b80156106385780601f1061060d57610100808354040283529160200191610638565b820191906000526020600020905b81548152906001019060200180831161061b57829003601f168201915b505050918352505060058201546001600160a01b0316602082015260068201805460409092019161066890613c5d565b80601f016020809104026020016040519081016040528092919081815260200182805461069490613c5d565b80156106e15780601f106106b6576101008083540402835291602001916106e1565b820191906000526020600020905b8154815290600101906020018083116106c457829003601f168201915b505050505081526020016007820180546106fa90613c5d565b80601f016020809104026020016040519081016040528092919081815260200182805461072690613c5d565b80156107735780601f1061074857610100808354040283529160200191610773565b820191906000526020600020905b81548152906001019060200180831161075657829003601f168201915b5050505050815260200160088201805461078c90613c5d565b80601f01602080910402602001604051908101604052809291908181526020018280546107b890613c5d565b80156108055780601f106107da57610100808354040283529160200191610805565b820191906000526020600020905b8154815290600101906020018083116107e857829003601f168201915b5050509183525050600982015460209091019060ff16600481111561082c5761082c613310565b600481111561083d5761083d613310565b8152602001600a8201805461085190613c5d565b80601f016020809104026020016040519081016040528092919081815260200182805461087d90613c5d565b80156108ca5780601f1061089f576101008083540402835291602001916108ca565b820191906000526020600020905b8154815290600101906020018083116108ad57829003601f168201915b50505050508152602001600b820180546108e390613c5d565b80601f016020809104026020016040519081016040528092919081815260200182805461090f90613c5d565b801561095c5780601f106109315761010080835404028352916020019161095c565b820191906000526020600020905b81548152906001019060200180831161093f57829003601f168201915b50505050508152602001600c8201805461097590613c5d565b80601f01602080910402602001604051908101604052809291908181526020018280546109a190613c5d565b80156109ee5780601f106109c3576101008083540402835291602001916109ee565b820191906000526020600020905b8154815290600101906020018083116109d157829003601f168201915b50505050508152602001600d82018054610a0790613c5d565b80601f0160208091040260200160405190810160405280929190818152602001828054610a3390613c5d565b8015610a805780601f10610a5557610100808354040283529160200191610a80565b820191906000526020600020905b815481529060010190602001808311610a6357829003601f168201915b5050509183525050600e82015460ff80821615156020840152610100820481161515604084015262010000909104811615156060830152600f8301546080830152601083015460a090920191166002811115610ade57610ade613310565b6002811115610aef57610aef613310565b815260109190910154610100900460ff1615156020909101528351849086908110610b1c57610b1c613c05565b6020908102919091010152610b32600185613c31565b9350505b80610b4081613c44565b915050610457565b50949350505050565b60055460405163d505accf60e01b81526001600160a01b039091169063d505accf90610b8d908b908b908b908b908b908b908b90600401613c97565b600060405180830381600087803b158015610ba757600080fd5b505af1158015610bbb573d6000803e3d6000fd5b5050600554604051633950935160e01b81526001600160a01b038b81166004830152602482018b90529091169250633950935191506044016020604051808303816000875af1158015610c12573d6000803e3d6000fd5b505050506040513d601f19601f82011682018060405250810190610c369190613cd8565b506005546040516323b872dd60e01b81526001600160a01b03909116906323b872dd90610c6b908b9030908b90600401613cf5565b6020604051808303816000875af1158015610c8a573d6000803e3d6000fd5b505050506040513d601f19601f82011682018060405250810190610cae9190613cd8565b50600480546040516323b872dd60e01b81526001600160a01b03909116916323b872dd91610ce2918b918d91879101613cf5565b600060405180830381600087803b158015610cfc57600080fd5b505af1158015610d10573d6000803e3d6000fd5b505050505050505050505050565b6004805460a089015160405163a211937760e01b81526001600160a01b039092169263a211937792610d54928b92909101613bc2565b6020604051808303816000875af1158015610d73573d6000803e3d6000fd5b505050506040513d601f19601f82011682018060405250810190610d979190613bec565b5060048054604051637ac2ff7b60e01b81523092810192909252602482018390526044820184905260ff871660648301526084820186905260a482018590526001600160a01b031690637ac2ff7b9060c401600060405180830381600087803b158015610e0357600080fd5b505af1158015610e17573d6000803e3d6000fd5b505050818852506040808801516101008901516101208a01516101408b01519351600094610e6d94610e53949093889391929091602001613d19565b604051602081830303815290604052805160209091012090565b604051602001610e7f91815260200190565b60408051808303601f1901815291815281516020928301206000818152600984528290208b518155928b015160018401805460ff1916911515919091179055908a0151600283015560608a01519092508991906003820190610ee19082613dc3565b5060808201516004820190610ef69082613dc3565b5060a08201516005820180546001600160a01b0319166001600160a01b0390921691909117905560c08201516006820190610f319082613dc3565b5060e08201516007820190610f469082613dc3565b506101008201516008820190610f5c9082613dc3565b5061012082015160098201805460ff19166001836004811115610f8157610f81613310565b0217905550610140820151600a820190610f9b9082613dc3565b50610160820151600b820190610fb19082613dc3565b50610180820151600c820190610fc79082613dc3565b506101a0820151600d820190610fdd9082613dc3565b506101c0820151600e820180546101e08501516102008601511515620100000262ff0000199115156101000261ff00199515159590951661ffff19909316929092179390931792909216919091179055610220820151600f82015561024082015160108201805460ff1916600183600281111561105c5761105c613310565b02179055506102609190910151601090910180549115156101000261ff0019909216919091179055600a80546001810182556000919091527fc65a7bb8d6351c1cf70c95a316cc6a92839c986682d98bc35f958f4883f9d2a80181905560408051828152602081018490527f0400a15904b2574e109cd26861b874b1208c6d17bc8beafdb885d8ecc14f00b8910160405180910390a15050505050505050565b6004805460a084015160405163a211937760e01b81526000936001600160a01b039093169263a21193779261113392879201613bc2565b6020604051808303816000875af1158015611152573d6000803e3d6000fd5b505050506040513d601f19601f820116820180604052508101906111769190613bec565b80845260408085015161010086015161012087015161014088015193519495506000946111b194610e53949388939092909190602001613d19565b6040516020016111c391815260200190565b60408051808303601f190181529181528151602092830120600081815260098452829020875181559287015160018401805460ff1916911515919091179055908601516002830155606086015190925085919060038201906112259082613dc3565b506080820151600482019061123a9082613dc3565b5060a08201516005820180546001600160a01b0319166001600160a01b0390921691909117905560c082015160068201906112759082613dc3565b5060e0820151600782019061128a9082613dc3565b5061010082015160088201906112a09082613dc3565b5061012082015160098201805460ff191660018360048111156112c5576112c5613310565b0217905550610140820151600a8201906112df9082613dc3565b50610160820151600b8201906112f59082613dc3565b50610180820151600c82019061130b9082613dc3565b506101a0820151600d8201906113219082613dc3565b506101c0820151600e820180546101e08501516102008601511515620100000262ff0000199115156101000261ff00199515159590951661ffff19909316929092179390931792909216919091179055610220820151600f82015561024082015160108201805460ff191660018360028111156113a0576113a0613310565b02179055506102609190910151601090910180549115156101000261ff0019909216919091179055600a80546001810182556000919091527fc65a7bb8d6351c1cf70c95a316cc6a92839c986682d98bc35f958f4883f9d2a8018190556040518181527f8b085463dcaf0be97879d41341336aa82d1faf7c1b744db2408e4d25c84790369060200160405180910390a150505050565b61143e613154565b8781526001600160a01b03808b166020808401918252858316604080860182815260608701888152600093845260088552828420898552909452918190208651815593516001850180549187166001600160a01b0319928316179055915160028501805491871691909316179091559051600390920191909155600554905163d505accf60e01b815291169063d505accf906114ea908d908d908d908d908d908d908d90600401613c97565b600060405180830381600087803b15801561150457600080fd5b505af1158015611518573d6000803e3d6000fd5b5050600554604051633950935160e01b81526001600160a01b038d81166004830152602482018d90529091169250633950935191506044016020604051808303816000875af115801561156f573d6000803e3d6000fd5b505050506040513d601f19601f820116820180604052508101906115939190613cd8565b506005546040516323b872dd60e01b81526001600160a01b03909116906323b872dd906115c8908d9030908d90600401613cf5565b6020604051808303816000875af11580156115e7573d6000803e3d6000fd5b505050506040513d601f19601f8201168201806040525081019061160b9190613cd8565b5050505050505050505050565b600480546040805163010a38f560e01b8152905160009384936001600160a01b03169263010a38f592818301926020928290030181865afa158015611661573d6000803e3d6000fd5b505050506040513d601f19601f820116820180604052508101906103759190613bec565b6000806116bb83604001518460000151856101000151866101200151876101400151604051602001610e53959493929190613d19565b6040516020016116cd91815260200190565b60408051808303601f190181529181528151602092830120600081815260098452829020865181559286015160018401805460ff19169115159190911790559085015160028301556060850151909250849190600382019061172f9082613dc3565b50608082015160048201906117449082613dc3565b5060a08201516005820180546001600160a01b0319166001600160a01b0390921691909117905560c0820151600682019061177f9082613dc3565b5060e082015160078201906117949082613dc3565b5061010082015160088201906117aa9082613dc3565b5061012082015160098201805460ff191660018360048111156117cf576117cf613310565b0217905550610140820151600a8201906117e99082613dc3565b50610160820151600b8201906117ff9082613dc3565b50610180820151600c8201906118159082613dc3565b506101a0820151600d82019061182b9082613dc3565b506101c0820151600e820180546101e08501516102008601511515620100000262ff0000199115156101000261ff00199515159590951661ffff19909316929092179390931792909216919091179055610220820151600f82015561024082015160108201805460ff191660018360028111156118aa576118aa613310565b02179055506102609190910151601090910180549115156101000261ff0019909216919091179055600a80546001810182556000919091527fc65a7bb8d6351c1cf70c95a316cc6a92839c986682d98bc35f958f4883f9d2a8018190556040518181527f8be2d25238708c5e063396e6d61f4b7b207886987437015d6484870f109924a89060200160405180910390a192915050565b611948612f1b565b6119526000612f75565b565b600480546001600160a01b038481166001600160a01b031992831681179093556005805491851691831682179055600b805490921681179091556040805192835260208301919091526000917fe35fa6870eeedba0df9480a717f514d523b132dc90a8075df0b4f4b91bf27b4a910160405180910390a150600192915050565b600081815260096020526040812060100154606091906119f69060ff16612fc7565b9392505050565b611a05613088565b60008281526009602090815260409182902082516102808101845281548152600182015460ff16151592810192909252600281015492820192909252600382018054919291606084019190611a5990613c5d565b80601f0160208091040260200160405190810160405280929190818152602001828054611a8590613c5d565b8015611ad25780601f10611aa757610100808354040283529160200191611ad2565b820191906000526020600020905b815481529060010190602001808311611ab557829003601f168201915b50505050508152602001600482018054611aeb90613c5d565b80601f0160208091040260200160405190810160405280929190818152602001828054611b1790613c5d565b8015611b645780601f10611b3957610100808354040283529160200191611b64565b820191906000526020600020905b815481529060010190602001808311611b4757829003601f168201915b505050918352505060058201546001600160a01b03166020820152600682018054604090920191611b9490613c5d565b80601f0160208091040260200160405190810160405280929190818152602001828054611bc090613c5d565b8015611c0d5780601f10611be257610100808354040283529160200191611c0d565b820191906000526020600020905b815481529060010190602001808311611bf057829003601f168201915b50505050508152602001600782018054611c2690613c5d565b80601f0160208091040260200160405190810160405280929190818152602001828054611c5290613c5d565b8015611c9f5780601f10611c7457610100808354040283529160200191611c9f565b820191906000526020600020905b815481529060010190602001808311611c8257829003601f168201915b50505050508152602001600882018054611cb890613c5d565b80601f0160208091040260200160405190810160405280929190818152602001828054611ce490613c5d565b8015611d315780601f10611d0657610100808354040283529160200191611d31565b820191906000526020600020905b815481529060010190602001808311611d1457829003601f168201915b5050509183525050600982015460209091019060ff166004811115611d5857611d58613310565b6004811115611d6957611d69613310565b8152602001600a82018054611d7d90613c5d565b80601f0160208091040260200160405190810160405280929190818152602001828054611da990613c5d565b8015611df65780601f10611dcb57610100808354040283529160200191611df6565b820191906000526020600020905b815481529060010190602001808311611dd957829003601f168201915b50505050508152602001600b82018054611e0f90613c5d565b80601f0160208091040260200160405190810160405280929190818152602001828054611e3b90613c5d565b8015611e885780601f10611e5d57610100808354040283529160200191611e88565b820191906000526020600020905b815481529060010190602001808311611e6b57829003601f168201915b50505050508152602001600c82018054611ea190613c5d565b80601f0160208091040260200160405190810160405280929190818152602001828054611ecd90613c5d565b8015611f1a5780601f10611eef57610100808354040283529160200191611f1a565b820191906000526020600020905b815481529060010190602001808311611efd57829003601f168201915b50505050508152602001600d82018054611f3390613c5d565b80601f0160208091040260200160405190810160405280929190818152602001828054611f5f90613c5d565b8015611fac5780601f10611f8157610100808354040283529160200191611fac565b820191906000526020600020905b815481529060010190602001808311611f8f57829003601f168201915b5050509183525050600e82015460ff80821615156020840152610100820481161515604084015262010000909104811615156060830152600f8301546080830152601083015460a09092019116600281111561200a5761200a613310565b600281111561201b5761201b613310565b815260109190910154610100900460ff16151560209091015292915050565b612042613154565b506001600160a01b03808b1660009081526008602090815260408083208d84528252808320815160808101835281548152600182015486169381019390935260028101549094169082015260039092015460608301526120a0612575565b600654602084810151855160408051808501959095526001600160a01b0390921684830152306060850152608084015260a083018a905260c08084018c90528151808503909101815260e08401909152805191012061190160f01b6101008301526101028201929092526101228101919091526101420160408051601f1981840301815282825280516020918201206000845290830180835281905260ff8d1691830191909152606082018b9052608082018a9052915060019060a0016020604051602081039080840390855afa15801561217f573d6000803e3d6000fd5b505050602060405103516001600160a01b031682602001516001600160a01b0316146121e75760405162461bcd60e51b8152602060048201526012602482015271496e76616c6964205369676e61747572652160701b60448201526064015b60405180910390fd5b600560009054906101000a90046001600160a01b03166001600160a01b03166323b872dd308e85600001516040518463ffffffff1660e01b815260040161223093929190613cf5565b6020604051808303816000875af115801561224f573d6000803e3d6000fd5b505050506040513d601f19601f820116820180604052508101906122739190613cd8565b5060048054604051637ac2ff7b60e01b81523092810192909252602482018d90526044820189905260ff871660648301526084820186905260a482018590526001600160a01b031690637ac2ff7b9060c401600060405180830381600087803b1580156122df57600080fd5b505af11580156122f3573d6000803e3d6000fd5b50505050600460009054906101000a90046001600160a01b03166001600160a01b03166323b872dd8d84602001518e6040518463ffffffff1660e01b815260040161234093929190613cf5565b600060405180830381600087803b15801561235a57600080fd5b505af115801561236e573d6000803e3d6000fd5b50505050505050505050505050505050565b6004805460405163a211937760e01b81526000926001600160a01b039092169163a2119377916123b4918e918e9101613bc2565b6020604051808303816000875af11580156123d3573d6000803e3d6000fd5b505050506040513d601f19601f820116820180604052508101906123f79190613bec565b60008c81526009602052604090819020828155601001805460ff19166001179055600554905163d505accf60e01b81529192506001600160a01b03169063d505accf90612454908c908c908b908b908b908b908b90600401613c97565b600060405180830381600087803b15801561246e57600080fd5b505af1158015612482573d6000803e3d6000fd5b5050600554604051633950935160e01b81526001600160a01b038c81166004830152602482018b90529091169250633950935191506044016020604051808303816000875af11580156124d9573d6000803e3d6000fd5b505050506040513d601f19601f820116820180604052508101906124fd9190613cd8565b506005546040516323b872dd60e01b81526001600160a01b03909116906323b872dd90612532908c908b908b90600401613cf5565b6020604051808303816000875af1158015612551573d6000803e3d6000fd5b505050506040513d601f19601f82011682018060405250810190610d109190613cd8565b60408051808201825260048152634165726f60e01b6020918201528151808301835260018152603160f81b90820152600b5482517f8b73c3c69bb8fe3d512ecc4cf759cc79239f7b179b0ffacaa9a75d522b39400f818401527fbf01fc4e5f7eb1f2eee29681cd6d2cda1045d51fd80c223d1eaea49e08734bf9818501527fc89efdaa54c0f20c7adf612882df0950f5a951637e0307cdcb4c672f298b8bc660608201524660808201526001600160a01b0390911660a0808301919091528351808303909101815260c0909101909252815191012090565b612655612f1b565b6001600160a01b0381166126ba5760405162461bcd60e51b815260206004820152602660248201527f4f776e61626c653a206e6577206f776e657220697320746865207a65726f206160448201526564647265737360d01b60648201526084016121de565b6126c381612f75565b50565b60606126d0612f1b565b600a5460018110156127175760405162461bcd60e51b815260206004820152601060248201526f6173736574732061726520656d70747960801b60448201526064016121de565b808411158015612725575060015b6127975760405162461bcd60e51b815260206004820152603f60248201527f6c6f77657220626f756e646172792073686f756c64206265206c657373206f7260448201527f20657175616c20746f2073697a6520616e64206e6f6e206e656761746976650060648201526084016121de565b8083111580156127a5575060015b6128175760405162461bcd60e51b815260206004820152603f60248201527f757070657220626f756e646172792073686f756c64206265206c657373206f7260448201527f20657175616c20746f2073697a6520616e64206e6f6e206e656761746976650060648201526084016121de565b600a5460009067ffffffffffffffff8111156128355761283561318e565b60405190808252806020026020018201604052801561286e57816020015b61285b613088565b8152602001906001900390816128535790505b5090506000855b858111612f105760096000600a838154811061289357612893613c05565b9060005260206000200154815260200190815260200160002060405180610280016040529081600082015481526020016001820160009054906101000a900460ff16151515158152602001600282015481526020016003820180546128f790613c5d565b80601f016020809104026020016040519081016040528092919081815260200182805461292390613c5d565b80156129705780601f1061294557610100808354040283529160200191612970565b820191906000526020600020905b81548152906001019060200180831161295357829003601f168201915b5050505050815260200160048201805461298990613c5d565b80601f01602080910402602001604051908101604052809291908181526020018280546129b590613c5d565b8015612a025780601f106129d757610100808354040283529160200191612a02565b820191906000526020600020905b8154815290600101906020018083116129e557829003601f168201915b505050918352505060058201546001600160a01b03166020820152600682018054604090920191612a3290613c5d565b80601f0160208091040260200160405190810160405280929190818152602001828054612a5e90613c5d565b8015612aab5780601f10612a8057610100808354040283529160200191612aab565b820191906000526020600020905b815481529060010190602001808311612a8e57829003601f168201915b50505050508152602001600782018054612ac490613c5d565b80601f0160208091040260200160405190810160405280929190818152602001828054612af090613c5d565b8015612b3d5780601f10612b1257610100808354040283529160200191612b3d565b820191906000526020600020905b815481529060010190602001808311612b2057829003601f168201915b50505050508152602001600882018054612b5690613c5d565b80601f0160208091040260200160405190810160405280929190818152602001828054612b8290613c5d565b8015612bcf5780601f10612ba457610100808354040283529160200191612bcf565b820191906000526020600020905b815481529060010190602001808311612bb257829003601f168201915b5050509183525050600982015460209091019060ff166004811115612bf657612bf6613310565b6004811115612c0757612c07613310565b8152602001600a82018054612c1b90613c5d565b80601f0160208091040260200160405190810160405280929190818152602001828054612c4790613c5d565b8015612c945780601f10612c6957610100808354040283529160200191612c94565b820191906000526020600020905b815481529060010190602001808311612c7757829003601f168201915b50505050508152602001600b82018054612cad90613c5d565b80601f0160208091040260200160405190810160405280929190818152602001828054612cd990613c5d565b8015612d265780601f10612cfb57610100808354040283529160200191612d26565b820191906000526020600020905b815481529060010190602001808311612d0957829003601f168201915b50505050508152602001600c82018054612d3f90613c5d565b80601f0160208091040260200160405190810160405280929190818152602001828054612d6b90613c5d565b8015612db85780601f10612d8d57610100808354040283529160200191612db8565b820191906000526020600020905b815481529060010190602001808311612d9b57829003601f168201915b50505050508152602001600d82018054612dd190613c5d565b80601f0160208091040260200160405190810160405280929190818152602001828054612dfd90613c5d565b8015612e4a5780601f10612e1f57610100808354040283529160200191612e4a565b820191906000526020600020905b815481529060010190602001808311612e2d57829003601f168201915b5050509183525050600e82015460ff80821615156020840152610100820481161515604084015262010000909104811615156060830152600f8301546080830152601083015460a090920191166002811115612ea857612ea8613310565b6002811115612eb957612eb9613310565b815260109190910154610100900460ff1615156020909101528351849084908110612ee657612ee6613c05565b6020908102919091010152612efc826001613c31565b915080612f0881613c44565b915050612875565b509095945050505050565b6001546001600160a01b031633146119525760405162461bcd60e51b815260206004820181905260248201527f4f776e61626c653a2063616c6c6572206973206e6f7420746865206f776e657260448201526064016121de565b600180546001600160a01b038381166001600160a01b0319831681179093556040519116919082907f8be0079c531659141344cd1fd0a4f28419497f9722a3daafe3b4186f6b6457e090600090a35050565b60606003826002811115612fdd57612fdd613310565b60ff161115612feb57600080fd5b816002811115612ffd57612ffd613310565b60000361302757505060408051808201909152600781526650656e64696e6760c81b602082015290565b81600281111561303957613039613310565b60010361306357505060408051808201909152600781526610dc99585d195960ca1b602082015290565b505060408051808201909152600481526314dbdb1960e21b602082015290565b919050565b6040518061028001604052806000815260200160001515815260200160008152602001606081526020016060815260200160006001600160a01b03168152602001606081526020016060815260200160608152602001600060048111156130f1576130f1613310565b815260200160608152602001606081526020016060815260200160608152602001600015158152602001600015158152602001600015158152602001600081526020016000600281111561314757613147613310565b8152600060209091015290565b60405180608001604052806000815260200160006001600160a01b0316815260200160006001600160a01b03168152602001600081525090565b634e487b7160e01b600052604160045260246000fd5b604051610280810167ffffffffffffffff811182821017156131c8576131c861318e565b60405290565b600082601f8301126131df57600080fd5b813567ffffffffffffffff808211156131fa576131fa61318e565b604051601f8301601f19908116603f011681019082821181831017156132225761322261318e565b8160405283815286602085880101111561323b57600080fd5b836020870160208301376000602085830101528094505050505092915050565b80356001600160a01b038116811461308357600080fd5b6000806040838503121561328557600080fd5b823567ffffffffffffffff81111561329c57600080fd5b6132a8858286016131ce565b9250506132b76020840161325b565b90509250929050565b60005b838110156132db5781810151838201526020016132c3565b50506000910152565b600081518084526132fc8160208601602086016132c0565b601f01601f19169290920160200192915050565b634e487b7160e01b600052602160045260246000fd5b6005811061333657613336613310565b9052565b6003811061333657613336613310565b6000610280825184526020830151613366602086018215159052565b50604083015160408501526060830151816060860152613388828601826132e4565b915050608083015184820360808601526133a282826132e4565b91505060a08301516133bf60a08601826001600160a01b03169052565b5060c083015184820360c08601526133d782826132e4565b91505060e083015184820360e08601526133f182826132e4565b915050610100808401518583038287015261340c83826132e4565b925050506101208084015161342382870182613326565b5050610140808401518583038287015261343d83826132e4565b92505050610160808401518583038287015261345983826132e4565b92505050610180808401518583038287015261347583826132e4565b925050506101a0808401518583038287015261349183826132e4565b925050506101c0808401516134a98287018215159052565b50506101e083810151151590850152610200808401511515908501526102208084015190850152610240808401516134e38287018261333a565b50506102609283015115159390920192909252919050565b6000602080830181845280855180835260408601915060408160051b870101925083870160005b8281101561355057603f1988860301845261353e85835161334a565b94509285019290850190600101613522565b5092979650505050505050565b803560ff8116811461308357600080fd5b600080600080600080600080610100898b03121561358b57600080fd5b6135948961325b565b97506135a260208a0161325b565b965060408901359550606089013594506135be60808a0161355d565b979a969950949793969560a0850135955060c08501359460e001359350915050565b80151581146126c357600080fd5b8035613083816135e0565b80356005811061308357600080fd5b80356003811061308357600080fd5b6000610280828403121561362a57600080fd5b6136326131a4565b905081358152613644602083016135ee565b602082015260408201356040820152606082013567ffffffffffffffff8082111561366e57600080fd5b61367a858386016131ce565b6060840152608084013591508082111561369357600080fd5b61369f858386016131ce565b60808401526136b060a0850161325b565b60a084015260c08401359150808211156136c957600080fd5b6136d5858386016131ce565b60c084015260e08401359150808211156136ee57600080fd5b6136fa858386016131ce565b60e08401526101009150818401358181111561371557600080fd5b613721868287016131ce565b838501525061012091506137368285016135f9565b828401526101409150818401358181111561375057600080fd5b61375c868287016131ce565b83850152506101609150818401358181111561377757600080fd5b613783868287016131ce565b83850152506101809150818401358181111561379e57600080fd5b6137aa868287016131ce565b83850152506101a0915081840135818111156137c557600080fd5b6137d1868287016131ce565b838501525050506101c06137e68184016135ee565b908201526101e06137f88382016135ee565b9082015261020061380a8382016135ee565b908201526102208281013590820152610240613827818401613608565b908201526102606138398382016135ee565b9082015292915050565b600080600080600080600060e0888a03121561385e57600080fd5b873567ffffffffffffffff8082111561387657600080fd5b6138828b838c01613617565b985060208a013591508082111561389857600080fd5b506138a58a828b016131ce565b9650506138b46040890161355d565b969995985095966060810135965060808101359560a0820135955060c0909101359350915050565b600080604083850312156138ef57600080fd5b823567ffffffffffffffff8082111561390757600080fd5b61391386838701613617565b9350602085013591508082111561392957600080fd5b50613936858286016131ce565b9150509250929050565b60008060008060008060008060006101208a8c03121561395f57600080fd5b6139688a61325b565b985061397660208b0161325b565b975060408a0135965060608a0135955061399260808b0161355d565b945060a08a0135935060c08a013592506139ae60e08b0161325b565b91506101008a013590509295985092959850929598565b6000602082840312156139d757600080fd5b813567ffffffffffffffff8111156139ee57600080fd5b6139fa84828501613617565b949350505050565b60008060408385031215613a1557600080fd5b613a1e8361325b565b91506132b76020840161325b565b600060208284031215613a3e57600080fd5b5035919050565b6020815260006119f660208301846132e4565b6020815260006119f6602083018461334a565b6000806000806000806000806000806101408b8d031215613a8b57600080fd5b613a948b61325b565b995060208b01359850613aa960408c0161355d565b975060608b0135965060808b0135955060a08b0135945060c08b01359350613ad360e08c0161355d565b92506101008b013591506101208b013590509295989b9194979a5092959850565b6000806000806000806000806000806101408b8d031215613b1457600080fd5b8a35995060208b013567ffffffffffffffff811115613b3257600080fd5b613b3e8d828e016131ce565b995050613b4d60408c0161325b565b9750613b5b60608c0161325b565b9650613b6960808c0161325b565b955060a08b0135945060c08b01359350613ad360e08c0161355d565b600060208284031215613b9757600080fd5b6119f68261325b565b60008060408385031215613bb357600080fd5b50508035926020909101359150565b604081526000613bd560408301856132e4565b905060018060a01b03831660208301529392505050565b600060208284031215613bfe57600080fd5b5051919050565b634e487b7160e01b600052603260045260246000fd5b634e487b7160e01b600052601160045260246000fd5b8082018082111561037557610375613c1b565b600060018201613c5657613c56613c1b565b5060010190565b600181811c90821680613c7157607f821691505b602082108103613c9157634e487b7160e01b600052602260045260246000fd5b50919050565b6001600160a01b0397881681529590961660208601526040850193909352606084019190915260ff16608083015260a082015260c081019190915260e00190565b600060208284031215613cea57600080fd5b81516119f6816135e0565b6001600160a01b039384168152919092166020820152604081019190915260600190565b85815284602082015260008451613d378160408501602089016132c0565b820160058510613d4957613d49613310565b8460f81b60408201528351613d658160418401602088016132c0565b01604101979650505050505050565b601f821115613dbe57600081815260208120601f850160051c81016020861015613d9b5750805b601f850160051c820191505b81811015613dba57828155600101613da7565b5050505b505050565b815167ffffffffffffffff811115613ddd57613ddd61318e565b613df181613deb8454613c5d565b84613d74565b602080601f831160018114613e265760008415613e0e5750858301515b600019600386901b1c1916600185901b178555613dba565b600085815260208120601f198616915b82811015613e5557888601518255948401946001909101908401613e36565b5085821015613e735787850151600019600388901b60f8161c191681555b5050505050600190811b0190555056fea2646970667358221220b2689009a3dddd07f047987084f5c5b73d38b529d717e0bbafd59fad2c683c6f64736f6c63430008110033",
  "linkReferences": {},
  "deployedLinkReferences": {}
}