{
  "_format": "hh-sol-artifact-1",
  "contractName": "NFTMarketV2",
  "sourceName": "contracts/v2/NFTMarketV2.sol",
  "abi": [
    {
      "inputs": [],
      "stateMutability": "nonpayable",
      "type": "constructor"
    },
    {
      "anonymous": false,
      "inputs": [
        {
          "indexed": true,
          "internalType": "address",
          "name": "previousOwner",
          "type": "address"
        },
        {
          "indexed": true,
          "internalType": "address",
          "name": "newOwner",
          "type": "address"
        }
      ],
      "name": "OwnershipTransferred",
      "type": "event"
    },
    {
      "inputs": [],
      "name": "ERC20_DOMAIN_SEPARATOR",
      "outputs": [
        {
          "internalType": "bytes32",
          "name": "",
          "type": "bytes32"
        }
      ],
      "stateMutability": "view",
      "type": "function"
    },
    {
      "inputs": [],
      "name": "_PERMIT_TYPEHASH",
      "outputs": [
        {
          "internalType": "bytes32",
          "name": "",
          "type": "bytes32"
        }
      ],
      "stateMutability": "view",
      "type": "function"
    },
    {
      "inputs": [
        {
          "internalType": "bytes",
          "name": "hash",
          "type": "bytes"
        },
        {
          "internalType": "string",
          "name": "tokenUri",
          "type": "string"
        },
        {
          "internalType": "address",
          "name": "signer",
          "type": "address"
        },
        {
          "internalType": "address",
          "name": "projectOwner",
          "type": "address"
        },
        {
          "internalType": "uint256",
          "name": "value",
          "type": "uint256"
        },
        {
          "internalType": "uint256",
          "name": "deadline",
          "type": "uint256"
        },
        {
          "internalType": "uint8",
          "name": "v",
          "type": "uint8"
        },
        {
          "internalType": "bytes32",
          "name": "r",
          "type": "bytes32"
        },
        {
          "internalType": "bytes32",
          "name": "s",
          "type": "bytes32"
        },
        {
          "internalType": "uint256",
          "name": "amount",
          "type": "uint256"
        }
      ],
      "name": "approvePendingAsset",
      "outputs": [
        {
          "internalType": "bool",
          "name": "",
          "type": "bool"
        }
      ],
      "stateMutability": "nonpayable",
      "type": "function"
    },
    {
      "inputs": [
        {
          "internalType": "address",
          "name": "nftContractAddress",
          "type": "address"
        },
        {
          "internalType": "address",
          "name": "aeroContractAddress",
          "type": "address"
        }
      ],
      "name": "assignDeployedAddressToInstance",
      "outputs": [
        {
          "internalType": "bool",
          "name": "",
          "type": "bool"
        }
      ],
      "stateMutability": "nonpayable",
      "type": "function"
    },
    {
      "inputs": [
        {
          "internalType": "address",
          "name": "owner",
          "type": "address"
        },
        {
          "internalType": "address",
          "name": "spender",
          "type": "address"
        },
        {
          "internalType": "uint256",
          "name": "value",
          "type": "uint256"
        },
        {
          "internalType": "uint256",
          "name": "deadline",
          "type": "uint256"
        },
        {
          "internalType": "uint8",
          "name": "v",
          "type": "uint8"
        },
        {
          "internalType": "bytes32",
          "name": "r",
          "type": "bytes32"
        },
        {
          "internalType": "bytes32",
          "name": "s",
          "type": "bytes32"
        },
        {
          "internalType": "address",
          "name": "nftOwner",
          "type": "address"
        },
        {
          "internalType": "uint256",
          "name": "_tokenId",
          "type": "uint256"
        }
      ],
      "name": "buyAsset",
      "outputs": [
        {
          "internalType": "bool",
          "name": "",
          "type": "bool"
        }
      ],
      "stateMutability": "nonpayable",
      "type": "function"
    },
    {
      "inputs": [
        {
          "internalType": "address",
          "name": "nftOwner",
          "type": "address"
        },
        {
          "internalType": "uint256",
          "name": "_tokenId",
          "type": "uint256"
        },
        {
          "internalType": "uint8",
          "name": "v",
          "type": "uint8"
        },
        {
          "internalType": "bytes32",
          "name": "r",
          "type": "bytes32"
        },
        {
          "internalType": "bytes32",
          "name": "s",
          "type": "bytes32"
        },
        {
          "internalType": "uint256",
          "name": "deadline",
          "type": "uint256"
        },
        {
          "internalType": "uint256",
          "name": "nonce",
          "type": "uint256"
        },
        {
          "internalType": "uint8",
          "name": "vN",
          "type": "uint8"
        },
        {
          "internalType": "bytes32",
          "name": "rN",
          "type": "bytes32"
        },
        {
          "internalType": "bytes32",
          "name": "sN",
          "type": "bytes32"
        }
      ],
      "name": "buyAssetApprove",
      "outputs": [
        {
          "internalType": "bool",
          "name": "",
          "type": "bool"
        }
      ],
      "stateMutability": "nonpayable",
      "type": "function"
    },
    {
      "inputs": [
        {
          "components": [
            {
              "internalType": "uint256",
              "name": "nftID",
              "type": "uint256"
            },
            {
              "internalType": "bool",
              "name": "new_env",
              "type": "bool"
            },
            {
              "internalType": "uint256",
              "name": "creatorUserID",
              "type": "uint256"
            },
            {
              "internalType": "string",
              "name": "creatorUsername",
              "type": "string"
            },
            {
              "internalType": "string",
              "name": "creatorName",
              "type": "string"
            },
            {
              "internalType": "address",
              "name": "creatorMetamaskId",
              "type": "address"
            },
            {
              "internalType": "string",
              "name": "associatedProjectName",
              "type": "string"
            },
            {
              "internalType": "string",
              "name": "associatedProjectUrl",
              "type": "string"
            },
            {
              "internalType": "string",
              "name": "assetName",
              "type": "string"
            },
            {
              "internalType": "enum NFTMarketV2.AssetType",
              "name": "assetType",
              "type": "uint8"
            },
            {
              "internalType": "string",
              "name": "assetDescription",
              "type": "string"
            },
            {
              "internalType": "string",
              "name": "assetOffer",
              "type": "string"
            },
            {
              "internalType": "string",
              "name": "assetTerms",
              "type": "string"
            },
            {
              "internalType": "string",
              "name": "assetImage",
              "type": "string"
            },
            {
              "internalType": "bool",
              "name": "isHidden",
              "type": "bool"
            },
            {
              "internalType": "bool",
              "name": "isPrivate",
              "type": "bool"
            },
            {
              "internalType": "bool",
              "name": "multiNft",
              "type": "bool"
            },
            {
              "internalType": "uint256",
              "name": "assetPrice",
              "type": "uint256"
            },
            {
              "internalType": "enum NFTMarketV2.Status",
              "name": "status",
              "type": "uint8"
            }
          ],
          "internalType": "struct NFTMarketV2.MarketItem",
          "name": "data",
          "type": "tuple"
        },
        {
          "internalType": "string",
          "name": "tokenUri",
          "type": "string"
        }
      ],
      "name": "createAsset",
      "outputs": [
        {
          "internalType": "bool",
          "name": "",
          "type": "bool"
        }
      ],
      "stateMutability": "nonpayable",
      "type": "function"
    },
    {
      "inputs": [
        {
          "components": [
            {
              "internalType": "uint256",
              "name": "nftID",
              "type": "uint256"
            },
            {
              "internalType": "bool",
              "name": "new_env",
              "type": "bool"
            },
            {
              "internalType": "uint256",
              "name": "creatorUserID",
              "type": "uint256"
            },
            {
              "internalType": "string",
              "name": "creatorUsername",
              "type": "string"
            },
            {
              "internalType": "string",
              "name": "creatorName",
              "type": "string"
            },
            {
              "internalType": "address",
              "name": "creatorMetamaskId",
              "type": "address"
            },
            {
              "internalType": "string",
              "name": "associatedProjectName",
              "type": "string"
            },
            {
              "internalType": "string",
              "name": "associatedProjectUrl",
              "type": "string"
            },
            {
              "internalType": "string",
              "name": "assetName",
              "type": "string"
            },
            {
              "internalType": "enum NFTMarketV2.AssetType",
              "name": "assetType",
              "type": "uint8"
            },
            {
              "internalType": "string",
              "name": "assetDescription",
              "type": "string"
            },
            {
              "internalType": "string",
              "name": "assetOffer",
              "type": "string"
            },
            {
              "internalType": "string",
              "name": "assetTerms",
              "type": "string"
            },
            {
              "internalType": "string",
              "name": "assetImage",
              "type": "string"
            },
            {
              "internalType": "bool",
              "name": "isHidden",
              "type": "bool"
            },
            {
              "internalType": "bool",
              "name": "isPrivate",
              "type": "bool"
            },
            {
              "internalType": "bool",
              "name": "multiNft",
              "type": "bool"
            },
            {
              "internalType": "uint256",
              "name": "assetPrice",
              "type": "uint256"
            },
            {
              "internalType": "enum NFTMarketV2.Status",
              "name": "status",
              "type": "uint8"
            }
          ],
          "internalType": "struct NFTMarketV2.MarketItem",
          "name": "data",
          "type": "tuple"
        }
      ],
      "name": "createAssetPending",
      "outputs": [
        {
          "internalType": "bool",
          "name": "",
          "type": "bool"
        }
      ],
      "stateMutability": "nonpayable",
      "type": "function"
    },
    {
      "inputs": [],
      "name": "getAllHashesLength",
      "outputs": [
        {
          "internalType": "uint256",
          "name": "",
          "type": "uint256"
        }
      ],
      "stateMutability": "view",
      "type": "function"
    },
    {
      "inputs": [
        {
          "internalType": "uint256",
          "name": "lowerBoundary",
          "type": "uint256"
        },
        {
          "internalType": "uint256",
          "name": "upperBoundary",
          "type": "uint256"
        }
      ],
      "name": "getAllMarketItem",
      "outputs": [
        {
          "components": [
            {
              "internalType": "uint256",
              "name": "nftID",
              "type": "uint256"
            },
            {
              "internalType": "bool",
              "name": "new_env",
              "type": "bool"
            },
            {
              "internalType": "uint256",
              "name": "creatorUserID",
              "type": "uint256"
            },
            {
              "internalType": "string",
              "name": "creatorUsername",
              "type": "string"
            },
            {
              "internalType": "string",
              "name": "creatorName",
              "type": "string"
            },
            {
              "internalType": "address",
              "name": "creatorMetamaskId",
              "type": "address"
            },
            {
              "internalType": "string",
              "name": "associatedProjectName",
              "type": "string"
            },
            {
              "internalType": "string",
              "name": "associatedProjectUrl",
              "type": "string"
            },
            {
              "internalType": "string",
              "name": "assetName",
              "type": "string"
            },
            {
              "internalType": "enum NFTMarketV2.AssetType",
              "name": "assetType",
              "type": "uint8"
            },
            {
              "internalType": "string",
              "name": "assetDescription",
              "type": "string"
            },
            {
              "internalType": "string",
              "name": "assetOffer",
              "type": "string"
            },
            {
              "internalType": "string",
              "name": "assetTerms",
              "type": "string"
            },
            {
              "internalType": "string",
              "name": "assetImage",
              "type": "string"
            },
            {
              "internalType": "bool",
              "name": "isHidden",
              "type": "bool"
            },
            {
              "internalType": "bool",
              "name": "isPrivate",
              "type": "bool"
            },
            {
              "internalType": "bool",
              "name": "multiNft",
              "type": "bool"
            },
            {
              "internalType": "uint256",
              "name": "assetPrice",
              "type": "uint256"
            },
            {
              "internalType": "enum NFTMarketV2.Status",
              "name": "status",
              "type": "uint8"
            }
          ],
          "internalType": "struct NFTMarketV2.MarketItem[]",
          "name": "",
          "type": "tuple[]"
        }
      ],
      "stateMutability": "view",
      "type": "function"
    },
    {
      "inputs": [
        {
          "internalType": "bytes",
          "name": "hash",
          "type": "bytes"
        }
      ],
      "name": "getMarketItem",
      "outputs": [
        {
          "components": [
            {
              "internalType": "uint256",
              "name": "nftID",
              "type": "uint256"
            },
            {
              "internalType": "bool",
              "name": "new_env",
              "type": "bool"
            },
            {
              "internalType": "uint256",
              "name": "creatorUserID",
              "type": "uint256"
            },
            {
              "internalType": "string",
              "name": "creatorUsername",
              "type": "string"
            },
            {
              "internalType": "string",
              "name": "creatorName",
              "type": "string"
            },
            {
              "internalType": "address",
              "name": "creatorMetamaskId",
              "type": "address"
            },
            {
              "internalType": "string",
              "name": "associatedProjectName",
              "type": "string"
            },
            {
              "internalType": "string",
              "name": "associatedProjectUrl",
              "type": "string"
            },
            {
              "internalType": "string",
              "name": "assetName",
              "type": "string"
            },
            {
              "internalType": "enum NFTMarketV2.AssetType",
              "name": "assetType",
              "type": "uint8"
            },
            {
              "internalType": "string",
              "name": "assetDescription",
              "type": "string"
            },
            {
              "internalType": "string",
              "name": "assetOffer",
              "type": "string"
            },
            {
              "internalType": "string",
              "name": "assetTerms",
              "type": "string"
            },
            {
              "internalType": "string",
              "name": "assetImage",
              "type": "string"
            },
            {
              "internalType": "bool",
              "name": "isHidden",
              "type": "bool"
            },
            {
              "internalType": "bool",
              "name": "isPrivate",
              "type": "bool"
            },
            {
              "internalType": "bool",
              "name": "multiNft",
              "type": "bool"
            },
            {
              "internalType": "uint256",
              "name": "assetPrice",
              "type": "uint256"
            },
            {
              "internalType": "enum NFTMarketV2.Status",
              "name": "status",
              "type": "uint8"
            }
          ],
          "internalType": "struct NFTMarketV2.MarketItem",
          "name": "",
          "type": "tuple"
        }
      ],
      "stateMutability": "view",
      "type": "function"
    },
    {
      "inputs": [
        {
          "internalType": "bytes",
          "name": "hash",
          "type": "bytes"
        }
      ],
      "name": "getMarketItemStatus",
      "outputs": [
        {
          "internalType": "string",
          "name": "",
          "type": "string"
        }
      ],
      "stateMutability": "view",
      "type": "function"
    },
    {
      "inputs": [
        {
          "internalType": "address",
          "name": "nftOwner",
          "type": "address"
        }
      ],
      "name": "mintNFT",
      "outputs": [
        {
          "internalType": "uint256",
          "name": "",
          "type": "uint256"
        }
      ],
      "stateMutability": "nonpayable",
      "type": "function"
    },
    {
      "inputs": [],
      "name": "owner",
      "outputs": [
        {
          "internalType": "address",
          "name": "",
          "type": "address"
        }
      ],
      "stateMutability": "view",
      "type": "function"
    },
    {
      "inputs": [],
      "name": "renounceOwnership",
      "outputs": [],
      "stateMutability": "nonpayable",
      "type": "function"
    },
    {
      "inputs": [
        {
          "internalType": "address",
          "name": "newOwner",
          "type": "address"
        }
      ],
      "name": "transferOwnership",
      "outputs": [],
      "stateMutability": "nonpayable",
      "type": "function"
    }
  ],
  "bytecode": "0x60806040527f6e71edae12b1b97f4d1f60370fef10105fa2faae0126114a169c64845d6126c960065566038d7ea4c6800060075534801561003f57600080fd5b50600160005561004e33610053565b6100a5565b600180546001600160a01b038381166001600160a01b0319831681179093556040519116919082907f8be0079c531659141344cd1fd0a4f28419497f9722a3daafe3b4186f6b6457e090600090a35050565b612e6f80620000b56000396000f3fe608060405234801561001057600080fd5b50600436106101005760003560e01c806398f1970511610097578063e2208a6511610066578063e2208a6514610240578063ec597cd114610248578063f2fde38b14610268578063f7785a071461027b57600080fd5b806398f19705146101f4578063a189ebf614610207578063a92763281461021a578063b35f22ac1461022d57600080fd5b806372c40429116100d357806372c404291461017c57806380f12fcd146101c85780638da5cb5b146101d0578063982aaf6b146101eb57600080fd5b80634d5a35521461010557806354ba0f271461012e57806357bf03051461014f578063715018a614610172575b600080fd5b6101186101133660046122b7565b61029b565b6040516101259190612521565b60405180910390f35b61014161013c36600461254b565b6108cd565b604051908152602001610125565b61016261015d3660046127b7565b610968565b6040519015158152602001610125565b61017a610bfd565b005b61016261018a3660046127ec565b600480546001600160a01b03199081166001600160a01b039485161790915560058054821692909316918217909255600b8054909216179055600190565b600a54610141565b6001546040516001600160a01b039091168152602001610125565b61014160065481565b610162610202366004612830565b610c11565b6101626102153660046128b5565b610dfa565b61016261022836600461297d565b610fd1565b61016261023b366004612a06565b61131f565b610141611618565b61025b6102563660046122b7565b6116f0565b6040516101259190612a6a565b61017a61027636600461254b565b611722565b61028e610289366004612a7d565b61179b565b6040516101259190612a9f565b6102a36120ec565b6009826040516102b39190612b01565b9081526040805191829003602090810183206102608401835280548452600181015460ff1615159184019190915260028101549183019190915260038101805460608401919061030290612b1d565b80601f016020809104026020016040519081016040528092919081815260200182805461032e90612b1d565b801561037b5780601f106103505761010080835404028352916020019161037b565b820191906000526020600020905b81548152906001019060200180831161035e57829003601f168201915b5050505050815260200160048201805461039490612b1d565b80601f01602080910402602001604051908101604052809291908181526020018280546103c090612b1d565b801561040d5780601f106103e25761010080835404028352916020019161040d565b820191906000526020600020905b8154815290600101906020018083116103f057829003601f168201915b505050918352505060058201546001600160a01b0316602082015260068201805460409092019161043d90612b1d565b80601f016020809104026020016040519081016040528092919081815260200182805461046990612b1d565b80156104b65780601f1061048b576101008083540402835291602001916104b6565b820191906000526020600020905b81548152906001019060200180831161049957829003601f168201915b505050505081526020016007820180546104cf90612b1d565b80601f01602080910402602001604051908101604052809291908181526020018280546104fb90612b1d565b80156105485780601f1061051d57610100808354040283529160200191610548565b820191906000526020600020905b81548152906001019060200180831161052b57829003601f168201915b5050505050815260200160088201805461056190612b1d565b80601f016020809104026020016040519081016040528092919081815260200182805461058d90612b1d565b80156105da5780601f106105af576101008083540402835291602001916105da565b820191906000526020600020905b8154815290600101906020018083116105bd57829003601f168201915b5050509183525050600982015460209091019060ff16600481111561060157610601612344565b600481111561061257610612612344565b8152602001600a8201805461062690612b1d565b80601f016020809104026020016040519081016040528092919081815260200182805461065290612b1d565b801561069f5780601f106106745761010080835404028352916020019161069f565b820191906000526020600020905b81548152906001019060200180831161068257829003601f168201915b50505050508152602001600b820180546106b890612b1d565b80601f01602080910402602001604051908101604052809291908181526020018280546106e490612b1d565b80156107315780601f1061070657610100808354040283529160200191610731565b820191906000526020600020905b81548152906001019060200180831161071457829003601f168201915b50505050508152602001600c8201805461074a90612b1d565b80601f016020809104026020016040519081016040528092919081815260200182805461077690612b1d565b80156107c35780601f10610798576101008083540402835291602001916107c3565b820191906000526020600020905b8154815290600101906020018083116107a657829003601f168201915b50505050508152602001600d820180546107dc90612b1d565b80601f016020809104026020016040519081016040528092919081815260200182805461080890612b1d565b80156108555780601f1061082a57610100808354040283529160200191610855565b820191906000526020600020905b81548152906001019060200180831161083857829003601f168201915b5050509183525050600e82015460ff80821615156020840152610100820481161515604084015262010000909104811615156060830152600f8301546080830152601083015460a0909201911660028111156108b3576108b3612344565b60028111156108c4576108c4612344565b90525092915050565b600480546040805163a211937760e01b8152928301526008604483015267746f6b656e55726960c01b60648301526001600160a01b0383811660248401526000928392919091169063a2119377906084016020604051808303816000875af115801561093d573d6000803e3d6000fd5b505050506040513d601f19601f820116820180604052508101906109619190612b57565b9392505050565b6000806109b88360400151846000015185610100015186610120015187610140015160405160200161099e959493929190612b70565b604051602081830303815290604052805160209091012090565b6040516020016109ca91815260200190565b6040516020818303038152906040529050826009826040516109ec9190612b01565b9081526040805160209281900383019020835181559183015160018301805460ff1916911515919091179055820151600282015560608201516003820190610a349082612c1a565b5060808201516004820190610a499082612c1a565b5060a08201516005820180546001600160a01b0319166001600160a01b0390921691909117905560c08201516006820190610a849082612c1a565b5060e08201516007820190610a999082612c1a565b506101008201516008820190610aaf9082612c1a565b5061012082015160098201805460ff19166001836004811115610ad457610ad4612344565b0217905550610140820151600a820190610aee9082612c1a565b50610160820151600b820190610b049082612c1a565b50610180820151600c820190610b1a9082612c1a565b506101a0820151600d820190610b309082612c1a565b506101c0820151600e820180546101e08501516102008601511515620100000262ff0000199115156101000261ff00199515159590951661ffff19909316929092179390931792909216919091179055610220820151600f82015561024082015160108201805460ff19166001836002811115610baf57610baf612344565b021790555050600a80546001810182556000919091527fc65a7bb8d6351c1cf70c95a316cc6a92839c986682d98bc35f958f4883f9d2a8019050610bf38282612c1a565b5060019392505050565b610c05611f7f565b610c0f6000611fd9565b565b6000610c1b6121b0565b8881526001600160a01b03808c1660208084019182528683166040808601828152606087018981526000938452600885528284208a8552909452918190208651815593516001850180549187166001600160a01b0319928316179055915160028501805491871691909316179091559051600390920191909155600554905163d505accf60e01b815291169063d505accf90610cc7908e908e908e908e908e908e908e90600401612cda565b600060405180830381600087803b158015610ce157600080fd5b505af1158015610cf5573d6000803e3d6000fd5b5050600554604051633950935160e01b81526001600160a01b038e81166004830152602482018e90529091169250633950935191506044016020604051808303816000875af1158015610d4c573d6000803e3d6000fd5b505050506040513d601f19601f82011682018060405250810190610d709190612d1b565b506005546040516323b872dd60e01b81526001600160a01b03909116906323b872dd90610da5908e9030908e90600401612d38565b6020604051808303816000875af1158015610dc4573d6000803e3d6000fd5b505050506040513d601f19601f82011682018060405250810190610de89190612d1b565b5060019b9a5050505050505050505050565b6004805460405163a211937760e01b815260009283926001600160a01b03169163a211937791610e2e918f91339101612d5c565b6020604051808303816000875af1158015610e4d573d6000803e3d6000fd5b505050506040513d601f19601f82011682018060405250810190610e719190612b57565b90508060098d604051610e849190612b01565b90815260405190819003602001812091909155600190600990610ea8908f90612b01565b908152604051908190036020019020601001805460ff19166001836002811115610ed457610ed4612344565b021790555060055460405163d505accf60e01b81526001600160a01b039091169063d505accf90610f15908d9030908d908d908d908d908d90600401612cda565b600060405180830381600087803b158015610f2f57600080fd5b505af1158015610f43573d6000803e3d6000fd5b50506005546040516323b872dd60e01b81526001600160a01b0390911692506323b872dd9150610f7b908d908d908890600401612d38565b6020604051808303816000875af1158015610f9a573d6000803e3d6000fd5b505050506040513d601f19601f82011682018060405250810190610fbe9190612d1b565b5060019c9b505050505050505050505050565b6000610fdb6121b0565b506001600160a01b03808c1660009081526008602090815260408083208e8452825280832081516080810183528154815260018201548616938101939093526002810154909416908201526003909201546060830152611039611618565b600654602084810151855160408051808501959095526001600160a01b0390921684830152306060850152608084015260a083018b905260c08084018d90528151808503909101815260e08401909152805191012061190160f01b6101008301526101028201929092526101228101919091526101420160408051601f1981840301815282825280516020918201206000845290830180835281905260ff8e1691830191909152606082018c9052608082018b9052915060019060a0016020604051602081039080840390855afa158015611118573d6000803e3d6000fd5b505050602060405103516001600160a01b031682602001516001600160a01b0316146111805760405162461bcd60e51b8152602060048201526012602482015271496e76616c6964205369676e61747572652160701b60448201526064015b60405180910390fd5b600560009054906101000a90046001600160a01b03166001600160a01b03166323b872dd308f85600001516040518463ffffffff1660e01b81526004016111c993929190612d38565b6020604051808303816000875af11580156111e8573d6000803e3d6000fd5b505050506040513d601f19601f8201168201806040525081019061120c9190612d1b565b5060048054604051637ac2ff7b60e01b81523092810192909252602482018e9052604482018a905260ff881660648301526084820187905260a482018690526001600160a01b031690637ac2ff7b9060c401600060405180830381600087803b15801561127857600080fd5b505af115801561128c573d6000803e3d6000fd5b50505050600460009054906101000a90046001600160a01b03166001600160a01b03166323b872dd8e84602001518f6040518463ffffffff1660e01b81526004016112d993929190612d38565b600060405180830381600087803b1580156112f357600080fd5b505af1158015611307573d6000803e3d6000fd5b505050506001925050509a9950505050505050505050565b6004805460405163a211937760e01b815260009283926001600160a01b03169163a211937791611353918791339101612d5c565b6020604051808303816000875af1158015611372573d6000803e3d6000fd5b505050506040513d601f19601f820116820180604052508101906113969190612b57565b80855260408086015161010087015161012088015161014089015193519495506000946113d19461099e949388939092909190602001612b70565b6040516020016113e391815260200190565b6040516020818303038152906040529050846009826040516114059190612b01565b9081526040805160209281900383019020835181559183015160018301805460ff191691151591909117905582015160028201556060820151600382019061144d9082612c1a565b50608082015160048201906114629082612c1a565b5060a08201516005820180546001600160a01b0319166001600160a01b0390921691909117905560c0820151600682019061149d9082612c1a565b5060e082015160078201906114b29082612c1a565b5061010082015160088201906114c89082612c1a565b5061012082015160098201805460ff191660018360048111156114ed576114ed612344565b0217905550610140820151600a8201906115079082612c1a565b50610160820151600b82019061151d9082612c1a565b50610180820151600c8201906115339082612c1a565b506101a0820151600d8201906115499082612c1a565b506101c0820151600e820180546101e08501516102008601511515620100000262ff0000199115156101000261ff00199515159590951661ffff19909316929092179390931792909216919091179055610220820151600f82015561024082015160108201805460ff191660018360028111156115c8576115c8612344565b021790555050600a80546001810182556000919091527fc65a7bb8d6351c1cf70c95a316cc6a92839c986682d98bc35f958f4883f9d2a801905061160c8282612c1a565b50600195945050505050565b60408051808201825260048152634165726f60e01b6020918201528151808301835260018152603160f81b90820152600b5482517f8b73c3c69bb8fe3d512ecc4cf759cc79239f7b179b0ffacaa9a75d522b39400f818401527fbf01fc4e5f7eb1f2eee29681cd6d2cda1045d51fd80c223d1eaea49e08734bf9818501527fc89efdaa54c0f20c7adf612882df0950f5a951637e0307cdcb4c672f298b8bc660608201524660808201526001600160a01b0390911660a0808301919091528351808303909101815260c0909101909252815191012090565b606060006109616009846040516117079190612b01565b9081526040519081900360200190206010015460ff1661202b565b61172a611f7f565b6001600160a01b03811661178f5760405162461bcd60e51b815260206004820152602660248201527f4f776e61626c653a206e6577206f776e657220697320746865207a65726f206160448201526564647265737360d01b6064820152608401611177565b61179881611fd9565b50565b60606117a5611f7f565b600a5460018110156117ec5760405162461bcd60e51b815260206004820152601060248201526f6173736574732061726520656d70747960801b6044820152606401611177565b8084111580156117fa575060015b61186c5760405162461bcd60e51b815260206004820152603f60248201527f6c6f77657220626f756e646172792073686f756c64206265206c657373206f7260448201527f20657175616c20746f2073697a6520616e64206e6f6e206e65676174697665006064820152608401611177565b80831115801561187a575060015b6118ec5760405162461bcd60e51b815260206004820152603f60248201527f757070657220626f756e646172792073686f756c64206265206c657373206f7260448201527f20657175616c20746f2073697a6520616e64206e6f6e206e65676174697665006064820152608401611177565b60606000855b858111611f74576009600a828154811061190e5761190e612d86565b906000526020600020016040516119259190612d9c565b9081526040805191829003602090810183206102608401835280548452600181015460ff1615159184019190915260028101549183019190915260038101805460608401919061197490612b1d565b80601f01602080910402602001604051908101604052809291908181526020018280546119a090612b1d565b80156119ed5780601f106119c2576101008083540402835291602001916119ed565b820191906000526020600020905b8154815290600101906020018083116119d057829003601f168201915b50505050508152602001600482018054611a0690612b1d565b80601f0160208091040260200160405190810160405280929190818152602001828054611a3290612b1d565b8015611a7f5780601f10611a5457610100808354040283529160200191611a7f565b820191906000526020600020905b815481529060010190602001808311611a6257829003601f168201915b505050918352505060058201546001600160a01b03166020820152600682018054604090920191611aaf90612b1d565b80601f0160208091040260200160405190810160405280929190818152602001828054611adb90612b1d565b8015611b285780601f10611afd57610100808354040283529160200191611b28565b820191906000526020600020905b815481529060010190602001808311611b0b57829003601f168201915b50505050508152602001600782018054611b4190612b1d565b80601f0160208091040260200160405190810160405280929190818152602001828054611b6d90612b1d565b8015611bba5780601f10611b8f57610100808354040283529160200191611bba565b820191906000526020600020905b815481529060010190602001808311611b9d57829003601f168201915b50505050508152602001600882018054611bd390612b1d565b80601f0160208091040260200160405190810160405280929190818152602001828054611bff90612b1d565b8015611c4c5780601f10611c2157610100808354040283529160200191611c4c565b820191906000526020600020905b815481529060010190602001808311611c2f57829003601f168201915b5050509183525050600982015460209091019060ff166004811115611c7357611c73612344565b6004811115611c8457611c84612344565b8152602001600a82018054611c9890612b1d565b80601f0160208091040260200160405190810160405280929190818152602001828054611cc490612b1d565b8015611d115780601f10611ce657610100808354040283529160200191611d11565b820191906000526020600020905b815481529060010190602001808311611cf457829003601f168201915b50505050508152602001600b82018054611d2a90612b1d565b80601f0160208091040260200160405190810160405280929190818152602001828054611d5690612b1d565b8015611da35780601f10611d7857610100808354040283529160200191611da3565b820191906000526020600020905b815481529060010190602001808311611d8657829003601f168201915b50505050508152602001600c82018054611dbc90612b1d565b80601f0160208091040260200160405190810160405280929190818152602001828054611de890612b1d565b8015611e355780601f10611e0a57610100808354040283529160200191611e35565b820191906000526020600020905b815481529060010190602001808311611e1857829003601f168201915b50505050508152602001600d82018054611e4e90612b1d565b80601f0160208091040260200160405190810160405280929190818152602001828054611e7a90612b1d565b8015611ec75780601f10611e9c57610100808354040283529160200191611ec7565b820191906000526020600020905b815481529060010190602001808311611eaa57829003601f168201915b5050509183525050600e82015460ff80821615156020840152610100820481161515604084015262010000909104811615156060830152600f8301546080830152601083015460a090920191166002811115611f2557611f25612344565b6002811115611f3657611f36612344565b9052508383611f4481612e12565b945081518110611f5657611f56612d86565b60200260200101819052508080611f6c90612e12565b9150506118f2565b509095945050505050565b6001546001600160a01b03163314610c0f5760405162461bcd60e51b815260206004820181905260248201527f4f776e61626c653a2063616c6c6572206973206e6f7420746865206f776e65726044820152606401611177565b600180546001600160a01b038381166001600160a01b0319831681179093556040519116919082907f8be0079c531659141344cd1fd0a4f28419497f9722a3daafe3b4186f6b6457e090600090a35050565b6060600382600281111561204157612041612344565b60ff16111561204f57600080fd5b81600281111561206157612061612344565b60000361208b57505060408051808201909152600781526650656e64696e6760c81b602082015290565b81600281111561209d5761209d612344565b6001036120c757505060408051808201909152600781526610dc99585d195960ca1b602082015290565b505060408051808201909152600481526314dbdb1960e21b602082015290565b919050565b6040518061026001604052806000815260200160001515815260200160008152602001606081526020016060815260200160006001600160a01b031681526020016060815260200160608152602001606081526020016000600481111561215557612155612344565b81526020016060815260200160608152602001606081526020016060815260200160001515815260200160001515815260200160001515815260200160008152602001600060028111156121ab576121ab612344565b905290565b60405180608001604052806000815260200160006001600160a01b0316815260200160006001600160a01b03168152602001600081525090565b634e487b7160e01b600052604160045260246000fd5b604051610260810167ffffffffffffffff81118282101715612224576122246121ea565b60405290565b600082601f83011261223b57600080fd5b813567ffffffffffffffff80821115612256576122566121ea565b604051601f8301601f19908116603f0116810190828211818310171561227e5761227e6121ea565b8160405283815286602085880101111561229757600080fd5b836020870160208301376000602085830101528094505050505092915050565b6000602082840312156122c957600080fd5b813567ffffffffffffffff8111156122e057600080fd5b6122ec8482850161222a565b949350505050565b60005b8381101561230f5781810151838201526020016122f7565b50506000910152565b600081518084526123308160208601602086016122f4565b601f01601f19169290920160200192915050565b634e487b7160e01b600052602160045260246000fd5b6005811061236a5761236a612344565b9052565b6003811061236a5761236a612344565b600061026082518452602083015161239a602086018215159052565b506040830151604085015260608301518160608601526123bc82860182612318565b915050608083015184820360808601526123d68282612318565b91505060a08301516123f360a08601826001600160a01b03169052565b5060c083015184820360c086015261240b8282612318565b91505060e083015184820360e08601526124258282612318565b91505061010080840151858303828701526124408382612318565b92505050610120808401516124578287018261235a565b505061014080840151858303828701526124718382612318565b92505050610160808401518583038287015261248d8382612318565b9250505061018080840151858303828701526124a98382612318565b925050506101a080840151858303828701526124c58382612318565b925050506101c0808401516124dd8287018215159052565b50506101e083810151151590850152610200808401511515908501526102208084015190850152610240808401516125178287018261236e565b5090949350505050565b602081526000610961602083018461237e565b80356001600160a01b03811681146120e757600080fd5b60006020828403121561255d57600080fd5b61096182612534565b801515811461179857600080fd5b80356120e781612566565b8035600581106120e757600080fd5b8035600381106120e757600080fd5b600061026082840312156125b057600080fd5b6125b8612200565b9050813581526125ca60208301612574565b602082015260408201356040820152606082013567ffffffffffffffff808211156125f457600080fd5b6126008583860161222a565b6060840152608084013591508082111561261957600080fd5b6126258583860161222a565b608084015261263660a08501612534565b60a084015260c084013591508082111561264f57600080fd5b61265b8583860161222a565b60c084015260e084013591508082111561267457600080fd5b6126808583860161222a565b60e08401526101009150818401358181111561269b57600080fd5b6126a78682870161222a565b838501525061012091506126bc82850161257f565b82840152610140915081840135818111156126d657600080fd5b6126e28682870161222a565b8385015250610160915081840135818111156126fd57600080fd5b6127098682870161222a565b83850152506101809150818401358181111561272457600080fd5b6127308682870161222a565b83850152506101a09150818401358181111561274b57600080fd5b6127578682870161222a565b838501525050506101c061276c818401612574565b908201526101e061277e838201612574565b90820152610200612790838201612574565b9082015261022082810135908201526102406127ad81840161258e565b9082015292915050565b6000602082840312156127c957600080fd5b813567ffffffffffffffff8111156127e057600080fd5b6122ec8482850161259d565b600080604083850312156127ff57600080fd5b61280883612534565b915061281660208401612534565b90509250929050565b803560ff811681146120e757600080fd5b60008060008060008060008060006101208a8c03121561284f57600080fd5b6128588a612534565b985061286660208b01612534565b975060408a0135965060608a0135955061288260808b0161281f565b945060a08a0135935060c08a0135925061289e60e08b01612534565b91506101008a013590509295985092959850929598565b6000806000806000806000806000806101408b8d0312156128d557600080fd5b8a3567ffffffffffffffff808211156128ed57600080fd5b6128f98e838f0161222a565b9b5060208d013591508082111561290f57600080fd5b5061291c8d828e0161222a565b99505061292b60408c01612534565b975061293960608c01612534565b965060808b0135955060a08b0135945061295560c08c0161281f565b935060e08b013592506101008b013591506101208b013590509295989b9194979a5092959850565b6000806000806000806000806000806101408b8d03121561299d57600080fd5b6129a68b612534565b995060208b013598506129bb60408c0161281f565b975060608b0135965060808b0135955060a08b0135945060c08b013593506129e560e08c0161281f565b92506101008b013591506101208b013590509295989b9194979a5092959850565b60008060408385031215612a1957600080fd5b823567ffffffffffffffff80821115612a3157600080fd5b612a3d8683870161259d565b93506020850135915080821115612a5357600080fd5b50612a608582860161222a565b9150509250929050565b6020815260006109616020830184612318565b60008060408385031215612a9057600080fd5b50508035926020909101359150565b6000602080830181845280855180835260408601915060408160051b870101925083870160005b82811015612af457603f19888603018452612ae285835161237e565b94509285019290850190600101612ac6565b5092979650505050505050565b60008251612b138184602087016122f4565b9190910192915050565b600181811c90821680612b3157607f821691505b602082108103612b5157634e487b7160e01b600052602260045260246000fd5b50919050565b600060208284031215612b6957600080fd5b5051919050565b85815284602082015260008451612b8e8160408501602089016122f4565b820160058510612ba057612ba0612344565b8460f81b60408201528351612bbc8160418401602088016122f4565b01604101979650505050505050565b601f821115612c1557600081815260208120601f850160051c81016020861015612bf25750805b601f850160051c820191505b81811015612c1157828155600101612bfe565b5050505b505050565b815167ffffffffffffffff811115612c3457612c346121ea565b612c4881612c428454612b1d565b84612bcb565b602080601f831160018114612c7d5760008415612c655750858301515b600019600386901b1c1916600185901b178555612c11565b600085815260208120601f198616915b82811015612cac57888601518255948401946001909101908401612c8d565b5085821015612cca5787850151600019600388901b60f8161c191681555b5050505050600190811b01905550565b6001600160a01b0397881681529590961660208601526040850193909352606084019190915260ff16608083015260a082015260c081019190915260e00190565b600060208284031215612d2d57600080fd5b815161096181612566565b6001600160a01b039384168152919092166020820152604081019190915260600190565b604081526000612d6f6040830185612318565b905060018060a01b03831660208301529392505050565b634e487b7160e01b600052603260045260246000fd5b6000808354612daa81612b1d565b60018281168015612dc25760018114612dd757612e06565b60ff1984168752821515830287019450612e06565b8760005260208060002060005b85811015612dfd5781548a820152908401908201612de4565b50505082870194505b50929695505050505050565b600060018201612e3257634e487b7160e01b600052601160045260246000fd5b506001019056fea264697066735822122033781bdeeb3455c28c762b3554ed86f0f066889782b1ee04aeaa5fc95c47788564736f6c63430008110033",
  "linkReferences": {},
  "deployedLinkReferences": {}
}