{
  "_format": "hh-sol-artifact-1",
  "contractName": "NFTMarketV2",
  "sourceName": "contracts/v2/NFTMarketV2.sol",
  "abi": [
    {
      "inputs": [],
      "stateMutability": "nonpayable",
      "type": "constructor"
    },
    {
      "anonymous": false,
      "inputs": [
        {
          "indexed": false,
          "internalType": "bytes32",
          "name": "hash",
          "type": "bytes32"
        },
        {
          "indexed": false,
          "internalType": "uint256",
          "name": "tokenId",
          "type": "uint256"
        }
      ],
      "name": "AssetForSellCreated",
      "type": "event"
    },
    {
      "anonymous": false,
      "inputs": [
        {
          "indexed": false,
          "internalType": "bytes32",
          "name": "assetHash",
          "type": "bytes32"
        },
        {
          "indexed": false,
          "internalType": "uint256",
          "name": "assetId",
          "type": "uint256"
        }
      ],
      "name": "CreateAsset",
      "type": "event"
    },
    {
      "anonymous": false,
      "inputs": [
        {
          "indexed": false,
          "internalType": "bytes32",
          "name": "assetPendingHash",
          "type": "bytes32"
        }
      ],
      "name": "CreateAssetPending",
      "type": "event"
    },
    {
      "anonymous": false,
      "inputs": [
        {
          "indexed": false,
          "internalType": "address",
          "name": "nft",
          "type": "address"
        },
        {
          "indexed": false,
          "internalType": "address",
          "name": "aero",
          "type": "address"
        }
      ],
      "name": "Instance",
      "type": "event"
    },
    {
      "anonymous": false,
      "inputs": [
        {
          "indexed": false,
          "internalType": "uint256",
          "name": "tokenId",
          "type": "uint256"
        }
      ],
      "name": "MintNFT",
      "type": "event"
    },
    {
      "anonymous": false,
      "inputs": [
        {
          "indexed": true,
          "internalType": "address",
          "name": "previousOwner",
          "type": "address"
        },
        {
          "indexed": true,
          "internalType": "address",
          "name": "newOwner",
          "type": "address"
        }
      ],
      "name": "OwnershipTransferred",
      "type": "event"
    },
    {
      "inputs": [],
      "name": "ERC20_DOMAIN_SEPARATOR",
      "outputs": [
        {
          "internalType": "bytes32",
          "name": "",
          "type": "bytes32"
        }
      ],
      "stateMutability": "view",
      "type": "function"
    },
    {
      "inputs": [],
      "name": "_PERMIT_TYPEHASH",
      "outputs": [
        {
          "internalType": "bytes32",
          "name": "",
          "type": "bytes32"
        }
      ],
      "stateMutability": "view",
      "type": "function"
    },
    {
      "inputs": [
        {
          "internalType": "bytes32",
          "name": "hash",
          "type": "bytes32"
        },
        {
          "internalType": "string",
          "name": "tokenUri",
          "type": "string"
        },
        {
          "internalType": "address",
          "name": "signer",
          "type": "address"
        },
        {
          "internalType": "address",
          "name": "spender",
          "type": "address"
        },
        {
          "internalType": "address",
          "name": "projectOwner",
          "type": "address"
        },
        {
          "internalType": "uint256",
          "name": "value",
          "type": "uint256"
        },
        {
          "internalType": "uint256",
          "name": "deadline",
          "type": "uint256"
        },
        {
          "internalType": "uint8",
          "name": "v",
          "type": "uint8"
        },
        {
          "internalType": "bytes32",
          "name": "r",
          "type": "bytes32"
        },
        {
          "internalType": "bytes32",
          "name": "s",
          "type": "bytes32"
        }
      ],
      "name": "approvePendingAsset",
      "outputs": [],
      "stateMutability": "nonpayable",
      "type": "function"
    },
    {
      "inputs": [
        {
          "internalType": "bytes32",
          "name": "hash",
          "type": "bytes32"
        }
      ],
      "name": "approveRequest",
      "outputs": [],
      "stateMutability": "nonpayable",
      "type": "function"
    },
    {
      "inputs": [
        {
          "internalType": "address",
          "name": "nftContractAddress",
          "type": "address"
        },
        {
          "internalType": "address",
          "name": "aeroContractAddress",
          "type": "address"
        }
      ],
      "name": "assignDeployedAddressToInstance",
      "outputs": [
        {
          "internalType": "bool",
          "name": "",
          "type": "bool"
        }
      ],
      "stateMutability": "nonpayable",
      "type": "function"
    },
    {
      "inputs": [
        {
          "internalType": "address",
          "name": "owner",
          "type": "address"
        },
        {
          "internalType": "address",
          "name": "spender",
          "type": "address"
        },
        {
          "internalType": "uint256",
          "name": "value",
          "type": "uint256"
        },
        {
          "internalType": "uint256",
          "name": "deadline",
          "type": "uint256"
        },
        {
          "internalType": "uint8",
          "name": "v",
          "type": "uint8"
        },
        {
          "internalType": "bytes32",
          "name": "r",
          "type": "bytes32"
        },
        {
          "internalType": "bytes32",
          "name": "s",
          "type": "bytes32"
        }
      ],
      "name": "buyAsset",
      "outputs": [],
      "stateMutability": "nonpayable",
      "type": "function"
    },
    {
      "inputs": [
        {
          "internalType": "address",
          "name": "nftOwner",
          "type": "address"
        },
        {
          "internalType": "uint256",
          "name": "_tokenId",
          "type": "uint256"
        },
        {
          "internalType": "uint8",
          "name": "v",
          "type": "uint8"
        },
        {
          "internalType": "bytes32",
          "name": "r",
          "type": "bytes32"
        },
        {
          "internalType": "bytes32",
          "name": "s",
          "type": "bytes32"
        },
        {
          "internalType": "uint256",
          "name": "deadline",
          "type": "uint256"
        },
        {
          "internalType": "uint256",
          "name": "nonce",
          "type": "uint256"
        },
        {
          "internalType": "uint8",
          "name": "vN",
          "type": "uint8"
        },
        {
          "internalType": "bytes32",
          "name": "rN",
          "type": "bytes32"
        },
        {
          "internalType": "bytes32",
          "name": "sN",
          "type": "bytes32"
        }
      ],
      "name": "buyAssetApprove",
      "outputs": [],
      "stateMutability": "nonpayable",
      "type": "function"
    },
    {
      "inputs": [
        {
          "internalType": "address",
          "name": "owner",
          "type": "address"
        },
        {
          "internalType": "address",
          "name": "spender",
          "type": "address"
        },
        {
          "internalType": "uint256",
          "name": "value",
          "type": "uint256"
        },
        {
          "internalType": "uint256",
          "name": "deadline",
          "type": "uint256"
        },
        {
          "internalType": "uint8",
          "name": "v",
          "type": "uint8"
        },
        {
          "internalType": "bytes32",
          "name": "r",
          "type": "bytes32"
        },
        {
          "internalType": "bytes32",
          "name": "s",
          "type": "bytes32"
        },
        {
          "internalType": "address",
          "name": "nftOwner",
          "type": "address"
        },
        {
          "internalType": "uint256",
          "name": "_tokenId",
          "type": "uint256"
        }
      ],
      "name": "buyAssetRequest",
      "outputs": [],
      "stateMutability": "nonpayable",
      "type": "function"
    },
    {
      "inputs": [
        {
          "components": [
            {
              "internalType": "uint256",
              "name": "nftID",
              "type": "uint256"
            },
            {
              "internalType": "bool",
              "name": "new_env",
              "type": "bool"
            },
            {
              "internalType": "uint256",
              "name": "creatorUserID",
              "type": "uint256"
            },
            {
              "internalType": "string",
              "name": "creatorUsername",
              "type": "string"
            },
            {
              "internalType": "string",
              "name": "creatorName",
              "type": "string"
            },
            {
              "internalType": "address",
              "name": "creatorMetamaskId",
              "type": "address"
            },
            {
              "internalType": "string",
              "name": "associatedProjectName",
              "type": "string"
            },
            {
              "internalType": "string",
              "name": "associatedProjectUrl",
              "type": "string"
            },
            {
              "internalType": "string",
              "name": "assetName",
              "type": "string"
            },
            {
              "internalType": "enum NFTMarketV2.AssetType",
              "name": "assetType",
              "type": "uint8"
            },
            {
              "internalType": "string",
              "name": "assetDescription",
              "type": "string"
            },
            {
              "internalType": "string",
              "name": "assetOffer",
              "type": "string"
            },
            {
              "internalType": "string",
              "name": "assetTerms",
              "type": "string"
            },
            {
              "internalType": "string",
              "name": "assetImage",
              "type": "string"
            },
            {
              "internalType": "bool",
              "name": "isHidden",
              "type": "bool"
            },
            {
              "internalType": "bool",
              "name": "isPrivate",
              "type": "bool"
            },
            {
              "internalType": "bool",
              "name": "multiNft",
              "type": "bool"
            },
            {
              "internalType": "uint256",
              "name": "assetPrice",
              "type": "uint256"
            },
            {
              "internalType": "enum NFTMarketV2.Status",
              "name": "status",
              "type": "uint8"
            },
            {
              "internalType": "bool",
              "name": "requestApproval",
              "type": "bool"
            }
          ],
          "internalType": "struct NFTMarketV2.MarketItem",
          "name": "data",
          "type": "tuple"
        },
        {
          "internalType": "string",
          "name": "tokenUri",
          "type": "string"
        }
      ],
      "name": "createAsset",
      "outputs": [],
      "stateMutability": "nonpayable",
      "type": "function"
    },
    {
      "inputs": [
        {
          "components": [
            {
              "internalType": "uint256",
              "name": "nftID",
              "type": "uint256"
            },
            {
              "internalType": "bool",
              "name": "new_env",
              "type": "bool"
            },
            {
              "internalType": "uint256",
              "name": "creatorUserID",
              "type": "uint256"
            },
            {
              "internalType": "string",
              "name": "creatorUsername",
              "type": "string"
            },
            {
              "internalType": "string",
              "name": "creatorName",
              "type": "string"
            },
            {
              "internalType": "address",
              "name": "creatorMetamaskId",
              "type": "address"
            },
            {
              "internalType": "string",
              "name": "associatedProjectName",
              "type": "string"
            },
            {
              "internalType": "string",
              "name": "associatedProjectUrl",
              "type": "string"
            },
            {
              "internalType": "string",
              "name": "assetName",
              "type": "string"
            },
            {
              "internalType": "enum NFTMarketV2.AssetType",
              "name": "assetType",
              "type": "uint8"
            },
            {
              "internalType": "string",
              "name": "assetDescription",
              "type": "string"
            },
            {
              "internalType": "string",
              "name": "assetOffer",
              "type": "string"
            },
            {
              "internalType": "string",
              "name": "assetTerms",
              "type": "string"
            },
            {
              "internalType": "string",
              "name": "assetImage",
              "type": "string"
            },
            {
              "internalType": "bool",
              "name": "isHidden",
              "type": "bool"
            },
            {
              "internalType": "bool",
              "name": "isPrivate",
              "type": "bool"
            },
            {
              "internalType": "bool",
              "name": "multiNft",
              "type": "bool"
            },
            {
              "internalType": "uint256",
              "name": "assetPrice",
              "type": "uint256"
            },
            {
              "internalType": "enum NFTMarketV2.Status",
              "name": "status",
              "type": "uint8"
            },
            {
              "internalType": "bool",
              "name": "requestApproval",
              "type": "bool"
            }
          ],
          "internalType": "struct NFTMarketV2.MarketItem",
          "name": "data",
          "type": "tuple"
        },
        {
          "internalType": "string",
          "name": "tokenUri",
          "type": "string"
        },
        {
          "internalType": "uint8",
          "name": "v",
          "type": "uint8"
        },
        {
          "internalType": "bytes32",
          "name": "r",
          "type": "bytes32"
        },
        {
          "internalType": "bytes32",
          "name": "s",
          "type": "bytes32"
        },
        {
          "internalType": "uint256",
          "name": "deadline",
          "type": "uint256"
        },
        {
          "internalType": "uint256",
          "name": "tokenId",
          "type": "uint256"
        }
      ],
      "name": "createAssetForSell",
      "outputs": [],
      "stateMutability": "nonpayable",
      "type": "function"
    },
    {
      "inputs": [
        {
          "components": [
            {
              "internalType": "uint256",
              "name": "nftID",
              "type": "uint256"
            },
            {
              "internalType": "bool",
              "name": "new_env",
              "type": "bool"
            },
            {
              "internalType": "uint256",
              "name": "creatorUserID",
              "type": "uint256"
            },
            {
              "internalType": "string",
              "name": "creatorUsername",
              "type": "string"
            },
            {
              "internalType": "string",
              "name": "creatorName",
              "type": "string"
            },
            {
              "internalType": "address",
              "name": "creatorMetamaskId",
              "type": "address"
            },
            {
              "internalType": "string",
              "name": "associatedProjectName",
              "type": "string"
            },
            {
              "internalType": "string",
              "name": "associatedProjectUrl",
              "type": "string"
            },
            {
              "internalType": "string",
              "name": "assetName",
              "type": "string"
            },
            {
              "internalType": "enum NFTMarketV2.AssetType",
              "name": "assetType",
              "type": "uint8"
            },
            {
              "internalType": "string",
              "name": "assetDescription",
              "type": "string"
            },
            {
              "internalType": "string",
              "name": "assetOffer",
              "type": "string"
            },
            {
              "internalType": "string",
              "name": "assetTerms",
              "type": "string"
            },
            {
              "internalType": "string",
              "name": "assetImage",
              "type": "string"
            },
            {
              "internalType": "bool",
              "name": "isHidden",
              "type": "bool"
            },
            {
              "internalType": "bool",
              "name": "isPrivate",
              "type": "bool"
            },
            {
              "internalType": "bool",
              "name": "multiNft",
              "type": "bool"
            },
            {
              "internalType": "uint256",
              "name": "assetPrice",
              "type": "uint256"
            },
            {
              "internalType": "enum NFTMarketV2.Status",
              "name": "status",
              "type": "uint8"
            },
            {
              "internalType": "bool",
              "name": "requestApproval",
              "type": "bool"
            }
          ],
          "internalType": "struct NFTMarketV2.MarketItem",
          "name": "data",
          "type": "tuple"
        }
      ],
      "name": "createAssetPending",
      "outputs": [
        {
          "internalType": "bytes32",
          "name": "",
          "type": "bytes32"
        }
      ],
      "stateMutability": "nonpayable",
      "type": "function"
    },
    {
      "inputs": [],
      "name": "getAllHashesLength",
      "outputs": [
        {
          "internalType": "uint256",
          "name": "",
          "type": "uint256"
        }
      ],
      "stateMutability": "view",
      "type": "function"
    },
    {
      "inputs": [
        {
          "internalType": "uint256",
          "name": "lowerBoundary",
          "type": "uint256"
        },
        {
          "internalType": "uint256",
          "name": "upperBoundary",
          "type": "uint256"
        }
      ],
      "name": "getAllMarketItem",
      "outputs": [
        {
          "components": [
            {
              "internalType": "uint256",
              "name": "nftID",
              "type": "uint256"
            },
            {
              "internalType": "bool",
              "name": "new_env",
              "type": "bool"
            },
            {
              "internalType": "uint256",
              "name": "creatorUserID",
              "type": "uint256"
            },
            {
              "internalType": "string",
              "name": "creatorUsername",
              "type": "string"
            },
            {
              "internalType": "string",
              "name": "creatorName",
              "type": "string"
            },
            {
              "internalType": "address",
              "name": "creatorMetamaskId",
              "type": "address"
            },
            {
              "internalType": "string",
              "name": "associatedProjectName",
              "type": "string"
            },
            {
              "internalType": "string",
              "name": "associatedProjectUrl",
              "type": "string"
            },
            {
              "internalType": "string",
              "name": "assetName",
              "type": "string"
            },
            {
              "internalType": "enum NFTMarketV2.AssetType",
              "name": "assetType",
              "type": "uint8"
            },
            {
              "internalType": "string",
              "name": "assetDescription",
              "type": "string"
            },
            {
              "internalType": "string",
              "name": "assetOffer",
              "type": "string"
            },
            {
              "internalType": "string",
              "name": "assetTerms",
              "type": "string"
            },
            {
              "internalType": "string",
              "name": "assetImage",
              "type": "string"
            },
            {
              "internalType": "bool",
              "name": "isHidden",
              "type": "bool"
            },
            {
              "internalType": "bool",
              "name": "isPrivate",
              "type": "bool"
            },
            {
              "internalType": "bool",
              "name": "multiNft",
              "type": "bool"
            },
            {
              "internalType": "uint256",
              "name": "assetPrice",
              "type": "uint256"
            },
            {
              "internalType": "enum NFTMarketV2.Status",
              "name": "status",
              "type": "uint8"
            },
            {
              "internalType": "bool",
              "name": "requestApproval",
              "type": "bool"
            }
          ],
          "internalType": "struct NFTMarketV2.MarketItem[]",
          "name": "",
          "type": "tuple[]"
        }
      ],
      "stateMutability": "view",
      "type": "function"
    },
    {
      "inputs": [
        {
          "internalType": "bytes32",
          "name": "hash",
          "type": "bytes32"
        }
      ],
      "name": "getMarketItem",
      "outputs": [
        {
          "components": [
            {
              "internalType": "uint256",
              "name": "nftID",
              "type": "uint256"
            },
            {
              "internalType": "bool",
              "name": "new_env",
              "type": "bool"
            },
            {
              "internalType": "uint256",
              "name": "creatorUserID",
              "type": "uint256"
            },
            {
              "internalType": "string",
              "name": "creatorUsername",
              "type": "string"
            },
            {
              "internalType": "string",
              "name": "creatorName",
              "type": "string"
            },
            {
              "internalType": "address",
              "name": "creatorMetamaskId",
              "type": "address"
            },
            {
              "internalType": "string",
              "name": "associatedProjectName",
              "type": "string"
            },
            {
              "internalType": "string",
              "name": "associatedProjectUrl",
              "type": "string"
            },
            {
              "internalType": "string",
              "name": "assetName",
              "type": "string"
            },
            {
              "internalType": "enum NFTMarketV2.AssetType",
              "name": "assetType",
              "type": "uint8"
            },
            {
              "internalType": "string",
              "name": "assetDescription",
              "type": "string"
            },
            {
              "internalType": "string",
              "name": "assetOffer",
              "type": "string"
            },
            {
              "internalType": "string",
              "name": "assetTerms",
              "type": "string"
            },
            {
              "internalType": "string",
              "name": "assetImage",
              "type": "string"
            },
            {
              "internalType": "bool",
              "name": "isHidden",
              "type": "bool"
            },
            {
              "internalType": "bool",
              "name": "isPrivate",
              "type": "bool"
            },
            {
              "internalType": "bool",
              "name": "multiNft",
              "type": "bool"
            },
            {
              "internalType": "uint256",
              "name": "assetPrice",
              "type": "uint256"
            },
            {
              "internalType": "enum NFTMarketV2.Status",
              "name": "status",
              "type": "uint8"
            },
            {
              "internalType": "bool",
              "name": "requestApproval",
              "type": "bool"
            }
          ],
          "internalType": "struct NFTMarketV2.MarketItem",
          "name": "",
          "type": "tuple"
        }
      ],
      "stateMutability": "view",
      "type": "function"
    },
    {
      "inputs": [
        {
          "internalType": "bytes32",
          "name": "hash",
          "type": "bytes32"
        }
      ],
      "name": "getMarketItemStatus",
      "outputs": [
        {
          "internalType": "string",
          "name": "",
          "type": "string"
        }
      ],
      "stateMutability": "view",
      "type": "function"
    },
    {
      "inputs": [
        {
          "internalType": "string",
          "name": "tokenUri",
          "type": "string"
        },
        {
          "internalType": "address",
          "name": "nftOwner",
          "type": "address"
        }
      ],
      "name": "mintNFT",
      "outputs": [
        {
          "internalType": "uint256",
          "name": "",
          "type": "uint256"
        }
      ],
      "stateMutability": "nonpayable",
      "type": "function"
    },
    {
      "inputs": [],
      "name": "owner",
      "outputs": [
        {
          "internalType": "address",
          "name": "",
          "type": "address"
        }
      ],
      "stateMutability": "view",
      "type": "function"
    },
    {
      "inputs": [],
      "name": "renounceOwnership",
      "outputs": [],
      "stateMutability": "nonpayable",
      "type": "function"
    },
    {
      "inputs": [
        {
          "internalType": "bytes32",
          "name": "hash",
          "type": "bytes32"
        }
      ],
      "name": "setMarketItemToPrivate",
      "outputs": [],
      "stateMutability": "nonpayable",
      "type": "function"
    },
    {
      "inputs": [
        {
          "internalType": "address",
          "name": "newOwner",
          "type": "address"
        }
      ],
      "name": "transferOwnership",
      "outputs": [],
      "stateMutability": "nonpayable",
      "type": "function"
    }
  ],
  "bytecode": "0x60806040527f6e71edae12b1b97f4d1f60370fef10105fa2faae0126114a169c64845d6126c960065566038d7ea4c680006007553480156200004057600080fd5b506001600055620000513362000057565b620000a9565b600180546001600160a01b038381166001600160a01b0319831681179093556040519116919082907f8be0079c531659141344cd1fd0a4f28419497f9722a3daafe3b4186f6b6457e090600090a35050565b61366880620000b96000396000f3fe608060405234801561001057600080fd5b506004361061012c5760003560e01c806380f12fcd116100ad578063cd7e0f7a11610071578063cd7e0f7a146102ab578063d22cad9a146102be578063e2208a65146102d1578063f2fde38b146102d9578063f7785a07146102ec57600080fd5b806380f12fcd1461024c5780638184a48c146102545780638da5cb5b14610274578063982aaf6b1461028f578063a92763281461029857600080fd5b80636abfcc72116100f45780636abfcc72146101c0578063715018a6146101d357806372c40429146101db57806376ba6009146101fe5780637d7b30561461022c57600080fd5b806304f322791461013157806340393fd31461015757806343fb19d91461016c57806346b4c35d1461019a57806355824391146101ad575b600080fd5b61014461013f366004612a29565b61030c565b6040519081526020015b60405180910390f35b61016a610165366004612ceb565b6103c7565b005b61016a61017a366004612d84565b6000908152600960205260409020600e01805461ff001916610100179055565b61016a6101a8366004612d9d565b6107a5565b61016a6101bb366004612e01565b610ae5565b6101446101ce366004612e86565b610cc7565b61016a610f82565b6101ee6101e9366004612ec3565b610f96565b604051901515815260200161014e565b61016a61020c366004612d84565b6000908152600960205260409020601001805461ff001916610100179055565b61023f61023a366004612d84565b611016565b60405161014e9190612f3d565b600a54610144565b610267610262366004612d84565b61103f565b60405161014e919061313b565b6001546040516001600160a01b03909116815260200161014e565b61014460065481565b61016a6102a636600461314e565b61167c565b61016a6102b93660046131d7565b6119c2565b61016a6102cc366004613268565b611bc5565b610144611d2c565b61016a6102e73660046132d2565b611e04565b6102ff6102fa3660046132ed565b611e7d565b60405161014e919061330f565b6004805460405163a211937760e01b815260009283926001600160a01b03169163a211937791610340918891889101613371565b6020604051808303816000875af115801561035f573d6000803e3d6000fd5b505050506040513d601f19601f82011682018060405250810190610383919061339b565b90507f2cc161d398589ff5526cd6b429338ae827d66c48171d3dbaeac9a7bf822935bd816040516103b691815260200190565b60405180910390a190505b92915050565b6004805460a089015160405163a211937760e01b81526001600160a01b039092169263a2119377926103fd928b92909101613371565b6020604051808303816000875af115801561041c573d6000803e3d6000fd5b505050506040513d601f19601f82011682018060405250810190610440919061339b565b5060048054604051637ac2ff7b60e01b81523092810192909252602482018390526044820184905260ff871660648301526084820186905260a482018590526001600160a01b031690637ac2ff7b9060c401600060405180830381600087803b1580156104ac57600080fd5b505af11580156104c0573d6000803e3d6000fd5b505050818852506040808801516101008901516101208a01516101408b01519351600094610516946104fc9490938893919290916020016133b4565b604051602081830303815290604052805160209091012090565b60405160200161052891815260200190565b60408051808303601f1901815291815281516020928301206000818152600984528290208b518155928b015160018401805460ff1916911515919091179055908a0151600283015560608a0151909250899190600382019061058a9082613498565b506080820151600482019061059f9082613498565b5060a08201516005820180546001600160a01b0319166001600160a01b0390921691909117905560c082015160068201906105da9082613498565b5060e082015160078201906105ef9082613498565b5061010082015160088201906106059082613498565b5061012082015160098201805460ff1916600183600481111561062a5761062a612f50565b0217905550610140820151600a8201906106449082613498565b50610160820151600b82019061065a9082613498565b50610180820151600c8201906106709082613498565b506101a0820151600d8201906106869082613498565b506101c0820151600e820180546101e08501516102008601511515620100000262ff0000199115156101000261ff00199515159590951661ffff19909316929092179390931792909216919091179055610220820151600f82015561024082015160108201805460ff1916600183600281111561070557610705612f50565b02179055506102609190910151601090910180549115156101000261ff0019909216919091179055600a80546001810182556000919091527fc65a7bb8d6351c1cf70c95a316cc6a92839c986682d98bc35f958f4883f9d2a80181905560408051828152602081018490527f0400a15904b2574e109cd26861b874b1208c6d17bc8beafdb885d8ecc14f00b8910160405180910390a15050505050505050565b6004805460a084015160405163a211937760e01b81526000936001600160a01b039093169263a2119377926107dc92879201613371565b6020604051808303816000875af11580156107fb573d6000803e3d6000fd5b505050506040513d601f19601f8201168201806040525081019061081f919061339b565b808452604080850151610100860151610120870151610140880151935194955060009461085a946104fc9493889390929091906020016133b4565b60405160200161086c91815260200190565b60408051808303601f190181529181528151602092830120600081815260098452829020875181559287015160018401805460ff1916911515919091179055908601516002830155606086015190925085919060038201906108ce9082613498565b50608082015160048201906108e39082613498565b5060a08201516005820180546001600160a01b0319166001600160a01b0390921691909117905560c0820151600682019061091e9082613498565b5060e082015160078201906109339082613498565b5061010082015160088201906109499082613498565b5061012082015160098201805460ff1916600183600481111561096e5761096e612f50565b0217905550610140820151600a8201906109889082613498565b50610160820151600b82019061099e9082613498565b50610180820151600c8201906109b49082613498565b506101a0820151600d8201906109ca9082613498565b506101c0820151600e820180546101e08501516102008601511515620100000262ff0000199115156101000261ff00199515159590951661ffff19909316929092179390931792909216919091179055610220820151600f82015561024082015160108201805460ff19166001836002811115610a4957610a49612f50565b02179055506102609190910151601090910180549115156101000261ff0019909216919091179055600a80546001810182556000919091527fc65a7bb8d6351c1cf70c95a316cc6a92839c986682d98bc35f958f4883f9d2a80181905560408051828152602081018490527f7cddf1fb24a9ce9a5994bab46a1ea1306bbaba94e6b9f319cc235ed8bfeb8d6c910160405180910390a150505050565b610aed61283f565b8781526001600160a01b03808b166020808401918252858316604080860182815260608701888152600093845260088552828420898552909452918190208651815593516001850180549187166001600160a01b0319928316179055915160028501805491871691909316179091559051600390920191909155600554905163d505accf60e01b815291169063d505accf90610b99908d908d908d908d908d908d908d90600401613558565b600060405180830381600087803b158015610bb357600080fd5b505af1158015610bc7573d6000803e3d6000fd5b5050600554604051633950935160e01b81526001600160a01b038d81166004830152602482018d90529091169250633950935191506044016020604051808303816000875af1158015610c1e573d6000803e3d6000fd5b505050506040513d601f19601f82011682018060405250810190610c429190613599565b506005546040516323b872dd60e01b81526001600160a01b03909116906323b872dd90610c77908d9030908d906004016135b6565b6020604051808303816000875af1158015610c96573d6000803e3d6000fd5b505050506040513d601f19601f82011682018060405250810190610cba9190613599565b5050505050505050505050565b600080610cfd836040015184600001518561010001518661012001518761014001516040516020016104fc9594939291906133b4565b604051602001610d0f91815260200190565b60408051808303601f190181529181528151602092830120600081815260098452829020865181559286015160018401805460ff191691151591909117905590850151600283015560608501519092508491906003820190610d719082613498565b5060808201516004820190610d869082613498565b5060a08201516005820180546001600160a01b0319166001600160a01b0390921691909117905560c08201516006820190610dc19082613498565b5060e08201516007820190610dd69082613498565b506101008201516008820190610dec9082613498565b5061012082015160098201805460ff19166001836004811115610e1157610e11612f50565b0217905550610140820151600a820190610e2b9082613498565b50610160820151600b820190610e419082613498565b50610180820151600c820190610e579082613498565b506101a0820151600d820190610e6d9082613498565b506101c0820151600e820180546101e08501516102008601511515620100000262ff0000199115156101000261ff00199515159590951661ffff19909316929092179390931792909216919091179055610220820151600f82015561024082015160108201805460ff19166001836002811115610eec57610eec612f50565b02179055506102609190910151601090910180549115156101000261ff0019909216919091179055600a80546001810182556000919091527fc65a7bb8d6351c1cf70c95a316cc6a92839c986682d98bc35f958f4883f9d2a8018190556040518181527f8be2d25238708c5e063396e6d61f4b7b207886987437015d6484870f109924a89060200160405180910390a192915050565b610f8a6126d2565b610f94600061272c565b565b600480546001600160a01b038481166001600160a01b031992831681179093556005805491851691831682179055600b805490921681179091556040805192835260208301919091526000917fe35fa6870eeedba0df9480a717f514d523b132dc90a8075df0b4f4b91bf27b4a910160405180910390a150600192915050565b600081815260096020526040812060100154606091906110389060ff1661277e565b9392505050565b611047612879565b60008281526009602090815260409182902082516102808101845281548152600182015460ff1615159281019290925260028101549282019290925260038201805491929160608401919061109b9061340f565b80601f01602080910402602001604051908101604052809291908181526020018280546110c79061340f565b80156111145780601f106110e957610100808354040283529160200191611114565b820191906000526020600020905b8154815290600101906020018083116110f757829003601f168201915b5050505050815260200160048201805461112d9061340f565b80601f01602080910402602001604051908101604052809291908181526020018280546111599061340f565b80156111a65780601f1061117b576101008083540402835291602001916111a6565b820191906000526020600020905b81548152906001019060200180831161118957829003601f168201915b505050918352505060058201546001600160a01b031660208201526006820180546040909201916111d69061340f565b80601f01602080910402602001604051908101604052809291908181526020018280546112029061340f565b801561124f5780601f106112245761010080835404028352916020019161124f565b820191906000526020600020905b81548152906001019060200180831161123257829003601f168201915b505050505081526020016007820180546112689061340f565b80601f01602080910402602001604051908101604052809291908181526020018280546112949061340f565b80156112e15780601f106112b6576101008083540402835291602001916112e1565b820191906000526020600020905b8154815290600101906020018083116112c457829003601f168201915b505050505081526020016008820180546112fa9061340f565b80601f01602080910402602001604051908101604052809291908181526020018280546113269061340f565b80156113735780601f1061134857610100808354040283529160200191611373565b820191906000526020600020905b81548152906001019060200180831161135657829003601f168201915b5050509183525050600982015460209091019060ff16600481111561139a5761139a612f50565b60048111156113ab576113ab612f50565b8152602001600a820180546113bf9061340f565b80601f01602080910402602001604051908101604052809291908181526020018280546113eb9061340f565b80156114385780601f1061140d57610100808354040283529160200191611438565b820191906000526020600020905b81548152906001019060200180831161141b57829003601f168201915b50505050508152602001600b820180546114519061340f565b80601f016020809104026020016040519081016040528092919081815260200182805461147d9061340f565b80156114ca5780601f1061149f576101008083540402835291602001916114ca565b820191906000526020600020905b8154815290600101906020018083116114ad57829003601f168201915b50505050508152602001600c820180546114e39061340f565b80601f016020809104026020016040519081016040528092919081815260200182805461150f9061340f565b801561155c5780601f106115315761010080835404028352916020019161155c565b820191906000526020600020905b81548152906001019060200180831161153f57829003601f168201915b50505050508152602001600d820180546115759061340f565b80601f01602080910402602001604051908101604052809291908181526020018280546115a19061340f565b80156115ee5780601f106115c3576101008083540402835291602001916115ee565b820191906000526020600020905b8154815290600101906020018083116115d157829003601f168201915b5050509183525050600e82015460ff80821615156020840152610100820481161515604084015262010000909104811615156060830152600f8301546080830152601083015460a09092019116600281111561164c5761164c612f50565b600281111561165d5761165d612f50565b815260109190910154610100900460ff16151560209091015292915050565b61168461283f565b506001600160a01b03808b1660009081526008602090815260408083208d84528252808320815160808101835281548152600182015486169381019390935260028101549094169082015260039092015460608301526116e2611d2c565b600654602084810151855160408051808501959095526001600160a01b0390921684830152306060850152608084015260a083018a905260c08084018c90528151808503909101815260e08401909152805191012061190160f01b6101008301526101028201929092526101228101919091526101420160408051601f1981840301815282825280516020918201206000845290830180835281905260ff8d1691830191909152606082018b9052608082018a9052915060019060a0016020604051602081039080840390855afa1580156117c1573d6000803e3d6000fd5b505050602060405103516001600160a01b031682602001516001600160a01b0316146118295760405162461bcd60e51b8152602060048201526012602482015271496e76616c6964205369676e61747572652160701b60448201526064015b60405180910390fd5b600560009054906101000a90046001600160a01b03166001600160a01b03166323b872dd308e85600001516040518463ffffffff1660e01b8152600401611872939291906135b6565b6020604051808303816000875af1158015611891573d6000803e3d6000fd5b505050506040513d601f19601f820116820180604052508101906118b59190613599565b5060048054604051637ac2ff7b60e01b81523092810192909252602482018d90526044820189905260ff871660648301526084820186905260a482018590526001600160a01b031690637ac2ff7b9060c401600060405180830381600087803b15801561192157600080fd5b505af1158015611935573d6000803e3d6000fd5b50505050600460009054906101000a90046001600160a01b03166001600160a01b03166323b872dd8d84602001518e6040518463ffffffff1660e01b8152600401611982939291906135b6565b600060405180830381600087803b15801561199c57600080fd5b505af11580156119b0573d6000803e3d6000fd5b50505050505050505050505050505050565b6004805460405163a211937760e01b81526000926001600160a01b039092169163a2119377916119f6918e918e9101613371565b6020604051808303816000875af1158015611a15573d6000803e3d6000fd5b505050506040513d601f19601f82011682018060405250810190611a39919061339b565b60008c81526009602052604090819020828155601001805460ff19166001179055600554905163d505accf60e01b81529192506001600160a01b03169063d505accf90611a96908c908c908b908b908b908b908b90600401613558565b600060405180830381600087803b158015611ab057600080fd5b505af1158015611ac4573d6000803e3d6000fd5b5050600554604051633950935160e01b81526001600160a01b038c81166004830152602482018b90529091169250633950935191506044016020604051808303816000875af1158015611b1b573d6000803e3d6000fd5b505050506040513d601f19601f82011682018060405250810190611b3f9190613599565b506005546040516323b872dd60e01b81526001600160a01b03909116906323b872dd90611b74908c908b908b906004016135b6565b6020604051808303816000875af1158015611b93573d6000803e3d6000fd5b505050506040513d601f19601f82011682018060405250810190611bb79190613599565b505050505050505050505050565b60055460405163d505accf60e01b81526001600160a01b039091169063d505accf90611c01908a908a908a908a908a908a908a90600401613558565b600060405180830381600087803b158015611c1b57600080fd5b505af1158015611c2f573d6000803e3d6000fd5b5050600554604051633950935160e01b81526001600160a01b038a81166004830152602482018a90529091169250633950935191506044016020604051808303816000875af1158015611c86573d6000803e3d6000fd5b505050506040513d601f19601f82011682018060405250810190611caa9190613599565b506005546040516323b872dd60e01b81526001600160a01b03909116906323b872dd90611cdf908a9030908a906004016135b6565b6020604051808303816000875af1158015611cfe573d6000803e3d6000fd5b505050506040513d601f19601f82011682018060405250810190611d229190613599565b5050505050505050565b60408051808201825260048152634165726f60e01b6020918201528151808301835260018152603160f81b90820152600b5482517f8b73c3c69bb8fe3d512ecc4cf759cc79239f7b179b0ffacaa9a75d522b39400f818401527fbf01fc4e5f7eb1f2eee29681cd6d2cda1045d51fd80c223d1eaea49e08734bf9818501527fc89efdaa54c0f20c7adf612882df0950f5a951637e0307cdcb4c672f298b8bc660608201524660808201526001600160a01b0390911660a0808301919091528351808303909101815260c0909101909252815191012090565b611e0c6126d2565b6001600160a01b038116611e715760405162461bcd60e51b815260206004820152602660248201527f4f776e61626c653a206e6577206f776e657220697320746865207a65726f206160448201526564647265737360d01b6064820152608401611820565b611e7a8161272c565b50565b6060611e876126d2565b600a546001811015611ece5760405162461bcd60e51b815260206004820152601060248201526f6173736574732061726520656d70747960801b6044820152606401611820565b808411158015611edc575060015b611f4e5760405162461bcd60e51b815260206004820152603f60248201527f6c6f77657220626f756e646172792073686f756c64206265206c657373206f7260448201527f20657175616c20746f2073697a6520616e64206e6f6e206e65676174697665006064820152608401611820565b808311158015611f5c575060015b611fce5760405162461bcd60e51b815260206004820152603f60248201527f757070657220626f756e646172792073686f756c64206265206c657373206f7260448201527f20657175616c20746f2073697a6520616e64206e6f6e206e65676174697665006064820152608401611820565b600a5460009067ffffffffffffffff811115611fec57611fec612945565b60405190808252806020026020018201604052801561202557816020015b612012612879565b81526020019060019003908161200a5790505b5090506000855b8581116126c75760096000600a838154811061204a5761204a6135da565b9060005260206000200154815260200190815260200160002060405180610280016040529081600082015481526020016001820160009054906101000a900460ff16151515158152602001600282015481526020016003820180546120ae9061340f565b80601f01602080910402602001604051908101604052809291908181526020018280546120da9061340f565b80156121275780601f106120fc57610100808354040283529160200191612127565b820191906000526020600020905b81548152906001019060200180831161210a57829003601f168201915b505050505081526020016004820180546121409061340f565b80601f016020809104026020016040519081016040528092919081815260200182805461216c9061340f565b80156121b95780601f1061218e576101008083540402835291602001916121b9565b820191906000526020600020905b81548152906001019060200180831161219c57829003601f168201915b505050918352505060058201546001600160a01b031660208201526006820180546040909201916121e99061340f565b80601f01602080910402602001604051908101604052809291908181526020018280546122159061340f565b80156122625780601f1061223757610100808354040283529160200191612262565b820191906000526020600020905b81548152906001019060200180831161224557829003601f168201915b5050505050815260200160078201805461227b9061340f565b80601f01602080910402602001604051908101604052809291908181526020018280546122a79061340f565b80156122f45780601f106122c9576101008083540402835291602001916122f4565b820191906000526020600020905b8154815290600101906020018083116122d757829003601f168201915b5050505050815260200160088201805461230d9061340f565b80601f01602080910402602001604051908101604052809291908181526020018280546123399061340f565b80156123865780601f1061235b57610100808354040283529160200191612386565b820191906000526020600020905b81548152906001019060200180831161236957829003601f168201915b5050509183525050600982015460209091019060ff1660048111156123ad576123ad612f50565b60048111156123be576123be612f50565b8152602001600a820180546123d29061340f565b80601f01602080910402602001604051908101604052809291908181526020018280546123fe9061340f565b801561244b5780601f106124205761010080835404028352916020019161244b565b820191906000526020600020905b81548152906001019060200180831161242e57829003601f168201915b50505050508152602001600b820180546124649061340f565b80601f01602080910402602001604051908101604052809291908181526020018280546124909061340f565b80156124dd5780601f106124b2576101008083540402835291602001916124dd565b820191906000526020600020905b8154815290600101906020018083116124c057829003601f168201915b50505050508152602001600c820180546124f69061340f565b80601f01602080910402602001604051908101604052809291908181526020018280546125229061340f565b801561256f5780601f106125445761010080835404028352916020019161256f565b820191906000526020600020905b81548152906001019060200180831161255257829003601f168201915b50505050508152602001600d820180546125889061340f565b80601f01602080910402602001604051908101604052809291908181526020018280546125b49061340f565b80156126015780601f106125d657610100808354040283529160200191612601565b820191906000526020600020905b8154815290600101906020018083116125e457829003601f168201915b5050509183525050600e82015460ff80821615156020840152610100820481161515604084015262010000909104811615156060830152600f8301546080830152601083015460a09092019116600281111561265f5761265f612f50565b600281111561267057612670612f50565b815260109190910154610100900460ff161515602090910152835184908490811061269d5761269d6135da565b60209081029190910101526126b3826001613606565b9150806126bf81613619565b91505061202c565b509095945050505050565b6001546001600160a01b03163314610f945760405162461bcd60e51b815260206004820181905260248201527f4f776e61626c653a2063616c6c6572206973206e6f7420746865206f776e65726044820152606401611820565b600180546001600160a01b038381166001600160a01b0319831681179093556040519116919082907f8be0079c531659141344cd1fd0a4f28419497f9722a3daafe3b4186f6b6457e090600090a35050565b6060600382600281111561279457612794612f50565b60ff1611156127a257600080fd5b8160028111156127b4576127b4612f50565b6000036127de57505060408051808201909152600781526650656e64696e6760c81b602082015290565b8160028111156127f0576127f0612f50565b60010361281a57505060408051808201909152600781526610dc99585d195960ca1b602082015290565b505060408051808201909152600481526314dbdb1960e21b602082015290565b919050565b60405180608001604052806000815260200160006001600160a01b0316815260200160006001600160a01b03168152602001600081525090565b6040518061028001604052806000815260200160001515815260200160008152602001606081526020016060815260200160006001600160a01b03168152602001606081526020016060815260200160608152602001600060048111156128e2576128e2612f50565b815260200160608152602001606081526020016060815260200160608152602001600015158152602001600015158152602001600015158152602001600081526020016000600281111561293857612938612f50565b8152600060209091015290565b634e487b7160e01b600052604160045260246000fd5b604051610280810167ffffffffffffffff8111828210171561297f5761297f612945565b60405290565b600082601f83011261299657600080fd5b813567ffffffffffffffff808211156129b1576129b1612945565b604051601f8301601f19908116603f011681019082821181831017156129d9576129d9612945565b816040528381528660208588010111156129f257600080fd5b836020870160208301376000602085830101528094505050505092915050565b80356001600160a01b038116811461283a57600080fd5b60008060408385031215612a3c57600080fd5b823567ffffffffffffffff811115612a5357600080fd5b612a5f85828601612985565b925050612a6e60208401612a12565b90509250929050565b8015158114611e7a57600080fd5b803561283a81612a77565b80356005811061283a57600080fd5b80356003811061283a57600080fd5b60006102808284031215612ac157600080fd5b612ac961295b565b905081358152612adb60208301612a85565b602082015260408201356040820152606082013567ffffffffffffffff80821115612b0557600080fd5b612b1185838601612985565b60608401526080840135915080821115612b2a57600080fd5b612b3685838601612985565b6080840152612b4760a08501612a12565b60a084015260c0840135915080821115612b6057600080fd5b612b6c85838601612985565b60c084015260e0840135915080821115612b8557600080fd5b612b9185838601612985565b60e084015261010091508184013581811115612bac57600080fd5b612bb886828701612985565b83850152506101209150612bcd828501612a90565b8284015261014091508184013581811115612be757600080fd5b612bf386828701612985565b838501525061016091508184013581811115612c0e57600080fd5b612c1a86828701612985565b838501525061018091508184013581811115612c3557600080fd5b612c4186828701612985565b83850152506101a091508184013581811115612c5c57600080fd5b612c6886828701612985565b838501525050506101c0612c7d818401612a85565b908201526101e0612c8f838201612a85565b90820152610200612ca1838201612a85565b908201526102208281013590820152610240612cbe818401612a9f565b90820152610260612cd0838201612a85565b9082015292915050565b803560ff8116811461283a57600080fd5b600080600080600080600060e0888a031215612d0657600080fd5b873567ffffffffffffffff80821115612d1e57600080fd5b612d2a8b838c01612aae565b985060208a0135915080821115612d4057600080fd5b50612d4d8a828b01612985565b965050612d5c60408901612cda565b969995985095966060810135965060808101359560a0820135955060c0909101359350915050565b600060208284031215612d9657600080fd5b5035919050565b60008060408385031215612db057600080fd5b823567ffffffffffffffff80821115612dc857600080fd5b612dd486838701612aae565b93506020850135915080821115612dea57600080fd5b50612df785828601612985565b9150509250929050565b60008060008060008060008060006101208a8c031215612e2057600080fd5b612e298a612a12565b9850612e3760208b01612a12565b975060408a0135965060608a01359550612e5360808b01612cda565b945060a08a0135935060c08a01359250612e6f60e08b01612a12565b91506101008a013590509295985092959850929598565b600060208284031215612e9857600080fd5b813567ffffffffffffffff811115612eaf57600080fd5b612ebb84828501612aae565b949350505050565b60008060408385031215612ed657600080fd5b612edf83612a12565b9150612a6e60208401612a12565b60005b83811015612f08578181015183820152602001612ef0565b50506000910152565b60008151808452612f29816020860160208601612eed565b601f01601f19169290920160200192915050565b6020815260006110386020830184612f11565b634e487b7160e01b600052602160045260246000fd5b60058110612f7657612f76612f50565b9052565b60038110612f7657612f76612f50565b6000610280825184526020830151612fa6602086018215159052565b50604083015160408501526060830151816060860152612fc882860182612f11565b91505060808301518482036080860152612fe28282612f11565b91505060a0830151612fff60a08601826001600160a01b03169052565b5060c083015184820360c08601526130178282612f11565b91505060e083015184820360e08601526130318282612f11565b915050610100808401518583038287015261304c8382612f11565b925050506101208084015161306382870182612f66565b5050610140808401518583038287015261307d8382612f11565b9250505061016080840151858303828701526130998382612f11565b9250505061018080840151858303828701526130b58382612f11565b925050506101a080840151858303828701526130d18382612f11565b925050506101c0808401516130e98287018215159052565b50506101e0838101511515908501526102008084015115159085015261022080840151908501526102408084015161312382870182612f7a565b50506102609283015115159390920192909252919050565b6020815260006110386020830184612f8a565b6000806000806000806000806000806101408b8d03121561316e57600080fd5b6131778b612a12565b995060208b0135985061318c60408c01612cda565b975060608b0135965060808b0135955060a08b0135945060c08b013593506131b660e08c01612cda565b92506101008b013591506101208b013590509295989b9194979a5092959850565b6000806000806000806000806000806101408b8d0312156131f757600080fd5b8a35995060208b013567ffffffffffffffff81111561321557600080fd5b6132218d828e01612985565b99505061323060408c01612a12565b975061323e60608c01612a12565b965061324c60808c01612a12565b955060a08b0135945060c08b013593506131b660e08c01612cda565b600080600080600080600060e0888a03121561328357600080fd5b61328c88612a12565b965061329a60208901612a12565b955060408801359450606088013593506132b660808901612cda565b925060a0880135915060c0880135905092959891949750929550565b6000602082840312156132e457600080fd5b61103882612a12565b6000806040838503121561330057600080fd5b50508035926020909101359150565b6000602080830181845280855180835260408601915060408160051b870101925083870160005b8281101561336457603f19888603018452613352858351612f8a565b94509285019290850190600101613336565b5092979650505050505050565b6040815260006133846040830185612f11565b905060018060a01b03831660208301529392505050565b6000602082840312156133ad57600080fd5b5051919050565b858152846020820152600084516133d2816040850160208901612eed565b8201600585106133e4576133e4612f50565b8460f81b60408201528351613400816041840160208801612eed565b01604101979650505050505050565b600181811c9082168061342357607f821691505b60208210810361344357634e487b7160e01b600052602260045260246000fd5b50919050565b601f82111561349357600081815260208120601f850160051c810160208610156134705750805b601f850160051c820191505b8181101561348f5782815560010161347c565b5050505b505050565b815167ffffffffffffffff8111156134b2576134b2612945565b6134c6816134c0845461340f565b84613449565b602080601f8311600181146134fb57600084156134e35750858301515b600019600386901b1c1916600185901b17855561348f565b600085815260208120601f198616915b8281101561352a5788860151825594840194600190910190840161350b565b50858210156135485787850151600019600388901b60f8161c191681555b5050505050600190811b01905550565b6001600160a01b0397881681529590961660208601526040850193909352606084019190915260ff16608083015260a082015260c081019190915260e00190565b6000602082840312156135ab57600080fd5b815161103881612a77565b6001600160a01b039384168152919092166020820152604081019190915260600190565b634e487b7160e01b600052603260045260246000fd5b634e487b7160e01b600052601160045260246000fd5b808201808211156103c1576103c16135f0565b60006001820161362b5761362b6135f0565b506001019056fea26469706673582212203036fa63fb06f292aa5fd51eb976f15a3cca1d098feeb4b7a376ba5ab098a51164736f6c63430008110033",
  "linkReferences": {},
  "deployedLinkReferences": {}
}