{
  "_format": "hh-sol-artifact-1",
  "contractName": "NFTMarketV2",
  "sourceName": "contracts/v2/NFTMarketV2.sol",
  "abi": [
    {
      "inputs": [],
      "stateMutability": "nonpayable",
      "type": "constructor"
    },
    {
      "anonymous": false,
      "inputs": [
        {
          "indexed": false,
          "internalType": "bytes32",
          "name": "hash",
          "type": "bytes32"
        },
        {
          "indexed": false,
          "internalType": "uint256",
          "name": "tokenId",
          "type": "uint256"
        }
      ],
      "name": "AssetForSellCreated",
      "type": "event"
    },
    {
      "anonymous": false,
      "inputs": [
        {
          "indexed": false,
          "internalType": "bytes32",
          "name": "assetHash",
          "type": "bytes32"
        }
      ],
      "name": "CreateAsset",
      "type": "event"
    },
    {
      "anonymous": false,
      "inputs": [
        {
          "indexed": false,
          "internalType": "bytes32",
          "name": "assetPendingHash",
          "type": "bytes32"
        }
      ],
      "name": "CreateAssetPending",
      "type": "event"
    },
    {
      "anonymous": false,
      "inputs": [
        {
          "indexed": false,
          "internalType": "address",
          "name": "nft",
          "type": "address"
        },
        {
          "indexed": false,
          "internalType": "address",
          "name": "aero",
          "type": "address"
        }
      ],
      "name": "Instance",
      "type": "event"
    },
    {
      "anonymous": false,
      "inputs": [
        {
          "indexed": false,
          "internalType": "uint256",
          "name": "tokenId",
          "type": "uint256"
        }
      ],
      "name": "MintNFT",
      "type": "event"
    },
    {
      "anonymous": false,
      "inputs": [
        {
          "indexed": true,
          "internalType": "address",
          "name": "previousOwner",
          "type": "address"
        },
        {
          "indexed": true,
          "internalType": "address",
          "name": "newOwner",
          "type": "address"
        }
      ],
      "name": "OwnershipTransferred",
      "type": "event"
    },
    {
      "inputs": [],
      "name": "ERC20_DOMAIN_SEPARATOR",
      "outputs": [
        {
          "internalType": "bytes32",
          "name": "",
          "type": "bytes32"
        }
      ],
      "stateMutability": "view",
      "type": "function"
    },
    {
      "inputs": [],
      "name": "_PERMIT_TYPEHASH",
      "outputs": [
        {
          "internalType": "bytes32",
          "name": "",
          "type": "bytes32"
        }
      ],
      "stateMutability": "view",
      "type": "function"
    },
    {
      "inputs": [
        {
          "internalType": "bytes32",
          "name": "hash",
          "type": "bytes32"
        },
        {
          "internalType": "string",
          "name": "tokenUri",
          "type": "string"
        },
        {
          "internalType": "address",
          "name": "signer",
          "type": "address"
        },
        {
          "internalType": "address",
          "name": "spender",
          "type": "address"
        },
        {
          "internalType": "address",
          "name": "projectOwner",
          "type": "address"
        },
        {
          "internalType": "uint256",
          "name": "value",
          "type": "uint256"
        },
        {
          "internalType": "uint256",
          "name": "deadline",
          "type": "uint256"
        },
        {
          "internalType": "uint8",
          "name": "v",
          "type": "uint8"
        },
        {
          "internalType": "bytes32",
          "name": "r",
          "type": "bytes32"
        },
        {
          "internalType": "bytes32",
          "name": "s",
          "type": "bytes32"
        }
      ],
      "name": "approvePendingAsset",
      "outputs": [],
      "stateMutability": "nonpayable",
      "type": "function"
    },
    {
      "inputs": [
        {
          "internalType": "bytes32",
          "name": "hash",
          "type": "bytes32"
        }
      ],
      "name": "approveRequest",
      "outputs": [],
      "stateMutability": "nonpayable",
      "type": "function"
    },
    {
      "inputs": [
        {
          "internalType": "address",
          "name": "nftContractAddress",
          "type": "address"
        },
        {
          "internalType": "address",
          "name": "aeroContractAddress",
          "type": "address"
        }
      ],
      "name": "assignDeployedAddressToInstance",
      "outputs": [
        {
          "internalType": "bool",
          "name": "",
          "type": "bool"
        }
      ],
      "stateMutability": "nonpayable",
      "type": "function"
    },
    {
      "inputs": [
        {
          "internalType": "address",
          "name": "owner",
          "type": "address"
        },
        {
          "internalType": "address",
          "name": "spender",
          "type": "address"
        },
        {
          "internalType": "uint256",
          "name": "value",
          "type": "uint256"
        },
        {
          "internalType": "uint256",
          "name": "deadline",
          "type": "uint256"
        },
        {
          "internalType": "uint8",
          "name": "v",
          "type": "uint8"
        },
        {
          "internalType": "bytes32",
          "name": "r",
          "type": "bytes32"
        },
        {
          "internalType": "bytes32",
          "name": "s",
          "type": "bytes32"
        },
        {
          "internalType": "uint256",
          "name": "_NFTTokenId",
          "type": "uint256"
        }
      ],
      "name": "buyAsset",
      "outputs": [],
      "stateMutability": "nonpayable",
      "type": "function"
    },
    {
      "inputs": [
        {
          "internalType": "address",
          "name": "nftOwner",
          "type": "address"
        },
        {
          "internalType": "uint256",
          "name": "_tokenId",
          "type": "uint256"
        },
        {
          "internalType": "uint8",
          "name": "v",
          "type": "uint8"
        },
        {
          "internalType": "bytes32",
          "name": "r",
          "type": "bytes32"
        },
        {
          "internalType": "bytes32",
          "name": "s",
          "type": "bytes32"
        },
        {
          "internalType": "uint256",
          "name": "deadline",
          "type": "uint256"
        },
        {
          "internalType": "uint256",
          "name": "nonce",
          "type": "uint256"
        },
        {
          "internalType": "uint8",
          "name": "vN",
          "type": "uint8"
        },
        {
          "internalType": "bytes32",
          "name": "rN",
          "type": "bytes32"
        },
        {
          "internalType": "bytes32",
          "name": "sN",
          "type": "bytes32"
        }
      ],
      "name": "buyAssetApprove",
      "outputs": [],
      "stateMutability": "nonpayable",
      "type": "function"
    },
    {
      "inputs": [
        {
          "internalType": "address",
          "name": "owner",
          "type": "address"
        },
        {
          "internalType": "address",
          "name": "spender",
          "type": "address"
        },
        {
          "internalType": "uint256",
          "name": "value",
          "type": "uint256"
        },
        {
          "internalType": "uint256",
          "name": "deadline",
          "type": "uint256"
        },
        {
          "internalType": "uint8",
          "name": "v",
          "type": "uint8"
        },
        {
          "internalType": "bytes32",
          "name": "r",
          "type": "bytes32"
        },
        {
          "internalType": "bytes32",
          "name": "s",
          "type": "bytes32"
        },
        {
          "internalType": "address",
          "name": "nftOwner",
          "type": "address"
        },
        {
          "internalType": "uint256",
          "name": "_tokenId",
          "type": "uint256"
        }
      ],
      "name": "buyAssetRequest",
      "outputs": [],
      "stateMutability": "nonpayable",
      "type": "function"
    },
    {
      "inputs": [
        {
          "components": [
            {
              "internalType": "uint256",
              "name": "nftID",
              "type": "uint256"
            },
            {
              "internalType": "bool",
              "name": "new_env",
              "type": "bool"
            },
            {
              "internalType": "uint256",
              "name": "creatorUserID",
              "type": "uint256"
            },
            {
              "internalType": "string",
              "name": "creatorUsername",
              "type": "string"
            },
            {
              "internalType": "string",
              "name": "creatorName",
              "type": "string"
            },
            {
              "internalType": "address",
              "name": "creatorMetamaskId",
              "type": "address"
            },
            {
              "internalType": "string",
              "name": "associatedProjectName",
              "type": "string"
            },
            {
              "internalType": "string",
              "name": "associatedProjectUrl",
              "type": "string"
            },
            {
              "internalType": "string",
              "name": "assetName",
              "type": "string"
            },
            {
              "internalType": "enum NFTMarketV2.AssetType",
              "name": "assetType",
              "type": "uint8"
            },
            {
              "internalType": "string",
              "name": "assetDescription",
              "type": "string"
            },
            {
              "internalType": "string",
              "name": "assetOffer",
              "type": "string"
            },
            {
              "internalType": "string",
              "name": "assetTerms",
              "type": "string"
            },
            {
              "internalType": "string",
              "name": "assetImage",
              "type": "string"
            },
            {
              "internalType": "bool",
              "name": "isHidden",
              "type": "bool"
            },
            {
              "internalType": "bool",
              "name": "isPrivate",
              "type": "bool"
            },
            {
              "internalType": "bool",
              "name": "multiNft",
              "type": "bool"
            },
            {
              "internalType": "uint256",
              "name": "assetPrice",
              "type": "uint256"
            },
            {
              "internalType": "enum NFTMarketV2.Status",
              "name": "status",
              "type": "uint8"
            },
            {
              "internalType": "bool",
              "name": "requestApproval",
              "type": "bool"
            }
          ],
          "internalType": "struct NFTMarketV2.MarketItem",
          "name": "data",
          "type": "tuple"
        },
        {
          "internalType": "string",
          "name": "tokenUri",
          "type": "string"
        }
      ],
      "name": "createAsset",
      "outputs": [],
      "stateMutability": "nonpayable",
      "type": "function"
    },
    {
      "inputs": [
        {
          "components": [
            {
              "internalType": "uint256",
              "name": "nftID",
              "type": "uint256"
            },
            {
              "internalType": "bool",
              "name": "new_env",
              "type": "bool"
            },
            {
              "internalType": "uint256",
              "name": "creatorUserID",
              "type": "uint256"
            },
            {
              "internalType": "string",
              "name": "creatorUsername",
              "type": "string"
            },
            {
              "internalType": "string",
              "name": "creatorName",
              "type": "string"
            },
            {
              "internalType": "address",
              "name": "creatorMetamaskId",
              "type": "address"
            },
            {
              "internalType": "string",
              "name": "associatedProjectName",
              "type": "string"
            },
            {
              "internalType": "string",
              "name": "associatedProjectUrl",
              "type": "string"
            },
            {
              "internalType": "string",
              "name": "assetName",
              "type": "string"
            },
            {
              "internalType": "enum NFTMarketV2.AssetType",
              "name": "assetType",
              "type": "uint8"
            },
            {
              "internalType": "string",
              "name": "assetDescription",
              "type": "string"
            },
            {
              "internalType": "string",
              "name": "assetOffer",
              "type": "string"
            },
            {
              "internalType": "string",
              "name": "assetTerms",
              "type": "string"
            },
            {
              "internalType": "string",
              "name": "assetImage",
              "type": "string"
            },
            {
              "internalType": "bool",
              "name": "isHidden",
              "type": "bool"
            },
            {
              "internalType": "bool",
              "name": "isPrivate",
              "type": "bool"
            },
            {
              "internalType": "bool",
              "name": "multiNft",
              "type": "bool"
            },
            {
              "internalType": "uint256",
              "name": "assetPrice",
              "type": "uint256"
            },
            {
              "internalType": "enum NFTMarketV2.Status",
              "name": "status",
              "type": "uint8"
            },
            {
              "internalType": "bool",
              "name": "requestApproval",
              "type": "bool"
            }
          ],
          "internalType": "struct NFTMarketV2.MarketItem",
          "name": "data",
          "type": "tuple"
        },
        {
          "internalType": "string",
          "name": "tokenUri",
          "type": "string"
        },
        {
          "internalType": "uint8",
          "name": "v",
          "type": "uint8"
        },
        {
          "internalType": "bytes32",
          "name": "r",
          "type": "bytes32"
        },
        {
          "internalType": "bytes32",
          "name": "s",
          "type": "bytes32"
        },
        {
          "internalType": "uint256",
          "name": "deadline",
          "type": "uint256"
        },
        {
          "internalType": "uint256",
          "name": "tokenId",
          "type": "uint256"
        }
      ],
      "name": "createAssetForSell",
      "outputs": [],
      "stateMutability": "nonpayable",
      "type": "function"
    },
    {
      "inputs": [
        {
          "components": [
            {
              "internalType": "uint256",
              "name": "nftID",
              "type": "uint256"
            },
            {
              "internalType": "bool",
              "name": "new_env",
              "type": "bool"
            },
            {
              "internalType": "uint256",
              "name": "creatorUserID",
              "type": "uint256"
            },
            {
              "internalType": "string",
              "name": "creatorUsername",
              "type": "string"
            },
            {
              "internalType": "string",
              "name": "creatorName",
              "type": "string"
            },
            {
              "internalType": "address",
              "name": "creatorMetamaskId",
              "type": "address"
            },
            {
              "internalType": "string",
              "name": "associatedProjectName",
              "type": "string"
            },
            {
              "internalType": "string",
              "name": "associatedProjectUrl",
              "type": "string"
            },
            {
              "internalType": "string",
              "name": "assetName",
              "type": "string"
            },
            {
              "internalType": "enum NFTMarketV2.AssetType",
              "name": "assetType",
              "type": "uint8"
            },
            {
              "internalType": "string",
              "name": "assetDescription",
              "type": "string"
            },
            {
              "internalType": "string",
              "name": "assetOffer",
              "type": "string"
            },
            {
              "internalType": "string",
              "name": "assetTerms",
              "type": "string"
            },
            {
              "internalType": "string",
              "name": "assetImage",
              "type": "string"
            },
            {
              "internalType": "bool",
              "name": "isHidden",
              "type": "bool"
            },
            {
              "internalType": "bool",
              "name": "isPrivate",
              "type": "bool"
            },
            {
              "internalType": "bool",
              "name": "multiNft",
              "type": "bool"
            },
            {
              "internalType": "uint256",
              "name": "assetPrice",
              "type": "uint256"
            },
            {
              "internalType": "enum NFTMarketV2.Status",
              "name": "status",
              "type": "uint8"
            },
            {
              "internalType": "bool",
              "name": "requestApproval",
              "type": "bool"
            }
          ],
          "internalType": "struct NFTMarketV2.MarketItem",
          "name": "data",
          "type": "tuple"
        }
      ],
      "name": "createAssetPending",
      "outputs": [
        {
          "internalType": "bytes32",
          "name": "",
          "type": "bytes32"
        }
      ],
      "stateMutability": "nonpayable",
      "type": "function"
    },
    {
      "inputs": [],
      "name": "getAllHashesLength",
      "outputs": [
        {
          "internalType": "uint256",
          "name": "",
          "type": "uint256"
        }
      ],
      "stateMutability": "view",
      "type": "function"
    },
    {
      "inputs": [
        {
          "internalType": "uint256",
          "name": "lowerBoundary",
          "type": "uint256"
        },
        {
          "internalType": "uint256",
          "name": "upperBoundary",
          "type": "uint256"
        }
      ],
      "name": "getAllMarketItem",
      "outputs": [
        {
          "components": [
            {
              "internalType": "uint256",
              "name": "nftID",
              "type": "uint256"
            },
            {
              "internalType": "bool",
              "name": "new_env",
              "type": "bool"
            },
            {
              "internalType": "uint256",
              "name": "creatorUserID",
              "type": "uint256"
            },
            {
              "internalType": "string",
              "name": "creatorUsername",
              "type": "string"
            },
            {
              "internalType": "string",
              "name": "creatorName",
              "type": "string"
            },
            {
              "internalType": "address",
              "name": "creatorMetamaskId",
              "type": "address"
            },
            {
              "internalType": "string",
              "name": "associatedProjectName",
              "type": "string"
            },
            {
              "internalType": "string",
              "name": "associatedProjectUrl",
              "type": "string"
            },
            {
              "internalType": "string",
              "name": "assetName",
              "type": "string"
            },
            {
              "internalType": "enum NFTMarketV2.AssetType",
              "name": "assetType",
              "type": "uint8"
            },
            {
              "internalType": "string",
              "name": "assetDescription",
              "type": "string"
            },
            {
              "internalType": "string",
              "name": "assetOffer",
              "type": "string"
            },
            {
              "internalType": "string",
              "name": "assetTerms",
              "type": "string"
            },
            {
              "internalType": "string",
              "name": "assetImage",
              "type": "string"
            },
            {
              "internalType": "bool",
              "name": "isHidden",
              "type": "bool"
            },
            {
              "internalType": "bool",
              "name": "isPrivate",
              "type": "bool"
            },
            {
              "internalType": "bool",
              "name": "multiNft",
              "type": "bool"
            },
            {
              "internalType": "uint256",
              "name": "assetPrice",
              "type": "uint256"
            },
            {
              "internalType": "enum NFTMarketV2.Status",
              "name": "status",
              "type": "uint8"
            },
            {
              "internalType": "bool",
              "name": "requestApproval",
              "type": "bool"
            }
          ],
          "internalType": "struct NFTMarketV2.MarketItem[]",
          "name": "",
          "type": "tuple[]"
        }
      ],
      "stateMutability": "view",
      "type": "function"
    },
    {
      "inputs": [
        {
          "internalType": "bytes32",
          "name": "hash",
          "type": "bytes32"
        }
      ],
      "name": "getMarketItem",
      "outputs": [
        {
          "components": [
            {
              "internalType": "uint256",
              "name": "nftID",
              "type": "uint256"
            },
            {
              "internalType": "bool",
              "name": "new_env",
              "type": "bool"
            },
            {
              "internalType": "uint256",
              "name": "creatorUserID",
              "type": "uint256"
            },
            {
              "internalType": "string",
              "name": "creatorUsername",
              "type": "string"
            },
            {
              "internalType": "string",
              "name": "creatorName",
              "type": "string"
            },
            {
              "internalType": "address",
              "name": "creatorMetamaskId",
              "type": "address"
            },
            {
              "internalType": "string",
              "name": "associatedProjectName",
              "type": "string"
            },
            {
              "internalType": "string",
              "name": "associatedProjectUrl",
              "type": "string"
            },
            {
              "internalType": "string",
              "name": "assetName",
              "type": "string"
            },
            {
              "internalType": "enum NFTMarketV2.AssetType",
              "name": "assetType",
              "type": "uint8"
            },
            {
              "internalType": "string",
              "name": "assetDescription",
              "type": "string"
            },
            {
              "internalType": "string",
              "name": "assetOffer",
              "type": "string"
            },
            {
              "internalType": "string",
              "name": "assetTerms",
              "type": "string"
            },
            {
              "internalType": "string",
              "name": "assetImage",
              "type": "string"
            },
            {
              "internalType": "bool",
              "name": "isHidden",
              "type": "bool"
            },
            {
              "internalType": "bool",
              "name": "isPrivate",
              "type": "bool"
            },
            {
              "internalType": "bool",
              "name": "multiNft",
              "type": "bool"
            },
            {
              "internalType": "uint256",
              "name": "assetPrice",
              "type": "uint256"
            },
            {
              "internalType": "enum NFTMarketV2.Status",
              "name": "status",
              "type": "uint8"
            },
            {
              "internalType": "bool",
              "name": "requestApproval",
              "type": "bool"
            }
          ],
          "internalType": "struct NFTMarketV2.MarketItem",
          "name": "",
          "type": "tuple"
        }
      ],
      "stateMutability": "view",
      "type": "function"
    },
    {
      "inputs": [
        {
          "internalType": "bytes32",
          "name": "hash",
          "type": "bytes32"
        }
      ],
      "name": "getMarketItemStatus",
      "outputs": [
        {
          "internalType": "string",
          "name": "",
          "type": "string"
        }
      ],
      "stateMutability": "view",
      "type": "function"
    },
    {
      "inputs": [
        {
          "internalType": "string",
          "name": "tokenUri",
          "type": "string"
        },
        {
          "internalType": "address",
          "name": "nftOwner",
          "type": "address"
        }
      ],
      "name": "mintNFT",
      "outputs": [
        {
          "internalType": "uint256",
          "name": "",
          "type": "uint256"
        }
      ],
      "stateMutability": "nonpayable",
      "type": "function"
    },
    {
      "inputs": [],
      "name": "owner",
      "outputs": [
        {
          "internalType": "address",
          "name": "",
          "type": "address"
        }
      ],
      "stateMutability": "view",
      "type": "function"
    },
    {
      "inputs": [],
      "name": "renounceOwnership",
      "outputs": [],
      "stateMutability": "nonpayable",
      "type": "function"
    },
    {
      "inputs": [
        {
          "internalType": "bytes32",
          "name": "hash",
          "type": "bytes32"
        }
      ],
      "name": "setMarketItemToPrivate",
      "outputs": [],
      "stateMutability": "nonpayable",
      "type": "function"
    },
    {
      "inputs": [
        {
          "internalType": "address",
          "name": "newOwner",
          "type": "address"
        }
      ],
      "name": "transferOwnership",
      "outputs": [],
      "stateMutability": "nonpayable",
      "type": "function"
    }
  ],
  "bytecode": "0x60806040527f6e71edae12b1b97f4d1f60370fef10105fa2faae0126114a169c64845d6126c960065566038d7ea4c680006007553480156200004057600080fd5b506001600055620000513362000057565b620000a9565b600180546001600160a01b038381166001600160a01b0319831681179093556040519116919082907f8be0079c531659141344cd1fd0a4f28419497f9722a3daafe3b4186f6b6457e090600090a35050565b61353880620000b96000396000f3fe608060405234801561001057600080fd5b506004361061012c5760003560e01c80637d7b3056116100ad578063a927632811610071578063a9276328146102ab578063cd7e0f7a146102be578063e2208a65146102d1578063f2fde38b146102d9578063f7785a07146102ec57600080fd5b80637d7b30561461023f57806380f12fcd1461025f5780638184a48c146102675780638da5cb5b14610287578063982aaf6b146102a257600080fd5b806355824391116100f457806355824391146101c05780636abfcc72146101d3578063715018a6146101e657806372c40429146101ee57806376ba60091461021157600080fd5b806304f3227914610131578063337f65aa1461015757806340393fd31461016c57806343fb19d91461017f57806346b4c35d146101ad575b600080fd5b61014461013f366004612932565b61030c565b6040519081526020015b60405180910390f35b61016a610165366004612991565b6103c7565b005b61016a61017a366004612c66565b610526565b61016a61018d366004612cff565b6000908152600960205260409020600e01805461ff001916610100179055565b61016a6101bb366004612d18565b610904565b61016a6101ce366004612d7c565b610c3e565b6101446101e1366004612e01565b610db2565b61016a61106d565b6102016101fc366004612e3e565b611081565b604051901515815260200161014e565b61016a61021f366004612cff565b6000908152600960205260409020601001805461ff001916610100179055565b61025261024d366004612cff565b611101565b60405161014e9190612eb8565b600a54610144565b61027a610275366004612cff565b61112a565b60405161014e91906130b6565b6001546040516001600160a01b03909116815260200161014e565b61014460065481565b61016a6102b93660046130c9565b611767565b61016a6102cc366004613152565b611aad565b610144611c35565b61016a6102e73660046131e3565b611d0d565b6102ff6102fa3660046131fe565b611d86565b60405161014e9190613220565b6004805460405163a211937760e01b815260009283926001600160a01b03169163a211937791610340918891889101613282565b6020604051808303816000875af115801561035f573d6000803e3d6000fd5b505050506040513d601f19601f8201168201806040525081019061038391906132ac565b90507f2cc161d398589ff5526cd6b429338ae827d66c48171d3dbaeac9a7bf822935bd816040516103b691815260200190565b60405180910390a190505b92915050565b600554604051633950935160e01b81526001600160a01b03898116600483015260248201899052909116906339509351906044016020604051808303816000875af115801561041a573d6000803e3d6000fd5b505050506040513d601f19601f8201168201806040525081019061043e91906132c5565b506005546040516323b872dd60e01b81526001600160a01b03909116906323b872dd90610473908b9030908b906004016132e2565b6020604051808303816000875af1158015610492573d6000803e3d6000fd5b505050506040513d601f19601f820116820180604052508101906104b691906132c5565b50600480546040516323b872dd60e01b81526001600160a01b03909116916323b872dd916104ea918b918d918791016132e2565b600060405180830381600087803b15801561050457600080fd5b505af1158015610518573d6000803e3d6000fd5b505050505050505050505050565b6004805460a089015160405163a211937760e01b81526001600160a01b039092169263a21193779261055c928b92909101613282565b6020604051808303816000875af115801561057b573d6000803e3d6000fd5b505050506040513d601f19601f8201168201806040525081019061059f91906132ac565b5060048054604051637ac2ff7b60e01b81523092810192909252602482018390526044820184905260ff871660648301526084820186905260a482018590526001600160a01b031690637ac2ff7b9060c401600060405180830381600087803b15801561060b57600080fd5b505af115801561061f573d6000803e3d6000fd5b505050818852506040808801516101008901516101208a01516101408b015193516000946106759461065b949093889391929091602001613306565b604051602081830303815290604052805160209091012090565b60405160200161068791815260200190565b60408051808303601f1901815291815281516020928301206000818152600984528290208b518155928b015160018401805460ff1916911515919091179055908a0151600283015560608a015190925089919060038201906106e990826133ea565b50608082015160048201906106fe90826133ea565b5060a08201516005820180546001600160a01b0319166001600160a01b0390921691909117905560c0820151600682019061073990826133ea565b5060e0820151600782019061074e90826133ea565b50610100820151600882019061076490826133ea565b5061012082015160098201805460ff1916600183600481111561078957610789612ecb565b0217905550610140820151600a8201906107a390826133ea565b50610160820151600b8201906107b990826133ea565b50610180820151600c8201906107cf90826133ea565b506101a0820151600d8201906107e590826133ea565b506101c0820151600e820180546101e08501516102008601511515620100000262ff0000199115156101000261ff00199515159590951661ffff19909316929092179390931792909216919091179055610220820151600f82015561024082015160108201805460ff1916600183600281111561086457610864612ecb565b02179055506102609190910151601090910180549115156101000261ff0019909216919091179055600a80546001810182556000919091527fc65a7bb8d6351c1cf70c95a316cc6a92839c986682d98bc35f958f4883f9d2a80181905560408051828152602081018490527f0400a15904b2574e109cd26861b874b1208c6d17bc8beafdb885d8ecc14f00b8910160405180910390a15050505050505050565b6004805460a084015160405163a211937760e01b81526000936001600160a01b039093169263a21193779261093b92879201613282565b6020604051808303816000875af115801561095a573d6000803e3d6000fd5b505050506040513d601f19601f8201168201806040525081019061097e91906132ac565b80845260408085015161010086015161012087015161014088015193519495506000946109b99461065b949388939092909190602001613306565b6040516020016109cb91815260200190565b60408051808303601f190181529181528151602092830120600081815260098452829020875181559287015160018401805460ff191691151591909117905590860151600283015560608601519092508591906003820190610a2d90826133ea565b5060808201516004820190610a4290826133ea565b5060a08201516005820180546001600160a01b0319166001600160a01b0390921691909117905560c08201516006820190610a7d90826133ea565b5060e08201516007820190610a9290826133ea565b506101008201516008820190610aa890826133ea565b5061012082015160098201805460ff19166001836004811115610acd57610acd612ecb565b0217905550610140820151600a820190610ae790826133ea565b50610160820151600b820190610afd90826133ea565b50610180820151600c820190610b1390826133ea565b506101a0820151600d820190610b2990826133ea565b506101c0820151600e820180546101e08501516102008601511515620100000262ff0000199115156101000261ff00199515159590951661ffff19909316929092179390931792909216919091179055610220820151600f82015561024082015160108201805460ff19166001836002811115610ba857610ba8612ecb565b02179055506102609190910151601090910180549115156101000261ff0019909216919091179055600a80546001810182556000919091527fc65a7bb8d6351c1cf70c95a316cc6a92839c986682d98bc35f958f4883f9d2a8018190556040518181527f8b085463dcaf0be97879d41341336aa82d1faf7c1b744db2408e4d25c84790369060200160405180910390a150505050565b610c46612748565b8781526001600160a01b038a81166020808401918252858316604080860182815260608701888152600093845260088552828420898552909452918190208651815593516001850180549187166001600160a01b03199283161790559151600285018054918716919093161790915590516003909201919091556005549051633950935160e01b81528b83166004820152602481018b90529116906339509351906044016020604051808303816000875af1158015610d09573d6000803e3d6000fd5b505050506040513d601f19601f82011682018060405250810190610d2d91906132c5565b506005546040516323b872dd60e01b81526001600160a01b03909116906323b872dd90610d62908d9030908d906004016132e2565b6020604051808303816000875af1158015610d81573d6000803e3d6000fd5b505050506040513d601f19601f82011682018060405250810190610da591906132c5565b5050505050505050505050565b600080610de88360400151846000015185610100015186610120015187610140015160405160200161065b959493929190613306565b604051602001610dfa91815260200190565b60408051808303601f190181529181528151602092830120600081815260098452829020865181559286015160018401805460ff191691151591909117905590850151600283015560608501519092508491906003820190610e5c90826133ea565b5060808201516004820190610e7190826133ea565b5060a08201516005820180546001600160a01b0319166001600160a01b0390921691909117905560c08201516006820190610eac90826133ea565b5060e08201516007820190610ec190826133ea565b506101008201516008820190610ed790826133ea565b5061012082015160098201805460ff19166001836004811115610efc57610efc612ecb565b0217905550610140820151600a820190610f1690826133ea565b50610160820151600b820190610f2c90826133ea565b50610180820151600c820190610f4290826133ea565b506101a0820151600d820190610f5890826133ea565b506101c0820151600e820180546101e08501516102008601511515620100000262ff0000199115156101000261ff00199515159590951661ffff19909316929092179390931792909216919091179055610220820151600f82015561024082015160108201805460ff19166001836002811115610fd757610fd7612ecb565b02179055506102609190910151601090910180549115156101000261ff0019909216919091179055600a80546001810182556000919091527fc65a7bb8d6351c1cf70c95a316cc6a92839c986682d98bc35f958f4883f9d2a8018190556040518181527f8be2d25238708c5e063396e6d61f4b7b207886987437015d6484870f109924a89060200160405180910390a192915050565b6110756125db565b61107f6000612635565b565b600480546001600160a01b038481166001600160a01b031992831681179093556005805491851691831682179055600b805490921681179091556040805192835260208301919091526000917fe35fa6870eeedba0df9480a717f514d523b132dc90a8075df0b4f4b91bf27b4a910160405180910390a150600192915050565b600081815260096020526040812060100154606091906111239060ff16612687565b9392505050565b611132612782565b60008281526009602090815260409182902082516102808101845281548152600182015460ff1615159281019290925260028101549282019290925260038201805491929160608401919061118690613361565b80601f01602080910402602001604051908101604052809291908181526020018280546111b290613361565b80156111ff5780601f106111d4576101008083540402835291602001916111ff565b820191906000526020600020905b8154815290600101906020018083116111e257829003601f168201915b5050505050815260200160048201805461121890613361565b80601f016020809104026020016040519081016040528092919081815260200182805461124490613361565b80156112915780601f1061126657610100808354040283529160200191611291565b820191906000526020600020905b81548152906001019060200180831161127457829003601f168201915b505050918352505060058201546001600160a01b031660208201526006820180546040909201916112c190613361565b80601f01602080910402602001604051908101604052809291908181526020018280546112ed90613361565b801561133a5780601f1061130f5761010080835404028352916020019161133a565b820191906000526020600020905b81548152906001019060200180831161131d57829003601f168201915b5050505050815260200160078201805461135390613361565b80601f016020809104026020016040519081016040528092919081815260200182805461137f90613361565b80156113cc5780601f106113a1576101008083540402835291602001916113cc565b820191906000526020600020905b8154815290600101906020018083116113af57829003601f168201915b505050505081526020016008820180546113e590613361565b80601f016020809104026020016040519081016040528092919081815260200182805461141190613361565b801561145e5780601f106114335761010080835404028352916020019161145e565b820191906000526020600020905b81548152906001019060200180831161144157829003601f168201915b5050509183525050600982015460209091019060ff16600481111561148557611485612ecb565b600481111561149657611496612ecb565b8152602001600a820180546114aa90613361565b80601f01602080910402602001604051908101604052809291908181526020018280546114d690613361565b80156115235780601f106114f857610100808354040283529160200191611523565b820191906000526020600020905b81548152906001019060200180831161150657829003601f168201915b50505050508152602001600b8201805461153c90613361565b80601f016020809104026020016040519081016040528092919081815260200182805461156890613361565b80156115b55780601f1061158a576101008083540402835291602001916115b5565b820191906000526020600020905b81548152906001019060200180831161159857829003601f168201915b50505050508152602001600c820180546115ce90613361565b80601f01602080910402602001604051908101604052809291908181526020018280546115fa90613361565b80156116475780601f1061161c57610100808354040283529160200191611647565b820191906000526020600020905b81548152906001019060200180831161162a57829003601f168201915b50505050508152602001600d8201805461166090613361565b80601f016020809104026020016040519081016040528092919081815260200182805461168c90613361565b80156116d95780601f106116ae576101008083540402835291602001916116d9565b820191906000526020600020905b8154815290600101906020018083116116bc57829003601f168201915b5050509183525050600e82015460ff80821615156020840152610100820481161515604084015262010000909104811615156060830152600f8301546080830152601083015460a09092019116600281111561173757611737612ecb565b600281111561174857611748612ecb565b815260109190910154610100900460ff16151560209091015292915050565b61176f612748565b506001600160a01b03808b1660009081526008602090815260408083208d84528252808320815160808101835281548152600182015486169381019390935260028101549094169082015260039092015460608301526117cd611c35565b600654602084810151855160408051808501959095526001600160a01b0390921684830152306060850152608084015260a083018a905260c08084018c90528151808503909101815260e08401909152805191012061190160f01b6101008301526101028201929092526101228101919091526101420160408051601f1981840301815282825280516020918201206000845290830180835281905260ff8d1691830191909152606082018b9052608082018a9052915060019060a0016020604051602081039080840390855afa1580156118ac573d6000803e3d6000fd5b505050602060405103516001600160a01b031682602001516001600160a01b0316146119145760405162461bcd60e51b8152602060048201526012602482015271496e76616c6964205369676e61747572652160701b60448201526064015b60405180910390fd5b600560009054906101000a90046001600160a01b03166001600160a01b03166323b872dd308e85600001516040518463ffffffff1660e01b815260040161195d939291906132e2565b6020604051808303816000875af115801561197c573d6000803e3d6000fd5b505050506040513d601f19601f820116820180604052508101906119a091906132c5565b5060048054604051637ac2ff7b60e01b81523092810192909252602482018d90526044820189905260ff871660648301526084820186905260a482018590526001600160a01b031690637ac2ff7b9060c401600060405180830381600087803b158015611a0c57600080fd5b505af1158015611a20573d6000803e3d6000fd5b50505050600460009054906101000a90046001600160a01b03166001600160a01b03166323b872dd8d84602001518e6040518463ffffffff1660e01b8152600401611a6d939291906132e2565b600060405180830381600087803b158015611a8757600080fd5b505af1158015611a9b573d6000803e3d6000fd5b50505050505050505050505050505050565b6004805460405163a211937760e01b81526000926001600160a01b039092169163a211937791611ae1918e918e9101613282565b6020604051808303816000875af1158015611b00573d6000803e3d6000fd5b505050506040513d601f19601f82011682018060405250810190611b2491906132ac565b60008c81526009602052604090819020828155601001805460ff191660011790556005549051633950935160e01b81526001600160a01b038b81166004830152602482018a90529293509116906339509351906044016020604051808303816000875af1158015611b99573d6000803e3d6000fd5b505050506040513d601f19601f82011682018060405250810190611bbd91906132c5565b506005546040516323b872dd60e01b81526001600160a01b03909116906323b872dd90611bf2908c908b908b906004016132e2565b6020604051808303816000875af1158015611c11573d6000803e3d6000fd5b505050506040513d601f19601f8201168201806040525081019061051891906132c5565b60408051808201825260048152634165726f60e01b6020918201528151808301835260018152603160f81b90820152600b5482517f8b73c3c69bb8fe3d512ecc4cf759cc79239f7b179b0ffacaa9a75d522b39400f818401527fbf01fc4e5f7eb1f2eee29681cd6d2cda1045d51fd80c223d1eaea49e08734bf9818501527fc89efdaa54c0f20c7adf612882df0950f5a951637e0307cdcb4c672f298b8bc660608201524660808201526001600160a01b0390911660a0808301919091528351808303909101815260c0909101909252815191012090565b611d156125db565b6001600160a01b038116611d7a5760405162461bcd60e51b815260206004820152602660248201527f4f776e61626c653a206e6577206f776e657220697320746865207a65726f206160448201526564647265737360d01b606482015260840161190b565b611d8381612635565b50565b6060611d906125db565b600a546001811015611dd75760405162461bcd60e51b815260206004820152601060248201526f6173736574732061726520656d70747960801b604482015260640161190b565b808411158015611de5575060015b611e575760405162461bcd60e51b815260206004820152603f60248201527f6c6f77657220626f756e646172792073686f756c64206265206c657373206f7260448201527f20657175616c20746f2073697a6520616e64206e6f6e206e6567617469766500606482015260840161190b565b808311158015611e65575060015b611ed75760405162461bcd60e51b815260206004820152603f60248201527f757070657220626f756e646172792073686f756c64206265206c657373206f7260448201527f20657175616c20746f2073697a6520616e64206e6f6e206e6567617469766500606482015260840161190b565b600a5460009067ffffffffffffffff811115611ef557611ef561284e565b604051908082528060200260200182016040528015611f2e57816020015b611f1b612782565b815260200190600190039081611f135790505b5090506000855b8581116125d05760096000600a8381548110611f5357611f536134aa565b9060005260206000200154815260200190815260200160002060405180610280016040529081600082015481526020016001820160009054906101000a900460ff1615151515815260200160028201548152602001600382018054611fb790613361565b80601f0160208091040260200160405190810160405280929190818152602001828054611fe390613361565b80156120305780601f1061200557610100808354040283529160200191612030565b820191906000526020600020905b81548152906001019060200180831161201357829003601f168201915b5050505050815260200160048201805461204990613361565b80601f016020809104026020016040519081016040528092919081815260200182805461207590613361565b80156120c25780601f10612097576101008083540402835291602001916120c2565b820191906000526020600020905b8154815290600101906020018083116120a557829003601f168201915b505050918352505060058201546001600160a01b031660208201526006820180546040909201916120f290613361565b80601f016020809104026020016040519081016040528092919081815260200182805461211e90613361565b801561216b5780601f106121405761010080835404028352916020019161216b565b820191906000526020600020905b81548152906001019060200180831161214e57829003601f168201915b5050505050815260200160078201805461218490613361565b80601f01602080910402602001604051908101604052809291908181526020018280546121b090613361565b80156121fd5780601f106121d2576101008083540402835291602001916121fd565b820191906000526020600020905b8154815290600101906020018083116121e057829003601f168201915b5050505050815260200160088201805461221690613361565b80601f016020809104026020016040519081016040528092919081815260200182805461224290613361565b801561228f5780601f106122645761010080835404028352916020019161228f565b820191906000526020600020905b81548152906001019060200180831161227257829003601f168201915b5050509183525050600982015460209091019060ff1660048111156122b6576122b6612ecb565b60048111156122c7576122c7612ecb565b8152602001600a820180546122db90613361565b80601f016020809104026020016040519081016040528092919081815260200182805461230790613361565b80156123545780601f1061232957610100808354040283529160200191612354565b820191906000526020600020905b81548152906001019060200180831161233757829003601f168201915b50505050508152602001600b8201805461236d90613361565b80601f016020809104026020016040519081016040528092919081815260200182805461239990613361565b80156123e65780601f106123bb576101008083540402835291602001916123e6565b820191906000526020600020905b8154815290600101906020018083116123c957829003601f168201915b50505050508152602001600c820180546123ff90613361565b80601f016020809104026020016040519081016040528092919081815260200182805461242b90613361565b80156124785780601f1061244d57610100808354040283529160200191612478565b820191906000526020600020905b81548152906001019060200180831161245b57829003601f168201915b50505050508152602001600d8201805461249190613361565b80601f01602080910402602001604051908101604052809291908181526020018280546124bd90613361565b801561250a5780601f106124df5761010080835404028352916020019161250a565b820191906000526020600020905b8154815290600101906020018083116124ed57829003601f168201915b5050509183525050600e82015460ff80821615156020840152610100820481161515604084015262010000909104811615156060830152600f8301546080830152601083015460a09092019116600281111561256857612568612ecb565b600281111561257957612579612ecb565b815260109190910154610100900460ff16151560209091015283518490849081106125a6576125a66134aa565b60209081029190910101526125bc8260016134d6565b9150806125c8816134e9565b915050611f35565b509095945050505050565b6001546001600160a01b0316331461107f5760405162461bcd60e51b815260206004820181905260248201527f4f776e61626c653a2063616c6c6572206973206e6f7420746865206f776e6572604482015260640161190b565b600180546001600160a01b038381166001600160a01b0319831681179093556040519116919082907f8be0079c531659141344cd1fd0a4f28419497f9722a3daafe3b4186f6b6457e090600090a35050565b6060600382600281111561269d5761269d612ecb565b60ff1611156126ab57600080fd5b8160028111156126bd576126bd612ecb565b6000036126e757505060408051808201909152600781526650656e64696e6760c81b602082015290565b8160028111156126f9576126f9612ecb565b60010361272357505060408051808201909152600781526610dc99585d195960ca1b602082015290565b505060408051808201909152600481526314dbdb1960e21b602082015290565b919050565b60405180608001604052806000815260200160006001600160a01b0316815260200160006001600160a01b03168152602001600081525090565b6040518061028001604052806000815260200160001515815260200160008152602001606081526020016060815260200160006001600160a01b03168152602001606081526020016060815260200160608152602001600060048111156127eb576127eb612ecb565b815260200160608152602001606081526020016060815260200160608152602001600015158152602001600015158152602001600015158152602001600081526020016000600281111561284157612841612ecb565b8152600060209091015290565b634e487b7160e01b600052604160045260246000fd5b604051610280810167ffffffffffffffff811182821017156128885761288861284e565b60405290565b600082601f83011261289f57600080fd5b813567ffffffffffffffff808211156128ba576128ba61284e565b604051601f8301601f19908116603f011681019082821181831017156128e2576128e261284e565b816040528381528660208588010111156128fb57600080fd5b836020870160208301376000602085830101528094505050505092915050565b80356001600160a01b038116811461274357600080fd5b6000806040838503121561294557600080fd5b823567ffffffffffffffff81111561295c57600080fd5b6129688582860161288e565b9250506129776020840161291b565b90509250929050565b803560ff8116811461274357600080fd5b600080600080600080600080610100898b0312156129ae57600080fd5b6129b78961291b565b97506129c560208a0161291b565b965060408901359550606089013594506129e160808a01612980565b979a969950949793969560a0850135955060c08501359460e001359350915050565b8015158114611d8357600080fd5b803561274381612a03565b80356005811061274357600080fd5b80356003811061274357600080fd5b60006102808284031215612a4d57600080fd5b612a55612864565b905081358152612a6760208301612a11565b602082015260408201356040820152606082013567ffffffffffffffff80821115612a9157600080fd5b612a9d8583860161288e565b60608401526080840135915080821115612ab657600080fd5b612ac28583860161288e565b6080840152612ad360a0850161291b565b60a084015260c0840135915080821115612aec57600080fd5b612af88583860161288e565b60c084015260e0840135915080821115612b1157600080fd5b612b1d8583860161288e565b60e084015261010091508184013581811115612b3857600080fd5b612b448682870161288e565b83850152506101209150612b59828501612a1c565b8284015261014091508184013581811115612b7357600080fd5b612b7f8682870161288e565b838501525061016091508184013581811115612b9a57600080fd5b612ba68682870161288e565b838501525061018091508184013581811115612bc157600080fd5b612bcd8682870161288e565b83850152506101a091508184013581811115612be857600080fd5b612bf48682870161288e565b838501525050506101c0612c09818401612a11565b908201526101e0612c1b838201612a11565b90820152610200612c2d838201612a11565b908201526102208281013590820152610240612c4a818401612a2b565b90820152610260612c5c838201612a11565b9082015292915050565b600080600080600080600060e0888a031215612c8157600080fd5b873567ffffffffffffffff80821115612c9957600080fd5b612ca58b838c01612a3a565b985060208a0135915080821115612cbb57600080fd5b50612cc88a828b0161288e565b965050612cd760408901612980565b969995985095966060810135965060808101359560a0820135955060c0909101359350915050565b600060208284031215612d1157600080fd5b5035919050565b60008060408385031215612d2b57600080fd5b823567ffffffffffffffff80821115612d4357600080fd5b612d4f86838701612a3a565b93506020850135915080821115612d6557600080fd5b50612d728582860161288e565b9150509250929050565b60008060008060008060008060006101208a8c031215612d9b57600080fd5b612da48a61291b565b9850612db260208b0161291b565b975060408a0135965060608a01359550612dce60808b01612980565b945060a08a0135935060c08a01359250612dea60e08b0161291b565b91506101008a013590509295985092959850929598565b600060208284031215612e1357600080fd5b813567ffffffffffffffff811115612e2a57600080fd5b612e3684828501612a3a565b949350505050565b60008060408385031215612e5157600080fd5b612e5a8361291b565b91506129776020840161291b565b60005b83811015612e83578181015183820152602001612e6b565b50506000910152565b60008151808452612ea4816020860160208601612e68565b601f01601f19169290920160200192915050565b6020815260006111236020830184612e8c565b634e487b7160e01b600052602160045260246000fd5b60058110612ef157612ef1612ecb565b9052565b60038110612ef157612ef1612ecb565b6000610280825184526020830151612f21602086018215159052565b50604083015160408501526060830151816060860152612f4382860182612e8c565b91505060808301518482036080860152612f5d8282612e8c565b91505060a0830151612f7a60a08601826001600160a01b03169052565b5060c083015184820360c0860152612f928282612e8c565b91505060e083015184820360e0860152612fac8282612e8c565b9150506101008084015185830382870152612fc78382612e8c565b9250505061012080840151612fde82870182612ee1565b50506101408084015185830382870152612ff88382612e8c565b9250505061016080840151858303828701526130148382612e8c565b9250505061018080840151858303828701526130308382612e8c565b925050506101a0808401518583038287015261304c8382612e8c565b925050506101c0808401516130648287018215159052565b50506101e0838101511515908501526102008084015115159085015261022080840151908501526102408084015161309e82870182612ef5565b50506102609283015115159390920192909252919050565b6020815260006111236020830184612f05565b6000806000806000806000806000806101408b8d0312156130e957600080fd5b6130f28b61291b565b995060208b0135985061310760408c01612980565b975060608b0135965060808b0135955060a08b0135945060c08b0135935061313160e08c01612980565b92506101008b013591506101208b013590509295989b9194979a5092959850565b6000806000806000806000806000806101408b8d03121561317257600080fd5b8a35995060208b013567ffffffffffffffff81111561319057600080fd5b61319c8d828e0161288e565b9950506131ab60408c0161291b565b97506131b960608c0161291b565b96506131c760808c0161291b565b955060a08b0135945060c08b0135935061313160e08c01612980565b6000602082840312156131f557600080fd5b6111238261291b565b6000806040838503121561321157600080fd5b50508035926020909101359150565b6000602080830181845280855180835260408601915060408160051b870101925083870160005b8281101561327557603f19888603018452613263858351612f05565b94509285019290850190600101613247565b5092979650505050505050565b6040815260006132956040830185612e8c565b905060018060a01b03831660208301529392505050565b6000602082840312156132be57600080fd5b5051919050565b6000602082840312156132d757600080fd5b815161112381612a03565b6001600160a01b039384168152919092166020820152604081019190915260600190565b85815284602082015260008451613324816040850160208901612e68565b82016005851061333657613336612ecb565b8460f81b60408201528351613352816041840160208801612e68565b01604101979650505050505050565b600181811c9082168061337557607f821691505b60208210810361339557634e487b7160e01b600052602260045260246000fd5b50919050565b601f8211156133e557600081815260208120601f850160051c810160208610156133c25750805b601f850160051c820191505b818110156133e1578281556001016133ce565b5050505b505050565b815167ffffffffffffffff8111156134045761340461284e565b613418816134128454613361565b8461339b565b602080601f83116001811461344d57600084156134355750858301515b600019600386901b1c1916600185901b1785556133e1565b600085815260208120601f198616915b8281101561347c5788860151825594840194600190910190840161345d565b508582101561349a5787850151600019600388901b60f8161c191681555b5050505050600190811b01905550565b634e487b7160e01b600052603260045260246000fd5b634e487b7160e01b600052601160045260246000fd5b808201808211156103c1576103c16134c0565b6000600182016134fb576134fb6134c0565b506001019056fea2646970667358221220f041b98c657a6077aa5d240f6b7d658a8fa7a2526e520033717c6232780ef02b64736f6c63430008110033",
  "linkReferences": {},
  "deployedLinkReferences": {}
}