{
  "_format": "hh-sol-artifact-1",
  "contractName": "AeroSwap",
  "sourceName": "contracts/Aero-swap.sol",
  "abi": [
    {
      "inputs": [
        {
          "internalType": "contract Aero",
          "name": "_token",
          "type": "address"
        },
        {
          "internalType": "uint256",
          "name": "_tokenPrice",
          "type": "uint256"
        },
        {
          "internalType": "uint256",
          "name": "_feePercent",
          "type": "uint256"
        }
      ],
      "stateMutability": "nonpayable",
      "type": "constructor"
    },
    {
      "anonymous": false,
      "inputs": [
        {
          "indexed": true,
          "internalType": "address",
          "name": "_buyer",
          "type": "address"
        },
        {
          "indexed": false,
          "internalType": "uint256",
          "name": "_amount",
          "type": "uint256"
        }
      ],
      "name": "Sell",
      "type": "event"
    },
    {
      "inputs": [],
      "name": "admin",
      "outputs": [
        {
          "internalType": "address",
          "name": "",
          "type": "address"
        }
      ],
      "stateMutability": "view",
      "type": "function"
    },
    {
      "inputs": [
        {
          "internalType": "uint256",
          "name": "_numberOfTokens",
          "type": "uint256"
        }
      ],
      "name": "buyTokens",
      "outputs": [],
      "stateMutability": "payable",
      "type": "function"
    },
    {
      "inputs": [],
      "name": "endSale",
      "outputs": [],
      "stateMutability": "nonpayable",
      "type": "function"
    },
    {
      "inputs": [],
      "name": "feePercent",
      "outputs": [
        {
          "internalType": "uint256",
          "name": "",
          "type": "uint256"
        }
      ],
      "stateMutability": "view",
      "type": "function"
    },
    {
      "inputs": [
        {
          "internalType": "uint256",
          "name": "_numberOfTokens",
          "type": "uint256"
        }
      ],
      "name": "sellTokens",
      "outputs": [],
      "stateMutability": "payable",
      "type": "function"
    },
    {
      "inputs": [],
      "name": "token",
      "outputs": [
        {
          "internalType": "contract Aero",
          "name": "",
          "type": "address"
        }
      ],
      "stateMutability": "view",
      "type": "function"
    },
    {
      "inputs": [],
      "name": "tokenPrice",
      "outputs": [
        {
          "internalType": "uint256",
          "name": "",
          "type": "uint256"
        }
      ],
      "stateMutability": "view",
      "type": "function"
    },
    {
      "inputs": [],
      "name": "tokensSold",
      "outputs": [
        {
          "internalType": "uint256",
          "name": "",
          "type": "uint256"
        }
      ],
      "stateMutability": "view",
      "type": "function"
    }
  ],
  "bytecode": "0x608060405234801561001057600080fd5b506040516109d23803806109d283398101604081905261002f91610069565b60008054336001600160a01b031991821617909155600180549091166001600160a01b0394909416939093179092556002556004556100ac565b60008060006060848603121561007e57600080fd5b83516001600160a01b038116811461009557600080fd5b602085015160409095015190969495509392505050565b610917806100bb6000396000f3fe60806040526004361061007b5760003560e01c80637fd6f15c1161004e5780637fd6f15c146100e65780637ff9b596146100fc578063f851a44014610112578063fc0c546a1461014a57600080fd5b80633610724e14610080578063380d831b14610095578063518ab2a8146100aa5780636c11bcd3146100d3575b600080fd5b61009361008e3660046107dc565b61016a565b005b3480156100a157600080fd5b506100936103d5565b3480156100b657600080fd5b506100c060035481565b6040519081526020015b60405180910390f35b6100936100e13660046107dc565b610570565b3480156100f257600080fd5b506100c060045481565b34801561010857600080fd5b506100c060025481565b34801561011e57600080fd5b50600054610132906001600160a01b031681565b6040516001600160a01b0390911681526020016100ca565b34801561015657600080fd5b50600154610132906001600160a01b031681565b6000670de0b6b3a76400006004546064610184919061080b565b61018e9190610828565b90506000612710826002546101a3919061080b565b6101ad9190610828565b90506000816002546101bf919061084a565b90506000670de0b6b3a76400006101d6838761080b565b6101e09190610828565b9050803410156102375760405162461bcd60e51b815260206004820152601c60248201527f496e76616c696420616d6f756e74206f662065746865722073656e740000000060448201526064015b60405180910390fd5b6001546040516370a0823160e01b815230600482015286916001600160a01b0316906370a0823190602401602060405180830381865afa15801561027f573d6000803e3d6000fd5b505050506040513d601f19601f820116820180604052508101906102a3919061085d565b10156102f15760405162461bcd60e51b815260206004820152601f60248201527f496e73756666696369656e7420746f6b656e7320696e20636f6e747261637400604482015260640161022e565b60015460405163a9059cbb60e01b8152336004820152602481018790526001600160a01b039091169063a9059cbb906044016020604051808303816000875af1158015610342573d6000803e3d6000fd5b505050506040513d601f19601f820116820180604052508101906103669190610876565b6103825760405162461bcd60e51b815260040161022e9061089f565b8460036000828254610394919061084a565b909155505060405185815233907f5e5e995ce3133561afceaa51a9a154d5db228cd7525d34df5185582c18d3df099060200160405180910390a25050505050565b6000546001600160a01b0316331461042f5760405162461bcd60e51b815260206004820152601760248201527f4f6e6c792061646d696e2063616e20656e642073616c65000000000000000000604482015260640161022e565b6001546000546040516370a0823160e01b81523060048201526001600160a01b039283169263a9059cbb92169083906370a0823190602401602060405180830381865afa158015610484573d6000803e3d6000fd5b505050506040513d601f19601f820116820180604052508101906104a8919061085d565b6040516001600160e01b031960e085901b1681526001600160a01b03909216600483015260248201526044016020604051808303816000875af11580156104f3573d6000803e3d6000fd5b505050506040513d601f19601f820116820180604052508101906105179190610876565b6105335760405162461bcd60e51b815260040161022e9061089f565b600080546040516001600160a01b03909116914780156108fc02929091818181858888f1935050505015801561056d573d6000803e3d6000fd5b50565b6000670de0b6b3a7640000600454606461058a919061080b565b6105949190610828565b90506000612710826002546105a9919061080b565b6105b39190610828565b90506000816002546105c591906108ce565b90506000670de0b6b3a76400006105dc838761080b565b6105e69190610828565b6001546040516370a0823160e01b815233600482015291925086916001600160a01b03909116906370a0823190602401602060405180830381865afa158015610633573d6000803e3d6000fd5b505050506040513d601f19601f82011682018060405250810190610657919061085d565b10156106a55760405162461bcd60e51b815260206004820152601b60248201527f496e73756666696369656e7420746f6b656e732062616c616e63650000000000604482015260640161022e565b804710156107055760405162461bcd60e51b815260206004820152602760248201527f436f6e74726163742068617320696e73756666696369656e742065746865722060448201526662616c616e636560c81b606482015260840161022e565b6001546040516323b872dd60e01b8152336004820152306024820152604481018790526001600160a01b03909116906323b872dd906064016020604051808303816000875af115801561075c573d6000803e3d6000fd5b505050506040513d601f19601f820116820180604052508101906107809190610876565b61079c5760405162461bcd60e51b815260040161022e9061089f565b604051339082156108fc029083906000818181858888f193505050501580156107c9573d6000803e3d6000fd5b50846003600082825461039491906108ce565b6000602082840312156107ee57600080fd5b5035919050565b634e487b7160e01b600052601160045260246000fd5b8082028115828204841417610822576108226107f5565b92915050565b60008261084557634e487b7160e01b600052601260045260246000fd5b500490565b80820180821115610822576108226107f5565b60006020828403121561086f57600080fd5b5051919050565b60006020828403121561088857600080fd5b8151801515811461089857600080fd5b9392505050565b602080825260159082015274151bdad95b881d1c985b9cd9995c8819985a5b1959605a1b604082015260600190565b81810381811115610822576108226107f556fea2646970667358221220051eb714977b9e596834a7bc66a603d0e059c7a5682b3c735c3d6e19506a0e5864736f6c63430008110033",
  "linkReferences": {},
  "deployedLinkReferences": {}
}