{
  "_format": "hh-sol-artifact-1",
  "contractName": "AeroSwap",
  "sourceName": "contracts/Aero-swap.sol",
  "abi": [
    {
      "inputs": [
        {
          "internalType": "contract Aero",
          "name": "_token",
          "type": "address"
        },
        {
          "internalType": "uint256",
          "name": "_tokenPrice",
          "type": "uint256"
        },
        {
          "internalType": "uint256",
          "name": "_feePercent",
          "type": "uint256"
        },
        {
          "internalType": "address",
          "name": "_feeAddress",
          "type": "address"
        }
      ],
      "stateMutability": "nonpayable",
      "type": "constructor"
    },
    {
      "anonymous": false,
      "inputs": [
        {
          "indexed": true,
          "internalType": "address",
          "name": "_buyer",
          "type": "address"
        },
        {
          "indexed": false,
          "internalType": "uint256",
          "name": "_amount",
          "type": "uint256"
        }
      ],
      "name": "Sell",
      "type": "event"
    },
    {
      "inputs": [],
      "name": "admin",
      "outputs": [
        {
          "internalType": "address",
          "name": "",
          "type": "address"
        }
      ],
      "stateMutability": "view",
      "type": "function"
    },
    {
      "inputs": [
        {
          "internalType": "uint256",
          "name": "_numberOfTokens",
          "type": "uint256"
        }
      ],
      "name": "buyTokens",
      "outputs": [],
      "stateMutability": "payable",
      "type": "function"
    },
    {
      "inputs": [],
      "name": "endSale",
      "outputs": [],
      "stateMutability": "nonpayable",
      "type": "function"
    },
    {
      "inputs": [],
      "name": "feeAddress",
      "outputs": [
        {
          "internalType": "address",
          "name": "",
          "type": "address"
        }
      ],
      "stateMutability": "view",
      "type": "function"
    },
    {
      "inputs": [],
      "name": "feePercent",
      "outputs": [
        {
          "internalType": "uint256",
          "name": "",
          "type": "uint256"
        }
      ],
      "stateMutability": "view",
      "type": "function"
    },
    {
      "inputs": [
        {
          "internalType": "uint256",
          "name": "_numberOfTokens",
          "type": "uint256"
        }
      ],
      "name": "sellTokens",
      "outputs": [],
      "stateMutability": "payable",
      "type": "function"
    },
    {
      "inputs": [],
      "name": "token",
      "outputs": [
        {
          "internalType": "contract Aero",
          "name": "",
          "type": "address"
        }
      ],
      "stateMutability": "view",
      "type": "function"
    },
    {
      "inputs": [],
      "name": "tokenPrice",
      "outputs": [
        {
          "internalType": "uint256",
          "name": "",
          "type": "uint256"
        }
      ],
      "stateMutability": "view",
      "type": "function"
    },
    {
      "inputs": [],
      "name": "tokensSold",
      "outputs": [
        {
          "internalType": "uint256",
          "name": "",
          "type": "uint256"
        }
      ],
      "stateMutability": "view",
      "type": "function"
    }
  ],
  "bytecode": "0x608060405234801561001057600080fd5b50604051610b41380380610b4183398101604081905261002f9161008f565b600080546001600160a01b03199081163317909155600180546001600160a01b03968716908316179055600293909355600491909155600580549190931691161790556100db565b6001600160a01b038116811461008c57600080fd5b50565b600080600080608085870312156100a557600080fd5b84516100b081610077565b80945050602085015192506040850151915060608501516100d081610077565b939692955090935050565b610a57806100ea6000396000f3fe6080604052600436106100865760003560e01c80636c11bcd3116100595780636c11bcd3146101165780637fd6f15c146101295780637ff9b5961461013f578063f851a44014610155578063fc0c546a1461017557600080fd5b80633610724e1461008b578063380d831b146100a057806341275358146100b5578063518ab2a8146100f2575b600080fd5b61009e61009936600461091c565b610195565b005b3480156100ac57600080fd5b5061009e610495565b3480156100c157600080fd5b506005546100d5906001600160a01b031681565b6040516001600160a01b0390911681526020015b60405180910390f35b3480156100fe57600080fd5b5061010860035481565b6040519081526020016100e9565b61009e61012436600461091c565b610630565b34801561013557600080fd5b5061010860045481565b34801561014b57600080fd5b5061010860025481565b34801561016157600080fd5b506000546100d5906001600160a01b031681565b34801561018157600080fd5b506001546100d5906001600160a01b031681565b6000670de0b6b3a76400006002546101ad919061094b565b905060006064600454846101c1919061096d565b6101cb919061094b565b90506000826101da838661098a565b6101e4919061096d565b90508034101561023b5760405162461bcd60e51b815260206004820152601c60248201527f496e76616c696420616d6f756e74206f662065746865722073656e740000000060448201526064015b60405180910390fd5b6001546040516370a0823160e01b815230600482015285916001600160a01b0316906370a0823190602401602060405180830381865afa158015610283573d6000803e3d6000fd5b505050506040513d601f19601f820116820180604052508101906102a7919061099d565b10156102f55760405162461bcd60e51b815260206004820152601f60248201527f496e73756666696369656e7420746f6b656e7320696e20636f6e7472616374006044820152606401610232565b6001546001600160a01b031663a9059cbb33610311858861098a565b6040516001600160e01b031960e085901b1681526001600160a01b03909216600483015260248201526044016020604051808303816000875af115801561035c573d6000803e3d6000fd5b505050506040513d601f19601f8201168201806040525081019061038091906109b6565b61039c5760405162461bcd60e51b8152600401610232906109df565b60015460055460405163a9059cbb60e01b81526001600160a01b0391821660048201526024810185905291169063a9059cbb906044016020604051808303816000875af11580156103f1573d6000803e3d6000fd5b505050506040513d601f19601f8201168201806040525081019061041591906109b6565b6104315760405162461bcd60e51b8152600401610232906109df565b61043b828561098a565b6003600082825461044c9190610a0e565b909155503390507f5e5e995ce3133561afceaa51a9a154d5db228cd7525d34df5185582c18d3df0961047e848761098a565b60405190815260200160405180910390a250505050565b6000546001600160a01b031633146104ef5760405162461bcd60e51b815260206004820152601760248201527f4f6e6c792061646d696e2063616e20656e642073616c650000000000000000006044820152606401610232565b6001546000546040516370a0823160e01b81523060048201526001600160a01b039283169263a9059cbb92169083906370a0823190602401602060405180830381865afa158015610544573d6000803e3d6000fd5b505050506040513d601f19601f82011682018060405250810190610568919061099d565b6040516001600160e01b031960e085901b1681526001600160a01b03909216600483015260248201526044016020604051808303816000875af11580156105b3573d6000803e3d6000fd5b505050506040513d601f19601f820116820180604052508101906105d791906109b6565b6105f35760405162461bcd60e51b8152600401610232906109df565b600080546040516001600160a01b03909116914780156108fc02929091818181858888f1935050505015801561062d573d6000803e3d6000fd5b50565b6000670de0b6b3a764000060025461271061064b919061096d565b610655919061094b565b90506000606460045484610669919061096d565b610673919061094b565b9050600061271083610685848761098a565b61068f919061096d565b610699919061094b565b6001546040516370a0823160e01b815233600482015291925085916001600160a01b03909116906370a0823190602401602060405180830381865afa1580156106e6573d6000803e3d6000fd5b505050506040513d601f19601f8201168201806040525081019061070a919061099d565b10156107585760405162461bcd60e51b815260206004820152601b60248201527f496e73756666696369656e7420746f6b656e732062616c616e636500000000006044820152606401610232565b804710156107b85760405162461bcd60e51b815260206004820152602760248201527f436f6e74726163742068617320696e73756666696369656e742065746865722060448201526662616c616e636560c81b6064820152608401610232565b6001546040516323b872dd60e01b8152336004820152306024820152604481018690526001600160a01b03909116906323b872dd906064016020604051808303816000875af115801561080f573d6000803e3d6000fd5b505050506040513d601f19601f8201168201806040525081019061083391906109b6565b61084f5760405162461bcd60e51b8152600401610232906109df565b60015460055460405163a9059cbb60e01b81526001600160a01b0391821660048201526024810185905291169063a9059cbb906044016020604051808303816000875af11580156108a4573d6000803e3d6000fd5b505050506040513d601f19601f820116820180604052508101906108c891906109b6565b6108e45760405162461bcd60e51b8152600401610232906109df565b604051339082156108fc029083906000818181858888f19350505050158015610911573d6000803e3d6000fd5b5061043b828561098a565b60006020828403121561092e57600080fd5b5035919050565b634e487b7160e01b600052601160045260246000fd5b60008261096857634e487b7160e01b600052601260045260246000fd5b500490565b808202811582820484141761098457610984610935565b92915050565b8181038181111561098457610984610935565b6000602082840312156109af57600080fd5b5051919050565b6000602082840312156109c857600080fd5b815180151581146109d857600080fd5b9392505050565b602080825260159082015274151bdad95b881d1c985b9cd9995c8819985a5b1959605a1b604082015260600190565b808201808211156109845761098461093556fea26469706673582212206cab1b1ddabd27faa36a16acea54e4867f581e5108c06377688b753c3b13c60464736f6c63430008110033",
  "linkReferences": {},
  "deployedLinkReferences": {}
}