{
  "_format": "hh-sol-artifact-1",
  "contractName": "AeroSwap",
  "sourceName": "contracts/Aero-swap.sol",
  "abi": [
    {
      "inputs": [
        {
          "internalType": "contract Aero",
          "name": "_token",
          "type": "address"
        },
        {
          "internalType": "uint256",
          "name": "_tokenPrice",
          "type": "uint256"
        },
        {
          "internalType": "uint256",
          "name": "_feePercent",
          "type": "uint256"
        }
      ],
      "stateMutability": "nonpayable",
      "type": "constructor"
    },
    {
      "anonymous": false,
      "inputs": [
        {
          "indexed": true,
          "internalType": "address",
          "name": "_buyer",
          "type": "address"
        },
        {
          "indexed": false,
          "internalType": "uint256",
          "name": "_amount",
          "type": "uint256"
        }
      ],
      "name": "Sell",
      "type": "event"
    },
    {
      "inputs": [],
      "name": "admin",
      "outputs": [
        {
          "internalType": "address",
          "name": "",
          "type": "address"
        }
      ],
      "stateMutability": "view",
      "type": "function"
    },
    {
      "inputs": [
        {
          "internalType": "uint256",
          "name": "_numberOfTokens",
          "type": "uint256"
        }
      ],
      "name": "buyTokens",
      "outputs": [],
      "stateMutability": "payable",
      "type": "function"
    },
    {
      "inputs": [],
      "name": "endSale",
      "outputs": [],
      "stateMutability": "nonpayable",
      "type": "function"
    },
    {
      "inputs": [],
      "name": "feePercent",
      "outputs": [
        {
          "internalType": "uint256",
          "name": "",
          "type": "uint256"
        }
      ],
      "stateMutability": "view",
      "type": "function"
    },
    {
      "inputs": [
        {
          "internalType": "uint256",
          "name": "_numberOfTokens",
          "type": "uint256"
        }
      ],
      "name": "sellTokens",
      "outputs": [],
      "stateMutability": "payable",
      "type": "function"
    },
    {
      "inputs": [],
      "name": "token",
      "outputs": [
        {
          "internalType": "contract Aero",
          "name": "",
          "type": "address"
        }
      ],
      "stateMutability": "view",
      "type": "function"
    },
    {
      "inputs": [],
      "name": "tokenPrice",
      "outputs": [
        {
          "internalType": "uint256",
          "name": "",
          "type": "uint256"
        }
      ],
      "stateMutability": "view",
      "type": "function"
    },
    {
      "inputs": [],
      "name": "tokensSold",
      "outputs": [
        {
          "internalType": "uint256",
          "name": "",
          "type": "uint256"
        }
      ],
      "stateMutability": "view",
      "type": "function"
    }
  ],
  "bytecode": "0x608060405234801561001057600080fd5b506040516109b73803806109b783398101604081905261002f91610069565b60008054336001600160a01b031991821617909155600180549091166001600160a01b0394909416939093179092556002556004556100ac565b60008060006060848603121561007e57600080fd5b83516001600160a01b038116811461009557600080fd5b602085015160409095015190969495509392505050565b6108fc806100bb6000396000f3fe60806040526004361061007b5760003560e01c80637fd6f15c1161004e5780637fd6f15c146100e65780637ff9b596146100fc578063f851a44014610112578063fc0c546a1461014a57600080fd5b80633610724e14610080578063380d831b14610095578063518ab2a8146100aa5780636c11bcd3146100d3575b600080fd5b61009361008e3660046107c1565b61016a565b005b3480156100a157600080fd5b506100936103c7565b3480156100b657600080fd5b506100c060035481565b6040519081526020015b60405180910390f35b6100936100e13660046107c1565b610562565b3480156100f257600080fd5b506100c060045481565b34801561010857600080fd5b506100c060025481565b34801561011e57600080fd5b50600054610132906001600160a01b031681565b6040516001600160a01b0390911681526020016100ca565b34801561015657600080fd5b50600154610132906001600160a01b031681565b6000670de0b6b3a764000060025461271061018591906107f0565b61018f919061080d565b905060006064600454846101a391906107f0565b6101ad919061080d565b90506000612710836101bf848761082f565b6101c991906107f0565b6101d3919061080d565b90508034101561022a5760405162461bcd60e51b815260206004820152601c60248201527f496e76616c696420616d6f756e74206f662065746865722073656e740000000060448201526064015b60405180910390fd5b6001546040516370a0823160e01b815230600482015285916001600160a01b0316906370a0823190602401602060405180830381865afa158015610272573d6000803e3d6000fd5b505050506040513d601f19601f820116820180604052508101906102969190610842565b10156102e45760405162461bcd60e51b815260206004820152601f60248201527f496e73756666696369656e7420746f6b656e7320696e20636f6e7472616374006044820152606401610221565b60015460405163a9059cbb60e01b8152336004820152602481018690526001600160a01b039091169063a9059cbb906044016020604051808303816000875af1158015610335573d6000803e3d6000fd5b505050506040513d601f19601f82011682018060405250810190610359919061085b565b6103755760405162461bcd60e51b815260040161022190610884565b8360036000828254610387919061082f565b909155505060405184815233907f5e5e995ce3133561afceaa51a9a154d5db228cd7525d34df5185582c18d3df099060200160405180910390a250505050565b6000546001600160a01b031633146104215760405162461bcd60e51b815260206004820152601760248201527f4f6e6c792061646d696e2063616e20656e642073616c650000000000000000006044820152606401610221565b6001546000546040516370a0823160e01b81523060048201526001600160a01b039283169263a9059cbb92169083906370a0823190602401602060405180830381865afa158015610476573d6000803e3d6000fd5b505050506040513d601f19601f8201168201806040525081019061049a9190610842565b6040516001600160e01b031960e085901b1681526001600160a01b03909216600483015260248201526044016020604051808303816000875af11580156104e5573d6000803e3d6000fd5b505050506040513d601f19601f82011682018060405250810190610509919061085b565b6105255760405162461bcd60e51b815260040161022190610884565b600080546040516001600160a01b03909116914780156108fc02929091818181858888f1935050505015801561055f573d6000803e3d6000fd5b50565b6000670de0b6b3a764000060025461271061057d91906107f0565b610587919061080d565b9050600060646004548461059b91906107f0565b6105a5919061080d565b90506000612710836105b784876108b3565b6105c191906107f0565b6105cb919061080d565b6001546040516370a0823160e01b815233600482015291925085916001600160a01b03909116906370a0823190602401602060405180830381865afa158015610618573d6000803e3d6000fd5b505050506040513d601f19601f8201168201806040525081019061063c9190610842565b101561068a5760405162461bcd60e51b815260206004820152601b60248201527f496e73756666696369656e7420746f6b656e732062616c616e636500000000006044820152606401610221565b804710156106ea5760405162461bcd60e51b815260206004820152602760248201527f436f6e74726163742068617320696e73756666696369656e742065746865722060448201526662616c616e636560c81b6064820152608401610221565b6001546040516323b872dd60e01b8152336004820152306024820152604481018690526001600160a01b03909116906323b872dd906064016020604051808303816000875af1158015610741573d6000803e3d6000fd5b505050506040513d601f19601f82011682018060405250810190610765919061085b565b6107815760405162461bcd60e51b815260040161022190610884565b604051339082156108fc029083906000818181858888f193505050501580156107ae573d6000803e3d6000fd5b50836003600082825461038791906108b3565b6000602082840312156107d357600080fd5b5035919050565b634e487b7160e01b600052601160045260246000fd5b8082028115828204841417610807576108076107da565b92915050565b60008261082a57634e487b7160e01b600052601260045260246000fd5b500490565b80820180821115610807576108076107da565b60006020828403121561085457600080fd5b5051919050565b60006020828403121561086d57600080fd5b8151801515811461087d57600080fd5b9392505050565b602080825260159082015274151bdad95b881d1c985b9cd9995c8819985a5b1959605a1b604082015260600190565b81810381811115610807576108076107da56fea264697066735822122079a399a9547efc479dfecdd6274a0ff7361682b0339d5ca3c8e035ede4494cd464736f6c63430008110033",
  "linkReferences": {},
  "deployedLinkReferences": {}
}