{
  "_format": "hh-sol-artifact-1",
  "contractName": "AeroSwap",
  "sourceName": "contracts/Aero-swap.sol",
  "abi": [
    {
      "inputs": [
        {
          "internalType": "contract Aero",
          "name": "_token",
          "type": "address"
        },
        {
          "internalType": "uint256",
          "name": "_tokenPrice",
          "type": "uint256"
        },
        {
          "internalType": "uint256",
          "name": "_feePercent",
          "type": "uint256"
        },
        {
          "internalType": "address",
          "name": "_feeAddress",
          "type": "address"
        }
      ],
      "stateMutability": "nonpayable",
      "type": "constructor"
    },
    {
      "anonymous": false,
      "inputs": [
        {
          "indexed": true,
          "internalType": "address",
          "name": "_buyer",
          "type": "address"
        },
        {
          "indexed": false,
          "internalType": "uint256",
          "name": "_amount",
          "type": "uint256"
        }
      ],
      "name": "Sell",
      "type": "event"
    },
    {
      "inputs": [],
      "name": "admin",
      "outputs": [
        {
          "internalType": "address",
          "name": "",
          "type": "address"
        }
      ],
      "stateMutability": "view",
      "type": "function"
    },
    {
      "inputs": [
        {
          "internalType": "uint256",
          "name": "_numberOfTokens",
          "type": "uint256"
        }
      ],
      "name": "buyTokens",
      "outputs": [],
      "stateMutability": "payable",
      "type": "function"
    },
    {
      "inputs": [],
      "name": "endSale",
      "outputs": [],
      "stateMutability": "nonpayable",
      "type": "function"
    },
    {
      "inputs": [],
      "name": "feeAddress",
      "outputs": [
        {
          "internalType": "address",
          "name": "",
          "type": "address"
        }
      ],
      "stateMutability": "view",
      "type": "function"
    },
    {
      "inputs": [],
      "name": "feePercent",
      "outputs": [
        {
          "internalType": "uint256",
          "name": "",
          "type": "uint256"
        }
      ],
      "stateMutability": "view",
      "type": "function"
    },
    {
      "inputs": [],
      "name": "token",
      "outputs": [
        {
          "internalType": "contract Aero",
          "name": "",
          "type": "address"
        }
      ],
      "stateMutability": "view",
      "type": "function"
    },
    {
      "inputs": [],
      "name": "tokenPrice",
      "outputs": [
        {
          "internalType": "uint256",
          "name": "",
          "type": "uint256"
        }
      ],
      "stateMutability": "view",
      "type": "function"
    },
    {
      "inputs": [],
      "name": "tokensSold",
      "outputs": [
        {
          "internalType": "uint256",
          "name": "",
          "type": "uint256"
        }
      ],
      "stateMutability": "view",
      "type": "function"
    }
  ],
  "bytecode": "0x608060405234801561001057600080fd5b5060405161082c38038061082c83398101604081905261002f9161008f565b600080546001600160a01b03199081163317909155600180546001600160a01b03968716908316179055600293909355600491909155600580549190931691161790556100db565b6001600160a01b038116811461008c57600080fd5b50565b600080600080608085870312156100a557600080fd5b84516100b081610077565b80945050602085015192506040850151915060608501516100d081610077565b939692955090935050565b610742806100ea6000396000f3fe60806040526004361061007b5760003560e01c80637fd6f15c1161004e5780637fd6f15c1461010b5780637ff9b59614610121578063f851a44014610137578063fc0c546a1461015757600080fd5b80633610724e14610080578063380d831b1461009557806341275358146100aa578063518ab2a8146100e7575b600080fd5b61009361008e366004610607565b610177565b005b3480156100a157600080fd5b50610093610460565b3480156100b657600080fd5b506005546100ca906001600160a01b031681565b6040516001600160a01b0390911681526020015b60405180910390f35b3480156100f357600080fd5b506100fd60035481565b6040519081526020016100de565b34801561011757600080fd5b506100fd60045481565b34801561012d57600080fd5b506100fd60025481565b34801561014357600080fd5b506000546100ca906001600160a01b031681565b34801561016357600080fd5b506001546100ca906001600160a01b031681565b60006064600454836101899190610636565b6101939190610653565b9050600060025482846101a69190610675565b6101b09190610636565b9050803410156102075760405162461bcd60e51b815260206004820152601c60248201527f496e76616c696420616d6f756e74206f662065746865722073656e740000000060448201526064015b60405180910390fd5b6001546040516370a0823160e01b815230600482015284916001600160a01b0316906370a0823190602401602060405180830381865afa15801561024f573d6000803e3d6000fd5b505050506040513d601f19601f820116820180604052508101906102739190610688565b10156102c15760405162461bcd60e51b815260206004820152601f60248201527f496e73756666696369656e7420746f6b656e7320696e20636f6e74726163740060448201526064016101fe565b6001546001600160a01b031663a9059cbb336102dd8587610675565b6040516001600160e01b031960e085901b1681526001600160a01b03909216600483015260248201526044016020604051808303816000875af1158015610328573d6000803e3d6000fd5b505050506040513d601f19601f8201168201806040525081019061034c91906106a1565b6103685760405162461bcd60e51b81526004016101fe906106ca565b60015460055460405163a9059cbb60e01b81526001600160a01b0391821660048201526024810185905291169063a9059cbb906044016020604051808303816000875af11580156103bd573d6000803e3d6000fd5b505050506040513d601f19601f820116820180604052508101906103e191906106a1565b6103fd5760405162461bcd60e51b81526004016101fe906106ca565b6104078284610675565b6003600082825461041891906106f9565b909155503390507f5e5e995ce3133561afceaa51a9a154d5db228cd7525d34df5185582c18d3df0961044a8486610675565b60405190815260200160405180910390a2505050565b6000546001600160a01b031633146104ba5760405162461bcd60e51b815260206004820152601760248201527f4f6e6c792061646d696e2063616e20656e642073616c6500000000000000000060448201526064016101fe565b6001546000546040516370a0823160e01b81523060048201526001600160a01b039283169263a9059cbb92169083906370a0823190602401602060405180830381865afa15801561050f573d6000803e3d6000fd5b505050506040513d601f19601f820116820180604052508101906105339190610688565b6040516001600160e01b031960e085901b1681526001600160a01b03909216600483015260248201526044016020604051808303816000875af115801561057e573d6000803e3d6000fd5b505050506040513d601f19601f820116820180604052508101906105a291906106a1565b6105be5760405162461bcd60e51b81526004016101fe906106ca565b600080546040516001600160a01b03909116914780156108fc02929091818181858888f193505050501580156105f8573d6000803e3d6000fd5b506000546001600160a01b0316ff5b60006020828403121561061957600080fd5b5035919050565b634e487b7160e01b600052601160045260246000fd5b808202811582820484141761064d5761064d610620565b92915050565b60008261067057634e487b7160e01b600052601260045260246000fd5b500490565b8181038181111561064d5761064d610620565b60006020828403121561069a57600080fd5b5051919050565b6000602082840312156106b357600080fd5b815180151581146106c357600080fd5b9392505050565b602080825260159082015274151bdad95b881d1c985b9cd9995c8819985a5b1959605a1b604082015260600190565b8082018082111561064d5761064d61062056fea26469706673582212204d1d6feed62d8bf2cd16c9195cdf71fe53825340cb92f05f7d84df4ba55f8d3564736f6c63430008110033",
  "linkReferences": {},
  "deployedLinkReferences": {}
}