{
  "_format": "hh-sol-artifact-1",
  "contractName": "AeroSwap",
  "sourceName": "contracts/Aero-swap.sol",
  "abi": [
    {
      "inputs": [
        {
          "internalType": "contract Aero",
          "name": "_token",
          "type": "address"
        },
        {
          "internalType": "uint256",
          "name": "_tokenPrice",
          "type": "uint256"
        },
        {
          "internalType": "uint256",
          "name": "_feePercent",
          "type": "uint256"
        },
        {
          "internalType": "address",
          "name": "_feeAddress",
          "type": "address"
        }
      ],
      "stateMutability": "nonpayable",
      "type": "constructor"
    },
    {
      "anonymous": false,
      "inputs": [
        {
          "indexed": true,
          "internalType": "address",
          "name": "_buyer",
          "type": "address"
        },
        {
          "indexed": false,
          "internalType": "uint256",
          "name": "_amount",
          "type": "uint256"
        }
      ],
      "name": "Sell",
      "type": "event"
    },
    {
      "inputs": [],
      "name": "admin",
      "outputs": [
        {
          "internalType": "address",
          "name": "",
          "type": "address"
        }
      ],
      "stateMutability": "view",
      "type": "function"
    },
    {
      "inputs": [
        {
          "internalType": "uint256",
          "name": "_numberOfTokens",
          "type": "uint256"
        }
      ],
      "name": "buyTokens",
      "outputs": [],
      "stateMutability": "payable",
      "type": "function"
    },
    {
      "inputs": [],
      "name": "endSale",
      "outputs": [],
      "stateMutability": "nonpayable",
      "type": "function"
    },
    {
      "inputs": [],
      "name": "feeAddress",
      "outputs": [
        {
          "internalType": "address",
          "name": "",
          "type": "address"
        }
      ],
      "stateMutability": "view",
      "type": "function"
    },
    {
      "inputs": [],
      "name": "feePercent",
      "outputs": [
        {
          "internalType": "uint256",
          "name": "",
          "type": "uint256"
        }
      ],
      "stateMutability": "view",
      "type": "function"
    },
    {
      "inputs": [
        {
          "internalType": "uint256",
          "name": "_numberOfTokens",
          "type": "uint256"
        }
      ],
      "name": "sellTokens",
      "outputs": [],
      "stateMutability": "payable",
      "type": "function"
    },
    {
      "inputs": [],
      "name": "token",
      "outputs": [
        {
          "internalType": "contract Aero",
          "name": "",
          "type": "address"
        }
      ],
      "stateMutability": "view",
      "type": "function"
    },
    {
      "inputs": [],
      "name": "tokenPrice",
      "outputs": [
        {
          "internalType": "uint256",
          "name": "",
          "type": "uint256"
        }
      ],
      "stateMutability": "view",
      "type": "function"
    },
    {
      "inputs": [],
      "name": "tokensSold",
      "outputs": [
        {
          "internalType": "uint256",
          "name": "",
          "type": "uint256"
        }
      ],
      "stateMutability": "view",
      "type": "function"
    }
  ],
  "bytecode": "0x608060405234801561001057600080fd5b50604051610b27380380610b2783398101604081905261002f9161008f565b600080546001600160a01b03199081163317909155600180546001600160a01b03968716908316179055600293909355600491909155600580549190931691161790556100db565b6001600160a01b038116811461008c57600080fd5b50565b600080600080608085870312156100a557600080fd5b84516100b081610077565b80945050602085015192506040850151915060608501516100d081610077565b939692955090935050565b610a3d806100ea6000396000f3fe6080604052600436106100865760003560e01c80636c11bcd3116100595780636c11bcd3146101165780637fd6f15c146101295780637ff9b5961461013f578063f851a44014610155578063fc0c546a1461017557600080fd5b80633610724e1461008b578063380d831b146100a057806341275358146100b5578063518ab2a8146100f2575b600080fd5b61009e610099366004610902565b610195565b005b3480156100ac57600080fd5b5061009e610495565b3480156100c157600080fd5b506005546100d5906001600160a01b031681565b6040516001600160a01b0390911681526020015b60405180910390f35b3480156100fe57600080fd5b5061010860035481565b6040519081526020016100e9565b61009e610124366004610902565b610630565b34801561013557600080fd5b5061010860045481565b34801561014b57600080fd5b5061010860025481565b34801561016157600080fd5b506000546100d5906001600160a01b031681565b34801561018157600080fd5b506001546100d5906001600160a01b031681565b6000670de0b6b3a76400006002546101ad9190610931565b905060006064600454846101c19190610953565b6101cb9190610931565b90506000826101da8386610970565b6101e49190610953565b90508034101561023b5760405162461bcd60e51b815260206004820152601c60248201527f496e76616c696420616d6f756e74206f662065746865722073656e740000000060448201526064015b60405180910390fd5b6001546040516370a0823160e01b815230600482015285916001600160a01b0316906370a0823190602401602060405180830381865afa158015610283573d6000803e3d6000fd5b505050506040513d601f19601f820116820180604052508101906102a79190610983565b10156102f55760405162461bcd60e51b815260206004820152601f60248201527f496e73756666696369656e7420746f6b656e7320696e20636f6e7472616374006044820152606401610232565b6001546001600160a01b031663a9059cbb336103118588610970565b6040516001600160e01b031960e085901b1681526001600160a01b03909216600483015260248201526044016020604051808303816000875af115801561035c573d6000803e3d6000fd5b505050506040513d601f19601f82011682018060405250810190610380919061099c565b61039c5760405162461bcd60e51b8152600401610232906109c5565b60015460055460405163a9059cbb60e01b81526001600160a01b0391821660048201526024810185905291169063a9059cbb906044016020604051808303816000875af11580156103f1573d6000803e3d6000fd5b505050506040513d601f19601f82011682018060405250810190610415919061099c565b6104315760405162461bcd60e51b8152600401610232906109c5565b61043b8285610970565b6003600082825461044c91906109f4565b909155503390507f5e5e995ce3133561afceaa51a9a154d5db228cd7525d34df5185582c18d3df0961047e8487610970565b60405190815260200160405180910390a250505050565b6000546001600160a01b031633146104ef5760405162461bcd60e51b815260206004820152601760248201527f4f6e6c792061646d696e2063616e20656e642073616c650000000000000000006044820152606401610232565b6001546000546040516370a0823160e01b81523060048201526001600160a01b039283169263a9059cbb92169083906370a0823190602401602060405180830381865afa158015610544573d6000803e3d6000fd5b505050506040513d601f19601f820116820180604052508101906105689190610983565b6040516001600160e01b031960e085901b1681526001600160a01b03909216600483015260248201526044016020604051808303816000875af11580156105b3573d6000803e3d6000fd5b505050506040513d601f19601f820116820180604052508101906105d7919061099c565b6105f35760405162461bcd60e51b8152600401610232906109c5565b600080546040516001600160a01b03909116914780156108fc02929091818181858888f1935050505015801561062d573d6000803e3d6000fd5b50565b6000670de0b6b3a76400006002546106489190610931565b9050600060646004548461065c9190610953565b6106669190610931565b90506000826106758386610970565b61067f9190610953565b6001546040516370a0823160e01b815233600482015291925085916001600160a01b03909116906370a0823190602401602060405180830381865afa1580156106cc573d6000803e3d6000fd5b505050506040513d601f19601f820116820180604052508101906106f09190610983565b101561073e5760405162461bcd60e51b815260206004820152601b60248201527f496e73756666696369656e7420746f6b656e732062616c616e636500000000006044820152606401610232565b8047101561079e5760405162461bcd60e51b815260206004820152602760248201527f436f6e74726163742068617320696e73756666696369656e742065746865722060448201526662616c616e636560c81b6064820152608401610232565b6001546040516323b872dd60e01b8152336004820152306024820152604481018690526001600160a01b03909116906323b872dd906064016020604051808303816000875af11580156107f5573d6000803e3d6000fd5b505050506040513d601f19601f82011682018060405250810190610819919061099c565b6108355760405162461bcd60e51b8152600401610232906109c5565b60015460055460405163a9059cbb60e01b81526001600160a01b0391821660048201526024810185905291169063a9059cbb906044016020604051808303816000875af115801561088a573d6000803e3d6000fd5b505050506040513d601f19601f820116820180604052508101906108ae919061099c565b6108ca5760405162461bcd60e51b8152600401610232906109c5565b604051339082156108fc029083906000818181858888f193505050501580156108f7573d6000803e3d6000fd5b5061043b8285610970565b60006020828403121561091457600080fd5b5035919050565b634e487b7160e01b600052601160045260246000fd5b60008261094e57634e487b7160e01b600052601260045260246000fd5b500490565b808202811582820484141761096a5761096a61091b565b92915050565b8181038181111561096a5761096a61091b565b60006020828403121561099557600080fd5b5051919050565b6000602082840312156109ae57600080fd5b815180151581146109be57600080fd5b9392505050565b602080825260159082015274151bdad95b881d1c985b9cd9995c8819985a5b1959605a1b604082015260600190565b8082018082111561096a5761096a61091b56fea2646970667358221220f06471fa5df03beab5466e9b0e66aee449998627c805c6b719ad267f830d285064736f6c63430008110033",
  "linkReferences": {},
  "deployedLinkReferences": {}
}