{
  "_format": "hh-sol-artifact-1",
  "contractName": "NFT",
  "sourceName": "contracts/v2/NFT.sol",
  "abi": [
    {
      "inputs": [
        {
          "internalType": "address",
          "name": "marketplaceAddress",
          "type": "address"
        }
      ],
      "stateMutability": "nonpayable",
      "type": "constructor"
    },
    {
      "anonymous": false,
      "inputs": [
        {
          "indexed": true,
          "internalType": "address",
          "name": "owner",
          "type": "address"
        },
        {
          "indexed": true,
          "internalType": "address",
          "name": "approved",
          "type": "address"
        },
        {
          "indexed": true,
          "internalType": "uint256",
          "name": "tokenId",
          "type": "uint256"
        }
      ],
      "name": "Approval",
      "type": "event"
    },
    {
      "anonymous": false,
      "inputs": [
        {
          "indexed": true,
          "internalType": "address",
          "name": "owner",
          "type": "address"
        },
        {
          "indexed": true,
          "internalType": "address",
          "name": "operator",
          "type": "address"
        },
        {
          "indexed": false,
          "internalType": "bool",
          "name": "approved",
          "type": "bool"
        }
      ],
      "name": "ApprovalForAll",
      "type": "event"
    },
    {
      "anonymous": false,
      "inputs": [
        {
          "indexed": true,
          "internalType": "address",
          "name": "from",
          "type": "address"
        },
        {
          "indexed": true,
          "internalType": "address",
          "name": "to",
          "type": "address"
        },
        {
          "indexed": true,
          "internalType": "uint256",
          "name": "tokenId",
          "type": "uint256"
        }
      ],
      "name": "Transfer",
      "type": "event"
    },
    {
      "inputs": [
        {
          "internalType": "address",
          "name": "to",
          "type": "address"
        },
        {
          "internalType": "uint256",
          "name": "tokenId",
          "type": "uint256"
        }
      ],
      "name": "approve",
      "outputs": [],
      "stateMutability": "nonpayable",
      "type": "function"
    },
    {
      "inputs": [
        {
          "internalType": "address",
          "name": "owner",
          "type": "address"
        }
      ],
      "name": "balanceOf",
      "outputs": [
        {
          "internalType": "uint256",
          "name": "",
          "type": "uint256"
        }
      ],
      "stateMutability": "view",
      "type": "function"
    },
    {
      "inputs": [
        {
          "internalType": "string",
          "name": "tokenURI",
          "type": "string"
        },
        {
          "internalType": "address",
          "name": "nftOwner",
          "type": "address"
        }
      ],
      "name": "createToken",
      "outputs": [
        {
          "internalType": "uint256",
          "name": "",
          "type": "uint256"
        }
      ],
      "stateMutability": "nonpayable",
      "type": "function"
    },
    {
      "inputs": [
        {
          "internalType": "uint256",
          "name": "tokenId",
          "type": "uint256"
        }
      ],
      "name": "getApproved",
      "outputs": [
        {
          "internalType": "address",
          "name": "",
          "type": "address"
        }
      ],
      "stateMutability": "view",
      "type": "function"
    },
    {
      "inputs": [
        {
          "internalType": "address",
          "name": "owner",
          "type": "address"
        },
        {
          "internalType": "address",
          "name": "operator",
          "type": "address"
        }
      ],
      "name": "isApprovedForAll",
      "outputs": [
        {
          "internalType": "bool",
          "name": "",
          "type": "bool"
        }
      ],
      "stateMutability": "view",
      "type": "function"
    },
    {
      "inputs": [],
      "name": "name",
      "outputs": [
        {
          "internalType": "string",
          "name": "",
          "type": "string"
        }
      ],
      "stateMutability": "view",
      "type": "function"
    },
    {
      "inputs": [
        {
          "internalType": "uint256",
          "name": "tokenId",
          "type": "uint256"
        }
      ],
      "name": "ownerOf",
      "outputs": [
        {
          "internalType": "address",
          "name": "",
          "type": "address"
        }
      ],
      "stateMutability": "view",
      "type": "function"
    },
    {
      "inputs": [
        {
          "internalType": "address",
          "name": "from",
          "type": "address"
        },
        {
          "internalType": "address",
          "name": "to",
          "type": "address"
        },
        {
          "internalType": "uint256",
          "name": "tokenId",
          "type": "uint256"
        }
      ],
      "name": "safeTransferFrom",
      "outputs": [],
      "stateMutability": "nonpayable",
      "type": "function"
    },
    {
      "inputs": [
        {
          "internalType": "address",
          "name": "from",
          "type": "address"
        },
        {
          "internalType": "address",
          "name": "to",
          "type": "address"
        },
        {
          "internalType": "uint256",
          "name": "tokenId",
          "type": "uint256"
        },
        {
          "internalType": "bytes",
          "name": "_data",
          "type": "bytes"
        }
      ],
      "name": "safeTransferFrom",
      "outputs": [],
      "stateMutability": "nonpayable",
      "type": "function"
    },
    {
      "inputs": [
        {
          "internalType": "address",
          "name": "operator",
          "type": "address"
        },
        {
          "internalType": "bool",
          "name": "approved",
          "type": "bool"
        }
      ],
      "name": "setApprovalForAll",
      "outputs": [],
      "stateMutability": "nonpayable",
      "type": "function"
    },
    {
      "inputs": [
        {
          "internalType": "bytes4",
          "name": "interfaceId",
          "type": "bytes4"
        }
      ],
      "name": "supportsInterface",
      "outputs": [
        {
          "internalType": "bool",
          "name": "",
          "type": "bool"
        }
      ],
      "stateMutability": "view",
      "type": "function"
    },
    {
      "inputs": [],
      "name": "symbol",
      "outputs": [
        {
          "internalType": "string",
          "name": "",
          "type": "string"
        }
      ],
      "stateMutability": "view",
      "type": "function"
    },
    {
      "inputs": [
        {
          "internalType": "uint256",
          "name": "tokenId",
          "type": "uint256"
        }
      ],
      "name": "tokenURI",
      "outputs": [
        {
          "internalType": "string",
          "name": "",
          "type": "string"
        }
      ],
      "stateMutability": "view",
      "type": "function"
    },
    {
      "inputs": [
        {
          "internalType": "address",
          "name": "from",
          "type": "address"
        },
        {
          "internalType": "address",
          "name": "to",
          "type": "address"
        },
        {
          "internalType": "uint256",
          "name": "tokenId",
          "type": "uint256"
        }
      ],
      "name": "transferFrom",
      "outputs": [],
      "stateMutability": "nonpayable",
      "type": "function"
    }
  ],
  "bytecode": "0x60806040523480156200001157600080fd5b5060405162001a0d38038062001a0d8339810160408190526200003491620000c1565b6040518060400160405280600e81526020016d105052c813595d185b585c9ad95d60921b8152506040518060400160405280600381526020016241414d60e81b815250816000908162000088919062000198565b50600162000097828262000198565b5050600880546001600160a01b0319166001600160a01b0393909316929092179091555062000264565b600060208284031215620000d457600080fd5b81516001600160a01b0381168114620000ec57600080fd5b9392505050565b634e487b7160e01b600052604160045260246000fd5b600181811c908216806200011e57607f821691505b6020821081036200013f57634e487b7160e01b600052602260045260246000fd5b50919050565b601f8211156200019357600081815260208120601f850160051c810160208610156200016e5750805b601f850160051c820191505b818110156200018f578281556001016200017a565b5050505b505050565b81516001600160401b03811115620001b457620001b4620000f3565b620001cc81620001c5845462000109565b8462000145565b602080601f831160018114620002045760008415620001eb5750858301515b600019600386901b1c1916600185901b1785556200018f565b600085815260208120601f198616915b82811015620002355788860151825594840194600190910190840162000214565b5085821015620002545787850151600019600388901b60f8161c191681555b5050505050600190811b01905550565b61179980620002746000396000f3fe608060405234801561001057600080fd5b50600436106100ea5760003560e01c806370a082311161008c578063a22cb46511610066578063a22cb465146101e1578063b88d4fde146101f4578063c87b56dd14610207578063e985e9c51461021a57600080fd5b806370a08231146101a557806395d89b41146101c6578063a2119377146101ce57600080fd5b8063095ea7b3116100c8578063095ea7b31461015757806323b872dd1461016c57806342842e0e1461017f5780636352211e1461019257600080fd5b806301ffc9a7146100ef57806306fdde0314610117578063081812fc1461012c575b600080fd5b6101026100fd366004611140565b610256565b60405190151581526020015b60405180910390f35b61011f6102a8565b60405161010e91906111ad565b61013f61013a3660046111c0565b61033a565b6040516001600160a01b03909116815260200161010e565b61016a6101653660046111f5565b6103c7565b005b61016a61017a36600461121f565b6104dc565b61016a61018d36600461121f565b61050d565b61013f6101a03660046111c0565b610528565b6101b86101b336600461125b565b61059f565b60405190815260200161010e565b61011f610626565b6101b86101dc366004611302565b610635565b61016a6101ef366004611364565b6106c8565b61016a6102023660046113a0565b6106d7565b61011f6102153660046111c0565b61070f565b61010261022836600461141c565b6001600160a01b03918216600090815260056020908152604080832093909416825291909152205460ff1690565b60006001600160e01b031982166380ac58cd60e01b148061028757506001600160e01b03198216635b5e139f60e01b145b806102a257506301ffc9a760e01b6001600160e01b03198316145b92915050565b6060600080546102b790611446565b80601f01602080910402602001604051908101604052809291908181526020018280546102e390611446565b80156103305780601f1061030557610100808354040283529160200191610330565b820191906000526020600020905b81548152906001019060200180831161031357829003601f168201915b5050505050905090565b600061034582610885565b6103ab5760405162461bcd60e51b815260206004820152602c60248201527f4552433732313a20617070726f76656420717565727920666f72206e6f6e657860448201526b34b9ba32b73a103a37b5b2b760a11b60648201526084015b60405180910390fd5b506000908152600460205260409020546001600160a01b031690565b60006103d282610528565b9050806001600160a01b0316836001600160a01b03160361043f5760405162461bcd60e51b815260206004820152602160248201527f4552433732313a20617070726f76616c20746f2063757272656e74206f776e656044820152603960f91b60648201526084016103a2565b336001600160a01b038216148061045b575061045b8133610228565b6104cd5760405162461bcd60e51b815260206004820152603860248201527f4552433732313a20617070726f76652063616c6c6572206973206e6f74206f7760448201527f6e6572206e6f7220617070726f76656420666f7220616c6c000000000000000060648201526084016103a2565b6104d783836108a2565b505050565b6104e63382610910565b6105025760405162461bcd60e51b81526004016103a290611480565b6104d78383836109f6565b6104d7838383604051806020016040528060008152506106d7565b6000818152600260205260408120546001600160a01b0316806102a25760405162461bcd60e51b815260206004820152602960248201527f4552433732313a206f776e657220717565727920666f72206e6f6e657869737460448201526832b73a103a37b5b2b760b91b60648201526084016103a2565b60006001600160a01b03821661060a5760405162461bcd60e51b815260206004820152602a60248201527f4552433732313a2062616c616e636520717565727920666f7220746865207a65604482015269726f206164647265737360b01b60648201526084016103a2565b506001600160a01b031660009081526003602052604090205490565b6060600180546102b790611446565b6008546000906001600160a01b031633146106925760405162461bcd60e51b815260206004820152601960248201527f4e6f742063616c6c6564206279206d61726b6574706c6163650000000000000060448201526064016103a2565b6106a0600780546001019055565b60006106ab60075490565b90506106b78382610b96565b6106c18185610cc9565b9392505050565b6106d3338383610d4d565b5050565b6106e13383610910565b6106fd5760405162461bcd60e51b81526004016103a290611480565b61070984848484610e1b565b50505050565b606061071a82610885565b6107805760405162461bcd60e51b815260206004820152603160248201527f45524337323155524953746f726167653a2055524920717565727920666f72206044820152703737b732bc34b9ba32b73a103a37b5b2b760791b60648201526084016103a2565b6000828152600660205260408120805461079990611446565b80601f01602080910402602001604051908101604052809291908181526020018280546107c590611446565b80156108125780601f106107e757610100808354040283529160200191610812565b820191906000526020600020905b8154815290600101906020018083116107f557829003601f168201915b50505050509050600061083060408051602081019091526000815290565b90508051600003610842575092915050565b81511561087457808260405160200161085c9291906114d1565b60405160208183030381529060405292505050919050565b61087d84610e4e565b949350505050565b6000908152600260205260409020546001600160a01b0316151590565b600081815260046020526040902080546001600160a01b0319166001600160a01b03841690811790915581906108d782610528565b6001600160a01b03167f8c5be1e5ebec7d5bd14f71427d1e84f3dd0314c0f7b2291e5b200ac8c7c3b92560405160405180910390a45050565b600061091b82610885565b61097c5760405162461bcd60e51b815260206004820152602c60248201527f4552433732313a206f70657261746f7220717565727920666f72206e6f6e657860448201526b34b9ba32b73a103a37b5b2b760a11b60648201526084016103a2565b600061098783610528565b9050806001600160a01b0316846001600160a01b031614806109c25750836001600160a01b03166109b78461033a565b6001600160a01b0316145b8061087d57506001600160a01b0380821660009081526005602090815260408083209388168352929052205460ff1661087d565b826001600160a01b0316610a0982610528565b6001600160a01b031614610a715760405162461bcd60e51b815260206004820152602960248201527f4552433732313a207472616e73666572206f6620746f6b656e2074686174206960448201526839903737ba1037bbb760b91b60648201526084016103a2565b6001600160a01b038216610ad35760405162461bcd60e51b8152602060048201526024808201527f4552433732313a207472616e7366657220746f20746865207a65726f206164646044820152637265737360e01b60648201526084016103a2565b610ade6000826108a2565b6001600160a01b0383166000908152600360205260408120805460019290610b07908490611516565b90915550506001600160a01b0382166000908152600360205260408120805460019290610b35908490611529565b909155505060008181526002602052604080822080546001600160a01b0319166001600160a01b0386811691821790925591518493918716917fddf252ad1be2c89b69c2b068fc378daa952ba7f163c4a11628f55a4df523b3ef91a4505050565b6001600160a01b038216610bec5760405162461bcd60e51b815260206004820181905260248201527f4552433732313a206d696e7420746f20746865207a65726f206164647265737360448201526064016103a2565b610bf581610885565b15610c425760405162461bcd60e51b815260206004820152601c60248201527f4552433732313a20746f6b656e20616c7265616479206d696e7465640000000060448201526064016103a2565b6001600160a01b0382166000908152600360205260408120805460019290610c6b908490611529565b909155505060008181526002602052604080822080546001600160a01b0319166001600160a01b03861690811790915590518392907fddf252ad1be2c89b69c2b068fc378daa952ba7f163c4a11628f55a4df523b3ef908290a45050565b610cd282610885565b610d355760405162461bcd60e51b815260206004820152602e60248201527f45524337323155524953746f726167653a2055524920736574206f66206e6f6e60448201526d32bc34b9ba32b73a103a37b5b2b760911b60648201526084016103a2565b60008281526006602052604090206104d7828261158a565b816001600160a01b0316836001600160a01b031603610dae5760405162461bcd60e51b815260206004820152601960248201527f4552433732313a20617070726f766520746f2063616c6c65720000000000000060448201526064016103a2565b6001600160a01b03838116600081815260056020908152604080832094871680845294825291829020805460ff191686151590811790915591519182527f17307eab39ab6107e8899845ad3d59bd9653f200f220920489ca2b5937696c31910160405180910390a3505050565b610e268484846109f6565b610e3284848484610f25565b6107095760405162461bcd60e51b81526004016103a29061164a565b6060610e5982610885565b610ebd5760405162461bcd60e51b815260206004820152602f60248201527f4552433732314d657461646174613a2055524920717565727920666f72206e6f60448201526e3732bc34b9ba32b73a103a37b5b2b760891b60648201526084016103a2565b6000610ed460408051602081019091526000815290565b90506000815111610ef457604051806020016040528060008152506106c1565b80610efe84611026565b604051602001610f0f9291906114d1565b6040516020818303038152906040529392505050565b60006001600160a01b0384163b1561101b57604051630a85bd0160e11b81526001600160a01b0385169063150b7a0290610f6990339089908890889060040161169c565b6020604051808303816000875af1925050508015610fa4575060408051601f3d908101601f19168201909252610fa1918101906116d9565b60015b611001573d808015610fd2576040519150601f19603f3d011682016040523d82523d6000602084013e610fd7565b606091505b508051600003610ff95760405162461bcd60e51b81526004016103a29061164a565b805181602001fd5b6001600160e01b031916630a85bd0160e11b14905061087d565b506001949350505050565b60608160000361104d5750506040805180820190915260018152600360fc1b602082015290565b8160005b81156110775780611061816116f6565b91506110709050600a83611725565b9150611051565b60008167ffffffffffffffff81111561109257611092611276565b6040519080825280601f01601f1916602001820160405280156110bc576020820181803683370190505b5090505b841561087d576110d1600183611516565b91506110de600a86611739565b6110e9906030611529565b60f81b8183815181106110fe576110fe61174d565b60200101906001600160f81b031916908160001a905350611120600a86611725565b94506110c0565b6001600160e01b03198116811461113d57600080fd5b50565b60006020828403121561115257600080fd5b81356106c181611127565b60005b83811015611178578181015183820152602001611160565b50506000910152565b6000815180845261119981602086016020860161115d565b601f01601f19169290920160200192915050565b6020815260006106c16020830184611181565b6000602082840312156111d257600080fd5b5035919050565b80356001600160a01b03811681146111f057600080fd5b919050565b6000806040838503121561120857600080fd5b611211836111d9565b946020939093013593505050565b60008060006060848603121561123457600080fd5b61123d846111d9565b925061124b602085016111d9565b9150604084013590509250925092565b60006020828403121561126d57600080fd5b6106c1826111d9565b634e487b7160e01b600052604160045260246000fd5b600067ffffffffffffffff808411156112a7576112a7611276565b604051601f8501601f19908116603f011681019082821181831017156112cf576112cf611276565b816040528093508581528686860111156112e857600080fd5b858560208301376000602087830101525050509392505050565b6000806040838503121561131557600080fd5b823567ffffffffffffffff81111561132c57600080fd5b8301601f8101851361133d57600080fd5b61134c8582356020840161128c565b92505061135b602084016111d9565b90509250929050565b6000806040838503121561137757600080fd5b611380836111d9565b91506020830135801515811461139557600080fd5b809150509250929050565b600080600080608085870312156113b657600080fd5b6113bf856111d9565b93506113cd602086016111d9565b925060408501359150606085013567ffffffffffffffff8111156113f057600080fd5b8501601f8101871361140157600080fd5b6114108782356020840161128c565b91505092959194509250565b6000806040838503121561142f57600080fd5b611438836111d9565b915061135b602084016111d9565b600181811c9082168061145a57607f821691505b60208210810361147a57634e487b7160e01b600052602260045260246000fd5b50919050565b60208082526031908201527f4552433732313a207472616e736665722063616c6c6572206973206e6f74206f6040820152701ddb995c881b9bdc88185c1c1c9bdd9959607a1b606082015260800190565b600083516114e381846020880161115d565b8351908301906114f781836020880161115d565b01949350505050565b634e487b7160e01b600052601160045260246000fd5b818103818111156102a2576102a2611500565b808201808211156102a2576102a2611500565b601f8211156104d757600081815260208120601f850160051c810160208610156115635750805b601f850160051c820191505b818110156115825782815560010161156f565b505050505050565b815167ffffffffffffffff8111156115a4576115a4611276565b6115b8816115b28454611446565b8461153c565b602080601f8311600181146115ed57600084156115d55750858301515b600019600386901b1c1916600185901b178555611582565b600085815260208120601f198616915b8281101561161c578886015182559484019460019091019084016115fd565b508582101561163a5787850151600019600388901b60f8161c191681555b5050505050600190811b01905550565b60208082526032908201527f4552433732313a207472616e7366657220746f206e6f6e20455243373231526560408201527131b2b4bb32b91034b6b83632b6b2b73a32b960711b606082015260800190565b6001600160a01b03858116825284166020820152604081018390526080606082018190526000906116cf90830184611181565b9695505050505050565b6000602082840312156116eb57600080fd5b81516106c181611127565b60006001820161170857611708611500565b5060010190565b634e487b7160e01b600052601260045260246000fd5b6000826117345761173461170f565b500490565b6000826117485761174861170f565b500690565b634e487b7160e01b600052603260045260246000fdfea2646970667358221220a05b3245e95cbb8e0ffca451c950614041ca2fe19ba81de6981e00b9277906c764736f6c63430008110033",
  "linkReferences": {},
  "deployedLinkReferences": {}
}