{
  "_format": "hh-sol-artifact-1",
  "contractName": "NFTMarket",
  "sourceName": "contracts/v2/NFTMarket.sol",
  "abi": [
    {
      "inputs": [],
      "stateMutability": "nonpayable",
      "type": "constructor"
    },
    {
      "anonymous": false,
      "inputs": [
        {
          "indexed": true,
          "internalType": "address",
          "name": "previousOwner",
          "type": "address"
        },
        {
          "indexed": true,
          "internalType": "address",
          "name": "newOwner",
          "type": "address"
        }
      ],
      "name": "OwnershipTransferred",
      "type": "event"
    },
    {
      "inputs": [
        {
          "internalType": "bytes",
          "name": "hash",
          "type": "bytes"
        },
        {
          "internalType": "string",
          "name": "tokenUri",
          "type": "string"
        }
      ],
      "name": "approvePendingAsset",
      "outputs": [
        {
          "internalType": "bool",
          "name": "",
          "type": "bool"
        }
      ],
      "stateMutability": "nonpayable",
      "type": "function"
    },
    {
      "inputs": [
        {
          "internalType": "address",
          "name": "nftContractAddress",
          "type": "address"
        }
      ],
      "name": "assignDeployedAddressToInstance",
      "outputs": [
        {
          "internalType": "bool",
          "name": "",
          "type": "bool"
        }
      ],
      "stateMutability": "nonpayable",
      "type": "function"
    },
    {
      "inputs": [],
      "name": "buyAsset",
      "outputs": [],
      "stateMutability": "nonpayable",
      "type": "function"
    },
    {
      "inputs": [
        {
          "components": [
            {
              "internalType": "uint256",
              "name": "nftID",
              "type": "uint256"
            },
            {
              "internalType": "bool",
              "name": "new_env",
              "type": "bool"
            },
            {
              "internalType": "uint256",
              "name": "creatorUserID",
              "type": "uint256"
            },
            {
              "internalType": "string",
              "name": "creatorUsername",
              "type": "string"
            },
            {
              "internalType": "string",
              "name": "creatorName",
              "type": "string"
            },
            {
              "internalType": "address",
              "name": "creatorMetamaskId",
              "type": "address"
            },
            {
              "internalType": "string",
              "name": "associatedProjectName",
              "type": "string"
            },
            {
              "internalType": "string",
              "name": "associatedProjectUrl",
              "type": "string"
            },
            {
              "internalType": "string",
              "name": "assetName",
              "type": "string"
            },
            {
              "internalType": "enum NFTMarket.AssetType",
              "name": "assetType",
              "type": "uint8"
            },
            {
              "internalType": "string",
              "name": "assetDescription",
              "type": "string"
            },
            {
              "internalType": "string",
              "name": "assetOffer",
              "type": "string"
            },
            {
              "internalType": "string",
              "name": "assetTerms",
              "type": "string"
            },
            {
              "internalType": "string",
              "name": "assetImage",
              "type": "string"
            },
            {
              "internalType": "bool",
              "name": "isHidden",
              "type": "bool"
            },
            {
              "internalType": "bool",
              "name": "isPrivate",
              "type": "bool"
            },
            {
              "internalType": "bool",
              "name": "multiNft",
              "type": "bool"
            },
            {
              "internalType": "uint256",
              "name": "assetPrice",
              "type": "uint256"
            },
            {
              "internalType": "enum NFTMarket.Status",
              "name": "status",
              "type": "uint8"
            }
          ],
          "internalType": "struct NFTMarket.MarketItem",
          "name": "data",
          "type": "tuple"
        },
        {
          "internalType": "string",
          "name": "tokenUri",
          "type": "string"
        }
      ],
      "name": "createAsset",
      "outputs": [
        {
          "internalType": "bool",
          "name": "",
          "type": "bool"
        }
      ],
      "stateMutability": "nonpayable",
      "type": "function"
    },
    {
      "inputs": [
        {
          "components": [
            {
              "internalType": "uint256",
              "name": "nftID",
              "type": "uint256"
            },
            {
              "internalType": "bool",
              "name": "new_env",
              "type": "bool"
            },
            {
              "internalType": "uint256",
              "name": "creatorUserID",
              "type": "uint256"
            },
            {
              "internalType": "string",
              "name": "creatorUsername",
              "type": "string"
            },
            {
              "internalType": "string",
              "name": "creatorName",
              "type": "string"
            },
            {
              "internalType": "address",
              "name": "creatorMetamaskId",
              "type": "address"
            },
            {
              "internalType": "string",
              "name": "associatedProjectName",
              "type": "string"
            },
            {
              "internalType": "string",
              "name": "associatedProjectUrl",
              "type": "string"
            },
            {
              "internalType": "string",
              "name": "assetName",
              "type": "string"
            },
            {
              "internalType": "enum NFTMarket.AssetType",
              "name": "assetType",
              "type": "uint8"
            },
            {
              "internalType": "string",
              "name": "assetDescription",
              "type": "string"
            },
            {
              "internalType": "string",
              "name": "assetOffer",
              "type": "string"
            },
            {
              "internalType": "string",
              "name": "assetTerms",
              "type": "string"
            },
            {
              "internalType": "string",
              "name": "assetImage",
              "type": "string"
            },
            {
              "internalType": "bool",
              "name": "isHidden",
              "type": "bool"
            },
            {
              "internalType": "bool",
              "name": "isPrivate",
              "type": "bool"
            },
            {
              "internalType": "bool",
              "name": "multiNft",
              "type": "bool"
            },
            {
              "internalType": "uint256",
              "name": "assetPrice",
              "type": "uint256"
            },
            {
              "internalType": "enum NFTMarket.Status",
              "name": "status",
              "type": "uint8"
            }
          ],
          "internalType": "struct NFTMarket.MarketItem",
          "name": "data",
          "type": "tuple"
        }
      ],
      "name": "createAssetPending",
      "outputs": [
        {
          "internalType": "bool",
          "name": "",
          "type": "bool"
        }
      ],
      "stateMutability": "nonpayable",
      "type": "function"
    },
    {
      "inputs": [
        {
          "internalType": "uint256",
          "name": "lowerBoundary",
          "type": "uint256"
        },
        {
          "internalType": "uint256",
          "name": "upperBoundary",
          "type": "uint256"
        }
      ],
      "name": "getAllMarketItem",
      "outputs": [
        {
          "components": [
            {
              "internalType": "uint256",
              "name": "nftID",
              "type": "uint256"
            },
            {
              "internalType": "bool",
              "name": "new_env",
              "type": "bool"
            },
            {
              "internalType": "uint256",
              "name": "creatorUserID",
              "type": "uint256"
            },
            {
              "internalType": "string",
              "name": "creatorUsername",
              "type": "string"
            },
            {
              "internalType": "string",
              "name": "creatorName",
              "type": "string"
            },
            {
              "internalType": "address",
              "name": "creatorMetamaskId",
              "type": "address"
            },
            {
              "internalType": "string",
              "name": "associatedProjectName",
              "type": "string"
            },
            {
              "internalType": "string",
              "name": "associatedProjectUrl",
              "type": "string"
            },
            {
              "internalType": "string",
              "name": "assetName",
              "type": "string"
            },
            {
              "internalType": "enum NFTMarket.AssetType",
              "name": "assetType",
              "type": "uint8"
            },
            {
              "internalType": "string",
              "name": "assetDescription",
              "type": "string"
            },
            {
              "internalType": "string",
              "name": "assetOffer",
              "type": "string"
            },
            {
              "internalType": "string",
              "name": "assetTerms",
              "type": "string"
            },
            {
              "internalType": "string",
              "name": "assetImage",
              "type": "string"
            },
            {
              "internalType": "bool",
              "name": "isHidden",
              "type": "bool"
            },
            {
              "internalType": "bool",
              "name": "isPrivate",
              "type": "bool"
            },
            {
              "internalType": "bool",
              "name": "multiNft",
              "type": "bool"
            },
            {
              "internalType": "uint256",
              "name": "assetPrice",
              "type": "uint256"
            },
            {
              "internalType": "enum NFTMarket.Status",
              "name": "status",
              "type": "uint8"
            }
          ],
          "internalType": "struct NFTMarket.MarketItem[]",
          "name": "",
          "type": "tuple[]"
        }
      ],
      "stateMutability": "view",
      "type": "function"
    },
    {
      "inputs": [
        {
          "internalType": "bytes",
          "name": "hash",
          "type": "bytes"
        }
      ],
      "name": "getMarketItem",
      "outputs": [
        {
          "components": [
            {
              "internalType": "uint256",
              "name": "nftID",
              "type": "uint256"
            },
            {
              "internalType": "bool",
              "name": "new_env",
              "type": "bool"
            },
            {
              "internalType": "uint256",
              "name": "creatorUserID",
              "type": "uint256"
            },
            {
              "internalType": "string",
              "name": "creatorUsername",
              "type": "string"
            },
            {
              "internalType": "string",
              "name": "creatorName",
              "type": "string"
            },
            {
              "internalType": "address",
              "name": "creatorMetamaskId",
              "type": "address"
            },
            {
              "internalType": "string",
              "name": "associatedProjectName",
              "type": "string"
            },
            {
              "internalType": "string",
              "name": "associatedProjectUrl",
              "type": "string"
            },
            {
              "internalType": "string",
              "name": "assetName",
              "type": "string"
            },
            {
              "internalType": "enum NFTMarket.AssetType",
              "name": "assetType",
              "type": "uint8"
            },
            {
              "internalType": "string",
              "name": "assetDescription",
              "type": "string"
            },
            {
              "internalType": "string",
              "name": "assetOffer",
              "type": "string"
            },
            {
              "internalType": "string",
              "name": "assetTerms",
              "type": "string"
            },
            {
              "internalType": "string",
              "name": "assetImage",
              "type": "string"
            },
            {
              "internalType": "bool",
              "name": "isHidden",
              "type": "bool"
            },
            {
              "internalType": "bool",
              "name": "isPrivate",
              "type": "bool"
            },
            {
              "internalType": "bool",
              "name": "multiNft",
              "type": "bool"
            },
            {
              "internalType": "uint256",
              "name": "assetPrice",
              "type": "uint256"
            },
            {
              "internalType": "enum NFTMarket.Status",
              "name": "status",
              "type": "uint8"
            }
          ],
          "internalType": "struct NFTMarket.MarketItem",
          "name": "",
          "type": "tuple"
        }
      ],
      "stateMutability": "view",
      "type": "function"
    },
    {
      "inputs": [
        {
          "internalType": "bytes",
          "name": "hash",
          "type": "bytes"
        }
      ],
      "name": "getMarketItemStatus",
      "outputs": [
        {
          "internalType": "string",
          "name": "",
          "type": "string"
        }
      ],
      "stateMutability": "view",
      "type": "function"
    },
    {
      "inputs": [],
      "name": "nftContract",
      "outputs": [
        {
          "internalType": "contract NFT",
          "name": "",
          "type": "address"
        }
      ],
      "stateMutability": "view",
      "type": "function"
    },
    {
      "inputs": [],
      "name": "owner",
      "outputs": [
        {
          "internalType": "address",
          "name": "",
          "type": "address"
        }
      ],
      "stateMutability": "view",
      "type": "function"
    },
    {
      "inputs": [],
      "name": "renounceOwnership",
      "outputs": [],
      "stateMutability": "nonpayable",
      "type": "function"
    },
    {
      "inputs": [
        {
          "internalType": "address",
          "name": "newOwner",
          "type": "address"
        }
      ],
      "name": "transferOwnership",
      "outputs": [],
      "stateMutability": "nonpayable",
      "type": "function"
    }
  ],
  "bytecode": "0x608060405266038d7ea4c6800060055534801561001b57600080fd5b50600160005561002a3361002f565b610081565b600180546001600160a01b038381166001600160a01b0319831681179093556040519116919082907f8be0079c531659141344cd1fd0a4f28419497f9722a3daafe3b4186f6b6457e090600090a35050565b6123d9806100906000396000f3fe608060405234801561001057600080fd5b50600436106100b45760003560e01c8063a835460211610071578063a835460214610147578063b35f22ac1461017a578063d56d229d1461018d578063ec597cd1146101a0578063f2fde38b146101c0578063f7785a07146101d357600080fd5b80634d5a3552146100b957806357bf0305146100e2578063629a2a2414610105578063715018a6146101185780638da5cb5b146101225780639fbaf13114610120575b600080fd5b6100cc6100c7366004611a5a565b6101f3565b6040516100d99190611cc4565b60405180910390f35b6100f56100f0366004611f36565b610825565b60405190151581526020016100d9565b6100f5610113366004611f6b565b610aba565b610120610ba3565b005b6001546001600160a01b03165b6040516001600160a01b0390911681526020016100d9565b6100f5610155366004611fcf565b600480546001600160a01b0319166001600160a01b0392909216919091179055600190565b6100f5610188366004611fea565b610be2565b60045461012f906001600160a01b031681565b6101b36101ae366004611a5a565b610edb565b6040516100d99190612021565b6101206101ce366004611fcf565b610f14565b6101e66101e1366004612034565b610faf565b6040516100d99190612056565b6101fb6118c9565b60068260405161020b91906120b8565b9081526040805191829003602090810183206102608401835280548452600181015460ff1615159184019190915260028101549183019190915260038101805460608401919061025a906120d4565b80601f0160208091040260200160405190810160405280929190818152602001828054610286906120d4565b80156102d35780601f106102a8576101008083540402835291602001916102d3565b820191906000526020600020905b8154815290600101906020018083116102b657829003601f168201915b505050505081526020016004820180546102ec906120d4565b80601f0160208091040260200160405190810160405280929190818152602001828054610318906120d4565b80156103655780601f1061033a57610100808354040283529160200191610365565b820191906000526020600020905b81548152906001019060200180831161034857829003601f168201915b505050918352505060058201546001600160a01b03166020820152600682018054604090920191610395906120d4565b80601f01602080910402602001604051908101604052809291908181526020018280546103c1906120d4565b801561040e5780601f106103e35761010080835404028352916020019161040e565b820191906000526020600020905b8154815290600101906020018083116103f157829003601f168201915b50505050508152602001600782018054610427906120d4565b80601f0160208091040260200160405190810160405280929190818152602001828054610453906120d4565b80156104a05780601f10610475576101008083540402835291602001916104a0565b820191906000526020600020905b81548152906001019060200180831161048357829003601f168201915b505050505081526020016008820180546104b9906120d4565b80601f01602080910402602001604051908101604052809291908181526020018280546104e5906120d4565b80156105325780601f1061050757610100808354040283529160200191610532565b820191906000526020600020905b81548152906001019060200180831161051557829003601f168201915b5050509183525050600982015460209091019060ff16600481111561055957610559611ae7565b600481111561056a5761056a611ae7565b8152602001600a8201805461057e906120d4565b80601f01602080910402602001604051908101604052809291908181526020018280546105aa906120d4565b80156105f75780601f106105cc576101008083540402835291602001916105f7565b820191906000526020600020905b8154815290600101906020018083116105da57829003601f168201915b50505050508152602001600b82018054610610906120d4565b80601f016020809104026020016040519081016040528092919081815260200182805461063c906120d4565b80156106895780601f1061065e57610100808354040283529160200191610689565b820191906000526020600020905b81548152906001019060200180831161066c57829003601f168201915b50505050508152602001600c820180546106a2906120d4565b80601f01602080910402602001604051908101604052809291908181526020018280546106ce906120d4565b801561071b5780601f106106f05761010080835404028352916020019161071b565b820191906000526020600020905b8154815290600101906020018083116106fe57829003601f168201915b50505050508152602001600d82018054610734906120d4565b80601f0160208091040260200160405190810160405280929190818152602001828054610760906120d4565b80156107ad5780601f10610782576101008083540402835291602001916107ad565b820191906000526020600020905b81548152906001019060200180831161079057829003601f168201915b5050509183525050600e82015460ff80821615156020840152610100820481161515604084015262010000909104811615156060830152600f8301546080830152601083015460a09092019116600281111561080b5761080b611ae7565b600281111561081c5761081c611ae7565b90525092915050565b6000806108758360400151846000015185610100015186610120015187610140015160405160200161085b95949392919061210e565b604051602081830303815290604052805160209091012090565b60405160200161088791815260200190565b6040516020818303038152906040529050826006826040516108a991906120b8565b9081526040805160209281900383019020835181559183015160018301805460ff19169115159190911790558201516002820155606082015160038201906108f190826121b8565b506080820151600482019061090690826121b8565b5060a08201516005820180546001600160a01b0319166001600160a01b0390921691909117905560c0820151600682019061094190826121b8565b5060e0820151600782019061095690826121b8565b50610100820151600882019061096c90826121b8565b5061012082015160098201805460ff1916600183600481111561099157610991611ae7565b0217905550610140820151600a8201906109ab90826121b8565b50610160820151600b8201906109c190826121b8565b50610180820151600c8201906109d790826121b8565b506101a0820151600d8201906109ed90826121b8565b506101c0820151600e820180546101e08501516102008601511515620100000262ff0000199115156101000261ff00199515159590951661ffff19909316929092179390931792909216919091179055610220820151600f82015561024082015160108201805460ff19166001836002811115610a6c57610a6c611ae7565b021790555050600780546001810182556000919091527fa66cc928b5edb82af9bd49922954155ab7b0942694bea4ce44661d9a8736c688019050610ab082826121b8565b5060019392505050565b6004805460405163a211937760e01b815260009283926001600160a01b03169163a211937791610aee918791339101612278565b6020604051808303816000875af1158015610b0d573d6000803e3d6000fd5b505050506040513d601f19601f82011682018060405250810190610b3191906122a2565b905080600685604051610b4491906120b8565b90815260405190819003602001812091909155600190600690610b689087906120b8565b908152604051908190036020019020601001805460ff19166001836002811115610b9457610b94611ae7565b02179055506001949350505050565b6001546001600160a01b03163314610bd65760405162461bcd60e51b8152600401610bcd906122bb565b60405180910390fd5b610be060006117b6565b565b6004805460405163a211937760e01b815260009283926001600160a01b03169163a211937791610c16918791339101612278565b6020604051808303816000875af1158015610c35573d6000803e3d6000fd5b505050506040513d601f19601f82011682018060405250810190610c5991906122a2565b8085526040808601516101008701516101208801516101408901519351949550600094610c949461085b94938893909290919060200161210e565b604051602001610ca691815260200190565b604051602081830303815290604052905084600682604051610cc891906120b8565b9081526040805160209281900383019020835181559183015160018301805460ff1916911515919091179055820151600282015560608201516003820190610d1090826121b8565b5060808201516004820190610d2590826121b8565b5060a08201516005820180546001600160a01b0319166001600160a01b0390921691909117905560c08201516006820190610d6090826121b8565b5060e08201516007820190610d7590826121b8565b506101008201516008820190610d8b90826121b8565b5061012082015160098201805460ff19166001836004811115610db057610db0611ae7565b0217905550610140820151600a820190610dca90826121b8565b50610160820151600b820190610de090826121b8565b50610180820151600c820190610df690826121b8565b506101a0820151600d820190610e0c90826121b8565b506101c0820151600e820180546101e08501516102008601511515620100000262ff0000199115156101000261ff00199515159590951661ffff19909316929092179390931792909216919091179055610220820151600f82015561024082015160108201805460ff19166001836002811115610e8b57610e8b611ae7565b021790555050600780546001810182556000919091527fa66cc928b5edb82af9bd49922954155ab7b0942694bea4ce44661d9a8736c688019050610ecf82826121b8565b50600195945050505050565b60606000610f0d600684604051610ef291906120b8565b9081526040519081900360200190206010015460ff16611808565b9392505050565b6001546001600160a01b03163314610f3e5760405162461bcd60e51b8152600401610bcd906122bb565b6001600160a01b038116610fa35760405162461bcd60e51b815260206004820152602660248201527f4f776e61626c653a206e6577206f776e657220697320746865207a65726f206160448201526564647265737360d01b6064820152608401610bcd565b610fac816117b6565b50565b6001546060906001600160a01b03163314610fdc5760405162461bcd60e51b8152600401610bcd906122bb565b60075460018110156110235760405162461bcd60e51b815260206004820152601060248201526f6173736574732061726520656d70747960801b6044820152606401610bcd565b808411158015611031575060015b6110a35760405162461bcd60e51b815260206004820152603f60248201527f6c6f77657220626f756e646172792073686f756c64206265206c657373206f7260448201527f20657175616c20746f2073697a6520616e64206e6f6e206e65676174697665006064820152608401610bcd565b8083111580156110b1575060015b6111235760405162461bcd60e51b815260206004820152603f60248201527f757070657220626f756e646172792073686f756c64206265206c657373206f7260448201527f20657175616c20746f2073697a6520616e64206e6f6e206e65676174697665006064820152608401610bcd565b60606000855b8581116117ab57600660078281548110611145576111456122f0565b9060005260206000200160405161115c9190612306565b9081526040805191829003602090810183206102608401835280548452600181015460ff161515918401919091526002810154918301919091526003810180546060840191906111ab906120d4565b80601f01602080910402602001604051908101604052809291908181526020018280546111d7906120d4565b80156112245780601f106111f957610100808354040283529160200191611224565b820191906000526020600020905b81548152906001019060200180831161120757829003601f168201915b5050505050815260200160048201805461123d906120d4565b80601f0160208091040260200160405190810160405280929190818152602001828054611269906120d4565b80156112b65780601f1061128b576101008083540402835291602001916112b6565b820191906000526020600020905b81548152906001019060200180831161129957829003601f168201915b505050918352505060058201546001600160a01b031660208201526006820180546040909201916112e6906120d4565b80601f0160208091040260200160405190810160405280929190818152602001828054611312906120d4565b801561135f5780601f106113345761010080835404028352916020019161135f565b820191906000526020600020905b81548152906001019060200180831161134257829003601f168201915b50505050508152602001600782018054611378906120d4565b80601f01602080910402602001604051908101604052809291908181526020018280546113a4906120d4565b80156113f15780601f106113c6576101008083540402835291602001916113f1565b820191906000526020600020905b8154815290600101906020018083116113d457829003601f168201915b5050505050815260200160088201805461140a906120d4565b80601f0160208091040260200160405190810160405280929190818152602001828054611436906120d4565b80156114835780601f1061145857610100808354040283529160200191611483565b820191906000526020600020905b81548152906001019060200180831161146657829003601f168201915b5050509183525050600982015460209091019060ff1660048111156114aa576114aa611ae7565b60048111156114bb576114bb611ae7565b8152602001600a820180546114cf906120d4565b80601f01602080910402602001604051908101604052809291908181526020018280546114fb906120d4565b80156115485780601f1061151d57610100808354040283529160200191611548565b820191906000526020600020905b81548152906001019060200180831161152b57829003601f168201915b50505050508152602001600b82018054611561906120d4565b80601f016020809104026020016040519081016040528092919081815260200182805461158d906120d4565b80156115da5780601f106115af576101008083540402835291602001916115da565b820191906000526020600020905b8154815290600101906020018083116115bd57829003601f168201915b50505050508152602001600c820180546115f3906120d4565b80601f016020809104026020016040519081016040528092919081815260200182805461161f906120d4565b801561166c5780601f106116415761010080835404028352916020019161166c565b820191906000526020600020905b81548152906001019060200180831161164f57829003601f168201915b50505050508152602001600d82018054611685906120d4565b80601f01602080910402602001604051908101604052809291908181526020018280546116b1906120d4565b80156116fe5780601f106116d3576101008083540402835291602001916116fe565b820191906000526020600020905b8154815290600101906020018083116116e157829003601f168201915b5050509183525050600e82015460ff80821615156020840152610100820481161515604084015262010000909104811615156060830152600f8301546080830152601083015460a09092019116600281111561175c5761175c611ae7565b600281111561176d5761176d611ae7565b905250838361177b8161237c565b94508151811061178d5761178d6122f0565b602002602001018190525080806117a39061237c565b915050611129565b509095945050505050565b600180546001600160a01b038381166001600160a01b0319831681179093556040519116919082907f8be0079c531659141344cd1fd0a4f28419497f9722a3daafe3b4186f6b6457e090600090a35050565b6060600382600281111561181e5761181e611ae7565b60ff16111561182c57600080fd5b81600281111561183e5761183e611ae7565b60000361186857505060408051808201909152600781526650656e64696e6760c81b602082015290565b81600281111561187a5761187a611ae7565b6001036118a457505060408051808201909152600781526610dc99585d195960ca1b602082015290565b505060408051808201909152600481526314dbdb1960e21b602082015290565b919050565b6040518061026001604052806000815260200160001515815260200160008152602001606081526020016060815260200160006001600160a01b031681526020016060815260200160608152602001606081526020016000600481111561193257611932611ae7565b815260200160608152602001606081526020016060815260200160608152602001600015158152602001600015158152602001600015158152602001600081526020016000600281111561198857611988611ae7565b905290565b634e487b7160e01b600052604160045260246000fd5b604051610260810167ffffffffffffffff811182821017156119c7576119c761198d565b60405290565b600082601f8301126119de57600080fd5b813567ffffffffffffffff808211156119f9576119f961198d565b604051601f8301601f19908116603f01168101908282118183101715611a2157611a2161198d565b81604052838152866020858801011115611a3a57600080fd5b836020870160208301376000602085830101528094505050505092915050565b600060208284031215611a6c57600080fd5b813567ffffffffffffffff811115611a8357600080fd5b611a8f848285016119cd565b949350505050565b60005b83811015611ab2578181015183820152602001611a9a565b50506000910152565b60008151808452611ad3816020860160208601611a97565b601f01601f19169290920160200192915050565b634e487b7160e01b600052602160045260246000fd5b60058110611b0d57611b0d611ae7565b9052565b60038110611b0d57611b0d611ae7565b6000610260825184526020830151611b3d602086018215159052565b50604083015160408501526060830151816060860152611b5f82860182611abb565b91505060808301518482036080860152611b798282611abb565b91505060a0830151611b9660a08601826001600160a01b03169052565b5060c083015184820360c0860152611bae8282611abb565b91505060e083015184820360e0860152611bc88282611abb565b9150506101008084015185830382870152611be38382611abb565b9250505061012080840151611bfa82870182611afd565b50506101408084015185830382870152611c148382611abb565b925050506101608084015185830382870152611c308382611abb565b925050506101808084015185830382870152611c4c8382611abb565b925050506101a08084015185830382870152611c688382611abb565b925050506101c080840151611c808287018215159052565b50506101e08381015115159085015261020080840151151590850152610220808401519085015261024080840151611cba82870182611b11565b5090949350505050565b602081526000610f0d6020830184611b21565b803580151581146118c457600080fd5b80356001600160a01b03811681146118c457600080fd5b8035600581106118c457600080fd5b8035600381106118c457600080fd5b60006102608284031215611d2f57600080fd5b611d376119a3565b905081358152611d4960208301611cd7565b602082015260408201356040820152606082013567ffffffffffffffff80821115611d7357600080fd5b611d7f858386016119cd565b60608401526080840135915080821115611d9857600080fd5b611da4858386016119cd565b6080840152611db560a08501611ce7565b60a084015260c0840135915080821115611dce57600080fd5b611dda858386016119cd565b60c084015260e0840135915080821115611df357600080fd5b611dff858386016119cd565b60e084015261010091508184013581811115611e1a57600080fd5b611e26868287016119cd565b83850152506101209150611e3b828501611cfe565b8284015261014091508184013581811115611e5557600080fd5b611e61868287016119cd565b838501525061016091508184013581811115611e7c57600080fd5b611e88868287016119cd565b838501525061018091508184013581811115611ea357600080fd5b611eaf868287016119cd565b83850152506101a091508184013581811115611eca57600080fd5b611ed6868287016119cd565b838501525050506101c0611eeb818401611cd7565b908201526101e0611efd838201611cd7565b90820152610200611f0f838201611cd7565b908201526102208281013590820152610240611f2c818401611d0d565b9082015292915050565b600060208284031215611f4857600080fd5b813567ffffffffffffffff811115611f5f57600080fd5b611a8f84828501611d1c565b60008060408385031215611f7e57600080fd5b823567ffffffffffffffff80821115611f9657600080fd5b611fa2868387016119cd565b93506020850135915080821115611fb857600080fd5b50611fc5858286016119cd565b9150509250929050565b600060208284031215611fe157600080fd5b610f0d82611ce7565b60008060408385031215611ffd57600080fd5b823567ffffffffffffffff8082111561201557600080fd5b611fa286838701611d1c565b602081526000610f0d6020830184611abb565b6000806040838503121561204757600080fd5b50508035926020909101359150565b6000602080830181845280855180835260408601915060408160051b870101925083870160005b828110156120ab57603f19888603018452612099858351611b21565b9450928501929085019060010161207d565b5092979650505050505050565b600082516120ca818460208701611a97565b9190910192915050565b600181811c908216806120e857607f821691505b60208210810361210857634e487b7160e01b600052602260045260246000fd5b50919050565b8581528460208201526000845161212c816040850160208901611a97565b82016005851061213e5761213e611ae7565b8460f81b6040820152835161215a816041840160208801611a97565b01604101979650505050505050565b601f8211156121b357600081815260208120601f850160051c810160208610156121905750805b601f850160051c820191505b818110156121af5782815560010161219c565b5050505b505050565b815167ffffffffffffffff8111156121d2576121d261198d565b6121e6816121e084546120d4565b84612169565b602080601f83116001811461221b57600084156122035750858301515b600019600386901b1c1916600185901b1785556121af565b600085815260208120601f198616915b8281101561224a5788860151825594840194600190910190840161222b565b50858210156122685787850151600019600388901b60f8161c191681555b5050505050600190811b01905550565b60408152600061228b6040830185611abb565b905060018060a01b03831660208301529392505050565b6000602082840312156122b457600080fd5b5051919050565b6020808252818101527f4f776e61626c653a2063616c6c6572206973206e6f7420746865206f776e6572604082015260600190565b634e487b7160e01b600052603260045260246000fd5b6000808354612314816120d4565b6001828116801561232c576001811461234157612370565b60ff1984168752821515830287019450612370565b8760005260208060002060005b858110156123675781548a82015290840190820161234e565b50505082870194505b50929695505050505050565b60006001820161239c57634e487b7160e01b600052601160045260246000fd5b506001019056fea26469706673582212205548bf39a890514193a2e191691915d72d37c7b025e7a2262c626f86ac89ab9164736f6c63430008110033",
  "linkReferences": {},
  "deployedLinkReferences": {}
}